{
	"contracts/Try01/Manage.sol": {
		"Manageowner": {
			"abi": [
				{
					"anonymous": false,
					"inputs": [
						{
							"indexed": true,
							"internalType": "address",
							"name": "owner",
							"type": "address"
						}
					],
					"name": "AddOwner",
					"type": "event"
				},
				{
					"anonymous": false,
					"inputs": [
						{
							"indexed": false,
							"internalType": "uint256",
							"name": "threshold",
							"type": "uint256"
						}
					],
					"name": "ChangeThreshold",
					"type": "event"
				},
				{
					"anonymous": false,
					"inputs": [
						{
							"indexed": true,
							"internalType": "address",
							"name": "preowner",
							"type": "address"
						}
					],
					"name": "RemoveOwner",
					"type": "event"
				},
				{
					"inputs": [
						{
							"internalType": "address[]",
							"name": "_owners",
							"type": "address[]"
						},
						{
							"internalType": "uint256",
							"name": "_threshold",
							"type": "uint256"
						}
					],
					"name": "_initialwallet",
					"outputs": [],
					"stateMutability": "nonpayable",
					"type": "function"
				},
				{
					"inputs": [
						{
							"internalType": "address",
							"name": "owner",
							"type": "address"
						},
						{
							"internalType": "uint256",
							"name": "new_threshold",
							"type": "uint256"
						}
					],
					"name": "addOwnersAndThreshold",
					"outputs": [],
					"stateMutability": "nonpayable",
					"type": "function"
				},
				{
					"inputs": [
						{
							"internalType": "address",
							"name": "x",
							"type": "address"
						},
						{
							"internalType": "uint256",
							"name": "y",
							"type": "uint256"
						}
					],
					"name": "addOwnersencode",
					"outputs": [
						{
							"internalType": "bytes",
							"name": "result",
							"type": "bytes"
						}
					],
					"stateMutability": "pure",
					"type": "function"
				},
				{
					"inputs": [
						{
							"internalType": "address",
							"name": "owner",
							"type": "address"
						}
					],
					"name": "addowner",
					"outputs": [],
					"stateMutability": "nonpayable",
					"type": "function"
				},
				{
					"inputs": [
						{
							"internalType": "uint256",
							"name": "new_threshold",
							"type": "uint256"
						}
					],
					"name": "changeThreshold",
					"outputs": [],
					"stateMutability": "nonpayable",
					"type": "function"
				},
				{
					"inputs": [
						{
							"internalType": "uint256",
							"name": "new_threshold",
							"type": "uint256"
						}
					],
					"name": "changeThresholdencode",
					"outputs": [
						{
							"internalType": "bytes",
							"name": "result",
							"type": "bytes"
						}
					],
					"stateMutability": "pure",
					"type": "function"
				},
				{
					"inputs": [],
					"name": "checkOwners",
					"outputs": [
						{
							"internalType": "address[]",
							"name": "",
							"type": "address[]"
						}
					],
					"stateMutability": "view",
					"type": "function"
				},
				{
					"inputs": [],
					"name": "checkThreshold",
					"outputs": [
						{
							"internalType": "uint256",
							"name": "",
							"type": "uint256"
						}
					],
					"stateMutability": "view",
					"type": "function"
				},
				{
					"inputs": [
						{
							"internalType": "address",
							"name": "_owner",
							"type": "address"
						}
					],
					"name": "ownerExist",
					"outputs": [
						{
							"internalType": "bool",
							"name": "",
							"type": "bool"
						}
					],
					"stateMutability": "view",
					"type": "function"
				},
				{
					"inputs": [],
					"name": "owners_num",
					"outputs": [
						{
							"internalType": "uint256",
							"name": "",
							"type": "uint256"
						}
					],
					"stateMutability": "view",
					"type": "function"
				},
				{
					"inputs": [
						{
							"internalType": "address",
							"name": "preowner",
							"type": "address"
						},
						{
							"internalType": "uint256",
							"name": "new_threshold",
							"type": "uint256"
						}
					],
					"name": "removeOwners",
					"outputs": [],
					"stateMutability": "nonpayable",
					"type": "function"
				},
				{
					"inputs": [
						{
							"internalType": "address",
							"name": "x",
							"type": "address"
						},
						{
							"internalType": "uint256",
							"name": "y",
							"type": "uint256"
						}
					],
					"name": "removeOwnersencode",
					"outputs": [
						{
							"internalType": "bytes",
							"name": "result",
							"type": "bytes"
						}
					],
					"stateMutability": "pure",
					"type": "function"
				}
			],
			"devdoc": {
				"kind": "dev",
				"methods": {},
				"version": 1
			},
			"evm": {
				"assembly": "    /* \"contracts/Try01/Manage.sol\":60:8197  contract Manageowner{... */\n  mstore(0x40, 0x80)\n  callvalue\n  dup1\n  iszero\n  tag_1\n  jumpi\n  0x00\n  dup1\n  revert\ntag_1:\n  pop\n  dataSize(sub_0)\n  dup1\n  dataOffset(sub_0)\n  0x00\n  codecopy\n  0x00\n  return\nstop\n\nsub_0: assembly {\n        /* \"contracts/Try01/Manage.sol\":60:8197  contract Manageowner{... */\n      mstore(0x40, 0x80)\n      callvalue\n      dup1\n      iszero\n      tag_1\n      jumpi\n      0x00\n      dup1\n      revert\n    tag_1:\n      pop\n      jumpi(tag_2, lt(calldatasize, 0x04))\n      shr(0xe0, calldataload(0x00))\n      dup1\n      0x694e80c3\n      gt\n      tag_15\n      jumpi\n      dup1\n      0x694e80c3\n      eq\n      tag_9\n      jumpi\n      dup1\n      0x81244e5d\n      eq\n      tag_10\n      jumpi\n      dup1\n      0xa0e1ace8\n      eq\n      tag_11\n      jumpi\n      dup1\n      0xc0f0b3f1\n      eq\n      tag_12\n      jumpi\n      dup1\n      0xef11783c\n      eq\n      tag_13\n      jumpi\n      dup1\n      0xff87578c\n      eq\n      tag_14\n      jumpi\n      jump(tag_2)\n    tag_15:\n      dup1\n      0x029c81e3\n      eq\n      tag_3\n      jumpi\n      dup1\n      0x0c3dfc1a\n      eq\n      tag_4\n      jumpi\n      dup1\n      0x0c546204\n      eq\n      tag_5\n      jumpi\n      dup1\n      0x54910298\n      eq\n      tag_6\n      jumpi\n      dup1\n      0x5ce7fa2d\n      eq\n      tag_7\n      jumpi\n      dup1\n      0x6876a95e\n      eq\n      tag_8\n      jumpi\n    tag_2:\n      0x00\n      dup1\n      revert\n        /* \"contracts/Try01/Manage.sol\":3389:3792  function checkOwners()public view returns(address[] memory){... */\n    tag_3:\n      tag_16\n      tag_17\n      jump\t// in\n    tag_16:\n      mload(0x40)\n      tag_18\n      swap2\n      swap1\n      tag_19\n      jump\t// in\n    tag_18:\n      mload(0x40)\n      dup1\n      swap2\n      sub\n      swap1\n      return\n        /* \"contracts/Try01/Manage.sol\":260:285  uint256 public owners_num */\n    tag_4:\n      tag_20\n      tag_21\n      jump\t// in\n    tag_20:\n      mload(0x40)\n      tag_22\n      swap2\n      swap1\n      tag_23\n      jump\t// in\n    tag_22:\n      mload(0x40)\n      dup1\n      swap2\n      sub\n      swap1\n      return\n        /* \"contracts/Try01/Manage.sol\":1714:2267  function addOwnersAndThreshold(address owner, uint256 new_threshold)public {... */\n    tag_5:\n      tag_24\n      0x04\n      dup1\n      calldatasize\n      sub\n      dup2\n      add\n      swap1\n      tag_25\n      swap2\n      swap1\n      tag_26\n      jump\t// in\n    tag_25:\n      tag_27\n      jump\t// in\n    tag_24:\n      stop\n        /* \"contracts/Try01/Manage.sol\":7947:8192  function removeOwnersencode(address x, uint256 y) public pure returns(bytes memory result) {... */\n    tag_6:\n      tag_28\n      0x04\n      dup1\n      calldatasize\n      sub\n      dup2\n      add\n      swap1\n      tag_29\n      swap2\n      swap1\n      tag_26\n      jump\t// in\n    tag_29:\n      tag_30\n      jump\t// in\n    tag_28:\n      mload(0x40)\n      tag_31\n      swap2\n      swap1\n      tag_32\n      jump\t// in\n    tag_31:\n      mload(0x40)\n      dup1\n      swap2\n      sub\n      swap1\n      return\n        /* \"contracts/Try01/Manage.sol\":3830:4824  function addowner(address owner)public  {... */\n    tag_7:\n      tag_33\n      0x04\n      dup1\n      calldatasize\n      sub\n      dup2\n      add\n      swap1\n      tag_34\n      swap2\n      swap1\n      tag_35\n      jump\t// in\n    tag_34:\n      tag_36\n      jump\t// in\n    tag_33:\n      stop\n        /* \"contracts/Try01/Manage.sol\":6419:6625  function changeThresholdencode(uint256 new_threshold) public pure returns(bytes memory result) {... */\n    tag_8:\n      tag_37\n      0x04\n      dup1\n      calldatasize\n      sub\n      dup2\n      add\n      swap1\n      tag_38\n      swap2\n      swap1\n      tag_39\n      jump\t// in\n    tag_38:\n      tag_40\n      jump\t// in\n    tag_37:\n      mload(0x40)\n      tag_41\n      swap2\n      swap1\n      tag_32\n      jump\t// in\n    tag_41:\n      mload(0x40)\n      dup1\n      swap2\n      sub\n      swap1\n      return\n        /* \"contracts/Try01/Manage.sol\":2893:3227  function changeThreshold(uint256 new_threshold)public {... */\n    tag_9:\n      tag_42\n      0x04\n      dup1\n      calldatasize\n      sub\n      dup2\n      add\n      swap1\n      tag_43\n      swap2\n      swap1\n      tag_39\n      jump\t// in\n    tag_43:\n      tag_44\n      jump\t// in\n    tag_42:\n      stop\n        /* \"contracts/Try01/Manage.sol\":3262:3350  function checkThreshold()public view returns(uint256){... */\n    tag_10:\n      tag_45\n      tag_46\n      jump\t// in\n    tag_45:\n      mload(0x40)\n      tag_47\n      swap2\n      swap1\n      tag_23\n      jump\t// in\n    tag_47:\n      mload(0x40)\n      dup1\n      swap2\n      sub\n      swap1\n      return\n        /* \"contracts/Try01/Manage.sol\":720:1622  function _initialwallet(address[] memory _owners,uint256 _threshold)public  {... */\n    tag_11:\n      tag_48\n      0x04\n      dup1\n      calldatasize\n      sub\n      dup2\n      add\n      swap1\n      tag_49\n      swap2\n      swap1\n      tag_50\n      jump\t// in\n    tag_49:\n      tag_51\n      jump\t// in\n    tag_48:\n      stop\n        /* \"contracts/Try01/Manage.sol\":2359:2804  function removeOwners(address preowner, uint256 new_threshold)public signed{... */\n    tag_12:\n      tag_52\n      0x04\n      dup1\n      calldatasize\n      sub\n      dup2\n      add\n      swap1\n      tag_53\n      swap2\n      swap1\n      tag_26\n      jump\t// in\n    tag_53:\n      tag_54\n      jump\t// in\n    tag_52:\n      stop\n        /* \"contracts/Try01/Manage.sol\":5487:5640  function ownerExist(address _owner)public view returns (bool){... */\n    tag_13:\n      tag_55\n      0x04\n      dup1\n      calldatasize\n      sub\n      dup2\n      add\n      swap1\n      tag_56\n      swap2\n      swap1\n      tag_35\n      jump\t// in\n    tag_56:\n      tag_57\n      jump\t// in\n    tag_55:\n      mload(0x40)\n      tag_58\n      swap2\n      swap1\n      tag_59\n      jump\t// in\n    tag_58:\n      mload(0x40)\n      dup1\n      swap2\n      sub\n      swap1\n      return\n        /* \"contracts/Try01/Manage.sol\":6891:7093  function addOwnersencode(address x, uint256 y) public pure returns(bytes memory result) {... */\n    tag_14:\n      tag_60\n      0x04\n      dup1\n      calldatasize\n      sub\n      dup2\n      add\n      swap1\n      tag_61\n      swap2\n      swap1\n      tag_26\n      jump\t// in\n    tag_61:\n      tag_62\n      jump\t// in\n    tag_60:\n      mload(0x40)\n      tag_63\n      swap2\n      swap1\n      tag_32\n      jump\t// in\n    tag_63:\n      mload(0x40)\n      dup1\n      swap2\n      sub\n      swap1\n      return\n        /* \"contracts/Try01/Manage.sol\":3389:3792  function checkOwners()public view returns(address[] memory){... */\n    tag_17:\n        /* \"contracts/Try01/Manage.sol\":3431:3447  address[] memory */\n      0x60\n        /* \"contracts/Try01/Manage.sol\":3459:3481  address[] memory array */\n      0x00\n        /* \"contracts/Try01/Manage.sol\":3498:3508  owners_num */\n      dup1\n      sload\n        /* \"contracts/Try01/Manage.sol\":3484:3509  new address[](owners_num) */\n      0xffffffffffffffff\n      dup2\n      gt\n      iszero\n      tag_65\n      jumpi\n      tag_66\n      tag_67\n      jump\t// in\n    tag_66:\n    tag_65:\n      mload(0x40)\n      swap1\n      dup1\n      dup3\n      mstore\n      dup1\n      0x20\n      mul\n      0x20\n      add\n      dup3\n      add\n      0x40\n      mstore\n      dup1\n      iszero\n      tag_68\n      jumpi\n      dup2\n      0x20\n      add\n      0x20\n      dup3\n      mul\n      dup1\n      calldatasize\n      dup4\n      calldatacopy\n      dup1\n      dup3\n      add\n      swap2\n      pop\n      pop\n      swap1\n      pop\n    tag_68:\n      pop\n        /* \"contracts/Try01/Manage.sol\":3459:3509  address[] memory array = new address[](owners_num) */\n      swap1\n      pop\n        /* \"contracts/Try01/Manage.sol\":3520:3540  address currentowner */\n      0x00\n        /* \"contracts/Try01/Manage.sol\":3543:3549  owners */\n      0x02\n        /* \"contracts/Try01/Manage.sol\":3543:3556  owners[_HEAD] */\n      0x00\n        /* \"contracts/Try01/Manage.sol\":707:710  0x1 */\n      0x01\n        /* \"contracts/Try01/Manage.sol\":3543:3556  owners[_HEAD] */\n      0xffffffffffffffffffffffffffffffffffffffff\n      and\n      0xffffffffffffffffffffffffffffffffffffffff\n      and\n      dup2\n      mstore\n      0x20\n      add\n      swap1\n      dup2\n      mstore\n      0x20\n      add\n      0x00\n      keccak256\n        /* \"contracts/Try01/Manage.sol\":3543:3563  owners[_HEAD][_NEXT] */\n      0x00\n        /* \"contracts/Try01/Manage.sol\":558:562  true */\n      0x01\n        /* \"contracts/Try01/Manage.sol\":3543:3563  owners[_HEAD][_NEXT] */\n      iszero\n      iszero\n      iszero\n      iszero\n      dup2\n      mstore\n      0x20\n      add\n      swap1\n      dup2\n      mstore\n      0x20\n      add\n      0x00\n      keccak256\n      0x00\n      swap1\n      sload\n      swap1\n      0x0100\n      exp\n      swap1\n      div\n      0xffffffffffffffffffffffffffffffffffffffff\n      and\n        /* \"contracts/Try01/Manage.sol\":3520:3563  address currentowner = owners[_HEAD][_NEXT] */\n      swap1\n      pop\n        /* \"contracts/Try01/Manage.sol\":3574:3587  uint256 index */\n      0x00\n        /* \"contracts/Try01/Manage.sol\":3602:3762  for (index=0; index < owners_num; index++){... */\n    tag_69:\n        /* \"contracts/Try01/Manage.sol\":3624:3634  owners_num */\n      sload(0x00)\n        /* \"contracts/Try01/Manage.sol\":3616:3621  index */\n      dup2\n        /* \"contracts/Try01/Manage.sol\":3616:3634  index < owners_num */\n      lt\n        /* \"contracts/Try01/Manage.sol\":3602:3762  for (index=0; index < owners_num; index++){... */\n      iszero\n      tag_70\n      jumpi\n        /* \"contracts/Try01/Manage.sol\":3674:3686  currentowner */\n      dup2\n        /* \"contracts/Try01/Manage.sol\":3659:3664  array */\n      dup4\n        /* \"contracts/Try01/Manage.sol\":3665:3670  index */\n      dup3\n        /* \"contracts/Try01/Manage.sol\":3659:3671  array[index] */\n      dup2\n      mload\n      dup2\n      lt\n      tag_72\n      jumpi\n      tag_73\n      tag_74\n      jump\t// in\n    tag_73:\n    tag_72:\n      0x20\n      mul\n      0x20\n      add\n      add\n        /* \"contracts/Try01/Manage.sol\":3659:3686  array[index] = currentowner */\n      swap1\n      0xffffffffffffffffffffffffffffffffffffffff\n      and\n      swap1\n      dup2\n      0xffffffffffffffffffffffffffffffffffffffff\n      and\n      dup2\n      mstore\n      pop\n      pop\n        /* \"contracts/Try01/Manage.sol\":3719:3750  getAdjacent(currentowner,_NEXT) */\n      tag_75\n        /* \"contracts/Try01/Manage.sol\":3731:3743  currentowner */\n      dup3\n        /* \"contracts/Try01/Manage.sol\":558:562  true */\n      0x01\n        /* \"contracts/Try01/Manage.sol\":3719:3730  getAdjacent */\n      tag_76\n        /* \"contracts/Try01/Manage.sol\":3719:3750  getAdjacent(currentowner,_NEXT) */\n      jump\t// in\n    tag_75:\n        /* \"contracts/Try01/Manage.sol\":3701:3750  (,currentowner) = getAdjacent(currentowner,_NEXT) */\n      swap1\n      pop\n      dup1\n      swap3\n      pop\n      pop\n        /* \"contracts/Try01/Manage.sol\":3636:3643  index++ */\n      dup1\n      dup1\n      tag_77\n      swap1\n      tag_78\n      jump\t// in\n    tag_77:\n      swap2\n      pop\n      pop\n        /* \"contracts/Try01/Manage.sol\":3602:3762  for (index=0; index < owners_num; index++){... */\n      jump(tag_69)\n    tag_70:\n        /* \"contracts/Try01/Manage.sol\":3779:3784  array */\n      dup3\n        /* \"contracts/Try01/Manage.sol\":3772:3784  return array */\n      swap4\n      pop\n      pop\n      pop\n      pop\n        /* \"contracts/Try01/Manage.sol\":3389:3792  function checkOwners()public view returns(address[] memory){... */\n      swap1\n      jump\t// out\n        /* \"contracts/Try01/Manage.sol\":260:285  uint256 public owners_num */\n    tag_21:\n      sload(0x00)\n      dup2\n      jump\t// out\n        /* \"contracts/Try01/Manage.sol\":1714:2267  function addOwnersAndThreshold(address owner, uint256 new_threshold)public {... */\n    tag_27:\n        /* \"contracts/Try01/Manage.sol\":1869:1882  new_threshold */\n      dup1\n        /* \"contracts/Try01/Manage.sol\":1864:1865  1 */\n      0x01\n        /* \"contracts/Try01/Manage.sol\":1851:1861  owners_num */\n      sload(0x00)\n        /* \"contracts/Try01/Manage.sol\":1851:1865  owners_num + 1 */\n      tag_80\n      swap2\n      swap1\n      tag_81\n      jump\t// in\n    tag_80:\n        /* \"contracts/Try01/Manage.sol\":1851:1882  owners_num + 1 >= new_threshold */\n      lt\n      iszero\n        /* \"contracts/Try01/Manage.sol\":1851:1904  owners_num + 1 >= new_threshold && new_threshold >= 0 */\n      dup1\n      iszero\n      tag_82\n      jumpi\n      pop\n        /* \"contracts/Try01/Manage.sol\":1903:1904  0 */\n      0x00\n        /* \"contracts/Try01/Manage.sol\":1886:1899  new_threshold */\n      dup2\n        /* \"contracts/Try01/Manage.sol\":1886:1904  new_threshold >= 0 */\n      lt\n      iszero\n        /* \"contracts/Try01/Manage.sol\":1851:1904  owners_num + 1 >= new_threshold && new_threshold >= 0 */\n    tag_82:\n        /* \"contracts/Try01/Manage.sol\":1843:1905  require(owners_num + 1 >= new_threshold && new_threshold >= 0) */\n      tag_83\n      jumpi\n      0x00\n      dup1\n      revert\n    tag_83:\n        /* \"contracts/Try01/Manage.sol\":1996:1997  0 */\n      0x00\n        /* \"contracts/Try01/Manage.sol\":1979:1998  owner != address(0) */\n      0xffffffffffffffffffffffffffffffffffffffff\n      and\n        /* \"contracts/Try01/Manage.sol\":1979:1984  owner */\n      dup3\n        /* \"contracts/Try01/Manage.sol\":1979:1998  owner != address(0) */\n      0xffffffffffffffffffffffffffffffffffffffff\n      and\n      eq\n      iszero\n        /* \"contracts/Try01/Manage.sol\":1979:2024  owner != address(0) && owner != address(this) */\n      dup1\n      iszero\n      tag_84\n      jumpi\n      pop\n        /* \"contracts/Try01/Manage.sol\":2019:2023  this */\n      address\n        /* \"contracts/Try01/Manage.sol\":2002:2024  owner != address(this) */\n      0xffffffffffffffffffffffffffffffffffffffff\n      and\n        /* \"contracts/Try01/Manage.sol\":2002:2007  owner */\n      dup3\n        /* \"contracts/Try01/Manage.sol\":2002:2024  owner != address(this) */\n      0xffffffffffffffffffffffffffffffffffffffff\n      and\n      eq\n      iszero\n        /* \"contracts/Try01/Manage.sol\":1979:2024  owner != address(0) && owner != address(this) */\n    tag_84:\n        /* \"contracts/Try01/Manage.sol\":1979:2046  owner != address(0) && owner != address(this) && !ownerExist(owner) */\n      dup1\n      iszero\n      tag_85\n      jumpi\n      pop\n        /* \"contracts/Try01/Manage.sol\":2029:2046  ownerExist(owner) */\n      tag_86\n        /* \"contracts/Try01/Manage.sol\":2040:2045  owner */\n      dup3\n        /* \"contracts/Try01/Manage.sol\":2029:2039  ownerExist */\n      tag_57\n        /* \"contracts/Try01/Manage.sol\":2029:2046  ownerExist(owner) */\n      jump\t// in\n    tag_86:\n        /* \"contracts/Try01/Manage.sol\":2028:2046  !ownerExist(owner) */\n      iszero\n        /* \"contracts/Try01/Manage.sol\":1979:2046  owner != address(0) && owner != address(this) && !ownerExist(owner) */\n    tag_85:\n        /* \"contracts/Try01/Manage.sol\":1971:2057  require(owner != address(0) && owner != address(this) && !ownerExist(owner),\"error04\") */\n      tag_87\n      jumpi\n      mload(0x40)\n      0x08c379a000000000000000000000000000000000000000000000000000000000\n      dup2\n      mstore\n      0x04\n      add\n      tag_88\n      swap1\n      tag_89\n      jump\t// in\n    tag_88:\n      mload(0x40)\n      dup1\n      swap2\n      sub\n      swap1\n      revert\n    tag_87:\n        /* \"contracts/Try01/Manage.sol\":2076:2091  addowner(owner) */\n      tag_90\n        /* \"contracts/Try01/Manage.sol\":2085:2090  owner */\n      dup3\n        /* \"contracts/Try01/Manage.sol\":2076:2084  addowner */\n      tag_36\n        /* \"contracts/Try01/Manage.sol\":2076:2091  addowner(owner) */\n      jump\t// in\n    tag_90:\n        /* \"contracts/Try01/Manage.sol\":2116:2121  owner */\n      dup2\n        /* \"contracts/Try01/Manage.sol\":2107:2122  AddOwner(owner) */\n      0xffffffffffffffffffffffffffffffffffffffff\n      and\n      0xac1e9ef41b54c676ccf449d83ae6f2624bcdce8f5b93a6b48ce95874c332693d\n      mload(0x40)\n      mload(0x40)\n      dup1\n      swap2\n      sub\n      swap1\n      log2\n        /* \"contracts/Try01/Manage.sol\":2218:2227  threshold */\n      sload(0x01)\n        /* \"contracts/Try01/Manage.sol\":2201:2214  new_threshold */\n      dup2\n        /* \"contracts/Try01/Manage.sol\":2201:2227  new_threshold != threshold */\n      eq\n        /* \"contracts/Try01/Manage.sol\":2197:2259  if (new_threshold != threshold) changeThreshold(new_threshold) */\n      tag_91\n      jumpi\n        /* \"contracts/Try01/Manage.sol\":2229:2259  changeThreshold(new_threshold) */\n      tag_92\n        /* \"contracts/Try01/Manage.sol\":2245:2258  new_threshold */\n      dup2\n        /* \"contracts/Try01/Manage.sol\":2229:2244  changeThreshold */\n      tag_44\n        /* \"contracts/Try01/Manage.sol\":2229:2259  changeThreshold(new_threshold) */\n      jump\t// in\n    tag_92:\n        /* \"contracts/Try01/Manage.sol\":2197:2259  if (new_threshold != threshold) changeThreshold(new_threshold) */\n    tag_91:\n        /* \"contracts/Try01/Manage.sol\":1714:2267  function addOwnersAndThreshold(address owner, uint256 new_threshold)public {... */\n      pop\n      pop\n      jump\t// out\n        /* \"contracts/Try01/Manage.sol\":7947:8192  function removeOwnersencode(address x, uint256 y) public pure returns(bytes memory result) {... */\n    tag_30:\n        /* \"contracts/Try01/Manage.sol\":8017:8036  bytes memory result */\n      0x60\n        /* \"contracts/Try01/Manage.sol\":8087:8153  keccak256(\"removeOwners(address preowner, uint256 new_threshold)\") */\n      0x5cb963ae197a87311b65f828de4c1673c22d6ac1a28aa681cfeb35b1ff025d7a\n        /* \"contracts/Try01/Manage.sol\":8156:8157  x */\n      dup4\n        /* \"contracts/Try01/Manage.sol\":8158:8159  y */\n      dup4\n        /* \"contracts/Try01/Manage.sol\":8057:8160  abi.encodeWithSelector(bytes4(keccak256(\"removeOwners(address preowner, uint256 new_threshold)\")), x,y) */\n      add(0x24, mload(0x40))\n      tag_94\n      swap3\n      swap2\n      swap1\n      tag_95\n      jump\t// in\n    tag_94:\n      mload(0x40)\n      0x20\n      dup2\n      dup4\n      sub\n      sub\n      dup2\n      mstore\n      swap1\n      0x40\n      mstore\n      swap1\n      not(0xffffffffffffffffffffffffffffffffffffffffffffffffffffffff)\n      and\n      0x20\n      dup3\n      add\n      dup1\n      mload\n      0xffffffffffffffffffffffffffffffffffffffffffffffffffffffff\n      dup4\n      dup2\n      dup4\n      and\n      or\n      dup4\n      mstore\n      pop\n      pop\n      pop\n      pop\n        /* \"contracts/Try01/Manage.sol\":8049:8160  result =abi.encodeWithSelector(bytes4(keccak256(\"removeOwners(address preowner, uint256 new_threshold)\")), x,y) */\n      swap1\n      pop\n        /* \"contracts/Try01/Manage.sol\":7947:8192  function removeOwnersencode(address x, uint256 y) public pure returns(bytes memory result) {... */\n      swap3\n      swap2\n      pop\n      pop\n      jump\t// out\n        /* \"contracts/Try01/Manage.sol\":3830:4824  function addowner(address owner)public  {... */\n    tag_36:\n        /* \"contracts/Try01/Manage.sol\":3906:3907  0 */\n      0x00\n        /* \"contracts/Try01/Manage.sol\":3889:3908  owner != address(0) */\n      0xffffffffffffffffffffffffffffffffffffffff\n      and\n        /* \"contracts/Try01/Manage.sol\":3889:3894  owner */\n      dup2\n        /* \"contracts/Try01/Manage.sol\":3889:3908  owner != address(0) */\n      0xffffffffffffffffffffffffffffffffffffffff\n      and\n      eq\n      iszero\n        /* \"contracts/Try01/Manage.sol\":3889:3934  owner != address(0) && owner != address(this) */\n      dup1\n      iszero\n      tag_97\n      jumpi\n      pop\n        /* \"contracts/Try01/Manage.sol\":3929:3933  this */\n      address\n        /* \"contracts/Try01/Manage.sol\":3912:3934  owner != address(this) */\n      0xffffffffffffffffffffffffffffffffffffffff\n      and\n        /* \"contracts/Try01/Manage.sol\":3912:3917  owner */\n      dup2\n        /* \"contracts/Try01/Manage.sol\":3912:3934  owner != address(this) */\n      0xffffffffffffffffffffffffffffffffffffffff\n      and\n      eq\n      iszero\n        /* \"contracts/Try01/Manage.sol\":3889:3934  owner != address(0) && owner != address(this) */\n    tag_97:\n        /* \"contracts/Try01/Manage.sol\":3889:3956  owner != address(0) && owner != address(this) && !ownerExist(owner) */\n      dup1\n      iszero\n      tag_98\n      jumpi\n      pop\n        /* \"contracts/Try01/Manage.sol\":3939:3956  ownerExist(owner) */\n      tag_99\n        /* \"contracts/Try01/Manage.sol\":3950:3955  owner */\n      dup2\n        /* \"contracts/Try01/Manage.sol\":3939:3949  ownerExist */\n      tag_57\n        /* \"contracts/Try01/Manage.sol\":3939:3956  ownerExist(owner) */\n      jump\t// in\n    tag_99:\n        /* \"contracts/Try01/Manage.sol\":3938:3956  !ownerExist(owner) */\n      iszero\n        /* \"contracts/Try01/Manage.sol\":3889:3956  owner != address(0) && owner != address(this) && !ownerExist(owner) */\n    tag_98:\n        /* \"contracts/Try01/Manage.sol\":3881:3967  require(owner != address(0) && owner != address(this) && !ownerExist(owner),\"error04\") */\n      tag_100\n      jumpi\n      mload(0x40)\n      0x08c379a000000000000000000000000000000000000000000000000000000000\n      dup2\n      mstore\n      0x04\n      add\n      tag_101\n      swap1\n      tag_89\n      jump\t// in\n    tag_101:\n      mload(0x40)\n      dup1\n      swap2\n      sub\n      swap1\n      revert\n    tag_100:\n        /* \"contracts/Try01/Manage.sol\":3978:3998  address currentowner */\n      0x00\n        /* \"contracts/Try01/Manage.sol\":707:710  0x1 */\n      0x01\n        /* \"contracts/Try01/Manage.sol\":3978:4006  address currentowner = _HEAD */\n      swap1\n      pop\n        /* \"contracts/Try01/Manage.sol\":4017:4034  address nextowner */\n      0x00\n        /* \"contracts/Try01/Manage.sol\":4060:4091  getAdjacent(currentowner,_NEXT) */\n      tag_102\n        /* \"contracts/Try01/Manage.sol\":4072:4084  currentowner */\n      dup3\n        /* \"contracts/Try01/Manage.sol\":558:562  true */\n      0x01\n        /* \"contracts/Try01/Manage.sol\":4060:4071  getAdjacent */\n      tag_76\n        /* \"contracts/Try01/Manage.sol\":4060:4091  getAdjacent(currentowner,_NEXT) */\n      jump\t// in\n    tag_102:\n        /* \"contracts/Try01/Manage.sol\":4045:4091  (,nextowner) = getAdjacent(currentowner,_NEXT) */\n      swap1\n      pop\n      dup1\n      swap2\n      pop\n      pop\n        /* \"contracts/Try01/Manage.sol\":4102:4724  while (nextowner != _NULL){... */\n    tag_103:\n        /* \"contracts/Try01/Manage.sol\":656:657  0 */\n      0x00\n        /* \"contracts/Try01/Manage.sol\":4109:4127  nextowner != _NULL */\n      0xffffffffffffffffffffffffffffffffffffffff\n      and\n        /* \"contracts/Try01/Manage.sol\":4109:4118  nextowner */\n      dup2\n        /* \"contracts/Try01/Manage.sol\":4109:4127  nextowner != _NULL */\n      0xffffffffffffffffffffffffffffffffffffffff\n      and\n      eq\n        /* \"contracts/Try01/Manage.sol\":4102:4724  while (nextowner != _NULL){... */\n      tag_104\n      jumpi\n        /* \"contracts/Try01/Manage.sol\":4163:4168  owner */\n      dup3\n        /* \"contracts/Try01/Manage.sol\":4151:4168  nextowner > owner */\n      0xffffffffffffffffffffffffffffffffffffffff\n      and\n        /* \"contracts/Try01/Manage.sol\":4151:4160  nextowner */\n      dup2\n        /* \"contracts/Try01/Manage.sol\":4151:4168  nextowner > owner */\n      0xffffffffffffffffffffffffffffffffffffffff\n      and\n      gt\n        /* \"contracts/Try01/Manage.sol\":4151:4192  nextowner > owner && currentowner < owner */\n      dup1\n      iszero\n      tag_105\n      jumpi\n      pop\n        /* \"contracts/Try01/Manage.sol\":4187:4192  owner */\n      dup3\n        /* \"contracts/Try01/Manage.sol\":4172:4192  currentowner < owner */\n      0xffffffffffffffffffffffffffffffffffffffff\n      and\n        /* \"contracts/Try01/Manage.sol\":4172:4184  currentowner */\n      dup3\n        /* \"contracts/Try01/Manage.sol\":4172:4192  currentowner < owner */\n      0xffffffffffffffffffffffffffffffffffffffff\n      and\n      lt\n        /* \"contracts/Try01/Manage.sol\":4151:4192  nextowner > owner && currentowner < owner */\n    tag_105:\n        /* \"contracts/Try01/Manage.sol\":4147:4709  if (nextowner > owner && currentowner < owner){... */\n      iszero\n      tag_106\n      jumpi\n        /* \"contracts/Try01/Manage.sol\":4216:4251  _insert(currentowner, owner, _NEXT) */\n      tag_107\n        /* \"contracts/Try01/Manage.sol\":4224:4236  currentowner */\n      dup3\n        /* \"contracts/Try01/Manage.sol\":4238:4243  owner */\n      dup5\n        /* \"contracts/Try01/Manage.sol\":558:562  true */\n      0x01\n        /* \"contracts/Try01/Manage.sol\":4216:4223  _insert */\n      tag_108\n        /* \"contracts/Try01/Manage.sol\":4216:4251  _insert(currentowner, owner, _NEXT) */\n      jump\t// in\n    tag_107:\n        /* \"contracts/Try01/Manage.sol\":4274:4279  break */\n      jump(tag_104)\n        /* \"contracts/Try01/Manage.sol\":4147:4709  if (nextowner > owner && currentowner < owner){... */\n    tag_106:\n        /* \"contracts/Try01/Manage.sol\":4361:4366  owner */\n      dup3\n        /* \"contracts/Try01/Manage.sol\":4349:4366  nextowner > owner */\n      0xffffffffffffffffffffffffffffffffffffffff\n      and\n        /* \"contracts/Try01/Manage.sol\":4349:4358  nextowner */\n      dup2\n        /* \"contracts/Try01/Manage.sol\":4349:4366  nextowner > owner */\n      0xffffffffffffffffffffffffffffffffffffffff\n      and\n      gt\n        /* \"contracts/Try01/Manage.sol\":4345:4690  if (nextowner > owner){... */\n      iszero\n      tag_110\n      jumpi\n        /* \"contracts/Try01/Manage.sol\":4406:4418  currentowner */\n      dup2\n        /* \"contracts/Try01/Manage.sol\":4394:4418  nextowner = currentowner */\n      swap1\n      pop\n        /* \"contracts/Try01/Manage.sol\":4463:4494  getAdjacent(currentowner, _PRE) */\n      tag_111\n        /* \"contracts/Try01/Manage.sol\":4475:4487  currentowner */\n      dup3\n        /* \"contracts/Try01/Manage.sol\":515:520  false */\n      0x00\n        /* \"contracts/Try01/Manage.sol\":4463:4474  getAdjacent */\n      tag_76\n        /* \"contracts/Try01/Manage.sol\":4463:4494  getAdjacent(currentowner, _PRE) */\n      jump\t// in\n    tag_111:\n        /* \"contracts/Try01/Manage.sol\":4445:4494  (,currentowner) = getAdjacent(currentowner, _PRE) */\n      swap1\n      pop\n      dup1\n      swap3\n      pop\n      pop\n        /* \"contracts/Try01/Manage.sol\":4345:4690  if (nextowner > owner){... */\n      jump(tag_112)\n    tag_110:\n        /* \"contracts/Try01/Manage.sol\":4586:4595  nextowner */\n      dup1\n        /* \"contracts/Try01/Manage.sol\":4571:4595  currentowner = nextowner */\n      swap2\n      pop\n        /* \"contracts/Try01/Manage.sol\":4637:4666  getAdjacent(nextowner, _NEXT) */\n      tag_113\n        /* \"contracts/Try01/Manage.sol\":4649:4658  nextowner */\n      dup2\n        /* \"contracts/Try01/Manage.sol\":558:562  true */\n      0x01\n        /* \"contracts/Try01/Manage.sol\":4637:4648  getAdjacent */\n      tag_76\n        /* \"contracts/Try01/Manage.sol\":4637:4666  getAdjacent(nextowner, _NEXT) */\n      jump\t// in\n    tag_113:\n        /* \"contracts/Try01/Manage.sol\":4622:4666  (,nextowner) = getAdjacent(nextowner, _NEXT) */\n      swap1\n      pop\n      dup1\n      swap2\n      pop\n      pop\n        /* \"contracts/Try01/Manage.sol\":4345:4690  if (nextowner > owner){... */\n    tag_112:\n        /* \"contracts/Try01/Manage.sol\":4102:4724  while (nextowner != _NULL){... */\n      jump(tag_103)\n    tag_104:\n        /* \"contracts/Try01/Manage.sol\":656:657  0 */\n      0x00\n        /* \"contracts/Try01/Manage.sol\":4738:4756  nextowner == _NULL */\n      0xffffffffffffffffffffffffffffffffffffffff\n      and\n        /* \"contracts/Try01/Manage.sol\":4738:4747  nextowner */\n      dup2\n        /* \"contracts/Try01/Manage.sol\":4738:4756  nextowner == _NULL */\n      0xffffffffffffffffffffffffffffffffffffffff\n      and\n      sub\n        /* \"contracts/Try01/Manage.sol\":4734:4793  if (nextowner == _NULL) _insert(currentowner, owner, _NEXT) */\n      tag_114\n      jumpi\n        /* \"contracts/Try01/Manage.sol\":4758:4793  _insert(currentowner, owner, _NEXT) */\n      tag_115\n        /* \"contracts/Try01/Manage.sol\":4766:4778  currentowner */\n      dup3\n        /* \"contracts/Try01/Manage.sol\":4780:4785  owner */\n      dup5\n        /* \"contracts/Try01/Manage.sol\":558:562  true */\n      0x01\n        /* \"contracts/Try01/Manage.sol\":4758:4765  _insert */\n      tag_108\n        /* \"contracts/Try01/Manage.sol\":4758:4793  _insert(currentowner, owner, _NEXT) */\n      jump\t// in\n    tag_115:\n        /* \"contracts/Try01/Manage.sol\":4734:4793  if (nextowner == _NULL) _insert(currentowner, owner, _NEXT) */\n    tag_114:\n        /* \"contracts/Try01/Manage.sol\":4804:4814  owners_num */\n      0x00\n      dup1\n        /* \"contracts/Try01/Manage.sol\":4804:4816  owners_num++ */\n      dup2\n      sload\n      dup1\n      swap3\n      swap2\n      swap1\n      tag_116\n      swap1\n      tag_78\n      jump\t// in\n    tag_116:\n      swap2\n      swap1\n      pop\n      sstore\n      pop\n        /* \"contracts/Try01/Manage.sol\":3870:4824  {... */\n      pop\n      pop\n        /* \"contracts/Try01/Manage.sol\":3830:4824  function addowner(address owner)public  {... */\n      pop\n      jump\t// out\n        /* \"contracts/Try01/Manage.sol\":6419:6625  function changeThresholdencode(uint256 new_threshold) public pure returns(bytes memory result) {... */\n    tag_40:\n        /* \"contracts/Try01/Manage.sol\":6493:6512  bytes memory result */\n      0x60\n        /* \"contracts/Try01/Manage.sol\":6563:6600  keccak256(\"changeThreshold(uint256)\") */\n      0x694e80c37192d74d6099f3d3b41506932ab644a24442ee51857cfeb9eb01ac2f\n        /* \"contracts/Try01/Manage.sol\":6603:6616  new_threshold */\n      dup3\n        /* \"contracts/Try01/Manage.sol\":6533:6617  abi.encodeWithSelector(bytes4(keccak256(\"changeThreshold(uint256)\")), new_threshold) */\n      add(0x24, mload(0x40))\n      tag_118\n      swap2\n      swap1\n      tag_23\n      jump\t// in\n    tag_118:\n      mload(0x40)\n      0x20\n      dup2\n      dup4\n      sub\n      sub\n      dup2\n      mstore\n      swap1\n      0x40\n      mstore\n      swap1\n      not(0xffffffffffffffffffffffffffffffffffffffffffffffffffffffff)\n      and\n      0x20\n      dup3\n      add\n      dup1\n      mload\n      0xffffffffffffffffffffffffffffffffffffffffffffffffffffffff\n      dup4\n      dup2\n      dup4\n      and\n      or\n      dup4\n      mstore\n      pop\n      pop\n      pop\n      pop\n        /* \"contracts/Try01/Manage.sol\":6525:6617  result =abi.encodeWithSelector(bytes4(keccak256(\"changeThreshold(uint256)\")), new_threshold) */\n      swap1\n      pop\n        /* \"contracts/Try01/Manage.sol\":6419:6625  function changeThresholdencode(uint256 new_threshold) public pure returns(bytes memory result) {... */\n      swap2\n      swap1\n      pop\n      jump\t// out\n        /* \"contracts/Try01/Manage.sol\":2893:3227  function changeThreshold(uint256 new_threshold)public {... */\n    tag_44:\n        /* \"contracts/Try01/Manage.sol\":3032:3042  owners_num */\n      sload(0x00)\n        /* \"contracts/Try01/Manage.sol\":3015:3028  new_threshold */\n      dup2\n        /* \"contracts/Try01/Manage.sol\":3015:3042  new_threshold <= owners_num */\n      gt\n      iszero\n        /* \"contracts/Try01/Manage.sol\":3007:3054  require(new_threshold <= owners_num, \"error02\") */\n      tag_120\n      jumpi\n      mload(0x40)\n      0x08c379a000000000000000000000000000000000000000000000000000000000\n      dup2\n      mstore\n      0x04\n      add\n      tag_121\n      swap1\n      tag_122\n      jump\t// in\n    tag_121:\n      mload(0x40)\n      dup1\n      swap2\n      sub\n      swap1\n      revert\n    tag_120:\n        /* \"contracts/Try01/Manage.sol\":3128:3129  1 */\n      0x01\n        /* \"contracts/Try01/Manage.sol\":3111:3124  new_threshold */\n      dup2\n        /* \"contracts/Try01/Manage.sol\":3111:3129  new_threshold >= 1 */\n      lt\n      iszero\n        /* \"contracts/Try01/Manage.sol\":3103:3141  require(new_threshold >= 1, \"error03\") */\n      tag_123\n      jumpi\n      mload(0x40)\n      0x08c379a000000000000000000000000000000000000000000000000000000000\n      dup2\n      mstore\n      0x04\n      add\n      tag_124\n      swap1\n      tag_125\n      jump\t// in\n    tag_124:\n      mload(0x40)\n      dup1\n      swap2\n      sub\n      swap1\n      revert\n    tag_123:\n        /* \"contracts/Try01/Manage.sol\":3164:3177  new_threshold */\n      dup1\n        /* \"contracts/Try01/Manage.sol\":3152:3161  threshold */\n      0x01\n        /* \"contracts/Try01/Manage.sol\":3152:3177  threshold = new_threshold */\n      dup2\n      swap1\n      sstore\n      pop\n        /* \"contracts/Try01/Manage.sol\":3193:3219  ChangeThreshold(threshold) */\n      0x9947ac58e204d2da07b9748298663b3b77da7fb0638201d778987ded7c90fbaa\n        /* \"contracts/Try01/Manage.sol\":3209:3218  threshold */\n      sload(0x01)\n        /* \"contracts/Try01/Manage.sol\":3193:3219  ChangeThreshold(threshold) */\n      mload(0x40)\n      tag_126\n      swap2\n      swap1\n      tag_23\n      jump\t// in\n    tag_126:\n      mload(0x40)\n      dup1\n      swap2\n      sub\n      swap1\n      log1\n        /* \"contracts/Try01/Manage.sol\":2893:3227  function changeThreshold(uint256 new_threshold)public {... */\n      pop\n      jump\t// out\n        /* \"contracts/Try01/Manage.sol\":3262:3350  function checkThreshold()public view returns(uint256){... */\n    tag_46:\n        /* \"contracts/Try01/Manage.sol\":3307:3314  uint256 */\n      0x00\n        /* \"contracts/Try01/Manage.sol\":3333:3342  threshold */\n      sload(0x01)\n        /* \"contracts/Try01/Manage.sol\":3326:3342  return threshold */\n      swap1\n      pop\n        /* \"contracts/Try01/Manage.sol\":3262:3350  function checkThreshold()public view returns(uint256){... */\n      swap1\n      jump\t// out\n        /* \"contracts/Try01/Manage.sol\":720:1622  function _initialwallet(address[] memory _owners,uint256 _threshold)public  {... */\n    tag_51:\n        /* \"contracts/Try01/Manage.sol\":874:875  0 */\n      0x00\n        /* \"contracts/Try01/Manage.sol\":861:870  threshold */\n      sload(0x01)\n        /* \"contracts/Try01/Manage.sol\":861:875  threshold == 0 */\n      eq\n        /* \"contracts/Try01/Manage.sol\":853:887  require(threshold == 0, \"error01\") */\n      tag_129\n      jumpi\n      mload(0x40)\n      0x08c379a000000000000000000000000000000000000000000000000000000000\n      dup2\n      mstore\n      0x04\n      add\n      tag_130\n      swap1\n      tag_131\n      jump\t// in\n    tag_130:\n      mload(0x40)\n      dup1\n      swap2\n      sub\n      swap1\n      revert\n    tag_129:\n        /* \"contracts/Try01/Manage.sol\":969:976  _owners */\n      dup2\n        /* \"contracts/Try01/Manage.sol\":969:983  _owners.length */\n      mload\n        /* \"contracts/Try01/Manage.sol\":955:965  _threshold */\n      dup2\n        /* \"contracts/Try01/Manage.sol\":955:983  _threshold <= _owners.length */\n      gt\n      iszero\n        /* \"contracts/Try01/Manage.sol\":947:995  require(_threshold <= _owners.length, \"error02\") */\n      tag_132\n      jumpi\n      mload(0x40)\n      0x08c379a000000000000000000000000000000000000000000000000000000000\n      dup2\n      mstore\n      0x04\n      add\n      tag_133\n      swap1\n      tag_122\n      jump\t// in\n    tag_133:\n      mload(0x40)\n      dup1\n      swap2\n      sub\n      swap1\n      revert\n    tag_132:\n        /* \"contracts/Try01/Manage.sol\":1066:1067  1 */\n      0x01\n        /* \"contracts/Try01/Manage.sol\":1052:1062  _threshold */\n      dup2\n        /* \"contracts/Try01/Manage.sol\":1052:1067  _threshold >= 1 */\n      lt\n      iszero\n        /* \"contracts/Try01/Manage.sol\":1044:1079  require(_threshold >= 1, \"error03\") */\n      tag_134\n      jumpi\n      mload(0x40)\n      0x08c379a000000000000000000000000000000000000000000000000000000000\n      dup2\n      mstore\n      0x04\n      add\n      tag_135\n      swap1\n      tag_125\n      jump\t// in\n    tag_135:\n      mload(0x40)\n      dup1\n      swap2\n      sub\n      swap1\n      revert\n    tag_134:\n        /* \"contracts/Try01/Manage.sol\":1124:1144  address currentowner */\n      0x00\n        /* \"contracts/Try01/Manage.sol\":707:710  0x1 */\n      0x01\n        /* \"contracts/Try01/Manage.sol\":1124:1152  address currentowner = _HEAD */\n      swap1\n      pop\n        /* \"contracts/Try01/Manage.sol\":1168:1174  uint i */\n      0x00\n        /* \"contracts/Try01/Manage.sol\":1163:1503  for (uint i=0; i<_owners.length;i++)... */\n    tag_136:\n        /* \"contracts/Try01/Manage.sol\":1180:1187  _owners */\n      dup4\n        /* \"contracts/Try01/Manage.sol\":1180:1194  _owners.length */\n      mload\n        /* \"contracts/Try01/Manage.sol\":1178:1179  i */\n      dup2\n        /* \"contracts/Try01/Manage.sol\":1178:1194  i<_owners.length */\n      lt\n        /* \"contracts/Try01/Manage.sol\":1163:1503  for (uint i=0; i<_owners.length;i++)... */\n      iszero\n      tag_137\n      jumpi\n        /* \"contracts/Try01/Manage.sol\":1224:1237  address owner */\n      0x00\n        /* \"contracts/Try01/Manage.sol\":1240:1247  _owners */\n      dup5\n        /* \"contracts/Try01/Manage.sol\":1248:1249  i */\n      dup3\n        /* \"contracts/Try01/Manage.sol\":1240:1250  _owners[i] */\n      dup2\n      mload\n      dup2\n      lt\n      tag_139\n      jumpi\n      tag_140\n      tag_74\n      jump\t// in\n    tag_140:\n    tag_139:\n      0x20\n      mul\n      0x20\n      add\n      add\n      mload\n        /* \"contracts/Try01/Manage.sol\":1224:1250  address owner = _owners[i] */\n      swap1\n      pop\n        /* \"contracts/Try01/Manage.sol\":1365:1366  0 */\n      0x00\n        /* \"contracts/Try01/Manage.sol\":1348:1367  owner != address(0) */\n      0xffffffffffffffffffffffffffffffffffffffff\n      and\n        /* \"contracts/Try01/Manage.sol\":1348:1353  owner */\n      dup2\n        /* \"contracts/Try01/Manage.sol\":1348:1367  owner != address(0) */\n      0xffffffffffffffffffffffffffffffffffffffff\n      and\n      eq\n      iszero\n        /* \"contracts/Try01/Manage.sol\":1348:1393  owner != address(0) && owner != address(this) */\n      dup1\n      iszero\n      tag_141\n      jumpi\n      pop\n        /* \"contracts/Try01/Manage.sol\":1388:1392  this */\n      address\n        /* \"contracts/Try01/Manage.sol\":1371:1393  owner != address(this) */\n      0xffffffffffffffffffffffffffffffffffffffff\n      and\n        /* \"contracts/Try01/Manage.sol\":1371:1376  owner */\n      dup2\n        /* \"contracts/Try01/Manage.sol\":1371:1393  owner != address(this) */\n      0xffffffffffffffffffffffffffffffffffffffff\n      and\n      eq\n      iszero\n        /* \"contracts/Try01/Manage.sol\":1348:1393  owner != address(0) && owner != address(this) */\n    tag_141:\n        /* \"contracts/Try01/Manage.sol\":1348:1415  owner != address(0) && owner != address(this) && !ownerExist(owner) */\n      dup1\n      iszero\n      tag_142\n      jumpi\n      pop\n        /* \"contracts/Try01/Manage.sol\":1398:1415  ownerExist(owner) */\n      tag_143\n        /* \"contracts/Try01/Manage.sol\":1409:1414  owner */\n      dup2\n        /* \"contracts/Try01/Manage.sol\":1398:1408  ownerExist */\n      tag_57\n        /* \"contracts/Try01/Manage.sol\":1398:1415  ownerExist(owner) */\n      jump\t// in\n    tag_143:\n        /* \"contracts/Try01/Manage.sol\":1397:1415  !ownerExist(owner) */\n      iszero\n        /* \"contracts/Try01/Manage.sol\":1348:1415  owner != address(0) && owner != address(this) && !ownerExist(owner) */\n    tag_142:\n        /* \"contracts/Try01/Manage.sol\":1340:1426  require(owner != address(0) && owner != address(this) && !ownerExist(owner),\"error04\") */\n      tag_144\n      jumpi\n      mload(0x40)\n      0x08c379a000000000000000000000000000000000000000000000000000000000\n      dup2\n      mstore\n      0x04\n      add\n      tag_145\n      swap1\n      tag_89\n      jump\t// in\n    tag_145:\n      mload(0x40)\n      dup1\n      swap2\n      sub\n      swap1\n      revert\n    tag_144:\n        /* \"contracts/Try01/Manage.sol\":1441:1456  addowner(owner) */\n      tag_146\n        /* \"contracts/Try01/Manage.sol\":1450:1455  owner */\n      dup2\n        /* \"contracts/Try01/Manage.sol\":1441:1449  addowner */\n      tag_36\n        /* \"contracts/Try01/Manage.sol\":1441:1456  addowner(owner) */\n      jump\t// in\n    tag_146:\n        /* \"contracts/Try01/Manage.sol\":1486:1491  owner */\n      dup1\n        /* \"contracts/Try01/Manage.sol\":1471:1491  currentowner = owner */\n      swap3\n      pop\n        /* \"contracts/Try01/Manage.sol\":1209:1503  {... */\n      pop\n        /* \"contracts/Try01/Manage.sol\":1195:1198  i++ */\n      dup1\n      dup1\n      tag_147\n      swap1\n      tag_78\n      jump\t// in\n    tag_147:\n      swap2\n      pop\n      pop\n        /* \"contracts/Try01/Manage.sol\":1163:1503  for (uint i=0; i<_owners.length;i++)... */\n      jump(tag_136)\n    tag_137:\n      pop\n        /* \"contracts/Try01/Manage.sol\":1556:1566  _threshold */\n      dup2\n        /* \"contracts/Try01/Manage.sol\":1544:1553  threshold */\n      0x01\n        /* \"contracts/Try01/Manage.sol\":1544:1566  threshold = _threshold */\n      dup2\n      swap1\n      sstore\n      pop\n        /* \"contracts/Try01/Manage.sol\":1590:1597  _owners */\n      dup3\n        /* \"contracts/Try01/Manage.sol\":1590:1604  _owners.length */\n      mload\n        /* \"contracts/Try01/Manage.sol\":1577:1587  owners_num */\n      0x00\n        /* \"contracts/Try01/Manage.sol\":1577:1604  owners_num = _owners.length */\n      dup2\n      swap1\n      sstore\n      pop\n        /* \"contracts/Try01/Manage.sol\":796:1622  {... */\n      pop\n        /* \"contracts/Try01/Manage.sol\":720:1622  function _initialwallet(address[] memory _owners,uint256 _threshold)public  {... */\n      pop\n      pop\n      jump\t// out\n        /* \"contracts/Try01/Manage.sol\":2359:2804  function removeOwners(address preowner, uint256 new_threshold)public signed{... */\n    tag_54:\n        /* \"contracts/Try01/Manage.sol\":6326:6330  this */\n      address\n        /* \"contracts/Try01/Manage.sol\":6306:6331  msg.sender==address(this) */\n      0xffffffffffffffffffffffffffffffffffffffff\n      and\n        /* \"contracts/Try01/Manage.sol\":6306:6316  msg.sender */\n      caller\n        /* \"contracts/Try01/Manage.sol\":6306:6331  msg.sender==address(this) */\n      0xffffffffffffffffffffffffffffffffffffffff\n      and\n      eq\n        /* \"contracts/Try01/Manage.sol\":6298:6349  require(msg.sender==address(this),\"Not authorized\") */\n      tag_149\n      jumpi\n      mload(0x40)\n      0x08c379a000000000000000000000000000000000000000000000000000000000\n      dup2\n      mstore\n      0x04\n      add\n      tag_150\n      swap1\n      tag_151\n      jump\t// in\n    tag_150:\n      mload(0x40)\n      dup1\n      swap2\n      sub\n      swap1\n      revert\n    tag_149:\n        /* \"contracts/Try01/Manage.sol\":2513:2526  new_threshold */\n      dup1\n        /* \"contracts/Try01/Manage.sol\":2509:2510  1 */\n      0x01\n        /* \"contracts/Try01/Manage.sol\":2496:2506  owners_num */\n      sload(0x00)\n        /* \"contracts/Try01/Manage.sol\":2496:2510  owners_num - 1 */\n      tag_153\n      swap2\n      swap1\n      tag_154\n      jump\t// in\n    tag_153:\n        /* \"contracts/Try01/Manage.sol\":2496:2526  owners_num - 1 >=new_threshold */\n      lt\n      iszero\n        /* \"contracts/Try01/Manage.sol\":2488:2537  require(owners_num - 1 >=new_threshold,\"error02\") */\n      tag_155\n      jumpi\n      mload(0x40)\n      0x08c379a000000000000000000000000000000000000000000000000000000000\n      dup2\n      mstore\n      0x04\n      add\n      tag_156\n      swap1\n      tag_122\n      jump\t// in\n    tag_156:\n      mload(0x40)\n      dup1\n      swap2\n      sub\n      swap1\n      revert\n    tag_155:\n        /* \"contracts/Try01/Manage.sol\":2596:2616  ownerExist(preowner) */\n      tag_157\n        /* \"contracts/Try01/Manage.sol\":2607:2615  preowner */\n      dup3\n        /* \"contracts/Try01/Manage.sol\":2596:2606  ownerExist */\n      tag_57\n        /* \"contracts/Try01/Manage.sol\":2596:2616  ownerExist(preowner) */\n      jump\t// in\n    tag_157:\n        /* \"contracts/Try01/Manage.sol\":2588:2627  require(ownerExist(preowner),\"error07\") */\n      tag_158\n      jumpi\n      mload(0x40)\n      0x08c379a000000000000000000000000000000000000000000000000000000000\n      dup2\n      mstore\n      0x04\n      add\n      tag_159\n      swap1\n      tag_160\n      jump\t// in\n    tag_159:\n      mload(0x40)\n      dup1\n      swap2\n      sub\n      swap1\n      revert\n    tag_158:\n        /* \"contracts/Try01/Manage.sol\":2666:2687  removeowner(preowner) */\n      tag_161\n        /* \"contracts/Try01/Manage.sol\":2678:2686  preowner */\n      dup3\n        /* \"contracts/Try01/Manage.sol\":2666:2677  removeowner */\n      tag_162\n        /* \"contracts/Try01/Manage.sol\":2666:2687  removeowner(preowner) */\n      jump\t// in\n    tag_161:\n        /* \"contracts/Try01/Manage.sol\":2715:2723  preowner */\n      dup2\n        /* \"contracts/Try01/Manage.sol\":2703:2724  RemoveOwner(preowner) */\n      0xffffffffffffffffffffffffffffffffffffffff\n      and\n      0xac6e8398676cf37429d530b81144d7079e99f4fe9d28b0d88c4a749ceccbe8cd\n      mload(0x40)\n      mload(0x40)\n      dup1\n      swap2\n      sub\n      swap1\n      log2\n        /* \"contracts/Try01/Manage.sol\":2755:2764  threshold */\n      sload(0x01)\n        /* \"contracts/Try01/Manage.sol\":2738:2751  new_threshold */\n      dup2\n        /* \"contracts/Try01/Manage.sol\":2738:2764  new_threshold != threshold */\n      eq\n        /* \"contracts/Try01/Manage.sol\":2735:2796  if(new_threshold != threshold) changeThreshold(new_threshold) */\n      tag_163\n      jumpi\n        /* \"contracts/Try01/Manage.sol\":2766:2796  changeThreshold(new_threshold) */\n      tag_164\n        /* \"contracts/Try01/Manage.sol\":2782:2795  new_threshold */\n      dup2\n        /* \"contracts/Try01/Manage.sol\":2766:2781  changeThreshold */\n      tag_44\n        /* \"contracts/Try01/Manage.sol\":2766:2796  changeThreshold(new_threshold) */\n      jump\t// in\n    tag_164:\n        /* \"contracts/Try01/Manage.sol\":2735:2796  if(new_threshold != threshold) changeThreshold(new_threshold) */\n    tag_163:\n        /* \"contracts/Try01/Manage.sol\":2359:2804  function removeOwners(address preowner, uint256 new_threshold)public signed{... */\n      pop\n      pop\n      jump\t// out\n        /* \"contracts/Try01/Manage.sol\":5487:5640  function ownerExist(address _owner)public view returns (bool){... */\n    tag_57:\n        /* \"contracts/Try01/Manage.sol\":5543:5547  bool */\n      0x00\n        /* \"contracts/Try01/Manage.sol\":656:657  0 */\n      dup1\n        /* \"contracts/Try01/Manage.sol\":5567:5596  owners[_owner][_PRE] != _NULL */\n      0xffffffffffffffffffffffffffffffffffffffff\n      and\n        /* \"contracts/Try01/Manage.sol\":5567:5573  owners */\n      0x02\n        /* \"contracts/Try01/Manage.sol\":5567:5581  owners[_owner] */\n      0x00\n        /* \"contracts/Try01/Manage.sol\":5574:5580  _owner */\n      dup5\n        /* \"contracts/Try01/Manage.sol\":5567:5581  owners[_owner] */\n      0xffffffffffffffffffffffffffffffffffffffff\n      and\n      0xffffffffffffffffffffffffffffffffffffffff\n      and\n      dup2\n      mstore\n      0x20\n      add\n      swap1\n      dup2\n      mstore\n      0x20\n      add\n      0x00\n      keccak256\n        /* \"contracts/Try01/Manage.sol\":5567:5587  owners[_owner][_PRE] */\n      0x00\n        /* \"contracts/Try01/Manage.sol\":515:520  false */\n      dup1\n        /* \"contracts/Try01/Manage.sol\":5567:5587  owners[_owner][_PRE] */\n      iszero\n      iszero\n      iszero\n      iszero\n      dup2\n      mstore\n      0x20\n      add\n      swap1\n      dup2\n      mstore\n      0x20\n      add\n      0x00\n      keccak256\n      0x00\n      swap1\n      sload\n      swap1\n      0x0100\n      exp\n      swap1\n      div\n      0xffffffffffffffffffffffffffffffffffffffff\n      and\n        /* \"contracts/Try01/Manage.sol\":5567:5596  owners[_owner][_PRE] != _NULL */\n      0xffffffffffffffffffffffffffffffffffffffff\n      and\n      eq\n      iszero\n        /* \"contracts/Try01/Manage.sol\":5567:5630  owners[_owner][_PRE] != _NULL || owners[_owner][_NEXT] != _NULL */\n      dup1\n      tag_166\n      jumpi\n      pop\n        /* \"contracts/Try01/Manage.sol\":656:657  0 */\n      0x00\n        /* \"contracts/Try01/Manage.sol\":5600:5630  owners[_owner][_NEXT] != _NULL */\n      0xffffffffffffffffffffffffffffffffffffffff\n      and\n        /* \"contracts/Try01/Manage.sol\":5600:5606  owners */\n      0x02\n        /* \"contracts/Try01/Manage.sol\":5600:5614  owners[_owner] */\n      0x00\n        /* \"contracts/Try01/Manage.sol\":5607:5613  _owner */\n      dup5\n        /* \"contracts/Try01/Manage.sol\":5600:5614  owners[_owner] */\n      0xffffffffffffffffffffffffffffffffffffffff\n      and\n      0xffffffffffffffffffffffffffffffffffffffff\n      and\n      dup2\n      mstore\n      0x20\n      add\n      swap1\n      dup2\n      mstore\n      0x20\n      add\n      0x00\n      keccak256\n        /* \"contracts/Try01/Manage.sol\":5600:5621  owners[_owner][_NEXT] */\n      0x00\n        /* \"contracts/Try01/Manage.sol\":558:562  true */\n      0x01\n        /* \"contracts/Try01/Manage.sol\":5600:5621  owners[_owner][_NEXT] */\n      iszero\n      iszero\n      iszero\n      iszero\n      dup2\n      mstore\n      0x20\n      add\n      swap1\n      dup2\n      mstore\n      0x20\n      add\n      0x00\n      keccak256\n      0x00\n      swap1\n      sload\n      swap1\n      0x0100\n      exp\n      swap1\n      div\n      0xffffffffffffffffffffffffffffffffffffffff\n      and\n        /* \"contracts/Try01/Manage.sol\":5600:5630  owners[_owner][_NEXT] != _NULL */\n      0xffffffffffffffffffffffffffffffffffffffff\n      and\n      eq\n      iszero\n        /* \"contracts/Try01/Manage.sol\":5567:5630  owners[_owner][_PRE] != _NULL || owners[_owner][_NEXT] != _NULL */\n    tag_166:\n        /* \"contracts/Try01/Manage.sol\":5559:5631  return (owners[_owner][_PRE] != _NULL || owners[_owner][_NEXT] != _NULL) */\n      swap1\n      pop\n        /* \"contracts/Try01/Manage.sol\":5487:5640  function ownerExist(address _owner)public view returns (bool){... */\n      swap2\n      swap1\n      pop\n      jump\t// out\n        /* \"contracts/Try01/Manage.sol\":6891:7093  function addOwnersencode(address x, uint256 y) public pure returns(bytes memory result) {... */\n    tag_62:\n        /* \"contracts/Try01/Manage.sol\":6958:6977  bytes memory result */\n      0x60\n        /* \"contracts/Try01/Manage.sol\":7028:7079  keccak256(\"addOwnersAndThreshold(address,uint256)\") */\n      0x0c54620469a3eeff8e01e9971bcf46e640abbf3fa3139aa3afa97959f3d74499\n        /* \"contracts/Try01/Manage.sol\":7081:7082  x */\n      dup4\n        /* \"contracts/Try01/Manage.sol\":7083:7084  y */\n      dup4\n        /* \"contracts/Try01/Manage.sol\":6998:7085  abi.encodeWithSelector(bytes4(keccak256(\"addOwnersAndThreshold(address,uint256)\")),x,y) */\n      add(0x24, mload(0x40))\n      tag_168\n      swap3\n      swap2\n      swap1\n      tag_95\n      jump\t// in\n    tag_168:\n      mload(0x40)\n      0x20\n      dup2\n      dup4\n      sub\n      sub\n      dup2\n      mstore\n      swap1\n      0x40\n      mstore\n      swap1\n      not(0xffffffffffffffffffffffffffffffffffffffffffffffffffffffff)\n      and\n      0x20\n      dup3\n      add\n      dup1\n      mload\n      0xffffffffffffffffffffffffffffffffffffffffffffffffffffffff\n      dup4\n      dup2\n      dup4\n      and\n      or\n      dup4\n      mstore\n      pop\n      pop\n      pop\n      pop\n        /* \"contracts/Try01/Manage.sol\":6990:7085  result =abi.encodeWithSelector(bytes4(keccak256(\"addOwnersAndThreshold(address,uint256)\")),x,y) */\n      swap1\n      pop\n        /* \"contracts/Try01/Manage.sol\":6891:7093  function addOwnersencode(address x, uint256 y) public pure returns(bytes memory result) {... */\n      swap3\n      swap2\n      pop\n      pop\n      jump\t// out\n        /* \"contracts/Try01/Manage.sol\":5906:6159  function getAdjacent(address owner, bool _direction)internal view returns (bool, address) {... */\n    tag_76:\n        /* \"contracts/Try01/Manage.sol\":5981:5985  bool */\n      0x00\n        /* \"contracts/Try01/Manage.sol\":5987:5994  address */\n      dup1\n        /* \"contracts/Try01/Manage.sol\":6012:6029  ownerExist(owner) */\n      tag_170\n        /* \"contracts/Try01/Manage.sol\":6023:6028  owner */\n      dup5\n        /* \"contracts/Try01/Manage.sol\":6012:6022  ownerExist */\n      tag_57\n        /* \"contracts/Try01/Manage.sol\":6012:6029  ownerExist(owner) */\n      jump\t// in\n    tag_170:\n        /* \"contracts/Try01/Manage.sol\":6007:6152  if (!ownerExist(owner)) {... */\n      tag_171\n      jumpi\n        /* \"contracts/Try01/Manage.sol\":6054:6059  false */\n      0x00\n        /* \"contracts/Try01/Manage.sol\":656:657  0 */\n      dup1\n        /* \"contracts/Try01/Manage.sol\":6046:6067  return (false, _NULL) */\n      swap2\n      pop\n      swap2\n      pop\n      jump(tag_169)\n        /* \"contracts/Try01/Manage.sol\":6007:6152  if (!ownerExist(owner)) {... */\n    tag_171:\n        /* \"contracts/Try01/Manage.sol\":6108:6112  true */\n      0x01\n        /* \"contracts/Try01/Manage.sol\":6114:6120  owners */\n      0x02\n        /* \"contracts/Try01/Manage.sol\":6114:6127  owners[owner] */\n      0x00\n        /* \"contracts/Try01/Manage.sol\":6121:6126  owner */\n      dup7\n        /* \"contracts/Try01/Manage.sol\":6114:6127  owners[owner] */\n      0xffffffffffffffffffffffffffffffffffffffff\n      and\n      0xffffffffffffffffffffffffffffffffffffffff\n      and\n      dup2\n      mstore\n      0x20\n      add\n      swap1\n      dup2\n      mstore\n      0x20\n      add\n      0x00\n      keccak256\n        /* \"contracts/Try01/Manage.sol\":6114:6139  owners[owner][_direction] */\n      0x00\n        /* \"contracts/Try01/Manage.sol\":6128:6138  _direction */\n      dup6\n        /* \"contracts/Try01/Manage.sol\":6114:6139  owners[owner][_direction] */\n      iszero\n      iszero\n      iszero\n      iszero\n      dup2\n      mstore\n      0x20\n      add\n      swap1\n      dup2\n      mstore\n      0x20\n      add\n      0x00\n      keccak256\n      0x00\n      swap1\n      sload\n      swap1\n      0x0100\n      exp\n      swap1\n      div\n      0xffffffffffffffffffffffffffffffffffffffff\n      and\n        /* \"contracts/Try01/Manage.sol\":6100:6140  return (true, owners[owner][_direction]) */\n      swap2\n      pop\n      swap2\n      pop\n        /* \"contracts/Try01/Manage.sol\":5906:6159  function getAdjacent(address owner, bool _direction)internal view returns (bool, address) {... */\n    tag_169:\n      swap3\n      pop\n      swap3\n      swap1\n      pop\n      jump\t// out\n        /* \"contracts/Try01/Manage.sol\":5188:5436  function _insert( address _owner, address _newowner, bool _direction)internal {... */\n    tag_108:\n        /* \"contracts/Try01/Manage.sol\":5287:5296  address c */\n      0x00\n        /* \"contracts/Try01/Manage.sol\":5299:5305  owners */\n      0x02\n        /* \"contracts/Try01/Manage.sol\":5299:5313  owners[_owner] */\n      0x00\n        /* \"contracts/Try01/Manage.sol\":5306:5312  _owner */\n      dup6\n        /* \"contracts/Try01/Manage.sol\":5299:5313  owners[_owner] */\n      0xffffffffffffffffffffffffffffffffffffffff\n      and\n      0xffffffffffffffffffffffffffffffffffffffff\n      and\n      dup2\n      mstore\n      0x20\n      add\n      swap1\n      dup2\n      mstore\n      0x20\n      add\n      0x00\n      keccak256\n        /* \"contracts/Try01/Manage.sol\":5299:5325  owners[_owner][_direction] */\n      0x00\n        /* \"contracts/Try01/Manage.sol\":5314:5324  _direction */\n      dup4\n        /* \"contracts/Try01/Manage.sol\":5299:5325  owners[_owner][_direction] */\n      iszero\n      iszero\n      iszero\n      iszero\n      dup2\n      mstore\n      0x20\n      add\n      swap1\n      dup2\n      mstore\n      0x20\n      add\n      0x00\n      keccak256\n      0x00\n      swap1\n      sload\n      swap1\n      0x0100\n      exp\n      swap1\n      div\n      0xffffffffffffffffffffffffffffffffffffffff\n      and\n        /* \"contracts/Try01/Manage.sol\":5287:5325  address c = owners[_owner][_direction] */\n      swap1\n      pop\n        /* \"contracts/Try01/Manage.sol\":5336:5378  _createLink(_owner, _newowner, _direction) */\n      tag_174\n        /* \"contracts/Try01/Manage.sol\":5348:5354  _owner */\n      dup5\n        /* \"contracts/Try01/Manage.sol\":5356:5365  _newowner */\n      dup5\n        /* \"contracts/Try01/Manage.sol\":5367:5377  _direction */\n      dup5\n        /* \"contracts/Try01/Manage.sol\":5336:5347  _createLink */\n      tag_175\n        /* \"contracts/Try01/Manage.sol\":5336:5378  _createLink(_owner, _newowner, _direction) */\n      jump\t// in\n    tag_174:\n        /* \"contracts/Try01/Manage.sol\":5389:5426  _createLink(_newowner, c, _direction) */\n      tag_176\n        /* \"contracts/Try01/Manage.sol\":5401:5410  _newowner */\n      dup4\n        /* \"contracts/Try01/Manage.sol\":5412:5413  c */\n      dup3\n        /* \"contracts/Try01/Manage.sol\":5415:5425  _direction */\n      dup5\n        /* \"contracts/Try01/Manage.sol\":5389:5400  _createLink */\n      tag_175\n        /* \"contracts/Try01/Manage.sol\":5389:5426  _createLink(_newowner, c, _direction) */\n      jump\t// in\n    tag_176:\n        /* \"contracts/Try01/Manage.sol\":5266:5436  {... */\n      pop\n        /* \"contracts/Try01/Manage.sol\":5188:5436  function _insert( address _owner, address _newowner, bool _direction)internal {... */\n      pop\n      pop\n      pop\n      jump\t// out\n        /* \"contracts/Try01/Manage.sol\":4862:5149  function removeowner(address preowner)internal {... */\n    tag_162:\n        /* \"contracts/Try01/Manage.sol\":4928:4948  ownerExist(preowner) */\n      tag_178\n        /* \"contracts/Try01/Manage.sol\":4939:4947  preowner */\n      dup2\n        /* \"contracts/Try01/Manage.sol\":4928:4938  ownerExist */\n      tag_57\n        /* \"contracts/Try01/Manage.sol\":4928:4948  ownerExist(preowner) */\n      jump\t// in\n    tag_178:\n        /* \"contracts/Try01/Manage.sol\":4920:4959  require(ownerExist(preowner),\"error07\") */\n      tag_179\n      jumpi\n      mload(0x40)\n      0x08c379a000000000000000000000000000000000000000000000000000000000\n      dup2\n      mstore\n      0x04\n      add\n      tag_180\n      swap1\n      tag_160\n      jump\t// in\n    tag_180:\n      mload(0x40)\n      dup1\n      swap2\n      sub\n      swap1\n      revert\n    tag_179:\n        /* \"contracts/Try01/Manage.sol\":4970:5037  _createLink(owners[preowner][_PRE], owners[preowner][_NEXT], _NEXT) */\n      tag_181\n        /* \"contracts/Try01/Manage.sol\":4982:4988  owners */\n      0x02\n        /* \"contracts/Try01/Manage.sol\":4982:4998  owners[preowner] */\n      0x00\n        /* \"contracts/Try01/Manage.sol\":4989:4997  preowner */\n      dup4\n        /* \"contracts/Try01/Manage.sol\":4982:4998  owners[preowner] */\n      0xffffffffffffffffffffffffffffffffffffffff\n      and\n      0xffffffffffffffffffffffffffffffffffffffff\n      and\n      dup2\n      mstore\n      0x20\n      add\n      swap1\n      dup2\n      mstore\n      0x20\n      add\n      0x00\n      keccak256\n        /* \"contracts/Try01/Manage.sol\":4982:5004  owners[preowner][_PRE] */\n      0x00\n        /* \"contracts/Try01/Manage.sol\":515:520  false */\n      dup1\n        /* \"contracts/Try01/Manage.sol\":4982:5004  owners[preowner][_PRE] */\n      iszero\n      iszero\n      iszero\n      iszero\n      dup2\n      mstore\n      0x20\n      add\n      swap1\n      dup2\n      mstore\n      0x20\n      add\n      0x00\n      keccak256\n      0x00\n      swap1\n      sload\n      swap1\n      0x0100\n      exp\n      swap1\n      div\n      0xffffffffffffffffffffffffffffffffffffffff\n      and\n        /* \"contracts/Try01/Manage.sol\":5006:5012  owners */\n      0x02\n        /* \"contracts/Try01/Manage.sol\":5006:5022  owners[preowner] */\n      0x00\n        /* \"contracts/Try01/Manage.sol\":5013:5021  preowner */\n      dup5\n        /* \"contracts/Try01/Manage.sol\":5006:5022  owners[preowner] */\n      0xffffffffffffffffffffffffffffffffffffffff\n      and\n      0xffffffffffffffffffffffffffffffffffffffff\n      and\n      dup2\n      mstore\n      0x20\n      add\n      swap1\n      dup2\n      mstore\n      0x20\n      add\n      0x00\n      keccak256\n        /* \"contracts/Try01/Manage.sol\":5006:5029  owners[preowner][_NEXT] */\n      0x00\n        /* \"contracts/Try01/Manage.sol\":558:562  true */\n      0x01\n        /* \"contracts/Try01/Manage.sol\":5006:5029  owners[preowner][_NEXT] */\n      iszero\n      iszero\n      iszero\n      iszero\n      dup2\n      mstore\n      0x20\n      add\n      swap1\n      dup2\n      mstore\n      0x20\n      add\n      0x00\n      keccak256\n      0x00\n      swap1\n      sload\n      swap1\n      0x0100\n      exp\n      swap1\n      div\n      0xffffffffffffffffffffffffffffffffffffffff\n      and\n        /* \"contracts/Try01/Manage.sol\":558:562  true */\n      0x01\n        /* \"contracts/Try01/Manage.sol\":4970:4981  _createLink */\n      tag_175\n        /* \"contracts/Try01/Manage.sol\":4970:5037  _createLink(owners[preowner][_PRE], owners[preowner][_NEXT], _NEXT) */\n      jump\t// in\n    tag_181:\n        /* \"contracts/Try01/Manage.sol\":5055:5061  owners */\n      0x02\n        /* \"contracts/Try01/Manage.sol\":5055:5071  owners[preowner] */\n      0x00\n        /* \"contracts/Try01/Manage.sol\":5062:5070  preowner */\n      dup3\n        /* \"contracts/Try01/Manage.sol\":5055:5071  owners[preowner] */\n      0xffffffffffffffffffffffffffffffffffffffff\n      and\n      0xffffffffffffffffffffffffffffffffffffffff\n      and\n      dup2\n      mstore\n      0x20\n      add\n      swap1\n      dup2\n      mstore\n      0x20\n      add\n      0x00\n      keccak256\n        /* \"contracts/Try01/Manage.sol\":5055:5077  owners[preowner][_PRE] */\n      0x00\n        /* \"contracts/Try01/Manage.sol\":515:520  false */\n      dup1\n        /* \"contracts/Try01/Manage.sol\":5055:5077  owners[preowner][_PRE] */\n      iszero\n      iszero\n      iszero\n      iszero\n      dup2\n      mstore\n      0x20\n      add\n      swap1\n      dup2\n      mstore\n      0x20\n      add\n      0x00\n      keccak256\n      0x00\n        /* \"contracts/Try01/Manage.sol\":5048:5077  delete owners[preowner][_PRE] */\n      0x0100\n      exp\n      dup2\n      sload\n      swap1\n      0xffffffffffffffffffffffffffffffffffffffff\n      mul\n      not\n      and\n      swap1\n      sstore\n        /* \"contracts/Try01/Manage.sol\":5095:5101  owners */\n      0x02\n        /* \"contracts/Try01/Manage.sol\":5095:5111  owners[preowner] */\n      0x00\n        /* \"contracts/Try01/Manage.sol\":5102:5110  preowner */\n      dup3\n        /* \"contracts/Try01/Manage.sol\":5095:5111  owners[preowner] */\n      0xffffffffffffffffffffffffffffffffffffffff\n      and\n      0xffffffffffffffffffffffffffffffffffffffff\n      and\n      dup2\n      mstore\n      0x20\n      add\n      swap1\n      dup2\n      mstore\n      0x20\n      add\n      0x00\n      keccak256\n        /* \"contracts/Try01/Manage.sol\":5095:5118  owners[preowner][_NEXT] */\n      0x00\n        /* \"contracts/Try01/Manage.sol\":558:562  true */\n      0x01\n        /* \"contracts/Try01/Manage.sol\":5095:5118  owners[preowner][_NEXT] */\n      iszero\n      iszero\n      iszero\n      iszero\n      dup2\n      mstore\n      0x20\n      add\n      swap1\n      dup2\n      mstore\n      0x20\n      add\n      0x00\n      keccak256\n      0x00\n        /* \"contracts/Try01/Manage.sol\":5088:5118  delete owners[preowner][_NEXT] */\n      0x0100\n      exp\n      dup2\n      sload\n      swap1\n      0xffffffffffffffffffffffffffffffffffffffff\n      mul\n      not\n      and\n      swap1\n      sstore\n        /* \"contracts/Try01/Manage.sol\":5129:5139  owners_num */\n      0x00\n      dup1\n        /* \"contracts/Try01/Manage.sol\":5129:5141  owners_num-- */\n      dup2\n      sload\n      dup1\n      swap3\n      swap2\n      swap1\n      tag_182\n      swap1\n      tag_183\n      jump\t// in\n    tag_182:\n      swap2\n      swap1\n      pop\n      sstore\n      pop\n        /* \"contracts/Try01/Manage.sol\":4862:5149  function removeowner(address preowner)internal {... */\n      pop\n      jump\t// out\n        /* \"contracts/Try01/Manage.sol\":5670:5870  function _createLink(address _preowner, address _nextowner, bool _direction)internal {... */\n    tag_175:\n        /* \"contracts/Try01/Manage.sol\":5800:5809  _preowner */\n      dup3\n        /* \"contracts/Try01/Manage.sol\":5766:5772  owners */\n      0x02\n        /* \"contracts/Try01/Manage.sol\":5766:5784  owners[_nextowner] */\n      0x00\n        /* \"contracts/Try01/Manage.sol\":5773:5783  _nextowner */\n      dup5\n        /* \"contracts/Try01/Manage.sol\":5766:5784  owners[_nextowner] */\n      0xffffffffffffffffffffffffffffffffffffffff\n      and\n      0xffffffffffffffffffffffffffffffffffffffff\n      and\n      dup2\n      mstore\n      0x20\n      add\n      swap1\n      dup2\n      mstore\n      0x20\n      add\n      0x00\n      keccak256\n        /* \"contracts/Try01/Manage.sol\":5766:5797  owners[_nextowner][!_direction] */\n      0x00\n        /* \"contracts/Try01/Manage.sol\":5786:5796  _direction */\n      dup4\n        /* \"contracts/Try01/Manage.sol\":5785:5796  !_direction */\n      iszero\n        /* \"contracts/Try01/Manage.sol\":5766:5797  owners[_nextowner][!_direction] */\n      iszero\n      iszero\n      iszero\n      iszero\n      dup2\n      mstore\n      0x20\n      add\n      swap1\n      dup2\n      mstore\n      0x20\n      add\n      0x00\n      keccak256\n      0x00\n        /* \"contracts/Try01/Manage.sol\":5766:5809  owners[_nextowner][!_direction] = _preowner */\n      0x0100\n      exp\n      dup2\n      sload\n      dup2\n      0xffffffffffffffffffffffffffffffffffffffff\n      mul\n      not\n      and\n      swap1\n      dup4\n      0xffffffffffffffffffffffffffffffffffffffff\n      and\n      mul\n      or\n      swap1\n      sstore\n      pop\n        /* \"contracts/Try01/Manage.sol\":5852:5862  _nextowner */\n      dup2\n        /* \"contracts/Try01/Manage.sol\":5820:5826  owners */\n      0x02\n        /* \"contracts/Try01/Manage.sol\":5820:5837  owners[_preowner] */\n      0x00\n        /* \"contracts/Try01/Manage.sol\":5827:5836  _preowner */\n      dup6\n        /* \"contracts/Try01/Manage.sol\":5820:5837  owners[_preowner] */\n      0xffffffffffffffffffffffffffffffffffffffff\n      and\n      0xffffffffffffffffffffffffffffffffffffffff\n      and\n      dup2\n      mstore\n      0x20\n      add\n      swap1\n      dup2\n      mstore\n      0x20\n      add\n      0x00\n      keccak256\n        /* \"contracts/Try01/Manage.sol\":5820:5849  owners[_preowner][_direction] */\n      0x00\n        /* \"contracts/Try01/Manage.sol\":5838:5848  _direction */\n      dup4\n        /* \"contracts/Try01/Manage.sol\":5820:5849  owners[_preowner][_direction] */\n      iszero\n      iszero\n      iszero\n      iszero\n      dup2\n      mstore\n      0x20\n      add\n      swap1\n      dup2\n      mstore\n      0x20\n      add\n      0x00\n      keccak256\n      0x00\n        /* \"contracts/Try01/Manage.sol\":5820:5862  owners[_preowner][_direction] = _nextowner */\n      0x0100\n      exp\n      dup2\n      sload\n      dup2\n      0xffffffffffffffffffffffffffffffffffffffff\n      mul\n      not\n      and\n      swap1\n      dup4\n      0xffffffffffffffffffffffffffffffffffffffff\n      and\n      mul\n      or\n      swap1\n      sstore\n      pop\n        /* \"contracts/Try01/Manage.sol\":5670:5870  function _createLink(address _preowner, address _nextowner, bool _direction)internal {... */\n      pop\n      pop\n      pop\n      jump\t// out\n        /* \"#utility.yul\":7:121   */\n    tag_185:\n        /* \"#utility.yul\":74:80   */\n      0x00\n        /* \"#utility.yul\":108:113   */\n      dup2\n        /* \"#utility.yul\":102:114   */\n      mload\n        /* \"#utility.yul\":92:114   */\n      swap1\n      pop\n        /* \"#utility.yul\":7:121   */\n      swap2\n      swap1\n      pop\n      jump\t// out\n        /* \"#utility.yul\":127:311   */\n    tag_186:\n        /* \"#utility.yul\":226:237   */\n      0x00\n        /* \"#utility.yul\":260:266   */\n      dup3\n        /* \"#utility.yul\":255:258   */\n      dup3\n        /* \"#utility.yul\":248:267   */\n      mstore\n        /* \"#utility.yul\":300:304   */\n      0x20\n        /* \"#utility.yul\":295:298   */\n      dup3\n        /* \"#utility.yul\":291:305   */\n      add\n        /* \"#utility.yul\":276:305   */\n      swap1\n      pop\n        /* \"#utility.yul\":127:311   */\n      swap3\n      swap2\n      pop\n      pop\n      jump\t// out\n        /* \"#utility.yul\":317:449   */\n    tag_187:\n        /* \"#utility.yul\":384:388   */\n      0x00\n        /* \"#utility.yul\":407:410   */\n      dup2\n        /* \"#utility.yul\":399:410   */\n      swap1\n      pop\n        /* \"#utility.yul\":437:441   */\n      0x20\n        /* \"#utility.yul\":432:435   */\n      dup3\n        /* \"#utility.yul\":428:442   */\n      add\n        /* \"#utility.yul\":420:442   */\n      swap1\n      pop\n        /* \"#utility.yul\":317:449   */\n      swap2\n      swap1\n      pop\n      jump\t// out\n        /* \"#utility.yul\":455:581   */\n    tag_188:\n        /* \"#utility.yul\":492:499   */\n      0x00\n        /* \"#utility.yul\":532:574   */\n      0xffffffffffffffffffffffffffffffffffffffff\n        /* \"#utility.yul\":525:530   */\n      dup3\n        /* \"#utility.yul\":521:575   */\n      and\n        /* \"#utility.yul\":510:575   */\n      swap1\n      pop\n        /* \"#utility.yul\":455:581   */\n      swap2\n      swap1\n      pop\n      jump\t// out\n        /* \"#utility.yul\":587:683   */\n    tag_189:\n        /* \"#utility.yul\":624:631   */\n      0x00\n        /* \"#utility.yul\":653:677   */\n      tag_238\n        /* \"#utility.yul\":671:676   */\n      dup3\n        /* \"#utility.yul\":653:677   */\n      tag_188\n      jump\t// in\n    tag_238:\n        /* \"#utility.yul\":642:677   */\n      swap1\n      pop\n        /* \"#utility.yul\":587:683   */\n      swap2\n      swap1\n      pop\n      jump\t// out\n        /* \"#utility.yul\":689:797   */\n    tag_190:\n        /* \"#utility.yul\":766:790   */\n      tag_240\n        /* \"#utility.yul\":784:789   */\n      dup2\n        /* \"#utility.yul\":766:790   */\n      tag_189\n      jump\t// in\n    tag_240:\n        /* \"#utility.yul\":761:764   */\n      dup3\n        /* \"#utility.yul\":754:791   */\n      mstore\n        /* \"#utility.yul\":689:797   */\n      pop\n      pop\n      jump\t// out\n        /* \"#utility.yul\":803:982   */\n    tag_191:\n        /* \"#utility.yul\":872:882   */\n      0x00\n        /* \"#utility.yul\":893:939   */\n      tag_242\n        /* \"#utility.yul\":935:938   */\n      dup4\n        /* \"#utility.yul\":927:933   */\n      dup4\n        /* \"#utility.yul\":893:939   */\n      tag_190\n      jump\t// in\n    tag_242:\n        /* \"#utility.yul\":971:975   */\n      0x20\n        /* \"#utility.yul\":966:969   */\n      dup4\n        /* \"#utility.yul\":962:976   */\n      add\n        /* \"#utility.yul\":948:976   */\n      swap1\n      pop\n        /* \"#utility.yul\":803:982   */\n      swap3\n      swap2\n      pop\n      pop\n      jump\t// out\n        /* \"#utility.yul\":988:1101   */\n    tag_192:\n        /* \"#utility.yul\":1058:1062   */\n      0x00\n        /* \"#utility.yul\":1090:1094   */\n      0x20\n        /* \"#utility.yul\":1085:1088   */\n      dup3\n        /* \"#utility.yul\":1081:1095   */\n      add\n        /* \"#utility.yul\":1073:1095   */\n      swap1\n      pop\n        /* \"#utility.yul\":988:1101   */\n      swap2\n      swap1\n      pop\n      jump\t// out\n        /* \"#utility.yul\":1137:1869   */\n    tag_193:\n        /* \"#utility.yul\":1256:1259   */\n      0x00\n        /* \"#utility.yul\":1285:1339   */\n      tag_245\n        /* \"#utility.yul\":1333:1338   */\n      dup3\n        /* \"#utility.yul\":1285:1339   */\n      tag_185\n      jump\t// in\n    tag_245:\n        /* \"#utility.yul\":1355:1441   */\n      tag_246\n        /* \"#utility.yul\":1434:1440   */\n      dup2\n        /* \"#utility.yul\":1429:1432   */\n      dup6\n        /* \"#utility.yul\":1355:1441   */\n      tag_186\n      jump\t// in\n    tag_246:\n        /* \"#utility.yul\":1348:1441   */\n      swap4\n      pop\n        /* \"#utility.yul\":1465:1521   */\n      tag_247\n        /* \"#utility.yul\":1515:1520   */\n      dup4\n        /* \"#utility.yul\":1465:1521   */\n      tag_187\n      jump\t// in\n    tag_247:\n        /* \"#utility.yul\":1544:1551   */\n      dup1\n        /* \"#utility.yul\":1575:1576   */\n      0x00\n        /* \"#utility.yul\":1560:1844   */\n    tag_248:\n        /* \"#utility.yul\":1585:1591   */\n      dup4\n        /* \"#utility.yul\":1582:1583   */\n      dup2\n        /* \"#utility.yul\":1579:1592   */\n      lt\n        /* \"#utility.yul\":1560:1844   */\n      iszero\n      tag_250\n      jumpi\n        /* \"#utility.yul\":1661:1667   */\n      dup2\n        /* \"#utility.yul\":1655:1668   */\n      mload\n        /* \"#utility.yul\":1688:1751   */\n      tag_251\n        /* \"#utility.yul\":1747:1750   */\n      dup9\n        /* \"#utility.yul\":1732:1745   */\n      dup3\n        /* \"#utility.yul\":1688:1751   */\n      tag_191\n      jump\t// in\n    tag_251:\n        /* \"#utility.yul\":1681:1751   */\n      swap8\n      pop\n        /* \"#utility.yul\":1774:1834   */\n      tag_252\n        /* \"#utility.yul\":1827:1833   */\n      dup4\n        /* \"#utility.yul\":1774:1834   */\n      tag_192\n      jump\t// in\n    tag_252:\n        /* \"#utility.yul\":1764:1834   */\n      swap3\n      pop\n        /* \"#utility.yul\":1620:1844   */\n      pop\n        /* \"#utility.yul\":1607:1608   */\n      0x01\n        /* \"#utility.yul\":1604:1605   */\n      dup2\n        /* \"#utility.yul\":1600:1609   */\n      add\n        /* \"#utility.yul\":1595:1609   */\n      swap1\n      pop\n        /* \"#utility.yul\":1560:1844   */\n      jump(tag_248)\n    tag_250:\n        /* \"#utility.yul\":1564:1578   */\n      pop\n        /* \"#utility.yul\":1860:1863   */\n      dup6\n        /* \"#utility.yul\":1853:1863   */\n      swap4\n      pop\n        /* \"#utility.yul\":1261:1869   */\n      pop\n      pop\n      pop\n        /* \"#utility.yul\":1137:1869   */\n      swap3\n      swap2\n      pop\n      pop\n      jump\t// out\n        /* \"#utility.yul\":1875:2248   */\n    tag_19:\n        /* \"#utility.yul\":2018:2022   */\n      0x00\n        /* \"#utility.yul\":2056:2058   */\n      0x20\n        /* \"#utility.yul\":2045:2054   */\n      dup3\n        /* \"#utility.yul\":2041:2059   */\n      add\n        /* \"#utility.yul\":2033:2059   */\n      swap1\n      pop\n        /* \"#utility.yul\":2105:2114   */\n      dup2\n        /* \"#utility.yul\":2099:2103   */\n      dup2\n        /* \"#utility.yul\":2095:2115   */\n      sub\n        /* \"#utility.yul\":2091:2092   */\n      0x00\n        /* \"#utility.yul\":2080:2089   */\n      dup4\n        /* \"#utility.yul\":2076:2093   */\n      add\n        /* \"#utility.yul\":2069:2116   */\n      mstore\n        /* \"#utility.yul\":2133:2241   */\n      tag_254\n        /* \"#utility.yul\":2236:2240   */\n      dup2\n        /* \"#utility.yul\":2227:2233   */\n      dup5\n        /* \"#utility.yul\":2133:2241   */\n      tag_193\n      jump\t// in\n    tag_254:\n        /* \"#utility.yul\":2125:2241   */\n      swap1\n      pop\n        /* \"#utility.yul\":1875:2248   */\n      swap3\n      swap2\n      pop\n      pop\n      jump\t// out\n        /* \"#utility.yul\":2254:2331   */\n    tag_194:\n        /* \"#utility.yul\":2291:2298   */\n      0x00\n        /* \"#utility.yul\":2320:2325   */\n      dup2\n        /* \"#utility.yul\":2309:2325   */\n      swap1\n      pop\n        /* \"#utility.yul\":2254:2331   */\n      swap2\n      swap1\n      pop\n      jump\t// out\n        /* \"#utility.yul\":2337:2455   */\n    tag_195:\n        /* \"#utility.yul\":2424:2448   */\n      tag_257\n        /* \"#utility.yul\":2442:2447   */\n      dup2\n        /* \"#utility.yul\":2424:2448   */\n      tag_194\n      jump\t// in\n    tag_257:\n        /* \"#utility.yul\":2419:2422   */\n      dup3\n        /* \"#utility.yul\":2412:2449   */\n      mstore\n        /* \"#utility.yul\":2337:2455   */\n      pop\n      pop\n      jump\t// out\n        /* \"#utility.yul\":2461:2683   */\n    tag_23:\n        /* \"#utility.yul\":2554:2558   */\n      0x00\n        /* \"#utility.yul\":2592:2594   */\n      0x20\n        /* \"#utility.yul\":2581:2590   */\n      dup3\n        /* \"#utility.yul\":2577:2595   */\n      add\n        /* \"#utility.yul\":2569:2595   */\n      swap1\n      pop\n        /* \"#utility.yul\":2605:2676   */\n      tag_259\n        /* \"#utility.yul\":2673:2674   */\n      0x00\n        /* \"#utility.yul\":2662:2671   */\n      dup4\n        /* \"#utility.yul\":2658:2675   */\n      add\n        /* \"#utility.yul\":2649:2655   */\n      dup5\n        /* \"#utility.yul\":2605:2676   */\n      tag_195\n      jump\t// in\n    tag_259:\n        /* \"#utility.yul\":2461:2683   */\n      swap3\n      swap2\n      pop\n      pop\n      jump\t// out\n        /* \"#utility.yul\":2689:2764   */\n    tag_196:\n        /* \"#utility.yul\":2722:2728   */\n      0x00\n        /* \"#utility.yul\":2755:2757   */\n      0x40\n        /* \"#utility.yul\":2749:2758   */\n      mload\n        /* \"#utility.yul\":2739:2758   */\n      swap1\n      pop\n        /* \"#utility.yul\":2689:2764   */\n      swap1\n      jump\t// out\n        /* \"#utility.yul\":2770:2887   */\n    tag_197:\n        /* \"#utility.yul\":2879:2880   */\n      0x00\n        /* \"#utility.yul\":2876:2877   */\n      dup1\n        /* \"#utility.yul\":2869:2881   */\n      revert\n        /* \"#utility.yul\":2893:3010   */\n    tag_198:\n        /* \"#utility.yul\":3002:3003   */\n      0x00\n        /* \"#utility.yul\":2999:3000   */\n      dup1\n        /* \"#utility.yul\":2992:3004   */\n      revert\n        /* \"#utility.yul\":3016:3138   */\n    tag_199:\n        /* \"#utility.yul\":3089:3113   */\n      tag_264\n        /* \"#utility.yul\":3107:3112   */\n      dup2\n        /* \"#utility.yul\":3089:3113   */\n      tag_189\n      jump\t// in\n    tag_264:\n        /* \"#utility.yul\":3082:3087   */\n      dup2\n        /* \"#utility.yul\":3079:3114   */\n      eq\n        /* \"#utility.yul\":3069:3132   */\n      tag_265\n      jumpi\n        /* \"#utility.yul\":3128:3129   */\n      0x00\n        /* \"#utility.yul\":3125:3126   */\n      dup1\n        /* \"#utility.yul\":3118:3130   */\n      revert\n        /* \"#utility.yul\":3069:3132   */\n    tag_265:\n        /* \"#utility.yul\":3016:3138   */\n      pop\n      jump\t// out\n        /* \"#utility.yul\":3144:3283   */\n    tag_200:\n        /* \"#utility.yul\":3190:3195   */\n      0x00\n        /* \"#utility.yul\":3228:3234   */\n      dup2\n        /* \"#utility.yul\":3215:3235   */\n      calldataload\n        /* \"#utility.yul\":3206:3235   */\n      swap1\n      pop\n        /* \"#utility.yul\":3244:3277   */\n      tag_267\n        /* \"#utility.yul\":3271:3276   */\n      dup2\n        /* \"#utility.yul\":3244:3277   */\n      tag_199\n      jump\t// in\n    tag_267:\n        /* \"#utility.yul\":3144:3283   */\n      swap3\n      swap2\n      pop\n      pop\n      jump\t// out\n        /* \"#utility.yul\":3289:3411   */\n    tag_201:\n        /* \"#utility.yul\":3362:3386   */\n      tag_269\n        /* \"#utility.yul\":3380:3385   */\n      dup2\n        /* \"#utility.yul\":3362:3386   */\n      tag_194\n      jump\t// in\n    tag_269:\n        /* \"#utility.yul\":3355:3360   */\n      dup2\n        /* \"#utility.yul\":3352:3387   */\n      eq\n        /* \"#utility.yul\":3342:3405   */\n      tag_270\n      jumpi\n        /* \"#utility.yul\":3401:3402   */\n      0x00\n        /* \"#utility.yul\":3398:3399   */\n      dup1\n        /* \"#utility.yul\":3391:3403   */\n      revert\n        /* \"#utility.yul\":3342:3405   */\n    tag_270:\n        /* \"#utility.yul\":3289:3411   */\n      pop\n      jump\t// out\n        /* \"#utility.yul\":3417:3556   */\n    tag_202:\n        /* \"#utility.yul\":3463:3468   */\n      0x00\n        /* \"#utility.yul\":3501:3507   */\n      dup2\n        /* \"#utility.yul\":3488:3508   */\n      calldataload\n        /* \"#utility.yul\":3479:3508   */\n      swap1\n      pop\n        /* \"#utility.yul\":3517:3550   */\n      tag_272\n        /* \"#utility.yul\":3544:3549   */\n      dup2\n        /* \"#utility.yul\":3517:3550   */\n      tag_201\n      jump\t// in\n    tag_272:\n        /* \"#utility.yul\":3417:3556   */\n      swap3\n      swap2\n      pop\n      pop\n      jump\t// out\n        /* \"#utility.yul\":3562:4036   */\n    tag_26:\n        /* \"#utility.yul\":3630:3636   */\n      0x00\n        /* \"#utility.yul\":3638:3644   */\n      dup1\n        /* \"#utility.yul\":3687:3689   */\n      0x40\n        /* \"#utility.yul\":3675:3684   */\n      dup4\n        /* \"#utility.yul\":3666:3673   */\n      dup6\n        /* \"#utility.yul\":3662:3685   */\n      sub\n        /* \"#utility.yul\":3658:3690   */\n      slt\n        /* \"#utility.yul\":3655:3774   */\n      iszero\n      tag_274\n      jumpi\n        /* \"#utility.yul\":3693:3772   */\n      tag_275\n      tag_197\n      jump\t// in\n    tag_275:\n        /* \"#utility.yul\":3655:3774   */\n    tag_274:\n        /* \"#utility.yul\":3813:3814   */\n      0x00\n        /* \"#utility.yul\":3838:3891   */\n      tag_276\n        /* \"#utility.yul\":3883:3890   */\n      dup6\n        /* \"#utility.yul\":3874:3880   */\n      dup3\n        /* \"#utility.yul\":3863:3872   */\n      dup7\n        /* \"#utility.yul\":3859:3881   */\n      add\n        /* \"#utility.yul\":3838:3891   */\n      tag_200\n      jump\t// in\n    tag_276:\n        /* \"#utility.yul\":3828:3891   */\n      swap3\n      pop\n        /* \"#utility.yul\":3784:3901   */\n      pop\n        /* \"#utility.yul\":3940:3942   */\n      0x20\n        /* \"#utility.yul\":3966:4019   */\n      tag_277\n        /* \"#utility.yul\":4011:4018   */\n      dup6\n        /* \"#utility.yul\":4002:4008   */\n      dup3\n        /* \"#utility.yul\":3991:4000   */\n      dup7\n        /* \"#utility.yul\":3987:4009   */\n      add\n        /* \"#utility.yul\":3966:4019   */\n      tag_202\n      jump\t// in\n    tag_277:\n        /* \"#utility.yul\":3956:4019   */\n      swap2\n      pop\n        /* \"#utility.yul\":3911:4029   */\n      pop\n        /* \"#utility.yul\":3562:4036   */\n      swap3\n      pop\n      swap3\n      swap1\n      pop\n      jump\t// out\n        /* \"#utility.yul\":4042:4140   */\n    tag_203:\n        /* \"#utility.yul\":4093:4099   */\n      0x00\n        /* \"#utility.yul\":4127:4132   */\n      dup2\n        /* \"#utility.yul\":4121:4133   */\n      mload\n        /* \"#utility.yul\":4111:4133   */\n      swap1\n      pop\n        /* \"#utility.yul\":4042:4140   */\n      swap2\n      swap1\n      pop\n      jump\t// out\n        /* \"#utility.yul\":4146:4314   */\n    tag_204:\n        /* \"#utility.yul\":4229:4240   */\n      0x00\n        /* \"#utility.yul\":4263:4269   */\n      dup3\n        /* \"#utility.yul\":4258:4261   */\n      dup3\n        /* \"#utility.yul\":4251:4270   */\n      mstore\n        /* \"#utility.yul\":4303:4307   */\n      0x20\n        /* \"#utility.yul\":4298:4301   */\n      dup3\n        /* \"#utility.yul\":4294:4308   */\n      add\n        /* \"#utility.yul\":4279:4308   */\n      swap1\n      pop\n        /* \"#utility.yul\":4146:4314   */\n      swap3\n      swap2\n      pop\n      pop\n      jump\t// out\n        /* \"#utility.yul\":4320:4566   */\n    tag_205:\n        /* \"#utility.yul\":4401:4402   */\n      0x00\n        /* \"#utility.yul\":4411:4524   */\n    tag_281:\n        /* \"#utility.yul\":4425:4431   */\n      dup4\n        /* \"#utility.yul\":4422:4423   */\n      dup2\n        /* \"#utility.yul\":4419:4432   */\n      lt\n        /* \"#utility.yul\":4411:4524   */\n      iszero\n      tag_283\n      jumpi\n        /* \"#utility.yul\":4510:4511   */\n      dup1\n        /* \"#utility.yul\":4505:4508   */\n      dup3\n        /* \"#utility.yul\":4501:4512   */\n      add\n        /* \"#utility.yul\":4495:4513   */\n      mload\n        /* \"#utility.yul\":4491:4492   */\n      dup2\n        /* \"#utility.yul\":4486:4489   */\n      dup5\n        /* \"#utility.yul\":4482:4493   */\n      add\n        /* \"#utility.yul\":4475:4514   */\n      mstore\n        /* \"#utility.yul\":4447:4449   */\n      0x20\n        /* \"#utility.yul\":4444:4445   */\n      dup2\n        /* \"#utility.yul\":4440:4450   */\n      add\n        /* \"#utility.yul\":4435:4450   */\n      swap1\n      pop\n        /* \"#utility.yul\":4411:4524   */\n      jump(tag_281)\n    tag_283:\n        /* \"#utility.yul\":4558:4559   */\n      0x00\n        /* \"#utility.yul\":4549:4555   */\n      dup5\n        /* \"#utility.yul\":4544:4547   */\n      dup5\n        /* \"#utility.yul\":4540:4556   */\n      add\n        /* \"#utility.yul\":4533:4560   */\n      mstore\n        /* \"#utility.yul\":4382:4566   */\n      pop\n        /* \"#utility.yul\":4320:4566   */\n      pop\n      pop\n      pop\n      jump\t// out\n        /* \"#utility.yul\":4572:4674   */\n    tag_206:\n        /* \"#utility.yul\":4613:4619   */\n      0x00\n        /* \"#utility.yul\":4664:4666   */\n      0x1f\n        /* \"#utility.yul\":4660:4667   */\n      not\n        /* \"#utility.yul\":4655:4657   */\n      0x1f\n        /* \"#utility.yul\":4648:4653   */\n      dup4\n        /* \"#utility.yul\":4644:4658   */\n      add\n        /* \"#utility.yul\":4640:4668   */\n      and\n        /* \"#utility.yul\":4630:4668   */\n      swap1\n      pop\n        /* \"#utility.yul\":4572:4674   */\n      swap2\n      swap1\n      pop\n      jump\t// out\n        /* \"#utility.yul\":4680:5053   */\n    tag_207:\n        /* \"#utility.yul\":4766:4769   */\n      0x00\n        /* \"#utility.yul\":4794:4832   */\n      tag_286\n        /* \"#utility.yul\":4826:4831   */\n      dup3\n        /* \"#utility.yul\":4794:4832   */\n      tag_203\n      jump\t// in\n    tag_286:\n        /* \"#utility.yul\":4848:4918   */\n      tag_287\n        /* \"#utility.yul\":4911:4917   */\n      dup2\n        /* \"#utility.yul\":4906:4909   */\n      dup6\n        /* \"#utility.yul\":4848:4918   */\n      tag_204\n      jump\t// in\n    tag_287:\n        /* \"#utility.yul\":4841:4918   */\n      swap4\n      pop\n        /* \"#utility.yul\":4927:4992   */\n      tag_288\n        /* \"#utility.yul\":4985:4991   */\n      dup2\n        /* \"#utility.yul\":4980:4983   */\n      dup6\n        /* \"#utility.yul\":4973:4977   */\n      0x20\n        /* \"#utility.yul\":4966:4971   */\n      dup7\n        /* \"#utility.yul\":4962:4978   */\n      add\n        /* \"#utility.yul\":4927:4992   */\n      tag_205\n      jump\t// in\n    tag_288:\n        /* \"#utility.yul\":5017:5046   */\n      tag_289\n        /* \"#utility.yul\":5039:5045   */\n      dup2\n        /* \"#utility.yul\":5017:5046   */\n      tag_206\n      jump\t// in\n    tag_289:\n        /* \"#utility.yul\":5012:5015   */\n      dup5\n        /* \"#utility.yul\":5008:5047   */\n      add\n        /* \"#utility.yul\":5001:5047   */\n      swap2\n      pop\n        /* \"#utility.yul\":4770:5053   */\n      pop\n        /* \"#utility.yul\":4680:5053   */\n      swap3\n      swap2\n      pop\n      pop\n      jump\t// out\n        /* \"#utility.yul\":5059:5368   */\n    tag_32:\n        /* \"#utility.yul\":5170:5174   */\n      0x00\n        /* \"#utility.yul\":5208:5210   */\n      0x20\n        /* \"#utility.yul\":5197:5206   */\n      dup3\n        /* \"#utility.yul\":5193:5211   */\n      add\n        /* \"#utility.yul\":5185:5211   */\n      swap1\n      pop\n        /* \"#utility.yul\":5257:5266   */\n      dup2\n        /* \"#utility.yul\":5251:5255   */\n      dup2\n        /* \"#utility.yul\":5247:5267   */\n      sub\n        /* \"#utility.yul\":5243:5244   */\n      0x00\n        /* \"#utility.yul\":5232:5241   */\n      dup4\n        /* \"#utility.yul\":5228:5245   */\n      add\n        /* \"#utility.yul\":5221:5268   */\n      mstore\n        /* \"#utility.yul\":5285:5361   */\n      tag_291\n        /* \"#utility.yul\":5356:5360   */\n      dup2\n        /* \"#utility.yul\":5347:5353   */\n      dup5\n        /* \"#utility.yul\":5285:5361   */\n      tag_207\n      jump\t// in\n    tag_291:\n        /* \"#utility.yul\":5277:5361   */\n      swap1\n      pop\n        /* \"#utility.yul\":5059:5368   */\n      swap3\n      swap2\n      pop\n      pop\n      jump\t// out\n        /* \"#utility.yul\":5374:5703   */\n    tag_35:\n        /* \"#utility.yul\":5433:5439   */\n      0x00\n        /* \"#utility.yul\":5482:5484   */\n      0x20\n        /* \"#utility.yul\":5470:5479   */\n      dup3\n        /* \"#utility.yul\":5461:5468   */\n      dup5\n        /* \"#utility.yul\":5457:5480   */\n      sub\n        /* \"#utility.yul\":5453:5485   */\n      slt\n        /* \"#utility.yul\":5450:5569   */\n      iszero\n      tag_293\n      jumpi\n        /* \"#utility.yul\":5488:5567   */\n      tag_294\n      tag_197\n      jump\t// in\n    tag_294:\n        /* \"#utility.yul\":5450:5569   */\n    tag_293:\n        /* \"#utility.yul\":5608:5609   */\n      0x00\n        /* \"#utility.yul\":5633:5686   */\n      tag_295\n        /* \"#utility.yul\":5678:5685   */\n      dup5\n        /* \"#utility.yul\":5669:5675   */\n      dup3\n        /* \"#utility.yul\":5658:5667   */\n      dup6\n        /* \"#utility.yul\":5654:5676   */\n      add\n        /* \"#utility.yul\":5633:5686   */\n      tag_200\n      jump\t// in\n    tag_295:\n        /* \"#utility.yul\":5623:5686   */\n      swap2\n      pop\n        /* \"#utility.yul\":5579:5696   */\n      pop\n        /* \"#utility.yul\":5374:5703   */\n      swap3\n      swap2\n      pop\n      pop\n      jump\t// out\n        /* \"#utility.yul\":5709:6038   */\n    tag_39:\n        /* \"#utility.yul\":5768:5774   */\n      0x00\n        /* \"#utility.yul\":5817:5819   */\n      0x20\n        /* \"#utility.yul\":5805:5814   */\n      dup3\n        /* \"#utility.yul\":5796:5803   */\n      dup5\n        /* \"#utility.yul\":5792:5815   */\n      sub\n        /* \"#utility.yul\":5788:5820   */\n      slt\n        /* \"#utility.yul\":5785:5904   */\n      iszero\n      tag_297\n      jumpi\n        /* \"#utility.yul\":5823:5902   */\n      tag_298\n      tag_197\n      jump\t// in\n    tag_298:\n        /* \"#utility.yul\":5785:5904   */\n    tag_297:\n        /* \"#utility.yul\":5943:5944   */\n      0x00\n        /* \"#utility.yul\":5968:6021   */\n      tag_299\n        /* \"#utility.yul\":6013:6020   */\n      dup5\n        /* \"#utility.yul\":6004:6010   */\n      dup3\n        /* \"#utility.yul\":5993:6002   */\n      dup6\n        /* \"#utility.yul\":5989:6011   */\n      add\n        /* \"#utility.yul\":5968:6021   */\n      tag_202\n      jump\t// in\n    tag_299:\n        /* \"#utility.yul\":5958:6021   */\n      swap2\n      pop\n        /* \"#utility.yul\":5914:6031   */\n      pop\n        /* \"#utility.yul\":5709:6038   */\n      swap3\n      swap2\n      pop\n      pop\n      jump\t// out\n        /* \"#utility.yul\":6044:6161   */\n    tag_208:\n        /* \"#utility.yul\":6153:6154   */\n      0x00\n        /* \"#utility.yul\":6150:6151   */\n      dup1\n        /* \"#utility.yul\":6143:6155   */\n      revert\n        /* \"#utility.yul\":6167:6347   */\n    tag_67:\n        /* \"#utility.yul\":6215:6292   */\n      0x4e487b7100000000000000000000000000000000000000000000000000000000\n        /* \"#utility.yul\":6212:6213   */\n      0x00\n        /* \"#utility.yul\":6205:6293   */\n      mstore\n        /* \"#utility.yul\":6312:6316   */\n      0x41\n        /* \"#utility.yul\":6309:6310   */\n      0x04\n        /* \"#utility.yul\":6302:6317   */\n      mstore\n        /* \"#utility.yul\":6336:6340   */\n      0x24\n        /* \"#utility.yul\":6333:6334   */\n      0x00\n        /* \"#utility.yul\":6326:6341   */\n      revert\n        /* \"#utility.yul\":6353:6634   */\n    tag_209:\n        /* \"#utility.yul\":6436:6463   */\n      tag_303\n        /* \"#utility.yul\":6458:6462   */\n      dup3\n        /* \"#utility.yul\":6436:6463   */\n      tag_206\n      jump\t// in\n    tag_303:\n        /* \"#utility.yul\":6428:6434   */\n      dup2\n        /* \"#utility.yul\":6424:6464   */\n      add\n        /* \"#utility.yul\":6566:6572   */\n      dup2\n        /* \"#utility.yul\":6554:6564   */\n      dup2\n        /* \"#utility.yul\":6551:6573   */\n      lt\n        /* \"#utility.yul\":6530:6548   */\n      0xffffffffffffffff\n        /* \"#utility.yul\":6518:6528   */\n      dup3\n        /* \"#utility.yul\":6515:6549   */\n      gt\n        /* \"#utility.yul\":6512:6574   */\n      or\n        /* \"#utility.yul\":6509:6597   */\n      iszero\n      tag_304\n      jumpi\n        /* \"#utility.yul\":6577:6595   */\n      tag_305\n      tag_67\n      jump\t// in\n    tag_305:\n        /* \"#utility.yul\":6509:6597   */\n    tag_304:\n        /* \"#utility.yul\":6617:6627   */\n      dup1\n        /* \"#utility.yul\":6613:6615   */\n      0x40\n        /* \"#utility.yul\":6606:6628   */\n      mstore\n        /* \"#utility.yul\":6396:6634   */\n      pop\n        /* \"#utility.yul\":6353:6634   */\n      pop\n      pop\n      jump\t// out\n        /* \"#utility.yul\":6640:6769   */\n    tag_210:\n        /* \"#utility.yul\":6674:6680   */\n      0x00\n        /* \"#utility.yul\":6701:6721   */\n      tag_307\n      tag_196\n      jump\t// in\n    tag_307:\n        /* \"#utility.yul\":6691:6721   */\n      swap1\n      pop\n        /* \"#utility.yul\":6730:6763   */\n      tag_308\n        /* \"#utility.yul\":6758:6762   */\n      dup3\n        /* \"#utility.yul\":6750:6756   */\n      dup3\n        /* \"#utility.yul\":6730:6763   */\n      tag_209\n      jump\t// in\n    tag_308:\n        /* \"#utility.yul\":6640:6769   */\n      swap2\n      swap1\n      pop\n      jump\t// out\n        /* \"#utility.yul\":6775:7086   */\n    tag_211:\n        /* \"#utility.yul\":6852:6856   */\n      0x00\n        /* \"#utility.yul\":6942:6960   */\n      0xffffffffffffffff\n        /* \"#utility.yul\":6934:6940   */\n      dup3\n        /* \"#utility.yul\":6931:6961   */\n      gt\n        /* \"#utility.yul\":6928:6984   */\n      iszero\n      tag_310\n      jumpi\n        /* \"#utility.yul\":6964:6982   */\n      tag_311\n      tag_67\n      jump\t// in\n    tag_311:\n        /* \"#utility.yul\":6928:6984   */\n    tag_310:\n        /* \"#utility.yul\":7014:7018   */\n      0x20\n        /* \"#utility.yul\":7006:7012   */\n      dup3\n        /* \"#utility.yul\":7002:7019   */\n      mul\n        /* \"#utility.yul\":6994:7019   */\n      swap1\n      pop\n        /* \"#utility.yul\":7074:7078   */\n      0x20\n        /* \"#utility.yul\":7068:7072   */\n      dup2\n        /* \"#utility.yul\":7064:7079   */\n      add\n        /* \"#utility.yul\":7056:7079   */\n      swap1\n      pop\n        /* \"#utility.yul\":6775:7086   */\n      swap2\n      swap1\n      pop\n      jump\t// out\n        /* \"#utility.yul\":7092:7209   */\n    tag_212:\n        /* \"#utility.yul\":7201:7202   */\n      0x00\n        /* \"#utility.yul\":7198:7199   */\n      dup1\n        /* \"#utility.yul\":7191:7203   */\n      revert\n        /* \"#utility.yul\":7232:7942   */\n    tag_213:\n        /* \"#utility.yul\":7328:7333   */\n      0x00\n        /* \"#utility.yul\":7353:7434   */\n      tag_314\n        /* \"#utility.yul\":7369:7433   */\n      tag_315\n        /* \"#utility.yul\":7426:7432   */\n      dup5\n        /* \"#utility.yul\":7369:7433   */\n      tag_211\n      jump\t// in\n    tag_315:\n        /* \"#utility.yul\":7353:7434   */\n      tag_210\n      jump\t// in\n    tag_314:\n        /* \"#utility.yul\":7344:7434   */\n      swap1\n      pop\n        /* \"#utility.yul\":7454:7459   */\n      dup1\n        /* \"#utility.yul\":7483:7489   */\n      dup4\n        /* \"#utility.yul\":7476:7481   */\n      dup3\n        /* \"#utility.yul\":7469:7490   */\n      mstore\n        /* \"#utility.yul\":7517:7521   */\n      0x20\n        /* \"#utility.yul\":7510:7515   */\n      dup3\n        /* \"#utility.yul\":7506:7522   */\n      add\n        /* \"#utility.yul\":7499:7522   */\n      swap1\n      pop\n        /* \"#utility.yul\":7570:7574   */\n      0x20\n        /* \"#utility.yul\":7562:7568   */\n      dup5\n        /* \"#utility.yul\":7558:7575   */\n      mul\n        /* \"#utility.yul\":7550:7556   */\n      dup4\n        /* \"#utility.yul\":7546:7576   */\n      add\n        /* \"#utility.yul\":7599:7602   */\n      dup6\n        /* \"#utility.yul\":7591:7597   */\n      dup2\n        /* \"#utility.yul\":7588:7603   */\n      gt\n        /* \"#utility.yul\":7585:7707   */\n      iszero\n      tag_316\n      jumpi\n        /* \"#utility.yul\":7618:7697   */\n      tag_317\n      tag_212\n      jump\t// in\n    tag_317:\n        /* \"#utility.yul\":7585:7707   */\n    tag_316:\n        /* \"#utility.yul\":7733:7739   */\n      dup4\n        /* \"#utility.yul\":7716:7936   */\n    tag_318:\n        /* \"#utility.yul\":7750:7756   */\n      dup2\n        /* \"#utility.yul\":7745:7748   */\n      dup2\n        /* \"#utility.yul\":7742:7757   */\n      lt\n        /* \"#utility.yul\":7716:7936   */\n      iszero\n      tag_320\n      jumpi\n        /* \"#utility.yul\":7825:7828   */\n      dup1\n        /* \"#utility.yul\":7854:7891   */\n      tag_321\n        /* \"#utility.yul\":7887:7890   */\n      dup9\n        /* \"#utility.yul\":7875:7885   */\n      dup3\n        /* \"#utility.yul\":7854:7891   */\n      tag_200\n      jump\t// in\n    tag_321:\n        /* \"#utility.yul\":7849:7852   */\n      dup5\n        /* \"#utility.yul\":7842:7892   */\n      mstore\n        /* \"#utility.yul\":7921:7925   */\n      0x20\n        /* \"#utility.yul\":7916:7919   */\n      dup5\n        /* \"#utility.yul\":7912:7926   */\n      add\n        /* \"#utility.yul\":7905:7926   */\n      swap4\n      pop\n        /* \"#utility.yul\":7792:7936   */\n      pop\n        /* \"#utility.yul\":7776:7780   */\n      0x20\n        /* \"#utility.yul\":7771:7774   */\n      dup2\n        /* \"#utility.yul\":7767:7781   */\n      add\n        /* \"#utility.yul\":7760:7781   */\n      swap1\n      pop\n        /* \"#utility.yul\":7716:7936   */\n      jump(tag_318)\n    tag_320:\n        /* \"#utility.yul\":7720:7741   */\n      pop\n        /* \"#utility.yul\":7334:7942   */\n      pop\n      pop\n        /* \"#utility.yul\":7232:7942   */\n      swap4\n      swap3\n      pop\n      pop\n      pop\n      jump\t// out\n        /* \"#utility.yul\":7965:8335   */\n    tag_214:\n        /* \"#utility.yul\":8036:8041   */\n      0x00\n        /* \"#utility.yul\":8085:8088   */\n      dup3\n        /* \"#utility.yul\":8078:8082   */\n      0x1f\n        /* \"#utility.yul\":8070:8076   */\n      dup4\n        /* \"#utility.yul\":8066:8083   */\n      add\n        /* \"#utility.yul\":8062:8089   */\n      slt\n        /* \"#utility.yul\":8052:8174   */\n      tag_323\n      jumpi\n        /* \"#utility.yul\":8093:8172   */\n      tag_324\n      tag_208\n      jump\t// in\n    tag_324:\n        /* \"#utility.yul\":8052:8174   */\n    tag_323:\n        /* \"#utility.yul\":8210:8216   */\n      dup2\n        /* \"#utility.yul\":8197:8217   */\n      calldataload\n        /* \"#utility.yul\":8235:8329   */\n      tag_325\n        /* \"#utility.yul\":8325:8328   */\n      dup5\n        /* \"#utility.yul\":8317:8323   */\n      dup3\n        /* \"#utility.yul\":8310:8314   */\n      0x20\n        /* \"#utility.yul\":8302:8308   */\n      dup7\n        /* \"#utility.yul\":8298:8315   */\n      add\n        /* \"#utility.yul\":8235:8329   */\n      tag_213\n      jump\t// in\n    tag_325:\n        /* \"#utility.yul\":8226:8329   */\n      swap2\n      pop\n        /* \"#utility.yul\":8042:8335   */\n      pop\n        /* \"#utility.yul\":7965:8335   */\n      swap3\n      swap2\n      pop\n      pop\n      jump\t// out\n        /* \"#utility.yul\":8341:9025   */\n    tag_50:\n        /* \"#utility.yul\":8434:8440   */\n      0x00\n        /* \"#utility.yul\":8442:8448   */\n      dup1\n        /* \"#utility.yul\":8491:8493   */\n      0x40\n        /* \"#utility.yul\":8479:8488   */\n      dup4\n        /* \"#utility.yul\":8470:8477   */\n      dup6\n        /* \"#utility.yul\":8466:8489   */\n      sub\n        /* \"#utility.yul\":8462:8494   */\n      slt\n        /* \"#utility.yul\":8459:8578   */\n      iszero\n      tag_327\n      jumpi\n        /* \"#utility.yul\":8497:8576   */\n      tag_328\n      tag_197\n      jump\t// in\n    tag_328:\n        /* \"#utility.yul\":8459:8578   */\n    tag_327:\n        /* \"#utility.yul\":8645:8646   */\n      0x00\n        /* \"#utility.yul\":8634:8643   */\n      dup4\n        /* \"#utility.yul\":8630:8647   */\n      add\n        /* \"#utility.yul\":8617:8648   */\n      calldataload\n        /* \"#utility.yul\":8675:8693   */\n      0xffffffffffffffff\n        /* \"#utility.yul\":8667:8673   */\n      dup2\n        /* \"#utility.yul\":8664:8694   */\n      gt\n        /* \"#utility.yul\":8661:8778   */\n      iszero\n      tag_329\n      jumpi\n        /* \"#utility.yul\":8697:8776   */\n      tag_330\n      tag_198\n      jump\t// in\n    tag_330:\n        /* \"#utility.yul\":8661:8778   */\n    tag_329:\n        /* \"#utility.yul\":8802:8880   */\n      tag_331\n        /* \"#utility.yul\":8872:8879   */\n      dup6\n        /* \"#utility.yul\":8863:8869   */\n      dup3\n        /* \"#utility.yul\":8852:8861   */\n      dup7\n        /* \"#utility.yul\":8848:8870   */\n      add\n        /* \"#utility.yul\":8802:8880   */\n      tag_214\n      jump\t// in\n    tag_331:\n        /* \"#utility.yul\":8792:8880   */\n      swap3\n      pop\n        /* \"#utility.yul\":8588:8890   */\n      pop\n        /* \"#utility.yul\":8929:8931   */\n      0x20\n        /* \"#utility.yul\":8955:9008   */\n      tag_332\n        /* \"#utility.yul\":9000:9007   */\n      dup6\n        /* \"#utility.yul\":8991:8997   */\n      dup3\n        /* \"#utility.yul\":8980:8989   */\n      dup7\n        /* \"#utility.yul\":8976:8998   */\n      add\n        /* \"#utility.yul\":8955:9008   */\n      tag_202\n      jump\t// in\n    tag_332:\n        /* \"#utility.yul\":8945:9008   */\n      swap2\n      pop\n        /* \"#utility.yul\":8900:9018   */\n      pop\n        /* \"#utility.yul\":8341:9025   */\n      swap3\n      pop\n      swap3\n      swap1\n      pop\n      jump\t// out\n        /* \"#utility.yul\":9031:9121   */\n    tag_215:\n        /* \"#utility.yul\":9065:9072   */\n      0x00\n        /* \"#utility.yul\":9108:9113   */\n      dup2\n        /* \"#utility.yul\":9101:9114   */\n      iszero\n        /* \"#utility.yul\":9094:9115   */\n      iszero\n        /* \"#utility.yul\":9083:9115   */\n      swap1\n      pop\n        /* \"#utility.yul\":9031:9121   */\n      swap2\n      swap1\n      pop\n      jump\t// out\n        /* \"#utility.yul\":9127:9236   */\n    tag_216:\n        /* \"#utility.yul\":9208:9229   */\n      tag_335\n        /* \"#utility.yul\":9223:9228   */\n      dup2\n        /* \"#utility.yul\":9208:9229   */\n      tag_215\n      jump\t// in\n    tag_335:\n        /* \"#utility.yul\":9203:9206   */\n      dup3\n        /* \"#utility.yul\":9196:9230   */\n      mstore\n        /* \"#utility.yul\":9127:9236   */\n      pop\n      pop\n      jump\t// out\n        /* \"#utility.yul\":9242:9452   */\n    tag_59:\n        /* \"#utility.yul\":9329:9333   */\n      0x00\n        /* \"#utility.yul\":9367:9369   */\n      0x20\n        /* \"#utility.yul\":9356:9365   */\n      dup3\n        /* \"#utility.yul\":9352:9370   */\n      add\n        /* \"#utility.yul\":9344:9370   */\n      swap1\n      pop\n        /* \"#utility.yul\":9380:9445   */\n      tag_337\n        /* \"#utility.yul\":9442:9443   */\n      0x00\n        /* \"#utility.yul\":9431:9440   */\n      dup4\n        /* \"#utility.yul\":9427:9444   */\n      add\n        /* \"#utility.yul\":9418:9424   */\n      dup5\n        /* \"#utility.yul\":9380:9445   */\n      tag_216\n      jump\t// in\n    tag_337:\n        /* \"#utility.yul\":9242:9452   */\n      swap3\n      swap2\n      pop\n      pop\n      jump\t// out\n        /* \"#utility.yul\":9458:9638   */\n    tag_74:\n        /* \"#utility.yul\":9506:9583   */\n      0x4e487b7100000000000000000000000000000000000000000000000000000000\n        /* \"#utility.yul\":9503:9504   */\n      0x00\n        /* \"#utility.yul\":9496:9584   */\n      mstore\n        /* \"#utility.yul\":9603:9607   */\n      0x32\n        /* \"#utility.yul\":9600:9601   */\n      0x04\n        /* \"#utility.yul\":9593:9608   */\n      mstore\n        /* \"#utility.yul\":9627:9631   */\n      0x24\n        /* \"#utility.yul\":9624:9625   */\n      0x00\n        /* \"#utility.yul\":9617:9632   */\n      revert\n        /* \"#utility.yul\":9644:9824   */\n    tag_217:\n        /* \"#utility.yul\":9692:9769   */\n      0x4e487b7100000000000000000000000000000000000000000000000000000000\n        /* \"#utility.yul\":9689:9690   */\n      0x00\n        /* \"#utility.yul\":9682:9770   */\n      mstore\n        /* \"#utility.yul\":9789:9793   */\n      0x11\n        /* \"#utility.yul\":9786:9787   */\n      0x04\n        /* \"#utility.yul\":9779:9794   */\n      mstore\n        /* \"#utility.yul\":9813:9817   */\n      0x24\n        /* \"#utility.yul\":9810:9811   */\n      0x00\n        /* \"#utility.yul\":9803:9818   */\n      revert\n        /* \"#utility.yul\":9830:10063   */\n    tag_78:\n        /* \"#utility.yul\":9869:9872   */\n      0x00\n        /* \"#utility.yul\":9892:9916   */\n      tag_341\n        /* \"#utility.yul\":9910:9915   */\n      dup3\n        /* \"#utility.yul\":9892:9916   */\n      tag_194\n      jump\t// in\n    tag_341:\n        /* \"#utility.yul\":9883:9916   */\n      swap2\n      pop\n        /* \"#utility.yul\":9938:10004   */\n      0xffffffffffffffffffffffffffffffffffffffffffffffffffffffffffffffff\n        /* \"#utility.yul\":9931:9936   */\n      dup3\n        /* \"#utility.yul\":9928:10005   */\n      sub\n        /* \"#utility.yul\":9925:10028   */\n      tag_342\n      jumpi\n        /* \"#utility.yul\":10008:10026   */\n      tag_343\n      tag_217\n      jump\t// in\n    tag_343:\n        /* \"#utility.yul\":9925:10028   */\n    tag_342:\n        /* \"#utility.yul\":10055:10056   */\n      0x01\n        /* \"#utility.yul\":10048:10053   */\n      dup3\n        /* \"#utility.yul\":10044:10057   */\n      add\n        /* \"#utility.yul\":10037:10057   */\n      swap1\n      pop\n        /* \"#utility.yul\":9830:10063   */\n      swap2\n      swap1\n      pop\n      jump\t// out\n        /* \"#utility.yul\":10069:10260   */\n    tag_81:\n        /* \"#utility.yul\":10109:10112   */\n      0x00\n        /* \"#utility.yul\":10128:10148   */\n      tag_345\n        /* \"#utility.yul\":10146:10147   */\n      dup3\n        /* \"#utility.yul\":10128:10148   */\n      tag_194\n      jump\t// in\n    tag_345:\n        /* \"#utility.yul\":10123:10148   */\n      swap2\n      pop\n        /* \"#utility.yul\":10162:10182   */\n      tag_346\n        /* \"#utility.yul\":10180:10181   */\n      dup4\n        /* \"#utility.yul\":10162:10182   */\n      tag_194\n      jump\t// in\n    tag_346:\n        /* \"#utility.yul\":10157:10182   */\n      swap3\n      pop\n        /* \"#utility.yul\":10205:10206   */\n      dup3\n        /* \"#utility.yul\":10202:10203   */\n      dup3\n        /* \"#utility.yul\":10198:10207   */\n      add\n        /* \"#utility.yul\":10191:10207   */\n      swap1\n      pop\n        /* \"#utility.yul\":10226:10229   */\n      dup1\n        /* \"#utility.yul\":10223:10224   */\n      dup3\n        /* \"#utility.yul\":10220:10230   */\n      gt\n        /* \"#utility.yul\":10217:10253   */\n      iszero\n      tag_347\n      jumpi\n        /* \"#utility.yul\":10233:10251   */\n      tag_348\n      tag_217\n      jump\t// in\n    tag_348:\n        /* \"#utility.yul\":10217:10253   */\n    tag_347:\n        /* \"#utility.yul\":10069:10260   */\n      swap3\n      swap2\n      pop\n      pop\n      jump\t// out\n        /* \"#utility.yul\":10266:10435   */\n    tag_218:\n        /* \"#utility.yul\":10350:10361   */\n      0x00\n        /* \"#utility.yul\":10384:10390   */\n      dup3\n        /* \"#utility.yul\":10379:10382   */\n      dup3\n        /* \"#utility.yul\":10372:10391   */\n      mstore\n        /* \"#utility.yul\":10424:10428   */\n      0x20\n        /* \"#utility.yul\":10419:10422   */\n      dup3\n        /* \"#utility.yul\":10415:10429   */\n      add\n        /* \"#utility.yul\":10400:10429   */\n      swap1\n      pop\n        /* \"#utility.yul\":10266:10435   */\n      swap3\n      swap2\n      pop\n      pop\n      jump\t// out\n        /* \"#utility.yul\":10441:10598   */\n    tag_219:\n        /* \"#utility.yul\":10581:10590   */\n      0x6572726f72303400000000000000000000000000000000000000000000000000\n        /* \"#utility.yul\":10577:10578   */\n      0x00\n        /* \"#utility.yul\":10569:10575   */\n      dup3\n        /* \"#utility.yul\":10565:10579   */\n      add\n        /* \"#utility.yul\":10558:10591   */\n      mstore\n        /* \"#utility.yul\":10441:10598   */\n      pop\n      jump\t// out\n        /* \"#utility.yul\":10604:10969   */\n    tag_220:\n        /* \"#utility.yul\":10746:10749   */\n      0x00\n        /* \"#utility.yul\":10767:10833   */\n      tag_352\n        /* \"#utility.yul\":10831:10832   */\n      0x07\n        /* \"#utility.yul\":10826:10829   */\n      dup4\n        /* \"#utility.yul\":10767:10833   */\n      tag_218\n      jump\t// in\n    tag_352:\n        /* \"#utility.yul\":10760:10833   */\n      swap2\n      pop\n        /* \"#utility.yul\":10842:10935   */\n      tag_353\n        /* \"#utility.yul\":10931:10934   */\n      dup3\n        /* \"#utility.yul\":10842:10935   */\n      tag_219\n      jump\t// in\n    tag_353:\n        /* \"#utility.yul\":10960:10962   */\n      0x20\n        /* \"#utility.yul\":10955:10958   */\n      dup3\n        /* \"#utility.yul\":10951:10963   */\n      add\n        /* \"#utility.yul\":10944:10963   */\n      swap1\n      pop\n        /* \"#utility.yul\":10604:10969   */\n      swap2\n      swap1\n      pop\n      jump\t// out\n        /* \"#utility.yul\":10975:11394   */\n    tag_89:\n        /* \"#utility.yul\":11141:11145   */\n      0x00\n        /* \"#utility.yul\":11179:11181   */\n      0x20\n        /* \"#utility.yul\":11168:11177   */\n      dup3\n        /* \"#utility.yul\":11164:11182   */\n      add\n        /* \"#utility.yul\":11156:11182   */\n      swap1\n      pop\n        /* \"#utility.yul\":11228:11237   */\n      dup2\n        /* \"#utility.yul\":11222:11226   */\n      dup2\n        /* \"#utility.yul\":11218:11238   */\n      sub\n        /* \"#utility.yul\":11214:11215   */\n      0x00\n        /* \"#utility.yul\":11203:11212   */\n      dup4\n        /* \"#utility.yul\":11199:11216   */\n      add\n        /* \"#utility.yul\":11192:11239   */\n      mstore\n        /* \"#utility.yul\":11256:11387   */\n      tag_355\n        /* \"#utility.yul\":11382:11386   */\n      dup2\n        /* \"#utility.yul\":11256:11387   */\n      tag_220\n      jump\t// in\n    tag_355:\n        /* \"#utility.yul\":11248:11387   */\n      swap1\n      pop\n        /* \"#utility.yul\":10975:11394   */\n      swap2\n      swap1\n      pop\n      jump\t// out\n        /* \"#utility.yul\":11400:11518   */\n    tag_221:\n        /* \"#utility.yul\":11487:11511   */\n      tag_357\n        /* \"#utility.yul\":11505:11510   */\n      dup2\n        /* \"#utility.yul\":11487:11511   */\n      tag_189\n      jump\t// in\n    tag_357:\n        /* \"#utility.yul\":11482:11485   */\n      dup3\n        /* \"#utility.yul\":11475:11512   */\n      mstore\n        /* \"#utility.yul\":11400:11518   */\n      pop\n      pop\n      jump\t// out\n        /* \"#utility.yul\":11524:11856   */\n    tag_95:\n        /* \"#utility.yul\":11645:11649   */\n      0x00\n        /* \"#utility.yul\":11683:11685   */\n      0x40\n        /* \"#utility.yul\":11672:11681   */\n      dup3\n        /* \"#utility.yul\":11668:11686   */\n      add\n        /* \"#utility.yul\":11660:11686   */\n      swap1\n      pop\n        /* \"#utility.yul\":11696:11767   */\n      tag_359\n        /* \"#utility.yul\":11764:11765   */\n      0x00\n        /* \"#utility.yul\":11753:11762   */\n      dup4\n        /* \"#utility.yul\":11749:11766   */\n      add\n        /* \"#utility.yul\":11740:11746   */\n      dup6\n        /* \"#utility.yul\":11696:11767   */\n      tag_221\n      jump\t// in\n    tag_359:\n        /* \"#utility.yul\":11777:11849   */\n      tag_360\n        /* \"#utility.yul\":11845:11847   */\n      0x20\n        /* \"#utility.yul\":11834:11843   */\n      dup4\n        /* \"#utility.yul\":11830:11848   */\n      add\n        /* \"#utility.yul\":11821:11827   */\n      dup5\n        /* \"#utility.yul\":11777:11849   */\n      tag_195\n      jump\t// in\n    tag_360:\n        /* \"#utility.yul\":11524:11856   */\n      swap4\n      swap3\n      pop\n      pop\n      pop\n      jump\t// out\n        /* \"#utility.yul\":11862:12019   */\n    tag_222:\n        /* \"#utility.yul\":12002:12011   */\n      0x6572726f72303200000000000000000000000000000000000000000000000000\n        /* \"#utility.yul\":11998:11999   */\n      0x00\n        /* \"#utility.yul\":11990:11996   */\n      dup3\n        /* \"#utility.yul\":11986:12000   */\n      add\n        /* \"#utility.yul\":11979:12012   */\n      mstore\n        /* \"#utility.yul\":11862:12019   */\n      pop\n      jump\t// out\n        /* \"#utility.yul\":12025:12390   */\n    tag_223:\n        /* \"#utility.yul\":12167:12170   */\n      0x00\n        /* \"#utility.yul\":12188:12254   */\n      tag_363\n        /* \"#utility.yul\":12252:12253   */\n      0x07\n        /* \"#utility.yul\":12247:12250   */\n      dup4\n        /* \"#utility.yul\":12188:12254   */\n      tag_218\n      jump\t// in\n    tag_363:\n        /* \"#utility.yul\":12181:12254   */\n      swap2\n      pop\n        /* \"#utility.yul\":12263:12356   */\n      tag_364\n        /* \"#utility.yul\":12352:12355   */\n      dup3\n        /* \"#utility.yul\":12263:12356   */\n      tag_222\n      jump\t// in\n    tag_364:\n        /* \"#utility.yul\":12381:12383   */\n      0x20\n        /* \"#utility.yul\":12376:12379   */\n      dup3\n        /* \"#utility.yul\":12372:12384   */\n      add\n        /* \"#utility.yul\":12365:12384   */\n      swap1\n      pop\n        /* \"#utility.yul\":12025:12390   */\n      swap2\n      swap1\n      pop\n      jump\t// out\n        /* \"#utility.yul\":12396:12815   */\n    tag_122:\n        /* \"#utility.yul\":12562:12566   */\n      0x00\n        /* \"#utility.yul\":12600:12602   */\n      0x20\n        /* \"#utility.yul\":12589:12598   */\n      dup3\n        /* \"#utility.yul\":12585:12603   */\n      add\n        /* \"#utility.yul\":12577:12603   */\n      swap1\n      pop\n        /* \"#utility.yul\":12649:12658   */\n      dup2\n        /* \"#utility.yul\":12643:12647   */\n      dup2\n        /* \"#utility.yul\":12639:12659   */\n      sub\n        /* \"#utility.yul\":12635:12636   */\n      0x00\n        /* \"#utility.yul\":12624:12633   */\n      dup4\n        /* \"#utility.yul\":12620:12637   */\n      add\n        /* \"#utility.yul\":12613:12660   */\n      mstore\n        /* \"#utility.yul\":12677:12808   */\n      tag_366\n        /* \"#utility.yul\":12803:12807   */\n      dup2\n        /* \"#utility.yul\":12677:12808   */\n      tag_223\n      jump\t// in\n    tag_366:\n        /* \"#utility.yul\":12669:12808   */\n      swap1\n      pop\n        /* \"#utility.yul\":12396:12815   */\n      swap2\n      swap1\n      pop\n      jump\t// out\n        /* \"#utility.yul\":12821:12978   */\n    tag_224:\n        /* \"#utility.yul\":12961:12970   */\n      0x6572726f72303300000000000000000000000000000000000000000000000000\n        /* \"#utility.yul\":12957:12958   */\n      0x00\n        /* \"#utility.yul\":12949:12955   */\n      dup3\n        /* \"#utility.yul\":12945:12959   */\n      add\n        /* \"#utility.yul\":12938:12971   */\n      mstore\n        /* \"#utility.yul\":12821:12978   */\n      pop\n      jump\t// out\n        /* \"#utility.yul\":12984:13349   */\n    tag_225:\n        /* \"#utility.yul\":13126:13129   */\n      0x00\n        /* \"#utility.yul\":13147:13213   */\n      tag_369\n        /* \"#utility.yul\":13211:13212   */\n      0x07\n        /* \"#utility.yul\":13206:13209   */\n      dup4\n        /* \"#utility.yul\":13147:13213   */\n      tag_218\n      jump\t// in\n    tag_369:\n        /* \"#utility.yul\":13140:13213   */\n      swap2\n      pop\n        /* \"#utility.yul\":13222:13315   */\n      tag_370\n        /* \"#utility.yul\":13311:13314   */\n      dup3\n        /* \"#utility.yul\":13222:13315   */\n      tag_224\n      jump\t// in\n    tag_370:\n        /* \"#utility.yul\":13340:13342   */\n      0x20\n        /* \"#utility.yul\":13335:13338   */\n      dup3\n        /* \"#utility.yul\":13331:13343   */\n      add\n        /* \"#utility.yul\":13324:13343   */\n      swap1\n      pop\n        /* \"#utility.yul\":12984:13349   */\n      swap2\n      swap1\n      pop\n      jump\t// out\n        /* \"#utility.yul\":13355:13774   */\n    tag_125:\n        /* \"#utility.yul\":13521:13525   */\n      0x00\n        /* \"#utility.yul\":13559:13561   */\n      0x20\n        /* \"#utility.yul\":13548:13557   */\n      dup3\n        /* \"#utility.yul\":13544:13562   */\n      add\n        /* \"#utility.yul\":13536:13562   */\n      swap1\n      pop\n        /* \"#utility.yul\":13608:13617   */\n      dup2\n        /* \"#utility.yul\":13602:13606   */\n      dup2\n        /* \"#utility.yul\":13598:13618   */\n      sub\n        /* \"#utility.yul\":13594:13595   */\n      0x00\n        /* \"#utility.yul\":13583:13592   */\n      dup4\n        /* \"#utility.yul\":13579:13596   */\n      add\n        /* \"#utility.yul\":13572:13619   */\n      mstore\n        /* \"#utility.yul\":13636:13767   */\n      tag_372\n        /* \"#utility.yul\":13762:13766   */\n      dup2\n        /* \"#utility.yul\":13636:13767   */\n      tag_225\n      jump\t// in\n    tag_372:\n        /* \"#utility.yul\":13628:13767   */\n      swap1\n      pop\n        /* \"#utility.yul\":13355:13774   */\n      swap2\n      swap1\n      pop\n      jump\t// out\n        /* \"#utility.yul\":13780:13937   */\n    tag_226:\n        /* \"#utility.yul\":13920:13929   */\n      0x6572726f72303100000000000000000000000000000000000000000000000000\n        /* \"#utility.yul\":13916:13917   */\n      0x00\n        /* \"#utility.yul\":13908:13914   */\n      dup3\n        /* \"#utility.yul\":13904:13918   */\n      add\n        /* \"#utility.yul\":13897:13930   */\n      mstore\n        /* \"#utility.yul\":13780:13937   */\n      pop\n      jump\t// out\n        /* \"#utility.yul\":13943:14308   */\n    tag_227:\n        /* \"#utility.yul\":14085:14088   */\n      0x00\n        /* \"#utility.yul\":14106:14172   */\n      tag_375\n        /* \"#utility.yul\":14170:14171   */\n      0x07\n        /* \"#utility.yul\":14165:14168   */\n      dup4\n        /* \"#utility.yul\":14106:14172   */\n      tag_218\n      jump\t// in\n    tag_375:\n        /* \"#utility.yul\":14099:14172   */\n      swap2\n      pop\n        /* \"#utility.yul\":14181:14274   */\n      tag_376\n        /* \"#utility.yul\":14270:14273   */\n      dup3\n        /* \"#utility.yul\":14181:14274   */\n      tag_226\n      jump\t// in\n    tag_376:\n        /* \"#utility.yul\":14299:14301   */\n      0x20\n        /* \"#utility.yul\":14294:14297   */\n      dup3\n        /* \"#utility.yul\":14290:14302   */\n      add\n        /* \"#utility.yul\":14283:14302   */\n      swap1\n      pop\n        /* \"#utility.yul\":13943:14308   */\n      swap2\n      swap1\n      pop\n      jump\t// out\n        /* \"#utility.yul\":14314:14733   */\n    tag_131:\n        /* \"#utility.yul\":14480:14484   */\n      0x00\n        /* \"#utility.yul\":14518:14520   */\n      0x20\n        /* \"#utility.yul\":14507:14516   */\n      dup3\n        /* \"#utility.yul\":14503:14521   */\n      add\n        /* \"#utility.yul\":14495:14521   */\n      swap1\n      pop\n        /* \"#utility.yul\":14567:14576   */\n      dup2\n        /* \"#utility.yul\":14561:14565   */\n      dup2\n        /* \"#utility.yul\":14557:14577   */\n      sub\n        /* \"#utility.yul\":14553:14554   */\n      0x00\n        /* \"#utility.yul\":14542:14551   */\n      dup4\n        /* \"#utility.yul\":14538:14555   */\n      add\n        /* \"#utility.yul\":14531:14578   */\n      mstore\n        /* \"#utility.yul\":14595:14726   */\n      tag_378\n        /* \"#utility.yul\":14721:14725   */\n      dup2\n        /* \"#utility.yul\":14595:14726   */\n      tag_227\n      jump\t// in\n    tag_378:\n        /* \"#utility.yul\":14587:14726   */\n      swap1\n      pop\n        /* \"#utility.yul\":14314:14733   */\n      swap2\n      swap1\n      pop\n      jump\t// out\n        /* \"#utility.yul\":14739:14903   */\n    tag_228:\n        /* \"#utility.yul\":14879:14895   */\n      0x4e6f7420617574686f72697a6564000000000000000000000000000000000000\n        /* \"#utility.yul\":14875:14876   */\n      0x00\n        /* \"#utility.yul\":14867:14873   */\n      dup3\n        /* \"#utility.yul\":14863:14877   */\n      add\n        /* \"#utility.yul\":14856:14896   */\n      mstore\n        /* \"#utility.yul\":14739:14903   */\n      pop\n      jump\t// out\n        /* \"#utility.yul\":14909:15275   */\n    tag_229:\n        /* \"#utility.yul\":15051:15054   */\n      0x00\n        /* \"#utility.yul\":15072:15139   */\n      tag_381\n        /* \"#utility.yul\":15136:15138   */\n      0x0e\n        /* \"#utility.yul\":15131:15134   */\n      dup4\n        /* \"#utility.yul\":15072:15139   */\n      tag_218\n      jump\t// in\n    tag_381:\n        /* \"#utility.yul\":15065:15139   */\n      swap2\n      pop\n        /* \"#utility.yul\":15148:15241   */\n      tag_382\n        /* \"#utility.yul\":15237:15240   */\n      dup3\n        /* \"#utility.yul\":15148:15241   */\n      tag_228\n      jump\t// in\n    tag_382:\n        /* \"#utility.yul\":15266:15268   */\n      0x20\n        /* \"#utility.yul\":15261:15264   */\n      dup3\n        /* \"#utility.yul\":15257:15269   */\n      add\n        /* \"#utility.yul\":15250:15269   */\n      swap1\n      pop\n        /* \"#utility.yul\":14909:15275   */\n      swap2\n      swap1\n      pop\n      jump\t// out\n        /* \"#utility.yul\":15281:15700   */\n    tag_151:\n        /* \"#utility.yul\":15447:15451   */\n      0x00\n        /* \"#utility.yul\":15485:15487   */\n      0x20\n        /* \"#utility.yul\":15474:15483   */\n      dup3\n        /* \"#utility.yul\":15470:15488   */\n      add\n        /* \"#utility.yul\":15462:15488   */\n      swap1\n      pop\n        /* \"#utility.yul\":15534:15543   */\n      dup2\n        /* \"#utility.yul\":15528:15532   */\n      dup2\n        /* \"#utility.yul\":15524:15544   */\n      sub\n        /* \"#utility.yul\":15520:15521   */\n      0x00\n        /* \"#utility.yul\":15509:15518   */\n      dup4\n        /* \"#utility.yul\":15505:15522   */\n      add\n        /* \"#utility.yul\":15498:15545   */\n      mstore\n        /* \"#utility.yul\":15562:15693   */\n      tag_384\n        /* \"#utility.yul\":15688:15692   */\n      dup2\n        /* \"#utility.yul\":15562:15693   */\n      tag_229\n      jump\t// in\n    tag_384:\n        /* \"#utility.yul\":15554:15693   */\n      swap1\n      pop\n        /* \"#utility.yul\":15281:15700   */\n      swap2\n      swap1\n      pop\n      jump\t// out\n        /* \"#utility.yul\":15706:15900   */\n    tag_154:\n        /* \"#utility.yul\":15746:15750   */\n      0x00\n        /* \"#utility.yul\":15766:15786   */\n      tag_386\n        /* \"#utility.yul\":15784:15785   */\n      dup3\n        /* \"#utility.yul\":15766:15786   */\n      tag_194\n      jump\t// in\n    tag_386:\n        /* \"#utility.yul\":15761:15786   */\n      swap2\n      pop\n        /* \"#utility.yul\":15800:15820   */\n      tag_387\n        /* \"#utility.yul\":15818:15819   */\n      dup4\n        /* \"#utility.yul\":15800:15820   */\n      tag_194\n      jump\t// in\n    tag_387:\n        /* \"#utility.yul\":15795:15820   */\n      swap3\n      pop\n        /* \"#utility.yul\":15844:15845   */\n      dup3\n        /* \"#utility.yul\":15841:15842   */\n      dup3\n        /* \"#utility.yul\":15837:15846   */\n      sub\n        /* \"#utility.yul\":15829:15846   */\n      swap1\n      pop\n        /* \"#utility.yul\":15868:15869   */\n      dup2\n        /* \"#utility.yul\":15862:15866   */\n      dup2\n        /* \"#utility.yul\":15859:15870   */\n      gt\n        /* \"#utility.yul\":15856:15893   */\n      iszero\n      tag_388\n      jumpi\n        /* \"#utility.yul\":15873:15891   */\n      tag_389\n      tag_217\n      jump\t// in\n    tag_389:\n        /* \"#utility.yul\":15856:15893   */\n    tag_388:\n        /* \"#utility.yul\":15706:15900   */\n      swap3\n      swap2\n      pop\n      pop\n      jump\t// out\n        /* \"#utility.yul\":15906:16063   */\n    tag_230:\n        /* \"#utility.yul\":16046:16055   */\n      0x6572726f72303700000000000000000000000000000000000000000000000000\n        /* \"#utility.yul\":16042:16043   */\n      0x00\n        /* \"#utility.yul\":16034:16040   */\n      dup3\n        /* \"#utility.yul\":16030:16044   */\n      add\n        /* \"#utility.yul\":16023:16056   */\n      mstore\n        /* \"#utility.yul\":15906:16063   */\n      pop\n      jump\t// out\n        /* \"#utility.yul\":16069:16434   */\n    tag_231:\n        /* \"#utility.yul\":16211:16214   */\n      0x00\n        /* \"#utility.yul\":16232:16298   */\n      tag_392\n        /* \"#utility.yul\":16296:16297   */\n      0x07\n        /* \"#utility.yul\":16291:16294   */\n      dup4\n        /* \"#utility.yul\":16232:16298   */\n      tag_218\n      jump\t// in\n    tag_392:\n        /* \"#utility.yul\":16225:16298   */\n      swap2\n      pop\n        /* \"#utility.yul\":16307:16400   */\n      tag_393\n        /* \"#utility.yul\":16396:16399   */\n      dup3\n        /* \"#utility.yul\":16307:16400   */\n      tag_230\n      jump\t// in\n    tag_393:\n        /* \"#utility.yul\":16425:16427   */\n      0x20\n        /* \"#utility.yul\":16420:16423   */\n      dup3\n        /* \"#utility.yul\":16416:16428   */\n      add\n        /* \"#utility.yul\":16409:16428   */\n      swap1\n      pop\n        /* \"#utility.yul\":16069:16434   */\n      swap2\n      swap1\n      pop\n      jump\t// out\n        /* \"#utility.yul\":16440:16859   */\n    tag_160:\n        /* \"#utility.yul\":16606:16610   */\n      0x00\n        /* \"#utility.yul\":16644:16646   */\n      0x20\n        /* \"#utility.yul\":16633:16642   */\n      dup3\n        /* \"#utility.yul\":16629:16647   */\n      add\n        /* \"#utility.yul\":16621:16647   */\n      swap1\n      pop\n        /* \"#utility.yul\":16693:16702   */\n      dup2\n        /* \"#utility.yul\":16687:16691   */\n      dup2\n        /* \"#utility.yul\":16683:16703   */\n      sub\n        /* \"#utility.yul\":16679:16680   */\n      0x00\n        /* \"#utility.yul\":16668:16677   */\n      dup4\n        /* \"#utility.yul\":16664:16681   */\n      add\n        /* \"#utility.yul\":16657:16704   */\n      mstore\n        /* \"#utility.yul\":16721:16852   */\n      tag_395\n        /* \"#utility.yul\":16847:16851   */\n      dup2\n        /* \"#utility.yul\":16721:16852   */\n      tag_231\n      jump\t// in\n    tag_395:\n        /* \"#utility.yul\":16713:16852   */\n      swap1\n      pop\n        /* \"#utility.yul\":16440:16859   */\n      swap2\n      swap1\n      pop\n      jump\t// out\n        /* \"#utility.yul\":16865:17036   */\n    tag_183:\n        /* \"#utility.yul\":16904:16907   */\n      0x00\n        /* \"#utility.yul\":16927:16951   */\n      tag_397\n        /* \"#utility.yul\":16945:16950   */\n      dup3\n        /* \"#utility.yul\":16927:16951   */\n      tag_194\n      jump\t// in\n    tag_397:\n        /* \"#utility.yul\":16918:16951   */\n      swap2\n      pop\n        /* \"#utility.yul\":16973:16977   */\n      0x00\n        /* \"#utility.yul\":16966:16971   */\n      dup3\n        /* \"#utility.yul\":16963:16978   */\n      sub\n        /* \"#utility.yul\":16960:17001   */\n      tag_398\n      jumpi\n        /* \"#utility.yul\":16981:16999   */\n      tag_399\n      tag_217\n      jump\t// in\n    tag_399:\n        /* \"#utility.yul\":16960:17001   */\n    tag_398:\n        /* \"#utility.yul\":17028:17029   */\n      0x01\n        /* \"#utility.yul\":17021:17026   */\n      dup3\n        /* \"#utility.yul\":17017:17030   */\n      sub\n        /* \"#utility.yul\":17010:17030   */\n      swap1\n      pop\n        /* \"#utility.yul\":16865:17036   */\n      swap2\n      swap1\n      pop\n      jump\t// out\n\n    auxdata: 0xa2646970667358221220506ebef7c74ea39fe378c2cb8309c9c4d6f33ba52d2f85cab1cc208278517e8464736f6c63430008120033\n}\n",
				"bytecode": {
					"linkReferences": {},
					"object": "608060405234801561001057600080fd5b50611c56806100206000396000f3fe608060405234801561001057600080fd5b50600436106100b45760003560e01c8063694e80c311610071578063694e80c31461018d57806381244e5d146101a9578063a0e1ace8146101c7578063c0f0b3f1146101e3578063ef11783c146101ff578063ff87578c1461022f576100b4565b8063029c81e3146100b95780630c3dfc1a146100d75780630c546204146100f557806354910298146101115780635ce7fa2d146101415780636876a95e1461015d575b600080fd5b6100c161025f565b6040516100ce9190611430565b60405180910390f35b6100df6103b2565b6040516100ec919061146b565b60405180910390f35b61010f600480360381019061010a91906114f2565b6103b8565b005b61012b600480360381019061012691906114f2565b6104fd565b60405161013891906115c2565b60405180910390f35b61015b600480360381019061015691906115e4565b610598565b005b61017760048036038101906101729190611611565b6107e0565b60405161018491906115c2565b60405180910390f35b6101a760048036038101906101a29190611611565b610878565b005b6101b1610944565b6040516101be919061146b565b60405180910390f35b6101e160048036038101906101dc9190611786565b61094e565b005b6101fd60048036038101906101f891906114f2565b610b3b565b005b610219600480360381019061021491906115e4565b610ca5565b60405161022691906117fd565b60405180910390f35b610249600480360381019061024491906114f2565b610dff565b60405161025691906115c2565b60405180910390f35b60606000805467ffffffffffffffff81111561027e5761027d611643565b5b6040519080825280602002602001820160405280156102ac5781602001602082028036833780820191505090505b509050600060026000600173ffffffffffffffffffffffffffffffffffffffff1673ffffffffffffffffffffffffffffffffffffffff1681526020019081526020016000206000600115151515815260200190815260200160002060009054906101000a900473ffffffffffffffffffffffffffffffffffffffff16905060005b6000548110156103a9578183828151811061034b5761034a611818565b5b602002602001019073ffffffffffffffffffffffffffffffffffffffff16908173ffffffffffffffffffffffffffffffffffffffff1681525050610390826001610e9a565b90508092505080806103a190611876565b91505061032d565b82935050505090565b60005481565b8060016000546103c891906118be565b101580156103d7575060008110155b6103e057600080fd5b600073ffffffffffffffffffffffffffffffffffffffff168273ffffffffffffffffffffffffffffffffffffffff161415801561044957503073ffffffffffffffffffffffffffffffffffffffff168273ffffffffffffffffffffffffffffffffffffffff1614155b801561045b575061045982610ca5565b155b61049a576040517f08c379a00000000000000000000000000000000000000000000000000000000081526004016104919061194f565b60405180910390fd5b6104a382610598565b8173ffffffffffffffffffffffffffffffffffffffff167fac1e9ef41b54c676ccf449d83ae6f2624bcdce8f5b93a6b48ce95874c332693d60405160405180910390a260015481146104f9576104f881610878565b5b5050565b60607f5cb963ae197a87311b65f828de4c1673c22d6ac1a28aa681cfeb35b1ff025d7a838360405160240161053392919061197e565b604051602081830303815290604052907bffffffffffffffffffffffffffffffffffffffffffffffffffffffff19166020820180517bffffffffffffffffffffffffffffffffffffffffffffffffffffffff8381831617835250505050905092915050565b600073ffffffffffffffffffffffffffffffffffffffff168173ffffffffffffffffffffffffffffffffffffffff161415801561060157503073ffffffffffffffffffffffffffffffffffffffff168173ffffffffffffffffffffffffffffffffffffffff1614155b8015610613575061061181610ca5565b155b610652576040517f08c379a00000000000000000000000000000000000000000000000000000000081526004016106499061194f565b60405180910390fd5b6000600190506000610665826001610e9a565b9050809150505b600073ffffffffffffffffffffffffffffffffffffffff168173ffffffffffffffffffffffffffffffffffffffff1614610783578273ffffffffffffffffffffffffffffffffffffffff168173ffffffffffffffffffffffffffffffffffffffff1611801561070657508273ffffffffffffffffffffffffffffffffffffffff168273ffffffffffffffffffffffffffffffffffffffff16105b1561071c5761071782846001610f39565b610783565b8273ffffffffffffffffffffffffffffffffffffffff168173ffffffffffffffffffffffffffffffffffffffff1611156107695781905061075e826000610e9a565b90508092505061077e565b809150610777816001610e9a565b9050809150505b61066c565b600073ffffffffffffffffffffffffffffffffffffffff168173ffffffffffffffffffffffffffffffffffffffff16036107c4576107c382846001610f39565b5b6000808154809291906107d690611876565b9190505550505050565b60607f694e80c37192d74d6099f3d3b41506932ab644a24442ee51857cfeb9eb01ac2f82604051602401610814919061146b565b604051602081830303815290604052907bffffffffffffffffffffffffffffffffffffffffffffffffffffffff19166020820180517bffffffffffffffffffffffffffffffffffffffffffffffffffffffff83818316178352505050509050919050565b6000548111156108bd576040517f08c379a00000000000000000000000000000000000000000000000000000000081526004016108b4906119f3565b60405180910390fd5b6001811015610901576040517f08c379a00000000000000000000000000000000000000000000000000000000081526004016108f890611a5f565b60405180910390fd5b806001819055507f9947ac58e204d2da07b9748298663b3b77da7fb0638201d778987ded7c90fbaa600154604051610939919061146b565b60405180910390a150565b6000600154905090565b600060015414610993576040517f08c379a000000000000000000000000000000000000000000000000000000000815260040161098a90611acb565b60405180910390fd5b81518111156109d7576040517f08c379a00000000000000000000000000000000000000000000000000000000081526004016109ce906119f3565b60405180910390fd5b6001811015610a1b576040517f08c379a0000000000000000000000000000000000000000000000000000000008152600401610a1290611a5f565b60405180910390fd5b60006001905060005b8351811015610b26576000848281518110610a4257610a41611818565b5b60200260200101519050600073ffffffffffffffffffffffffffffffffffffffff168173ffffffffffffffffffffffffffffffffffffffff1614158015610ab557503073ffffffffffffffffffffffffffffffffffffffff168173ffffffffffffffffffffffffffffffffffffffff1614155b8015610ac75750610ac581610ca5565b155b610b06576040517f08c379a0000000000000000000000000000000000000000000000000000000008152600401610afd9061194f565b60405180910390fd5b610b0f81610598565b809250508080610b1e90611876565b915050610a24565b50816001819055508251600081905550505050565b3073ffffffffffffffffffffffffffffffffffffffff163373ffffffffffffffffffffffffffffffffffffffff1614610ba9576040517f08c379a0000000000000000000000000000000000000000000000000000000008152600401610ba090611b37565b60405180910390fd5b806001600054610bb99190611b57565b1015610bfa576040517f08c379a0000000000000000000000000000000000000000000000000000000008152600401610bf1906119f3565b60405180910390fd5b610c0382610ca5565b610c42576040517f08c379a0000000000000000000000000000000000000000000000000000000008152600401610c3990611bd7565b60405180910390fd5b610c4b82610fce565b8173ffffffffffffffffffffffffffffffffffffffff167fac6e8398676cf37429d530b81144d7079e99f4fe9d28b0d88c4a749ceccbe8cd60405160405180910390a26001548114610ca157610ca081610878565b5b5050565b60008073ffffffffffffffffffffffffffffffffffffffff16600260008473ffffffffffffffffffffffffffffffffffffffff1673ffffffffffffffffffffffffffffffffffffffff16815260200190815260200160002060008015151515815260200190815260200160002060009054906101000a900473ffffffffffffffffffffffffffffffffffffffff1673ffffffffffffffffffffffffffffffffffffffff16141580610df85750600073ffffffffffffffffffffffffffffffffffffffff16600260008473ffffffffffffffffffffffffffffffffffffffff1673ffffffffffffffffffffffffffffffffffffffff1681526020019081526020016000206000600115151515815260200190815260200160002060009054906101000a900473ffffffffffffffffffffffffffffffffffffffff1673ffffffffffffffffffffffffffffffffffffffff1614155b9050919050565b60607f0c54620469a3eeff8e01e9971bcf46e640abbf3fa3139aa3afa97959f3d744998383604051602401610e3592919061197e565b604051602081830303815290604052907bffffffffffffffffffffffffffffffffffffffffffffffffffffffff19166020820180517bffffffffffffffffffffffffffffffffffffffffffffffffffffffff8381831617835250505050905092915050565b600080610ea684610ca5565b610eb65760008091509150610f32565b6001600260008673ffffffffffffffffffffffffffffffffffffffff1673ffffffffffffffffffffffffffffffffffffffff16815260200190815260200160002060008515151515815260200190815260200160002060009054906101000a900473ffffffffffffffffffffffffffffffffffffffff16915091505b9250929050565b6000600260008573ffffffffffffffffffffffffffffffffffffffff1673ffffffffffffffffffffffffffffffffffffffff16815260200190815260200160002060008315151515815260200190815260200160002060009054906101000a900473ffffffffffffffffffffffffffffffffffffffff169050610fbd848484611214565b610fc8838284611214565b50505050565b610fd781610ca5565b611016576040517f08c379a000000000000000000000000000000000000000000000000000000000815260040161100d90611bd7565b60405180910390fd5b61110b600260008373ffffffffffffffffffffffffffffffffffffffff1673ffffffffffffffffffffffffffffffffffffffff16815260200190815260200160002060008015151515815260200190815260200160002060009054906101000a900473ffffffffffffffffffffffffffffffffffffffff16600260008473ffffffffffffffffffffffffffffffffffffffff1673ffffffffffffffffffffffffffffffffffffffff1681526020019081526020016000206000600115151515815260200190815260200160002060009054906101000a900473ffffffffffffffffffffffffffffffffffffffff166001611214565b600260008273ffffffffffffffffffffffffffffffffffffffff1673ffffffffffffffffffffffffffffffffffffffff16815260200190815260200160002060008015151515815260200190815260200160002060006101000a81549073ffffffffffffffffffffffffffffffffffffffff0219169055600260008273ffffffffffffffffffffffffffffffffffffffff1673ffffffffffffffffffffffffffffffffffffffff1681526020019081526020016000206000600115151515815260200190815260200160002060006101000a81549073ffffffffffffffffffffffffffffffffffffffff021916905560008081548092919061120c90611bf7565b919050555050565b82600260008473ffffffffffffffffffffffffffffffffffffffff1673ffffffffffffffffffffffffffffffffffffffff1681526020019081526020016000206000831515151515815260200190815260200160002060006101000a81548173ffffffffffffffffffffffffffffffffffffffff021916908373ffffffffffffffffffffffffffffffffffffffff16021790555081600260008573ffffffffffffffffffffffffffffffffffffffff1673ffffffffffffffffffffffffffffffffffffffff16815260200190815260200160002060008315151515815260200190815260200160002060006101000a81548173ffffffffffffffffffffffffffffffffffffffff021916908373ffffffffffffffffffffffffffffffffffffffff160217905550505050565b600081519050919050565b600082825260208201905092915050565b6000819050602082019050919050565b600073ffffffffffffffffffffffffffffffffffffffff82169050919050565b60006113978261136c565b9050919050565b6113a78161138c565b82525050565b60006113b9838361139e565b60208301905092915050565b6000602082019050919050565b60006113dd82611340565b6113e7818561134b565b93506113f28361135c565b8060005b8381101561142357815161140a88826113ad565b9750611415836113c5565b9250506001810190506113f6565b5085935050505092915050565b6000602082019050818103600083015261144a81846113d2565b905092915050565b6000819050919050565b61146581611452565b82525050565b6000602082019050611480600083018461145c565b92915050565b6000604051905090565b600080fd5b600080fd5b6114a38161138c565b81146114ae57600080fd5b50565b6000813590506114c08161149a565b92915050565b6114cf81611452565b81146114da57600080fd5b50565b6000813590506114ec816114c6565b92915050565b6000806040838503121561150957611508611490565b5b6000611517858286016114b1565b9250506020611528858286016114dd565b9150509250929050565b600081519050919050565b600082825260208201905092915050565b60005b8381101561156c578082015181840152602081019050611551565b60008484015250505050565b6000601f19601f8301169050919050565b600061159482611532565b61159e818561153d565b93506115ae81856020860161154e565b6115b781611578565b840191505092915050565b600060208201905081810360008301526115dc8184611589565b905092915050565b6000602082840312156115fa576115f9611490565b5b6000611608848285016114b1565b91505092915050565b60006020828403121561162757611626611490565b5b6000611635848285016114dd565b91505092915050565b600080fd5b7f4e487b7100000000000000000000000000000000000000000000000000000000600052604160045260246000fd5b61167b82611578565b810181811067ffffffffffffffff8211171561169a57611699611643565b5b80604052505050565b60006116ad611486565b90506116b98282611672565b919050565b600067ffffffffffffffff8211156116d9576116d8611643565b5b602082029050602081019050919050565b600080fd5b60006117026116fd846116be565b6116a3565b90508083825260208201905060208402830185811115611725576117246116ea565b5b835b8181101561174e578061173a88826114b1565b845260208401935050602081019050611727565b5050509392505050565b600082601f83011261176d5761176c61163e565b5b813561177d8482602086016116ef565b91505092915050565b6000806040838503121561179d5761179c611490565b5b600083013567ffffffffffffffff8111156117bb576117ba611495565b5b6117c785828601611758565b92505060206117d8858286016114dd565b9150509250929050565b60008115159050919050565b6117f7816117e2565b82525050565b600060208201905061181260008301846117ee565b92915050565b7f4e487b7100000000000000000000000000000000000000000000000000000000600052603260045260246000fd5b7f4e487b7100000000000000000000000000000000000000000000000000000000600052601160045260246000fd5b600061188182611452565b91507fffffffffffffffffffffffffffffffffffffffffffffffffffffffffffffffff82036118b3576118b2611847565b5b600182019050919050565b60006118c982611452565b91506118d483611452565b92508282019050808211156118ec576118eb611847565b5b92915050565b600082825260208201905092915050565b7f6572726f72303400000000000000000000000000000000000000000000000000600082015250565b60006119396007836118f2565b915061194482611903565b602082019050919050565b600060208201905081810360008301526119688161192c565b9050919050565b6119788161138c565b82525050565b6000604082019050611993600083018561196f565b6119a0602083018461145c565b9392505050565b7f6572726f72303200000000000000000000000000000000000000000000000000600082015250565b60006119dd6007836118f2565b91506119e8826119a7565b602082019050919050565b60006020820190508181036000830152611a0c816119d0565b9050919050565b7f6572726f72303300000000000000000000000000000000000000000000000000600082015250565b6000611a496007836118f2565b9150611a5482611a13565b602082019050919050565b60006020820190508181036000830152611a7881611a3c565b9050919050565b7f6572726f72303100000000000000000000000000000000000000000000000000600082015250565b6000611ab56007836118f2565b9150611ac082611a7f565b602082019050919050565b60006020820190508181036000830152611ae481611aa8565b9050919050565b7f4e6f7420617574686f72697a6564000000000000000000000000000000000000600082015250565b6000611b21600e836118f2565b9150611b2c82611aeb565b602082019050919050565b60006020820190508181036000830152611b5081611b14565b9050919050565b6000611b6282611452565b9150611b6d83611452565b9250828203905081811115611b8557611b84611847565b5b92915050565b7f6572726f72303700000000000000000000000000000000000000000000000000600082015250565b6000611bc16007836118f2565b9150611bcc82611b8b565b602082019050919050565b60006020820190508181036000830152611bf081611bb4565b9050919050565b6000611c0282611452565b915060008203611c1557611c14611847565b5b60018203905091905056fea2646970667358221220506ebef7c74ea39fe378c2cb8309c9c4d6f33ba52d2f85cab1cc208278517e8464736f6c63430008120033",
					"opcodes": "PUSH1 0x80 PUSH1 0x40 MSTORE CALLVALUE DUP1 ISZERO PUSH2 0x10 JUMPI PUSH1 0x0 DUP1 REVERT JUMPDEST POP PUSH2 0x1C56 DUP1 PUSH2 0x20 PUSH1 0x0 CODECOPY PUSH1 0x0 RETURN INVALID PUSH1 0x80 PUSH1 0x40 MSTORE CALLVALUE DUP1 ISZERO PUSH2 0x10 JUMPI PUSH1 0x0 DUP1 REVERT JUMPDEST POP PUSH1 0x4 CALLDATASIZE LT PUSH2 0xB4 JUMPI PUSH1 0x0 CALLDATALOAD PUSH1 0xE0 SHR DUP1 PUSH4 0x694E80C3 GT PUSH2 0x71 JUMPI DUP1 PUSH4 0x694E80C3 EQ PUSH2 0x18D JUMPI DUP1 PUSH4 0x81244E5D EQ PUSH2 0x1A9 JUMPI DUP1 PUSH4 0xA0E1ACE8 EQ PUSH2 0x1C7 JUMPI DUP1 PUSH4 0xC0F0B3F1 EQ PUSH2 0x1E3 JUMPI DUP1 PUSH4 0xEF11783C EQ PUSH2 0x1FF JUMPI DUP1 PUSH4 0xFF87578C EQ PUSH2 0x22F JUMPI PUSH2 0xB4 JUMP JUMPDEST DUP1 PUSH4 0x29C81E3 EQ PUSH2 0xB9 JUMPI DUP1 PUSH4 0xC3DFC1A EQ PUSH2 0xD7 JUMPI DUP1 PUSH4 0xC546204 EQ PUSH2 0xF5 JUMPI DUP1 PUSH4 0x54910298 EQ PUSH2 0x111 JUMPI DUP1 PUSH4 0x5CE7FA2D EQ PUSH2 0x141 JUMPI DUP1 PUSH4 0x6876A95E EQ PUSH2 0x15D JUMPI JUMPDEST PUSH1 0x0 DUP1 REVERT JUMPDEST PUSH2 0xC1 PUSH2 0x25F JUMP JUMPDEST PUSH1 0x40 MLOAD PUSH2 0xCE SWAP2 SWAP1 PUSH2 0x1430 JUMP JUMPDEST PUSH1 0x40 MLOAD DUP1 SWAP2 SUB SWAP1 RETURN JUMPDEST PUSH2 0xDF PUSH2 0x3B2 JUMP JUMPDEST PUSH1 0x40 MLOAD PUSH2 0xEC SWAP2 SWAP1 PUSH2 0x146B JUMP JUMPDEST PUSH1 0x40 MLOAD DUP1 SWAP2 SUB SWAP1 RETURN JUMPDEST PUSH2 0x10F PUSH1 0x4 DUP1 CALLDATASIZE SUB DUP2 ADD SWAP1 PUSH2 0x10A SWAP2 SWAP1 PUSH2 0x14F2 JUMP JUMPDEST PUSH2 0x3B8 JUMP JUMPDEST STOP JUMPDEST PUSH2 0x12B PUSH1 0x4 DUP1 CALLDATASIZE SUB DUP2 ADD SWAP1 PUSH2 0x126 SWAP2 SWAP1 PUSH2 0x14F2 JUMP JUMPDEST PUSH2 0x4FD JUMP JUMPDEST PUSH1 0x40 MLOAD PUSH2 0x138 SWAP2 SWAP1 PUSH2 0x15C2 JUMP JUMPDEST PUSH1 0x40 MLOAD DUP1 SWAP2 SUB SWAP1 RETURN JUMPDEST PUSH2 0x15B PUSH1 0x4 DUP1 CALLDATASIZE SUB DUP2 ADD SWAP1 PUSH2 0x156 SWAP2 SWAP1 PUSH2 0x15E4 JUMP JUMPDEST PUSH2 0x598 JUMP JUMPDEST STOP JUMPDEST PUSH2 0x177 PUSH1 0x4 DUP1 CALLDATASIZE SUB DUP2 ADD SWAP1 PUSH2 0x172 SWAP2 SWAP1 PUSH2 0x1611 JUMP JUMPDEST PUSH2 0x7E0 JUMP JUMPDEST PUSH1 0x40 MLOAD PUSH2 0x184 SWAP2 SWAP1 PUSH2 0x15C2 JUMP JUMPDEST PUSH1 0x40 MLOAD DUP1 SWAP2 SUB SWAP1 RETURN JUMPDEST PUSH2 0x1A7 PUSH1 0x4 DUP1 CALLDATASIZE SUB DUP2 ADD SWAP1 PUSH2 0x1A2 SWAP2 SWAP1 PUSH2 0x1611 JUMP JUMPDEST PUSH2 0x878 JUMP JUMPDEST STOP JUMPDEST PUSH2 0x1B1 PUSH2 0x944 JUMP JUMPDEST PUSH1 0x40 MLOAD PUSH2 0x1BE SWAP2 SWAP1 PUSH2 0x146B JUMP JUMPDEST PUSH1 0x40 MLOAD DUP1 SWAP2 SUB SWAP1 RETURN JUMPDEST PUSH2 0x1E1 PUSH1 0x4 DUP1 CALLDATASIZE SUB DUP2 ADD SWAP1 PUSH2 0x1DC SWAP2 SWAP1 PUSH2 0x1786 JUMP JUMPDEST PUSH2 0x94E JUMP JUMPDEST STOP JUMPDEST PUSH2 0x1FD PUSH1 0x4 DUP1 CALLDATASIZE SUB DUP2 ADD SWAP1 PUSH2 0x1F8 SWAP2 SWAP1 PUSH2 0x14F2 JUMP JUMPDEST PUSH2 0xB3B JUMP JUMPDEST STOP JUMPDEST PUSH2 0x219 PUSH1 0x4 DUP1 CALLDATASIZE SUB DUP2 ADD SWAP1 PUSH2 0x214 SWAP2 SWAP1 PUSH2 0x15E4 JUMP JUMPDEST PUSH2 0xCA5 JUMP JUMPDEST PUSH1 0x40 MLOAD PUSH2 0x226 SWAP2 SWAP1 PUSH2 0x17FD JUMP JUMPDEST PUSH1 0x40 MLOAD DUP1 SWAP2 SUB SWAP1 RETURN JUMPDEST PUSH2 0x249 PUSH1 0x4 DUP1 CALLDATASIZE SUB DUP2 ADD SWAP1 PUSH2 0x244 SWAP2 SWAP1 PUSH2 0x14F2 JUMP JUMPDEST PUSH2 0xDFF JUMP JUMPDEST PUSH1 0x40 MLOAD PUSH2 0x256 SWAP2 SWAP1 PUSH2 0x15C2 JUMP JUMPDEST PUSH1 0x40 MLOAD DUP1 SWAP2 SUB SWAP1 RETURN JUMPDEST PUSH1 0x60 PUSH1 0x0 DUP1 SLOAD PUSH8 0xFFFFFFFFFFFFFFFF DUP2 GT ISZERO PUSH2 0x27E JUMPI PUSH2 0x27D PUSH2 0x1643 JUMP JUMPDEST JUMPDEST PUSH1 0x40 MLOAD SWAP1 DUP1 DUP3 MSTORE DUP1 PUSH1 0x20 MUL PUSH1 0x20 ADD DUP3 ADD PUSH1 0x40 MSTORE DUP1 ISZERO PUSH2 0x2AC JUMPI DUP2 PUSH1 0x20 ADD PUSH1 0x20 DUP3 MUL DUP1 CALLDATASIZE DUP4 CALLDATACOPY DUP1 DUP3 ADD SWAP2 POP POP SWAP1 POP JUMPDEST POP SWAP1 POP PUSH1 0x0 PUSH1 0x2 PUSH1 0x0 PUSH1 0x1 PUSH20 0xFFFFFFFFFFFFFFFFFFFFFFFFFFFFFFFFFFFFFFFF AND PUSH20 0xFFFFFFFFFFFFFFFFFFFFFFFFFFFFFFFFFFFFFFFF AND DUP2 MSTORE PUSH1 0x20 ADD SWAP1 DUP2 MSTORE PUSH1 0x20 ADD PUSH1 0x0 KECCAK256 PUSH1 0x0 PUSH1 0x1 ISZERO ISZERO ISZERO ISZERO DUP2 MSTORE PUSH1 0x20 ADD SWAP1 DUP2 MSTORE PUSH1 0x20 ADD PUSH1 0x0 KECCAK256 PUSH1 0x0 SWAP1 SLOAD SWAP1 PUSH2 0x100 EXP SWAP1 DIV PUSH20 0xFFFFFFFFFFFFFFFFFFFFFFFFFFFFFFFFFFFFFFFF AND SWAP1 POP PUSH1 0x0 JUMPDEST PUSH1 0x0 SLOAD DUP2 LT ISZERO PUSH2 0x3A9 JUMPI DUP2 DUP4 DUP3 DUP2 MLOAD DUP2 LT PUSH2 0x34B JUMPI PUSH2 0x34A PUSH2 0x1818 JUMP JUMPDEST JUMPDEST PUSH1 0x20 MUL PUSH1 0x20 ADD ADD SWAP1 PUSH20 0xFFFFFFFFFFFFFFFFFFFFFFFFFFFFFFFFFFFFFFFF AND SWAP1 DUP2 PUSH20 0xFFFFFFFFFFFFFFFFFFFFFFFFFFFFFFFFFFFFFFFF AND DUP2 MSTORE POP POP PUSH2 0x390 DUP3 PUSH1 0x1 PUSH2 0xE9A JUMP JUMPDEST SWAP1 POP DUP1 SWAP3 POP POP DUP1 DUP1 PUSH2 0x3A1 SWAP1 PUSH2 0x1876 JUMP JUMPDEST SWAP2 POP POP PUSH2 0x32D JUMP JUMPDEST DUP3 SWAP4 POP POP POP POP SWAP1 JUMP JUMPDEST PUSH1 0x0 SLOAD DUP2 JUMP JUMPDEST DUP1 PUSH1 0x1 PUSH1 0x0 SLOAD PUSH2 0x3C8 SWAP2 SWAP1 PUSH2 0x18BE JUMP JUMPDEST LT ISZERO DUP1 ISZERO PUSH2 0x3D7 JUMPI POP PUSH1 0x0 DUP2 LT ISZERO JUMPDEST PUSH2 0x3E0 JUMPI PUSH1 0x0 DUP1 REVERT JUMPDEST PUSH1 0x0 PUSH20 0xFFFFFFFFFFFFFFFFFFFFFFFFFFFFFFFFFFFFFFFF AND DUP3 PUSH20 0xFFFFFFFFFFFFFFFFFFFFFFFFFFFFFFFFFFFFFFFF AND EQ ISZERO DUP1 ISZERO PUSH2 0x449 JUMPI POP ADDRESS PUSH20 0xFFFFFFFFFFFFFFFFFFFFFFFFFFFFFFFFFFFFFFFF AND DUP3 PUSH20 0xFFFFFFFFFFFFFFFFFFFFFFFFFFFFFFFFFFFFFFFF AND EQ ISZERO JUMPDEST DUP1 ISZERO PUSH2 0x45B JUMPI POP PUSH2 0x459 DUP3 PUSH2 0xCA5 JUMP JUMPDEST ISZERO JUMPDEST PUSH2 0x49A JUMPI PUSH1 0x40 MLOAD PUSH32 0x8C379A000000000000000000000000000000000000000000000000000000000 DUP2 MSTORE PUSH1 0x4 ADD PUSH2 0x491 SWAP1 PUSH2 0x194F JUMP JUMPDEST PUSH1 0x40 MLOAD DUP1 SWAP2 SUB SWAP1 REVERT JUMPDEST PUSH2 0x4A3 DUP3 PUSH2 0x598 JUMP JUMPDEST DUP2 PUSH20 0xFFFFFFFFFFFFFFFFFFFFFFFFFFFFFFFFFFFFFFFF AND PUSH32 0xAC1E9EF41B54C676CCF449D83AE6F2624BCDCE8F5B93A6B48CE95874C332693D PUSH1 0x40 MLOAD PUSH1 0x40 MLOAD DUP1 SWAP2 SUB SWAP1 LOG2 PUSH1 0x1 SLOAD DUP2 EQ PUSH2 0x4F9 JUMPI PUSH2 0x4F8 DUP2 PUSH2 0x878 JUMP JUMPDEST JUMPDEST POP POP JUMP JUMPDEST PUSH1 0x60 PUSH32 0x5CB963AE197A87311B65F828DE4C1673C22D6AC1A28AA681CFEB35B1FF025D7A DUP4 DUP4 PUSH1 0x40 MLOAD PUSH1 0x24 ADD PUSH2 0x533 SWAP3 SWAP2 SWAP1 PUSH2 0x197E JUMP JUMPDEST PUSH1 0x40 MLOAD PUSH1 0x20 DUP2 DUP4 SUB SUB DUP2 MSTORE SWAP1 PUSH1 0x40 MSTORE SWAP1 PUSH28 0xFFFFFFFFFFFFFFFFFFFFFFFFFFFFFFFFFFFFFFFFFFFFFFFFFFFFFFFF NOT AND PUSH1 0x20 DUP3 ADD DUP1 MLOAD PUSH28 0xFFFFFFFFFFFFFFFFFFFFFFFFFFFFFFFFFFFFFFFFFFFFFFFFFFFFFFFF DUP4 DUP2 DUP4 AND OR DUP4 MSTORE POP POP POP POP SWAP1 POP SWAP3 SWAP2 POP POP JUMP JUMPDEST PUSH1 0x0 PUSH20 0xFFFFFFFFFFFFFFFFFFFFFFFFFFFFFFFFFFFFFFFF AND DUP2 PUSH20 0xFFFFFFFFFFFFFFFFFFFFFFFFFFFFFFFFFFFFFFFF AND EQ ISZERO DUP1 ISZERO PUSH2 0x601 JUMPI POP ADDRESS PUSH20 0xFFFFFFFFFFFFFFFFFFFFFFFFFFFFFFFFFFFFFFFF AND DUP2 PUSH20 0xFFFFFFFFFFFFFFFFFFFFFFFFFFFFFFFFFFFFFFFF AND EQ ISZERO JUMPDEST DUP1 ISZERO PUSH2 0x613 JUMPI POP PUSH2 0x611 DUP2 PUSH2 0xCA5 JUMP JUMPDEST ISZERO JUMPDEST PUSH2 0x652 JUMPI PUSH1 0x40 MLOAD PUSH32 0x8C379A000000000000000000000000000000000000000000000000000000000 DUP2 MSTORE PUSH1 0x4 ADD PUSH2 0x649 SWAP1 PUSH2 0x194F JUMP JUMPDEST PUSH1 0x40 MLOAD DUP1 SWAP2 SUB SWAP1 REVERT JUMPDEST PUSH1 0x0 PUSH1 0x1 SWAP1 POP PUSH1 0x0 PUSH2 0x665 DUP3 PUSH1 0x1 PUSH2 0xE9A JUMP JUMPDEST SWAP1 POP DUP1 SWAP2 POP POP JUMPDEST PUSH1 0x0 PUSH20 0xFFFFFFFFFFFFFFFFFFFFFFFFFFFFFFFFFFFFFFFF AND DUP2 PUSH20 0xFFFFFFFFFFFFFFFFFFFFFFFFFFFFFFFFFFFFFFFF AND EQ PUSH2 0x783 JUMPI DUP3 PUSH20 0xFFFFFFFFFFFFFFFFFFFFFFFFFFFFFFFFFFFFFFFF AND DUP2 PUSH20 0xFFFFFFFFFFFFFFFFFFFFFFFFFFFFFFFFFFFFFFFF AND GT DUP1 ISZERO PUSH2 0x706 JUMPI POP DUP3 PUSH20 0xFFFFFFFFFFFFFFFFFFFFFFFFFFFFFFFFFFFFFFFF AND DUP3 PUSH20 0xFFFFFFFFFFFFFFFFFFFFFFFFFFFFFFFFFFFFFFFF AND LT JUMPDEST ISZERO PUSH2 0x71C JUMPI PUSH2 0x717 DUP3 DUP5 PUSH1 0x1 PUSH2 0xF39 JUMP JUMPDEST PUSH2 0x783 JUMP JUMPDEST DUP3 PUSH20 0xFFFFFFFFFFFFFFFFFFFFFFFFFFFFFFFFFFFFFFFF AND DUP2 PUSH20 0xFFFFFFFFFFFFFFFFFFFFFFFFFFFFFFFFFFFFFFFF AND GT ISZERO PUSH2 0x769 JUMPI DUP2 SWAP1 POP PUSH2 0x75E DUP3 PUSH1 0x0 PUSH2 0xE9A JUMP JUMPDEST SWAP1 POP DUP1 SWAP3 POP POP PUSH2 0x77E JUMP JUMPDEST DUP1 SWAP2 POP PUSH2 0x777 DUP2 PUSH1 0x1 PUSH2 0xE9A JUMP JUMPDEST SWAP1 POP DUP1 SWAP2 POP POP JUMPDEST PUSH2 0x66C JUMP JUMPDEST PUSH1 0x0 PUSH20 0xFFFFFFFFFFFFFFFFFFFFFFFFFFFFFFFFFFFFFFFF AND DUP2 PUSH20 0xFFFFFFFFFFFFFFFFFFFFFFFFFFFFFFFFFFFFFFFF AND SUB PUSH2 0x7C4 JUMPI PUSH2 0x7C3 DUP3 DUP5 PUSH1 0x1 PUSH2 0xF39 JUMP JUMPDEST JUMPDEST PUSH1 0x0 DUP1 DUP2 SLOAD DUP1 SWAP3 SWAP2 SWAP1 PUSH2 0x7D6 SWAP1 PUSH2 0x1876 JUMP JUMPDEST SWAP2 SWAP1 POP SSTORE POP POP POP POP JUMP JUMPDEST PUSH1 0x60 PUSH32 0x694E80C37192D74D6099F3D3B41506932AB644A24442EE51857CFEB9EB01AC2F DUP3 PUSH1 0x40 MLOAD PUSH1 0x24 ADD PUSH2 0x814 SWAP2 SWAP1 PUSH2 0x146B JUMP JUMPDEST PUSH1 0x40 MLOAD PUSH1 0x20 DUP2 DUP4 SUB SUB DUP2 MSTORE SWAP1 PUSH1 0x40 MSTORE SWAP1 PUSH28 0xFFFFFFFFFFFFFFFFFFFFFFFFFFFFFFFFFFFFFFFFFFFFFFFFFFFFFFFF NOT AND PUSH1 0x20 DUP3 ADD DUP1 MLOAD PUSH28 0xFFFFFFFFFFFFFFFFFFFFFFFFFFFFFFFFFFFFFFFFFFFFFFFFFFFFFFFF DUP4 DUP2 DUP4 AND OR DUP4 MSTORE POP POP POP POP SWAP1 POP SWAP2 SWAP1 POP JUMP JUMPDEST PUSH1 0x0 SLOAD DUP2 GT ISZERO PUSH2 0x8BD JUMPI PUSH1 0x40 MLOAD PUSH32 0x8C379A000000000000000000000000000000000000000000000000000000000 DUP2 MSTORE PUSH1 0x4 ADD PUSH2 0x8B4 SWAP1 PUSH2 0x19F3 JUMP JUMPDEST PUSH1 0x40 MLOAD DUP1 SWAP2 SUB SWAP1 REVERT JUMPDEST PUSH1 0x1 DUP2 LT ISZERO PUSH2 0x901 JUMPI PUSH1 0x40 MLOAD PUSH32 0x8C379A000000000000000000000000000000000000000000000000000000000 DUP2 MSTORE PUSH1 0x4 ADD PUSH2 0x8F8 SWAP1 PUSH2 0x1A5F JUMP JUMPDEST PUSH1 0x40 MLOAD DUP1 SWAP2 SUB SWAP1 REVERT JUMPDEST DUP1 PUSH1 0x1 DUP2 SWAP1 SSTORE POP PUSH32 0x9947AC58E204D2DA07B9748298663B3B77DA7FB0638201D778987DED7C90FBAA PUSH1 0x1 SLOAD PUSH1 0x40 MLOAD PUSH2 0x939 SWAP2 SWAP1 PUSH2 0x146B JUMP JUMPDEST PUSH1 0x40 MLOAD DUP1 SWAP2 SUB SWAP1 LOG1 POP JUMP JUMPDEST PUSH1 0x0 PUSH1 0x1 SLOAD SWAP1 POP SWAP1 JUMP JUMPDEST PUSH1 0x0 PUSH1 0x1 SLOAD EQ PUSH2 0x993 JUMPI PUSH1 0x40 MLOAD PUSH32 0x8C379A000000000000000000000000000000000000000000000000000000000 DUP2 MSTORE PUSH1 0x4 ADD PUSH2 0x98A SWAP1 PUSH2 0x1ACB JUMP JUMPDEST PUSH1 0x40 MLOAD DUP1 SWAP2 SUB SWAP1 REVERT JUMPDEST DUP2 MLOAD DUP2 GT ISZERO PUSH2 0x9D7 JUMPI PUSH1 0x40 MLOAD PUSH32 0x8C379A000000000000000000000000000000000000000000000000000000000 DUP2 MSTORE PUSH1 0x4 ADD PUSH2 0x9CE SWAP1 PUSH2 0x19F3 JUMP JUMPDEST PUSH1 0x40 MLOAD DUP1 SWAP2 SUB SWAP1 REVERT JUMPDEST PUSH1 0x1 DUP2 LT ISZERO PUSH2 0xA1B JUMPI PUSH1 0x40 MLOAD PUSH32 0x8C379A000000000000000000000000000000000000000000000000000000000 DUP2 MSTORE PUSH1 0x4 ADD PUSH2 0xA12 SWAP1 PUSH2 0x1A5F JUMP JUMPDEST PUSH1 0x40 MLOAD DUP1 SWAP2 SUB SWAP1 REVERT JUMPDEST PUSH1 0x0 PUSH1 0x1 SWAP1 POP PUSH1 0x0 JUMPDEST DUP4 MLOAD DUP2 LT ISZERO PUSH2 0xB26 JUMPI PUSH1 0x0 DUP5 DUP3 DUP2 MLOAD DUP2 LT PUSH2 0xA42 JUMPI PUSH2 0xA41 PUSH2 0x1818 JUMP JUMPDEST JUMPDEST PUSH1 0x20 MUL PUSH1 0x20 ADD ADD MLOAD SWAP1 POP PUSH1 0x0 PUSH20 0xFFFFFFFFFFFFFFFFFFFFFFFFFFFFFFFFFFFFFFFF AND DUP2 PUSH20 0xFFFFFFFFFFFFFFFFFFFFFFFFFFFFFFFFFFFFFFFF AND EQ ISZERO DUP1 ISZERO PUSH2 0xAB5 JUMPI POP ADDRESS PUSH20 0xFFFFFFFFFFFFFFFFFFFFFFFFFFFFFFFFFFFFFFFF AND DUP2 PUSH20 0xFFFFFFFFFFFFFFFFFFFFFFFFFFFFFFFFFFFFFFFF AND EQ ISZERO JUMPDEST DUP1 ISZERO PUSH2 0xAC7 JUMPI POP PUSH2 0xAC5 DUP2 PUSH2 0xCA5 JUMP JUMPDEST ISZERO JUMPDEST PUSH2 0xB06 JUMPI PUSH1 0x40 MLOAD PUSH32 0x8C379A000000000000000000000000000000000000000000000000000000000 DUP2 MSTORE PUSH1 0x4 ADD PUSH2 0xAFD SWAP1 PUSH2 0x194F JUMP JUMPDEST PUSH1 0x40 MLOAD DUP1 SWAP2 SUB SWAP1 REVERT JUMPDEST PUSH2 0xB0F DUP2 PUSH2 0x598 JUMP JUMPDEST DUP1 SWAP3 POP POP DUP1 DUP1 PUSH2 0xB1E SWAP1 PUSH2 0x1876 JUMP JUMPDEST SWAP2 POP POP PUSH2 0xA24 JUMP JUMPDEST POP DUP2 PUSH1 0x1 DUP2 SWAP1 SSTORE POP DUP3 MLOAD PUSH1 0x0 DUP2 SWAP1 SSTORE POP POP POP POP JUMP JUMPDEST ADDRESS PUSH20 0xFFFFFFFFFFFFFFFFFFFFFFFFFFFFFFFFFFFFFFFF AND CALLER PUSH20 0xFFFFFFFFFFFFFFFFFFFFFFFFFFFFFFFFFFFFFFFF AND EQ PUSH2 0xBA9 JUMPI PUSH1 0x40 MLOAD PUSH32 0x8C379A000000000000000000000000000000000000000000000000000000000 DUP2 MSTORE PUSH1 0x4 ADD PUSH2 0xBA0 SWAP1 PUSH2 0x1B37 JUMP JUMPDEST PUSH1 0x40 MLOAD DUP1 SWAP2 SUB SWAP1 REVERT JUMPDEST DUP1 PUSH1 0x1 PUSH1 0x0 SLOAD PUSH2 0xBB9 SWAP2 SWAP1 PUSH2 0x1B57 JUMP JUMPDEST LT ISZERO PUSH2 0xBFA JUMPI PUSH1 0x40 MLOAD PUSH32 0x8C379A000000000000000000000000000000000000000000000000000000000 DUP2 MSTORE PUSH1 0x4 ADD PUSH2 0xBF1 SWAP1 PUSH2 0x19F3 JUMP JUMPDEST PUSH1 0x40 MLOAD DUP1 SWAP2 SUB SWAP1 REVERT JUMPDEST PUSH2 0xC03 DUP3 PUSH2 0xCA5 JUMP JUMPDEST PUSH2 0xC42 JUMPI PUSH1 0x40 MLOAD PUSH32 0x8C379A000000000000000000000000000000000000000000000000000000000 DUP2 MSTORE PUSH1 0x4 ADD PUSH2 0xC39 SWAP1 PUSH2 0x1BD7 JUMP JUMPDEST PUSH1 0x40 MLOAD DUP1 SWAP2 SUB SWAP1 REVERT JUMPDEST PUSH2 0xC4B DUP3 PUSH2 0xFCE JUMP JUMPDEST DUP2 PUSH20 0xFFFFFFFFFFFFFFFFFFFFFFFFFFFFFFFFFFFFFFFF AND PUSH32 0xAC6E8398676CF37429D530B81144D7079E99F4FE9D28B0D88C4A749CECCBE8CD PUSH1 0x40 MLOAD PUSH1 0x40 MLOAD DUP1 SWAP2 SUB SWAP1 LOG2 PUSH1 0x1 SLOAD DUP2 EQ PUSH2 0xCA1 JUMPI PUSH2 0xCA0 DUP2 PUSH2 0x878 JUMP JUMPDEST JUMPDEST POP POP JUMP JUMPDEST PUSH1 0x0 DUP1 PUSH20 0xFFFFFFFFFFFFFFFFFFFFFFFFFFFFFFFFFFFFFFFF AND PUSH1 0x2 PUSH1 0x0 DUP5 PUSH20 0xFFFFFFFFFFFFFFFFFFFFFFFFFFFFFFFFFFFFFFFF AND PUSH20 0xFFFFFFFFFFFFFFFFFFFFFFFFFFFFFFFFFFFFFFFF AND DUP2 MSTORE PUSH1 0x20 ADD SWAP1 DUP2 MSTORE PUSH1 0x20 ADD PUSH1 0x0 KECCAK256 PUSH1 0x0 DUP1 ISZERO ISZERO ISZERO ISZERO DUP2 MSTORE PUSH1 0x20 ADD SWAP1 DUP2 MSTORE PUSH1 0x20 ADD PUSH1 0x0 KECCAK256 PUSH1 0x0 SWAP1 SLOAD SWAP1 PUSH2 0x100 EXP SWAP1 DIV PUSH20 0xFFFFFFFFFFFFFFFFFFFFFFFFFFFFFFFFFFFFFFFF AND PUSH20 0xFFFFFFFFFFFFFFFFFFFFFFFFFFFFFFFFFFFFFFFF AND EQ ISZERO DUP1 PUSH2 0xDF8 JUMPI POP PUSH1 0x0 PUSH20 0xFFFFFFFFFFFFFFFFFFFFFFFFFFFFFFFFFFFFFFFF AND PUSH1 0x2 PUSH1 0x0 DUP5 PUSH20 0xFFFFFFFFFFFFFFFFFFFFFFFFFFFFFFFFFFFFFFFF AND PUSH20 0xFFFFFFFFFFFFFFFFFFFFFFFFFFFFFFFFFFFFFFFF AND DUP2 MSTORE PUSH1 0x20 ADD SWAP1 DUP2 MSTORE PUSH1 0x20 ADD PUSH1 0x0 KECCAK256 PUSH1 0x0 PUSH1 0x1 ISZERO ISZERO ISZERO ISZERO DUP2 MSTORE PUSH1 0x20 ADD SWAP1 DUP2 MSTORE PUSH1 0x20 ADD PUSH1 0x0 KECCAK256 PUSH1 0x0 SWAP1 SLOAD SWAP1 PUSH2 0x100 EXP SWAP1 DIV PUSH20 0xFFFFFFFFFFFFFFFFFFFFFFFFFFFFFFFFFFFFFFFF AND PUSH20 0xFFFFFFFFFFFFFFFFFFFFFFFFFFFFFFFFFFFFFFFF AND EQ ISZERO JUMPDEST SWAP1 POP SWAP2 SWAP1 POP JUMP JUMPDEST PUSH1 0x60 PUSH32 0xC54620469A3EEFF8E01E9971BCF46E640ABBF3FA3139AA3AFA97959F3D74499 DUP4 DUP4 PUSH1 0x40 MLOAD PUSH1 0x24 ADD PUSH2 0xE35 SWAP3 SWAP2 SWAP1 PUSH2 0x197E JUMP JUMPDEST PUSH1 0x40 MLOAD PUSH1 0x20 DUP2 DUP4 SUB SUB DUP2 MSTORE SWAP1 PUSH1 0x40 MSTORE SWAP1 PUSH28 0xFFFFFFFFFFFFFFFFFFFFFFFFFFFFFFFFFFFFFFFFFFFFFFFFFFFFFFFF NOT AND PUSH1 0x20 DUP3 ADD DUP1 MLOAD PUSH28 0xFFFFFFFFFFFFFFFFFFFFFFFFFFFFFFFFFFFFFFFFFFFFFFFFFFFFFFFF DUP4 DUP2 DUP4 AND OR DUP4 MSTORE POP POP POP POP SWAP1 POP SWAP3 SWAP2 POP POP JUMP JUMPDEST PUSH1 0x0 DUP1 PUSH2 0xEA6 DUP5 PUSH2 0xCA5 JUMP JUMPDEST PUSH2 0xEB6 JUMPI PUSH1 0x0 DUP1 SWAP2 POP SWAP2 POP PUSH2 0xF32 JUMP JUMPDEST PUSH1 0x1 PUSH1 0x2 PUSH1 0x0 DUP7 PUSH20 0xFFFFFFFFFFFFFFFFFFFFFFFFFFFFFFFFFFFFFFFF AND PUSH20 0xFFFFFFFFFFFFFFFFFFFFFFFFFFFFFFFFFFFFFFFF AND DUP2 MSTORE PUSH1 0x20 ADD SWAP1 DUP2 MSTORE PUSH1 0x20 ADD PUSH1 0x0 KECCAK256 PUSH1 0x0 DUP6 ISZERO ISZERO ISZERO ISZERO DUP2 MSTORE PUSH1 0x20 ADD SWAP1 DUP2 MSTORE PUSH1 0x20 ADD PUSH1 0x0 KECCAK256 PUSH1 0x0 SWAP1 SLOAD SWAP1 PUSH2 0x100 EXP SWAP1 DIV PUSH20 0xFFFFFFFFFFFFFFFFFFFFFFFFFFFFFFFFFFFFFFFF AND SWAP2 POP SWAP2 POP JUMPDEST SWAP3 POP SWAP3 SWAP1 POP JUMP JUMPDEST PUSH1 0x0 PUSH1 0x2 PUSH1 0x0 DUP6 PUSH20 0xFFFFFFFFFFFFFFFFFFFFFFFFFFFFFFFFFFFFFFFF AND PUSH20 0xFFFFFFFFFFFFFFFFFFFFFFFFFFFFFFFFFFFFFFFF AND DUP2 MSTORE PUSH1 0x20 ADD SWAP1 DUP2 MSTORE PUSH1 0x20 ADD PUSH1 0x0 KECCAK256 PUSH1 0x0 DUP4 ISZERO ISZERO ISZERO ISZERO DUP2 MSTORE PUSH1 0x20 ADD SWAP1 DUP2 MSTORE PUSH1 0x20 ADD PUSH1 0x0 KECCAK256 PUSH1 0x0 SWAP1 SLOAD SWAP1 PUSH2 0x100 EXP SWAP1 DIV PUSH20 0xFFFFFFFFFFFFFFFFFFFFFFFFFFFFFFFFFFFFFFFF AND SWAP1 POP PUSH2 0xFBD DUP5 DUP5 DUP5 PUSH2 0x1214 JUMP JUMPDEST PUSH2 0xFC8 DUP4 DUP3 DUP5 PUSH2 0x1214 JUMP JUMPDEST POP POP POP POP JUMP JUMPDEST PUSH2 0xFD7 DUP2 PUSH2 0xCA5 JUMP JUMPDEST PUSH2 0x1016 JUMPI PUSH1 0x40 MLOAD PUSH32 0x8C379A000000000000000000000000000000000000000000000000000000000 DUP2 MSTORE PUSH1 0x4 ADD PUSH2 0x100D SWAP1 PUSH2 0x1BD7 JUMP JUMPDEST PUSH1 0x40 MLOAD DUP1 SWAP2 SUB SWAP1 REVERT JUMPDEST PUSH2 0x110B PUSH1 0x2 PUSH1 0x0 DUP4 PUSH20 0xFFFFFFFFFFFFFFFFFFFFFFFFFFFFFFFFFFFFFFFF AND PUSH20 0xFFFFFFFFFFFFFFFFFFFFFFFFFFFFFFFFFFFFFFFF AND DUP2 MSTORE PUSH1 0x20 ADD SWAP1 DUP2 MSTORE PUSH1 0x20 ADD PUSH1 0x0 KECCAK256 PUSH1 0x0 DUP1 ISZERO ISZERO ISZERO ISZERO DUP2 MSTORE PUSH1 0x20 ADD SWAP1 DUP2 MSTORE PUSH1 0x20 ADD PUSH1 0x0 KECCAK256 PUSH1 0x0 SWAP1 SLOAD SWAP1 PUSH2 0x100 EXP SWAP1 DIV PUSH20 0xFFFFFFFFFFFFFFFFFFFFFFFFFFFFFFFFFFFFFFFF AND PUSH1 0x2 PUSH1 0x0 DUP5 PUSH20 0xFFFFFFFFFFFFFFFFFFFFFFFFFFFFFFFFFFFFFFFF AND PUSH20 0xFFFFFFFFFFFFFFFFFFFFFFFFFFFFFFFFFFFFFFFF AND DUP2 MSTORE PUSH1 0x20 ADD SWAP1 DUP2 MSTORE PUSH1 0x20 ADD PUSH1 0x0 KECCAK256 PUSH1 0x0 PUSH1 0x1 ISZERO ISZERO ISZERO ISZERO DUP2 MSTORE PUSH1 0x20 ADD SWAP1 DUP2 MSTORE PUSH1 0x20 ADD PUSH1 0x0 KECCAK256 PUSH1 0x0 SWAP1 SLOAD SWAP1 PUSH2 0x100 EXP SWAP1 DIV PUSH20 0xFFFFFFFFFFFFFFFFFFFFFFFFFFFFFFFFFFFFFFFF AND PUSH1 0x1 PUSH2 0x1214 JUMP JUMPDEST PUSH1 0x2 PUSH1 0x0 DUP3 PUSH20 0xFFFFFFFFFFFFFFFFFFFFFFFFFFFFFFFFFFFFFFFF AND PUSH20 0xFFFFFFFFFFFFFFFFFFFFFFFFFFFFFFFFFFFFFFFF AND DUP2 MSTORE PUSH1 0x20 ADD SWAP1 DUP2 MSTORE PUSH1 0x20 ADD PUSH1 0x0 KECCAK256 PUSH1 0x0 DUP1 ISZERO ISZERO ISZERO ISZERO DUP2 MSTORE PUSH1 0x20 ADD SWAP1 DUP2 MSTORE PUSH1 0x20 ADD PUSH1 0x0 KECCAK256 PUSH1 0x0 PUSH2 0x100 EXP DUP2 SLOAD SWAP1 PUSH20 0xFFFFFFFFFFFFFFFFFFFFFFFFFFFFFFFFFFFFFFFF MUL NOT AND SWAP1 SSTORE PUSH1 0x2 PUSH1 0x0 DUP3 PUSH20 0xFFFFFFFFFFFFFFFFFFFFFFFFFFFFFFFFFFFFFFFF AND PUSH20 0xFFFFFFFFFFFFFFFFFFFFFFFFFFFFFFFFFFFFFFFF AND DUP2 MSTORE PUSH1 0x20 ADD SWAP1 DUP2 MSTORE PUSH1 0x20 ADD PUSH1 0x0 KECCAK256 PUSH1 0x0 PUSH1 0x1 ISZERO ISZERO ISZERO ISZERO DUP2 MSTORE PUSH1 0x20 ADD SWAP1 DUP2 MSTORE PUSH1 0x20 ADD PUSH1 0x0 KECCAK256 PUSH1 0x0 PUSH2 0x100 EXP DUP2 SLOAD SWAP1 PUSH20 0xFFFFFFFFFFFFFFFFFFFFFFFFFFFFFFFFFFFFFFFF MUL NOT AND SWAP1 SSTORE PUSH1 0x0 DUP1 DUP2 SLOAD DUP1 SWAP3 SWAP2 SWAP1 PUSH2 0x120C SWAP1 PUSH2 0x1BF7 JUMP JUMPDEST SWAP2 SWAP1 POP SSTORE POP POP JUMP JUMPDEST DUP3 PUSH1 0x2 PUSH1 0x0 DUP5 PUSH20 0xFFFFFFFFFFFFFFFFFFFFFFFFFFFFFFFFFFFFFFFF AND PUSH20 0xFFFFFFFFFFFFFFFFFFFFFFFFFFFFFFFFFFFFFFFF AND DUP2 MSTORE PUSH1 0x20 ADD SWAP1 DUP2 MSTORE PUSH1 0x20 ADD PUSH1 0x0 KECCAK256 PUSH1 0x0 DUP4 ISZERO ISZERO ISZERO ISZERO ISZERO DUP2 MSTORE PUSH1 0x20 ADD SWAP1 DUP2 MSTORE PUSH1 0x20 ADD PUSH1 0x0 KECCAK256 PUSH1 0x0 PUSH2 0x100 EXP DUP2 SLOAD DUP2 PUSH20 0xFFFFFFFFFFFFFFFFFFFFFFFFFFFFFFFFFFFFFFFF MUL NOT AND SWAP1 DUP4 PUSH20 0xFFFFFFFFFFFFFFFFFFFFFFFFFFFFFFFFFFFFFFFF AND MUL OR SWAP1 SSTORE POP DUP2 PUSH1 0x2 PUSH1 0x0 DUP6 PUSH20 0xFFFFFFFFFFFFFFFFFFFFFFFFFFFFFFFFFFFFFFFF AND PUSH20 0xFFFFFFFFFFFFFFFFFFFFFFFFFFFFFFFFFFFFFFFF AND DUP2 MSTORE PUSH1 0x20 ADD SWAP1 DUP2 MSTORE PUSH1 0x20 ADD PUSH1 0x0 KECCAK256 PUSH1 0x0 DUP4 ISZERO ISZERO ISZERO ISZERO DUP2 MSTORE PUSH1 0x20 ADD SWAP1 DUP2 MSTORE PUSH1 0x20 ADD PUSH1 0x0 KECCAK256 PUSH1 0x0 PUSH2 0x100 EXP DUP2 SLOAD DUP2 PUSH20 0xFFFFFFFFFFFFFFFFFFFFFFFFFFFFFFFFFFFFFFFF MUL NOT AND SWAP1 DUP4 PUSH20 0xFFFFFFFFFFFFFFFFFFFFFFFFFFFFFFFFFFFFFFFF AND MUL OR SWAP1 SSTORE POP POP POP POP JUMP JUMPDEST PUSH1 0x0 DUP2 MLOAD SWAP1 POP SWAP2 SWAP1 POP JUMP JUMPDEST PUSH1 0x0 DUP3 DUP3 MSTORE PUSH1 0x20 DUP3 ADD SWAP1 POP SWAP3 SWAP2 POP POP JUMP JUMPDEST PUSH1 0x0 DUP2 SWAP1 POP PUSH1 0x20 DUP3 ADD SWAP1 POP SWAP2 SWAP1 POP JUMP JUMPDEST PUSH1 0x0 PUSH20 0xFFFFFFFFFFFFFFFFFFFFFFFFFFFFFFFFFFFFFFFF DUP3 AND SWAP1 POP SWAP2 SWAP1 POP JUMP JUMPDEST PUSH1 0x0 PUSH2 0x1397 DUP3 PUSH2 0x136C JUMP JUMPDEST SWAP1 POP SWAP2 SWAP1 POP JUMP JUMPDEST PUSH2 0x13A7 DUP2 PUSH2 0x138C JUMP JUMPDEST DUP3 MSTORE POP POP JUMP JUMPDEST PUSH1 0x0 PUSH2 0x13B9 DUP4 DUP4 PUSH2 0x139E JUMP JUMPDEST PUSH1 0x20 DUP4 ADD SWAP1 POP SWAP3 SWAP2 POP POP JUMP JUMPDEST PUSH1 0x0 PUSH1 0x20 DUP3 ADD SWAP1 POP SWAP2 SWAP1 POP JUMP JUMPDEST PUSH1 0x0 PUSH2 0x13DD DUP3 PUSH2 0x1340 JUMP JUMPDEST PUSH2 0x13E7 DUP2 DUP6 PUSH2 0x134B JUMP JUMPDEST SWAP4 POP PUSH2 0x13F2 DUP4 PUSH2 0x135C JUMP JUMPDEST DUP1 PUSH1 0x0 JUMPDEST DUP4 DUP2 LT ISZERO PUSH2 0x1423 JUMPI DUP2 MLOAD PUSH2 0x140A DUP9 DUP3 PUSH2 0x13AD JUMP JUMPDEST SWAP8 POP PUSH2 0x1415 DUP4 PUSH2 0x13C5 JUMP JUMPDEST SWAP3 POP POP PUSH1 0x1 DUP2 ADD SWAP1 POP PUSH2 0x13F6 JUMP JUMPDEST POP DUP6 SWAP4 POP POP POP POP SWAP3 SWAP2 POP POP JUMP JUMPDEST PUSH1 0x0 PUSH1 0x20 DUP3 ADD SWAP1 POP DUP2 DUP2 SUB PUSH1 0x0 DUP4 ADD MSTORE PUSH2 0x144A DUP2 DUP5 PUSH2 0x13D2 JUMP JUMPDEST SWAP1 POP SWAP3 SWAP2 POP POP JUMP JUMPDEST PUSH1 0x0 DUP2 SWAP1 POP SWAP2 SWAP1 POP JUMP JUMPDEST PUSH2 0x1465 DUP2 PUSH2 0x1452 JUMP JUMPDEST DUP3 MSTORE POP POP JUMP JUMPDEST PUSH1 0x0 PUSH1 0x20 DUP3 ADD SWAP1 POP PUSH2 0x1480 PUSH1 0x0 DUP4 ADD DUP5 PUSH2 0x145C JUMP JUMPDEST SWAP3 SWAP2 POP POP JUMP JUMPDEST PUSH1 0x0 PUSH1 0x40 MLOAD SWAP1 POP SWAP1 JUMP JUMPDEST PUSH1 0x0 DUP1 REVERT JUMPDEST PUSH1 0x0 DUP1 REVERT JUMPDEST PUSH2 0x14A3 DUP2 PUSH2 0x138C JUMP JUMPDEST DUP2 EQ PUSH2 0x14AE JUMPI PUSH1 0x0 DUP1 REVERT JUMPDEST POP JUMP JUMPDEST PUSH1 0x0 DUP2 CALLDATALOAD SWAP1 POP PUSH2 0x14C0 DUP2 PUSH2 0x149A JUMP JUMPDEST SWAP3 SWAP2 POP POP JUMP JUMPDEST PUSH2 0x14CF DUP2 PUSH2 0x1452 JUMP JUMPDEST DUP2 EQ PUSH2 0x14DA JUMPI PUSH1 0x0 DUP1 REVERT JUMPDEST POP JUMP JUMPDEST PUSH1 0x0 DUP2 CALLDATALOAD SWAP1 POP PUSH2 0x14EC DUP2 PUSH2 0x14C6 JUMP JUMPDEST SWAP3 SWAP2 POP POP JUMP JUMPDEST PUSH1 0x0 DUP1 PUSH1 0x40 DUP4 DUP6 SUB SLT ISZERO PUSH2 0x1509 JUMPI PUSH2 0x1508 PUSH2 0x1490 JUMP JUMPDEST JUMPDEST PUSH1 0x0 PUSH2 0x1517 DUP6 DUP3 DUP7 ADD PUSH2 0x14B1 JUMP JUMPDEST SWAP3 POP POP PUSH1 0x20 PUSH2 0x1528 DUP6 DUP3 DUP7 ADD PUSH2 0x14DD JUMP JUMPDEST SWAP2 POP POP SWAP3 POP SWAP3 SWAP1 POP JUMP JUMPDEST PUSH1 0x0 DUP2 MLOAD SWAP1 POP SWAP2 SWAP1 POP JUMP JUMPDEST PUSH1 0x0 DUP3 DUP3 MSTORE PUSH1 0x20 DUP3 ADD SWAP1 POP SWAP3 SWAP2 POP POP JUMP JUMPDEST PUSH1 0x0 JUMPDEST DUP4 DUP2 LT ISZERO PUSH2 0x156C JUMPI DUP1 DUP3 ADD MLOAD DUP2 DUP5 ADD MSTORE PUSH1 0x20 DUP2 ADD SWAP1 POP PUSH2 0x1551 JUMP JUMPDEST PUSH1 0x0 DUP5 DUP5 ADD MSTORE POP POP POP POP JUMP JUMPDEST PUSH1 0x0 PUSH1 0x1F NOT PUSH1 0x1F DUP4 ADD AND SWAP1 POP SWAP2 SWAP1 POP JUMP JUMPDEST PUSH1 0x0 PUSH2 0x1594 DUP3 PUSH2 0x1532 JUMP JUMPDEST PUSH2 0x159E DUP2 DUP6 PUSH2 0x153D JUMP JUMPDEST SWAP4 POP PUSH2 0x15AE DUP2 DUP6 PUSH1 0x20 DUP7 ADD PUSH2 0x154E JUMP JUMPDEST PUSH2 0x15B7 DUP2 PUSH2 0x1578 JUMP JUMPDEST DUP5 ADD SWAP2 POP POP SWAP3 SWAP2 POP POP JUMP JUMPDEST PUSH1 0x0 PUSH1 0x20 DUP3 ADD SWAP1 POP DUP2 DUP2 SUB PUSH1 0x0 DUP4 ADD MSTORE PUSH2 0x15DC DUP2 DUP5 PUSH2 0x1589 JUMP JUMPDEST SWAP1 POP SWAP3 SWAP2 POP POP JUMP JUMPDEST PUSH1 0x0 PUSH1 0x20 DUP3 DUP5 SUB SLT ISZERO PUSH2 0x15FA JUMPI PUSH2 0x15F9 PUSH2 0x1490 JUMP JUMPDEST JUMPDEST PUSH1 0x0 PUSH2 0x1608 DUP5 DUP3 DUP6 ADD PUSH2 0x14B1 JUMP JUMPDEST SWAP2 POP POP SWAP3 SWAP2 POP POP JUMP JUMPDEST PUSH1 0x0 PUSH1 0x20 DUP3 DUP5 SUB SLT ISZERO PUSH2 0x1627 JUMPI PUSH2 0x1626 PUSH2 0x1490 JUMP JUMPDEST JUMPDEST PUSH1 0x0 PUSH2 0x1635 DUP5 DUP3 DUP6 ADD PUSH2 0x14DD JUMP JUMPDEST SWAP2 POP POP SWAP3 SWAP2 POP POP JUMP JUMPDEST PUSH1 0x0 DUP1 REVERT JUMPDEST PUSH32 0x4E487B7100000000000000000000000000000000000000000000000000000000 PUSH1 0x0 MSTORE PUSH1 0x41 PUSH1 0x4 MSTORE PUSH1 0x24 PUSH1 0x0 REVERT JUMPDEST PUSH2 0x167B DUP3 PUSH2 0x1578 JUMP JUMPDEST DUP2 ADD DUP2 DUP2 LT PUSH8 0xFFFFFFFFFFFFFFFF DUP3 GT OR ISZERO PUSH2 0x169A JUMPI PUSH2 0x1699 PUSH2 0x1643 JUMP JUMPDEST JUMPDEST DUP1 PUSH1 0x40 MSTORE POP POP POP JUMP JUMPDEST PUSH1 0x0 PUSH2 0x16AD PUSH2 0x1486 JUMP JUMPDEST SWAP1 POP PUSH2 0x16B9 DUP3 DUP3 PUSH2 0x1672 JUMP JUMPDEST SWAP2 SWAP1 POP JUMP JUMPDEST PUSH1 0x0 PUSH8 0xFFFFFFFFFFFFFFFF DUP3 GT ISZERO PUSH2 0x16D9 JUMPI PUSH2 0x16D8 PUSH2 0x1643 JUMP JUMPDEST JUMPDEST PUSH1 0x20 DUP3 MUL SWAP1 POP PUSH1 0x20 DUP2 ADD SWAP1 POP SWAP2 SWAP1 POP JUMP JUMPDEST PUSH1 0x0 DUP1 REVERT JUMPDEST PUSH1 0x0 PUSH2 0x1702 PUSH2 0x16FD DUP5 PUSH2 0x16BE JUMP JUMPDEST PUSH2 0x16A3 JUMP JUMPDEST SWAP1 POP DUP1 DUP4 DUP3 MSTORE PUSH1 0x20 DUP3 ADD SWAP1 POP PUSH1 0x20 DUP5 MUL DUP4 ADD DUP6 DUP2 GT ISZERO PUSH2 0x1725 JUMPI PUSH2 0x1724 PUSH2 0x16EA JUMP JUMPDEST JUMPDEST DUP4 JUMPDEST DUP2 DUP2 LT ISZERO PUSH2 0x174E JUMPI DUP1 PUSH2 0x173A DUP9 DUP3 PUSH2 0x14B1 JUMP JUMPDEST DUP5 MSTORE PUSH1 0x20 DUP5 ADD SWAP4 POP POP PUSH1 0x20 DUP2 ADD SWAP1 POP PUSH2 0x1727 JUMP JUMPDEST POP POP POP SWAP4 SWAP3 POP POP POP JUMP JUMPDEST PUSH1 0x0 DUP3 PUSH1 0x1F DUP4 ADD SLT PUSH2 0x176D JUMPI PUSH2 0x176C PUSH2 0x163E JUMP JUMPDEST JUMPDEST DUP2 CALLDATALOAD PUSH2 0x177D DUP5 DUP3 PUSH1 0x20 DUP7 ADD PUSH2 0x16EF JUMP JUMPDEST SWAP2 POP POP SWAP3 SWAP2 POP POP JUMP JUMPDEST PUSH1 0x0 DUP1 PUSH1 0x40 DUP4 DUP6 SUB SLT ISZERO PUSH2 0x179D JUMPI PUSH2 0x179C PUSH2 0x1490 JUMP JUMPDEST JUMPDEST PUSH1 0x0 DUP4 ADD CALLDATALOAD PUSH8 0xFFFFFFFFFFFFFFFF DUP2 GT ISZERO PUSH2 0x17BB JUMPI PUSH2 0x17BA PUSH2 0x1495 JUMP JUMPDEST JUMPDEST PUSH2 0x17C7 DUP6 DUP3 DUP7 ADD PUSH2 0x1758 JUMP JUMPDEST SWAP3 POP POP PUSH1 0x20 PUSH2 0x17D8 DUP6 DUP3 DUP7 ADD PUSH2 0x14DD JUMP JUMPDEST SWAP2 POP POP SWAP3 POP SWAP3 SWAP1 POP JUMP JUMPDEST PUSH1 0x0 DUP2 ISZERO ISZERO SWAP1 POP SWAP2 SWAP1 POP JUMP JUMPDEST PUSH2 0x17F7 DUP2 PUSH2 0x17E2 JUMP JUMPDEST DUP3 MSTORE POP POP JUMP JUMPDEST PUSH1 0x0 PUSH1 0x20 DUP3 ADD SWAP1 POP PUSH2 0x1812 PUSH1 0x0 DUP4 ADD DUP5 PUSH2 0x17EE JUMP JUMPDEST SWAP3 SWAP2 POP POP JUMP JUMPDEST PUSH32 0x4E487B7100000000000000000000000000000000000000000000000000000000 PUSH1 0x0 MSTORE PUSH1 0x32 PUSH1 0x4 MSTORE PUSH1 0x24 PUSH1 0x0 REVERT JUMPDEST PUSH32 0x4E487B7100000000000000000000000000000000000000000000000000000000 PUSH1 0x0 MSTORE PUSH1 0x11 PUSH1 0x4 MSTORE PUSH1 0x24 PUSH1 0x0 REVERT JUMPDEST PUSH1 0x0 PUSH2 0x1881 DUP3 PUSH2 0x1452 JUMP JUMPDEST SWAP2 POP PUSH32 0xFFFFFFFFFFFFFFFFFFFFFFFFFFFFFFFFFFFFFFFFFFFFFFFFFFFFFFFFFFFFFFFF DUP3 SUB PUSH2 0x18B3 JUMPI PUSH2 0x18B2 PUSH2 0x1847 JUMP JUMPDEST JUMPDEST PUSH1 0x1 DUP3 ADD SWAP1 POP SWAP2 SWAP1 POP JUMP JUMPDEST PUSH1 0x0 PUSH2 0x18C9 DUP3 PUSH2 0x1452 JUMP JUMPDEST SWAP2 POP PUSH2 0x18D4 DUP4 PUSH2 0x1452 JUMP JUMPDEST SWAP3 POP DUP3 DUP3 ADD SWAP1 POP DUP1 DUP3 GT ISZERO PUSH2 0x18EC JUMPI PUSH2 0x18EB PUSH2 0x1847 JUMP JUMPDEST JUMPDEST SWAP3 SWAP2 POP POP JUMP JUMPDEST PUSH1 0x0 DUP3 DUP3 MSTORE PUSH1 0x20 DUP3 ADD SWAP1 POP SWAP3 SWAP2 POP POP JUMP JUMPDEST PUSH32 0x6572726F72303400000000000000000000000000000000000000000000000000 PUSH1 0x0 DUP3 ADD MSTORE POP JUMP JUMPDEST PUSH1 0x0 PUSH2 0x1939 PUSH1 0x7 DUP4 PUSH2 0x18F2 JUMP JUMPDEST SWAP2 POP PUSH2 0x1944 DUP3 PUSH2 0x1903 JUMP JUMPDEST PUSH1 0x20 DUP3 ADD SWAP1 POP SWAP2 SWAP1 POP JUMP JUMPDEST PUSH1 0x0 PUSH1 0x20 DUP3 ADD SWAP1 POP DUP2 DUP2 SUB PUSH1 0x0 DUP4 ADD MSTORE PUSH2 0x1968 DUP2 PUSH2 0x192C JUMP JUMPDEST SWAP1 POP SWAP2 SWAP1 POP JUMP JUMPDEST PUSH2 0x1978 DUP2 PUSH2 0x138C JUMP JUMPDEST DUP3 MSTORE POP POP JUMP JUMPDEST PUSH1 0x0 PUSH1 0x40 DUP3 ADD SWAP1 POP PUSH2 0x1993 PUSH1 0x0 DUP4 ADD DUP6 PUSH2 0x196F JUMP JUMPDEST PUSH2 0x19A0 PUSH1 0x20 DUP4 ADD DUP5 PUSH2 0x145C JUMP JUMPDEST SWAP4 SWAP3 POP POP POP JUMP JUMPDEST PUSH32 0x6572726F72303200000000000000000000000000000000000000000000000000 PUSH1 0x0 DUP3 ADD MSTORE POP JUMP JUMPDEST PUSH1 0x0 PUSH2 0x19DD PUSH1 0x7 DUP4 PUSH2 0x18F2 JUMP JUMPDEST SWAP2 POP PUSH2 0x19E8 DUP3 PUSH2 0x19A7 JUMP JUMPDEST PUSH1 0x20 DUP3 ADD SWAP1 POP SWAP2 SWAP1 POP JUMP JUMPDEST PUSH1 0x0 PUSH1 0x20 DUP3 ADD SWAP1 POP DUP2 DUP2 SUB PUSH1 0x0 DUP4 ADD MSTORE PUSH2 0x1A0C DUP2 PUSH2 0x19D0 JUMP JUMPDEST SWAP1 POP SWAP2 SWAP1 POP JUMP JUMPDEST PUSH32 0x6572726F72303300000000000000000000000000000000000000000000000000 PUSH1 0x0 DUP3 ADD MSTORE POP JUMP JUMPDEST PUSH1 0x0 PUSH2 0x1A49 PUSH1 0x7 DUP4 PUSH2 0x18F2 JUMP JUMPDEST SWAP2 POP PUSH2 0x1A54 DUP3 PUSH2 0x1A13 JUMP JUMPDEST PUSH1 0x20 DUP3 ADD SWAP1 POP SWAP2 SWAP1 POP JUMP JUMPDEST PUSH1 0x0 PUSH1 0x20 DUP3 ADD SWAP1 POP DUP2 DUP2 SUB PUSH1 0x0 DUP4 ADD MSTORE PUSH2 0x1A78 DUP2 PUSH2 0x1A3C JUMP JUMPDEST SWAP1 POP SWAP2 SWAP1 POP JUMP JUMPDEST PUSH32 0x6572726F72303100000000000000000000000000000000000000000000000000 PUSH1 0x0 DUP3 ADD MSTORE POP JUMP JUMPDEST PUSH1 0x0 PUSH2 0x1AB5 PUSH1 0x7 DUP4 PUSH2 0x18F2 JUMP JUMPDEST SWAP2 POP PUSH2 0x1AC0 DUP3 PUSH2 0x1A7F JUMP JUMPDEST PUSH1 0x20 DUP3 ADD SWAP1 POP SWAP2 SWAP1 POP JUMP JUMPDEST PUSH1 0x0 PUSH1 0x20 DUP3 ADD SWAP1 POP DUP2 DUP2 SUB PUSH1 0x0 DUP4 ADD MSTORE PUSH2 0x1AE4 DUP2 PUSH2 0x1AA8 JUMP JUMPDEST SWAP1 POP SWAP2 SWAP1 POP JUMP JUMPDEST PUSH32 0x4E6F7420617574686F72697A6564000000000000000000000000000000000000 PUSH1 0x0 DUP3 ADD MSTORE POP JUMP JUMPDEST PUSH1 0x0 PUSH2 0x1B21 PUSH1 0xE DUP4 PUSH2 0x18F2 JUMP JUMPDEST SWAP2 POP PUSH2 0x1B2C DUP3 PUSH2 0x1AEB JUMP JUMPDEST PUSH1 0x20 DUP3 ADD SWAP1 POP SWAP2 SWAP1 POP JUMP JUMPDEST PUSH1 0x0 PUSH1 0x20 DUP3 ADD SWAP1 POP DUP2 DUP2 SUB PUSH1 0x0 DUP4 ADD MSTORE PUSH2 0x1B50 DUP2 PUSH2 0x1B14 JUMP JUMPDEST SWAP1 POP SWAP2 SWAP1 POP JUMP JUMPDEST PUSH1 0x0 PUSH2 0x1B62 DUP3 PUSH2 0x1452 JUMP JUMPDEST SWAP2 POP PUSH2 0x1B6D DUP4 PUSH2 0x1452 JUMP JUMPDEST SWAP3 POP DUP3 DUP3 SUB SWAP1 POP DUP2 DUP2 GT ISZERO PUSH2 0x1B85 JUMPI PUSH2 0x1B84 PUSH2 0x1847 JUMP JUMPDEST JUMPDEST SWAP3 SWAP2 POP POP JUMP JUMPDEST PUSH32 0x6572726F72303700000000000000000000000000000000000000000000000000 PUSH1 0x0 DUP3 ADD MSTORE POP JUMP JUMPDEST PUSH1 0x0 PUSH2 0x1BC1 PUSH1 0x7 DUP4 PUSH2 0x18F2 JUMP JUMPDEST SWAP2 POP PUSH2 0x1BCC DUP3 PUSH2 0x1B8B JUMP JUMPDEST PUSH1 0x20 DUP3 ADD SWAP1 POP SWAP2 SWAP1 POP JUMP JUMPDEST PUSH1 0x0 PUSH1 0x20 DUP3 ADD SWAP1 POP DUP2 DUP2 SUB PUSH1 0x0 DUP4 ADD MSTORE PUSH2 0x1BF0 DUP2 PUSH2 0x1BB4 JUMP JUMPDEST SWAP1 POP SWAP2 SWAP1 POP JUMP JUMPDEST PUSH1 0x0 PUSH2 0x1C02 DUP3 PUSH2 0x1452 JUMP JUMPDEST SWAP2 POP PUSH1 0x0 DUP3 SUB PUSH2 0x1C15 JUMPI PUSH2 0x1C14 PUSH2 0x1847 JUMP JUMPDEST JUMPDEST PUSH1 0x1 DUP3 SUB SWAP1 POP SWAP2 SWAP1 POP JUMP INVALID LOG2 PUSH5 0x6970667358 0x22 SLT KECCAK256 POP PUSH15 0xBEF7C74EA39FE378C2CB8309C9C4D6 RETURN EXTCODESIZE 0xA5 0x2D 0x2F DUP6 0xCA 0xB1 0xCC KECCAK256 DUP3 PUSH25 0x517E8464736F6C634300081200330000000000000000000000 "
				},
				"gasEstimates": {
					"creation": {
						"codeDepositCost": "1450800",
						"executionCost": "1513",
						"totalCost": "1452313"
					},
					"external": {
						"_initialwallet(address[],uint256)": "infinite",
						"addOwnersAndThreshold(address,uint256)": "infinite",
						"addOwnersencode(address,uint256)": "infinite",
						"addowner(address)": "infinite",
						"changeThreshold(uint256)": "infinite",
						"changeThresholdencode(uint256)": "infinite",
						"checkOwners()": "infinite",
						"checkThreshold()": "2459",
						"ownerExist(address)": "5441",
						"owners_num()": "2452",
						"removeOwners(address,uint256)": "infinite",
						"removeOwnersencode(address,uint256)": "infinite"
					},
					"internal": {
						"_createLink(address,address,bool)": "48918",
						"_insert(address,address,bool)": "infinite",
						"getAdjacent(address,bool)": "7123",
						"removeowner(address)": "infinite"
					}
				},
				"methodIdentifiers": {
					"_initialwallet(address[],uint256)": "a0e1ace8",
					"addOwnersAndThreshold(address,uint256)": "0c546204",
					"addOwnersencode(address,uint256)": "ff87578c",
					"addowner(address)": "5ce7fa2d",
					"changeThreshold(uint256)": "694e80c3",
					"changeThresholdencode(uint256)": "6876a95e",
					"checkOwners()": "029c81e3",
					"checkThreshold()": "81244e5d",
					"ownerExist(address)": "ef11783c",
					"owners_num()": "0c3dfc1a",
					"removeOwners(address,uint256)": "c0f0b3f1",
					"removeOwnersencode(address,uint256)": "54910298"
				}
			},
			"storageLayout": {
				"storage": [
					{
						"astId": 15,
						"contract": "contracts/Try01/Manage.sol:Manageowner",
						"label": "owners_num",
						"offset": 0,
						"slot": "0",
						"type": "t_uint256"
					},
					{
						"astId": 17,
						"contract": "contracts/Try01/Manage.sol:Manageowner",
						"label": "threshold",
						"offset": 0,
						"slot": "1",
						"type": "t_uint256"
					},
					{
						"astId": 23,
						"contract": "contracts/Try01/Manage.sol:Manageowner",
						"label": "owners",
						"offset": 0,
						"slot": "2",
						"type": "t_mapping(t_address,t_mapping(t_bool,t_address))"
					}
				],
				"types": {
					"t_address": {
						"encoding": "inplace",
						"label": "address",
						"numberOfBytes": "20"
					},
					"t_bool": {
						"encoding": "inplace",
						"label": "bool",
						"numberOfBytes": "1"
					},
					"t_mapping(t_address,t_mapping(t_bool,t_address))": {
						"encoding": "mapping",
						"key": "t_address",
						"label": "mapping(address => mapping(bool => address))",
						"numberOfBytes": "32",
						"value": "t_mapping(t_bool,t_address)"
					},
					"t_mapping(t_bool,t_address)": {
						"encoding": "mapping",
						"key": "t_bool",
						"label": "mapping(bool => address)",
						"numberOfBytes": "32",
						"value": "t_address"
					},
					"t_uint256": {
						"encoding": "inplace",
						"label": "uint256",
						"numberOfBytes": "32"
					}
				}
			},
			"userdoc": {
				"kind": "user",
				"methods": {},
				"version": 1
			}
		}
	}
}