{
	"contracts/Try01/Simplewallet.sol": {
		"Wallet": {
			"abi": [
				{
					"inputs": [
						{
							"internalType": "address[]",
							"name": "_owners",
							"type": "address[]"
						},
						{
							"internalType": "uint256",
							"name": "_threshold",
							"type": "uint256"
						}
					],
					"stateMutability": "nonpayable",
					"type": "constructor"
				},
				{
					"anonymous": false,
					"inputs": [
						{
							"indexed": true,
							"internalType": "address",
							"name": "owner",
							"type": "address"
						}
					],
					"name": "AddOwner",
					"type": "event"
				},
				{
					"anonymous": false,
					"inputs": [
						{
							"indexed": false,
							"internalType": "uint256",
							"name": "value",
							"type": "uint256"
						},
						{
							"indexed": false,
							"internalType": "bytes",
							"name": "data",
							"type": "bytes"
						}
					],
					"name": "Callfallback",
					"type": "event"
				},
				{
					"anonymous": false,
					"inputs": [
						{
							"indexed": false,
							"internalType": "uint256",
							"name": "threshold",
							"type": "uint256"
						}
					],
					"name": "ChangeThreshold",
					"type": "event"
				},
				{
					"anonymous": false,
					"inputs": [
						{
							"indexed": true,
							"internalType": "bytes32",
							"name": "txhash",
							"type": "bytes32"
						}
					],
					"name": "ExecutionFailure",
					"type": "event"
				},
				{
					"anonymous": false,
					"inputs": [
						{
							"indexed": true,
							"internalType": "bytes32",
							"name": "txhash",
							"type": "bytes32"
						}
					],
					"name": "ExecutionSuccess",
					"type": "event"
				},
				{
					"anonymous": false,
					"inputs": [
						{
							"indexed": false,
							"internalType": "uint256",
							"name": "value",
							"type": "uint256"
						}
					],
					"name": "Receiveeth",
					"type": "event"
				},
				{
					"anonymous": false,
					"inputs": [
						{
							"indexed": true,
							"internalType": "address",
							"name": "preowner",
							"type": "address"
						}
					],
					"name": "RemoveOwner",
					"type": "event"
				},
				{
					"anonymous": false,
					"inputs": [
						{
							"indexed": true,
							"internalType": "address",
							"name": "initiator",
							"type": "address"
						},
						{
							"indexed": false,
							"internalType": "address[]",
							"name": "owners",
							"type": "address[]"
						},
						{
							"indexed": false,
							"internalType": "uint256",
							"name": "threshold",
							"type": "uint256"
						}
					],
					"name": "Setup",
					"type": "event"
				},
				{
					"stateMutability": "payable",
					"type": "fallback"
				},
				{
					"inputs": [
						{
							"internalType": "address",
							"name": "new_owner",
							"type": "address"
						},
						{
							"internalType": "uint256",
							"name": "new_threshold",
							"type": "uint256"
						}
					],
					"name": "addOwnersAndThreshold",
					"outputs": [],
					"stateMutability": "nonpayable",
					"type": "function"
				},
				{
					"inputs": [
						{
							"internalType": "address",
							"name": "x",
							"type": "address"
						},
						{
							"internalType": "uint256",
							"name": "y",
							"type": "uint256"
						}
					],
					"name": "addOwnersencode",
					"outputs": [
						{
							"internalType": "bytes",
							"name": "result",
							"type": "bytes"
						}
					],
					"stateMutability": "pure",
					"type": "function"
				},
				{
					"inputs": [
						{
							"internalType": "uint256",
							"name": "new_threshold",
							"type": "uint256"
						}
					],
					"name": "changeThreshold",
					"outputs": [],
					"stateMutability": "nonpayable",
					"type": "function"
				},
				{
					"inputs": [
						{
							"internalType": "uint256",
							"name": "x",
							"type": "uint256"
						}
					],
					"name": "changeThresholdencode",
					"outputs": [
						{
							"internalType": "bytes",
							"name": "result",
							"type": "bytes"
						}
					],
					"stateMutability": "pure",
					"type": "function"
				},
				{
					"inputs": [],
					"name": "checkOwners",
					"outputs": [
						{
							"internalType": "address[]",
							"name": "",
							"type": "address[]"
						}
					],
					"stateMutability": "view",
					"type": "function"
				},
				{
					"inputs": [
						{
							"internalType": "bytes32",
							"name": "datatxhash",
							"type": "bytes32"
						},
						{
							"internalType": "bytes",
							"name": "signatures",
							"type": "bytes"
						}
					],
					"name": "checkSignature",
					"outputs": [],
					"stateMutability": "view",
					"type": "function"
				},
				{
					"inputs": [],
					"name": "checkThreshold",
					"outputs": [
						{
							"internalType": "uint256",
							"name": "",
							"type": "uint256"
						}
					],
					"stateMutability": "view",
					"type": "function"
				},
				{
					"inputs": [
						{
							"internalType": "address",
							"name": "to",
							"type": "address"
						},
						{
							"internalType": "uint256",
							"name": "value",
							"type": "uint256"
						},
						{
							"internalType": "bytes",
							"name": "data",
							"type": "bytes"
						},
						{
							"internalType": "bytes",
							"name": "signatures",
							"type": "bytes"
						}
					],
					"name": "exertransact",
					"outputs": [
						{
							"internalType": "bool",
							"name": "success",
							"type": "bool"
						}
					],
					"stateMutability": "payable",
					"type": "function"
				},
				{
					"inputs": [
						{
							"internalType": "address",
							"name": "to",
							"type": "address"
						},
						{
							"internalType": "uint256",
							"name": "value",
							"type": "uint256"
						},
						{
							"internalType": "bytes",
							"name": "data",
							"type": "bytes"
						}
					],
					"name": "getTxhash",
					"outputs": [
						{
							"internalType": "bytes32",
							"name": "",
							"type": "bytes32"
						}
					],
					"stateMutability": "view",
					"type": "function"
				},
				{
					"inputs": [
						{
							"internalType": "address",
							"name": "addr",
							"type": "address"
						}
					],
					"name": "isOwner",
					"outputs": [
						{
							"internalType": "bool",
							"name": "",
							"type": "bool"
						}
					],
					"stateMutability": "view",
					"type": "function"
				},
				{
					"inputs": [],
					"name": "nonce",
					"outputs": [
						{
							"internalType": "uint256",
							"name": "",
							"type": "uint256"
						}
					],
					"stateMutability": "view",
					"type": "function"
				},
				{
					"inputs": [
						{
							"internalType": "address",
							"name": "preowner",
							"type": "address"
						},
						{
							"internalType": "uint256",
							"name": "new_threshold",
							"type": "uint256"
						}
					],
					"name": "removeOwners",
					"outputs": [],
					"stateMutability": "nonpayable",
					"type": "function"
				},
				{
					"inputs": [
						{
							"internalType": "address",
							"name": "x",
							"type": "address"
						},
						{
							"internalType": "uint256",
							"name": "y",
							"type": "uint256"
						}
					],
					"name": "removeOwnersencode",
					"outputs": [
						{
							"internalType": "bytes",
							"name": "result",
							"type": "bytes"
						}
					],
					"stateMutability": "pure",
					"type": "function"
				},
				{
					"stateMutability": "payable",
					"type": "receive"
				}
			],
			"devdoc": {
				"kind": "dev",
				"methods": {},
				"version": 1
			},
			"evm": {
				"assembly": "    /* \"contracts/Try01/Simplewallet.sol\":60:9319  contract Wallet{... */\n  mstore(0x40, 0x80)\n    /* \"contracts/Try01/Simplewallet.sol\":1034:1170  constructor(... */\n  callvalue\n  dup1\n  iszero\n  tag_1\n  jumpi\n  0x00\n  dup1\n  revert\ntag_1:\n  pop\n  mload(0x40)\n  sub(codesize, bytecodeSize)\n  dup1\n  bytecodeSize\n  dup4\n  codecopy\n  dup2\n  dup2\n  add\n  0x40\n  mstore\n  dup2\n  add\n  swap1\n  tag_2\n  swap2\n  swap1\n  tag_3\n  jump\t// in\ntag_2:\n    /* \"contracts/Try01/Simplewallet.sol\":1127:1162  _initialwallet(_owners, _threshold) */\n  tag_6\n    /* \"contracts/Try01/Simplewallet.sol\":1142:1149  _owners */\n  dup3\n    /* \"contracts/Try01/Simplewallet.sol\":1151:1161  _threshold */\n  dup3\n    /* \"contracts/Try01/Simplewallet.sol\":1127:1141  _initialwallet */\n  shl(0x20, tag_7)\n    /* \"contracts/Try01/Simplewallet.sol\":1127:1162  _initialwallet(_owners, _threshold) */\n  0x20\n  shr\n  jump\t// in\ntag_6:\n    /* \"contracts/Try01/Simplewallet.sol\":1034:1170  constructor(... */\n  pop\n  pop\n    /* \"contracts/Try01/Simplewallet.sol\":60:9319  contract Wallet{... */\n  jump(tag_8)\n    /* \"contracts/Try01/Simplewallet.sol\":1178:2053  function _initialwallet(address[] memory _owners,uint256 _threshold)internal {... */\ntag_7:\n    /* \"contracts/Try01/Simplewallet.sol\":1333:1334  0 */\n  0x00\n    /* \"contracts/Try01/Simplewallet.sol\":1320:1329  threshold */\n  sload(0x03)\n    /* \"contracts/Try01/Simplewallet.sol\":1320:1334  threshold == 0 */\n  eq\n    /* \"contracts/Try01/Simplewallet.sol\":1312:1346  require(threshold == 0, \"error01\") */\n  tag_10\n  jumpi\n  mload(0x40)\n  0x08c379a000000000000000000000000000000000000000000000000000000000\n  dup2\n  mstore\n  0x04\n  add\n  tag_11\n  swap1\n  tag_12\n  jump\t// in\ntag_11:\n  mload(0x40)\n  dup1\n  swap2\n  sub\n  swap1\n  revert\ntag_10:\n    /* \"contracts/Try01/Simplewallet.sol\":1428:1435  _owners */\n  dup2\n    /* \"contracts/Try01/Simplewallet.sol\":1428:1442  _owners.length */\n  mload\n    /* \"contracts/Try01/Simplewallet.sol\":1414:1424  _threshold */\n  dup2\n    /* \"contracts/Try01/Simplewallet.sol\":1414:1442  _threshold <= _owners.length */\n  gt\n  iszero\n    /* \"contracts/Try01/Simplewallet.sol\":1406:1454  require(_threshold <= _owners.length, \"error02\") */\n  tag_13\n  jumpi\n  mload(0x40)\n  0x08c379a000000000000000000000000000000000000000000000000000000000\n  dup2\n  mstore\n  0x04\n  add\n  tag_14\n  swap1\n  tag_15\n  jump\t// in\ntag_14:\n  mload(0x40)\n  dup1\n  swap2\n  sub\n  swap1\n  revert\ntag_13:\n    /* \"contracts/Try01/Simplewallet.sol\":1525:1526  1 */\n  0x01\n    /* \"contracts/Try01/Simplewallet.sol\":1511:1521  _threshold */\n  dup2\n    /* \"contracts/Try01/Simplewallet.sol\":1511:1526  _threshold >= 1 */\n  lt\n  iszero\n    /* \"contracts/Try01/Simplewallet.sol\":1503:1538  require(_threshold >= 1, \"error03\") */\n  tag_16\n  jumpi\n  mload(0x40)\n  0x08c379a000000000000000000000000000000000000000000000000000000000\n  dup2\n  mstore\n  0x04\n  add\n  tag_17\n  swap1\n  tag_18\n  jump\t// in\ntag_17:\n  mload(0x40)\n  dup1\n  swap2\n  sub\n  swap1\n  revert\ntag_16:\n    /* \"contracts/Try01/Simplewallet.sol\":1588:1594  uint i */\n  0x00\n    /* \"contracts/Try01/Simplewallet.sol\":1583:1924  for (uint i=0; i<_owners.length;i++)... */\ntag_19:\n    /* \"contracts/Try01/Simplewallet.sol\":1600:1607  _owners */\n  dup3\n    /* \"contracts/Try01/Simplewallet.sol\":1600:1614  _owners.length */\n  mload\n    /* \"contracts/Try01/Simplewallet.sol\":1598:1599  i */\n  dup2\n    /* \"contracts/Try01/Simplewallet.sol\":1598:1614  i<_owners.length */\n  lt\n    /* \"contracts/Try01/Simplewallet.sol\":1583:1924  for (uint i=0; i<_owners.length;i++)... */\n  iszero\n  tag_20\n  jumpi\n    /* \"contracts/Try01/Simplewallet.sol\":1644:1657  address owner */\n  0x00\n    /* \"contracts/Try01/Simplewallet.sol\":1660:1667  _owners */\n  dup4\n    /* \"contracts/Try01/Simplewallet.sol\":1668:1669  i */\n  dup3\n    /* \"contracts/Try01/Simplewallet.sol\":1660:1670  _owners[i] */\n  dup2\n  mload\n  dup2\n  lt\n  tag_22\n  jumpi\n  tag_23\n  tag_24\n  jump\t// in\ntag_23:\ntag_22:\n  0x20\n  mul\n  0x20\n  add\n  add\n  mload\n    /* \"contracts/Try01/Simplewallet.sol\":1644:1670  address owner = _owners[i] */\n  swap1\n  pop\n    /* \"contracts/Try01/Simplewallet.sol\":1785:1786  0 */\n  0x00\n    /* \"contracts/Try01/Simplewallet.sol\":1768:1787  owner != address(0) */\n  0xffffffffffffffffffffffffffffffffffffffff\n  and\n    /* \"contracts/Try01/Simplewallet.sol\":1768:1773  owner */\n  dup2\n    /* \"contracts/Try01/Simplewallet.sol\":1768:1787  owner != address(0) */\n  0xffffffffffffffffffffffffffffffffffffffff\n  and\n  eq\n  iszero\n    /* \"contracts/Try01/Simplewallet.sol\":1768:1813  owner != address(0) && owner != address(this) */\n  dup1\n  iszero\n  tag_25\n  jumpi\n  pop\n    /* \"contracts/Try01/Simplewallet.sol\":1808:1812  this */\n  address\n    /* \"contracts/Try01/Simplewallet.sol\":1791:1813  owner != address(this) */\n  0xffffffffffffffffffffffffffffffffffffffff\n  and\n    /* \"contracts/Try01/Simplewallet.sol\":1791:1796  owner */\n  dup2\n    /* \"contracts/Try01/Simplewallet.sol\":1791:1813  owner != address(this) */\n  0xffffffffffffffffffffffffffffffffffffffff\n  and\n  eq\n  iszero\n    /* \"contracts/Try01/Simplewallet.sol\":1768:1813  owner != address(0) && owner != address(this) */\ntag_25:\n    /* \"contracts/Try01/Simplewallet.sol\":1768:1833  owner != address(0) && owner != address(this) && !isowners[owner] */\n  dup1\n  iszero\n  tag_26\n  jumpi\n  pop\n    /* \"contracts/Try01/Simplewallet.sol\":1818:1826  isowners */\n  0x01\n    /* \"contracts/Try01/Simplewallet.sol\":1818:1833  isowners[owner] */\n  0x00\n    /* \"contracts/Try01/Simplewallet.sol\":1827:1832  owner */\n  dup3\n    /* \"contracts/Try01/Simplewallet.sol\":1818:1833  isowners[owner] */\n  0xffffffffffffffffffffffffffffffffffffffff\n  and\n  0xffffffffffffffffffffffffffffffffffffffff\n  and\n  dup2\n  mstore\n  0x20\n  add\n  swap1\n  dup2\n  mstore\n  0x20\n  add\n  0x00\n  keccak256\n  0x00\n  swap1\n  sload\n  swap1\n  0x0100\n  exp\n  swap1\n  div\n  0xff\n  and\n    /* \"contracts/Try01/Simplewallet.sol\":1817:1833  !isowners[owner] */\n  iszero\n    /* \"contracts/Try01/Simplewallet.sol\":1768:1833  owner != address(0) && owner != address(this) && !isowners[owner] */\ntag_26:\n    /* \"contracts/Try01/Simplewallet.sol\":1760:1844  require(owner != address(0) && owner != address(this) && !isowners[owner],\"error04\") */\n  tag_27\n  jumpi\n  mload(0x40)\n  0x08c379a000000000000000000000000000000000000000000000000000000000\n  dup2\n  mstore\n  0x04\n  add\n  tag_28\n  swap1\n  tag_29\n  jump\t// in\ntag_28:\n  mload(0x40)\n  dup1\n  swap2\n  sub\n  swap1\n  revert\ntag_27:\n    /* \"contracts/Try01/Simplewallet.sol\":1859:1865  owners */\n  0x00\n    /* \"contracts/Try01/Simplewallet.sol\":1871:1876  owner */\n  dup2\n    /* \"contracts/Try01/Simplewallet.sol\":1859:1877  owners.push(owner) */\n  swap1\n  dup1\n  0x01\n  dup2\n  sload\n  add\n  dup1\n  dup3\n  sstore\n  dup1\n  swap2\n  pop\n  pop\n  0x01\n  swap1\n  sub\n  swap1\n  0x00\n  mstore\n  keccak256(0x00, 0x20)\n  add\n  0x00\n  swap1\n  swap2\n  swap1\n  swap2\n  swap1\n  swap2\n  0x0100\n  exp\n  dup2\n  sload\n  dup2\n  0xffffffffffffffffffffffffffffffffffffffff\n  mul\n  not\n  and\n  swap1\n  dup4\n  0xffffffffffffffffffffffffffffffffffffffff\n  and\n  mul\n  or\n  swap1\n  sstore\n  pop\n    /* \"contracts/Try01/Simplewallet.sol\":1908:1912  true */\n  0x01\n    /* \"contracts/Try01/Simplewallet.sol\":1892:1900  isowners */\n  dup1\n    /* \"contracts/Try01/Simplewallet.sol\":1892:1907  isowners[owner] */\n  0x00\n    /* \"contracts/Try01/Simplewallet.sol\":1901:1906  owner */\n  dup4\n    /* \"contracts/Try01/Simplewallet.sol\":1892:1907  isowners[owner] */\n  0xffffffffffffffffffffffffffffffffffffffff\n  and\n  0xffffffffffffffffffffffffffffffffffffffff\n  and\n  dup2\n  mstore\n  0x20\n  add\n  swap1\n  dup2\n  mstore\n  0x20\n  add\n  0x00\n  keccak256\n  0x00\n    /* \"contracts/Try01/Simplewallet.sol\":1892:1912  isowners[owner]=true */\n  0x0100\n  exp\n  dup2\n  sload\n  dup2\n  0xff\n  mul\n  not\n  and\n  swap1\n  dup4\n  iszero\n  iszero\n  mul\n  or\n  swap1\n  sstore\n  pop\n    /* \"contracts/Try01/Simplewallet.sol\":1629:1924  {... */\n  pop\n    /* \"contracts/Try01/Simplewallet.sol\":1615:1618  i++ */\n  dup1\n  dup1\n  tag_31\n  swap1\n  tag_32\n  jump\t// in\ntag_31:\n  swap2\n  pop\n  pop\n    /* \"contracts/Try01/Simplewallet.sol\":1583:1924  for (uint i=0; i<_owners.length;i++)... */\n  jump(tag_19)\ntag_20:\n  pop\n    /* \"contracts/Try01/Simplewallet.sol\":1946:1956  _threshold */\n  dup1\n    /* \"contracts/Try01/Simplewallet.sol\":1934:1943  threshold */\n  0x03\n    /* \"contracts/Try01/Simplewallet.sol\":1934:1956  threshold = _threshold */\n  dup2\n  swap1\n  sstore\n  pop\n    /* \"contracts/Try01/Simplewallet.sol\":1980:1986  owners */\n  0x00\n    /* \"contracts/Try01/Simplewallet.sol\":1980:1993  owners.length */\n  dup1\n  sload\n  swap1\n  pop\n    /* \"contracts/Try01/Simplewallet.sol\":1967:1977  owners_num */\n  0x02\n    /* \"contracts/Try01/Simplewallet.sol\":1967:1993  owners_num = owners.length */\n  dup2\n  swap1\n  sstore\n  pop\n    /* \"contracts/Try01/Simplewallet.sol\":2015:2025  msg.sender */\n  caller\n    /* \"contracts/Try01/Simplewallet.sol\":2009:2045  Setup(msg.sender, owners, threshold) */\n  0xffffffffffffffffffffffffffffffffffffffff\n  and\n  0xbc8a24424002e24ef15217fa46a12643cff731d9f66f82a245db1ac80ac4c7c3\n    /* \"contracts/Try01/Simplewallet.sol\":2027:2033  owners */\n  0x00\n    /* \"contracts/Try01/Simplewallet.sol\":2035:2044  threshold */\n  sload(0x03)\n    /* \"contracts/Try01/Simplewallet.sol\":2009:2045  Setup(msg.sender, owners, threshold) */\n  mload(0x40)\n  tag_33\n  swap3\n  swap2\n  swap1\n  tag_34\n  jump\t// in\ntag_33:\n  mload(0x40)\n  dup1\n  swap2\n  sub\n  swap1\n  log2\n    /* \"contracts/Try01/Simplewallet.sol\":1178:2053  function _initialwallet(address[] memory _owners,uint256 _threshold)internal {... */\n  pop\n  pop\n  jump\t// out\n    /* \"#utility.yul\":7:82   */\ntag_35:\n    /* \"#utility.yul\":40:46   */\n  0x00\n    /* \"#utility.yul\":73:75   */\n  0x40\n    /* \"#utility.yul\":67:76   */\n  mload\n    /* \"#utility.yul\":57:76   */\n  swap1\n  pop\n    /* \"#utility.yul\":7:82   */\n  swap1\n  jump\t// out\n    /* \"#utility.yul\":88:205   */\ntag_36:\n    /* \"#utility.yul\":197:198   */\n  0x00\n    /* \"#utility.yul\":194:195   */\n  dup1\n    /* \"#utility.yul\":187:199   */\n  revert\n    /* \"#utility.yul\":211:328   */\ntag_37:\n    /* \"#utility.yul\":320:321   */\n  0x00\n    /* \"#utility.yul\":317:318   */\n  dup1\n    /* \"#utility.yul\":310:322   */\n  revert\n    /* \"#utility.yul\":334:451   */\ntag_38:\n    /* \"#utility.yul\":443:444   */\n  0x00\n    /* \"#utility.yul\":440:441   */\n  dup1\n    /* \"#utility.yul\":433:445   */\n  revert\n    /* \"#utility.yul\":457:559   */\ntag_39:\n    /* \"#utility.yul\":498:504   */\n  0x00\n    /* \"#utility.yul\":549:551   */\n  0x1f\n    /* \"#utility.yul\":545:552   */\n  not\n    /* \"#utility.yul\":540:542   */\n  0x1f\n    /* \"#utility.yul\":533:538   */\n  dup4\n    /* \"#utility.yul\":529:543   */\n  add\n    /* \"#utility.yul\":525:553   */\n  and\n    /* \"#utility.yul\":515:553   */\n  swap1\n  pop\n    /* \"#utility.yul\":457:559   */\n  swap2\n  swap1\n  pop\n  jump\t// out\n    /* \"#utility.yul\":565:745   */\ntag_40:\n    /* \"#utility.yul\":613:690   */\n  0x4e487b7100000000000000000000000000000000000000000000000000000000\n    /* \"#utility.yul\":610:611   */\n  0x00\n    /* \"#utility.yul\":603:691   */\n  mstore\n    /* \"#utility.yul\":710:714   */\n  0x41\n    /* \"#utility.yul\":707:708   */\n  0x04\n    /* \"#utility.yul\":700:715   */\n  mstore\n    /* \"#utility.yul\":734:738   */\n  0x24\n    /* \"#utility.yul\":731:732   */\n  0x00\n    /* \"#utility.yul\":724:739   */\n  revert\n    /* \"#utility.yul\":751:1032   */\ntag_41:\n    /* \"#utility.yul\":834:861   */\n  tag_84\n    /* \"#utility.yul\":856:860   */\n  dup3\n    /* \"#utility.yul\":834:861   */\n  tag_39\n  jump\t// in\ntag_84:\n    /* \"#utility.yul\":826:832   */\n  dup2\n    /* \"#utility.yul\":822:862   */\n  add\n    /* \"#utility.yul\":964:970   */\n  dup2\n    /* \"#utility.yul\":952:962   */\n  dup2\n    /* \"#utility.yul\":949:971   */\n  lt\n    /* \"#utility.yul\":928:946   */\n  0xffffffffffffffff\n    /* \"#utility.yul\":916:926   */\n  dup3\n    /* \"#utility.yul\":913:947   */\n  gt\n    /* \"#utility.yul\":910:972   */\n  or\n    /* \"#utility.yul\":907:995   */\n  iszero\n  tag_85\n  jumpi\n    /* \"#utility.yul\":975:993   */\n  tag_86\n  tag_40\n  jump\t// in\ntag_86:\n    /* \"#utility.yul\":907:995   */\ntag_85:\n    /* \"#utility.yul\":1015:1025   */\n  dup1\n    /* \"#utility.yul\":1011:1013   */\n  0x40\n    /* \"#utility.yul\":1004:1026   */\n  mstore\n    /* \"#utility.yul\":794:1032   */\n  pop\n    /* \"#utility.yul\":751:1032   */\n  pop\n  pop\n  jump\t// out\n    /* \"#utility.yul\":1038:1167   */\ntag_42:\n    /* \"#utility.yul\":1072:1078   */\n  0x00\n    /* \"#utility.yul\":1099:1119   */\n  tag_88\n  tag_35\n  jump\t// in\ntag_88:\n    /* \"#utility.yul\":1089:1119   */\n  swap1\n  pop\n    /* \"#utility.yul\":1128:1161   */\n  tag_89\n    /* \"#utility.yul\":1156:1160   */\n  dup3\n    /* \"#utility.yul\":1148:1154   */\n  dup3\n    /* \"#utility.yul\":1128:1161   */\n  tag_41\n  jump\t// in\ntag_89:\n    /* \"#utility.yul\":1038:1167   */\n  swap2\n  swap1\n  pop\n  jump\t// out\n    /* \"#utility.yul\":1173:1484   */\ntag_43:\n    /* \"#utility.yul\":1250:1254   */\n  0x00\n    /* \"#utility.yul\":1340:1358   */\n  0xffffffffffffffff\n    /* \"#utility.yul\":1332:1338   */\n  dup3\n    /* \"#utility.yul\":1329:1359   */\n  gt\n    /* \"#utility.yul\":1326:1382   */\n  iszero\n  tag_91\n  jumpi\n    /* \"#utility.yul\":1362:1380   */\n  tag_92\n  tag_40\n  jump\t// in\ntag_92:\n    /* \"#utility.yul\":1326:1382   */\ntag_91:\n    /* \"#utility.yul\":1412:1416   */\n  0x20\n    /* \"#utility.yul\":1404:1410   */\n  dup3\n    /* \"#utility.yul\":1400:1417   */\n  mul\n    /* \"#utility.yul\":1392:1417   */\n  swap1\n  pop\n    /* \"#utility.yul\":1472:1476   */\n  0x20\n    /* \"#utility.yul\":1466:1470   */\n  dup2\n    /* \"#utility.yul\":1462:1477   */\n  add\n    /* \"#utility.yul\":1454:1477   */\n  swap1\n  pop\n    /* \"#utility.yul\":1173:1484   */\n  swap2\n  swap1\n  pop\n  jump\t// out\n    /* \"#utility.yul\":1490:1607   */\ntag_44:\n    /* \"#utility.yul\":1599:1600   */\n  0x00\n    /* \"#utility.yul\":1596:1597   */\n  dup1\n    /* \"#utility.yul\":1589:1601   */\n  revert\n    /* \"#utility.yul\":1613:1739   */\ntag_45:\n    /* \"#utility.yul\":1650:1657   */\n  0x00\n    /* \"#utility.yul\":1690:1732   */\n  0xffffffffffffffffffffffffffffffffffffffff\n    /* \"#utility.yul\":1683:1688   */\n  dup3\n    /* \"#utility.yul\":1679:1733   */\n  and\n    /* \"#utility.yul\":1668:1733   */\n  swap1\n  pop\n    /* \"#utility.yul\":1613:1739   */\n  swap2\n  swap1\n  pop\n  jump\t// out\n    /* \"#utility.yul\":1745:1841   */\ntag_46:\n    /* \"#utility.yul\":1782:1789   */\n  0x00\n    /* \"#utility.yul\":1811:1835   */\n  tag_96\n    /* \"#utility.yul\":1829:1834   */\n  dup3\n    /* \"#utility.yul\":1811:1835   */\n  tag_45\n  jump\t// in\ntag_96:\n    /* \"#utility.yul\":1800:1835   */\n  swap1\n  pop\n    /* \"#utility.yul\":1745:1841   */\n  swap2\n  swap1\n  pop\n  jump\t// out\n    /* \"#utility.yul\":1847:1969   */\ntag_47:\n    /* \"#utility.yul\":1920:1944   */\n  tag_98\n    /* \"#utility.yul\":1938:1943   */\n  dup2\n    /* \"#utility.yul\":1920:1944   */\n  tag_46\n  jump\t// in\ntag_98:\n    /* \"#utility.yul\":1913:1918   */\n  dup2\n    /* \"#utility.yul\":1910:1945   */\n  eq\n    /* \"#utility.yul\":1900:1963   */\n  tag_99\n  jumpi\n    /* \"#utility.yul\":1959:1960   */\n  0x00\n    /* \"#utility.yul\":1956:1957   */\n  dup1\n    /* \"#utility.yul\":1949:1961   */\n  revert\n    /* \"#utility.yul\":1900:1963   */\ntag_99:\n    /* \"#utility.yul\":1847:1969   */\n  pop\n  jump\t// out\n    /* \"#utility.yul\":1975:2118   */\ntag_48:\n    /* \"#utility.yul\":2032:2037   */\n  0x00\n    /* \"#utility.yul\":2063:2069   */\n  dup2\n    /* \"#utility.yul\":2057:2070   */\n  mload\n    /* \"#utility.yul\":2048:2070   */\n  swap1\n  pop\n    /* \"#utility.yul\":2079:2112   */\n  tag_101\n    /* \"#utility.yul\":2106:2111   */\n  dup2\n    /* \"#utility.yul\":2079:2112   */\n  tag_47\n  jump\t// in\ntag_101:\n    /* \"#utility.yul\":1975:2118   */\n  swap3\n  swap2\n  pop\n  pop\n  jump\t// out\n    /* \"#utility.yul\":2141:2873   */\ntag_49:\n    /* \"#utility.yul\":2248:2253   */\n  0x00\n    /* \"#utility.yul\":2273:2354   */\n  tag_103\n    /* \"#utility.yul\":2289:2353   */\n  tag_104\n    /* \"#utility.yul\":2346:2352   */\n  dup5\n    /* \"#utility.yul\":2289:2353   */\n  tag_43\n  jump\t// in\ntag_104:\n    /* \"#utility.yul\":2273:2354   */\n  tag_42\n  jump\t// in\ntag_103:\n    /* \"#utility.yul\":2264:2354   */\n  swap1\n  pop\n    /* \"#utility.yul\":2374:2379   */\n  dup1\n    /* \"#utility.yul\":2403:2409   */\n  dup4\n    /* \"#utility.yul\":2396:2401   */\n  dup3\n    /* \"#utility.yul\":2389:2410   */\n  mstore\n    /* \"#utility.yul\":2437:2441   */\n  0x20\n    /* \"#utility.yul\":2430:2435   */\n  dup3\n    /* \"#utility.yul\":2426:2442   */\n  add\n    /* \"#utility.yul\":2419:2442   */\n  swap1\n  pop\n    /* \"#utility.yul\":2490:2494   */\n  0x20\n    /* \"#utility.yul\":2482:2488   */\n  dup5\n    /* \"#utility.yul\":2478:2495   */\n  mul\n    /* \"#utility.yul\":2470:2476   */\n  dup4\n    /* \"#utility.yul\":2466:2496   */\n  add\n    /* \"#utility.yul\":2519:2522   */\n  dup6\n    /* \"#utility.yul\":2511:2517   */\n  dup2\n    /* \"#utility.yul\":2508:2523   */\n  gt\n    /* \"#utility.yul\":2505:2627   */\n  iszero\n  tag_105\n  jumpi\n    /* \"#utility.yul\":2538:2617   */\n  tag_106\n  tag_44\n  jump\t// in\ntag_106:\n    /* \"#utility.yul\":2505:2627   */\ntag_105:\n    /* \"#utility.yul\":2653:2659   */\n  dup4\n    /* \"#utility.yul\":2636:2867   */\ntag_107:\n    /* \"#utility.yul\":2670:2676   */\n  dup2\n    /* \"#utility.yul\":2665:2668   */\n  dup2\n    /* \"#utility.yul\":2662:2677   */\n  lt\n    /* \"#utility.yul\":2636:2867   */\n  iszero\n  tag_109\n  jumpi\n    /* \"#utility.yul\":2745:2748   */\n  dup1\n    /* \"#utility.yul\":2774:2822   */\n  tag_110\n    /* \"#utility.yul\":2818:2821   */\n  dup9\n    /* \"#utility.yul\":2806:2816   */\n  dup3\n    /* \"#utility.yul\":2774:2822   */\n  tag_48\n  jump\t// in\ntag_110:\n    /* \"#utility.yul\":2769:2772   */\n  dup5\n    /* \"#utility.yul\":2762:2823   */\n  mstore\n    /* \"#utility.yul\":2852:2856   */\n  0x20\n    /* \"#utility.yul\":2847:2850   */\n  dup5\n    /* \"#utility.yul\":2843:2857   */\n  add\n    /* \"#utility.yul\":2836:2857   */\n  swap4\n  pop\n    /* \"#utility.yul\":2712:2867   */\n  pop\n    /* \"#utility.yul\":2696:2700   */\n  0x20\n    /* \"#utility.yul\":2691:2694   */\n  dup2\n    /* \"#utility.yul\":2687:2701   */\n  add\n    /* \"#utility.yul\":2680:2701   */\n  swap1\n  pop\n    /* \"#utility.yul\":2636:2867   */\n  jump(tag_107)\ntag_109:\n    /* \"#utility.yul\":2640:2661   */\n  pop\n    /* \"#utility.yul\":2254:2873   */\n  pop\n  pop\n    /* \"#utility.yul\":2141:2873   */\n  swap4\n  swap3\n  pop\n  pop\n  pop\n  jump\t// out\n    /* \"#utility.yul\":2896:3281   */\ntag_50:\n    /* \"#utility.yul\":2978:2983   */\n  0x00\n    /* \"#utility.yul\":3027:3030   */\n  dup3\n    /* \"#utility.yul\":3020:3024   */\n  0x1f\n    /* \"#utility.yul\":3012:3018   */\n  dup4\n    /* \"#utility.yul\":3008:3025   */\n  add\n    /* \"#utility.yul\":3004:3031   */\n  slt\n    /* \"#utility.yul\":2994:3116   */\n  tag_112\n  jumpi\n    /* \"#utility.yul\":3035:3114   */\n  tag_113\n  tag_38\n  jump\t// in\ntag_113:\n    /* \"#utility.yul\":2994:3116   */\ntag_112:\n    /* \"#utility.yul\":3145:3151   */\n  dup2\n    /* \"#utility.yul\":3139:3152   */\n  mload\n    /* \"#utility.yul\":3170:3275   */\n  tag_114\n    /* \"#utility.yul\":3271:3274   */\n  dup5\n    /* \"#utility.yul\":3263:3269   */\n  dup3\n    /* \"#utility.yul\":3256:3260   */\n  0x20\n    /* \"#utility.yul\":3248:3254   */\n  dup7\n    /* \"#utility.yul\":3244:3261   */\n  add\n    /* \"#utility.yul\":3170:3275   */\n  tag_49\n  jump\t// in\ntag_114:\n    /* \"#utility.yul\":3161:3275   */\n  swap2\n  pop\n    /* \"#utility.yul\":2984:3281   */\n  pop\n    /* \"#utility.yul\":2896:3281   */\n  swap3\n  swap2\n  pop\n  pop\n  jump\t// out\n    /* \"#utility.yul\":3287:3364   */\ntag_51:\n    /* \"#utility.yul\":3324:3331   */\n  0x00\n    /* \"#utility.yul\":3353:3358   */\n  dup2\n    /* \"#utility.yul\":3342:3358   */\n  swap1\n  pop\n    /* \"#utility.yul\":3287:3364   */\n  swap2\n  swap1\n  pop\n  jump\t// out\n    /* \"#utility.yul\":3370:3492   */\ntag_52:\n    /* \"#utility.yul\":3443:3467   */\n  tag_117\n    /* \"#utility.yul\":3461:3466   */\n  dup2\n    /* \"#utility.yul\":3443:3467   */\n  tag_51\n  jump\t// in\ntag_117:\n    /* \"#utility.yul\":3436:3441   */\n  dup2\n    /* \"#utility.yul\":3433:3468   */\n  eq\n    /* \"#utility.yul\":3423:3486   */\n  tag_118\n  jumpi\n    /* \"#utility.yul\":3482:3483   */\n  0x00\n    /* \"#utility.yul\":3479:3480   */\n  dup1\n    /* \"#utility.yul\":3472:3484   */\n  revert\n    /* \"#utility.yul\":3423:3486   */\ntag_118:\n    /* \"#utility.yul\":3370:3492   */\n  pop\n  jump\t// out\n    /* \"#utility.yul\":3498:3641   */\ntag_53:\n    /* \"#utility.yul\":3555:3560   */\n  0x00\n    /* \"#utility.yul\":3586:3592   */\n  dup2\n    /* \"#utility.yul\":3580:3593   */\n  mload\n    /* \"#utility.yul\":3571:3593   */\n  swap1\n  pop\n    /* \"#utility.yul\":3602:3635   */\n  tag_120\n    /* \"#utility.yul\":3629:3634   */\n  dup2\n    /* \"#utility.yul\":3602:3635   */\n  tag_52\n  jump\t// in\ntag_120:\n    /* \"#utility.yul\":3498:3641   */\n  swap3\n  swap2\n  pop\n  pop\n  jump\t// out\n    /* \"#utility.yul\":3647:4357   */\ntag_3:\n    /* \"#utility.yul\":3751:3757   */\n  0x00\n    /* \"#utility.yul\":3759:3765   */\n  dup1\n    /* \"#utility.yul\":3808:3810   */\n  0x40\n    /* \"#utility.yul\":3796:3805   */\n  dup4\n    /* \"#utility.yul\":3787:3794   */\n  dup6\n    /* \"#utility.yul\":3783:3806   */\n  sub\n    /* \"#utility.yul\":3779:3811   */\n  slt\n    /* \"#utility.yul\":3776:3895   */\n  iszero\n  tag_122\n  jumpi\n    /* \"#utility.yul\":3814:3893   */\n  tag_123\n  tag_36\n  jump\t// in\ntag_123:\n    /* \"#utility.yul\":3776:3895   */\ntag_122:\n    /* \"#utility.yul\":3955:3956   */\n  0x00\n    /* \"#utility.yul\":3944:3953   */\n  dup4\n    /* \"#utility.yul\":3940:3957   */\n  add\n    /* \"#utility.yul\":3934:3958   */\n  mload\n    /* \"#utility.yul\":3985:4003   */\n  0xffffffffffffffff\n    /* \"#utility.yul\":3977:3983   */\n  dup2\n    /* \"#utility.yul\":3974:4004   */\n  gt\n    /* \"#utility.yul\":3971:4088   */\n  iszero\n  tag_124\n  jumpi\n    /* \"#utility.yul\":4007:4086   */\n  tag_125\n  tag_37\n  jump\t// in\ntag_125:\n    /* \"#utility.yul\":3971:4088   */\ntag_124:\n    /* \"#utility.yul\":4112:4201   */\n  tag_126\n    /* \"#utility.yul\":4193:4200   */\n  dup6\n    /* \"#utility.yul\":4184:4190   */\n  dup3\n    /* \"#utility.yul\":4173:4182   */\n  dup7\n    /* \"#utility.yul\":4169:4191   */\n  add\n    /* \"#utility.yul\":4112:4201   */\n  tag_50\n  jump\t// in\ntag_126:\n    /* \"#utility.yul\":4102:4201   */\n  swap3\n  pop\n    /* \"#utility.yul\":3905:4211   */\n  pop\n    /* \"#utility.yul\":4250:4252   */\n  0x20\n    /* \"#utility.yul\":4276:4340   */\n  tag_127\n    /* \"#utility.yul\":4332:4339   */\n  dup6\n    /* \"#utility.yul\":4323:4329   */\n  dup3\n    /* \"#utility.yul\":4312:4321   */\n  dup7\n    /* \"#utility.yul\":4308:4330   */\n  add\n    /* \"#utility.yul\":4276:4340   */\n  tag_53\n  jump\t// in\ntag_127:\n    /* \"#utility.yul\":4266:4340   */\n  swap2\n  pop\n    /* \"#utility.yul\":4221:4350   */\n  pop\n    /* \"#utility.yul\":3647:4357   */\n  swap3\n  pop\n  swap3\n  swap1\n  pop\n  jump\t// out\n    /* \"#utility.yul\":4363:4532   */\ntag_54:\n    /* \"#utility.yul\":4447:4458   */\n  0x00\n    /* \"#utility.yul\":4481:4487   */\n  dup3\n    /* \"#utility.yul\":4476:4479   */\n  dup3\n    /* \"#utility.yul\":4469:4488   */\n  mstore\n    /* \"#utility.yul\":4521:4525   */\n  0x20\n    /* \"#utility.yul\":4516:4519   */\n  dup3\n    /* \"#utility.yul\":4512:4526   */\n  add\n    /* \"#utility.yul\":4497:4526   */\n  swap1\n  pop\n    /* \"#utility.yul\":4363:4532   */\n  swap3\n  swap2\n  pop\n  pop\n  jump\t// out\n    /* \"#utility.yul\":4538:4695   */\ntag_55:\n    /* \"#utility.yul\":4678:4687   */\n  0x6572726f72303100000000000000000000000000000000000000000000000000\n    /* \"#utility.yul\":4674:4675   */\n  0x00\n    /* \"#utility.yul\":4666:4672   */\n  dup3\n    /* \"#utility.yul\":4662:4676   */\n  add\n    /* \"#utility.yul\":4655:4688   */\n  mstore\n    /* \"#utility.yul\":4538:4695   */\n  pop\n  jump\t// out\n    /* \"#utility.yul\":4701:5066   */\ntag_56:\n    /* \"#utility.yul\":4843:4846   */\n  0x00\n    /* \"#utility.yul\":4864:4930   */\n  tag_131\n    /* \"#utility.yul\":4928:4929   */\n  0x07\n    /* \"#utility.yul\":4923:4926   */\n  dup4\n    /* \"#utility.yul\":4864:4930   */\n  tag_54\n  jump\t// in\ntag_131:\n    /* \"#utility.yul\":4857:4930   */\n  swap2\n  pop\n    /* \"#utility.yul\":4939:5032   */\n  tag_132\n    /* \"#utility.yul\":5028:5031   */\n  dup3\n    /* \"#utility.yul\":4939:5032   */\n  tag_55\n  jump\t// in\ntag_132:\n    /* \"#utility.yul\":5057:5059   */\n  0x20\n    /* \"#utility.yul\":5052:5055   */\n  dup3\n    /* \"#utility.yul\":5048:5060   */\n  add\n    /* \"#utility.yul\":5041:5060   */\n  swap1\n  pop\n    /* \"#utility.yul\":4701:5066   */\n  swap2\n  swap1\n  pop\n  jump\t// out\n    /* \"#utility.yul\":5072:5491   */\ntag_12:\n    /* \"#utility.yul\":5238:5242   */\n  0x00\n    /* \"#utility.yul\":5276:5278   */\n  0x20\n    /* \"#utility.yul\":5265:5274   */\n  dup3\n    /* \"#utility.yul\":5261:5279   */\n  add\n    /* \"#utility.yul\":5253:5279   */\n  swap1\n  pop\n    /* \"#utility.yul\":5325:5334   */\n  dup2\n    /* \"#utility.yul\":5319:5323   */\n  dup2\n    /* \"#utility.yul\":5315:5335   */\n  sub\n    /* \"#utility.yul\":5311:5312   */\n  0x00\n    /* \"#utility.yul\":5300:5309   */\n  dup4\n    /* \"#utility.yul\":5296:5313   */\n  add\n    /* \"#utility.yul\":5289:5336   */\n  mstore\n    /* \"#utility.yul\":5353:5484   */\n  tag_134\n    /* \"#utility.yul\":5479:5483   */\n  dup2\n    /* \"#utility.yul\":5353:5484   */\n  tag_56\n  jump\t// in\ntag_134:\n    /* \"#utility.yul\":5345:5484   */\n  swap1\n  pop\n    /* \"#utility.yul\":5072:5491   */\n  swap2\n  swap1\n  pop\n  jump\t// out\n    /* \"#utility.yul\":5497:5654   */\ntag_57:\n    /* \"#utility.yul\":5637:5646   */\n  0x6572726f72303200000000000000000000000000000000000000000000000000\n    /* \"#utility.yul\":5633:5634   */\n  0x00\n    /* \"#utility.yul\":5625:5631   */\n  dup3\n    /* \"#utility.yul\":5621:5635   */\n  add\n    /* \"#utility.yul\":5614:5647   */\n  mstore\n    /* \"#utility.yul\":5497:5654   */\n  pop\n  jump\t// out\n    /* \"#utility.yul\":5660:6025   */\ntag_58:\n    /* \"#utility.yul\":5802:5805   */\n  0x00\n    /* \"#utility.yul\":5823:5889   */\n  tag_137\n    /* \"#utility.yul\":5887:5888   */\n  0x07\n    /* \"#utility.yul\":5882:5885   */\n  dup4\n    /* \"#utility.yul\":5823:5889   */\n  tag_54\n  jump\t// in\ntag_137:\n    /* \"#utility.yul\":5816:5889   */\n  swap2\n  pop\n    /* \"#utility.yul\":5898:5991   */\n  tag_138\n    /* \"#utility.yul\":5987:5990   */\n  dup3\n    /* \"#utility.yul\":5898:5991   */\n  tag_57\n  jump\t// in\ntag_138:\n    /* \"#utility.yul\":6016:6018   */\n  0x20\n    /* \"#utility.yul\":6011:6014   */\n  dup3\n    /* \"#utility.yul\":6007:6019   */\n  add\n    /* \"#utility.yul\":6000:6019   */\n  swap1\n  pop\n    /* \"#utility.yul\":5660:6025   */\n  swap2\n  swap1\n  pop\n  jump\t// out\n    /* \"#utility.yul\":6031:6450   */\ntag_15:\n    /* \"#utility.yul\":6197:6201   */\n  0x00\n    /* \"#utility.yul\":6235:6237   */\n  0x20\n    /* \"#utility.yul\":6224:6233   */\n  dup3\n    /* \"#utility.yul\":6220:6238   */\n  add\n    /* \"#utility.yul\":6212:6238   */\n  swap1\n  pop\n    /* \"#utility.yul\":6284:6293   */\n  dup2\n    /* \"#utility.yul\":6278:6282   */\n  dup2\n    /* \"#utility.yul\":6274:6294   */\n  sub\n    /* \"#utility.yul\":6270:6271   */\n  0x00\n    /* \"#utility.yul\":6259:6268   */\n  dup4\n    /* \"#utility.yul\":6255:6272   */\n  add\n    /* \"#utility.yul\":6248:6295   */\n  mstore\n    /* \"#utility.yul\":6312:6443   */\n  tag_140\n    /* \"#utility.yul\":6438:6442   */\n  dup2\n    /* \"#utility.yul\":6312:6443   */\n  tag_58\n  jump\t// in\ntag_140:\n    /* \"#utility.yul\":6304:6443   */\n  swap1\n  pop\n    /* \"#utility.yul\":6031:6450   */\n  swap2\n  swap1\n  pop\n  jump\t// out\n    /* \"#utility.yul\":6456:6613   */\ntag_59:\n    /* \"#utility.yul\":6596:6605   */\n  0x6572726f72303300000000000000000000000000000000000000000000000000\n    /* \"#utility.yul\":6592:6593   */\n  0x00\n    /* \"#utility.yul\":6584:6590   */\n  dup3\n    /* \"#utility.yul\":6580:6594   */\n  add\n    /* \"#utility.yul\":6573:6606   */\n  mstore\n    /* \"#utility.yul\":6456:6613   */\n  pop\n  jump\t// out\n    /* \"#utility.yul\":6619:6984   */\ntag_60:\n    /* \"#utility.yul\":6761:6764   */\n  0x00\n    /* \"#utility.yul\":6782:6848   */\n  tag_143\n    /* \"#utility.yul\":6846:6847   */\n  0x07\n    /* \"#utility.yul\":6841:6844   */\n  dup4\n    /* \"#utility.yul\":6782:6848   */\n  tag_54\n  jump\t// in\ntag_143:\n    /* \"#utility.yul\":6775:6848   */\n  swap2\n  pop\n    /* \"#utility.yul\":6857:6950   */\n  tag_144\n    /* \"#utility.yul\":6946:6949   */\n  dup3\n    /* \"#utility.yul\":6857:6950   */\n  tag_59\n  jump\t// in\ntag_144:\n    /* \"#utility.yul\":6975:6977   */\n  0x20\n    /* \"#utility.yul\":6970:6973   */\n  dup3\n    /* \"#utility.yul\":6966:6978   */\n  add\n    /* \"#utility.yul\":6959:6978   */\n  swap1\n  pop\n    /* \"#utility.yul\":6619:6984   */\n  swap2\n  swap1\n  pop\n  jump\t// out\n    /* \"#utility.yul\":6990:7409   */\ntag_18:\n    /* \"#utility.yul\":7156:7160   */\n  0x00\n    /* \"#utility.yul\":7194:7196   */\n  0x20\n    /* \"#utility.yul\":7183:7192   */\n  dup3\n    /* \"#utility.yul\":7179:7197   */\n  add\n    /* \"#utility.yul\":7171:7197   */\n  swap1\n  pop\n    /* \"#utility.yul\":7243:7252   */\n  dup2\n    /* \"#utility.yul\":7237:7241   */\n  dup2\n    /* \"#utility.yul\":7233:7253   */\n  sub\n    /* \"#utility.yul\":7229:7230   */\n  0x00\n    /* \"#utility.yul\":7218:7227   */\n  dup4\n    /* \"#utility.yul\":7214:7231   */\n  add\n    /* \"#utility.yul\":7207:7254   */\n  mstore\n    /* \"#utility.yul\":7271:7402   */\n  tag_146\n    /* \"#utility.yul\":7397:7401   */\n  dup2\n    /* \"#utility.yul\":7271:7402   */\n  tag_60\n  jump\t// in\ntag_146:\n    /* \"#utility.yul\":7263:7402   */\n  swap1\n  pop\n    /* \"#utility.yul\":6990:7409   */\n  swap2\n  swap1\n  pop\n  jump\t// out\n    /* \"#utility.yul\":7415:7595   */\ntag_24:\n    /* \"#utility.yul\":7463:7540   */\n  0x4e487b7100000000000000000000000000000000000000000000000000000000\n    /* \"#utility.yul\":7460:7461   */\n  0x00\n    /* \"#utility.yul\":7453:7541   */\n  mstore\n    /* \"#utility.yul\":7560:7564   */\n  0x32\n    /* \"#utility.yul\":7557:7558   */\n  0x04\n    /* \"#utility.yul\":7550:7565   */\n  mstore\n    /* \"#utility.yul\":7584:7588   */\n  0x24\n    /* \"#utility.yul\":7581:7582   */\n  0x00\n    /* \"#utility.yul\":7574:7589   */\n  revert\n    /* \"#utility.yul\":7601:7758   */\ntag_61:\n    /* \"#utility.yul\":7741:7750   */\n  0x6572726f72303400000000000000000000000000000000000000000000000000\n    /* \"#utility.yul\":7737:7738   */\n  0x00\n    /* \"#utility.yul\":7729:7735   */\n  dup3\n    /* \"#utility.yul\":7725:7739   */\n  add\n    /* \"#utility.yul\":7718:7751   */\n  mstore\n    /* \"#utility.yul\":7601:7758   */\n  pop\n  jump\t// out\n    /* \"#utility.yul\":7764:8129   */\ntag_62:\n    /* \"#utility.yul\":7906:7909   */\n  0x00\n    /* \"#utility.yul\":7927:7993   */\n  tag_150\n    /* \"#utility.yul\":7991:7992   */\n  0x07\n    /* \"#utility.yul\":7986:7989   */\n  dup4\n    /* \"#utility.yul\":7927:7993   */\n  tag_54\n  jump\t// in\ntag_150:\n    /* \"#utility.yul\":7920:7993   */\n  swap2\n  pop\n    /* \"#utility.yul\":8002:8095   */\n  tag_151\n    /* \"#utility.yul\":8091:8094   */\n  dup3\n    /* \"#utility.yul\":8002:8095   */\n  tag_61\n  jump\t// in\ntag_151:\n    /* \"#utility.yul\":8120:8122   */\n  0x20\n    /* \"#utility.yul\":8115:8118   */\n  dup3\n    /* \"#utility.yul\":8111:8123   */\n  add\n    /* \"#utility.yul\":8104:8123   */\n  swap1\n  pop\n    /* \"#utility.yul\":7764:8129   */\n  swap2\n  swap1\n  pop\n  jump\t// out\n    /* \"#utility.yul\":8135:8554   */\ntag_29:\n    /* \"#utility.yul\":8301:8305   */\n  0x00\n    /* \"#utility.yul\":8339:8341   */\n  0x20\n    /* \"#utility.yul\":8328:8337   */\n  dup3\n    /* \"#utility.yul\":8324:8342   */\n  add\n    /* \"#utility.yul\":8316:8342   */\n  swap1\n  pop\n    /* \"#utility.yul\":8388:8397   */\n  dup2\n    /* \"#utility.yul\":8382:8386   */\n  dup2\n    /* \"#utility.yul\":8378:8398   */\n  sub\n    /* \"#utility.yul\":8374:8375   */\n  0x00\n    /* \"#utility.yul\":8363:8372   */\n  dup4\n    /* \"#utility.yul\":8359:8376   */\n  add\n    /* \"#utility.yul\":8352:8399   */\n  mstore\n    /* \"#utility.yul\":8416:8547   */\n  tag_153\n    /* \"#utility.yul\":8542:8546   */\n  dup2\n    /* \"#utility.yul\":8416:8547   */\n  tag_62\n  jump\t// in\ntag_153:\n    /* \"#utility.yul\":8408:8547   */\n  swap1\n  pop\n    /* \"#utility.yul\":8135:8554   */\n  swap2\n  swap1\n  pop\n  jump\t// out\n    /* \"#utility.yul\":8560:8740   */\ntag_63:\n    /* \"#utility.yul\":8608:8685   */\n  0x4e487b7100000000000000000000000000000000000000000000000000000000\n    /* \"#utility.yul\":8605:8606   */\n  0x00\n    /* \"#utility.yul\":8598:8686   */\n  mstore\n    /* \"#utility.yul\":8705:8709   */\n  0x11\n    /* \"#utility.yul\":8702:8703   */\n  0x04\n    /* \"#utility.yul\":8695:8710   */\n  mstore\n    /* \"#utility.yul\":8729:8733   */\n  0x24\n    /* \"#utility.yul\":8726:8727   */\n  0x00\n    /* \"#utility.yul\":8719:8734   */\n  revert\n    /* \"#utility.yul\":8746:8979   */\ntag_32:\n    /* \"#utility.yul\":8785:8788   */\n  0x00\n    /* \"#utility.yul\":8808:8832   */\n  tag_156\n    /* \"#utility.yul\":8826:8831   */\n  dup3\n    /* \"#utility.yul\":8808:8832   */\n  tag_51\n  jump\t// in\ntag_156:\n    /* \"#utility.yul\":8799:8832   */\n  swap2\n  pop\n    /* \"#utility.yul\":8854:8920   */\n  0xffffffffffffffffffffffffffffffffffffffffffffffffffffffffffffffff\n    /* \"#utility.yul\":8847:8852   */\n  dup3\n    /* \"#utility.yul\":8844:8921   */\n  sub\n    /* \"#utility.yul\":8841:8944   */\n  tag_157\n  jumpi\n    /* \"#utility.yul\":8924:8942   */\n  tag_158\n  tag_63\n  jump\t// in\ntag_158:\n    /* \"#utility.yul\":8841:8944   */\ntag_157:\n    /* \"#utility.yul\":8971:8972   */\n  0x01\n    /* \"#utility.yul\":8964:8969   */\n  dup3\n    /* \"#utility.yul\":8960:8973   */\n  add\n    /* \"#utility.yul\":8953:8973   */\n  swap1\n  pop\n    /* \"#utility.yul\":8746:8979   */\n  swap2\n  swap1\n  pop\n  jump\t// out\n    /* \"#utility.yul\":8985:9096   */\ntag_64:\n    /* \"#utility.yul\":9049:9055   */\n  0x00\n    /* \"#utility.yul\":9083:9088   */\n  dup2\n    /* \"#utility.yul\":9077:9089   */\n  sload\n    /* \"#utility.yul\":9067:9089   */\n  swap1\n  pop\n    /* \"#utility.yul\":8985:9096   */\n  swap2\n  swap1\n  pop\n  jump\t// out\n    /* \"#utility.yul\":9102:9286   */\ntag_65:\n    /* \"#utility.yul\":9201:9212   */\n  0x00\n    /* \"#utility.yul\":9235:9241   */\n  dup3\n    /* \"#utility.yul\":9230:9233   */\n  dup3\n    /* \"#utility.yul\":9223:9242   */\n  mstore\n    /* \"#utility.yul\":9275:9279   */\n  0x20\n    /* \"#utility.yul\":9270:9273   */\n  dup3\n    /* \"#utility.yul\":9266:9280   */\n  add\n    /* \"#utility.yul\":9251:9280   */\n  swap1\n  pop\n    /* \"#utility.yul\":9102:9286   */\n  swap3\n  swap2\n  pop\n  pop\n  jump\t// out\n    /* \"#utility.yul\":9292:9448   */\ntag_66:\n    /* \"#utility.yul\":9356:9360   */\n  0x00\n    /* \"#utility.yul\":9379:9382   */\n  dup2\n    /* \"#utility.yul\":9371:9382   */\n  swap1\n  pop\n    /* \"#utility.yul\":9402:9405   */\n  dup2\n    /* \"#utility.yul\":9399:9400   */\n  0x00\n    /* \"#utility.yul\":9392:9406   */\n  mstore\n    /* \"#utility.yul\":9436:9440   */\n  0x20\n    /* \"#utility.yul\":9433:9434   */\n  0x00\n    /* \"#utility.yul\":9423:9441   */\n  keccak256\n    /* \"#utility.yul\":9415:9441   */\n  swap1\n  pop\n    /* \"#utility.yul\":9292:9448   */\n  swap2\n  swap1\n  pop\n  jump\t// out\n    /* \"#utility.yul\":9454:9562   */\ntag_67:\n    /* \"#utility.yul\":9531:9555   */\n  tag_163\n    /* \"#utility.yul\":9549:9554   */\n  dup2\n    /* \"#utility.yul\":9531:9555   */\n  tag_46\n  jump\t// in\ntag_163:\n    /* \"#utility.yul\":9526:9529   */\n  dup3\n    /* \"#utility.yul\":9519:9556   */\n  mstore\n    /* \"#utility.yul\":9454:9562   */\n  pop\n  pop\n  jump\t// out\n    /* \"#utility.yul\":9568:9747   */\ntag_68:\n    /* \"#utility.yul\":9637:9647   */\n  0x00\n    /* \"#utility.yul\":9658:9704   */\n  tag_165\n    /* \"#utility.yul\":9700:9703   */\n  dup4\n    /* \"#utility.yul\":9692:9698   */\n  dup4\n    /* \"#utility.yul\":9658:9704   */\n  tag_67\n  jump\t// in\ntag_165:\n    /* \"#utility.yul\":9736:9740   */\n  0x20\n    /* \"#utility.yul\":9731:9734   */\n  dup4\n    /* \"#utility.yul\":9727:9741   */\n  add\n    /* \"#utility.yul\":9713:9741   */\n  swap1\n  pop\n    /* \"#utility.yul\":9568:9747   */\n  swap3\n  swap2\n  pop\n  pop\n  jump\t// out\n    /* \"#utility.yul\":9753:9855   */\ntag_69:\n    /* \"#utility.yul\":9795:9803   */\n  0x00\n    /* \"#utility.yul\":9842:9847   */\n  dup2\n    /* \"#utility.yul\":9839:9840   */\n  0x00\n    /* \"#utility.yul\":9835:9848   */\n  shr\n    /* \"#utility.yul\":9814:9848   */\n  swap1\n  pop\n    /* \"#utility.yul\":9753:9855   */\n  swap2\n  swap1\n  pop\n  jump\t// out\n    /* \"#utility.yul\":9861:10000   */\ntag_70:\n    /* \"#utility.yul\":9911:9918   */\n  0x00\n    /* \"#utility.yul\":9951:9993   */\n  0xffffffffffffffffffffffffffffffffffffffff\n    /* \"#utility.yul\":9944:9949   */\n  dup3\n    /* \"#utility.yul\":9940:9994   */\n  and\n    /* \"#utility.yul\":9929:9994   */\n  swap1\n  pop\n    /* \"#utility.yul\":9861:10000   */\n  swap2\n  swap1\n  pop\n  jump\t// out\n    /* \"#utility.yul\":10006:10172   */\ntag_71:\n    /* \"#utility.yul\":10075:10080   */\n  0x00\n    /* \"#utility.yul\":10100:10166   */\n  tag_169\n    /* \"#utility.yul\":10131:10165   */\n  tag_170\n    /* \"#utility.yul\":10154:10164   */\n  dup4\n    /* \"#utility.yul\":10131:10165   */\n  tag_69\n  jump\t// in\ntag_170:\n    /* \"#utility.yul\":10100:10166   */\n  tag_70\n  jump\t// in\ntag_169:\n    /* \"#utility.yul\":10091:10166   */\n  swap1\n  pop\n    /* \"#utility.yul\":10006:10172   */\n  swap2\n  swap1\n  pop\n  jump\t// out\n    /* \"#utility.yul\":10178:10322   */\ntag_72:\n    /* \"#utility.yul\":10233:10238   */\n  0x00\n    /* \"#utility.yul\":10258:10315   */\n  tag_172\n    /* \"#utility.yul\":10309:10313   */\n  dup3\n    /* \"#utility.yul\":10303:10314   */\n  sload\n    /* \"#utility.yul\":10258:10315   */\n  tag_71\n  jump\t// in\ntag_172:\n    /* \"#utility.yul\":10249:10315   */\n  swap1\n  pop\n    /* \"#utility.yul\":10178:10322   */\n  swap2\n  swap1\n  pop\n  jump\t// out\n    /* \"#utility.yul\":10328:10438   */\ntag_73:\n    /* \"#utility.yul\":10395:10399   */\n  0x00\n    /* \"#utility.yul\":10427:10431   */\n  0x01\n    /* \"#utility.yul\":10422:10425   */\n  dup3\n    /* \"#utility.yul\":10418:10432   */\n  add\n    /* \"#utility.yul\":10410:10432   */\n  swap1\n  pop\n    /* \"#utility.yul\":10328:10438   */\n  swap2\n  swap1\n  pop\n  jump\t// out\n    /* \"#utility.yul\":10474:11225   */\ntag_74:\n    /* \"#utility.yul\":10590:10593   */\n  0x00\n    /* \"#utility.yul\":10619:10670   */\n  tag_175\n    /* \"#utility.yul\":10664:10669   */\n  dup3\n    /* \"#utility.yul\":10619:10670   */\n  tag_64\n  jump\t// in\ntag_175:\n    /* \"#utility.yul\":10686:10772   */\n  tag_176\n    /* \"#utility.yul\":10765:10771   */\n  dup2\n    /* \"#utility.yul\":10760:10763   */\n  dup6\n    /* \"#utility.yul\":10686:10772   */\n  tag_65\n  jump\t// in\ntag_176:\n    /* \"#utility.yul\":10679:10772   */\n  swap4\n  pop\n    /* \"#utility.yul\":10796:10849   */\n  tag_177\n    /* \"#utility.yul\":10843:10848   */\n  dup4\n    /* \"#utility.yul\":10796:10849   */\n  tag_66\n  jump\t// in\ntag_177:\n    /* \"#utility.yul\":10872:10879   */\n  dup1\n    /* \"#utility.yul\":10903:10904   */\n  0x00\n    /* \"#utility.yul\":10888:11200   */\ntag_178:\n    /* \"#utility.yul\":10913:10919   */\n  dup4\n    /* \"#utility.yul\":10910:10911   */\n  dup2\n    /* \"#utility.yul\":10907:10920   */\n  lt\n    /* \"#utility.yul\":10888:11200   */\n  iszero\n  tag_180\n  jumpi\n    /* \"#utility.yul\":10983:11027   */\n  tag_181\n    /* \"#utility.yul\":11020:11026   */\n  dup3\n    /* \"#utility.yul\":10983:11027   */\n  tag_72\n  jump\t// in\ntag_181:\n    /* \"#utility.yul\":11047:11110   */\n  tag_182\n    /* \"#utility.yul\":11106:11109   */\n  dup9\n    /* \"#utility.yul\":11091:11104   */\n  dup3\n    /* \"#utility.yul\":11047:11110   */\n  tag_68\n  jump\t// in\ntag_182:\n    /* \"#utility.yul\":11040:11110   */\n  swap8\n  pop\n    /* \"#utility.yul\":11133:11190   */\n  tag_183\n    /* \"#utility.yul\":11183:11189   */\n  dup4\n    /* \"#utility.yul\":11133:11190   */\n  tag_73\n  jump\t// in\ntag_183:\n    /* \"#utility.yul\":11123:11190   */\n  swap3\n  pop\n    /* \"#utility.yul\":10948:11200   */\n  pop\n    /* \"#utility.yul\":10935:10936   */\n  0x01\n    /* \"#utility.yul\":10932:10933   */\n  dup2\n    /* \"#utility.yul\":10928:10937   */\n  add\n    /* \"#utility.yul\":10923:10937   */\n  swap1\n  pop\n    /* \"#utility.yul\":10888:11200   */\n  jump(tag_178)\ntag_180:\n    /* \"#utility.yul\":10892:10906   */\n  pop\n    /* \"#utility.yul\":11216:11219   */\n  dup6\n    /* \"#utility.yul\":11209:11219   */\n  swap4\n  pop\n    /* \"#utility.yul\":10595:11225   */\n  pop\n  pop\n  pop\n    /* \"#utility.yul\":10474:11225   */\n  swap3\n  swap2\n  pop\n  pop\n  jump\t// out\n    /* \"#utility.yul\":11231:11349   */\ntag_75:\n    /* \"#utility.yul\":11318:11342   */\n  tag_185\n    /* \"#utility.yul\":11336:11341   */\n  dup2\n    /* \"#utility.yul\":11318:11342   */\n  tag_51\n  jump\t// in\ntag_185:\n    /* \"#utility.yul\":11313:11316   */\n  dup3\n    /* \"#utility.yul\":11306:11343   */\n  mstore\n    /* \"#utility.yul\":11231:11349   */\n  pop\n  pop\n  jump\t// out\n    /* \"#utility.yul\":11355:11832   */\ntag_34:\n    /* \"#utility.yul\":11523:11527   */\n  0x00\n    /* \"#utility.yul\":11561:11563   */\n  0x40\n    /* \"#utility.yul\":11550:11559   */\n  dup3\n    /* \"#utility.yul\":11546:11564   */\n  add\n    /* \"#utility.yul\":11538:11564   */\n  swap1\n  pop\n    /* \"#utility.yul\":11610:11619   */\n  dup2\n    /* \"#utility.yul\":11604:11608   */\n  dup2\n    /* \"#utility.yul\":11600:11620   */\n  sub\n    /* \"#utility.yul\":11596:11597   */\n  0x00\n    /* \"#utility.yul\":11585:11594   */\n  dup4\n    /* \"#utility.yul\":11581:11598   */\n  add\n    /* \"#utility.yul\":11574:11621   */\n  mstore\n    /* \"#utility.yul\":11638:11743   */\n  tag_187\n    /* \"#utility.yul\":11738:11742   */\n  dup2\n    /* \"#utility.yul\":11729:11735   */\n  dup6\n    /* \"#utility.yul\":11638:11743   */\n  tag_74\n  jump\t// in\ntag_187:\n    /* \"#utility.yul\":11630:11743   */\n  swap1\n  pop\n    /* \"#utility.yul\":11753:11825   */\n  tag_188\n    /* \"#utility.yul\":11821:11823   */\n  0x20\n    /* \"#utility.yul\":11810:11819   */\n  dup4\n    /* \"#utility.yul\":11806:11824   */\n  add\n    /* \"#utility.yul\":11797:11803   */\n  dup5\n    /* \"#utility.yul\":11753:11825   */\n  tag_75\n  jump\t// in\ntag_188:\n    /* \"#utility.yul\":11355:11832   */\n  swap4\n  swap3\n  pop\n  pop\n  pop\n  jump\t// out\n    /* \"contracts/Try01/Simplewallet.sol\":60:9319  contract Wallet{... */\ntag_8:\n  dataSize(sub_0)\n  dup1\n  dataOffset(sub_0)\n  0x00\n  codecopy\n  0x00\n  return\nstop\n\nsub_0: assembly {\n        /* \"contracts/Try01/Simplewallet.sol\":60:9319  contract Wallet{... */\n      mstore(0x40, 0x80)\n      jumpi(tag_1, lt(calldatasize, 0x04))\n      shr(0xe0, calldataload(0x00))\n      dup1\n      0x694e80c3\n      gt\n      tag_16\n      jumpi\n      dup1\n      0x8b30486c\n      gt\n      tag_17\n      jumpi\n      dup1\n      0x8b30486c\n      eq\n      tag_12\n      jumpi\n      dup1\n      0xaffed0e0\n      eq\n      tag_13\n      jumpi\n      dup1\n      0xc0f0b3f1\n      eq\n      tag_14\n      jumpi\n      dup1\n      0xff87578c\n      eq\n      tag_15\n      jumpi\n      jump(tag_2)\n    tag_17:\n      dup1\n      0x694e80c3\n      eq\n      tag_9\n      jumpi\n      dup1\n      0x81244e5d\n      eq\n      tag_10\n      jumpi\n      dup1\n      0x831c9e2e\n      eq\n      tag_11\n      jumpi\n      jump(tag_2)\n    tag_16:\n      dup1\n      0x029c81e3\n      eq\n      tag_3\n      jumpi\n      dup1\n      0x0c546204\n      eq\n      tag_4\n      jumpi\n      dup1\n      0x0fce747a\n      eq\n      tag_5\n      jumpi\n      dup1\n      0x2f54bf6e\n      eq\n      tag_6\n      jumpi\n      dup1\n      0x54910298\n      eq\n      tag_7\n      jumpi\n      dup1\n      0x6876a95e\n      eq\n      tag_8\n      jumpi\n      jump(tag_2)\n    tag_1:\n      jumpi(tag_2, calldatasize)\n        /* \"contracts/Try01/Simplewallet.sol\":8389:8410  Receiveeth(msg.value) */\n      0x1776003212b2028854792a50b4eff933707f4a7576de0678b9f21b4d6c99dc28\n        /* \"contracts/Try01/Simplewallet.sol\":8400:8409  msg.value */\n      callvalue\n        /* \"contracts/Try01/Simplewallet.sol\":8389:8410  Receiveeth(msg.value) */\n      mload(0x40)\n      tag_20\n      swap2\n      swap1\n      tag_21\n      jump\t// in\n    tag_20:\n      mload(0x40)\n      dup1\n      swap2\n      sub\n      swap1\n      log1\n        /* \"contracts/Try01/Simplewallet.sol\":60:9319  contract Wallet{... */\n      stop\n    tag_2:\n        /* \"contracts/Try01/Simplewallet.sol\":8470:8503  Callfallback(msg.value, msg.data) */\n      0x54e5fbadefe8e4e5345e8c6a9ce1017e52802fd305c8d69255f2fb1ddacebf36\n        /* \"contracts/Try01/Simplewallet.sol\":8483:8492  msg.value */\n      callvalue\n        /* \"contracts/Try01/Simplewallet.sol\":8494:8502  msg.data */\n      0x00\n      calldatasize\n        /* \"contracts/Try01/Simplewallet.sol\":8470:8503  Callfallback(msg.value, msg.data) */\n      mload(0x40)\n      tag_24\n      swap4\n      swap3\n      swap2\n      swap1\n      tag_25\n      jump\t// in\n    tag_24:\n      mload(0x40)\n      dup1\n      swap2\n      sub\n      swap1\n      log1\n        /* \"contracts/Try01/Simplewallet.sol\":60:9319  contract Wallet{... */\n      stop\n        /* \"contracts/Try01/Simplewallet.sol\":7843:8206  function checkOwners()public view returns(address[] memory){... */\n    tag_3:\n      callvalue\n      dup1\n      iszero\n      tag_26\n      jumpi\n      0x00\n      dup1\n      revert\n    tag_26:\n      pop\n      tag_27\n      tag_28\n      jump\t// in\n    tag_27:\n      mload(0x40)\n      tag_29\n      swap2\n      swap1\n      tag_30\n      jump\t// in\n    tag_29:\n      mload(0x40)\n      dup1\n      swap2\n      sub\n      swap1\n      return\n        /* \"contracts/Try01/Simplewallet.sol\":5859:6502  function addOwnersAndThreshold(address new_owner, uint256 new_threshold)public signed{... */\n    tag_4:\n      callvalue\n      dup1\n      iszero\n      tag_31\n      jumpi\n      0x00\n      dup1\n      revert\n    tag_31:\n      pop\n      tag_32\n      0x04\n      dup1\n      calldatasize\n      sub\n      dup2\n      add\n      swap1\n      tag_33\n      swap2\n      swap1\n      tag_34\n      jump\t// in\n    tag_33:\n      tag_35\n      jump\t// in\n    tag_32:\n      stop\n        /* \"contracts/Try01/Simplewallet.sol\":2089:2979  function exertransact(... */\n    tag_5:\n      tag_36\n      0x04\n      dup1\n      calldatasize\n      sub\n      dup2\n      add\n      swap1\n      tag_37\n      swap2\n      swap1\n      tag_38\n      jump\t// in\n    tag_37:\n      tag_39\n      jump\t// in\n    tag_36:\n      mload(0x40)\n      tag_40\n      swap2\n      swap1\n      tag_41\n      jump\t// in\n    tag_40:\n      mload(0x40)\n      dup1\n      swap2\n      sub\n      swap1\n      return\n        /* \"contracts/Try01/Simplewallet.sol\":8242:8338  function isOwner(address addr)public view returns(bool) {... */\n    tag_6:\n      callvalue\n      dup1\n      iszero\n      tag_42\n      jumpi\n      0x00\n      dup1\n      revert\n    tag_42:\n      pop\n      tag_43\n      0x04\n      dup1\n      calldatasize\n      sub\n      dup2\n      add\n      swap1\n      tag_44\n      swap2\n      swap1\n      tag_45\n      jump\t// in\n    tag_44:\n      tag_46\n      jump\t// in\n    tag_43:\n      mload(0x40)\n      tag_47\n      swap2\n      swap1\n      tag_41\n      jump\t// in\n    tag_47:\n      mload(0x40)\n      dup1\n      swap2\n      sub\n      swap1\n      return\n        /* \"contracts/Try01/Simplewallet.sol\":9093:9314  function removeOwnersencode(address x, uint256 y) public pure returns(bytes memory result) {... */\n    tag_7:\n      callvalue\n      dup1\n      iszero\n      tag_48\n      jumpi\n      0x00\n      dup1\n      revert\n    tag_48:\n      pop\n      tag_49\n      0x04\n      dup1\n      calldatasize\n      sub\n      dup2\n      add\n      swap1\n      tag_50\n      swap2\n      swap1\n      tag_34\n      jump\t// in\n    tag_50:\n      tag_51\n      jump\t// in\n    tag_49:\n      mload(0x40)\n      tag_52\n      swap2\n      swap1\n      tag_53\n      jump\t// in\n    tag_52:\n      mload(0x40)\n      dup1\n      swap2\n      sub\n      swap1\n      return\n        /* \"contracts/Try01/Simplewallet.sol\":8561:8767  function changeThresholdencode(uint256 x) public pure returns(bytes memory result) {... */\n    tag_8:\n      callvalue\n      dup1\n      iszero\n      tag_54\n      jumpi\n      0x00\n      dup1\n      revert\n    tag_54:\n      pop\n      tag_55\n      0x04\n      dup1\n      calldatasize\n      sub\n      dup2\n      add\n      swap1\n      tag_56\n      swap2\n      swap1\n      tag_57\n      jump\t// in\n    tag_56:\n      tag_58\n      jump\t// in\n    tag_55:\n      mload(0x40)\n      tag_59\n      swap2\n      swap1\n      tag_53\n      jump\t// in\n    tag_59:\n      mload(0x40)\n      dup1\n      swap2\n      sub\n      swap1\n      return\n        /* \"contracts/Try01/Simplewallet.sol\":7336:7676  function changeThreshold(uint256 new_threshold)public signed{... */\n    tag_9:\n      callvalue\n      dup1\n      iszero\n      tag_60\n      jumpi\n      0x00\n      dup1\n      revert\n    tag_60:\n      pop\n      tag_61\n      0x04\n      dup1\n      calldatasize\n      sub\n      dup2\n      add\n      swap1\n      tag_62\n      swap2\n      swap1\n      tag_57\n      jump\t// in\n    tag_62:\n      tag_63\n      jump\t// in\n    tag_61:\n      stop\n        /* \"contracts/Try01/Simplewallet.sol\":7711:7800  function checkThreshold()public view  returns(uint256){... */\n    tag_10:\n      callvalue\n      dup1\n      iszero\n      tag_64\n      jumpi\n      0x00\n      dup1\n      revert\n    tag_64:\n      pop\n      tag_65\n      tag_66\n      jump\t// in\n    tag_65:\n      mload(0x40)\n      tag_67\n      swap2\n      swap1\n      tag_21\n      jump\t// in\n    tag_67:\n      mload(0x40)\n      dup1\n      swap2\n      sub\n      swap1\n      return\n        /* \"contracts/Try01/Simplewallet.sol\":3006:3314  function checkSignature(bytes32 datatxhash, bytes memory signatures)public view {... */\n    tag_11:\n      callvalue\n      dup1\n      iszero\n      tag_68\n      jumpi\n      0x00\n      dup1\n      revert\n    tag_68:\n      pop\n      tag_69\n      0x04\n      dup1\n      calldatasize\n      sub\n      dup2\n      add\n      swap1\n      tag_70\n      swap2\n      swap1\n      tag_71\n      jump\t// in\n    tag_70:\n      tag_72\n      jump\t// in\n    tag_69:\n      stop\n        /* \"contracts/Try01/Simplewallet.sol\":5038:5277  function getTxhash(... */\n    tag_12:\n      callvalue\n      dup1\n      iszero\n      tag_73\n      jumpi\n      0x00\n      dup1\n      revert\n    tag_73:\n      pop\n      tag_74\n      0x04\n      dup1\n      calldatasize\n      sub\n      dup2\n      add\n      swap1\n      tag_75\n      swap2\n      swap1\n      tag_76\n      jump\t// in\n    tag_75:\n      tag_77\n      jump\t// in\n    tag_74:\n      mload(0x40)\n      tag_78\n      swap2\n      swap1\n      tag_79\n      jump\t// in\n    tag_78:\n      mload(0x40)\n      dup1\n      swap2\n      sub\n      swap1\n      return\n        /* \"contracts/Try01/Simplewallet.sol\":1007:1027  uint256 public nonce */\n    tag_13:\n      callvalue\n      dup1\n      iszero\n      tag_80\n      jumpi\n      0x00\n      dup1\n      revert\n    tag_80:\n      pop\n      tag_81\n      tag_82\n      jump\t// in\n    tag_81:\n      mload(0x40)\n      tag_83\n      swap2\n      swap1\n      tag_21\n      jump\t// in\n    tag_83:\n      mload(0x40)\n      dup1\n      swap2\n      sub\n      swap1\n      return\n        /* \"contracts/Try01/Simplewallet.sol\":6594:7247  function removeOwners(address preowner, uint256 new_threshold)public signed{... */\n    tag_14:\n      callvalue\n      dup1\n      iszero\n      tag_84\n      jumpi\n      0x00\n      dup1\n      revert\n    tag_84:\n      pop\n      tag_85\n      0x04\n      dup1\n      calldatasize\n      sub\n      dup2\n      add\n      swap1\n      tag_86\n      swap2\n      swap1\n      tag_34\n      jump\t// in\n    tag_86:\n      tag_87\n      jump\t// in\n    tag_85:\n      stop\n        /* \"contracts/Try01/Simplewallet.sol\":8815:9042  function addOwnersencode(address x, uint256 y) public pure returns(bytes memory result) {... */\n    tag_15:\n      callvalue\n      dup1\n      iszero\n      tag_88\n      jumpi\n      0x00\n      dup1\n      revert\n    tag_88:\n      pop\n      tag_89\n      0x04\n      dup1\n      calldatasize\n      sub\n      dup2\n      add\n      swap1\n      tag_90\n      swap2\n      swap1\n      tag_34\n      jump\t// in\n    tag_90:\n      tag_91\n      jump\t// in\n    tag_89:\n      mload(0x40)\n      tag_92\n      swap2\n      swap1\n      tag_53\n      jump\t// in\n    tag_92:\n      mload(0x40)\n      dup1\n      swap2\n      sub\n      swap1\n      return\n        /* \"contracts/Try01/Simplewallet.sol\":7843:8206  function checkOwners()public view returns(address[] memory){... */\n    tag_28:\n        /* \"contracts/Try01/Simplewallet.sol\":7885:7901  address[] memory */\n      0x60\n        /* \"contracts/Try01/Simplewallet.sol\":7913:7935  address[] memory array */\n      0x00\n        /* \"contracts/Try01/Simplewallet.sol\":7952:7962  owners_num */\n      sload(0x02)\n        /* \"contracts/Try01/Simplewallet.sol\":7938:7963  new address[](owners_num) */\n      0xffffffffffffffff\n      dup2\n      gt\n      iszero\n      tag_94\n      jumpi\n      tag_95\n      tag_96\n      jump\t// in\n    tag_95:\n    tag_94:\n      mload(0x40)\n      swap1\n      dup1\n      dup3\n      mstore\n      dup1\n      0x20\n      mul\n      0x20\n      add\n      dup3\n      add\n      0x40\n      mstore\n      dup1\n      iszero\n      tag_97\n      jumpi\n      dup2\n      0x20\n      add\n      0x20\n      dup3\n      mul\n      dup1\n      calldatasize\n      dup4\n      calldatacopy\n      dup1\n      dup3\n      add\n      swap2\n      pop\n      pop\n      swap1\n      pop\n    tag_97:\n      pop\n        /* \"contracts/Try01/Simplewallet.sol\":7913:7963  address[] memory array = new address[](owners_num) */\n      swap1\n      pop\n        /* \"contracts/Try01/Simplewallet.sol\":7974:7987  uint256 index */\n      0x00\n        /* \"contracts/Try01/Simplewallet.sol\":8006:8015  uint256 i */\n      dup1\n        /* \"contracts/Try01/Simplewallet.sol\":8002:8176  for(uint256 i =0; i<owners.length; i++){... */\n    tag_98:\n        /* \"contracts/Try01/Simplewallet.sol\":8022:8028  owners */\n      0x00\n        /* \"contracts/Try01/Simplewallet.sol\":8022:8035  owners.length */\n      dup1\n      sload\n      swap1\n      pop\n        /* \"contracts/Try01/Simplewallet.sol\":8020:8021  i */\n      dup2\n        /* \"contracts/Try01/Simplewallet.sol\":8020:8035  i<owners.length */\n      lt\n        /* \"contracts/Try01/Simplewallet.sol\":8002:8176  for(uint256 i =0; i<owners.length; i++){... */\n      iszero\n      tag_99\n      jumpi\n        /* \"contracts/Try01/Simplewallet.sol\":8060:8068  isowners */\n      0x01\n        /* \"contracts/Try01/Simplewallet.sol\":8060:8079  isowners[owners[i]] */\n      0x00\n        /* \"contracts/Try01/Simplewallet.sol\":8069:8075  owners */\n      dup1\n        /* \"contracts/Try01/Simplewallet.sol\":8076:8077  i */\n      dup4\n        /* \"contracts/Try01/Simplewallet.sol\":8069:8078  owners[i] */\n      dup2\n      sload\n      dup2\n      lt\n      tag_101\n      jumpi\n      tag_102\n      tag_103\n      jump\t// in\n    tag_102:\n    tag_101:\n      swap1\n      0x00\n      mstore\n      keccak256(0x00, 0x20)\n      add\n      0x00\n      swap1\n      sload\n      swap1\n      0x0100\n      exp\n      swap1\n      div\n      0xffffffffffffffffffffffffffffffffffffffff\n      and\n        /* \"contracts/Try01/Simplewallet.sol\":8060:8079  isowners[owners[i]] */\n      0xffffffffffffffffffffffffffffffffffffffff\n      and\n      0xffffffffffffffffffffffffffffffffffffffff\n      and\n      dup2\n      mstore\n      0x20\n      add\n      swap1\n      dup2\n      mstore\n      0x20\n      add\n      0x00\n      keccak256\n      0x00\n      swap1\n      sload\n      swap1\n      0x0100\n      exp\n      swap1\n      div\n      0xff\n      and\n        /* \"contracts/Try01/Simplewallet.sol\":8056:8165  if (isowners[owners[i]]){... */\n      iszero\n      tag_105\n      jumpi\n        /* \"contracts/Try01/Simplewallet.sol\":8114:8120  owners */\n      0x00\n        /* \"contracts/Try01/Simplewallet.sol\":8121:8122  i */\n      dup2\n        /* \"contracts/Try01/Simplewallet.sol\":8114:8123  owners[i] */\n      dup2\n      sload\n      dup2\n      lt\n      tag_106\n      jumpi\n      tag_107\n      tag_103\n      jump\t// in\n    tag_107:\n    tag_106:\n      swap1\n      0x00\n      mstore\n      keccak256(0x00, 0x20)\n      add\n      0x00\n      swap1\n      sload\n      swap1\n      0x0100\n      exp\n      swap1\n      div\n      0xffffffffffffffffffffffffffffffffffffffff\n      and\n        /* \"contracts/Try01/Simplewallet.sol\":8099:8104  array */\n      dup4\n        /* \"contracts/Try01/Simplewallet.sol\":8105:8110  index */\n      dup4\n        /* \"contracts/Try01/Simplewallet.sol\":8099:8111  array[index] */\n      dup2\n      mload\n      dup2\n      lt\n      tag_109\n      jumpi\n      tag_110\n      tag_103\n      jump\t// in\n    tag_110:\n    tag_109:\n      0x20\n      mul\n      0x20\n      add\n      add\n        /* \"contracts/Try01/Simplewallet.sol\":8099:8123  array[index] = owners[i] */\n      swap1\n      0xffffffffffffffffffffffffffffffffffffffff\n      and\n      swap1\n      dup2\n      0xffffffffffffffffffffffffffffffffffffffff\n      and\n      dup2\n      mstore\n      pop\n      pop\n        /* \"contracts/Try01/Simplewallet.sol\":8142:8149  index++ */\n      dup2\n      dup1\n      tag_111\n      swap1\n      tag_112\n      jump\t// in\n    tag_111:\n      swap3\n      pop\n      pop\n        /* \"contracts/Try01/Simplewallet.sol\":8056:8165  if (isowners[owners[i]]){... */\n    tag_105:\n        /* \"contracts/Try01/Simplewallet.sol\":8037:8040  i++ */\n      dup1\n      dup1\n      tag_113\n      swap1\n      tag_112\n      jump\t// in\n    tag_113:\n      swap2\n      pop\n      pop\n        /* \"contracts/Try01/Simplewallet.sol\":8002:8176  for(uint256 i =0; i<owners.length; i++){... */\n      jump(tag_98)\n    tag_99:\n      pop\n        /* \"contracts/Try01/Simplewallet.sol\":8193:8198  array */\n      dup2\n        /* \"contracts/Try01/Simplewallet.sol\":8186:8198  return array */\n      swap3\n      pop\n      pop\n      pop\n        /* \"contracts/Try01/Simplewallet.sol\":7843:8206  function checkOwners()public view returns(address[] memory){... */\n      swap1\n      jump\t// out\n        /* \"contracts/Try01/Simplewallet.sol\":5859:6502  function addOwnersAndThreshold(address new_owner, uint256 new_threshold)public signed{... */\n    tag_35:\n        /* \"contracts/Try01/Simplewallet.sol\":668:672  this */\n      address\n        /* \"contracts/Try01/Simplewallet.sol\":648:673  msg.sender==address(this) */\n      0xffffffffffffffffffffffffffffffffffffffff\n      and\n        /* \"contracts/Try01/Simplewallet.sol\":648:658  msg.sender */\n      caller\n        /* \"contracts/Try01/Simplewallet.sol\":648:673  msg.sender==address(this) */\n      0xffffffffffffffffffffffffffffffffffffffff\n      and\n      eq\n        /* \"contracts/Try01/Simplewallet.sol\":640:691  require(msg.sender==address(this),\"Not authorized\") */\n      tag_115\n      jumpi\n      mload(0x40)\n      0x08c379a000000000000000000000000000000000000000000000000000000000\n      dup2\n      mstore\n      0x04\n      add\n      tag_116\n      swap1\n      tag_117\n      jump\t// in\n    tag_116:\n      mload(0x40)\n      dup1\n      swap2\n      sub\n      swap1\n      revert\n    tag_115:\n        /* \"contracts/Try01/Simplewallet.sol\":6024:6037  new_threshold */\n      dup1\n        /* \"contracts/Try01/Simplewallet.sol\":6019:6020  1 */\n      0x01\n        /* \"contracts/Try01/Simplewallet.sol\":6006:6016  owners_num */\n      sload(0x02)\n        /* \"contracts/Try01/Simplewallet.sol\":6006:6020  owners_num + 1 */\n      tag_119\n      swap2\n      swap1\n      tag_120\n      jump\t// in\n    tag_119:\n        /* \"contracts/Try01/Simplewallet.sol\":6006:6037  owners_num + 1 >= new_threshold */\n      lt\n      iszero\n        /* \"contracts/Try01/Simplewallet.sol\":6006:6059  owners_num + 1 >= new_threshold && new_threshold >= 0 */\n      dup1\n      iszero\n      tag_121\n      jumpi\n      pop\n        /* \"contracts/Try01/Simplewallet.sol\":6058:6059  0 */\n      0x00\n        /* \"contracts/Try01/Simplewallet.sol\":6041:6054  new_threshold */\n      dup2\n        /* \"contracts/Try01/Simplewallet.sol\":6041:6059  new_threshold >= 0 */\n      lt\n      iszero\n        /* \"contracts/Try01/Simplewallet.sol\":6006:6059  owners_num + 1 >= new_threshold && new_threshold >= 0 */\n    tag_121:\n        /* \"contracts/Try01/Simplewallet.sol\":5998:6060  require(owners_num + 1 >= new_threshold && new_threshold >= 0) */\n      tag_122\n      jumpi\n      0x00\n      dup1\n      revert\n    tag_122:\n        /* \"contracts/Try01/Simplewallet.sol\":6155:6156  0 */\n      0x00\n        /* \"contracts/Try01/Simplewallet.sol\":6134:6157  new_owner != address(0) */\n      0xffffffffffffffffffffffffffffffffffffffff\n      and\n        /* \"contracts/Try01/Simplewallet.sol\":6134:6143  new_owner */\n      dup3\n        /* \"contracts/Try01/Simplewallet.sol\":6134:6157  new_owner != address(0) */\n      0xffffffffffffffffffffffffffffffffffffffff\n      and\n      eq\n      iszero\n        /* \"contracts/Try01/Simplewallet.sol\":6134:6187  new_owner != address(0) && new_owner != address(this) */\n      dup1\n      iszero\n      tag_123\n      jumpi\n      pop\n        /* \"contracts/Try01/Simplewallet.sol\":6182:6186  this */\n      address\n        /* \"contracts/Try01/Simplewallet.sol\":6161:6187  new_owner != address(this) */\n      0xffffffffffffffffffffffffffffffffffffffff\n      and\n        /* \"contracts/Try01/Simplewallet.sol\":6161:6170  new_owner */\n      dup3\n        /* \"contracts/Try01/Simplewallet.sol\":6161:6187  new_owner != address(this) */\n      0xffffffffffffffffffffffffffffffffffffffff\n      and\n      eq\n      iszero\n        /* \"contracts/Try01/Simplewallet.sol\":6134:6187  new_owner != address(0) && new_owner != address(this) */\n    tag_123:\n        /* \"contracts/Try01/Simplewallet.sol\":6134:6211  new_owner != address(0) && new_owner != address(this) && !isowners[new_owner] */\n      dup1\n      iszero\n      tag_124\n      jumpi\n      pop\n        /* \"contracts/Try01/Simplewallet.sol\":6192:6200  isowners */\n      0x01\n        /* \"contracts/Try01/Simplewallet.sol\":6192:6211  isowners[new_owner] */\n      0x00\n        /* \"contracts/Try01/Simplewallet.sol\":6201:6210  new_owner */\n      dup4\n        /* \"contracts/Try01/Simplewallet.sol\":6192:6211  isowners[new_owner] */\n      0xffffffffffffffffffffffffffffffffffffffff\n      and\n      0xffffffffffffffffffffffffffffffffffffffff\n      and\n      dup2\n      mstore\n      0x20\n      add\n      swap1\n      dup2\n      mstore\n      0x20\n      add\n      0x00\n      keccak256\n      0x00\n      swap1\n      sload\n      swap1\n      0x0100\n      exp\n      swap1\n      div\n      0xff\n      and\n        /* \"contracts/Try01/Simplewallet.sol\":6191:6211  !isowners[new_owner] */\n      iszero\n        /* \"contracts/Try01/Simplewallet.sol\":6134:6211  new_owner != address(0) && new_owner != address(this) && !isowners[new_owner] */\n    tag_124:\n        /* \"contracts/Try01/Simplewallet.sol\":6126:6222  require(new_owner != address(0) && new_owner != address(this) && !isowners[new_owner],\"error04\") */\n      tag_125\n      jumpi\n      mload(0x40)\n      0x08c379a000000000000000000000000000000000000000000000000000000000\n      dup2\n      mstore\n      0x04\n      add\n      tag_126\n      swap1\n      tag_127\n      jump\t// in\n    tag_126:\n      mload(0x40)\n      dup1\n      swap2\n      sub\n      swap1\n      revert\n    tag_125:\n        /* \"contracts/Try01/Simplewallet.sol\":6241:6247  owners */\n      0x00\n        /* \"contracts/Try01/Simplewallet.sol\":6253:6262  new_owner */\n      dup3\n        /* \"contracts/Try01/Simplewallet.sol\":6241:6263  owners.push(new_owner) */\n      swap1\n      dup1\n      0x01\n      dup2\n      sload\n      add\n      dup1\n      dup3\n      sstore\n      dup1\n      swap2\n      pop\n      pop\n      0x01\n      swap1\n      sub\n      swap1\n      0x00\n      mstore\n      keccak256(0x00, 0x20)\n      add\n      0x00\n      swap1\n      swap2\n      swap1\n      swap2\n      swap1\n      swap2\n      0x0100\n      exp\n      dup2\n      sload\n      dup2\n      0xffffffffffffffffffffffffffffffffffffffff\n      mul\n      not\n      and\n      swap1\n      dup4\n      0xffffffffffffffffffffffffffffffffffffffff\n      and\n      mul\n      or\n      swap1\n      sstore\n      pop\n        /* \"contracts/Try01/Simplewallet.sol\":6274:6284  owners_num */\n      0x02\n      0x00\n        /* \"contracts/Try01/Simplewallet.sol\":6274:6286  owners_num++ */\n      dup2\n      sload\n      dup1\n      swap3\n      swap2\n      swap1\n      tag_129\n      swap1\n      tag_112\n      jump\t// in\n    tag_129:\n      swap2\n      swap1\n      pop\n      sstore\n      pop\n        /* \"contracts/Try01/Simplewallet.sol\":6318:6322  true */\n      0x01\n        /* \"contracts/Try01/Simplewallet.sol\":6297:6305  isowners */\n      dup1\n        /* \"contracts/Try01/Simplewallet.sol\":6297:6316  isowners[new_owner] */\n      0x00\n        /* \"contracts/Try01/Simplewallet.sol\":6306:6315  new_owner */\n      dup5\n        /* \"contracts/Try01/Simplewallet.sol\":6297:6316  isowners[new_owner] */\n      0xffffffffffffffffffffffffffffffffffffffff\n      and\n      0xffffffffffffffffffffffffffffffffffffffff\n      and\n      dup2\n      mstore\n      0x20\n      add\n      swap1\n      dup2\n      mstore\n      0x20\n      add\n      0x00\n      keccak256\n      0x00\n        /* \"contracts/Try01/Simplewallet.sol\":6297:6322  isowners[new_owner] =true */\n      0x0100\n      exp\n      dup2\n      sload\n      dup2\n      0xff\n      mul\n      not\n      and\n      swap1\n      dup4\n      iszero\n      iszero\n      mul\n      or\n      swap1\n      sstore\n      pop\n        /* \"contracts/Try01/Simplewallet.sol\":6347:6356  new_owner */\n      dup2\n        /* \"contracts/Try01/Simplewallet.sol\":6338:6357  AddOwner(new_owner) */\n      0xffffffffffffffffffffffffffffffffffffffff\n      and\n      0xac1e9ef41b54c676ccf449d83ae6f2624bcdce8f5b93a6b48ce95874c332693d\n      mload(0x40)\n      mload(0x40)\n      dup1\n      swap2\n      sub\n      swap1\n      log2\n        /* \"contracts/Try01/Simplewallet.sol\":6453:6462  threshold */\n      sload(0x03)\n        /* \"contracts/Try01/Simplewallet.sol\":6436:6449  new_threshold */\n      dup2\n        /* \"contracts/Try01/Simplewallet.sol\":6436:6462  new_threshold != threshold */\n      eq\n        /* \"contracts/Try01/Simplewallet.sol\":6432:6494  if (new_threshold != threshold) changeThreshold(new_threshold) */\n      tag_130\n      jumpi\n        /* \"contracts/Try01/Simplewallet.sol\":6464:6494  changeThreshold(new_threshold) */\n      tag_131\n        /* \"contracts/Try01/Simplewallet.sol\":6480:6493  new_threshold */\n      dup2\n        /* \"contracts/Try01/Simplewallet.sol\":6464:6479  changeThreshold */\n      tag_63\n        /* \"contracts/Try01/Simplewallet.sol\":6464:6494  changeThreshold(new_threshold) */\n      jump\t// in\n    tag_131:\n        /* \"contracts/Try01/Simplewallet.sol\":6432:6494  if (new_threshold != threshold) changeThreshold(new_threshold) */\n    tag_130:\n        /* \"contracts/Try01/Simplewallet.sol\":5859:6502  function addOwnersAndThreshold(address new_owner, uint256 new_threshold)public signed{... */\n      pop\n      pop\n      jump\t// out\n        /* \"contracts/Try01/Simplewallet.sol\":2089:2979  function exertransact(... */\n    tag_39:\n        /* \"contracts/Try01/Simplewallet.sol\":2358:2370  bool success */\n      0x00\n        /* \"contracts/Try01/Simplewallet.sol\":2386:2400  bytes32 txhash */\n      dup1\n        /* \"contracts/Try01/Simplewallet.sol\":2459:2611  encodetx(... */\n      tag_133\n        /* \"contracts/Try01/Simplewallet.sol\":2486:2488  to */\n      dup8\n        /* \"contracts/Try01/Simplewallet.sol\":2507:2512  value */\n      dup8\n        /* \"contracts/Try01/Simplewallet.sol\":2532:2536  data */\n      dup8\n      dup8\n        /* \"contracts/Try01/Simplewallet.sol\":2459:2611  encodetx(... */\n      dup1\n      dup1\n      0x1f\n      add\n      0x20\n      dup1\n      swap2\n      div\n      mul\n      0x20\n      add\n      mload(0x40)\n      swap1\n      dup2\n      add\n      0x40\n      mstore\n      dup1\n      swap4\n      swap3\n      swap2\n      swap1\n      dup2\n      dup2\n      mstore\n      0x20\n      add\n      dup4\n      dup4\n      dup1\n      dup3\n      dup5\n      calldatacopy\n      0x00\n      dup2\n      dup5\n      add\n      mstore\n      not(0x1f)\n      0x1f\n      dup3\n      add\n      and\n      swap1\n      pop\n      dup1\n      dup4\n      add\n      swap3\n      pop\n      pop\n      pop\n      pop\n      pop\n      pop\n      pop\n        /* \"contracts/Try01/Simplewallet.sol\":2555:2560  nonce */\n      sload(0x04)\n        /* \"contracts/Try01/Simplewallet.sol\":2579:2592  block.chainid */\n      chainid\n        /* \"contracts/Try01/Simplewallet.sol\":2459:2467  encodetx */\n      tag_134\n        /* \"contracts/Try01/Simplewallet.sol\":2459:2611  encodetx(... */\n      jump\t// in\n    tag_133:\n        /* \"contracts/Try01/Simplewallet.sol\":2450:2611  txhash = encodetx(... */\n      swap1\n      pop\n        /* \"contracts/Try01/Simplewallet.sol\":2626:2631  nonce */\n      0x04\n      0x00\n        /* \"contracts/Try01/Simplewallet.sol\":2626:2633  nonce++ */\n      dup2\n      sload\n      dup1\n      swap3\n      swap2\n      swap1\n      tag_135\n      swap1\n      tag_112\n      jump\t// in\n    tag_135:\n      swap2\n      swap1\n      pop\n      sstore\n      pop\n        /* \"contracts/Try01/Simplewallet.sol\":2677:2711  checkSignature(txhash, signatures) */\n      tag_136\n        /* \"contracts/Try01/Simplewallet.sol\":2692:2698  txhash */\n      dup2\n        /* \"contracts/Try01/Simplewallet.sol\":2700:2710  signatures */\n      dup5\n        /* \"contracts/Try01/Simplewallet.sol\":2677:2691  checkSignature */\n      tag_72\n        /* \"contracts/Try01/Simplewallet.sol\":2677:2711  checkSignature(txhash, signatures) */\n      jump\t// in\n    tag_136:\n        /* \"contracts/Try01/Simplewallet.sol\":2783:2785  to */\n      dup7\n        /* \"contracts/Try01/Simplewallet.sol\":2783:2790  to.call */\n      0xffffffffffffffffffffffffffffffffffffffff\n      and\n        /* \"contracts/Try01/Simplewallet.sol\":2798:2803  value */\n      dup7\n        /* \"contracts/Try01/Simplewallet.sol\":2805:2809  data */\n      dup7\n      dup7\n        /* \"contracts/Try01/Simplewallet.sol\":2783:2810  to.call{value: value}(data) */\n      mload(0x40)\n      tag_137\n      swap3\n      swap2\n      swap1\n      tag_138\n      jump\t// in\n    tag_137:\n      0x00\n      mload(0x40)\n      dup1\n      dup4\n      sub\n      dup2\n      dup6\n      dup8\n      gas\n      call\n      swap3\n      pop\n      pop\n      pop\n      returndatasize\n      dup1\n      0x00\n      dup2\n      eq\n      tag_141\n      jumpi\n      mload(0x40)\n      swap2\n      pop\n      and(add(returndatasize, 0x3f), not(0x1f))\n      dup3\n      add\n      0x40\n      mstore\n      returndatasize\n      dup3\n      mstore\n      returndatasize\n      0x00\n      0x20\n      dup5\n      add\n      returndatacopy\n      jump(tag_140)\n    tag_141:\n      0x60\n      swap2\n      pop\n    tag_140:\n      pop\n        /* \"contracts/Try01/Simplewallet.sol\":2770:2810  (success,) = to.call{value: value}(data) */\n      pop\n      dup1\n      swap3\n      pop\n      pop\n        /* \"contracts/Try01/Simplewallet.sol\":2829:2836  success */\n      dup2\n        /* \"contracts/Try01/Simplewallet.sol\":2825:2951  if (success)... */\n      iszero\n      tag_142\n      jumpi\n        /* \"contracts/Try01/Simplewallet.sol\":2877:2883  txhash */\n      dup1\n        /* \"contracts/Try01/Simplewallet.sol\":2860:2884  ExecutionSuccess(txhash) */\n      0xdc29884a71d2bb98d3c53dc09718be05c7bfd142b7773a5c5cf2517629290ac0\n      mload(0x40)\n      mload(0x40)\n      dup1\n      swap2\n      sub\n      swap1\n      log2\n        /* \"contracts/Try01/Simplewallet.sol\":2825:2951  if (success)... */\n      jump(tag_143)\n    tag_142:\n        /* \"contracts/Try01/Simplewallet.sol\":2944:2950  txhash */\n      dup1\n        /* \"contracts/Try01/Simplewallet.sol\":2927:2951  ExecutionFailure(txhash) */\n      0xdbe42d02a4e07d7eeff2874efe172540c93b297d206f6d691c9782a257323e32\n      mload(0x40)\n      mload(0x40)\n      dup1\n      swap2\n      sub\n      swap1\n      log2\n        /* \"contracts/Try01/Simplewallet.sol\":2825:2951  if (success)... */\n    tag_143:\n        /* \"contracts/Try01/Simplewallet.sol\":2371:2979  {... */\n      pop\n        /* \"contracts/Try01/Simplewallet.sol\":2089:2979  function exertransact(... */\n      swap6\n      swap5\n      pop\n      pop\n      pop\n      pop\n      pop\n      jump\t// out\n        /* \"contracts/Try01/Simplewallet.sol\":8242:8338  function isOwner(address addr)public view returns(bool) {... */\n    tag_46:\n        /* \"contracts/Try01/Simplewallet.sol\":8292:8296  bool */\n      0x00\n        /* \"contracts/Try01/Simplewallet.sol\":8316:8324  isowners */\n      0x01\n        /* \"contracts/Try01/Simplewallet.sol\":8316:8330  isowners[addr] */\n      0x00\n        /* \"contracts/Try01/Simplewallet.sol\":8325:8329  addr */\n      dup4\n        /* \"contracts/Try01/Simplewallet.sol\":8316:8330  isowners[addr] */\n      0xffffffffffffffffffffffffffffffffffffffff\n      and\n      0xffffffffffffffffffffffffffffffffffffffff\n      and\n      dup2\n      mstore\n      0x20\n      add\n      swap1\n      dup2\n      mstore\n      0x20\n      add\n      0x00\n      keccak256\n      0x00\n      swap1\n      sload\n      swap1\n      0x0100\n      exp\n      swap1\n      div\n      0xff\n      and\n        /* \"contracts/Try01/Simplewallet.sol\":8309:8330  return isowners[addr] */\n      swap1\n      pop\n        /* \"contracts/Try01/Simplewallet.sol\":8242:8338  function isOwner(address addr)public view returns(bool) {... */\n      swap2\n      swap1\n      pop\n      jump\t// out\n        /* \"contracts/Try01/Simplewallet.sol\":9093:9314  function removeOwnersencode(address x, uint256 y) public pure returns(bytes memory result) {... */\n    tag_51:\n        /* \"contracts/Try01/Simplewallet.sol\":9163:9182  bytes memory result */\n      0x60\n        /* \"contracts/Try01/Simplewallet.sol\":9233:9275  keccak256(\"removeOwners(address,uint256)\") */\n      0xc0f0b3f17d4cd2b558f2e7888914cd773111e1da10e55baf4d1f32e1f6c2222f\n        /* \"contracts/Try01/Simplewallet.sol\":9278:9279  x */\n      dup4\n        /* \"contracts/Try01/Simplewallet.sol\":9280:9281  y */\n      dup4\n        /* \"contracts/Try01/Simplewallet.sol\":9203:9282  abi.encodeWithSelector(bytes4(keccak256(\"removeOwners(address,uint256)\")), x,y) */\n      add(0x24, mload(0x40))\n      tag_146\n      swap3\n      swap2\n      swap1\n      tag_147\n      jump\t// in\n    tag_146:\n      mload(0x40)\n      0x20\n      dup2\n      dup4\n      sub\n      sub\n      dup2\n      mstore\n      swap1\n      0x40\n      mstore\n      swap1\n      not(0xffffffffffffffffffffffffffffffffffffffffffffffffffffffff)\n      and\n      0x20\n      dup3\n      add\n      dup1\n      mload\n      0xffffffffffffffffffffffffffffffffffffffffffffffffffffffff\n      dup4\n      dup2\n      dup4\n      and\n      or\n      dup4\n      mstore\n      pop\n      pop\n      pop\n      pop\n        /* \"contracts/Try01/Simplewallet.sol\":9195:9282  result =abi.encodeWithSelector(bytes4(keccak256(\"removeOwners(address,uint256)\")), x,y) */\n      swap1\n      pop\n        /* \"contracts/Try01/Simplewallet.sol\":9093:9314  function removeOwnersencode(address x, uint256 y) public pure returns(bytes memory result) {... */\n      swap3\n      swap2\n      pop\n      pop\n      jump\t// out\n        /* \"contracts/Try01/Simplewallet.sol\":8561:8767  function changeThresholdencode(uint256 x) public pure returns(bytes memory result) {... */\n    tag_58:\n        /* \"contracts/Try01/Simplewallet.sol\":8623:8642  bytes memory result */\n      0x60\n        /* \"contracts/Try01/Simplewallet.sol\":8693:8730  keccak256(\"changeThreshold(uint256)\") */\n      0x694e80c37192d74d6099f3d3b41506932ab644a24442ee51857cfeb9eb01ac2f\n        /* \"contracts/Try01/Simplewallet.sol\":8733:8734  x */\n      dup3\n        /* \"contracts/Try01/Simplewallet.sol\":8663:8735  abi.encodeWithSelector(bytes4(keccak256(\"changeThreshold(uint256)\")), x) */\n      add(0x24, mload(0x40))\n      tag_149\n      swap2\n      swap1\n      tag_21\n      jump\t// in\n    tag_149:\n      mload(0x40)\n      0x20\n      dup2\n      dup4\n      sub\n      sub\n      dup2\n      mstore\n      swap1\n      0x40\n      mstore\n      swap1\n      not(0xffffffffffffffffffffffffffffffffffffffffffffffffffffffff)\n      and\n      0x20\n      dup3\n      add\n      dup1\n      mload\n      0xffffffffffffffffffffffffffffffffffffffffffffffffffffffff\n      dup4\n      dup2\n      dup4\n      and\n      or\n      dup4\n      mstore\n      pop\n      pop\n      pop\n      pop\n        /* \"contracts/Try01/Simplewallet.sol\":8655:8735  result =abi.encodeWithSelector(bytes4(keccak256(\"changeThreshold(uint256)\")), x) */\n      swap1\n      pop\n        /* \"contracts/Try01/Simplewallet.sol\":8561:8767  function changeThresholdencode(uint256 x) public pure returns(bytes memory result) {... */\n      swap2\n      swap1\n      pop\n      jump\t// out\n        /* \"contracts/Try01/Simplewallet.sol\":7336:7676  function changeThreshold(uint256 new_threshold)public signed{... */\n    tag_63:\n        /* \"contracts/Try01/Simplewallet.sol\":668:672  this */\n      address\n        /* \"contracts/Try01/Simplewallet.sol\":648:673  msg.sender==address(this) */\n      0xffffffffffffffffffffffffffffffffffffffff\n      and\n        /* \"contracts/Try01/Simplewallet.sol\":648:658  msg.sender */\n      caller\n        /* \"contracts/Try01/Simplewallet.sol\":648:673  msg.sender==address(this) */\n      0xffffffffffffffffffffffffffffffffffffffff\n      and\n      eq\n        /* \"contracts/Try01/Simplewallet.sol\":640:691  require(msg.sender==address(this),\"Not authorized\") */\n      tag_151\n      jumpi\n      mload(0x40)\n      0x08c379a000000000000000000000000000000000000000000000000000000000\n      dup2\n      mstore\n      0x04\n      add\n      tag_152\n      swap1\n      tag_117\n      jump\t// in\n    tag_152:\n      mload(0x40)\n      dup1\n      swap2\n      sub\n      swap1\n      revert\n    tag_151:\n        /* \"contracts/Try01/Simplewallet.sol\":7481:7491  owners_num */\n      sload(0x02)\n        /* \"contracts/Try01/Simplewallet.sol\":7464:7477  new_threshold */\n      dup2\n        /* \"contracts/Try01/Simplewallet.sol\":7464:7491  new_threshold <= owners_num */\n      gt\n      iszero\n        /* \"contracts/Try01/Simplewallet.sol\":7456:7503  require(new_threshold <= owners_num, \"error02\") */\n      tag_154\n      jumpi\n      mload(0x40)\n      0x08c379a000000000000000000000000000000000000000000000000000000000\n      dup2\n      mstore\n      0x04\n      add\n      tag_155\n      swap1\n      tag_156\n      jump\t// in\n    tag_155:\n      mload(0x40)\n      dup1\n      swap2\n      sub\n      swap1\n      revert\n    tag_154:\n        /* \"contracts/Try01/Simplewallet.sol\":7577:7578  1 */\n      0x01\n        /* \"contracts/Try01/Simplewallet.sol\":7560:7573  new_threshold */\n      dup2\n        /* \"contracts/Try01/Simplewallet.sol\":7560:7578  new_threshold >= 1 */\n      lt\n      iszero\n        /* \"contracts/Try01/Simplewallet.sol\":7552:7590  require(new_threshold >= 1, \"error03\") */\n      tag_157\n      jumpi\n      mload(0x40)\n      0x08c379a000000000000000000000000000000000000000000000000000000000\n      dup2\n      mstore\n      0x04\n      add\n      tag_158\n      swap1\n      tag_159\n      jump\t// in\n    tag_158:\n      mload(0x40)\n      dup1\n      swap2\n      sub\n      swap1\n      revert\n    tag_157:\n        /* \"contracts/Try01/Simplewallet.sol\":7613:7626  new_threshold */\n      dup1\n        /* \"contracts/Try01/Simplewallet.sol\":7601:7610  threshold */\n      0x03\n        /* \"contracts/Try01/Simplewallet.sol\":7601:7626  threshold = new_threshold */\n      dup2\n      swap1\n      sstore\n      pop\n        /* \"contracts/Try01/Simplewallet.sol\":7642:7668  ChangeThreshold(threshold) */\n      0x9947ac58e204d2da07b9748298663b3b77da7fb0638201d778987ded7c90fbaa\n        /* \"contracts/Try01/Simplewallet.sol\":7658:7667  threshold */\n      sload(0x03)\n        /* \"contracts/Try01/Simplewallet.sol\":7642:7668  ChangeThreshold(threshold) */\n      mload(0x40)\n      tag_160\n      swap2\n      swap1\n      tag_21\n      jump\t// in\n    tag_160:\n      mload(0x40)\n      dup1\n      swap2\n      sub\n      swap1\n      log1\n        /* \"contracts/Try01/Simplewallet.sol\":7336:7676  function changeThreshold(uint256 new_threshold)public signed{... */\n      pop\n      jump\t// out\n        /* \"contracts/Try01/Simplewallet.sol\":7711:7800  function checkThreshold()public view  returns(uint256){... */\n    tag_66:\n        /* \"contracts/Try01/Simplewallet.sol\":7757:7764  uint256 */\n      0x00\n        /* \"contracts/Try01/Simplewallet.sol\":7783:7792  threshold */\n      sload(0x03)\n        /* \"contracts/Try01/Simplewallet.sol\":7776:7792  return threshold */\n      swap1\n      pop\n        /* \"contracts/Try01/Simplewallet.sol\":7711:7800  function checkThreshold()public view  returns(uint256){... */\n      swap1\n      jump\t// out\n        /* \"contracts/Try01/Simplewallet.sol\":3006:3314  function checkSignature(bytes32 datatxhash, bytes memory signatures)public view {... */\n    tag_72:\n        /* \"contracts/Try01/Simplewallet.sol\":3097:3115  uint256 _threshold */\n      0x00\n        /* \"contracts/Try01/Simplewallet.sol\":3118:3127  threshold */\n      sload(0x03)\n        /* \"contracts/Try01/Simplewallet.sol\":3097:3127  uint256 _threshold = threshold */\n      swap1\n      pop\n        /* \"contracts/Try01/Simplewallet.sol\":3196:3197  0 */\n      0x00\n        /* \"contracts/Try01/Simplewallet.sol\":3183:3193  _threshold */\n      dup2\n        /* \"contracts/Try01/Simplewallet.sol\":3183:3197  _threshold > 0 */\n      gt\n        /* \"contracts/Try01/Simplewallet.sol\":3175:3209  require(_threshold > 0, \"error05\") */\n      tag_163\n      jumpi\n      mload(0x40)\n      0x08c379a000000000000000000000000000000000000000000000000000000000\n      dup2\n      mstore\n      0x04\n      add\n      tag_164\n      swap1\n      tag_165\n      jump\t// in\n    tag_164:\n      mload(0x40)\n      dup1\n      swap2\n      sub\n      swap1\n      revert\n    tag_163:\n        /* \"contracts/Try01/Simplewallet.sol\":3251:3306  startCheckSignature(datatxhash, signatures, _threshold) */\n      tag_166\n        /* \"contracts/Try01/Simplewallet.sol\":3271:3281  datatxhash */\n      dup4\n        /* \"contracts/Try01/Simplewallet.sol\":3283:3293  signatures */\n      dup4\n        /* \"contracts/Try01/Simplewallet.sol\":3295:3305  _threshold */\n      dup4\n        /* \"contracts/Try01/Simplewallet.sol\":3251:3270  startCheckSignature */\n      tag_167\n        /* \"contracts/Try01/Simplewallet.sol\":3251:3306  startCheckSignature(datatxhash, signatures, _threshold) */\n      jump\t// in\n    tag_166:\n        /* \"contracts/Try01/Simplewallet.sol\":3086:3314  {... */\n      pop\n        /* \"contracts/Try01/Simplewallet.sol\":3006:3314  function checkSignature(bytes32 datatxhash, bytes memory signatures)public view {... */\n      pop\n      pop\n      jump\t// out\n        /* \"contracts/Try01/Simplewallet.sol\":5038:5277  function getTxhash(... */\n    tag_77:\n        /* \"contracts/Try01/Simplewallet.sol\":5157:5164  bytes32 */\n      0x00\n        /* \"contracts/Try01/Simplewallet.sol\":5226:5269  encodetx(to,value,data,nonce,block.chainid) */\n      tag_169\n        /* \"contracts/Try01/Simplewallet.sol\":5235:5237  to */\n      dup5\n        /* \"contracts/Try01/Simplewallet.sol\":5238:5243  value */\n      dup5\n        /* \"contracts/Try01/Simplewallet.sol\":5244:5248  data */\n      dup5\n        /* \"contracts/Try01/Simplewallet.sol\":5249:5254  nonce */\n      sload(0x04)\n        /* \"contracts/Try01/Simplewallet.sol\":5255:5268  block.chainid */\n      chainid\n        /* \"contracts/Try01/Simplewallet.sol\":5226:5234  encodetx */\n      tag_134\n        /* \"contracts/Try01/Simplewallet.sol\":5226:5269  encodetx(to,value,data,nonce,block.chainid) */\n      jump\t// in\n    tag_169:\n        /* \"contracts/Try01/Simplewallet.sol\":5219:5269  return encodetx(to,value,data,nonce,block.chainid) */\n      swap1\n      pop\n        /* \"contracts/Try01/Simplewallet.sol\":5038:5277  function getTxhash(... */\n      swap4\n      swap3\n      pop\n      pop\n      pop\n      jump\t// out\n        /* \"contracts/Try01/Simplewallet.sol\":1007:1027  uint256 public nonce */\n    tag_82:\n      sload(0x04)\n      dup2\n      jump\t// out\n        /* \"contracts/Try01/Simplewallet.sol\":6594:7247  function removeOwners(address preowner, uint256 new_threshold)public signed{... */\n    tag_87:\n        /* \"contracts/Try01/Simplewallet.sol\":668:672  this */\n      address\n        /* \"contracts/Try01/Simplewallet.sol\":648:673  msg.sender==address(this) */\n      0xffffffffffffffffffffffffffffffffffffffff\n      and\n        /* \"contracts/Try01/Simplewallet.sol\":648:658  msg.sender */\n      caller\n        /* \"contracts/Try01/Simplewallet.sol\":648:673  msg.sender==address(this) */\n      0xffffffffffffffffffffffffffffffffffffffff\n      and\n      eq\n        /* \"contracts/Try01/Simplewallet.sol\":640:691  require(msg.sender==address(this),\"Not authorized\") */\n      tag_171\n      jumpi\n      mload(0x40)\n      0x08c379a000000000000000000000000000000000000000000000000000000000\n      dup2\n      mstore\n      0x04\n      add\n      tag_172\n      swap1\n      tag_117\n      jump\t// in\n    tag_172:\n      mload(0x40)\n      dup1\n      swap2\n      sub\n      swap1\n      revert\n    tag_171:\n        /* \"contracts/Try01/Simplewallet.sol\":6748:6761  new_threshold */\n      dup1\n        /* \"contracts/Try01/Simplewallet.sol\":6744:6745  1 */\n      0x01\n        /* \"contracts/Try01/Simplewallet.sol\":6731:6741  owners_num */\n      sload(0x02)\n        /* \"contracts/Try01/Simplewallet.sol\":6731:6745  owners_num - 1 */\n      tag_174\n      swap2\n      swap1\n      tag_175\n      jump\t// in\n    tag_174:\n        /* \"contracts/Try01/Simplewallet.sol\":6731:6761  owners_num - 1 >=new_threshold */\n      lt\n      iszero\n        /* \"contracts/Try01/Simplewallet.sol\":6723:6772  require(owners_num - 1 >=new_threshold,\"error02\") */\n      tag_176\n      jumpi\n      mload(0x40)\n      0x08c379a000000000000000000000000000000000000000000000000000000000\n      dup2\n      mstore\n      0x04\n      add\n      tag_177\n      swap1\n      tag_156\n      jump\t// in\n    tag_177:\n      mload(0x40)\n      dup1\n      swap2\n      sub\n      swap1\n      revert\n    tag_176:\n        /* \"contracts/Try01/Simplewallet.sol\":6831:6839  isowners */\n      0x01\n        /* \"contracts/Try01/Simplewallet.sol\":6831:6849  isowners[preowner] */\n      0x00\n        /* \"contracts/Try01/Simplewallet.sol\":6840:6848  preowner */\n      dup4\n        /* \"contracts/Try01/Simplewallet.sol\":6831:6849  isowners[preowner] */\n      0xffffffffffffffffffffffffffffffffffffffff\n      and\n      0xffffffffffffffffffffffffffffffffffffffff\n      and\n      dup2\n      mstore\n      0x20\n      add\n      swap1\n      dup2\n      mstore\n      0x20\n      add\n      0x00\n      keccak256\n      0x00\n      swap1\n      sload\n      swap1\n      0x0100\n      exp\n      swap1\n      div\n      0xff\n      and\n        /* \"contracts/Try01/Simplewallet.sol\":6823:6860  require(isowners[preowner],\"error07\") */\n      tag_178\n      jumpi\n      mload(0x40)\n      0x08c379a000000000000000000000000000000000000000000000000000000000\n      dup2\n      mstore\n      0x04\n      add\n      tag_179\n      swap1\n      tag_180\n      jump\t// in\n    tag_179:\n      mload(0x40)\n      dup1\n      swap2\n      sub\n      swap1\n      revert\n    tag_178:\n        /* \"contracts/Try01/Simplewallet.sol\":6920:6925  false */\n      0x00\n        /* \"contracts/Try01/Simplewallet.sol\":6899:6907  isowners */\n      0x01\n        /* \"contracts/Try01/Simplewallet.sol\":6899:6917  isowners[preowner] */\n      0x00\n        /* \"contracts/Try01/Simplewallet.sol\":6908:6916  preowner */\n      dup5\n        /* \"contracts/Try01/Simplewallet.sol\":6899:6917  isowners[preowner] */\n      0xffffffffffffffffffffffffffffffffffffffff\n      and\n      0xffffffffffffffffffffffffffffffffffffffff\n      and\n      dup2\n      mstore\n      0x20\n      add\n      swap1\n      dup2\n      mstore\n      0x20\n      add\n      0x00\n      keccak256\n      0x00\n        /* \"contracts/Try01/Simplewallet.sol\":6899:6925  isowners[preowner] = false */\n      0x0100\n      exp\n      dup2\n      sload\n      dup2\n      0xff\n      mul\n      not\n      and\n      swap1\n      dup4\n      iszero\n      iszero\n      mul\n      or\n      swap1\n      sstore\n      pop\n        /* \"contracts/Try01/Simplewallet.sol\":6941:6950  uint256 i */\n      0x00\n        /* \"contracts/Try01/Simplewallet.sol\":6936:7108  for (uint256 i=0; i<owners.length; i++){... */\n    tag_181:\n        /* \"contracts/Try01/Simplewallet.sol\":6956:6962  owners */\n      0x00\n        /* \"contracts/Try01/Simplewallet.sol\":6956:6969  owners.length */\n      dup1\n      sload\n      swap1\n      pop\n        /* \"contracts/Try01/Simplewallet.sol\":6954:6955  i */\n      dup2\n        /* \"contracts/Try01/Simplewallet.sol\":6954:6969  i<owners.length */\n      lt\n        /* \"contracts/Try01/Simplewallet.sol\":6936:7108  for (uint256 i=0; i<owners.length; i++){... */\n      iszero\n      tag_182\n      jumpi\n        /* \"contracts/Try01/Simplewallet.sol\":7007:7015  preowner */\n      dup3\n        /* \"contracts/Try01/Simplewallet.sol\":6994:7015  owners[i] == preowner */\n      0xffffffffffffffffffffffffffffffffffffffff\n      and\n        /* \"contracts/Try01/Simplewallet.sol\":6994:7000  owners */\n      0x00\n        /* \"contracts/Try01/Simplewallet.sol\":7001:7002  i */\n      dup3\n        /* \"contracts/Try01/Simplewallet.sol\":6994:7003  owners[i] */\n      dup2\n      sload\n      dup2\n      lt\n      tag_184\n      jumpi\n      tag_185\n      tag_103\n      jump\t// in\n    tag_185:\n    tag_184:\n      swap1\n      0x00\n      mstore\n      keccak256(0x00, 0x20)\n      add\n      0x00\n      swap1\n      sload\n      swap1\n      0x0100\n      exp\n      swap1\n      div\n      0xffffffffffffffffffffffffffffffffffffffff\n      and\n        /* \"contracts/Try01/Simplewallet.sol\":6994:7015  owners[i] == preowner */\n      0xffffffffffffffffffffffffffffffffffffffff\n      and\n      sub\n        /* \"contracts/Try01/Simplewallet.sol\":6990:7097  if (owners[i] == preowner){... */\n      tag_187\n      jumpi\n        /* \"contracts/Try01/Simplewallet.sol\":7055:7056  0 */\n      0x00\n        /* \"contracts/Try01/Simplewallet.sol\":7035:7041  owners */\n      dup1\n        /* \"contracts/Try01/Simplewallet.sol\":7042:7043  i */\n      dup3\n        /* \"contracts/Try01/Simplewallet.sol\":7035:7044  owners[i] */\n      dup2\n      sload\n      dup2\n      lt\n      tag_188\n      jumpi\n      tag_189\n      tag_103\n      jump\t// in\n    tag_189:\n    tag_188:\n      swap1\n      0x00\n      mstore\n      keccak256(0x00, 0x20)\n      add\n      0x00\n        /* \"contracts/Try01/Simplewallet.sol\":7035:7057  owners[i] = address(0) */\n      0x0100\n      exp\n      dup2\n      sload\n      dup2\n      0xffffffffffffffffffffffffffffffffffffffff\n      mul\n      not\n      and\n      swap1\n      dup4\n      0xffffffffffffffffffffffffffffffffffffffff\n      and\n      mul\n      or\n      swap1\n      sstore\n      pop\n        /* \"contracts/Try01/Simplewallet.sol\":7076:7081  break */\n      jump(tag_182)\n        /* \"contracts/Try01/Simplewallet.sol\":6990:7097  if (owners[i] == preowner){... */\n    tag_187:\n        /* \"contracts/Try01/Simplewallet.sol\":6971:6974  i++ */\n      dup1\n      dup1\n      tag_191\n      swap1\n      tag_112\n      jump\t// in\n    tag_191:\n      swap2\n      pop\n      pop\n        /* \"contracts/Try01/Simplewallet.sol\":6936:7108  for (uint256 i=0; i<owners.length; i++){... */\n      jump(tag_181)\n    tag_182:\n      pop\n        /* \"contracts/Try01/Simplewallet.sol\":7118:7128  owners_num */\n      0x02\n      0x00\n        /* \"contracts/Try01/Simplewallet.sol\":7118:7130  owners_num-- */\n      dup2\n      sload\n      dup1\n      swap3\n      swap2\n      swap1\n      tag_192\n      swap1\n      tag_193\n      jump\t// in\n    tag_192:\n      swap2\n      swap1\n      pop\n      sstore\n      pop\n        /* \"contracts/Try01/Simplewallet.sol\":7158:7166  preowner */\n      dup2\n        /* \"contracts/Try01/Simplewallet.sol\":7146:7167  RemoveOwner(preowner) */\n      0xffffffffffffffffffffffffffffffffffffffff\n      and\n      0xac6e8398676cf37429d530b81144d7079e99f4fe9d28b0d88c4a749ceccbe8cd\n      mload(0x40)\n      mload(0x40)\n      dup1\n      swap2\n      sub\n      swap1\n      log2\n        /* \"contracts/Try01/Simplewallet.sol\":7198:7207  threshold */\n      sload(0x03)\n        /* \"contracts/Try01/Simplewallet.sol\":7181:7194  new_threshold */\n      dup2\n        /* \"contracts/Try01/Simplewallet.sol\":7181:7207  new_threshold != threshold */\n      eq\n        /* \"contracts/Try01/Simplewallet.sol\":7178:7239  if(new_threshold != threshold) changeThreshold(new_threshold) */\n      tag_194\n      jumpi\n        /* \"contracts/Try01/Simplewallet.sol\":7209:7239  changeThreshold(new_threshold) */\n      tag_195\n        /* \"contracts/Try01/Simplewallet.sol\":7225:7238  new_threshold */\n      dup2\n        /* \"contracts/Try01/Simplewallet.sol\":7209:7224  changeThreshold */\n      tag_63\n        /* \"contracts/Try01/Simplewallet.sol\":7209:7239  changeThreshold(new_threshold) */\n      jump\t// in\n    tag_195:\n        /* \"contracts/Try01/Simplewallet.sol\":7178:7239  if(new_threshold != threshold) changeThreshold(new_threshold) */\n    tag_194:\n        /* \"contracts/Try01/Simplewallet.sol\":6594:7247  function removeOwners(address preowner, uint256 new_threshold)public signed{... */\n      pop\n      pop\n      jump\t// out\n        /* \"contracts/Try01/Simplewallet.sol\":8815:9042  function addOwnersencode(address x, uint256 y) public pure returns(bytes memory result) {... */\n    tag_91:\n        /* \"contracts/Try01/Simplewallet.sol\":8882:8901  bytes memory result */\n      0x60\n        /* \"contracts/Try01/Simplewallet.sol\":8952:9004  keccak256(\"addOwnersAndThreshold(address, uint256)\") */\n      0x0f6fd209ba0161acfd0f4d4fa947b5907845ed1e66071e030be54ba4c310c5a6\n        /* \"contracts/Try01/Simplewallet.sol\":9006:9007  x */\n      dup4\n        /* \"contracts/Try01/Simplewallet.sol\":9008:9009  y */\n      dup4\n        /* \"contracts/Try01/Simplewallet.sol\":8922:9010  abi.encodeWithSelector(bytes4(keccak256(\"addOwnersAndThreshold(address, uint256)\")),x,y) */\n      add(0x24, mload(0x40))\n      tag_197\n      swap3\n      swap2\n      swap1\n      tag_147\n      jump\t// in\n    tag_197:\n      mload(0x40)\n      0x20\n      dup2\n      dup4\n      sub\n      sub\n      dup2\n      mstore\n      swap1\n      0x40\n      mstore\n      swap1\n      not(0xffffffffffffffffffffffffffffffffffffffffffffffffffffffff)\n      and\n      0x20\n      dup3\n      add\n      dup1\n      mload\n      0xffffffffffffffffffffffffffffffffffffffffffffffffffffffff\n      dup4\n      dup2\n      dup4\n      and\n      or\n      dup4\n      mstore\n      pop\n      pop\n      pop\n      pop\n        /* \"contracts/Try01/Simplewallet.sol\":8914:9010  result =abi.encodeWithSelector(bytes4(keccak256(\"addOwnersAndThreshold(address, uint256)\")),x,y) */\n      swap1\n      pop\n        /* \"contracts/Try01/Simplewallet.sol\":8815:9042  function addOwnersencode(address x, uint256 y) public pure returns(bytes memory result) {... */\n      swap3\n      swap2\n      pop\n      pop\n      jump\t// out\n        /* \"contracts/Try01/Simplewallet.sol\":5311:5746  function encodetx(... */\n    tag_134:\n        /* \"contracts/Try01/Simplewallet.sol\":5480:5487  bytes32 */\n      0x00\n        /* \"contracts/Try01/Simplewallet.sol\":5499:5517  bytes32 safetxhash */\n      dup1\n        /* \"contracts/Try01/Simplewallet.sol\":5573:5575  to */\n      dup7\n        /* \"contracts/Try01/Simplewallet.sol\":5594:5599  value */\n      dup7\n        /* \"contracts/Try01/Simplewallet.sol\":5628:5632  data */\n      dup7\n        /* \"contracts/Try01/Simplewallet.sol\":5618:5633  keccak256(data) */\n      dup1\n      mload\n      swap1\n      0x20\n      add\n      keccak256\n        /* \"contracts/Try01/Simplewallet.sol\":5652:5658  _nonce */\n      dup7\n        /* \"contracts/Try01/Simplewallet.sol\":5677:5684  chainid */\n      dup7\n        /* \"contracts/Try01/Simplewallet.sol\":5544:5699  abi.encode(... */\n      add(0x20, mload(0x40))\n      tag_199\n      swap6\n      swap5\n      swap4\n      swap3\n      swap2\n      swap1\n      tag_200\n      jump\t// in\n    tag_199:\n      mload(0x40)\n      0x20\n      dup2\n      dup4\n      sub\n      sub\n      dup2\n      mstore\n      swap1\n      0x40\n      mstore\n        /* \"contracts/Try01/Simplewallet.sol\":5520:5710  keccak256(... */\n      dup1\n      mload\n      swap1\n      0x20\n      add\n      keccak256\n        /* \"contracts/Try01/Simplewallet.sol\":5499:5710  bytes32 safetxhash = keccak256(... */\n      swap1\n      pop\n        /* \"contracts/Try01/Simplewallet.sol\":5728:5738  safetxhash */\n      dup1\n        /* \"contracts/Try01/Simplewallet.sol\":5721:5738  return safetxhash */\n      swap2\n      pop\n      pop\n        /* \"contracts/Try01/Simplewallet.sol\":5311:5746  function encodetx(... */\n      swap6\n      swap5\n      pop\n      pop\n      pop\n      pop\n      pop\n      jump\t// out\n        /* \"contracts/Try01/Simplewallet.sol\":3320:4468  function startCheckSignature (bytes32 txhash, bytes memory signatures, uint256 numOfsignatures)internal view {... */\n    tag_167:\n        /* \"contracts/Try01/Simplewallet.sol\":3521:3523  65 */\n      0x41\n        /* \"contracts/Try01/Simplewallet.sol\":3503:3518  numOfsignatures */\n      dup2\n        /* \"contracts/Try01/Simplewallet.sol\":3503:3523  numOfsignatures * 65 */\n      tag_202\n      swap2\n      swap1\n      tag_203\n      jump\t// in\n    tag_202:\n        /* \"contracts/Try01/Simplewallet.sol\":3482:3492  signatures */\n      dup3\n        /* \"contracts/Try01/Simplewallet.sol\":3482:3499  signatures.length */\n      mload\n        /* \"contracts/Try01/Simplewallet.sol\":3482:3523  signatures.length >= numOfsignatures * 65 */\n      lt\n      iszero\n        /* \"contracts/Try01/Simplewallet.sol\":3474:3547  require(signatures.length >= numOfsignatures * 65,\"Signatures too short\") */\n      tag_204\n      jumpi\n      mload(0x40)\n      0x08c379a000000000000000000000000000000000000000000000000000000000\n      dup2\n      mstore\n      0x04\n      add\n      tag_205\n      swap1\n      tag_206\n      jump\t// in\n    tag_205:\n      mload(0x40)\n      dup1\n      swap2\n      sub\n      swap1\n      revert\n    tag_204:\n        /* \"contracts/Try01/Simplewallet.sol\":3826:3843  address lastowner */\n      0x00\n        /* \"contracts/Try01/Simplewallet.sol\":3854:3874  address currentowner */\n      dup1\n        /* \"contracts/Try01/Simplewallet.sol\":3885:3892  uint8 v */\n      0x00\n        /* \"contracts/Try01/Simplewallet.sol\":3903:3912  bytes32 r */\n      dup1\n        /* \"contracts/Try01/Simplewallet.sol\":3923:3932  bytes32 s */\n      0x00\n        /* \"contracts/Try01/Simplewallet.sol\":3943:3952  uint256 i */\n      dup1\n        /* \"contracts/Try01/Simplewallet.sol\":3969:3970  0 */\n      0x00\n        /* \"contracts/Try01/Simplewallet.sol\":3967:3970  i=0 */\n      swap1\n      pop\n        /* \"contracts/Try01/Simplewallet.sol\":3963:4461  for(i=0; i<numOfsignatures; i++){... */\n    tag_207:\n        /* \"contracts/Try01/Simplewallet.sol\":3974:3989  numOfsignatures */\n      dup7\n        /* \"contracts/Try01/Simplewallet.sol\":3972:3973  i */\n      dup2\n        /* \"contracts/Try01/Simplewallet.sol\":3972:3989  i<numOfsignatures */\n      lt\n        /* \"contracts/Try01/Simplewallet.sol\":3963:4461  for(i=0; i<numOfsignatures; i++){... */\n      iszero\n      tag_208\n      jumpi\n        /* \"contracts/Try01/Simplewallet.sol\":4022:4051  signatureSplit(signatures, i) */\n      tag_210\n        /* \"contracts/Try01/Simplewallet.sol\":4037:4047  signatures */\n      dup9\n        /* \"contracts/Try01/Simplewallet.sol\":4049:4050  i */\n      dup3\n        /* \"contracts/Try01/Simplewallet.sol\":4022:4036  signatureSplit */\n      tag_211\n        /* \"contracts/Try01/Simplewallet.sol\":4022:4051  signatureSplit(signatures, i) */\n      jump\t// in\n    tag_210:\n        /* \"contracts/Try01/Simplewallet.sol\":4010:4051  (v, r, s) = signatureSplit(signatures, i) */\n      dup1\n      swap5\n      pop\n      dup2\n      swap6\n      pop\n      dup3\n      swap7\n      pop\n      pop\n      pop\n      pop\n        /* \"contracts/Try01/Simplewallet.sol\":4190:4280  ecrecover(keccak256(abi.encodePacked(\"\\x19Ethereum Signed Message:\\n32\",txhash)), v, r, s) */\n      0x01\n        /* \"contracts/Try01/Simplewallet.sol\":4262:4268  txhash */\n      dup10\n        /* \"contracts/Try01/Simplewallet.sol\":4210:4269  abi.encodePacked(\"\\x19Ethereum Signed Message:\\n32\",txhash) */\n      add(0x20, mload(0x40))\n      tag_212\n      swap2\n      swap1\n      tag_213\n      jump\t// in\n    tag_212:\n      mload(0x40)\n      0x20\n      dup2\n      dup4\n      sub\n      sub\n      dup2\n      mstore\n      swap1\n      0x40\n      mstore\n        /* \"contracts/Try01/Simplewallet.sol\":4200:4270  keccak256(abi.encodePacked(\"\\x19Ethereum Signed Message:\\n32\",txhash)) */\n      dup1\n      mload\n      swap1\n      0x20\n      add\n      keccak256\n        /* \"contracts/Try01/Simplewallet.sol\":4272:4273  v */\n      dup6\n        /* \"contracts/Try01/Simplewallet.sol\":4275:4276  r */\n      dup6\n        /* \"contracts/Try01/Simplewallet.sol\":4278:4279  s */\n      dup6\n        /* \"contracts/Try01/Simplewallet.sol\":4190:4280  ecrecover(keccak256(abi.encodePacked(\"\\x19Ethereum Signed Message:\\n32\",txhash)), v, r, s) */\n      mload(0x40)\n      0x00\n      dup2\n      mstore\n      0x20\n      add\n      0x40\n      mstore\n      mload(0x40)\n      tag_214\n      swap5\n      swap4\n      swap3\n      swap2\n      swap1\n      tag_215\n      jump\t// in\n    tag_214:\n      0x20\n      mload(0x40)\n      0x20\n      dup2\n      sub\n      swap1\n      dup1\n      dup5\n      sub\n      swap1\n      dup6\n      gas\n      staticcall\n      iszero\n      dup1\n      iszero\n      tag_217\n      jumpi\n      returndatasize\n      0x00\n      dup1\n      returndatacopy\n      revert(0x00, returndatasize)\n    tag_217:\n      pop\n      pop\n      pop\n      mload(sub(mload(0x40), 0x20))\n        /* \"contracts/Try01/Simplewallet.sol\":4175:4280  currentowner = ecrecover(keccak256(abi.encodePacked(\"\\x19Ethereum Signed Message:\\n32\",txhash)), v, r, s) */\n      swap5\n      pop\n        /* \"contracts/Try01/Simplewallet.sol\":4319:4328  lastowner */\n      dup6\n        /* \"contracts/Try01/Simplewallet.sol\":4303:4328  currentowner != lastowner */\n      0xffffffffffffffffffffffffffffffffffffffff\n      and\n        /* \"contracts/Try01/Simplewallet.sol\":4303:4315  currentowner */\n      dup6\n        /* \"contracts/Try01/Simplewallet.sol\":4303:4328  currentowner != lastowner */\n      0xffffffffffffffffffffffffffffffffffffffff\n      and\n      eq\n      iszero\n        /* \"contracts/Try01/Simplewallet.sol\":4303:4354  currentowner != lastowner && isowners[currentowner] */\n      dup1\n      iszero\n      tag_218\n      jumpi\n      pop\n        /* \"contracts/Try01/Simplewallet.sol\":4332:4340  isowners */\n      0x01\n        /* \"contracts/Try01/Simplewallet.sol\":4332:4354  isowners[currentowner] */\n      0x00\n        /* \"contracts/Try01/Simplewallet.sol\":4341:4353  currentowner */\n      dup7\n        /* \"contracts/Try01/Simplewallet.sol\":4332:4354  isowners[currentowner] */\n      0xffffffffffffffffffffffffffffffffffffffff\n      and\n      0xffffffffffffffffffffffffffffffffffffffff\n      and\n      dup2\n      mstore\n      0x20\n      add\n      swap1\n      dup2\n      mstore\n      0x20\n      add\n      0x00\n      keccak256\n      0x00\n      swap1\n      sload\n      swap1\n      0x0100\n      exp\n      swap1\n      div\n      0xff\n      and\n        /* \"contracts/Try01/Simplewallet.sol\":4303:4354  currentowner != lastowner && isowners[currentowner] */\n    tag_218:\n        /* \"contracts/Try01/Simplewallet.sol\":4295:4366  require(currentowner != lastowner && isowners[currentowner], \"error06\") */\n      tag_219\n      jumpi\n      mload(0x40)\n      0x08c379a000000000000000000000000000000000000000000000000000000000\n      dup2\n      mstore\n      0x04\n      add\n      tag_220\n      swap1\n      tag_221\n      jump\t// in\n    tag_220:\n      mload(0x40)\n      dup1\n      swap2\n      sub\n      swap1\n      revert\n    tag_219:\n        /* \"contracts/Try01/Simplewallet.sol\":4437:4449  currentowner */\n      dup5\n        /* \"contracts/Try01/Simplewallet.sol\":4425:4449  lastowner = currentowner */\n      swap6\n      pop\n        /* \"contracts/Try01/Simplewallet.sol\":3991:3994  i++ */\n      dup1\n      dup1\n      tag_222\n      swap1\n      tag_112\n      jump\t// in\n    tag_222:\n      swap2\n      pop\n      pop\n        /* \"contracts/Try01/Simplewallet.sol\":3963:4461  for(i=0; i<numOfsignatures; i++){... */\n      jump(tag_207)\n    tag_208:\n        /* \"contracts/Try01/Simplewallet.sol\":3429:4468  {... */\n      pop\n      pop\n      pop\n      pop\n      pop\n      pop\n        /* \"contracts/Try01/Simplewallet.sol\":3320:4468  function startCheckSignature (bytes32 txhash, bytes memory signatures, uint256 numOfsignatures)internal view {... */\n      pop\n      pop\n      pop\n      jump\t// out\n        /* \"contracts/Try01/Simplewallet.sol\":4534:5003  function signatureSplit(bytes memory signatures, uint256 pos)internal pure returns(uint8 v,bytes32 r,bytes32 s){... */\n    tag_211:\n        /* \"contracts/Try01/Simplewallet.sol\":4617:4624  uint8 v */\n      0x00\n        /* \"contracts/Try01/Simplewallet.sol\":4625:4634  bytes32 r */\n      dup1\n        /* \"contracts/Try01/Simplewallet.sol\":4635:4644  bytes32 s */\n      0x00\n        /* \"contracts/Try01/Simplewallet.sol\":4772:4775  pos */\n      dup4\n        /* \"contracts/Try01/Simplewallet.sol\":4766:4770  0x41 */\n      0x41\n        /* \"contracts/Try01/Simplewallet.sol\":4762:4776  mul(0x41, pos) */\n      mul\n        /* \"contracts/Try01/Simplewallet.sol\":4835:4839  0x20 */\n      0x20\n        /* \"contracts/Try01/Simplewallet.sol\":4821:4833  signaturePos */\n      dup2\n        /* \"contracts/Try01/Simplewallet.sol\":4817:4840  add(signaturePos, 0x20) */\n      add\n        /* \"contracts/Try01/Simplewallet.sol\":4805:4815  signatures */\n      dup7\n        /* \"contracts/Try01/Simplewallet.sol\":4801:4841  add(signatures, add(signaturePos, 0x20)) */\n      add\n        /* \"contracts/Try01/Simplewallet.sol\":4795:4842  mload(add(signatures, add(signaturePos, 0x20))) */\n      mload\n        /* \"contracts/Try01/Simplewallet.sol\":4790:4842  r := mload(add(signatures, add(signaturePos, 0x20))) */\n      swap3\n      pop\n        /* \"contracts/Try01/Simplewallet.sol\":4901:4905  0x40 */\n      0x40\n        /* \"contracts/Try01/Simplewallet.sol\":4887:4899  signaturePos */\n      dup2\n        /* \"contracts/Try01/Simplewallet.sol\":4883:4906  add(signaturePos, 0x40) */\n      add\n        /* \"contracts/Try01/Simplewallet.sol\":4871:4881  signatures */\n      dup7\n        /* \"contracts/Try01/Simplewallet.sol\":4867:4907  add(signatures, add(signaturePos, 0x40)) */\n      add\n        /* \"contracts/Try01/Simplewallet.sol\":4861:4908  mload(add(signatures, add(signaturePos, 0x40))) */\n      mload\n        /* \"contracts/Try01/Simplewallet.sol\":4856:4908  s := mload(add(signatures, add(signaturePos, 0x40))) */\n      swap2\n      pop\n        /* \"contracts/Try01/Simplewallet.sol\":4980:4984  0xff */\n      0xff\n        /* \"contracts/Try01/Simplewallet.sol\":4971:4975  0x41 */\n      0x41\n        /* \"contracts/Try01/Simplewallet.sol\":4957:4969  signaturePos */\n      dup3\n        /* \"contracts/Try01/Simplewallet.sol\":4953:4976  add(signaturePos, 0x41) */\n      add\n        /* \"contracts/Try01/Simplewallet.sol\":4941:4951  signatures */\n      dup8\n        /* \"contracts/Try01/Simplewallet.sol\":4937:4977  add(signatures, add(signaturePos, 0x41)) */\n      add\n        /* \"contracts/Try01/Simplewallet.sol\":4931:4978  mload(add(signatures, add(signaturePos, 0x41))) */\n      mload\n        /* \"contracts/Try01/Simplewallet.sol\":4927:4985  and(mload(add(signatures, add(signaturePos, 0x41))), 0xff) */\n      and\n        /* \"contracts/Try01/Simplewallet.sol\":4922:4985  v := and(mload(add(signatures, add(signaturePos, 0x41))), 0xff) */\n      swap4\n      pop\n        /* \"contracts/Try01/Simplewallet.sol\":4727:4996  {... */\n      pop\n        /* \"contracts/Try01/Simplewallet.sol\":4534:5003  function signatureSplit(bytes memory signatures, uint256 pos)internal pure returns(uint8 v,bytes32 r,bytes32 s){... */\n      swap3\n      pop\n      swap3\n      pop\n      swap3\n      jump\t// out\n        /* \"#utility.yul\":7:84   */\n    tag_224:\n        /* \"#utility.yul\":44:51   */\n      0x00\n        /* \"#utility.yul\":73:78   */\n      dup2\n        /* \"#utility.yul\":62:78   */\n      swap1\n      pop\n        /* \"#utility.yul\":7:84   */\n      swap2\n      swap1\n      pop\n      jump\t// out\n        /* \"#utility.yul\":90:208   */\n    tag_225:\n        /* \"#utility.yul\":177:201   */\n      tag_296\n        /* \"#utility.yul\":195:200   */\n      dup2\n        /* \"#utility.yul\":177:201   */\n      tag_224\n      jump\t// in\n    tag_296:\n        /* \"#utility.yul\":172:175   */\n      dup3\n        /* \"#utility.yul\":165:202   */\n      mstore\n        /* \"#utility.yul\":90:208   */\n      pop\n      pop\n      jump\t// out\n        /* \"#utility.yul\":214:436   */\n    tag_21:\n        /* \"#utility.yul\":307:311   */\n      0x00\n        /* \"#utility.yul\":345:347   */\n      0x20\n        /* \"#utility.yul\":334:343   */\n      dup3\n        /* \"#utility.yul\":330:348   */\n      add\n        /* \"#utility.yul\":322:348   */\n      swap1\n      pop\n        /* \"#utility.yul\":358:429   */\n      tag_298\n        /* \"#utility.yul\":426:427   */\n      0x00\n        /* \"#utility.yul\":415:424   */\n      dup4\n        /* \"#utility.yul\":411:428   */\n      add\n        /* \"#utility.yul\":402:408   */\n      dup5\n        /* \"#utility.yul\":358:429   */\n      tag_225\n      jump\t// in\n    tag_298:\n        /* \"#utility.yul\":214:436   */\n      swap3\n      swap2\n      pop\n      pop\n      jump\t// out\n        /* \"#utility.yul\":442:610   */\n    tag_226:\n        /* \"#utility.yul\":525:536   */\n      0x00\n        /* \"#utility.yul\":559:565   */\n      dup3\n        /* \"#utility.yul\":554:557   */\n      dup3\n        /* \"#utility.yul\":547:566   */\n      mstore\n        /* \"#utility.yul\":599:603   */\n      0x20\n        /* \"#utility.yul\":594:597   */\n      dup3\n        /* \"#utility.yul\":590:604   */\n      add\n        /* \"#utility.yul\":575:604   */\n      swap1\n      pop\n        /* \"#utility.yul\":442:610   */\n      swap3\n      swap2\n      pop\n      pop\n      jump\t// out\n        /* \"#utility.yul\":616:762   */\n    tag_227:\n        /* \"#utility.yul\":713:719   */\n      dup3\n        /* \"#utility.yul\":708:711   */\n      dup2\n        /* \"#utility.yul\":703:706   */\n      dup4\n        /* \"#utility.yul\":690:720   */\n      calldatacopy\n        /* \"#utility.yul\":754:755   */\n      0x00\n        /* \"#utility.yul\":745:751   */\n      dup4\n        /* \"#utility.yul\":740:743   */\n      dup4\n        /* \"#utility.yul\":736:752   */\n      add\n        /* \"#utility.yul\":729:756   */\n      mstore\n        /* \"#utility.yul\":616:762   */\n      pop\n      pop\n      pop\n      jump\t// out\n        /* \"#utility.yul\":768:870   */\n    tag_228:\n        /* \"#utility.yul\":809:815   */\n      0x00\n        /* \"#utility.yul\":860:862   */\n      0x1f\n        /* \"#utility.yul\":856:863   */\n      not\n        /* \"#utility.yul\":851:853   */\n      0x1f\n        /* \"#utility.yul\":844:849   */\n      dup4\n        /* \"#utility.yul\":840:854   */\n      add\n        /* \"#utility.yul\":836:864   */\n      and\n        /* \"#utility.yul\":826:864   */\n      swap1\n      pop\n        /* \"#utility.yul\":768:870   */\n      swap2\n      swap1\n      pop\n      jump\t// out\n        /* \"#utility.yul\":898:1212   */\n    tag_229:\n        /* \"#utility.yul\":994:997   */\n      0x00\n        /* \"#utility.yul\":1015:1085   */\n      tag_303\n        /* \"#utility.yul\":1078:1084   */\n      dup4\n        /* \"#utility.yul\":1073:1076   */\n      dup6\n        /* \"#utility.yul\":1015:1085   */\n      tag_226\n      jump\t// in\n    tag_303:\n        /* \"#utility.yul\":1008:1085   */\n      swap4\n      pop\n        /* \"#utility.yul\":1095:1151   */\n      tag_304\n        /* \"#utility.yul\":1144:1150   */\n      dup4\n        /* \"#utility.yul\":1139:1142   */\n      dup6\n        /* \"#utility.yul\":1132:1137   */\n      dup5\n        /* \"#utility.yul\":1095:1151   */\n      tag_227\n      jump\t// in\n    tag_304:\n        /* \"#utility.yul\":1176:1205   */\n      tag_305\n        /* \"#utility.yul\":1198:1204   */\n      dup4\n        /* \"#utility.yul\":1176:1205   */\n      tag_228\n      jump\t// in\n    tag_305:\n        /* \"#utility.yul\":1171:1174   */\n      dup5\n        /* \"#utility.yul\":1167:1206   */\n      add\n        /* \"#utility.yul\":1160:1206   */\n      swap1\n      pop\n        /* \"#utility.yul\":898:1212   */\n      swap4\n      swap3\n      pop\n      pop\n      pop\n      jump\t// out\n        /* \"#utility.yul\":1218:1657   */\n    tag_25:\n        /* \"#utility.yul\":1367:1371   */\n      0x00\n        /* \"#utility.yul\":1405:1407   */\n      0x40\n        /* \"#utility.yul\":1394:1403   */\n      dup3\n        /* \"#utility.yul\":1390:1408   */\n      add\n        /* \"#utility.yul\":1382:1408   */\n      swap1\n      pop\n        /* \"#utility.yul\":1418:1489   */\n      tag_307\n        /* \"#utility.yul\":1486:1487   */\n      0x00\n        /* \"#utility.yul\":1475:1484   */\n      dup4\n        /* \"#utility.yul\":1471:1488   */\n      add\n        /* \"#utility.yul\":1462:1468   */\n      dup7\n        /* \"#utility.yul\":1418:1489   */\n      tag_225\n      jump\t// in\n    tag_307:\n        /* \"#utility.yul\":1536:1545   */\n      dup2\n        /* \"#utility.yul\":1530:1534   */\n      dup2\n        /* \"#utility.yul\":1526:1546   */\n      sub\n        /* \"#utility.yul\":1521:1523   */\n      0x20\n        /* \"#utility.yul\":1510:1519   */\n      dup4\n        /* \"#utility.yul\":1506:1524   */\n      add\n        /* \"#utility.yul\":1499:1547   */\n      mstore\n        /* \"#utility.yul\":1564:1650   */\n      tag_308\n        /* \"#utility.yul\":1645:1649   */\n      dup2\n        /* \"#utility.yul\":1636:1642   */\n      dup5\n        /* \"#utility.yul\":1628:1634   */\n      dup7\n        /* \"#utility.yul\":1564:1650   */\n      tag_229\n      jump\t// in\n    tag_308:\n        /* \"#utility.yul\":1556:1650   */\n      swap1\n      pop\n        /* \"#utility.yul\":1218:1657   */\n      swap5\n      swap4\n      pop\n      pop\n      pop\n      pop\n      jump\t// out\n        /* \"#utility.yul\":1663:1777   */\n    tag_230:\n        /* \"#utility.yul\":1730:1736   */\n      0x00\n        /* \"#utility.yul\":1764:1769   */\n      dup2\n        /* \"#utility.yul\":1758:1770   */\n      mload\n        /* \"#utility.yul\":1748:1770   */\n      swap1\n      pop\n        /* \"#utility.yul\":1663:1777   */\n      swap2\n      swap1\n      pop\n      jump\t// out\n        /* \"#utility.yul\":1783:1967   */\n    tag_231:\n        /* \"#utility.yul\":1882:1893   */\n      0x00\n        /* \"#utility.yul\":1916:1922   */\n      dup3\n        /* \"#utility.yul\":1911:1914   */\n      dup3\n        /* \"#utility.yul\":1904:1923   */\n      mstore\n        /* \"#utility.yul\":1956:1960   */\n      0x20\n        /* \"#utility.yul\":1951:1954   */\n      dup3\n        /* \"#utility.yul\":1947:1961   */\n      add\n        /* \"#utility.yul\":1932:1961   */\n      swap1\n      pop\n        /* \"#utility.yul\":1783:1967   */\n      swap3\n      swap2\n      pop\n      pop\n      jump\t// out\n        /* \"#utility.yul\":1973:2105   */\n    tag_232:\n        /* \"#utility.yul\":2040:2044   */\n      0x00\n        /* \"#utility.yul\":2063:2066   */\n      dup2\n        /* \"#utility.yul\":2055:2066   */\n      swap1\n      pop\n        /* \"#utility.yul\":2093:2097   */\n      0x20\n        /* \"#utility.yul\":2088:2091   */\n      dup3\n        /* \"#utility.yul\":2084:2098   */\n      add\n        /* \"#utility.yul\":2076:2098   */\n      swap1\n      pop\n        /* \"#utility.yul\":1973:2105   */\n      swap2\n      swap1\n      pop\n      jump\t// out\n        /* \"#utility.yul\":2111:2237   */\n    tag_233:\n        /* \"#utility.yul\":2148:2155   */\n      0x00\n        /* \"#utility.yul\":2188:2230   */\n      0xffffffffffffffffffffffffffffffffffffffff\n        /* \"#utility.yul\":2181:2186   */\n      dup3\n        /* \"#utility.yul\":2177:2231   */\n      and\n        /* \"#utility.yul\":2166:2231   */\n      swap1\n      pop\n        /* \"#utility.yul\":2111:2237   */\n      swap2\n      swap1\n      pop\n      jump\t// out\n        /* \"#utility.yul\":2243:2339   */\n    tag_234:\n        /* \"#utility.yul\":2280:2287   */\n      0x00\n        /* \"#utility.yul\":2309:2333   */\n      tag_314\n        /* \"#utility.yul\":2327:2332   */\n      dup3\n        /* \"#utility.yul\":2309:2333   */\n      tag_233\n      jump\t// in\n    tag_314:\n        /* \"#utility.yul\":2298:2333   */\n      swap1\n      pop\n        /* \"#utility.yul\":2243:2339   */\n      swap2\n      swap1\n      pop\n      jump\t// out\n        /* \"#utility.yul\":2345:2453   */\n    tag_235:\n        /* \"#utility.yul\":2422:2446   */\n      tag_316\n        /* \"#utility.yul\":2440:2445   */\n      dup2\n        /* \"#utility.yul\":2422:2446   */\n      tag_234\n      jump\t// in\n    tag_316:\n        /* \"#utility.yul\":2417:2420   */\n      dup3\n        /* \"#utility.yul\":2410:2447   */\n      mstore\n        /* \"#utility.yul\":2345:2453   */\n      pop\n      pop\n      jump\t// out\n        /* \"#utility.yul\":2459:2638   */\n    tag_236:\n        /* \"#utility.yul\":2528:2538   */\n      0x00\n        /* \"#utility.yul\":2549:2595   */\n      tag_318\n        /* \"#utility.yul\":2591:2594   */\n      dup4\n        /* \"#utility.yul\":2583:2589   */\n      dup4\n        /* \"#utility.yul\":2549:2595   */\n      tag_235\n      jump\t// in\n    tag_318:\n        /* \"#utility.yul\":2627:2631   */\n      0x20\n        /* \"#utility.yul\":2622:2625   */\n      dup4\n        /* \"#utility.yul\":2618:2632   */\n      add\n        /* \"#utility.yul\":2604:2632   */\n      swap1\n      pop\n        /* \"#utility.yul\":2459:2638   */\n      swap3\n      swap2\n      pop\n      pop\n      jump\t// out\n        /* \"#utility.yul\":2644:2757   */\n    tag_237:\n        /* \"#utility.yul\":2714:2718   */\n      0x00\n        /* \"#utility.yul\":2746:2750   */\n      0x20\n        /* \"#utility.yul\":2741:2744   */\n      dup3\n        /* \"#utility.yul\":2737:2751   */\n      add\n        /* \"#utility.yul\":2729:2751   */\n      swap1\n      pop\n        /* \"#utility.yul\":2644:2757   */\n      swap2\n      swap1\n      pop\n      jump\t// out\n        /* \"#utility.yul\":2793:3525   */\n    tag_238:\n        /* \"#utility.yul\":2912:2915   */\n      0x00\n        /* \"#utility.yul\":2941:2995   */\n      tag_321\n        /* \"#utility.yul\":2989:2994   */\n      dup3\n        /* \"#utility.yul\":2941:2995   */\n      tag_230\n      jump\t// in\n    tag_321:\n        /* \"#utility.yul\":3011:3097   */\n      tag_322\n        /* \"#utility.yul\":3090:3096   */\n      dup2\n        /* \"#utility.yul\":3085:3088   */\n      dup6\n        /* \"#utility.yul\":3011:3097   */\n      tag_231\n      jump\t// in\n    tag_322:\n        /* \"#utility.yul\":3004:3097   */\n      swap4\n      pop\n        /* \"#utility.yul\":3121:3177   */\n      tag_323\n        /* \"#utility.yul\":3171:3176   */\n      dup4\n        /* \"#utility.yul\":3121:3177   */\n      tag_232\n      jump\t// in\n    tag_323:\n        /* \"#utility.yul\":3200:3207   */\n      dup1\n        /* \"#utility.yul\":3231:3232   */\n      0x00\n        /* \"#utility.yul\":3216:3500   */\n    tag_324:\n        /* \"#utility.yul\":3241:3247   */\n      dup4\n        /* \"#utility.yul\":3238:3239   */\n      dup2\n        /* \"#utility.yul\":3235:3248   */\n      lt\n        /* \"#utility.yul\":3216:3500   */\n      iszero\n      tag_326\n      jumpi\n        /* \"#utility.yul\":3317:3323   */\n      dup2\n        /* \"#utility.yul\":3311:3324   */\n      mload\n        /* \"#utility.yul\":3344:3407   */\n      tag_327\n        /* \"#utility.yul\":3403:3406   */\n      dup9\n        /* \"#utility.yul\":3388:3401   */\n      dup3\n        /* \"#utility.yul\":3344:3407   */\n      tag_236\n      jump\t// in\n    tag_327:\n        /* \"#utility.yul\":3337:3407   */\n      swap8\n      pop\n        /* \"#utility.yul\":3430:3490   */\n      tag_328\n        /* \"#utility.yul\":3483:3489   */\n      dup4\n        /* \"#utility.yul\":3430:3490   */\n      tag_237\n      jump\t// in\n    tag_328:\n        /* \"#utility.yul\":3420:3490   */\n      swap3\n      pop\n        /* \"#utility.yul\":3276:3500   */\n      pop\n        /* \"#utility.yul\":3263:3264   */\n      0x01\n        /* \"#utility.yul\":3260:3261   */\n      dup2\n        /* \"#utility.yul\":3256:3265   */\n      add\n        /* \"#utility.yul\":3251:3265   */\n      swap1\n      pop\n        /* \"#utility.yul\":3216:3500   */\n      jump(tag_324)\n    tag_326:\n        /* \"#utility.yul\":3220:3234   */\n      pop\n        /* \"#utility.yul\":3516:3519   */\n      dup6\n        /* \"#utility.yul\":3509:3519   */\n      swap4\n      pop\n        /* \"#utility.yul\":2917:3525   */\n      pop\n      pop\n      pop\n        /* \"#utility.yul\":2793:3525   */\n      swap3\n      swap2\n      pop\n      pop\n      jump\t// out\n        /* \"#utility.yul\":3531:3904   */\n    tag_30:\n        /* \"#utility.yul\":3674:3678   */\n      0x00\n        /* \"#utility.yul\":3712:3714   */\n      0x20\n        /* \"#utility.yul\":3701:3710   */\n      dup3\n        /* \"#utility.yul\":3697:3715   */\n      add\n        /* \"#utility.yul\":3689:3715   */\n      swap1\n      pop\n        /* \"#utility.yul\":3761:3770   */\n      dup2\n        /* \"#utility.yul\":3755:3759   */\n      dup2\n        /* \"#utility.yul\":3751:3771   */\n      sub\n        /* \"#utility.yul\":3747:3748   */\n      0x00\n        /* \"#utility.yul\":3736:3745   */\n      dup4\n        /* \"#utility.yul\":3732:3749   */\n      add\n        /* \"#utility.yul\":3725:3772   */\n      mstore\n        /* \"#utility.yul\":3789:3897   */\n      tag_330\n        /* \"#utility.yul\":3892:3896   */\n      dup2\n        /* \"#utility.yul\":3883:3889   */\n      dup5\n        /* \"#utility.yul\":3789:3897   */\n      tag_238\n      jump\t// in\n    tag_330:\n        /* \"#utility.yul\":3781:3897   */\n      swap1\n      pop\n        /* \"#utility.yul\":3531:3904   */\n      swap3\n      swap2\n      pop\n      pop\n      jump\t// out\n        /* \"#utility.yul\":3910:3985   */\n    tag_239:\n        /* \"#utility.yul\":3943:3949   */\n      0x00\n        /* \"#utility.yul\":3976:3978   */\n      0x40\n        /* \"#utility.yul\":3970:3979   */\n      mload\n        /* \"#utility.yul\":3960:3979   */\n      swap1\n      pop\n        /* \"#utility.yul\":3910:3985   */\n      swap1\n      jump\t// out\n        /* \"#utility.yul\":3991:4108   */\n    tag_240:\n        /* \"#utility.yul\":4100:4101   */\n      0x00\n        /* \"#utility.yul\":4097:4098   */\n      dup1\n        /* \"#utility.yul\":4090:4102   */\n      revert\n        /* \"#utility.yul\":4114:4231   */\n    tag_241:\n        /* \"#utility.yul\":4223:4224   */\n      0x00\n        /* \"#utility.yul\":4220:4221   */\n      dup1\n        /* \"#utility.yul\":4213:4225   */\n      revert\n        /* \"#utility.yul\":4237:4359   */\n    tag_242:\n        /* \"#utility.yul\":4310:4334   */\n      tag_335\n        /* \"#utility.yul\":4328:4333   */\n      dup2\n        /* \"#utility.yul\":4310:4334   */\n      tag_234\n      jump\t// in\n    tag_335:\n        /* \"#utility.yul\":4303:4308   */\n      dup2\n        /* \"#utility.yul\":4300:4335   */\n      eq\n        /* \"#utility.yul\":4290:4353   */\n      tag_336\n      jumpi\n        /* \"#utility.yul\":4349:4350   */\n      0x00\n        /* \"#utility.yul\":4346:4347   */\n      dup1\n        /* \"#utility.yul\":4339:4351   */\n      revert\n        /* \"#utility.yul\":4290:4353   */\n    tag_336:\n        /* \"#utility.yul\":4237:4359   */\n      pop\n      jump\t// out\n        /* \"#utility.yul\":4365:4504   */\n    tag_243:\n        /* \"#utility.yul\":4411:4416   */\n      0x00\n        /* \"#utility.yul\":4449:4455   */\n      dup2\n        /* \"#utility.yul\":4436:4456   */\n      calldataload\n        /* \"#utility.yul\":4427:4456   */\n      swap1\n      pop\n        /* \"#utility.yul\":4465:4498   */\n      tag_338\n        /* \"#utility.yul\":4492:4497   */\n      dup2\n        /* \"#utility.yul\":4465:4498   */\n      tag_242\n      jump\t// in\n    tag_338:\n        /* \"#utility.yul\":4365:4504   */\n      swap3\n      swap2\n      pop\n      pop\n      jump\t// out\n        /* \"#utility.yul\":4510:4632   */\n    tag_244:\n        /* \"#utility.yul\":4583:4607   */\n      tag_340\n        /* \"#utility.yul\":4601:4606   */\n      dup2\n        /* \"#utility.yul\":4583:4607   */\n      tag_224\n      jump\t// in\n    tag_340:\n        /* \"#utility.yul\":4576:4581   */\n      dup2\n        /* \"#utility.yul\":4573:4608   */\n      eq\n        /* \"#utility.yul\":4563:4626   */\n      tag_341\n      jumpi\n        /* \"#utility.yul\":4622:4623   */\n      0x00\n        /* \"#utility.yul\":4619:4620   */\n      dup1\n        /* \"#utility.yul\":4612:4624   */\n      revert\n        /* \"#utility.yul\":4563:4626   */\n    tag_341:\n        /* \"#utility.yul\":4510:4632   */\n      pop\n      jump\t// out\n        /* \"#utility.yul\":4638:4777   */\n    tag_245:\n        /* \"#utility.yul\":4684:4689   */\n      0x00\n        /* \"#utility.yul\":4722:4728   */\n      dup2\n        /* \"#utility.yul\":4709:4729   */\n      calldataload\n        /* \"#utility.yul\":4700:4729   */\n      swap1\n      pop\n        /* \"#utility.yul\":4738:4771   */\n      tag_343\n        /* \"#utility.yul\":4765:4770   */\n      dup2\n        /* \"#utility.yul\":4738:4771   */\n      tag_244\n      jump\t// in\n    tag_343:\n        /* \"#utility.yul\":4638:4777   */\n      swap3\n      swap2\n      pop\n      pop\n      jump\t// out\n        /* \"#utility.yul\":4783:5257   */\n    tag_34:\n        /* \"#utility.yul\":4851:4857   */\n      0x00\n        /* \"#utility.yul\":4859:4865   */\n      dup1\n        /* \"#utility.yul\":4908:4910   */\n      0x40\n        /* \"#utility.yul\":4896:4905   */\n      dup4\n        /* \"#utility.yul\":4887:4894   */\n      dup6\n        /* \"#utility.yul\":4883:4906   */\n      sub\n        /* \"#utility.yul\":4879:4911   */\n      slt\n        /* \"#utility.yul\":4876:4995   */\n      iszero\n      tag_345\n      jumpi\n        /* \"#utility.yul\":4914:4993   */\n      tag_346\n      tag_240\n      jump\t// in\n    tag_346:\n        /* \"#utility.yul\":4876:4995   */\n    tag_345:\n        /* \"#utility.yul\":5034:5035   */\n      0x00\n        /* \"#utility.yul\":5059:5112   */\n      tag_347\n        /* \"#utility.yul\":5104:5111   */\n      dup6\n        /* \"#utility.yul\":5095:5101   */\n      dup3\n        /* \"#utility.yul\":5084:5093   */\n      dup7\n        /* \"#utility.yul\":5080:5102   */\n      add\n        /* \"#utility.yul\":5059:5112   */\n      tag_243\n      jump\t// in\n    tag_347:\n        /* \"#utility.yul\":5049:5112   */\n      swap3\n      pop\n        /* \"#utility.yul\":5005:5122   */\n      pop\n        /* \"#utility.yul\":5161:5163   */\n      0x20\n        /* \"#utility.yul\":5187:5240   */\n      tag_348\n        /* \"#utility.yul\":5232:5239   */\n      dup6\n        /* \"#utility.yul\":5223:5229   */\n      dup3\n        /* \"#utility.yul\":5212:5221   */\n      dup7\n        /* \"#utility.yul\":5208:5230   */\n      add\n        /* \"#utility.yul\":5187:5240   */\n      tag_245\n      jump\t// in\n    tag_348:\n        /* \"#utility.yul\":5177:5240   */\n      swap2\n      pop\n        /* \"#utility.yul\":5132:5250   */\n      pop\n        /* \"#utility.yul\":4783:5257   */\n      swap3\n      pop\n      swap3\n      swap1\n      pop\n      jump\t// out\n        /* \"#utility.yul\":5263:5380   */\n    tag_246:\n        /* \"#utility.yul\":5372:5373   */\n      0x00\n        /* \"#utility.yul\":5369:5370   */\n      dup1\n        /* \"#utility.yul\":5362:5374   */\n      revert\n        /* \"#utility.yul\":5386:5503   */\n    tag_247:\n        /* \"#utility.yul\":5495:5496   */\n      0x00\n        /* \"#utility.yul\":5492:5493   */\n      dup1\n        /* \"#utility.yul\":5485:5497   */\n      revert\n        /* \"#utility.yul\":5509:5626   */\n    tag_248:\n        /* \"#utility.yul\":5618:5619   */\n      0x00\n        /* \"#utility.yul\":5615:5616   */\n      dup1\n        /* \"#utility.yul\":5608:5620   */\n      revert\n        /* \"#utility.yul\":5645:6197   */\n    tag_249:\n        /* \"#utility.yul\":5702:5710   */\n      0x00\n        /* \"#utility.yul\":5712:5718   */\n      dup1\n        /* \"#utility.yul\":5762:5765   */\n      dup4\n        /* \"#utility.yul\":5755:5759   */\n      0x1f\n        /* \"#utility.yul\":5747:5753   */\n      dup5\n        /* \"#utility.yul\":5743:5760   */\n      add\n        /* \"#utility.yul\":5739:5766   */\n      slt\n        /* \"#utility.yul\":5729:5851   */\n      tag_353\n      jumpi\n        /* \"#utility.yul\":5770:5849   */\n      tag_354\n      tag_246\n      jump\t// in\n    tag_354:\n        /* \"#utility.yul\":5729:5851   */\n    tag_353:\n        /* \"#utility.yul\":5883:5889   */\n      dup3\n        /* \"#utility.yul\":5870:5890   */\n      calldataload\n        /* \"#utility.yul\":5860:5890   */\n      swap1\n      pop\n        /* \"#utility.yul\":5913:5931   */\n      0xffffffffffffffff\n        /* \"#utility.yul\":5905:5911   */\n      dup2\n        /* \"#utility.yul\":5902:5932   */\n      gt\n        /* \"#utility.yul\":5899:6016   */\n      iszero\n      tag_355\n      jumpi\n        /* \"#utility.yul\":5935:6014   */\n      tag_356\n      tag_247\n      jump\t// in\n    tag_356:\n        /* \"#utility.yul\":5899:6016   */\n    tag_355:\n        /* \"#utility.yul\":6049:6053   */\n      0x20\n        /* \"#utility.yul\":6041:6047   */\n      dup4\n        /* \"#utility.yul\":6037:6054   */\n      add\n        /* \"#utility.yul\":6025:6054   */\n      swap2\n      pop\n        /* \"#utility.yul\":6103:6106   */\n      dup4\n        /* \"#utility.yul\":6095:6099   */\n      0x01\n        /* \"#utility.yul\":6087:6093   */\n      dup3\n        /* \"#utility.yul\":6083:6100   */\n      mul\n        /* \"#utility.yul\":6073:6081   */\n      dup4\n        /* \"#utility.yul\":6069:6101   */\n      add\n        /* \"#utility.yul\":6066:6107   */\n      gt\n        /* \"#utility.yul\":6063:6191   */\n      iszero\n      tag_357\n      jumpi\n        /* \"#utility.yul\":6110:6189   */\n      tag_358\n      tag_248\n      jump\t// in\n    tag_358:\n        /* \"#utility.yul\":6063:6191   */\n    tag_357:\n        /* \"#utility.yul\":5645:6197   */\n      swap3\n      pop\n      swap3\n      swap1\n      pop\n      jump\t// out\n        /* \"#utility.yul\":6203:6320   */\n    tag_250:\n        /* \"#utility.yul\":6312:6313   */\n      0x00\n        /* \"#utility.yul\":6309:6310   */\n      dup1\n        /* \"#utility.yul\":6302:6314   */\n      revert\n        /* \"#utility.yul\":6326:6506   */\n    tag_96:\n        /* \"#utility.yul\":6374:6451   */\n      0x4e487b7100000000000000000000000000000000000000000000000000000000\n        /* \"#utility.yul\":6371:6372   */\n      0x00\n        /* \"#utility.yul\":6364:6452   */\n      mstore\n        /* \"#utility.yul\":6471:6475   */\n      0x41\n        /* \"#utility.yul\":6468:6469   */\n      0x04\n        /* \"#utility.yul\":6461:6476   */\n      mstore\n        /* \"#utility.yul\":6495:6499   */\n      0x24\n        /* \"#utility.yul\":6492:6493   */\n      0x00\n        /* \"#utility.yul\":6485:6500   */\n      revert\n        /* \"#utility.yul\":6512:6793   */\n    tag_251:\n        /* \"#utility.yul\":6595:6622   */\n      tag_362\n        /* \"#utility.yul\":6617:6621   */\n      dup3\n        /* \"#utility.yul\":6595:6622   */\n      tag_228\n      jump\t// in\n    tag_362:\n        /* \"#utility.yul\":6587:6593   */\n      dup2\n        /* \"#utility.yul\":6583:6623   */\n      add\n        /* \"#utility.yul\":6725:6731   */\n      dup2\n        /* \"#utility.yul\":6713:6723   */\n      dup2\n        /* \"#utility.yul\":6710:6732   */\n      lt\n        /* \"#utility.yul\":6689:6707   */\n      0xffffffffffffffff\n        /* \"#utility.yul\":6677:6687   */\n      dup3\n        /* \"#utility.yul\":6674:6708   */\n      gt\n        /* \"#utility.yul\":6671:6733   */\n      or\n        /* \"#utility.yul\":6668:6756   */\n      iszero\n      tag_363\n      jumpi\n        /* \"#utility.yul\":6736:6754   */\n      tag_364\n      tag_96\n      jump\t// in\n    tag_364:\n        /* \"#utility.yul\":6668:6756   */\n    tag_363:\n        /* \"#utility.yul\":6776:6786   */\n      dup1\n        /* \"#utility.yul\":6772:6774   */\n      0x40\n        /* \"#utility.yul\":6765:6787   */\n      mstore\n        /* \"#utility.yul\":6555:6793   */\n      pop\n        /* \"#utility.yul\":6512:6793   */\n      pop\n      pop\n      jump\t// out\n        /* \"#utility.yul\":6799:6928   */\n    tag_252:\n        /* \"#utility.yul\":6833:6839   */\n      0x00\n        /* \"#utility.yul\":6860:6880   */\n      tag_366\n      tag_239\n      jump\t// in\n    tag_366:\n        /* \"#utility.yul\":6850:6880   */\n      swap1\n      pop\n        /* \"#utility.yul\":6889:6922   */\n      tag_367\n        /* \"#utility.yul\":6917:6921   */\n      dup3\n        /* \"#utility.yul\":6909:6915   */\n      dup3\n        /* \"#utility.yul\":6889:6922   */\n      tag_251\n      jump\t// in\n    tag_367:\n        /* \"#utility.yul\":6799:6928   */\n      swap2\n      swap1\n      pop\n      jump\t// out\n        /* \"#utility.yul\":6934:7241   */\n    tag_253:\n        /* \"#utility.yul\":6995:6999   */\n      0x00\n        /* \"#utility.yul\":7085:7103   */\n      0xffffffffffffffff\n        /* \"#utility.yul\":7077:7083   */\n      dup3\n        /* \"#utility.yul\":7074:7104   */\n      gt\n        /* \"#utility.yul\":7071:7127   */\n      iszero\n      tag_369\n      jumpi\n        /* \"#utility.yul\":7107:7125   */\n      tag_370\n      tag_96\n      jump\t// in\n    tag_370:\n        /* \"#utility.yul\":7071:7127   */\n    tag_369:\n        /* \"#utility.yul\":7145:7174   */\n      tag_371\n        /* \"#utility.yul\":7167:7173   */\n      dup3\n        /* \"#utility.yul\":7145:7174   */\n      tag_228\n      jump\t// in\n    tag_371:\n        /* \"#utility.yul\":7137:7174   */\n      swap1\n      pop\n        /* \"#utility.yul\":7229:7233   */\n      0x20\n        /* \"#utility.yul\":7223:7227   */\n      dup2\n        /* \"#utility.yul\":7219:7234   */\n      add\n        /* \"#utility.yul\":7211:7234   */\n      swap1\n      pop\n        /* \"#utility.yul\":6934:7241   */\n      swap2\n      swap1\n      pop\n      jump\t// out\n        /* \"#utility.yul\":7247:7670   */\n    tag_254:\n        /* \"#utility.yul\":7324:7329   */\n      0x00\n        /* \"#utility.yul\":7349:7414   */\n      tag_373\n        /* \"#utility.yul\":7365:7413   */\n      tag_374\n        /* \"#utility.yul\":7406:7412   */\n      dup5\n        /* \"#utility.yul\":7365:7413   */\n      tag_253\n      jump\t// in\n    tag_374:\n        /* \"#utility.yul\":7349:7414   */\n      tag_252\n      jump\t// in\n    tag_373:\n        /* \"#utility.yul\":7340:7414   */\n      swap1\n      pop\n        /* \"#utility.yul\":7437:7443   */\n      dup3\n        /* \"#utility.yul\":7430:7435   */\n      dup2\n        /* \"#utility.yul\":7423:7444   */\n      mstore\n        /* \"#utility.yul\":7475:7479   */\n      0x20\n        /* \"#utility.yul\":7468:7473   */\n      dup2\n        /* \"#utility.yul\":7464:7480   */\n      add\n        /* \"#utility.yul\":7513:7516   */\n      dup5\n        /* \"#utility.yul\":7504:7510   */\n      dup5\n        /* \"#utility.yul\":7499:7502   */\n      dup5\n        /* \"#utility.yul\":7495:7511   */\n      add\n        /* \"#utility.yul\":7492:7517   */\n      gt\n        /* \"#utility.yul\":7489:7601   */\n      iszero\n      tag_375\n      jumpi\n        /* \"#utility.yul\":7520:7599   */\n      tag_376\n      tag_250\n      jump\t// in\n    tag_376:\n        /* \"#utility.yul\":7489:7601   */\n    tag_375:\n        /* \"#utility.yul\":7610:7664   */\n      tag_377\n        /* \"#utility.yul\":7657:7663   */\n      dup5\n        /* \"#utility.yul\":7652:7655   */\n      dup3\n        /* \"#utility.yul\":7647:7650   */\n      dup6\n        /* \"#utility.yul\":7610:7664   */\n      tag_227\n      jump\t// in\n    tag_377:\n        /* \"#utility.yul\":7330:7670   */\n      pop\n        /* \"#utility.yul\":7247:7670   */\n      swap4\n      swap3\n      pop\n      pop\n      pop\n      jump\t// out\n        /* \"#utility.yul\":7689:8027   */\n    tag_255:\n        /* \"#utility.yul\":7744:7749   */\n      0x00\n        /* \"#utility.yul\":7793:7796   */\n      dup3\n        /* \"#utility.yul\":7786:7790   */\n      0x1f\n        /* \"#utility.yul\":7778:7784   */\n      dup4\n        /* \"#utility.yul\":7774:7791   */\n      add\n        /* \"#utility.yul\":7770:7797   */\n      slt\n        /* \"#utility.yul\":7760:7882   */\n      tag_379\n      jumpi\n        /* \"#utility.yul\":7801:7880   */\n      tag_380\n      tag_246\n      jump\t// in\n    tag_380:\n        /* \"#utility.yul\":7760:7882   */\n    tag_379:\n        /* \"#utility.yul\":7918:7924   */\n      dup2\n        /* \"#utility.yul\":7905:7925   */\n      calldataload\n        /* \"#utility.yul\":7943:8021   */\n      tag_381\n        /* \"#utility.yul\":8017:8020   */\n      dup5\n        /* \"#utility.yul\":8009:8015   */\n      dup3\n        /* \"#utility.yul\":8002:8006   */\n      0x20\n        /* \"#utility.yul\":7994:8000   */\n      dup7\n        /* \"#utility.yul\":7990:8007   */\n      add\n        /* \"#utility.yul\":7943:8021   */\n      tag_254\n      jump\t// in\n    tag_381:\n        /* \"#utility.yul\":7934:8021   */\n      swap2\n      pop\n        /* \"#utility.yul\":7750:8027   */\n      pop\n        /* \"#utility.yul\":7689:8027   */\n      swap3\n      swap2\n      pop\n      pop\n      jump\t// out\n        /* \"#utility.yul\":8033:9174   */\n    tag_38:\n        /* \"#utility.yul\":8139:8145   */\n      0x00\n        /* \"#utility.yul\":8147:8153   */\n      dup1\n        /* \"#utility.yul\":8155:8161   */\n      0x00\n        /* \"#utility.yul\":8163:8169   */\n      dup1\n        /* \"#utility.yul\":8171:8177   */\n      0x00\n        /* \"#utility.yul\":8220:8223   */\n      0x80\n        /* \"#utility.yul\":8208:8217   */\n      dup7\n        /* \"#utility.yul\":8199:8206   */\n      dup9\n        /* \"#utility.yul\":8195:8218   */\n      sub\n        /* \"#utility.yul\":8191:8224   */\n      slt\n        /* \"#utility.yul\":8188:8308   */\n      iszero\n      tag_383\n      jumpi\n        /* \"#utility.yul\":8227:8306   */\n      tag_384\n      tag_240\n      jump\t// in\n    tag_384:\n        /* \"#utility.yul\":8188:8308   */\n    tag_383:\n        /* \"#utility.yul\":8347:8348   */\n      0x00\n        /* \"#utility.yul\":8372:8425   */\n      tag_385\n        /* \"#utility.yul\":8417:8424   */\n      dup9\n        /* \"#utility.yul\":8408:8414   */\n      dup3\n        /* \"#utility.yul\":8397:8406   */\n      dup10\n        /* \"#utility.yul\":8393:8415   */\n      add\n        /* \"#utility.yul\":8372:8425   */\n      tag_243\n      jump\t// in\n    tag_385:\n        /* \"#utility.yul\":8362:8425   */\n      swap6\n      pop\n        /* \"#utility.yul\":8318:8435   */\n      pop\n        /* \"#utility.yul\":8474:8476   */\n      0x20\n        /* \"#utility.yul\":8500:8553   */\n      tag_386\n        /* \"#utility.yul\":8545:8552   */\n      dup9\n        /* \"#utility.yul\":8536:8542   */\n      dup3\n        /* \"#utility.yul\":8525:8534   */\n      dup10\n        /* \"#utility.yul\":8521:8543   */\n      add\n        /* \"#utility.yul\":8500:8553   */\n      tag_245\n      jump\t// in\n    tag_386:\n        /* \"#utility.yul\":8490:8553   */\n      swap5\n      pop\n        /* \"#utility.yul\":8445:8563   */\n      pop\n        /* \"#utility.yul\":8630:8632   */\n      0x40\n        /* \"#utility.yul\":8619:8628   */\n      dup7\n        /* \"#utility.yul\":8615:8633   */\n      add\n        /* \"#utility.yul\":8602:8634   */\n      calldataload\n        /* \"#utility.yul\":8661:8679   */\n      0xffffffffffffffff\n        /* \"#utility.yul\":8653:8659   */\n      dup2\n        /* \"#utility.yul\":8650:8680   */\n      gt\n        /* \"#utility.yul\":8647:8764   */\n      iszero\n      tag_387\n      jumpi\n        /* \"#utility.yul\":8683:8762   */\n      tag_388\n      tag_241\n      jump\t// in\n    tag_388:\n        /* \"#utility.yul\":8647:8764   */\n    tag_387:\n        /* \"#utility.yul\":8796:8860   */\n      tag_389\n        /* \"#utility.yul\":8852:8859   */\n      dup9\n        /* \"#utility.yul\":8843:8849   */\n      dup3\n        /* \"#utility.yul\":8832:8841   */\n      dup10\n        /* \"#utility.yul\":8828:8850   */\n      add\n        /* \"#utility.yul\":8796:8860   */\n      tag_249\n      jump\t// in\n    tag_389:\n        /* \"#utility.yul\":8778:8860   */\n      swap4\n      pop\n      swap4\n      pop\n        /* \"#utility.yul\":8573:8870   */\n      pop\n        /* \"#utility.yul\":8937:8939   */\n      0x60\n        /* \"#utility.yul\":8926:8935   */\n      dup7\n        /* \"#utility.yul\":8922:8940   */\n      add\n        /* \"#utility.yul\":8909:8941   */\n      calldataload\n        /* \"#utility.yul\":8968:8986   */\n      0xffffffffffffffff\n        /* \"#utility.yul\":8960:8966   */\n      dup2\n        /* \"#utility.yul\":8957:8987   */\n      gt\n        /* \"#utility.yul\":8954:9071   */\n      iszero\n      tag_390\n      jumpi\n        /* \"#utility.yul\":8990:9069   */\n      tag_391\n      tag_241\n      jump\t// in\n    tag_391:\n        /* \"#utility.yul\":8954:9071   */\n    tag_390:\n        /* \"#utility.yul\":9095:9157   */\n      tag_392\n        /* \"#utility.yul\":9149:9156   */\n      dup9\n        /* \"#utility.yul\":9140:9146   */\n      dup3\n        /* \"#utility.yul\":9129:9138   */\n      dup10\n        /* \"#utility.yul\":9125:9147   */\n      add\n        /* \"#utility.yul\":9095:9157   */\n      tag_255\n      jump\t// in\n    tag_392:\n        /* \"#utility.yul\":9085:9157   */\n      swap2\n      pop\n        /* \"#utility.yul\":8880:9167   */\n      pop\n        /* \"#utility.yul\":8033:9174   */\n      swap3\n      swap6\n      pop\n      swap3\n      swap6\n      swap1\n      swap4\n      pop\n      jump\t// out\n        /* \"#utility.yul\":9180:9270   */\n    tag_256:\n        /* \"#utility.yul\":9214:9221   */\n      0x00\n        /* \"#utility.yul\":9257:9262   */\n      dup2\n        /* \"#utility.yul\":9250:9263   */\n      iszero\n        /* \"#utility.yul\":9243:9264   */\n      iszero\n        /* \"#utility.yul\":9232:9264   */\n      swap1\n      pop\n        /* \"#utility.yul\":9180:9270   */\n      swap2\n      swap1\n      pop\n      jump\t// out\n        /* \"#utility.yul\":9276:9385   */\n    tag_257:\n        /* \"#utility.yul\":9357:9378   */\n      tag_395\n        /* \"#utility.yul\":9372:9377   */\n      dup2\n        /* \"#utility.yul\":9357:9378   */\n      tag_256\n      jump\t// in\n    tag_395:\n        /* \"#utility.yul\":9352:9355   */\n      dup3\n        /* \"#utility.yul\":9345:9379   */\n      mstore\n        /* \"#utility.yul\":9276:9385   */\n      pop\n      pop\n      jump\t// out\n        /* \"#utility.yul\":9391:9601   */\n    tag_41:\n        /* \"#utility.yul\":9478:9482   */\n      0x00\n        /* \"#utility.yul\":9516:9518   */\n      0x20\n        /* \"#utility.yul\":9505:9514   */\n      dup3\n        /* \"#utility.yul\":9501:9519   */\n      add\n        /* \"#utility.yul\":9493:9519   */\n      swap1\n      pop\n        /* \"#utility.yul\":9529:9594   */\n      tag_397\n        /* \"#utility.yul\":9591:9592   */\n      0x00\n        /* \"#utility.yul\":9580:9589   */\n      dup4\n        /* \"#utility.yul\":9576:9593   */\n      add\n        /* \"#utility.yul\":9567:9573   */\n      dup5\n        /* \"#utility.yul\":9529:9594   */\n      tag_257\n      jump\t// in\n    tag_397:\n        /* \"#utility.yul\":9391:9601   */\n      swap3\n      swap2\n      pop\n      pop\n      jump\t// out\n        /* \"#utility.yul\":9607:9936   */\n    tag_45:\n        /* \"#utility.yul\":9666:9672   */\n      0x00\n        /* \"#utility.yul\":9715:9717   */\n      0x20\n        /* \"#utility.yul\":9703:9712   */\n      dup3\n        /* \"#utility.yul\":9694:9701   */\n      dup5\n        /* \"#utility.yul\":9690:9713   */\n      sub\n        /* \"#utility.yul\":9686:9718   */\n      slt\n        /* \"#utility.yul\":9683:9802   */\n      iszero\n      tag_399\n      jumpi\n        /* \"#utility.yul\":9721:9800   */\n      tag_400\n      tag_240\n      jump\t// in\n    tag_400:\n        /* \"#utility.yul\":9683:9802   */\n    tag_399:\n        /* \"#utility.yul\":9841:9842   */\n      0x00\n        /* \"#utility.yul\":9866:9919   */\n      tag_401\n        /* \"#utility.yul\":9911:9918   */\n      dup5\n        /* \"#utility.yul\":9902:9908   */\n      dup3\n        /* \"#utility.yul\":9891:9900   */\n      dup6\n        /* \"#utility.yul\":9887:9909   */\n      add\n        /* \"#utility.yul\":9866:9919   */\n      tag_243\n      jump\t// in\n    tag_401:\n        /* \"#utility.yul\":9856:9919   */\n      swap2\n      pop\n        /* \"#utility.yul\":9812:9929   */\n      pop\n        /* \"#utility.yul\":9607:9936   */\n      swap3\n      swap2\n      pop\n      pop\n      jump\t// out\n        /* \"#utility.yul\":9942:10040   */\n    tag_258:\n        /* \"#utility.yul\":9993:9999   */\n      0x00\n        /* \"#utility.yul\":10027:10032   */\n      dup2\n        /* \"#utility.yul\":10021:10033   */\n      mload\n        /* \"#utility.yul\":10011:10033   */\n      swap1\n      pop\n        /* \"#utility.yul\":9942:10040   */\n      swap2\n      swap1\n      pop\n      jump\t// out\n        /* \"#utility.yul\":10046:10292   */\n    tag_259:\n        /* \"#utility.yul\":10127:10128   */\n      0x00\n        /* \"#utility.yul\":10137:10250   */\n    tag_404:\n        /* \"#utility.yul\":10151:10157   */\n      dup4\n        /* \"#utility.yul\":10148:10149   */\n      dup2\n        /* \"#utility.yul\":10145:10158   */\n      lt\n        /* \"#utility.yul\":10137:10250   */\n      iszero\n      tag_406\n      jumpi\n        /* \"#utility.yul\":10236:10237   */\n      dup1\n        /* \"#utility.yul\":10231:10234   */\n      dup3\n        /* \"#utility.yul\":10227:10238   */\n      add\n        /* \"#utility.yul\":10221:10239   */\n      mload\n        /* \"#utility.yul\":10217:10218   */\n      dup2\n        /* \"#utility.yul\":10212:10215   */\n      dup5\n        /* \"#utility.yul\":10208:10219   */\n      add\n        /* \"#utility.yul\":10201:10240   */\n      mstore\n        /* \"#utility.yul\":10173:10175   */\n      0x20\n        /* \"#utility.yul\":10170:10171   */\n      dup2\n        /* \"#utility.yul\":10166:10176   */\n      add\n        /* \"#utility.yul\":10161:10176   */\n      swap1\n      pop\n        /* \"#utility.yul\":10137:10250   */\n      jump(tag_404)\n    tag_406:\n        /* \"#utility.yul\":10284:10285   */\n      0x00\n        /* \"#utility.yul\":10275:10281   */\n      dup5\n        /* \"#utility.yul\":10270:10273   */\n      dup5\n        /* \"#utility.yul\":10266:10282   */\n      add\n        /* \"#utility.yul\":10259:10286   */\n      mstore\n        /* \"#utility.yul\":10108:10292   */\n      pop\n        /* \"#utility.yul\":10046:10292   */\n      pop\n      pop\n      pop\n      jump\t// out\n        /* \"#utility.yul\":10298:10671   */\n    tag_260:\n        /* \"#utility.yul\":10384:10387   */\n      0x00\n        /* \"#utility.yul\":10412:10450   */\n      tag_408\n        /* \"#utility.yul\":10444:10449   */\n      dup3\n        /* \"#utility.yul\":10412:10450   */\n      tag_258\n      jump\t// in\n    tag_408:\n        /* \"#utility.yul\":10466:10536   */\n      tag_409\n        /* \"#utility.yul\":10529:10535   */\n      dup2\n        /* \"#utility.yul\":10524:10527   */\n      dup6\n        /* \"#utility.yul\":10466:10536   */\n      tag_226\n      jump\t// in\n    tag_409:\n        /* \"#utility.yul\":10459:10536   */\n      swap4\n      pop\n        /* \"#utility.yul\":10545:10610   */\n      tag_410\n        /* \"#utility.yul\":10603:10609   */\n      dup2\n        /* \"#utility.yul\":10598:10601   */\n      dup6\n        /* \"#utility.yul\":10591:10595   */\n      0x20\n        /* \"#utility.yul\":10584:10589   */\n      dup7\n        /* \"#utility.yul\":10580:10596   */\n      add\n        /* \"#utility.yul\":10545:10610   */\n      tag_259\n      jump\t// in\n    tag_410:\n        /* \"#utility.yul\":10635:10664   */\n      tag_411\n        /* \"#utility.yul\":10657:10663   */\n      dup2\n        /* \"#utility.yul\":10635:10664   */\n      tag_228\n      jump\t// in\n    tag_411:\n        /* \"#utility.yul\":10630:10633   */\n      dup5\n        /* \"#utility.yul\":10626:10665   */\n      add\n        /* \"#utility.yul\":10619:10665   */\n      swap2\n      pop\n        /* \"#utility.yul\":10388:10671   */\n      pop\n        /* \"#utility.yul\":10298:10671   */\n      swap3\n      swap2\n      pop\n      pop\n      jump\t// out\n        /* \"#utility.yul\":10677:10986   */\n    tag_53:\n        /* \"#utility.yul\":10788:10792   */\n      0x00\n        /* \"#utility.yul\":10826:10828   */\n      0x20\n        /* \"#utility.yul\":10815:10824   */\n      dup3\n        /* \"#utility.yul\":10811:10829   */\n      add\n        /* \"#utility.yul\":10803:10829   */\n      swap1\n      pop\n        /* \"#utility.yul\":10875:10884   */\n      dup2\n        /* \"#utility.yul\":10869:10873   */\n      dup2\n        /* \"#utility.yul\":10865:10885   */\n      sub\n        /* \"#utility.yul\":10861:10862   */\n      0x00\n        /* \"#utility.yul\":10850:10859   */\n      dup4\n        /* \"#utility.yul\":10846:10863   */\n      add\n        /* \"#utility.yul\":10839:10886   */\n      mstore\n        /* \"#utility.yul\":10903:10979   */\n      tag_413\n        /* \"#utility.yul\":10974:10978   */\n      dup2\n        /* \"#utility.yul\":10965:10971   */\n      dup5\n        /* \"#utility.yul\":10903:10979   */\n      tag_260\n      jump\t// in\n    tag_413:\n        /* \"#utility.yul\":10895:10979   */\n      swap1\n      pop\n        /* \"#utility.yul\":10677:10986   */\n      swap3\n      swap2\n      pop\n      pop\n      jump\t// out\n        /* \"#utility.yul\":10992:11321   */\n    tag_57:\n        /* \"#utility.yul\":11051:11057   */\n      0x00\n        /* \"#utility.yul\":11100:11102   */\n      0x20\n        /* \"#utility.yul\":11088:11097   */\n      dup3\n        /* \"#utility.yul\":11079:11086   */\n      dup5\n        /* \"#utility.yul\":11075:11098   */\n      sub\n        /* \"#utility.yul\":11071:11103   */\n      slt\n        /* \"#utility.yul\":11068:11187   */\n      iszero\n      tag_415\n      jumpi\n        /* \"#utility.yul\":11106:11185   */\n      tag_416\n      tag_240\n      jump\t// in\n    tag_416:\n        /* \"#utility.yul\":11068:11187   */\n    tag_415:\n        /* \"#utility.yul\":11226:11227   */\n      0x00\n        /* \"#utility.yul\":11251:11304   */\n      tag_417\n        /* \"#utility.yul\":11296:11303   */\n      dup5\n        /* \"#utility.yul\":11287:11293   */\n      dup3\n        /* \"#utility.yul\":11276:11285   */\n      dup6\n        /* \"#utility.yul\":11272:11294   */\n      add\n        /* \"#utility.yul\":11251:11304   */\n      tag_245\n      jump\t// in\n    tag_417:\n        /* \"#utility.yul\":11241:11304   */\n      swap2\n      pop\n        /* \"#utility.yul\":11197:11314   */\n      pop\n        /* \"#utility.yul\":10992:11321   */\n      swap3\n      swap2\n      pop\n      pop\n      jump\t// out\n        /* \"#utility.yul\":11327:11404   */\n    tag_261:\n        /* \"#utility.yul\":11364:11371   */\n      0x00\n        /* \"#utility.yul\":11393:11398   */\n      dup2\n        /* \"#utility.yul\":11382:11398   */\n      swap1\n      pop\n        /* \"#utility.yul\":11327:11404   */\n      swap2\n      swap1\n      pop\n      jump\t// out\n        /* \"#utility.yul\":11410:11532   */\n    tag_262:\n        /* \"#utility.yul\":11483:11507   */\n      tag_420\n        /* \"#utility.yul\":11501:11506   */\n      dup2\n        /* \"#utility.yul\":11483:11507   */\n      tag_261\n      jump\t// in\n    tag_420:\n        /* \"#utility.yul\":11476:11481   */\n      dup2\n        /* \"#utility.yul\":11473:11508   */\n      eq\n        /* \"#utility.yul\":11463:11526   */\n      tag_421\n      jumpi\n        /* \"#utility.yul\":11522:11523   */\n      0x00\n        /* \"#utility.yul\":11519:11520   */\n      dup1\n        /* \"#utility.yul\":11512:11524   */\n      revert\n        /* \"#utility.yul\":11463:11526   */\n    tag_421:\n        /* \"#utility.yul\":11410:11532   */\n      pop\n      jump\t// out\n        /* \"#utility.yul\":11538:11677   */\n    tag_263:\n        /* \"#utility.yul\":11584:11589   */\n      0x00\n        /* \"#utility.yul\":11622:11628   */\n      dup2\n        /* \"#utility.yul\":11609:11629   */\n      calldataload\n        /* \"#utility.yul\":11600:11629   */\n      swap1\n      pop\n        /* \"#utility.yul\":11638:11671   */\n      tag_423\n        /* \"#utility.yul\":11665:11670   */\n      dup2\n        /* \"#utility.yul\":11638:11671   */\n      tag_262\n      jump\t// in\n    tag_423:\n        /* \"#utility.yul\":11538:11677   */\n      swap3\n      swap2\n      pop\n      pop\n      jump\t// out\n        /* \"#utility.yul\":11683:12335   */\n    tag_71:\n        /* \"#utility.yul\":11760:11766   */\n      0x00\n        /* \"#utility.yul\":11768:11774   */\n      dup1\n        /* \"#utility.yul\":11817:11819   */\n      0x40\n        /* \"#utility.yul\":11805:11814   */\n      dup4\n        /* \"#utility.yul\":11796:11803   */\n      dup6\n        /* \"#utility.yul\":11792:11815   */\n      sub\n        /* \"#utility.yul\":11788:11820   */\n      slt\n        /* \"#utility.yul\":11785:11904   */\n      iszero\n      tag_425\n      jumpi\n        /* \"#utility.yul\":11823:11902   */\n      tag_426\n      tag_240\n      jump\t// in\n    tag_426:\n        /* \"#utility.yul\":11785:11904   */\n    tag_425:\n        /* \"#utility.yul\":11943:11944   */\n      0x00\n        /* \"#utility.yul\":11968:12021   */\n      tag_427\n        /* \"#utility.yul\":12013:12020   */\n      dup6\n        /* \"#utility.yul\":12004:12010   */\n      dup3\n        /* \"#utility.yul\":11993:12002   */\n      dup7\n        /* \"#utility.yul\":11989:12011   */\n      add\n        /* \"#utility.yul\":11968:12021   */\n      tag_263\n      jump\t// in\n    tag_427:\n        /* \"#utility.yul\":11958:12021   */\n      swap3\n      pop\n        /* \"#utility.yul\":11914:12031   */\n      pop\n        /* \"#utility.yul\":12098:12100   */\n      0x20\n        /* \"#utility.yul\":12087:12096   */\n      dup4\n        /* \"#utility.yul\":12083:12101   */\n      add\n        /* \"#utility.yul\":12070:12102   */\n      calldataload\n        /* \"#utility.yul\":12129:12147   */\n      0xffffffffffffffff\n        /* \"#utility.yul\":12121:12127   */\n      dup2\n        /* \"#utility.yul\":12118:12148   */\n      gt\n        /* \"#utility.yul\":12115:12232   */\n      iszero\n      tag_428\n      jumpi\n        /* \"#utility.yul\":12151:12230   */\n      tag_429\n      tag_241\n      jump\t// in\n    tag_429:\n        /* \"#utility.yul\":12115:12232   */\n    tag_428:\n        /* \"#utility.yul\":12256:12318   */\n      tag_430\n        /* \"#utility.yul\":12310:12317   */\n      dup6\n        /* \"#utility.yul\":12301:12307   */\n      dup3\n        /* \"#utility.yul\":12290:12299   */\n      dup7\n        /* \"#utility.yul\":12286:12308   */\n      add\n        /* \"#utility.yul\":12256:12318   */\n      tag_255\n      jump\t// in\n    tag_430:\n        /* \"#utility.yul\":12246:12318   */\n      swap2\n      pop\n        /* \"#utility.yul\":12041:12328   */\n      pop\n        /* \"#utility.yul\":11683:12335   */\n      swap3\n      pop\n      swap3\n      swap1\n      pop\n      jump\t// out\n        /* \"#utility.yul\":12341:13138   */\n    tag_76:\n        /* \"#utility.yul\":12427:12433   */\n      0x00\n        /* \"#utility.yul\":12435:12441   */\n      dup1\n        /* \"#utility.yul\":12443:12449   */\n      0x00\n        /* \"#utility.yul\":12492:12494   */\n      0x60\n        /* \"#utility.yul\":12480:12489   */\n      dup5\n        /* \"#utility.yul\":12471:12478   */\n      dup7\n        /* \"#utility.yul\":12467:12490   */\n      sub\n        /* \"#utility.yul\":12463:12495   */\n      slt\n        /* \"#utility.yul\":12460:12579   */\n      iszero\n      tag_432\n      jumpi\n        /* \"#utility.yul\":12498:12577   */\n      tag_433\n      tag_240\n      jump\t// in\n    tag_433:\n        /* \"#utility.yul\":12460:12579   */\n    tag_432:\n        /* \"#utility.yul\":12618:12619   */\n      0x00\n        /* \"#utility.yul\":12643:12696   */\n      tag_434\n        /* \"#utility.yul\":12688:12695   */\n      dup7\n        /* \"#utility.yul\":12679:12685   */\n      dup3\n        /* \"#utility.yul\":12668:12677   */\n      dup8\n        /* \"#utility.yul\":12664:12686   */\n      add\n        /* \"#utility.yul\":12643:12696   */\n      tag_243\n      jump\t// in\n    tag_434:\n        /* \"#utility.yul\":12633:12696   */\n      swap4\n      pop\n        /* \"#utility.yul\":12589:12706   */\n      pop\n        /* \"#utility.yul\":12745:12747   */\n      0x20\n        /* \"#utility.yul\":12771:12824   */\n      tag_435\n        /* \"#utility.yul\":12816:12823   */\n      dup7\n        /* \"#utility.yul\":12807:12813   */\n      dup3\n        /* \"#utility.yul\":12796:12805   */\n      dup8\n        /* \"#utility.yul\":12792:12814   */\n      add\n        /* \"#utility.yul\":12771:12824   */\n      tag_245\n      jump\t// in\n    tag_435:\n        /* \"#utility.yul\":12761:12824   */\n      swap3\n      pop\n        /* \"#utility.yul\":12716:12834   */\n      pop\n        /* \"#utility.yul\":12901:12903   */\n      0x40\n        /* \"#utility.yul\":12890:12899   */\n      dup5\n        /* \"#utility.yul\":12886:12904   */\n      add\n        /* \"#utility.yul\":12873:12905   */\n      calldataload\n        /* \"#utility.yul\":12932:12950   */\n      0xffffffffffffffff\n        /* \"#utility.yul\":12924:12930   */\n      dup2\n        /* \"#utility.yul\":12921:12951   */\n      gt\n        /* \"#utility.yul\":12918:13035   */\n      iszero\n      tag_436\n      jumpi\n        /* \"#utility.yul\":12954:13033   */\n      tag_437\n      tag_241\n      jump\t// in\n    tag_437:\n        /* \"#utility.yul\":12918:13035   */\n    tag_436:\n        /* \"#utility.yul\":13059:13121   */\n      tag_438\n        /* \"#utility.yul\":13113:13120   */\n      dup7\n        /* \"#utility.yul\":13104:13110   */\n      dup3\n        /* \"#utility.yul\":13093:13102   */\n      dup8\n        /* \"#utility.yul\":13089:13111   */\n      add\n        /* \"#utility.yul\":13059:13121   */\n      tag_255\n      jump\t// in\n    tag_438:\n        /* \"#utility.yul\":13049:13121   */\n      swap2\n      pop\n        /* \"#utility.yul\":12844:13131   */\n      pop\n        /* \"#utility.yul\":12341:13138   */\n      swap3\n      pop\n      swap3\n      pop\n      swap3\n      jump\t// out\n        /* \"#utility.yul\":13144:13262   */\n    tag_264:\n        /* \"#utility.yul\":13231:13255   */\n      tag_440\n        /* \"#utility.yul\":13249:13254   */\n      dup2\n        /* \"#utility.yul\":13231:13255   */\n      tag_261\n      jump\t// in\n    tag_440:\n        /* \"#utility.yul\":13226:13229   */\n      dup3\n        /* \"#utility.yul\":13219:13256   */\n      mstore\n        /* \"#utility.yul\":13144:13262   */\n      pop\n      pop\n      jump\t// out\n        /* \"#utility.yul\":13268:13490   */\n    tag_79:\n        /* \"#utility.yul\":13361:13365   */\n      0x00\n        /* \"#utility.yul\":13399:13401   */\n      0x20\n        /* \"#utility.yul\":13388:13397   */\n      dup3\n        /* \"#utility.yul\":13384:13402   */\n      add\n        /* \"#utility.yul\":13376:13402   */\n      swap1\n      pop\n        /* \"#utility.yul\":13412:13483   */\n      tag_442\n        /* \"#utility.yul\":13480:13481   */\n      0x00\n        /* \"#utility.yul\":13469:13478   */\n      dup4\n        /* \"#utility.yul\":13465:13482   */\n      add\n        /* \"#utility.yul\":13456:13462   */\n      dup5\n        /* \"#utility.yul\":13412:13483   */\n      tag_264\n      jump\t// in\n    tag_442:\n        /* \"#utility.yul\":13268:13490   */\n      swap3\n      swap2\n      pop\n      pop\n      jump\t// out\n        /* \"#utility.yul\":13496:13676   */\n    tag_103:\n        /* \"#utility.yul\":13544:13621   */\n      0x4e487b7100000000000000000000000000000000000000000000000000000000\n        /* \"#utility.yul\":13541:13542   */\n      0x00\n        /* \"#utility.yul\":13534:13622   */\n      mstore\n        /* \"#utility.yul\":13641:13645   */\n      0x32\n        /* \"#utility.yul\":13638:13639   */\n      0x04\n        /* \"#utility.yul\":13631:13646   */\n      mstore\n        /* \"#utility.yul\":13665:13669   */\n      0x24\n        /* \"#utility.yul\":13662:13663   */\n      0x00\n        /* \"#utility.yul\":13655:13670   */\n      revert\n        /* \"#utility.yul\":13682:13862   */\n    tag_265:\n        /* \"#utility.yul\":13730:13807   */\n      0x4e487b7100000000000000000000000000000000000000000000000000000000\n        /* \"#utility.yul\":13727:13728   */\n      0x00\n        /* \"#utility.yul\":13720:13808   */\n      mstore\n        /* \"#utility.yul\":13827:13831   */\n      0x11\n        /* \"#utility.yul\":13824:13825   */\n      0x04\n        /* \"#utility.yul\":13817:13832   */\n      mstore\n        /* \"#utility.yul\":13851:13855   */\n      0x24\n        /* \"#utility.yul\":13848:13849   */\n      0x00\n        /* \"#utility.yul\":13841:13856   */\n      revert\n        /* \"#utility.yul\":13868:14101   */\n    tag_112:\n        /* \"#utility.yul\":13907:13910   */\n      0x00\n        /* \"#utility.yul\":13930:13954   */\n      tag_446\n        /* \"#utility.yul\":13948:13953   */\n      dup3\n        /* \"#utility.yul\":13930:13954   */\n      tag_224\n      jump\t// in\n    tag_446:\n        /* \"#utility.yul\":13921:13954   */\n      swap2\n      pop\n        /* \"#utility.yul\":13976:14042   */\n      0xffffffffffffffffffffffffffffffffffffffffffffffffffffffffffffffff\n        /* \"#utility.yul\":13969:13974   */\n      dup3\n        /* \"#utility.yul\":13966:14043   */\n      sub\n        /* \"#utility.yul\":13963:14066   */\n      tag_447\n      jumpi\n        /* \"#utility.yul\":14046:14064   */\n      tag_448\n      tag_265\n      jump\t// in\n    tag_448:\n        /* \"#utility.yul\":13963:14066   */\n    tag_447:\n        /* \"#utility.yul\":14093:14094   */\n      0x01\n        /* \"#utility.yul\":14086:14091   */\n      dup3\n        /* \"#utility.yul\":14082:14095   */\n      add\n        /* \"#utility.yul\":14075:14095   */\n      swap1\n      pop\n        /* \"#utility.yul\":13868:14101   */\n      swap2\n      swap1\n      pop\n      jump\t// out\n        /* \"#utility.yul\":14107:14276   */\n    tag_266:\n        /* \"#utility.yul\":14191:14202   */\n      0x00\n        /* \"#utility.yul\":14225:14231   */\n      dup3\n        /* \"#utility.yul\":14220:14223   */\n      dup3\n        /* \"#utility.yul\":14213:14232   */\n      mstore\n        /* \"#utility.yul\":14265:14269   */\n      0x20\n        /* \"#utility.yul\":14260:14263   */\n      dup3\n        /* \"#utility.yul\":14256:14270   */\n      add\n        /* \"#utility.yul\":14241:14270   */\n      swap1\n      pop\n        /* \"#utility.yul\":14107:14276   */\n      swap3\n      swap2\n      pop\n      pop\n      jump\t// out\n        /* \"#utility.yul\":14282:14446   */\n    tag_267:\n        /* \"#utility.yul\":14422:14438   */\n      0x4e6f7420617574686f72697a6564000000000000000000000000000000000000\n        /* \"#utility.yul\":14418:14419   */\n      0x00\n        /* \"#utility.yul\":14410:14416   */\n      dup3\n        /* \"#utility.yul\":14406:14420   */\n      add\n        /* \"#utility.yul\":14399:14439   */\n      mstore\n        /* \"#utility.yul\":14282:14446   */\n      pop\n      jump\t// out\n        /* \"#utility.yul\":14452:14818   */\n    tag_268:\n        /* \"#utility.yul\":14594:14597   */\n      0x00\n        /* \"#utility.yul\":14615:14682   */\n      tag_452\n        /* \"#utility.yul\":14679:14681   */\n      0x0e\n        /* \"#utility.yul\":14674:14677   */\n      dup4\n        /* \"#utility.yul\":14615:14682   */\n      tag_266\n      jump\t// in\n    tag_452:\n        /* \"#utility.yul\":14608:14682   */\n      swap2\n      pop\n        /* \"#utility.yul\":14691:14784   */\n      tag_453\n        /* \"#utility.yul\":14780:14783   */\n      dup3\n        /* \"#utility.yul\":14691:14784   */\n      tag_267\n      jump\t// in\n    tag_453:\n        /* \"#utility.yul\":14809:14811   */\n      0x20\n        /* \"#utility.yul\":14804:14807   */\n      dup3\n        /* \"#utility.yul\":14800:14812   */\n      add\n        /* \"#utility.yul\":14793:14812   */\n      swap1\n      pop\n        /* \"#utility.yul\":14452:14818   */\n      swap2\n      swap1\n      pop\n      jump\t// out\n        /* \"#utility.yul\":14824:15243   */\n    tag_117:\n        /* \"#utility.yul\":14990:14994   */\n      0x00\n        /* \"#utility.yul\":15028:15030   */\n      0x20\n        /* \"#utility.yul\":15017:15026   */\n      dup3\n        /* \"#utility.yul\":15013:15031   */\n      add\n        /* \"#utility.yul\":15005:15031   */\n      swap1\n      pop\n        /* \"#utility.yul\":15077:15086   */\n      dup2\n        /* \"#utility.yul\":15071:15075   */\n      dup2\n        /* \"#utility.yul\":15067:15087   */\n      sub\n        /* \"#utility.yul\":15063:15064   */\n      0x00\n        /* \"#utility.yul\":15052:15061   */\n      dup4\n        /* \"#utility.yul\":15048:15065   */\n      add\n        /* \"#utility.yul\":15041:15088   */\n      mstore\n        /* \"#utility.yul\":15105:15236   */\n      tag_455\n        /* \"#utility.yul\":15231:15235   */\n      dup2\n        /* \"#utility.yul\":15105:15236   */\n      tag_268\n      jump\t// in\n    tag_455:\n        /* \"#utility.yul\":15097:15236   */\n      swap1\n      pop\n        /* \"#utility.yul\":14824:15243   */\n      swap2\n      swap1\n      pop\n      jump\t// out\n        /* \"#utility.yul\":15249:15440   */\n    tag_120:\n        /* \"#utility.yul\":15289:15292   */\n      0x00\n        /* \"#utility.yul\":15308:15328   */\n      tag_457\n        /* \"#utility.yul\":15326:15327   */\n      dup3\n        /* \"#utility.yul\":15308:15328   */\n      tag_224\n      jump\t// in\n    tag_457:\n        /* \"#utility.yul\":15303:15328   */\n      swap2\n      pop\n        /* \"#utility.yul\":15342:15362   */\n      tag_458\n        /* \"#utility.yul\":15360:15361   */\n      dup4\n        /* \"#utility.yul\":15342:15362   */\n      tag_224\n      jump\t// in\n    tag_458:\n        /* \"#utility.yul\":15337:15362   */\n      swap3\n      pop\n        /* \"#utility.yul\":15385:15386   */\n      dup3\n        /* \"#utility.yul\":15382:15383   */\n      dup3\n        /* \"#utility.yul\":15378:15387   */\n      add\n        /* \"#utility.yul\":15371:15387   */\n      swap1\n      pop\n        /* \"#utility.yul\":15406:15409   */\n      dup1\n        /* \"#utility.yul\":15403:15404   */\n      dup3\n        /* \"#utility.yul\":15400:15410   */\n      gt\n        /* \"#utility.yul\":15397:15433   */\n      iszero\n      tag_459\n      jumpi\n        /* \"#utility.yul\":15413:15431   */\n      tag_460\n      tag_265\n      jump\t// in\n    tag_460:\n        /* \"#utility.yul\":15397:15433   */\n    tag_459:\n        /* \"#utility.yul\":15249:15440   */\n      swap3\n      swap2\n      pop\n      pop\n      jump\t// out\n        /* \"#utility.yul\":15446:15603   */\n    tag_269:\n        /* \"#utility.yul\":15586:15595   */\n      0x6572726f72303400000000000000000000000000000000000000000000000000\n        /* \"#utility.yul\":15582:15583   */\n      0x00\n        /* \"#utility.yul\":15574:15580   */\n      dup3\n        /* \"#utility.yul\":15570:15584   */\n      add\n        /* \"#utility.yul\":15563:15596   */\n      mstore\n        /* \"#utility.yul\":15446:15603   */\n      pop\n      jump\t// out\n        /* \"#utility.yul\":15609:15974   */\n    tag_270:\n        /* \"#utility.yul\":15751:15754   */\n      0x00\n        /* \"#utility.yul\":15772:15838   */\n      tag_463\n        /* \"#utility.yul\":15836:15837   */\n      0x07\n        /* \"#utility.yul\":15831:15834   */\n      dup4\n        /* \"#utility.yul\":15772:15838   */\n      tag_266\n      jump\t// in\n    tag_463:\n        /* \"#utility.yul\":15765:15838   */\n      swap2\n      pop\n        /* \"#utility.yul\":15847:15940   */\n      tag_464\n        /* \"#utility.yul\":15936:15939   */\n      dup3\n        /* \"#utility.yul\":15847:15940   */\n      tag_269\n      jump\t// in\n    tag_464:\n        /* \"#utility.yul\":15965:15967   */\n      0x20\n        /* \"#utility.yul\":15960:15963   */\n      dup3\n        /* \"#utility.yul\":15956:15968   */\n      add\n        /* \"#utility.yul\":15949:15968   */\n      swap1\n      pop\n        /* \"#utility.yul\":15609:15974   */\n      swap2\n      swap1\n      pop\n      jump\t// out\n        /* \"#utility.yul\":15980:16399   */\n    tag_127:\n        /* \"#utility.yul\":16146:16150   */\n      0x00\n        /* \"#utility.yul\":16184:16186   */\n      0x20\n        /* \"#utility.yul\":16173:16182   */\n      dup3\n        /* \"#utility.yul\":16169:16187   */\n      add\n        /* \"#utility.yul\":16161:16187   */\n      swap1\n      pop\n        /* \"#utility.yul\":16233:16242   */\n      dup2\n        /* \"#utility.yul\":16227:16231   */\n      dup2\n        /* \"#utility.yul\":16223:16243   */\n      sub\n        /* \"#utility.yul\":16219:16220   */\n      0x00\n        /* \"#utility.yul\":16208:16217   */\n      dup4\n        /* \"#utility.yul\":16204:16221   */\n      add\n        /* \"#utility.yul\":16197:16244   */\n      mstore\n        /* \"#utility.yul\":16261:16392   */\n      tag_466\n        /* \"#utility.yul\":16387:16391   */\n      dup2\n        /* \"#utility.yul\":16261:16392   */\n      tag_270\n      jump\t// in\n    tag_466:\n        /* \"#utility.yul\":16253:16392   */\n      swap1\n      pop\n        /* \"#utility.yul\":15980:16399   */\n      swap2\n      swap1\n      pop\n      jump\t// out\n        /* \"#utility.yul\":16405:16552   */\n    tag_271:\n        /* \"#utility.yul\":16506:16517   */\n      0x00\n        /* \"#utility.yul\":16543:16546   */\n      dup2\n        /* \"#utility.yul\":16528:16546   */\n      swap1\n      pop\n        /* \"#utility.yul\":16405:16552   */\n      swap3\n      swap2\n      pop\n      pop\n      jump\t// out\n        /* \"#utility.yul\":16580:16907   */\n    tag_272:\n        /* \"#utility.yul\":16694:16697   */\n      0x00\n        /* \"#utility.yul\":16715:16803   */\n      tag_469\n        /* \"#utility.yul\":16796:16802   */\n      dup4\n        /* \"#utility.yul\":16791:16794   */\n      dup6\n        /* \"#utility.yul\":16715:16803   */\n      tag_271\n      jump\t// in\n    tag_469:\n        /* \"#utility.yul\":16708:16803   */\n      swap4\n      pop\n        /* \"#utility.yul\":16813:16869   */\n      tag_470\n        /* \"#utility.yul\":16862:16868   */\n      dup4\n        /* \"#utility.yul\":16857:16860   */\n      dup6\n        /* \"#utility.yul\":16850:16855   */\n      dup5\n        /* \"#utility.yul\":16813:16869   */\n      tag_227\n      jump\t// in\n    tag_470:\n        /* \"#utility.yul\":16894:16900   */\n      dup3\n        /* \"#utility.yul\":16889:16892   */\n      dup5\n        /* \"#utility.yul\":16885:16901   */\n      add\n        /* \"#utility.yul\":16878:16901   */\n      swap1\n      pop\n        /* \"#utility.yul\":16580:16907   */\n      swap4\n      swap3\n      pop\n      pop\n      pop\n      jump\t// out\n        /* \"#utility.yul\":16913:17204   */\n    tag_138:\n        /* \"#utility.yul\":17053:17056   */\n      0x00\n        /* \"#utility.yul\":17075:17178   */\n      tag_472\n        /* \"#utility.yul\":17174:17177   */\n      dup3\n        /* \"#utility.yul\":17165:17171   */\n      dup5\n        /* \"#utility.yul\":17157:17163   */\n      dup7\n        /* \"#utility.yul\":17075:17178   */\n      tag_272\n      jump\t// in\n    tag_472:\n        /* \"#utility.yul\":17068:17178   */\n      swap2\n      pop\n        /* \"#utility.yul\":17195:17198   */\n      dup2\n        /* \"#utility.yul\":17188:17198   */\n      swap1\n      pop\n        /* \"#utility.yul\":16913:17204   */\n      swap4\n      swap3\n      pop\n      pop\n      pop\n      jump\t// out\n        /* \"#utility.yul\":17210:17328   */\n    tag_273:\n        /* \"#utility.yul\":17297:17321   */\n      tag_474\n        /* \"#utility.yul\":17315:17320   */\n      dup2\n        /* \"#utility.yul\":17297:17321   */\n      tag_234\n      jump\t// in\n    tag_474:\n        /* \"#utility.yul\":17292:17295   */\n      dup3\n        /* \"#utility.yul\":17285:17322   */\n      mstore\n        /* \"#utility.yul\":17210:17328   */\n      pop\n      pop\n      jump\t// out\n        /* \"#utility.yul\":17334:17666   */\n    tag_147:\n        /* \"#utility.yul\":17455:17459   */\n      0x00\n        /* \"#utility.yul\":17493:17495   */\n      0x40\n        /* \"#utility.yul\":17482:17491   */\n      dup3\n        /* \"#utility.yul\":17478:17496   */\n      add\n        /* \"#utility.yul\":17470:17496   */\n      swap1\n      pop\n        /* \"#utility.yul\":17506:17577   */\n      tag_476\n        /* \"#utility.yul\":17574:17575   */\n      0x00\n        /* \"#utility.yul\":17563:17572   */\n      dup4\n        /* \"#utility.yul\":17559:17576   */\n      add\n        /* \"#utility.yul\":17550:17556   */\n      dup6\n        /* \"#utility.yul\":17506:17577   */\n      tag_273\n      jump\t// in\n    tag_476:\n        /* \"#utility.yul\":17587:17659   */\n      tag_477\n        /* \"#utility.yul\":17655:17657   */\n      0x20\n        /* \"#utility.yul\":17644:17653   */\n      dup4\n        /* \"#utility.yul\":17640:17658   */\n      add\n        /* \"#utility.yul\":17631:17637   */\n      dup5\n        /* \"#utility.yul\":17587:17659   */\n      tag_225\n      jump\t// in\n    tag_477:\n        /* \"#utility.yul\":17334:17666   */\n      swap4\n      swap3\n      pop\n      pop\n      pop\n      jump\t// out\n        /* \"#utility.yul\":17672:17829   */\n    tag_274:\n        /* \"#utility.yul\":17812:17821   */\n      0x6572726f72303200000000000000000000000000000000000000000000000000\n        /* \"#utility.yul\":17808:17809   */\n      0x00\n        /* \"#utility.yul\":17800:17806   */\n      dup3\n        /* \"#utility.yul\":17796:17810   */\n      add\n        /* \"#utility.yul\":17789:17822   */\n      mstore\n        /* \"#utility.yul\":17672:17829   */\n      pop\n      jump\t// out\n        /* \"#utility.yul\":17835:18200   */\n    tag_275:\n        /* \"#utility.yul\":17977:17980   */\n      0x00\n        /* \"#utility.yul\":17998:18064   */\n      tag_480\n        /* \"#utility.yul\":18062:18063   */\n      0x07\n        /* \"#utility.yul\":18057:18060   */\n      dup4\n        /* \"#utility.yul\":17998:18064   */\n      tag_266\n      jump\t// in\n    tag_480:\n        /* \"#utility.yul\":17991:18064   */\n      swap2\n      pop\n        /* \"#utility.yul\":18073:18166   */\n      tag_481\n        /* \"#utility.yul\":18162:18165   */\n      dup3\n        /* \"#utility.yul\":18073:18166   */\n      tag_274\n      jump\t// in\n    tag_481:\n        /* \"#utility.yul\":18191:18193   */\n      0x20\n        /* \"#utility.yul\":18186:18189   */\n      dup3\n        /* \"#utility.yul\":18182:18194   */\n      add\n        /* \"#utility.yul\":18175:18194   */\n      swap1\n      pop\n        /* \"#utility.yul\":17835:18200   */\n      swap2\n      swap1\n      pop\n      jump\t// out\n        /* \"#utility.yul\":18206:18625   */\n    tag_156:\n        /* \"#utility.yul\":18372:18376   */\n      0x00\n        /* \"#utility.yul\":18410:18412   */\n      0x20\n        /* \"#utility.yul\":18399:18408   */\n      dup3\n        /* \"#utility.yul\":18395:18413   */\n      add\n        /* \"#utility.yul\":18387:18413   */\n      swap1\n      pop\n        /* \"#utility.yul\":18459:18468   */\n      dup2\n        /* \"#utility.yul\":18453:18457   */\n      dup2\n        /* \"#utility.yul\":18449:18469   */\n      sub\n        /* \"#utility.yul\":18445:18446   */\n      0x00\n        /* \"#utility.yul\":18434:18443   */\n      dup4\n        /* \"#utility.yul\":18430:18447   */\n      add\n        /* \"#utility.yul\":18423:18470   */\n      mstore\n        /* \"#utility.yul\":18487:18618   */\n      tag_483\n        /* \"#utility.yul\":18613:18617   */\n      dup2\n        /* \"#utility.yul\":18487:18618   */\n      tag_275\n      jump\t// in\n    tag_483:\n        /* \"#utility.yul\":18479:18618   */\n      swap1\n      pop\n        /* \"#utility.yul\":18206:18625   */\n      swap2\n      swap1\n      pop\n      jump\t// out\n        /* \"#utility.yul\":18631:18788   */\n    tag_276:\n        /* \"#utility.yul\":18771:18780   */\n      0x6572726f72303300000000000000000000000000000000000000000000000000\n        /* \"#utility.yul\":18767:18768   */\n      0x00\n        /* \"#utility.yul\":18759:18765   */\n      dup3\n        /* \"#utility.yul\":18755:18769   */\n      add\n        /* \"#utility.yul\":18748:18781   */\n      mstore\n        /* \"#utility.yul\":18631:18788   */\n      pop\n      jump\t// out\n        /* \"#utility.yul\":18794:19159   */\n    tag_277:\n        /* \"#utility.yul\":18936:18939   */\n      0x00\n        /* \"#utility.yul\":18957:19023   */\n      tag_486\n        /* \"#utility.yul\":19021:19022   */\n      0x07\n        /* \"#utility.yul\":19016:19019   */\n      dup4\n        /* \"#utility.yul\":18957:19023   */\n      tag_266\n      jump\t// in\n    tag_486:\n        /* \"#utility.yul\":18950:19023   */\n      swap2\n      pop\n        /* \"#utility.yul\":19032:19125   */\n      tag_487\n        /* \"#utility.yul\":19121:19124   */\n      dup3\n        /* \"#utility.yul\":19032:19125   */\n      tag_276\n      jump\t// in\n    tag_487:\n        /* \"#utility.yul\":19150:19152   */\n      0x20\n        /* \"#utility.yul\":19145:19148   */\n      dup3\n        /* \"#utility.yul\":19141:19153   */\n      add\n        /* \"#utility.yul\":19134:19153   */\n      swap1\n      pop\n        /* \"#utility.yul\":18794:19159   */\n      swap2\n      swap1\n      pop\n      jump\t// out\n        /* \"#utility.yul\":19165:19584   */\n    tag_159:\n        /* \"#utility.yul\":19331:19335   */\n      0x00\n        /* \"#utility.yul\":19369:19371   */\n      0x20\n        /* \"#utility.yul\":19358:19367   */\n      dup3\n        /* \"#utility.yul\":19354:19372   */\n      add\n        /* \"#utility.yul\":19346:19372   */\n      swap1\n      pop\n        /* \"#utility.yul\":19418:19427   */\n      dup2\n        /* \"#utility.yul\":19412:19416   */\n      dup2\n        /* \"#utility.yul\":19408:19428   */\n      sub\n        /* \"#utility.yul\":19404:19405   */\n      0x00\n        /* \"#utility.yul\":19393:19402   */\n      dup4\n        /* \"#utility.yul\":19389:19406   */\n      add\n        /* \"#utility.yul\":19382:19429   */\n      mstore\n        /* \"#utility.yul\":19446:19577   */\n      tag_489\n        /* \"#utility.yul\":19572:19576   */\n      dup2\n        /* \"#utility.yul\":19446:19577   */\n      tag_277\n      jump\t// in\n    tag_489:\n        /* \"#utility.yul\":19438:19577   */\n      swap1\n      pop\n        /* \"#utility.yul\":19165:19584   */\n      swap2\n      swap1\n      pop\n      jump\t// out\n        /* \"#utility.yul\":19590:19747   */\n    tag_278:\n        /* \"#utility.yul\":19730:19739   */\n      0x6572726f72303500000000000000000000000000000000000000000000000000\n        /* \"#utility.yul\":19726:19727   */\n      0x00\n        /* \"#utility.yul\":19718:19724   */\n      dup3\n        /* \"#utility.yul\":19714:19728   */\n      add\n        /* \"#utility.yul\":19707:19740   */\n      mstore\n        /* \"#utility.yul\":19590:19747   */\n      pop\n      jump\t// out\n        /* \"#utility.yul\":19753:20118   */\n    tag_279:\n        /* \"#utility.yul\":19895:19898   */\n      0x00\n        /* \"#utility.yul\":19916:19982   */\n      tag_492\n        /* \"#utility.yul\":19980:19981   */\n      0x07\n        /* \"#utility.yul\":19975:19978   */\n      dup4\n        /* \"#utility.yul\":19916:19982   */\n      tag_266\n      jump\t// in\n    tag_492:\n        /* \"#utility.yul\":19909:19982   */\n      swap2\n      pop\n        /* \"#utility.yul\":19991:20084   */\n      tag_493\n        /* \"#utility.yul\":20080:20083   */\n      dup3\n        /* \"#utility.yul\":19991:20084   */\n      tag_278\n      jump\t// in\n    tag_493:\n        /* \"#utility.yul\":20109:20111   */\n      0x20\n        /* \"#utility.yul\":20104:20107   */\n      dup3\n        /* \"#utility.yul\":20100:20112   */\n      add\n        /* \"#utility.yul\":20093:20112   */\n      swap1\n      pop\n        /* \"#utility.yul\":19753:20118   */\n      swap2\n      swap1\n      pop\n      jump\t// out\n        /* \"#utility.yul\":20124:20543   */\n    tag_165:\n        /* \"#utility.yul\":20290:20294   */\n      0x00\n        /* \"#utility.yul\":20328:20330   */\n      0x20\n        /* \"#utility.yul\":20317:20326   */\n      dup3\n        /* \"#utility.yul\":20313:20331   */\n      add\n        /* \"#utility.yul\":20305:20331   */\n      swap1\n      pop\n        /* \"#utility.yul\":20377:20386   */\n      dup2\n        /* \"#utility.yul\":20371:20375   */\n      dup2\n        /* \"#utility.yul\":20367:20387   */\n      sub\n        /* \"#utility.yul\":20363:20364   */\n      0x00\n        /* \"#utility.yul\":20352:20361   */\n      dup4\n        /* \"#utility.yul\":20348:20365   */\n      add\n        /* \"#utility.yul\":20341:20388   */\n      mstore\n        /* \"#utility.yul\":20405:20536   */\n      tag_495\n        /* \"#utility.yul\":20531:20535   */\n      dup2\n        /* \"#utility.yul\":20405:20536   */\n      tag_279\n      jump\t// in\n    tag_495:\n        /* \"#utility.yul\":20397:20536   */\n      swap1\n      pop\n        /* \"#utility.yul\":20124:20543   */\n      swap2\n      swap1\n      pop\n      jump\t// out\n        /* \"#utility.yul\":20549:20743   */\n    tag_175:\n        /* \"#utility.yul\":20589:20593   */\n      0x00\n        /* \"#utility.yul\":20609:20629   */\n      tag_497\n        /* \"#utility.yul\":20627:20628   */\n      dup3\n        /* \"#utility.yul\":20609:20629   */\n      tag_224\n      jump\t// in\n    tag_497:\n        /* \"#utility.yul\":20604:20629   */\n      swap2\n      pop\n        /* \"#utility.yul\":20643:20663   */\n      tag_498\n        /* \"#utility.yul\":20661:20662   */\n      dup4\n        /* \"#utility.yul\":20643:20663   */\n      tag_224\n      jump\t// in\n    tag_498:\n        /* \"#utility.yul\":20638:20663   */\n      swap3\n      pop\n        /* \"#utility.yul\":20687:20688   */\n      dup3\n        /* \"#utility.yul\":20684:20685   */\n      dup3\n        /* \"#utility.yul\":20680:20689   */\n      sub\n        /* \"#utility.yul\":20672:20689   */\n      swap1\n      pop\n        /* \"#utility.yul\":20711:20712   */\n      dup2\n        /* \"#utility.yul\":20705:20709   */\n      dup2\n        /* \"#utility.yul\":20702:20713   */\n      gt\n        /* \"#utility.yul\":20699:20736   */\n      iszero\n      tag_499\n      jumpi\n        /* \"#utility.yul\":20716:20734   */\n      tag_500\n      tag_265\n      jump\t// in\n    tag_500:\n        /* \"#utility.yul\":20699:20736   */\n    tag_499:\n        /* \"#utility.yul\":20549:20743   */\n      swap3\n      swap2\n      pop\n      pop\n      jump\t// out\n        /* \"#utility.yul\":20749:20906   */\n    tag_280:\n        /* \"#utility.yul\":20889:20898   */\n      0x6572726f72303700000000000000000000000000000000000000000000000000\n        /* \"#utility.yul\":20885:20886   */\n      0x00\n        /* \"#utility.yul\":20877:20883   */\n      dup3\n        /* \"#utility.yul\":20873:20887   */\n      add\n        /* \"#utility.yul\":20866:20899   */\n      mstore\n        /* \"#utility.yul\":20749:20906   */\n      pop\n      jump\t// out\n        /* \"#utility.yul\":20912:21277   */\n    tag_281:\n        /* \"#utility.yul\":21054:21057   */\n      0x00\n        /* \"#utility.yul\":21075:21141   */\n      tag_503\n        /* \"#utility.yul\":21139:21140   */\n      0x07\n        /* \"#utility.yul\":21134:21137   */\n      dup4\n        /* \"#utility.yul\":21075:21141   */\n      tag_266\n      jump\t// in\n    tag_503:\n        /* \"#utility.yul\":21068:21141   */\n      swap2\n      pop\n        /* \"#utility.yul\":21150:21243   */\n      tag_504\n        /* \"#utility.yul\":21239:21242   */\n      dup3\n        /* \"#utility.yul\":21150:21243   */\n      tag_280\n      jump\t// in\n    tag_504:\n        /* \"#utility.yul\":21268:21270   */\n      0x20\n        /* \"#utility.yul\":21263:21266   */\n      dup3\n        /* \"#utility.yul\":21259:21271   */\n      add\n        /* \"#utility.yul\":21252:21271   */\n      swap1\n      pop\n        /* \"#utility.yul\":20912:21277   */\n      swap2\n      swap1\n      pop\n      jump\t// out\n        /* \"#utility.yul\":21283:21702   */\n    tag_180:\n        /* \"#utility.yul\":21449:21453   */\n      0x00\n        /* \"#utility.yul\":21487:21489   */\n      0x20\n        /* \"#utility.yul\":21476:21485   */\n      dup3\n        /* \"#utility.yul\":21472:21490   */\n      add\n        /* \"#utility.yul\":21464:21490   */\n      swap1\n      pop\n        /* \"#utility.yul\":21536:21545   */\n      dup2\n        /* \"#utility.yul\":21530:21534   */\n      dup2\n        /* \"#utility.yul\":21526:21546   */\n      sub\n        /* \"#utility.yul\":21522:21523   */\n      0x00\n        /* \"#utility.yul\":21511:21520   */\n      dup4\n        /* \"#utility.yul\":21507:21524   */\n      add\n        /* \"#utility.yul\":21500:21547   */\n      mstore\n        /* \"#utility.yul\":21564:21695   */\n      tag_506\n        /* \"#utility.yul\":21690:21694   */\n      dup2\n        /* \"#utility.yul\":21564:21695   */\n      tag_281\n      jump\t// in\n    tag_506:\n        /* \"#utility.yul\":21556:21695   */\n      swap1\n      pop\n        /* \"#utility.yul\":21283:21702   */\n      swap2\n      swap1\n      pop\n      jump\t// out\n        /* \"#utility.yul\":21708:21879   */\n    tag_193:\n        /* \"#utility.yul\":21747:21750   */\n      0x00\n        /* \"#utility.yul\":21770:21794   */\n      tag_508\n        /* \"#utility.yul\":21788:21793   */\n      dup3\n        /* \"#utility.yul\":21770:21794   */\n      tag_224\n      jump\t// in\n    tag_508:\n        /* \"#utility.yul\":21761:21794   */\n      swap2\n      pop\n        /* \"#utility.yul\":21816:21820   */\n      0x00\n        /* \"#utility.yul\":21809:21814   */\n      dup3\n        /* \"#utility.yul\":21806:21821   */\n      sub\n        /* \"#utility.yul\":21803:21844   */\n      tag_509\n      jumpi\n        /* \"#utility.yul\":21824:21842   */\n      tag_510\n      tag_265\n      jump\t// in\n    tag_510:\n        /* \"#utility.yul\":21803:21844   */\n    tag_509:\n        /* \"#utility.yul\":21871:21872   */\n      0x01\n        /* \"#utility.yul\":21864:21869   */\n      dup3\n        /* \"#utility.yul\":21860:21873   */\n      sub\n        /* \"#utility.yul\":21853:21873   */\n      swap1\n      pop\n        /* \"#utility.yul\":21708:21879   */\n      swap2\n      swap1\n      pop\n      jump\t// out\n        /* \"#utility.yul\":21885:22549   */\n    tag_200:\n        /* \"#utility.yul\":22090:22094   */\n      0x00\n        /* \"#utility.yul\":22128:22131   */\n      0xa0\n        /* \"#utility.yul\":22117:22126   */\n      dup3\n        /* \"#utility.yul\":22113:22132   */\n      add\n        /* \"#utility.yul\":22105:22132   */\n      swap1\n      pop\n        /* \"#utility.yul\":22142:22213   */\n      tag_512\n        /* \"#utility.yul\":22210:22211   */\n      0x00\n        /* \"#utility.yul\":22199:22208   */\n      dup4\n        /* \"#utility.yul\":22195:22212   */\n      add\n        /* \"#utility.yul\":22186:22192   */\n      dup9\n        /* \"#utility.yul\":22142:22213   */\n      tag_273\n      jump\t// in\n    tag_512:\n        /* \"#utility.yul\":22223:22295   */\n      tag_513\n        /* \"#utility.yul\":22291:22293   */\n      0x20\n        /* \"#utility.yul\":22280:22289   */\n      dup4\n        /* \"#utility.yul\":22276:22294   */\n      add\n        /* \"#utility.yul\":22267:22273   */\n      dup8\n        /* \"#utility.yul\":22223:22295   */\n      tag_225\n      jump\t// in\n    tag_513:\n        /* \"#utility.yul\":22305:22377   */\n      tag_514\n        /* \"#utility.yul\":22373:22375   */\n      0x40\n        /* \"#utility.yul\":22362:22371   */\n      dup4\n        /* \"#utility.yul\":22358:22376   */\n      add\n        /* \"#utility.yul\":22349:22355   */\n      dup7\n        /* \"#utility.yul\":22305:22377   */\n      tag_264\n      jump\t// in\n    tag_514:\n        /* \"#utility.yul\":22387:22459   */\n      tag_515\n        /* \"#utility.yul\":22455:22457   */\n      0x60\n        /* \"#utility.yul\":22444:22453   */\n      dup4\n        /* \"#utility.yul\":22440:22458   */\n      add\n        /* \"#utility.yul\":22431:22437   */\n      dup6\n        /* \"#utility.yul\":22387:22459   */\n      tag_225\n      jump\t// in\n    tag_515:\n        /* \"#utility.yul\":22469:22542   */\n      tag_516\n        /* \"#utility.yul\":22537:22540   */\n      0x80\n        /* \"#utility.yul\":22526:22535   */\n      dup4\n        /* \"#utility.yul\":22522:22541   */\n      add\n        /* \"#utility.yul\":22513:22519   */\n      dup5\n        /* \"#utility.yul\":22469:22542   */\n      tag_225\n      jump\t// in\n    tag_516:\n        /* \"#utility.yul\":21885:22549   */\n      swap7\n      swap6\n      pop\n      pop\n      pop\n      pop\n      pop\n      pop\n      jump\t// out\n        /* \"#utility.yul\":22555:22965   */\n    tag_203:\n        /* \"#utility.yul\":22595:22602   */\n      0x00\n        /* \"#utility.yul\":22618:22638   */\n      tag_518\n        /* \"#utility.yul\":22636:22637   */\n      dup3\n        /* \"#utility.yul\":22618:22638   */\n      tag_224\n      jump\t// in\n    tag_518:\n        /* \"#utility.yul\":22613:22638   */\n      swap2\n      pop\n        /* \"#utility.yul\":22652:22672   */\n      tag_519\n        /* \"#utility.yul\":22670:22671   */\n      dup4\n        /* \"#utility.yul\":22652:22672   */\n      tag_224\n      jump\t// in\n    tag_519:\n        /* \"#utility.yul\":22647:22672   */\n      swap3\n      pop\n        /* \"#utility.yul\":22707:22708   */\n      dup3\n        /* \"#utility.yul\":22704:22705   */\n      dup3\n        /* \"#utility.yul\":22700:22709   */\n      mul\n        /* \"#utility.yul\":22729:22759   */\n      tag_520\n        /* \"#utility.yul\":22747:22758   */\n      dup2\n        /* \"#utility.yul\":22729:22759   */\n      tag_224\n      jump\t// in\n    tag_520:\n        /* \"#utility.yul\":22718:22759   */\n      swap2\n      pop\n        /* \"#utility.yul\":22908:22909   */\n      dup3\n        /* \"#utility.yul\":22899:22906   */\n      dup3\n        /* \"#utility.yul\":22895:22910   */\n      div\n        /* \"#utility.yul\":22892:22893   */\n      dup5\n        /* \"#utility.yul\":22889:22911   */\n      eq\n        /* \"#utility.yul\":22869:22870   */\n      dup4\n        /* \"#utility.yul\":22862:22871   */\n      iszero\n        /* \"#utility.yul\":22842:22925   */\n      or\n        /* \"#utility.yul\":22819:22958   */\n      tag_521\n      jumpi\n        /* \"#utility.yul\":22938:22956   */\n      tag_522\n      tag_265\n      jump\t// in\n    tag_522:\n        /* \"#utility.yul\":22819:22958   */\n    tag_521:\n        /* \"#utility.yul\":22603:22965   */\n      pop\n        /* \"#utility.yul\":22555:22965   */\n      swap3\n      swap2\n      pop\n      pop\n      jump\t// out\n        /* \"#utility.yul\":22971:23141   */\n    tag_282:\n        /* \"#utility.yul\":23111:23133   */\n      0x5369676e61747572657320746f6f2073686f7274000000000000000000000000\n        /* \"#utility.yul\":23107:23108   */\n      0x00\n        /* \"#utility.yul\":23099:23105   */\n      dup3\n        /* \"#utility.yul\":23095:23109   */\n      add\n        /* \"#utility.yul\":23088:23134   */\n      mstore\n        /* \"#utility.yul\":22971:23141   */\n      pop\n      jump\t// out\n        /* \"#utility.yul\":23147:23513   */\n    tag_283:\n        /* \"#utility.yul\":23289:23292   */\n      0x00\n        /* \"#utility.yul\":23310:23377   */\n      tag_525\n        /* \"#utility.yul\":23374:23376   */\n      0x14\n        /* \"#utility.yul\":23369:23372   */\n      dup4\n        /* \"#utility.yul\":23310:23377   */\n      tag_266\n      jump\t// in\n    tag_525:\n        /* \"#utility.yul\":23303:23377   */\n      swap2\n      pop\n        /* \"#utility.yul\":23386:23479   */\n      tag_526\n        /* \"#utility.yul\":23475:23478   */\n      dup3\n        /* \"#utility.yul\":23386:23479   */\n      tag_282\n      jump\t// in\n    tag_526:\n        /* \"#utility.yul\":23504:23506   */\n      0x20\n        /* \"#utility.yul\":23499:23502   */\n      dup3\n        /* \"#utility.yul\":23495:23507   */\n      add\n        /* \"#utility.yul\":23488:23507   */\n      swap1\n      pop\n        /* \"#utility.yul\":23147:23513   */\n      swap2\n      swap1\n      pop\n      jump\t// out\n        /* \"#utility.yul\":23519:23938   */\n    tag_206:\n        /* \"#utility.yul\":23685:23689   */\n      0x00\n        /* \"#utility.yul\":23723:23725   */\n      0x20\n        /* \"#utility.yul\":23712:23721   */\n      dup3\n        /* \"#utility.yul\":23708:23726   */\n      add\n        /* \"#utility.yul\":23700:23726   */\n      swap1\n      pop\n        /* \"#utility.yul\":23772:23781   */\n      dup2\n        /* \"#utility.yul\":23766:23770   */\n      dup2\n        /* \"#utility.yul\":23762:23782   */\n      sub\n        /* \"#utility.yul\":23758:23759   */\n      0x00\n        /* \"#utility.yul\":23747:23756   */\n      dup4\n        /* \"#utility.yul\":23743:23760   */\n      add\n        /* \"#utility.yul\":23736:23783   */\n      mstore\n        /* \"#utility.yul\":23800:23931   */\n      tag_528\n        /* \"#utility.yul\":23926:23930   */\n      dup2\n        /* \"#utility.yul\":23800:23931   */\n      tag_283\n      jump\t// in\n    tag_528:\n        /* \"#utility.yul\":23792:23931   */\n      swap1\n      pop\n        /* \"#utility.yul\":23519:23938   */\n      swap2\n      swap1\n      pop\n      jump\t// out\n        /* \"#utility.yul\":23944:24092   */\n    tag_284:\n        /* \"#utility.yul\":24046:24057   */\n      0x00\n        /* \"#utility.yul\":24083:24086   */\n      dup2\n        /* \"#utility.yul\":24068:24086   */\n      swap1\n      pop\n        /* \"#utility.yul\":23944:24092   */\n      swap3\n      swap2\n      pop\n      pop\n      jump\t// out\n        /* \"#utility.yul\":24098:24312   */\n    tag_285:\n        /* \"#utility.yul\":24238:24304   */\n      0x19457468657265756d205369676e6564204d6573736167653a0a333200000000\n        /* \"#utility.yul\":24234:24235   */\n      0x00\n        /* \"#utility.yul\":24226:24232   */\n      dup3\n        /* \"#utility.yul\":24222:24236   */\n      add\n        /* \"#utility.yul\":24215:24305   */\n      mstore\n        /* \"#utility.yul\":24098:24312   */\n      pop\n      jump\t// out\n        /* \"#utility.yul\":24318:24720   */\n    tag_286:\n        /* \"#utility.yul\":24478:24481   */\n      0x00\n        /* \"#utility.yul\":24499:24584   */\n      tag_532\n        /* \"#utility.yul\":24581:24583   */\n      0x1c\n        /* \"#utility.yul\":24576:24579   */\n      dup4\n        /* \"#utility.yul\":24499:24584   */\n      tag_284\n      jump\t// in\n    tag_532:\n        /* \"#utility.yul\":24492:24584   */\n      swap2\n      pop\n        /* \"#utility.yul\":24593:24686   */\n      tag_533\n        /* \"#utility.yul\":24682:24685   */\n      dup3\n        /* \"#utility.yul\":24593:24686   */\n      tag_285\n      jump\t// in\n    tag_533:\n        /* \"#utility.yul\":24711:24713   */\n      0x1c\n        /* \"#utility.yul\":24706:24709   */\n      dup3\n        /* \"#utility.yul\":24702:24714   */\n      add\n        /* \"#utility.yul\":24695:24714   */\n      swap1\n      pop\n        /* \"#utility.yul\":24318:24720   */\n      swap2\n      swap1\n      pop\n      jump\t// out\n        /* \"#utility.yul\":24726:24805   */\n    tag_287:\n        /* \"#utility.yul\":24765:24772   */\n      0x00\n        /* \"#utility.yul\":24794:24799   */\n      dup2\n        /* \"#utility.yul\":24783:24799   */\n      swap1\n      pop\n        /* \"#utility.yul\":24726:24805   */\n      swap2\n      swap1\n      pop\n      jump\t// out\n        /* \"#utility.yul\":24811:24968   */\n    tag_288:\n        /* \"#utility.yul\":24916:24961   */\n      tag_536\n        /* \"#utility.yul\":24936:24960   */\n      tag_537\n        /* \"#utility.yul\":24954:24959   */\n      dup3\n        /* \"#utility.yul\":24936:24960   */\n      tag_261\n      jump\t// in\n    tag_537:\n        /* \"#utility.yul\":24916:24961   */\n      tag_287\n      jump\t// in\n    tag_536:\n        /* \"#utility.yul\":24911:24914   */\n      dup3\n        /* \"#utility.yul\":24904:24962   */\n      mstore\n        /* \"#utility.yul\":24811:24968   */\n      pop\n      pop\n      jump\t// out\n        /* \"#utility.yul\":24974:25496   */\n    tag_213:\n        /* \"#utility.yul\":25187:25190   */\n      0x00\n        /* \"#utility.yul\":25209:25357   */\n      tag_539\n        /* \"#utility.yul\":25353:25356   */\n      dup3\n        /* \"#utility.yul\":25209:25357   */\n      tag_286\n      jump\t// in\n    tag_539:\n        /* \"#utility.yul\":25202:25357   */\n      swap2\n      pop\n        /* \"#utility.yul\":25367:25442   */\n      tag_540\n        /* \"#utility.yul\":25438:25441   */\n      dup3\n        /* \"#utility.yul\":25429:25435   */\n      dup5\n        /* \"#utility.yul\":25367:25442   */\n      tag_288\n      jump\t// in\n    tag_540:\n        /* \"#utility.yul\":25467:25469   */\n      0x20\n        /* \"#utility.yul\":25462:25465   */\n      dup3\n        /* \"#utility.yul\":25458:25470   */\n      add\n        /* \"#utility.yul\":25451:25470   */\n      swap2\n      pop\n        /* \"#utility.yul\":25487:25490   */\n      dup2\n        /* \"#utility.yul\":25480:25490   */\n      swap1\n      pop\n        /* \"#utility.yul\":24974:25496   */\n      swap3\n      swap2\n      pop\n      pop\n      jump\t// out\n        /* \"#utility.yul\":25502:25588   */\n    tag_289:\n        /* \"#utility.yul\":25537:25544   */\n      0x00\n        /* \"#utility.yul\":25577:25581   */\n      0xff\n        /* \"#utility.yul\":25570:25575   */\n      dup3\n        /* \"#utility.yul\":25566:25582   */\n      and\n        /* \"#utility.yul\":25555:25582   */\n      swap1\n      pop\n        /* \"#utility.yul\":25502:25588   */\n      swap2\n      swap1\n      pop\n      jump\t// out\n        /* \"#utility.yul\":25594:25706   */\n    tag_290:\n        /* \"#utility.yul\":25677:25699   */\n      tag_543\n        /* \"#utility.yul\":25693:25698   */\n      dup2\n        /* \"#utility.yul\":25677:25699   */\n      tag_289\n      jump\t// in\n    tag_543:\n        /* \"#utility.yul\":25672:25675   */\n      dup3\n        /* \"#utility.yul\":25665:25700   */\n      mstore\n        /* \"#utility.yul\":25594:25706   */\n      pop\n      pop\n      jump\t// out\n        /* \"#utility.yul\":25712:26257   */\n    tag_215:\n        /* \"#utility.yul\":25885:25889   */\n      0x00\n        /* \"#utility.yul\":25923:25926   */\n      0x80\n        /* \"#utility.yul\":25912:25921   */\n      dup3\n        /* \"#utility.yul\":25908:25927   */\n      add\n        /* \"#utility.yul\":25900:25927   */\n      swap1\n      pop\n        /* \"#utility.yul\":25937:26008   */\n      tag_545\n        /* \"#utility.yul\":26005:26006   */\n      0x00\n        /* \"#utility.yul\":25994:26003   */\n      dup4\n        /* \"#utility.yul\":25990:26007   */\n      add\n        /* \"#utility.yul\":25981:25987   */\n      dup8\n        /* \"#utility.yul\":25937:26008   */\n      tag_264\n      jump\t// in\n    tag_545:\n        /* \"#utility.yul\":26018:26086   */\n      tag_546\n        /* \"#utility.yul\":26082:26084   */\n      0x20\n        /* \"#utility.yul\":26071:26080   */\n      dup4\n        /* \"#utility.yul\":26067:26085   */\n      add\n        /* \"#utility.yul\":26058:26064   */\n      dup7\n        /* \"#utility.yul\":26018:26086   */\n      tag_290\n      jump\t// in\n    tag_546:\n        /* \"#utility.yul\":26096:26168   */\n      tag_547\n        /* \"#utility.yul\":26164:26166   */\n      0x40\n        /* \"#utility.yul\":26153:26162   */\n      dup4\n        /* \"#utility.yul\":26149:26167   */\n      add\n        /* \"#utility.yul\":26140:26146   */\n      dup6\n        /* \"#utility.yul\":26096:26168   */\n      tag_264\n      jump\t// in\n    tag_547:\n        /* \"#utility.yul\":26178:26250   */\n      tag_548\n        /* \"#utility.yul\":26246:26248   */\n      0x60\n        /* \"#utility.yul\":26235:26244   */\n      dup4\n        /* \"#utility.yul\":26231:26249   */\n      add\n        /* \"#utility.yul\":26222:26228   */\n      dup5\n        /* \"#utility.yul\":26178:26250   */\n      tag_264\n      jump\t// in\n    tag_548:\n        /* \"#utility.yul\":25712:26257   */\n      swap6\n      swap5\n      pop\n      pop\n      pop\n      pop\n      pop\n      jump\t// out\n        /* \"#utility.yul\":26263:26420   */\n    tag_291:\n        /* \"#utility.yul\":26403:26412   */\n      0x6572726f72303600000000000000000000000000000000000000000000000000\n        /* \"#utility.yul\":26399:26400   */\n      0x00\n        /* \"#utility.yul\":26391:26397   */\n      dup3\n        /* \"#utility.yul\":26387:26401   */\n      add\n        /* \"#utility.yul\":26380:26413   */\n      mstore\n        /* \"#utility.yul\":26263:26420   */\n      pop\n      jump\t// out\n        /* \"#utility.yul\":26426:26791   */\n    tag_292:\n        /* \"#utility.yul\":26568:26571   */\n      0x00\n        /* \"#utility.yul\":26589:26655   */\n      tag_551\n        /* \"#utility.yul\":26653:26654   */\n      0x07\n        /* \"#utility.yul\":26648:26651   */\n      dup4\n        /* \"#utility.yul\":26589:26655   */\n      tag_266\n      jump\t// in\n    tag_551:\n        /* \"#utility.yul\":26582:26655   */\n      swap2\n      pop\n        /* \"#utility.yul\":26664:26757   */\n      tag_552\n        /* \"#utility.yul\":26753:26756   */\n      dup3\n        /* \"#utility.yul\":26664:26757   */\n      tag_291\n      jump\t// in\n    tag_552:\n        /* \"#utility.yul\":26782:26784   */\n      0x20\n        /* \"#utility.yul\":26777:26780   */\n      dup3\n        /* \"#utility.yul\":26773:26785   */\n      add\n        /* \"#utility.yul\":26766:26785   */\n      swap1\n      pop\n        /* \"#utility.yul\":26426:26791   */\n      swap2\n      swap1\n      pop\n      jump\t// out\n        /* \"#utility.yul\":26797:27216   */\n    tag_221:\n        /* \"#utility.yul\":26963:26967   */\n      0x00\n        /* \"#utility.yul\":27001:27003   */\n      0x20\n        /* \"#utility.yul\":26990:26999   */\n      dup3\n        /* \"#utility.yul\":26986:27004   */\n      add\n        /* \"#utility.yul\":26978:27004   */\n      swap1\n      pop\n        /* \"#utility.yul\":27050:27059   */\n      dup2\n        /* \"#utility.yul\":27044:27048   */\n      dup2\n        /* \"#utility.yul\":27040:27060   */\n      sub\n        /* \"#utility.yul\":27036:27037   */\n      0x00\n        /* \"#utility.yul\":27025:27034   */\n      dup4\n        /* \"#utility.yul\":27021:27038   */\n      add\n        /* \"#utility.yul\":27014:27061   */\n      mstore\n        /* \"#utility.yul\":27078:27209   */\n      tag_554\n        /* \"#utility.yul\":27204:27208   */\n      dup2\n        /* \"#utility.yul\":27078:27209   */\n      tag_292\n      jump\t// in\n    tag_554:\n        /* \"#utility.yul\":27070:27209   */\n      swap1\n      pop\n        /* \"#utility.yul\":26797:27216   */\n      swap2\n      swap1\n      pop\n      jump\t// out\n\n    auxdata: 0xa26469706673582212203f21210477daa54d80171d1779ebf3a598e1526ee891d8c5fd49c3db704989a764736f6c63430008120033\n}\n",
				"bytecode": {
					"linkReferences": {},
					"object": "60806040523480156200001157600080fd5b5060405162002aec38038062002aec8339818101604052810190620000379190620005c0565b6200004982826200005160201b60201c565b505062000a2b565b60006003541462000099576040517f08c379a0000000000000000000000000000000000000000000000000000000008152600401620000909062000687565b60405180910390fd5b8151811115620000e0576040517f08c379a0000000000000000000000000000000000000000000000000000000008152600401620000d790620006f9565b60405180910390fd5b600181101562000127576040517f08c379a00000000000000000000000000000000000000000000000000000000081526004016200011e906200076b565b60405180910390fd5b60005b82518110156200032a5760008382815181106200014c576200014b6200078d565b5b60200260200101519050600073ffffffffffffffffffffffffffffffffffffffff168173ffffffffffffffffffffffffffffffffffffffff1614158015620001c057503073ffffffffffffffffffffffffffffffffffffffff168173ffffffffffffffffffffffffffffffffffffffff1614155b8015620002175750600160008273ffffffffffffffffffffffffffffffffffffffff1673ffffffffffffffffffffffffffffffffffffffff16815260200190815260200160002060009054906101000a900460ff16155b62000259576040517f08c379a000000000000000000000000000000000000000000000000000000000815260040162000250906200080c565b60405180910390fd5b6000819080600181540180825580915050600190039060005260206000200160009091909190916101000a81548173ffffffffffffffffffffffffffffffffffffffff021916908373ffffffffffffffffffffffffffffffffffffffff16021790555060018060008373ffffffffffffffffffffffffffffffffffffffff1673ffffffffffffffffffffffffffffffffffffffff16815260200190815260200160002060006101000a81548160ff02191690831515021790555050808062000321906200085d565b9150506200012a565b50806003819055506000805490506002819055503373ffffffffffffffffffffffffffffffffffffffff167fbc8a24424002e24ef15217fa46a12643cff731d9f66f82a245db1ac80ac4c7c360006003546040516200038b929190620009f7565b60405180910390a25050565b6000604051905090565b600080fd5b600080fd5b600080fd5b6000601f19601f8301169050919050565b7f4e487b7100000000000000000000000000000000000000000000000000000000600052604160045260246000fd5b620003fb82620003b0565b810181811067ffffffffffffffff821117156200041d576200041c620003c1565b5b80604052505050565b60006200043262000397565b9050620004408282620003f0565b919050565b600067ffffffffffffffff821115620004635762000462620003c1565b5b602082029050602081019050919050565b600080fd5b600073ffffffffffffffffffffffffffffffffffffffff82169050919050565b6000620004a68262000479565b9050919050565b620004b88162000499565b8114620004c457600080fd5b50565b600081519050620004d881620004ad565b92915050565b6000620004f5620004ef8462000445565b62000426565b905080838252602082019050602084028301858111156200051b576200051a62000474565b5b835b81811015620005485780620005338882620004c7565b8452602084019350506020810190506200051d565b5050509392505050565b600082601f8301126200056a5762000569620003ab565b5b81516200057c848260208601620004de565b91505092915050565b6000819050919050565b6200059a8162000585565b8114620005a657600080fd5b50565b600081519050620005ba816200058f565b92915050565b60008060408385031215620005da57620005d9620003a1565b5b600083015167ffffffffffffffff811115620005fb57620005fa620003a6565b5b620006098582860162000552565b92505060206200061c85828601620005a9565b9150509250929050565b600082825260208201905092915050565b7f6572726f72303100000000000000000000000000000000000000000000000000600082015250565b60006200066f60078362000626565b91506200067c8262000637565b602082019050919050565b60006020820190508181036000830152620006a28162000660565b9050919050565b7f6572726f72303200000000000000000000000000000000000000000000000000600082015250565b6000620006e160078362000626565b9150620006ee82620006a9565b602082019050919050565b600060208201905081810360008301526200071481620006d2565b9050919050565b7f6572726f72303300000000000000000000000000000000000000000000000000600082015250565b60006200075360078362000626565b915062000760826200071b565b602082019050919050565b60006020820190508181036000830152620007868162000744565b9050919050565b7f4e487b7100000000000000000000000000000000000000000000000000000000600052603260045260246000fd5b7f6572726f72303400000000000000000000000000000000000000000000000000600082015250565b6000620007f460078362000626565b91506200080182620007bc565b602082019050919050565b600060208201905081810360008301526200082781620007e5565b9050919050565b7f4e487b7100000000000000000000000000000000000000000000000000000000600052601160045260246000fd5b60006200086a8262000585565b91507fffffffffffffffffffffffffffffffffffffffffffffffffffffffffffffffff82036200089f576200089e6200082e565b5b600182019050919050565b600081549050919050565b600082825260208201905092915050565b60008190508160005260206000209050919050565b620008e68162000499565b82525050565b6000620008fa8383620008db565b60208301905092915050565b60008160001c9050919050565b600073ffffffffffffffffffffffffffffffffffffffff82169050919050565b60006200094a620009448362000906565b62000913565b9050919050565b60006200095f825462000933565b9050919050565b6000600182019050919050565b60006200098082620008aa565b6200098c8185620008b5565b93506200099983620008c6565b8060005b83811015620009d957620009b18262000951565b620009bd8882620008ec565b9750620009ca8362000966565b9250506001810190506200099d565b5085935050505092915050565b620009f18162000585565b82525050565b6000604082019050818103600083015262000a13818562000973565b905062000a246020830184620009e6565b9392505050565b6120b18062000a3b6000396000f3fe6080604052600436106100c65760003560e01c8063694e80c31161007f5780638b30486c116100595780638b30486c146102fa578063affed0e014610337578063c0f0b3f114610362578063ff87578c1461038b57610104565b8063694e80c31461027d57806381244e5d146102a6578063831c9e2e146102d157610104565b8063029c81e3146101425780630c5462041461016d5780630fce747a146101965780632f54bf6e146101c657806354910298146102035780636876a95e1461024057610104565b36610104577f1776003212b2028854792a50b4eff933707f4a7576de0678b9f21b4d6c99dc28346040516100fa91906112e0565b60405180910390a1005b7f54e5fbadefe8e4e5345e8c6a9ce1017e52802fd305c8d69255f2fb1ddacebf363460003660405161013893929190611359565b60405180910390a1005b34801561014e57600080fd5b506101576103c8565b604051610164919061147b565b60405180910390f35b34801561017957600080fd5b50610194600480360381019061018f9190611509565b610570565b005b6101b060048036038101906101ab91906116cf565b610830565b6040516101bd919061178e565b60405180910390f35b3480156101d257600080fd5b506101ed60048036038101906101e891906117a9565b61098a565b6040516101fa919061178e565b60405180910390f35b34801561020f57600080fd5b5061022a60048036038101906102259190611509565b6109e0565b6040516102379190611844565b60405180910390f35b34801561024c57600080fd5b5061026760048036038101906102629190611866565b610a7b565b6040516102749190611844565b60405180910390f35b34801561028957600080fd5b506102a4600480360381019061029f9190611866565b610b13565b005b3480156102b257600080fd5b506102bb610c4d565b6040516102c891906112e0565b60405180910390f35b3480156102dd57600080fd5b506102f860048036038101906102f391906118c9565b610c57565b005b34801561030657600080fd5b50610321600480360381019061031c9190611925565b610cb1565b60405161032e91906119a3565b60405180910390f35b34801561034357600080fd5b5061034c610ccb565b60405161035991906112e0565b60405180910390f35b34801561036e57600080fd5b5061038960048036038101906103849190611509565b610cd1565b005b34801561039757600080fd5b506103b260048036038101906103ad9190611509565b610fdd565b6040516103bf9190611844565b60405180910390f35b6060600060025467ffffffffffffffff8111156103e8576103e76115b3565b5b6040519080825280602002602001820160405280156104165781602001602082028036833780820191505090505b5090506000805b6000805490508110156105675760016000808381548110610441576104406119be565b5b9060005260206000200160009054906101000a900473ffffffffffffffffffffffffffffffffffffffff1673ffffffffffffffffffffffffffffffffffffffff1673ffffffffffffffffffffffffffffffffffffffff16815260200190815260200160002060009054906101000a900460ff161561055457600081815481106104cd576104cc6119be565b5b9060005260206000200160009054906101000a900473ffffffffffffffffffffffffffffffffffffffff1683838151811061050b5761050a6119be565b5b602002602001019073ffffffffffffffffffffffffffffffffffffffff16908173ffffffffffffffffffffffffffffffffffffffff1681525050818061055090611a1c565b9250505b808061055f90611a1c565b91505061041d565b50819250505090565b3073ffffffffffffffffffffffffffffffffffffffff163373ffffffffffffffffffffffffffffffffffffffff16146105de576040517f08c379a00000000000000000000000000000000000000000000000000000000081526004016105d590611ac1565b60405180910390fd5b8060016002546105ee9190611ae1565b101580156105fd575060008110155b61060657600080fd5b600073ffffffffffffffffffffffffffffffffffffffff168273ffffffffffffffffffffffffffffffffffffffff161415801561066f57503073ffffffffffffffffffffffffffffffffffffffff168273ffffffffffffffffffffffffffffffffffffffff1614155b80156106c55750600160008373ffffffffffffffffffffffffffffffffffffffff1673ffffffffffffffffffffffffffffffffffffffff16815260200190815260200160002060009054906101000a900460ff16155b610704576040517f08c379a00000000000000000000000000000000000000000000000000000000081526004016106fb90611b61565b60405180910390fd5b6000829080600181540180825580915050600190039060005260206000200160009091909190916101000a81548173ffffffffffffffffffffffffffffffffffffffff021916908373ffffffffffffffffffffffffffffffffffffffff1602179055506002600081548092919061077a90611a1c565b919050555060018060008473ffffffffffffffffffffffffffffffffffffffff1673ffffffffffffffffffffffffffffffffffffffff16815260200190815260200160002060006101000a81548160ff0219169083151502179055508173ffffffffffffffffffffffffffffffffffffffff167fac1e9ef41b54c676ccf449d83ae6f2624bcdce8f5b93a6b48ce95874c332693d60405160405180910390a2600354811461082c5761082b81610b13565b5b5050565b600080610886878787878080601f016020809104026020016040519081016040528093929190818152602001838380828437600081840152601f19601f8201169050808301925050505050505060045446611078565b90506004600081548092919061089b90611a1c565b91905055506108aa8184610c57565b8673ffffffffffffffffffffffffffffffffffffffff168686866040516108d2929190611bb1565b60006040518083038185875af1925050503d806000811461090f576040519150601f19603f3d011682016040523d82523d6000602084013e610914565b606091505b505080925050811561095257807fdc29884a71d2bb98d3c53dc09718be05c7bfd142b7773a5c5cf2517629290ac060405160405180910390a2610980565b807fdbe42d02a4e07d7eeff2874efe172540c93b297d206f6d691c9782a257323e3260405160405180910390a25b5095945050505050565b6000600160008373ffffffffffffffffffffffffffffffffffffffff1673ffffffffffffffffffffffffffffffffffffffff16815260200190815260200160002060009054906101000a900460ff169050919050565b60607fc0f0b3f17d4cd2b558f2e7888914cd773111e1da10e55baf4d1f32e1f6c2222f8383604051602401610a16929190611bd9565b604051602081830303815290604052907bffffffffffffffffffffffffffffffffffffffffffffffffffffffff19166020820180517bffffffffffffffffffffffffffffffffffffffffffffffffffffffff8381831617835250505050905092915050565b60607f694e80c37192d74d6099f3d3b41506932ab644a24442ee51857cfeb9eb01ac2f82604051602401610aaf91906112e0565b604051602081830303815290604052907bffffffffffffffffffffffffffffffffffffffffffffffffffffffff19166020820180517bffffffffffffffffffffffffffffffffffffffffffffffffffffffff83818316178352505050509050919050565b3073ffffffffffffffffffffffffffffffffffffffff163373ffffffffffffffffffffffffffffffffffffffff1614610b81576040517f08c379a0000000000000000000000000000000000000000000000000000000008152600401610b7890611ac1565b60405180910390fd5b600254811115610bc6576040517f08c379a0000000000000000000000000000000000000000000000000000000008152600401610bbd90611c4e565b60405180910390fd5b6001811015610c0a576040517f08c379a0000000000000000000000000000000000000000000000000000000008152600401610c0190611cba565b60405180910390fd5b806003819055507f9947ac58e204d2da07b9748298663b3b77da7fb0638201d778987ded7c90fbaa600354604051610c4291906112e0565b60405180910390a150565b6000600354905090565b6000600354905060008111610ca1576040517f08c379a0000000000000000000000000000000000000000000000000000000008152600401610c9890611d26565b60405180910390fd5b610cac8383836110c0565b505050565b6000610cc284848460045446611078565b90509392505050565b60045481565b3073ffffffffffffffffffffffffffffffffffffffff163373ffffffffffffffffffffffffffffffffffffffff1614610d3f576040517f08c379a0000000000000000000000000000000000000000000000000000000008152600401610d3690611ac1565b60405180910390fd5b806001600254610d4f9190611d46565b1015610d90576040517f08c379a0000000000000000000000000000000000000000000000000000000008152600401610d8790611c4e565b60405180910390fd5b600160008373ffffffffffffffffffffffffffffffffffffffff1673ffffffffffffffffffffffffffffffffffffffff16815260200190815260200160002060009054906101000a900460ff16610e1c576040517f08c379a0000000000000000000000000000000000000000000000000000000008152600401610e1390611dc6565b60405180910390fd5b6000600160008473ffffffffffffffffffffffffffffffffffffffff1673ffffffffffffffffffffffffffffffffffffffff16815260200190815260200160002060006101000a81548160ff02191690831515021790555060005b600080549050811015610f6a578273ffffffffffffffffffffffffffffffffffffffff1660008281548110610eaf57610eae6119be565b5b9060005260206000200160009054906101000a900473ffffffffffffffffffffffffffffffffffffffff1673ffffffffffffffffffffffffffffffffffffffff1603610f57576000808281548110610f0a57610f096119be565b5b9060005260206000200160006101000a81548173ffffffffffffffffffffffffffffffffffffffff021916908373ffffffffffffffffffffffffffffffffffffffff160217905550610f6a565b8080610f6290611a1c565b915050610e77565b5060026000815480929190610f7e90611de6565b91905055508173ffffffffffffffffffffffffffffffffffffffff167fac6e8398676cf37429d530b81144d7079e99f4fe9d28b0d88c4a749ceccbe8cd60405160405180910390a26003548114610fd957610fd881610b13565b5b5050565b60607f0f6fd209ba0161acfd0f4d4fa947b5907845ed1e66071e030be54ba4c310c5a68383604051602401611013929190611bd9565b604051602081830303815290604052907bffffffffffffffffffffffffffffffffffffffffffffffffffffffff19166020820180517bffffffffffffffffffffffffffffffffffffffffffffffffffffffff8381831617835250505050905092915050565b60008086868680519060200120868660405160200161109b959493929190611e0f565b6040516020818303038152906040528051906020012090508091505095945050505050565b6041816110cd9190611e62565b82511015611110576040517f08c379a000000000000000000000000000000000000000000000000000000000815260040161110790611ef0565b60405180910390fd5b600080600080600080600090505b8681101561128d576111308882611298565b80945081955082965050505060018960405160200161114f9190611f88565b60405160208183030381529060405280519060200120858585604051600081526020016040526040516111859493929190611fca565b6020604051602081039080840390855afa1580156111a7573d6000803e3d6000fd5b5050506020604051035194508573ffffffffffffffffffffffffffffffffffffffff168573ffffffffffffffffffffffffffffffffffffffff16141580156112385750600160008673ffffffffffffffffffffffffffffffffffffffff1673ffffffffffffffffffffffffffffffffffffffff16815260200190815260200160002060009054906101000a900460ff165b611277576040517f08c379a000000000000000000000000000000000000000000000000000000000815260040161126e9061205b565b60405180910390fd5b849550808061128590611a1c565b91505061111e565b505050505050505050565b60008060008360410260208101860151925060408101860151915060ff60418201870151169350509250925092565b6000819050919050565b6112da816112c7565b82525050565b60006020820190506112f560008301846112d1565b92915050565b600082825260208201905092915050565b82818337600083830152505050565b6000601f19601f8301169050919050565b600061133883856112fb565b935061134583858461130c565b61134e8361131b565b840190509392505050565b600060408201905061136e60008301866112d1565b818103602083015261138181848661132c565b9050949350505050565b600081519050919050565b600082825260208201905092915050565b6000819050602082019050919050565b600073ffffffffffffffffffffffffffffffffffffffff82169050919050565b60006113e2826113b7565b9050919050565b6113f2816113d7565b82525050565b600061140483836113e9565b60208301905092915050565b6000602082019050919050565b60006114288261138b565b6114328185611396565b935061143d836113a7565b8060005b8381101561146e57815161145588826113f8565b975061146083611410565b925050600181019050611441565b5085935050505092915050565b60006020820190508181036000830152611495818461141d565b905092915050565b6000604051905090565b600080fd5b600080fd5b6114ba816113d7565b81146114c557600080fd5b50565b6000813590506114d7816114b1565b92915050565b6114e6816112c7565b81146114f157600080fd5b50565b600081359050611503816114dd565b92915050565b600080604083850312156115205761151f6114a7565b5b600061152e858286016114c8565b925050602061153f858286016114f4565b9150509250929050565b600080fd5b600080fd5b600080fd5b60008083601f84011261156e5761156d611549565b5b8235905067ffffffffffffffff81111561158b5761158a61154e565b5b6020830191508360018202830111156115a7576115a6611553565b5b9250929050565b600080fd5b7f4e487b7100000000000000000000000000000000000000000000000000000000600052604160045260246000fd5b6115eb8261131b565b810181811067ffffffffffffffff8211171561160a576116096115b3565b5b80604052505050565b600061161d61149d565b905061162982826115e2565b919050565b600067ffffffffffffffff821115611649576116486115b3565b5b6116528261131b565b9050602081019050919050565b600061167261166d8461162e565b611613565b90508281526020810184848401111561168e5761168d6115ae565b5b61169984828561130c565b509392505050565b600082601f8301126116b6576116b5611549565b5b81356116c684826020860161165f565b91505092915050565b6000806000806000608086880312156116eb576116ea6114a7565b5b60006116f9888289016114c8565b955050602061170a888289016114f4565b945050604086013567ffffffffffffffff81111561172b5761172a6114ac565b5b61173788828901611558565b9350935050606086013567ffffffffffffffff81111561175a576117596114ac565b5b611766888289016116a1565b9150509295509295909350565b60008115159050919050565b61178881611773565b82525050565b60006020820190506117a3600083018461177f565b92915050565b6000602082840312156117bf576117be6114a7565b5b60006117cd848285016114c8565b91505092915050565b600081519050919050565b60005b838110156117ff5780820151818401526020810190506117e4565b60008484015250505050565b6000611816826117d6565b61182081856112fb565b93506118308185602086016117e1565b6118398161131b565b840191505092915050565b6000602082019050818103600083015261185e818461180b565b905092915050565b60006020828403121561187c5761187b6114a7565b5b600061188a848285016114f4565b91505092915050565b6000819050919050565b6118a681611893565b81146118b157600080fd5b50565b6000813590506118c38161189d565b92915050565b600080604083850312156118e0576118df6114a7565b5b60006118ee858286016118b4565b925050602083013567ffffffffffffffff81111561190f5761190e6114ac565b5b61191b858286016116a1565b9150509250929050565b60008060006060848603121561193e5761193d6114a7565b5b600061194c868287016114c8565b935050602061195d868287016114f4565b925050604084013567ffffffffffffffff81111561197e5761197d6114ac565b5b61198a868287016116a1565b9150509250925092565b61199d81611893565b82525050565b60006020820190506119b86000830184611994565b92915050565b7f4e487b7100000000000000000000000000000000000000000000000000000000600052603260045260246000fd5b7f4e487b7100000000000000000000000000000000000000000000000000000000600052601160045260246000fd5b6000611a27826112c7565b91507fffffffffffffffffffffffffffffffffffffffffffffffffffffffffffffffff8203611a5957611a586119ed565b5b600182019050919050565b600082825260208201905092915050565b7f4e6f7420617574686f72697a6564000000000000000000000000000000000000600082015250565b6000611aab600e83611a64565b9150611ab682611a75565b602082019050919050565b60006020820190508181036000830152611ada81611a9e565b9050919050565b6000611aec826112c7565b9150611af7836112c7565b9250828201905080821115611b0f57611b0e6119ed565b5b92915050565b7f6572726f72303400000000000000000000000000000000000000000000000000600082015250565b6000611b4b600783611a64565b9150611b5682611b15565b602082019050919050565b60006020820190508181036000830152611b7a81611b3e565b9050919050565b600081905092915050565b6000611b988385611b81565b9350611ba583858461130c565b82840190509392505050565b6000611bbe828486611b8c565b91508190509392505050565b611bd3816113d7565b82525050565b6000604082019050611bee6000830185611bca565b611bfb60208301846112d1565b9392505050565b7f6572726f72303200000000000000000000000000000000000000000000000000600082015250565b6000611c38600783611a64565b9150611c4382611c02565b602082019050919050565b60006020820190508181036000830152611c6781611c2b565b9050919050565b7f6572726f72303300000000000000000000000000000000000000000000000000600082015250565b6000611ca4600783611a64565b9150611caf82611c6e565b602082019050919050565b60006020820190508181036000830152611cd381611c97565b9050919050565b7f6572726f72303500000000000000000000000000000000000000000000000000600082015250565b6000611d10600783611a64565b9150611d1b82611cda565b602082019050919050565b60006020820190508181036000830152611d3f81611d03565b9050919050565b6000611d51826112c7565b9150611d5c836112c7565b9250828203905081811115611d7457611d736119ed565b5b92915050565b7f6572726f72303700000000000000000000000000000000000000000000000000600082015250565b6000611db0600783611a64565b9150611dbb82611d7a565b602082019050919050565b60006020820190508181036000830152611ddf81611da3565b9050919050565b6000611df1826112c7565b915060008203611e0457611e036119ed565b5b600182039050919050565b600060a082019050611e246000830188611bca565b611e3160208301876112d1565b611e3e6040830186611994565b611e4b60608301856112d1565b611e5860808301846112d1565b9695505050505050565b6000611e6d826112c7565b9150611e78836112c7565b9250828202611e86816112c7565b91508282048414831517611e9d57611e9c6119ed565b5b5092915050565b7f5369676e61747572657320746f6f2073686f7274000000000000000000000000600082015250565b6000611eda601483611a64565b9150611ee582611ea4565b602082019050919050565b60006020820190508181036000830152611f0981611ecd565b9050919050565b600081905092915050565b7f19457468657265756d205369676e6564204d6573736167653a0a333200000000600082015250565b6000611f51601c83611f10565b9150611f5c82611f1b565b601c82019050919050565b6000819050919050565b611f82611f7d82611893565b611f67565b82525050565b6000611f9382611f44565b9150611f9f8284611f71565b60208201915081905092915050565b600060ff82169050919050565b611fc481611fae565b82525050565b6000608082019050611fdf6000830187611994565b611fec6020830186611fbb565b611ff96040830185611994565b6120066060830184611994565b95945050505050565b7f6572726f72303600000000000000000000000000000000000000000000000000600082015250565b6000612045600783611a64565b91506120508261200f565b602082019050919050565b6000602082019050818103600083015261207481612038565b905091905056fea26469706673582212203f21210477daa54d80171d1779ebf3a598e1526ee891d8c5fd49c3db704989a764736f6c63430008120033",
					"opcodes": "PUSH1 0x80 PUSH1 0x40 MSTORE CALLVALUE DUP1 ISZERO PUSH3 0x11 JUMPI PUSH1 0x0 DUP1 REVERT JUMPDEST POP PUSH1 0x40 MLOAD PUSH3 0x2AEC CODESIZE SUB DUP1 PUSH3 0x2AEC DUP4 CODECOPY DUP2 DUP2 ADD PUSH1 0x40 MSTORE DUP2 ADD SWAP1 PUSH3 0x37 SWAP2 SWAP1 PUSH3 0x5C0 JUMP JUMPDEST PUSH3 0x49 DUP3 DUP3 PUSH3 0x51 PUSH1 0x20 SHL PUSH1 0x20 SHR JUMP JUMPDEST POP POP PUSH3 0xA2B JUMP JUMPDEST PUSH1 0x0 PUSH1 0x3 SLOAD EQ PUSH3 0x99 JUMPI PUSH1 0x40 MLOAD PUSH32 0x8C379A000000000000000000000000000000000000000000000000000000000 DUP2 MSTORE PUSH1 0x4 ADD PUSH3 0x90 SWAP1 PUSH3 0x687 JUMP JUMPDEST PUSH1 0x40 MLOAD DUP1 SWAP2 SUB SWAP1 REVERT JUMPDEST DUP2 MLOAD DUP2 GT ISZERO PUSH3 0xE0 JUMPI PUSH1 0x40 MLOAD PUSH32 0x8C379A000000000000000000000000000000000000000000000000000000000 DUP2 MSTORE PUSH1 0x4 ADD PUSH3 0xD7 SWAP1 PUSH3 0x6F9 JUMP JUMPDEST PUSH1 0x40 MLOAD DUP1 SWAP2 SUB SWAP1 REVERT JUMPDEST PUSH1 0x1 DUP2 LT ISZERO PUSH3 0x127 JUMPI PUSH1 0x40 MLOAD PUSH32 0x8C379A000000000000000000000000000000000000000000000000000000000 DUP2 MSTORE PUSH1 0x4 ADD PUSH3 0x11E SWAP1 PUSH3 0x76B JUMP JUMPDEST PUSH1 0x40 MLOAD DUP1 SWAP2 SUB SWAP1 REVERT JUMPDEST PUSH1 0x0 JUMPDEST DUP3 MLOAD DUP2 LT ISZERO PUSH3 0x32A JUMPI PUSH1 0x0 DUP4 DUP3 DUP2 MLOAD DUP2 LT PUSH3 0x14C JUMPI PUSH3 0x14B PUSH3 0x78D JUMP JUMPDEST JUMPDEST PUSH1 0x20 MUL PUSH1 0x20 ADD ADD MLOAD SWAP1 POP PUSH1 0x0 PUSH20 0xFFFFFFFFFFFFFFFFFFFFFFFFFFFFFFFFFFFFFFFF AND DUP2 PUSH20 0xFFFFFFFFFFFFFFFFFFFFFFFFFFFFFFFFFFFFFFFF AND EQ ISZERO DUP1 ISZERO PUSH3 0x1C0 JUMPI POP ADDRESS PUSH20 0xFFFFFFFFFFFFFFFFFFFFFFFFFFFFFFFFFFFFFFFF AND DUP2 PUSH20 0xFFFFFFFFFFFFFFFFFFFFFFFFFFFFFFFFFFFFFFFF AND EQ ISZERO JUMPDEST DUP1 ISZERO PUSH3 0x217 JUMPI POP PUSH1 0x1 PUSH1 0x0 DUP3 PUSH20 0xFFFFFFFFFFFFFFFFFFFFFFFFFFFFFFFFFFFFFFFF AND PUSH20 0xFFFFFFFFFFFFFFFFFFFFFFFFFFFFFFFFFFFFFFFF AND DUP2 MSTORE PUSH1 0x20 ADD SWAP1 DUP2 MSTORE PUSH1 0x20 ADD PUSH1 0x0 KECCAK256 PUSH1 0x0 SWAP1 SLOAD SWAP1 PUSH2 0x100 EXP SWAP1 DIV PUSH1 0xFF AND ISZERO JUMPDEST PUSH3 0x259 JUMPI PUSH1 0x40 MLOAD PUSH32 0x8C379A000000000000000000000000000000000000000000000000000000000 DUP2 MSTORE PUSH1 0x4 ADD PUSH3 0x250 SWAP1 PUSH3 0x80C JUMP JUMPDEST PUSH1 0x40 MLOAD DUP1 SWAP2 SUB SWAP1 REVERT JUMPDEST PUSH1 0x0 DUP2 SWAP1 DUP1 PUSH1 0x1 DUP2 SLOAD ADD DUP1 DUP3 SSTORE DUP1 SWAP2 POP POP PUSH1 0x1 SWAP1 SUB SWAP1 PUSH1 0x0 MSTORE PUSH1 0x20 PUSH1 0x0 KECCAK256 ADD PUSH1 0x0 SWAP1 SWAP2 SWAP1 SWAP2 SWAP1 SWAP2 PUSH2 0x100 EXP DUP2 SLOAD DUP2 PUSH20 0xFFFFFFFFFFFFFFFFFFFFFFFFFFFFFFFFFFFFFFFF MUL NOT AND SWAP1 DUP4 PUSH20 0xFFFFFFFFFFFFFFFFFFFFFFFFFFFFFFFFFFFFFFFF AND MUL OR SWAP1 SSTORE POP PUSH1 0x1 DUP1 PUSH1 0x0 DUP4 PUSH20 0xFFFFFFFFFFFFFFFFFFFFFFFFFFFFFFFFFFFFFFFF AND PUSH20 0xFFFFFFFFFFFFFFFFFFFFFFFFFFFFFFFFFFFFFFFF AND DUP2 MSTORE PUSH1 0x20 ADD SWAP1 DUP2 MSTORE PUSH1 0x20 ADD PUSH1 0x0 KECCAK256 PUSH1 0x0 PUSH2 0x100 EXP DUP2 SLOAD DUP2 PUSH1 0xFF MUL NOT AND SWAP1 DUP4 ISZERO ISZERO MUL OR SWAP1 SSTORE POP POP DUP1 DUP1 PUSH3 0x321 SWAP1 PUSH3 0x85D JUMP JUMPDEST SWAP2 POP POP PUSH3 0x12A JUMP JUMPDEST POP DUP1 PUSH1 0x3 DUP2 SWAP1 SSTORE POP PUSH1 0x0 DUP1 SLOAD SWAP1 POP PUSH1 0x2 DUP2 SWAP1 SSTORE POP CALLER PUSH20 0xFFFFFFFFFFFFFFFFFFFFFFFFFFFFFFFFFFFFFFFF AND PUSH32 0xBC8A24424002E24EF15217FA46A12643CFF731D9F66F82A245DB1AC80AC4C7C3 PUSH1 0x0 PUSH1 0x3 SLOAD PUSH1 0x40 MLOAD PUSH3 0x38B SWAP3 SWAP2 SWAP1 PUSH3 0x9F7 JUMP JUMPDEST PUSH1 0x40 MLOAD DUP1 SWAP2 SUB SWAP1 LOG2 POP POP JUMP JUMPDEST PUSH1 0x0 PUSH1 0x40 MLOAD SWAP1 POP SWAP1 JUMP JUMPDEST PUSH1 0x0 DUP1 REVERT JUMPDEST PUSH1 0x0 DUP1 REVERT JUMPDEST PUSH1 0x0 DUP1 REVERT JUMPDEST PUSH1 0x0 PUSH1 0x1F NOT PUSH1 0x1F DUP4 ADD AND SWAP1 POP SWAP2 SWAP1 POP JUMP JUMPDEST PUSH32 0x4E487B7100000000000000000000000000000000000000000000000000000000 PUSH1 0x0 MSTORE PUSH1 0x41 PUSH1 0x4 MSTORE PUSH1 0x24 PUSH1 0x0 REVERT JUMPDEST PUSH3 0x3FB DUP3 PUSH3 0x3B0 JUMP JUMPDEST DUP2 ADD DUP2 DUP2 LT PUSH8 0xFFFFFFFFFFFFFFFF DUP3 GT OR ISZERO PUSH3 0x41D JUMPI PUSH3 0x41C PUSH3 0x3C1 JUMP JUMPDEST JUMPDEST DUP1 PUSH1 0x40 MSTORE POP POP POP JUMP JUMPDEST PUSH1 0x0 PUSH3 0x432 PUSH3 0x397 JUMP JUMPDEST SWAP1 POP PUSH3 0x440 DUP3 DUP3 PUSH3 0x3F0 JUMP JUMPDEST SWAP2 SWAP1 POP JUMP JUMPDEST PUSH1 0x0 PUSH8 0xFFFFFFFFFFFFFFFF DUP3 GT ISZERO PUSH3 0x463 JUMPI PUSH3 0x462 PUSH3 0x3C1 JUMP JUMPDEST JUMPDEST PUSH1 0x20 DUP3 MUL SWAP1 POP PUSH1 0x20 DUP2 ADD SWAP1 POP SWAP2 SWAP1 POP JUMP JUMPDEST PUSH1 0x0 DUP1 REVERT JUMPDEST PUSH1 0x0 PUSH20 0xFFFFFFFFFFFFFFFFFFFFFFFFFFFFFFFFFFFFFFFF DUP3 AND SWAP1 POP SWAP2 SWAP1 POP JUMP JUMPDEST PUSH1 0x0 PUSH3 0x4A6 DUP3 PUSH3 0x479 JUMP JUMPDEST SWAP1 POP SWAP2 SWAP1 POP JUMP JUMPDEST PUSH3 0x4B8 DUP2 PUSH3 0x499 JUMP JUMPDEST DUP2 EQ PUSH3 0x4C4 JUMPI PUSH1 0x0 DUP1 REVERT JUMPDEST POP JUMP JUMPDEST PUSH1 0x0 DUP2 MLOAD SWAP1 POP PUSH3 0x4D8 DUP2 PUSH3 0x4AD JUMP JUMPDEST SWAP3 SWAP2 POP POP JUMP JUMPDEST PUSH1 0x0 PUSH3 0x4F5 PUSH3 0x4EF DUP5 PUSH3 0x445 JUMP JUMPDEST PUSH3 0x426 JUMP JUMPDEST SWAP1 POP DUP1 DUP4 DUP3 MSTORE PUSH1 0x20 DUP3 ADD SWAP1 POP PUSH1 0x20 DUP5 MUL DUP4 ADD DUP6 DUP2 GT ISZERO PUSH3 0x51B JUMPI PUSH3 0x51A PUSH3 0x474 JUMP JUMPDEST JUMPDEST DUP4 JUMPDEST DUP2 DUP2 LT ISZERO PUSH3 0x548 JUMPI DUP1 PUSH3 0x533 DUP9 DUP3 PUSH3 0x4C7 JUMP JUMPDEST DUP5 MSTORE PUSH1 0x20 DUP5 ADD SWAP4 POP POP PUSH1 0x20 DUP2 ADD SWAP1 POP PUSH3 0x51D JUMP JUMPDEST POP POP POP SWAP4 SWAP3 POP POP POP JUMP JUMPDEST PUSH1 0x0 DUP3 PUSH1 0x1F DUP4 ADD SLT PUSH3 0x56A JUMPI PUSH3 0x569 PUSH3 0x3AB JUMP JUMPDEST JUMPDEST DUP2 MLOAD PUSH3 0x57C DUP5 DUP3 PUSH1 0x20 DUP7 ADD PUSH3 0x4DE JUMP JUMPDEST SWAP2 POP POP SWAP3 SWAP2 POP POP JUMP JUMPDEST PUSH1 0x0 DUP2 SWAP1 POP SWAP2 SWAP1 POP JUMP JUMPDEST PUSH3 0x59A DUP2 PUSH3 0x585 JUMP JUMPDEST DUP2 EQ PUSH3 0x5A6 JUMPI PUSH1 0x0 DUP1 REVERT JUMPDEST POP JUMP JUMPDEST PUSH1 0x0 DUP2 MLOAD SWAP1 POP PUSH3 0x5BA DUP2 PUSH3 0x58F JUMP JUMPDEST SWAP3 SWAP2 POP POP JUMP JUMPDEST PUSH1 0x0 DUP1 PUSH1 0x40 DUP4 DUP6 SUB SLT ISZERO PUSH3 0x5DA JUMPI PUSH3 0x5D9 PUSH3 0x3A1 JUMP JUMPDEST JUMPDEST PUSH1 0x0 DUP4 ADD MLOAD PUSH8 0xFFFFFFFFFFFFFFFF DUP2 GT ISZERO PUSH3 0x5FB JUMPI PUSH3 0x5FA PUSH3 0x3A6 JUMP JUMPDEST JUMPDEST PUSH3 0x609 DUP6 DUP3 DUP7 ADD PUSH3 0x552 JUMP JUMPDEST SWAP3 POP POP PUSH1 0x20 PUSH3 0x61C DUP6 DUP3 DUP7 ADD PUSH3 0x5A9 JUMP JUMPDEST SWAP2 POP POP SWAP3 POP SWAP3 SWAP1 POP JUMP JUMPDEST PUSH1 0x0 DUP3 DUP3 MSTORE PUSH1 0x20 DUP3 ADD SWAP1 POP SWAP3 SWAP2 POP POP JUMP JUMPDEST PUSH32 0x6572726F72303100000000000000000000000000000000000000000000000000 PUSH1 0x0 DUP3 ADD MSTORE POP JUMP JUMPDEST PUSH1 0x0 PUSH3 0x66F PUSH1 0x7 DUP4 PUSH3 0x626 JUMP JUMPDEST SWAP2 POP PUSH3 0x67C DUP3 PUSH3 0x637 JUMP JUMPDEST PUSH1 0x20 DUP3 ADD SWAP1 POP SWAP2 SWAP1 POP JUMP JUMPDEST PUSH1 0x0 PUSH1 0x20 DUP3 ADD SWAP1 POP DUP2 DUP2 SUB PUSH1 0x0 DUP4 ADD MSTORE PUSH3 0x6A2 DUP2 PUSH3 0x660 JUMP JUMPDEST SWAP1 POP SWAP2 SWAP1 POP JUMP JUMPDEST PUSH32 0x6572726F72303200000000000000000000000000000000000000000000000000 PUSH1 0x0 DUP3 ADD MSTORE POP JUMP JUMPDEST PUSH1 0x0 PUSH3 0x6E1 PUSH1 0x7 DUP4 PUSH3 0x626 JUMP JUMPDEST SWAP2 POP PUSH3 0x6EE DUP3 PUSH3 0x6A9 JUMP JUMPDEST PUSH1 0x20 DUP3 ADD SWAP1 POP SWAP2 SWAP1 POP JUMP JUMPDEST PUSH1 0x0 PUSH1 0x20 DUP3 ADD SWAP1 POP DUP2 DUP2 SUB PUSH1 0x0 DUP4 ADD MSTORE PUSH3 0x714 DUP2 PUSH3 0x6D2 JUMP JUMPDEST SWAP1 POP SWAP2 SWAP1 POP JUMP JUMPDEST PUSH32 0x6572726F72303300000000000000000000000000000000000000000000000000 PUSH1 0x0 DUP3 ADD MSTORE POP JUMP JUMPDEST PUSH1 0x0 PUSH3 0x753 PUSH1 0x7 DUP4 PUSH3 0x626 JUMP JUMPDEST SWAP2 POP PUSH3 0x760 DUP3 PUSH3 0x71B JUMP JUMPDEST PUSH1 0x20 DUP3 ADD SWAP1 POP SWAP2 SWAP1 POP JUMP JUMPDEST PUSH1 0x0 PUSH1 0x20 DUP3 ADD SWAP1 POP DUP2 DUP2 SUB PUSH1 0x0 DUP4 ADD MSTORE PUSH3 0x786 DUP2 PUSH3 0x744 JUMP JUMPDEST SWAP1 POP SWAP2 SWAP1 POP JUMP JUMPDEST PUSH32 0x4E487B7100000000000000000000000000000000000000000000000000000000 PUSH1 0x0 MSTORE PUSH1 0x32 PUSH1 0x4 MSTORE PUSH1 0x24 PUSH1 0x0 REVERT JUMPDEST PUSH32 0x6572726F72303400000000000000000000000000000000000000000000000000 PUSH1 0x0 DUP3 ADD MSTORE POP JUMP JUMPDEST PUSH1 0x0 PUSH3 0x7F4 PUSH1 0x7 DUP4 PUSH3 0x626 JUMP JUMPDEST SWAP2 POP PUSH3 0x801 DUP3 PUSH3 0x7BC JUMP JUMPDEST PUSH1 0x20 DUP3 ADD SWAP1 POP SWAP2 SWAP1 POP JUMP JUMPDEST PUSH1 0x0 PUSH1 0x20 DUP3 ADD SWAP1 POP DUP2 DUP2 SUB PUSH1 0x0 DUP4 ADD MSTORE PUSH3 0x827 DUP2 PUSH3 0x7E5 JUMP JUMPDEST SWAP1 POP SWAP2 SWAP1 POP JUMP JUMPDEST PUSH32 0x4E487B7100000000000000000000000000000000000000000000000000000000 PUSH1 0x0 MSTORE PUSH1 0x11 PUSH1 0x4 MSTORE PUSH1 0x24 PUSH1 0x0 REVERT JUMPDEST PUSH1 0x0 PUSH3 0x86A DUP3 PUSH3 0x585 JUMP JUMPDEST SWAP2 POP PUSH32 0xFFFFFFFFFFFFFFFFFFFFFFFFFFFFFFFFFFFFFFFFFFFFFFFFFFFFFFFFFFFFFFFF DUP3 SUB PUSH3 0x89F JUMPI PUSH3 0x89E PUSH3 0x82E JUMP JUMPDEST JUMPDEST PUSH1 0x1 DUP3 ADD SWAP1 POP SWAP2 SWAP1 POP JUMP JUMPDEST PUSH1 0x0 DUP2 SLOAD SWAP1 POP SWAP2 SWAP1 POP JUMP JUMPDEST PUSH1 0x0 DUP3 DUP3 MSTORE PUSH1 0x20 DUP3 ADD SWAP1 POP SWAP3 SWAP2 POP POP JUMP JUMPDEST PUSH1 0x0 DUP2 SWAP1 POP DUP2 PUSH1 0x0 MSTORE PUSH1 0x20 PUSH1 0x0 KECCAK256 SWAP1 POP SWAP2 SWAP1 POP JUMP JUMPDEST PUSH3 0x8E6 DUP2 PUSH3 0x499 JUMP JUMPDEST DUP3 MSTORE POP POP JUMP JUMPDEST PUSH1 0x0 PUSH3 0x8FA DUP4 DUP4 PUSH3 0x8DB JUMP JUMPDEST PUSH1 0x20 DUP4 ADD SWAP1 POP SWAP3 SWAP2 POP POP JUMP JUMPDEST PUSH1 0x0 DUP2 PUSH1 0x0 SHR SWAP1 POP SWAP2 SWAP1 POP JUMP JUMPDEST PUSH1 0x0 PUSH20 0xFFFFFFFFFFFFFFFFFFFFFFFFFFFFFFFFFFFFFFFF DUP3 AND SWAP1 POP SWAP2 SWAP1 POP JUMP JUMPDEST PUSH1 0x0 PUSH3 0x94A PUSH3 0x944 DUP4 PUSH3 0x906 JUMP JUMPDEST PUSH3 0x913 JUMP JUMPDEST SWAP1 POP SWAP2 SWAP1 POP JUMP JUMPDEST PUSH1 0x0 PUSH3 0x95F DUP3 SLOAD PUSH3 0x933 JUMP JUMPDEST SWAP1 POP SWAP2 SWAP1 POP JUMP JUMPDEST PUSH1 0x0 PUSH1 0x1 DUP3 ADD SWAP1 POP SWAP2 SWAP1 POP JUMP JUMPDEST PUSH1 0x0 PUSH3 0x980 DUP3 PUSH3 0x8AA JUMP JUMPDEST PUSH3 0x98C DUP2 DUP6 PUSH3 0x8B5 JUMP JUMPDEST SWAP4 POP PUSH3 0x999 DUP4 PUSH3 0x8C6 JUMP JUMPDEST DUP1 PUSH1 0x0 JUMPDEST DUP4 DUP2 LT ISZERO PUSH3 0x9D9 JUMPI PUSH3 0x9B1 DUP3 PUSH3 0x951 JUMP JUMPDEST PUSH3 0x9BD DUP9 DUP3 PUSH3 0x8EC JUMP JUMPDEST SWAP8 POP PUSH3 0x9CA DUP4 PUSH3 0x966 JUMP JUMPDEST SWAP3 POP POP PUSH1 0x1 DUP2 ADD SWAP1 POP PUSH3 0x99D JUMP JUMPDEST POP DUP6 SWAP4 POP POP POP POP SWAP3 SWAP2 POP POP JUMP JUMPDEST PUSH3 0x9F1 DUP2 PUSH3 0x585 JUMP JUMPDEST DUP3 MSTORE POP POP JUMP JUMPDEST PUSH1 0x0 PUSH1 0x40 DUP3 ADD SWAP1 POP DUP2 DUP2 SUB PUSH1 0x0 DUP4 ADD MSTORE PUSH3 0xA13 DUP2 DUP6 PUSH3 0x973 JUMP JUMPDEST SWAP1 POP PUSH3 0xA24 PUSH1 0x20 DUP4 ADD DUP5 PUSH3 0x9E6 JUMP JUMPDEST SWAP4 SWAP3 POP POP POP JUMP JUMPDEST PUSH2 0x20B1 DUP1 PUSH3 0xA3B PUSH1 0x0 CODECOPY PUSH1 0x0 RETURN INVALID PUSH1 0x80 PUSH1 0x40 MSTORE PUSH1 0x4 CALLDATASIZE LT PUSH2 0xC6 JUMPI PUSH1 0x0 CALLDATALOAD PUSH1 0xE0 SHR DUP1 PUSH4 0x694E80C3 GT PUSH2 0x7F JUMPI DUP1 PUSH4 0x8B30486C GT PUSH2 0x59 JUMPI DUP1 PUSH4 0x8B30486C EQ PUSH2 0x2FA JUMPI DUP1 PUSH4 0xAFFED0E0 EQ PUSH2 0x337 JUMPI DUP1 PUSH4 0xC0F0B3F1 EQ PUSH2 0x362 JUMPI DUP1 PUSH4 0xFF87578C EQ PUSH2 0x38B JUMPI PUSH2 0x104 JUMP JUMPDEST DUP1 PUSH4 0x694E80C3 EQ PUSH2 0x27D JUMPI DUP1 PUSH4 0x81244E5D EQ PUSH2 0x2A6 JUMPI DUP1 PUSH4 0x831C9E2E EQ PUSH2 0x2D1 JUMPI PUSH2 0x104 JUMP JUMPDEST DUP1 PUSH4 0x29C81E3 EQ PUSH2 0x142 JUMPI DUP1 PUSH4 0xC546204 EQ PUSH2 0x16D JUMPI DUP1 PUSH4 0xFCE747A EQ PUSH2 0x196 JUMPI DUP1 PUSH4 0x2F54BF6E EQ PUSH2 0x1C6 JUMPI DUP1 PUSH4 0x54910298 EQ PUSH2 0x203 JUMPI DUP1 PUSH4 0x6876A95E EQ PUSH2 0x240 JUMPI PUSH2 0x104 JUMP JUMPDEST CALLDATASIZE PUSH2 0x104 JUMPI PUSH32 0x1776003212B2028854792A50B4EFF933707F4A7576DE0678B9F21B4D6C99DC28 CALLVALUE PUSH1 0x40 MLOAD PUSH2 0xFA SWAP2 SWAP1 PUSH2 0x12E0 JUMP JUMPDEST PUSH1 0x40 MLOAD DUP1 SWAP2 SUB SWAP1 LOG1 STOP JUMPDEST PUSH32 0x54E5FBADEFE8E4E5345E8C6A9CE1017E52802FD305C8D69255F2FB1DDACEBF36 CALLVALUE PUSH1 0x0 CALLDATASIZE PUSH1 0x40 MLOAD PUSH2 0x138 SWAP4 SWAP3 SWAP2 SWAP1 PUSH2 0x1359 JUMP JUMPDEST PUSH1 0x40 MLOAD DUP1 SWAP2 SUB SWAP1 LOG1 STOP JUMPDEST CALLVALUE DUP1 ISZERO PUSH2 0x14E JUMPI PUSH1 0x0 DUP1 REVERT JUMPDEST POP PUSH2 0x157 PUSH2 0x3C8 JUMP JUMPDEST PUSH1 0x40 MLOAD PUSH2 0x164 SWAP2 SWAP1 PUSH2 0x147B JUMP JUMPDEST PUSH1 0x40 MLOAD DUP1 SWAP2 SUB SWAP1 RETURN JUMPDEST CALLVALUE DUP1 ISZERO PUSH2 0x179 JUMPI PUSH1 0x0 DUP1 REVERT JUMPDEST POP PUSH2 0x194 PUSH1 0x4 DUP1 CALLDATASIZE SUB DUP2 ADD SWAP1 PUSH2 0x18F SWAP2 SWAP1 PUSH2 0x1509 JUMP JUMPDEST PUSH2 0x570 JUMP JUMPDEST STOP JUMPDEST PUSH2 0x1B0 PUSH1 0x4 DUP1 CALLDATASIZE SUB DUP2 ADD SWAP1 PUSH2 0x1AB SWAP2 SWAP1 PUSH2 0x16CF JUMP JUMPDEST PUSH2 0x830 JUMP JUMPDEST PUSH1 0x40 MLOAD PUSH2 0x1BD SWAP2 SWAP1 PUSH2 0x178E JUMP JUMPDEST PUSH1 0x40 MLOAD DUP1 SWAP2 SUB SWAP1 RETURN JUMPDEST CALLVALUE DUP1 ISZERO PUSH2 0x1D2 JUMPI PUSH1 0x0 DUP1 REVERT JUMPDEST POP PUSH2 0x1ED PUSH1 0x4 DUP1 CALLDATASIZE SUB DUP2 ADD SWAP1 PUSH2 0x1E8 SWAP2 SWAP1 PUSH2 0x17A9 JUMP JUMPDEST PUSH2 0x98A JUMP JUMPDEST PUSH1 0x40 MLOAD PUSH2 0x1FA SWAP2 SWAP1 PUSH2 0x178E JUMP JUMPDEST PUSH1 0x40 MLOAD DUP1 SWAP2 SUB SWAP1 RETURN JUMPDEST CALLVALUE DUP1 ISZERO PUSH2 0x20F JUMPI PUSH1 0x0 DUP1 REVERT JUMPDEST POP PUSH2 0x22A PUSH1 0x4 DUP1 CALLDATASIZE SUB DUP2 ADD SWAP1 PUSH2 0x225 SWAP2 SWAP1 PUSH2 0x1509 JUMP JUMPDEST PUSH2 0x9E0 JUMP JUMPDEST PUSH1 0x40 MLOAD PUSH2 0x237 SWAP2 SWAP1 PUSH2 0x1844 JUMP JUMPDEST PUSH1 0x40 MLOAD DUP1 SWAP2 SUB SWAP1 RETURN JUMPDEST CALLVALUE DUP1 ISZERO PUSH2 0x24C JUMPI PUSH1 0x0 DUP1 REVERT JUMPDEST POP PUSH2 0x267 PUSH1 0x4 DUP1 CALLDATASIZE SUB DUP2 ADD SWAP1 PUSH2 0x262 SWAP2 SWAP1 PUSH2 0x1866 JUMP JUMPDEST PUSH2 0xA7B JUMP JUMPDEST PUSH1 0x40 MLOAD PUSH2 0x274 SWAP2 SWAP1 PUSH2 0x1844 JUMP JUMPDEST PUSH1 0x40 MLOAD DUP1 SWAP2 SUB SWAP1 RETURN JUMPDEST CALLVALUE DUP1 ISZERO PUSH2 0x289 JUMPI PUSH1 0x0 DUP1 REVERT JUMPDEST POP PUSH2 0x2A4 PUSH1 0x4 DUP1 CALLDATASIZE SUB DUP2 ADD SWAP1 PUSH2 0x29F SWAP2 SWAP1 PUSH2 0x1866 JUMP JUMPDEST PUSH2 0xB13 JUMP JUMPDEST STOP JUMPDEST CALLVALUE DUP1 ISZERO PUSH2 0x2B2 JUMPI PUSH1 0x0 DUP1 REVERT JUMPDEST POP PUSH2 0x2BB PUSH2 0xC4D JUMP JUMPDEST PUSH1 0x40 MLOAD PUSH2 0x2C8 SWAP2 SWAP1 PUSH2 0x12E0 JUMP JUMPDEST PUSH1 0x40 MLOAD DUP1 SWAP2 SUB SWAP1 RETURN JUMPDEST CALLVALUE DUP1 ISZERO PUSH2 0x2DD JUMPI PUSH1 0x0 DUP1 REVERT JUMPDEST POP PUSH2 0x2F8 PUSH1 0x4 DUP1 CALLDATASIZE SUB DUP2 ADD SWAP1 PUSH2 0x2F3 SWAP2 SWAP1 PUSH2 0x18C9 JUMP JUMPDEST PUSH2 0xC57 JUMP JUMPDEST STOP JUMPDEST CALLVALUE DUP1 ISZERO PUSH2 0x306 JUMPI PUSH1 0x0 DUP1 REVERT JUMPDEST POP PUSH2 0x321 PUSH1 0x4 DUP1 CALLDATASIZE SUB DUP2 ADD SWAP1 PUSH2 0x31C SWAP2 SWAP1 PUSH2 0x1925 JUMP JUMPDEST PUSH2 0xCB1 JUMP JUMPDEST PUSH1 0x40 MLOAD PUSH2 0x32E SWAP2 SWAP1 PUSH2 0x19A3 JUMP JUMPDEST PUSH1 0x40 MLOAD DUP1 SWAP2 SUB SWAP1 RETURN JUMPDEST CALLVALUE DUP1 ISZERO PUSH2 0x343 JUMPI PUSH1 0x0 DUP1 REVERT JUMPDEST POP PUSH2 0x34C PUSH2 0xCCB JUMP JUMPDEST PUSH1 0x40 MLOAD PUSH2 0x359 SWAP2 SWAP1 PUSH2 0x12E0 JUMP JUMPDEST PUSH1 0x40 MLOAD DUP1 SWAP2 SUB SWAP1 RETURN JUMPDEST CALLVALUE DUP1 ISZERO PUSH2 0x36E JUMPI PUSH1 0x0 DUP1 REVERT JUMPDEST POP PUSH2 0x389 PUSH1 0x4 DUP1 CALLDATASIZE SUB DUP2 ADD SWAP1 PUSH2 0x384 SWAP2 SWAP1 PUSH2 0x1509 JUMP JUMPDEST PUSH2 0xCD1 JUMP JUMPDEST STOP JUMPDEST CALLVALUE DUP1 ISZERO PUSH2 0x397 JUMPI PUSH1 0x0 DUP1 REVERT JUMPDEST POP PUSH2 0x3B2 PUSH1 0x4 DUP1 CALLDATASIZE SUB DUP2 ADD SWAP1 PUSH2 0x3AD SWAP2 SWAP1 PUSH2 0x1509 JUMP JUMPDEST PUSH2 0xFDD JUMP JUMPDEST PUSH1 0x40 MLOAD PUSH2 0x3BF SWAP2 SWAP1 PUSH2 0x1844 JUMP JUMPDEST PUSH1 0x40 MLOAD DUP1 SWAP2 SUB SWAP1 RETURN JUMPDEST PUSH1 0x60 PUSH1 0x0 PUSH1 0x2 SLOAD PUSH8 0xFFFFFFFFFFFFFFFF DUP2 GT ISZERO PUSH2 0x3E8 JUMPI PUSH2 0x3E7 PUSH2 0x15B3 JUMP JUMPDEST JUMPDEST PUSH1 0x40 MLOAD SWAP1 DUP1 DUP3 MSTORE DUP1 PUSH1 0x20 MUL PUSH1 0x20 ADD DUP3 ADD PUSH1 0x40 MSTORE DUP1 ISZERO PUSH2 0x416 JUMPI DUP2 PUSH1 0x20 ADD PUSH1 0x20 DUP3 MUL DUP1 CALLDATASIZE DUP4 CALLDATACOPY DUP1 DUP3 ADD SWAP2 POP POP SWAP1 POP JUMPDEST POP SWAP1 POP PUSH1 0x0 DUP1 JUMPDEST PUSH1 0x0 DUP1 SLOAD SWAP1 POP DUP2 LT ISZERO PUSH2 0x567 JUMPI PUSH1 0x1 PUSH1 0x0 DUP1 DUP4 DUP2 SLOAD DUP2 LT PUSH2 0x441 JUMPI PUSH2 0x440 PUSH2 0x19BE JUMP JUMPDEST JUMPDEST SWAP1 PUSH1 0x0 MSTORE PUSH1 0x20 PUSH1 0x0 KECCAK256 ADD PUSH1 0x0 SWAP1 SLOAD SWAP1 PUSH2 0x100 EXP SWAP1 DIV PUSH20 0xFFFFFFFFFFFFFFFFFFFFFFFFFFFFFFFFFFFFFFFF AND PUSH20 0xFFFFFFFFFFFFFFFFFFFFFFFFFFFFFFFFFFFFFFFF AND PUSH20 0xFFFFFFFFFFFFFFFFFFFFFFFFFFFFFFFFFFFFFFFF AND DUP2 MSTORE PUSH1 0x20 ADD SWAP1 DUP2 MSTORE PUSH1 0x20 ADD PUSH1 0x0 KECCAK256 PUSH1 0x0 SWAP1 SLOAD SWAP1 PUSH2 0x100 EXP SWAP1 DIV PUSH1 0xFF AND ISZERO PUSH2 0x554 JUMPI PUSH1 0x0 DUP2 DUP2 SLOAD DUP2 LT PUSH2 0x4CD JUMPI PUSH2 0x4CC PUSH2 0x19BE JUMP JUMPDEST JUMPDEST SWAP1 PUSH1 0x0 MSTORE PUSH1 0x20 PUSH1 0x0 KECCAK256 ADD PUSH1 0x0 SWAP1 SLOAD SWAP1 PUSH2 0x100 EXP SWAP1 DIV PUSH20 0xFFFFFFFFFFFFFFFFFFFFFFFFFFFFFFFFFFFFFFFF AND DUP4 DUP4 DUP2 MLOAD DUP2 LT PUSH2 0x50B JUMPI PUSH2 0x50A PUSH2 0x19BE JUMP JUMPDEST JUMPDEST PUSH1 0x20 MUL PUSH1 0x20 ADD ADD SWAP1 PUSH20 0xFFFFFFFFFFFFFFFFFFFFFFFFFFFFFFFFFFFFFFFF AND SWAP1 DUP2 PUSH20 0xFFFFFFFFFFFFFFFFFFFFFFFFFFFFFFFFFFFFFFFF AND DUP2 MSTORE POP POP DUP2 DUP1 PUSH2 0x550 SWAP1 PUSH2 0x1A1C JUMP JUMPDEST SWAP3 POP POP JUMPDEST DUP1 DUP1 PUSH2 0x55F SWAP1 PUSH2 0x1A1C JUMP JUMPDEST SWAP2 POP POP PUSH2 0x41D JUMP JUMPDEST POP DUP2 SWAP3 POP POP POP SWAP1 JUMP JUMPDEST ADDRESS PUSH20 0xFFFFFFFFFFFFFFFFFFFFFFFFFFFFFFFFFFFFFFFF AND CALLER PUSH20 0xFFFFFFFFFFFFFFFFFFFFFFFFFFFFFFFFFFFFFFFF AND EQ PUSH2 0x5DE JUMPI PUSH1 0x40 MLOAD PUSH32 0x8C379A000000000000000000000000000000000000000000000000000000000 DUP2 MSTORE PUSH1 0x4 ADD PUSH2 0x5D5 SWAP1 PUSH2 0x1AC1 JUMP JUMPDEST PUSH1 0x40 MLOAD DUP1 SWAP2 SUB SWAP1 REVERT JUMPDEST DUP1 PUSH1 0x1 PUSH1 0x2 SLOAD PUSH2 0x5EE SWAP2 SWAP1 PUSH2 0x1AE1 JUMP JUMPDEST LT ISZERO DUP1 ISZERO PUSH2 0x5FD JUMPI POP PUSH1 0x0 DUP2 LT ISZERO JUMPDEST PUSH2 0x606 JUMPI PUSH1 0x0 DUP1 REVERT JUMPDEST PUSH1 0x0 PUSH20 0xFFFFFFFFFFFFFFFFFFFFFFFFFFFFFFFFFFFFFFFF AND DUP3 PUSH20 0xFFFFFFFFFFFFFFFFFFFFFFFFFFFFFFFFFFFFFFFF AND EQ ISZERO DUP1 ISZERO PUSH2 0x66F JUMPI POP ADDRESS PUSH20 0xFFFFFFFFFFFFFFFFFFFFFFFFFFFFFFFFFFFFFFFF AND DUP3 PUSH20 0xFFFFFFFFFFFFFFFFFFFFFFFFFFFFFFFFFFFFFFFF AND EQ ISZERO JUMPDEST DUP1 ISZERO PUSH2 0x6C5 JUMPI POP PUSH1 0x1 PUSH1 0x0 DUP4 PUSH20 0xFFFFFFFFFFFFFFFFFFFFFFFFFFFFFFFFFFFFFFFF AND PUSH20 0xFFFFFFFFFFFFFFFFFFFFFFFFFFFFFFFFFFFFFFFF AND DUP2 MSTORE PUSH1 0x20 ADD SWAP1 DUP2 MSTORE PUSH1 0x20 ADD PUSH1 0x0 KECCAK256 PUSH1 0x0 SWAP1 SLOAD SWAP1 PUSH2 0x100 EXP SWAP1 DIV PUSH1 0xFF AND ISZERO JUMPDEST PUSH2 0x704 JUMPI PUSH1 0x40 MLOAD PUSH32 0x8C379A000000000000000000000000000000000000000000000000000000000 DUP2 MSTORE PUSH1 0x4 ADD PUSH2 0x6FB SWAP1 PUSH2 0x1B61 JUMP JUMPDEST PUSH1 0x40 MLOAD DUP1 SWAP2 SUB SWAP1 REVERT JUMPDEST PUSH1 0x0 DUP3 SWAP1 DUP1 PUSH1 0x1 DUP2 SLOAD ADD DUP1 DUP3 SSTORE DUP1 SWAP2 POP POP PUSH1 0x1 SWAP1 SUB SWAP1 PUSH1 0x0 MSTORE PUSH1 0x20 PUSH1 0x0 KECCAK256 ADD PUSH1 0x0 SWAP1 SWAP2 SWAP1 SWAP2 SWAP1 SWAP2 PUSH2 0x100 EXP DUP2 SLOAD DUP2 PUSH20 0xFFFFFFFFFFFFFFFFFFFFFFFFFFFFFFFFFFFFFFFF MUL NOT AND SWAP1 DUP4 PUSH20 0xFFFFFFFFFFFFFFFFFFFFFFFFFFFFFFFFFFFFFFFF AND MUL OR SWAP1 SSTORE POP PUSH1 0x2 PUSH1 0x0 DUP2 SLOAD DUP1 SWAP3 SWAP2 SWAP1 PUSH2 0x77A SWAP1 PUSH2 0x1A1C JUMP JUMPDEST SWAP2 SWAP1 POP SSTORE POP PUSH1 0x1 DUP1 PUSH1 0x0 DUP5 PUSH20 0xFFFFFFFFFFFFFFFFFFFFFFFFFFFFFFFFFFFFFFFF AND PUSH20 0xFFFFFFFFFFFFFFFFFFFFFFFFFFFFFFFFFFFFFFFF AND DUP2 MSTORE PUSH1 0x20 ADD SWAP1 DUP2 MSTORE PUSH1 0x20 ADD PUSH1 0x0 KECCAK256 PUSH1 0x0 PUSH2 0x100 EXP DUP2 SLOAD DUP2 PUSH1 0xFF MUL NOT AND SWAP1 DUP4 ISZERO ISZERO MUL OR SWAP1 SSTORE POP DUP2 PUSH20 0xFFFFFFFFFFFFFFFFFFFFFFFFFFFFFFFFFFFFFFFF AND PUSH32 0xAC1E9EF41B54C676CCF449D83AE6F2624BCDCE8F5B93A6B48CE95874C332693D PUSH1 0x40 MLOAD PUSH1 0x40 MLOAD DUP1 SWAP2 SUB SWAP1 LOG2 PUSH1 0x3 SLOAD DUP2 EQ PUSH2 0x82C JUMPI PUSH2 0x82B DUP2 PUSH2 0xB13 JUMP JUMPDEST JUMPDEST POP POP JUMP JUMPDEST PUSH1 0x0 DUP1 PUSH2 0x886 DUP8 DUP8 DUP8 DUP8 DUP1 DUP1 PUSH1 0x1F ADD PUSH1 0x20 DUP1 SWAP2 DIV MUL PUSH1 0x20 ADD PUSH1 0x40 MLOAD SWAP1 DUP2 ADD PUSH1 0x40 MSTORE DUP1 SWAP4 SWAP3 SWAP2 SWAP1 DUP2 DUP2 MSTORE PUSH1 0x20 ADD DUP4 DUP4 DUP1 DUP3 DUP5 CALLDATACOPY PUSH1 0x0 DUP2 DUP5 ADD MSTORE PUSH1 0x1F NOT PUSH1 0x1F DUP3 ADD AND SWAP1 POP DUP1 DUP4 ADD SWAP3 POP POP POP POP POP POP POP PUSH1 0x4 SLOAD CHAINID PUSH2 0x1078 JUMP JUMPDEST SWAP1 POP PUSH1 0x4 PUSH1 0x0 DUP2 SLOAD DUP1 SWAP3 SWAP2 SWAP1 PUSH2 0x89B SWAP1 PUSH2 0x1A1C JUMP JUMPDEST SWAP2 SWAP1 POP SSTORE POP PUSH2 0x8AA DUP2 DUP5 PUSH2 0xC57 JUMP JUMPDEST DUP7 PUSH20 0xFFFFFFFFFFFFFFFFFFFFFFFFFFFFFFFFFFFFFFFF AND DUP7 DUP7 DUP7 PUSH1 0x40 MLOAD PUSH2 0x8D2 SWAP3 SWAP2 SWAP1 PUSH2 0x1BB1 JUMP JUMPDEST PUSH1 0x0 PUSH1 0x40 MLOAD DUP1 DUP4 SUB DUP2 DUP6 DUP8 GAS CALL SWAP3 POP POP POP RETURNDATASIZE DUP1 PUSH1 0x0 DUP2 EQ PUSH2 0x90F JUMPI PUSH1 0x40 MLOAD SWAP2 POP PUSH1 0x1F NOT PUSH1 0x3F RETURNDATASIZE ADD AND DUP3 ADD PUSH1 0x40 MSTORE RETURNDATASIZE DUP3 MSTORE RETURNDATASIZE PUSH1 0x0 PUSH1 0x20 DUP5 ADD RETURNDATACOPY PUSH2 0x914 JUMP JUMPDEST PUSH1 0x60 SWAP2 POP JUMPDEST POP POP DUP1 SWAP3 POP POP DUP2 ISZERO PUSH2 0x952 JUMPI DUP1 PUSH32 0xDC29884A71D2BB98D3C53DC09718BE05C7BFD142B7773A5C5CF2517629290AC0 PUSH1 0x40 MLOAD PUSH1 0x40 MLOAD DUP1 SWAP2 SUB SWAP1 LOG2 PUSH2 0x980 JUMP JUMPDEST DUP1 PUSH32 0xDBE42D02A4E07D7EEFF2874EFE172540C93B297D206F6D691C9782A257323E32 PUSH1 0x40 MLOAD PUSH1 0x40 MLOAD DUP1 SWAP2 SUB SWAP1 LOG2 JUMPDEST POP SWAP6 SWAP5 POP POP POP POP POP JUMP JUMPDEST PUSH1 0x0 PUSH1 0x1 PUSH1 0x0 DUP4 PUSH20 0xFFFFFFFFFFFFFFFFFFFFFFFFFFFFFFFFFFFFFFFF AND PUSH20 0xFFFFFFFFFFFFFFFFFFFFFFFFFFFFFFFFFFFFFFFF AND DUP2 MSTORE PUSH1 0x20 ADD SWAP1 DUP2 MSTORE PUSH1 0x20 ADD PUSH1 0x0 KECCAK256 PUSH1 0x0 SWAP1 SLOAD SWAP1 PUSH2 0x100 EXP SWAP1 DIV PUSH1 0xFF AND SWAP1 POP SWAP2 SWAP1 POP JUMP JUMPDEST PUSH1 0x60 PUSH32 0xC0F0B3F17D4CD2B558F2E7888914CD773111E1DA10E55BAF4D1F32E1F6C2222F DUP4 DUP4 PUSH1 0x40 MLOAD PUSH1 0x24 ADD PUSH2 0xA16 SWAP3 SWAP2 SWAP1 PUSH2 0x1BD9 JUMP JUMPDEST PUSH1 0x40 MLOAD PUSH1 0x20 DUP2 DUP4 SUB SUB DUP2 MSTORE SWAP1 PUSH1 0x40 MSTORE SWAP1 PUSH28 0xFFFFFFFFFFFFFFFFFFFFFFFFFFFFFFFFFFFFFFFFFFFFFFFFFFFFFFFF NOT AND PUSH1 0x20 DUP3 ADD DUP1 MLOAD PUSH28 0xFFFFFFFFFFFFFFFFFFFFFFFFFFFFFFFFFFFFFFFFFFFFFFFFFFFFFFFF DUP4 DUP2 DUP4 AND OR DUP4 MSTORE POP POP POP POP SWAP1 POP SWAP3 SWAP2 POP POP JUMP JUMPDEST PUSH1 0x60 PUSH32 0x694E80C37192D74D6099F3D3B41506932AB644A24442EE51857CFEB9EB01AC2F DUP3 PUSH1 0x40 MLOAD PUSH1 0x24 ADD PUSH2 0xAAF SWAP2 SWAP1 PUSH2 0x12E0 JUMP JUMPDEST PUSH1 0x40 MLOAD PUSH1 0x20 DUP2 DUP4 SUB SUB DUP2 MSTORE SWAP1 PUSH1 0x40 MSTORE SWAP1 PUSH28 0xFFFFFFFFFFFFFFFFFFFFFFFFFFFFFFFFFFFFFFFFFFFFFFFFFFFFFFFF NOT AND PUSH1 0x20 DUP3 ADD DUP1 MLOAD PUSH28 0xFFFFFFFFFFFFFFFFFFFFFFFFFFFFFFFFFFFFFFFFFFFFFFFFFFFFFFFF DUP4 DUP2 DUP4 AND OR DUP4 MSTORE POP POP POP POP SWAP1 POP SWAP2 SWAP1 POP JUMP JUMPDEST ADDRESS PUSH20 0xFFFFFFFFFFFFFFFFFFFFFFFFFFFFFFFFFFFFFFFF AND CALLER PUSH20 0xFFFFFFFFFFFFFFFFFFFFFFFFFFFFFFFFFFFFFFFF AND EQ PUSH2 0xB81 JUMPI PUSH1 0x40 MLOAD PUSH32 0x8C379A000000000000000000000000000000000000000000000000000000000 DUP2 MSTORE PUSH1 0x4 ADD PUSH2 0xB78 SWAP1 PUSH2 0x1AC1 JUMP JUMPDEST PUSH1 0x40 MLOAD DUP1 SWAP2 SUB SWAP1 REVERT JUMPDEST PUSH1 0x2 SLOAD DUP2 GT ISZERO PUSH2 0xBC6 JUMPI PUSH1 0x40 MLOAD PUSH32 0x8C379A000000000000000000000000000000000000000000000000000000000 DUP2 MSTORE PUSH1 0x4 ADD PUSH2 0xBBD SWAP1 PUSH2 0x1C4E JUMP JUMPDEST PUSH1 0x40 MLOAD DUP1 SWAP2 SUB SWAP1 REVERT JUMPDEST PUSH1 0x1 DUP2 LT ISZERO PUSH2 0xC0A JUMPI PUSH1 0x40 MLOAD PUSH32 0x8C379A000000000000000000000000000000000000000000000000000000000 DUP2 MSTORE PUSH1 0x4 ADD PUSH2 0xC01 SWAP1 PUSH2 0x1CBA JUMP JUMPDEST PUSH1 0x40 MLOAD DUP1 SWAP2 SUB SWAP1 REVERT JUMPDEST DUP1 PUSH1 0x3 DUP2 SWAP1 SSTORE POP PUSH32 0x9947AC58E204D2DA07B9748298663B3B77DA7FB0638201D778987DED7C90FBAA PUSH1 0x3 SLOAD PUSH1 0x40 MLOAD PUSH2 0xC42 SWAP2 SWAP1 PUSH2 0x12E0 JUMP JUMPDEST PUSH1 0x40 MLOAD DUP1 SWAP2 SUB SWAP1 LOG1 POP JUMP JUMPDEST PUSH1 0x0 PUSH1 0x3 SLOAD SWAP1 POP SWAP1 JUMP JUMPDEST PUSH1 0x0 PUSH1 0x3 SLOAD SWAP1 POP PUSH1 0x0 DUP2 GT PUSH2 0xCA1 JUMPI PUSH1 0x40 MLOAD PUSH32 0x8C379A000000000000000000000000000000000000000000000000000000000 DUP2 MSTORE PUSH1 0x4 ADD PUSH2 0xC98 SWAP1 PUSH2 0x1D26 JUMP JUMPDEST PUSH1 0x40 MLOAD DUP1 SWAP2 SUB SWAP1 REVERT JUMPDEST PUSH2 0xCAC DUP4 DUP4 DUP4 PUSH2 0x10C0 JUMP JUMPDEST POP POP POP JUMP JUMPDEST PUSH1 0x0 PUSH2 0xCC2 DUP5 DUP5 DUP5 PUSH1 0x4 SLOAD CHAINID PUSH2 0x1078 JUMP JUMPDEST SWAP1 POP SWAP4 SWAP3 POP POP POP JUMP JUMPDEST PUSH1 0x4 SLOAD DUP2 JUMP JUMPDEST ADDRESS PUSH20 0xFFFFFFFFFFFFFFFFFFFFFFFFFFFFFFFFFFFFFFFF AND CALLER PUSH20 0xFFFFFFFFFFFFFFFFFFFFFFFFFFFFFFFFFFFFFFFF AND EQ PUSH2 0xD3F JUMPI PUSH1 0x40 MLOAD PUSH32 0x8C379A000000000000000000000000000000000000000000000000000000000 DUP2 MSTORE PUSH1 0x4 ADD PUSH2 0xD36 SWAP1 PUSH2 0x1AC1 JUMP JUMPDEST PUSH1 0x40 MLOAD DUP1 SWAP2 SUB SWAP1 REVERT JUMPDEST DUP1 PUSH1 0x1 PUSH1 0x2 SLOAD PUSH2 0xD4F SWAP2 SWAP1 PUSH2 0x1D46 JUMP JUMPDEST LT ISZERO PUSH2 0xD90 JUMPI PUSH1 0x40 MLOAD PUSH32 0x8C379A000000000000000000000000000000000000000000000000000000000 DUP2 MSTORE PUSH1 0x4 ADD PUSH2 0xD87 SWAP1 PUSH2 0x1C4E JUMP JUMPDEST PUSH1 0x40 MLOAD DUP1 SWAP2 SUB SWAP1 REVERT JUMPDEST PUSH1 0x1 PUSH1 0x0 DUP4 PUSH20 0xFFFFFFFFFFFFFFFFFFFFFFFFFFFFFFFFFFFFFFFF AND PUSH20 0xFFFFFFFFFFFFFFFFFFFFFFFFFFFFFFFFFFFFFFFF AND DUP2 MSTORE PUSH1 0x20 ADD SWAP1 DUP2 MSTORE PUSH1 0x20 ADD PUSH1 0x0 KECCAK256 PUSH1 0x0 SWAP1 SLOAD SWAP1 PUSH2 0x100 EXP SWAP1 DIV PUSH1 0xFF AND PUSH2 0xE1C JUMPI PUSH1 0x40 MLOAD PUSH32 0x8C379A000000000000000000000000000000000000000000000000000000000 DUP2 MSTORE PUSH1 0x4 ADD PUSH2 0xE13 SWAP1 PUSH2 0x1DC6 JUMP JUMPDEST PUSH1 0x40 MLOAD DUP1 SWAP2 SUB SWAP1 REVERT JUMPDEST PUSH1 0x0 PUSH1 0x1 PUSH1 0x0 DUP5 PUSH20 0xFFFFFFFFFFFFFFFFFFFFFFFFFFFFFFFFFFFFFFFF AND PUSH20 0xFFFFFFFFFFFFFFFFFFFFFFFFFFFFFFFFFFFFFFFF AND DUP2 MSTORE PUSH1 0x20 ADD SWAP1 DUP2 MSTORE PUSH1 0x20 ADD PUSH1 0x0 KECCAK256 PUSH1 0x0 PUSH2 0x100 EXP DUP2 SLOAD DUP2 PUSH1 0xFF MUL NOT AND SWAP1 DUP4 ISZERO ISZERO MUL OR SWAP1 SSTORE POP PUSH1 0x0 JUMPDEST PUSH1 0x0 DUP1 SLOAD SWAP1 POP DUP2 LT ISZERO PUSH2 0xF6A JUMPI DUP3 PUSH20 0xFFFFFFFFFFFFFFFFFFFFFFFFFFFFFFFFFFFFFFFF AND PUSH1 0x0 DUP3 DUP2 SLOAD DUP2 LT PUSH2 0xEAF JUMPI PUSH2 0xEAE PUSH2 0x19BE JUMP JUMPDEST JUMPDEST SWAP1 PUSH1 0x0 MSTORE PUSH1 0x20 PUSH1 0x0 KECCAK256 ADD PUSH1 0x0 SWAP1 SLOAD SWAP1 PUSH2 0x100 EXP SWAP1 DIV PUSH20 0xFFFFFFFFFFFFFFFFFFFFFFFFFFFFFFFFFFFFFFFF AND PUSH20 0xFFFFFFFFFFFFFFFFFFFFFFFFFFFFFFFFFFFFFFFF AND SUB PUSH2 0xF57 JUMPI PUSH1 0x0 DUP1 DUP3 DUP2 SLOAD DUP2 LT PUSH2 0xF0A JUMPI PUSH2 0xF09 PUSH2 0x19BE JUMP JUMPDEST JUMPDEST SWAP1 PUSH1 0x0 MSTORE PUSH1 0x20 PUSH1 0x0 KECCAK256 ADD PUSH1 0x0 PUSH2 0x100 EXP DUP2 SLOAD DUP2 PUSH20 0xFFFFFFFFFFFFFFFFFFFFFFFFFFFFFFFFFFFFFFFF MUL NOT AND SWAP1 DUP4 PUSH20 0xFFFFFFFFFFFFFFFFFFFFFFFFFFFFFFFFFFFFFFFF AND MUL OR SWAP1 SSTORE POP PUSH2 0xF6A JUMP JUMPDEST DUP1 DUP1 PUSH2 0xF62 SWAP1 PUSH2 0x1A1C JUMP JUMPDEST SWAP2 POP POP PUSH2 0xE77 JUMP JUMPDEST POP PUSH1 0x2 PUSH1 0x0 DUP2 SLOAD DUP1 SWAP3 SWAP2 SWAP1 PUSH2 0xF7E SWAP1 PUSH2 0x1DE6 JUMP JUMPDEST SWAP2 SWAP1 POP SSTORE POP DUP2 PUSH20 0xFFFFFFFFFFFFFFFFFFFFFFFFFFFFFFFFFFFFFFFF AND PUSH32 0xAC6E8398676CF37429D530B81144D7079E99F4FE9D28B0D88C4A749CECCBE8CD PUSH1 0x40 MLOAD PUSH1 0x40 MLOAD DUP1 SWAP2 SUB SWAP1 LOG2 PUSH1 0x3 SLOAD DUP2 EQ PUSH2 0xFD9 JUMPI PUSH2 0xFD8 DUP2 PUSH2 0xB13 JUMP JUMPDEST JUMPDEST POP POP JUMP JUMPDEST PUSH1 0x60 PUSH32 0xF6FD209BA0161ACFD0F4D4FA947B5907845ED1E66071E030BE54BA4C310C5A6 DUP4 DUP4 PUSH1 0x40 MLOAD PUSH1 0x24 ADD PUSH2 0x1013 SWAP3 SWAP2 SWAP1 PUSH2 0x1BD9 JUMP JUMPDEST PUSH1 0x40 MLOAD PUSH1 0x20 DUP2 DUP4 SUB SUB DUP2 MSTORE SWAP1 PUSH1 0x40 MSTORE SWAP1 PUSH28 0xFFFFFFFFFFFFFFFFFFFFFFFFFFFFFFFFFFFFFFFFFFFFFFFFFFFFFFFF NOT AND PUSH1 0x20 DUP3 ADD DUP1 MLOAD PUSH28 0xFFFFFFFFFFFFFFFFFFFFFFFFFFFFFFFFFFFFFFFFFFFFFFFFFFFFFFFF DUP4 DUP2 DUP4 AND OR DUP4 MSTORE POP POP POP POP SWAP1 POP SWAP3 SWAP2 POP POP JUMP JUMPDEST PUSH1 0x0 DUP1 DUP7 DUP7 DUP7 DUP1 MLOAD SWAP1 PUSH1 0x20 ADD KECCAK256 DUP7 DUP7 PUSH1 0x40 MLOAD PUSH1 0x20 ADD PUSH2 0x109B SWAP6 SWAP5 SWAP4 SWAP3 SWAP2 SWAP1 PUSH2 0x1E0F JUMP JUMPDEST PUSH1 0x40 MLOAD PUSH1 0x20 DUP2 DUP4 SUB SUB DUP2 MSTORE SWAP1 PUSH1 0x40 MSTORE DUP1 MLOAD SWAP1 PUSH1 0x20 ADD KECCAK256 SWAP1 POP DUP1 SWAP2 POP POP SWAP6 SWAP5 POP POP POP POP POP JUMP JUMPDEST PUSH1 0x41 DUP2 PUSH2 0x10CD SWAP2 SWAP1 PUSH2 0x1E62 JUMP JUMPDEST DUP3 MLOAD LT ISZERO PUSH2 0x1110 JUMPI PUSH1 0x40 MLOAD PUSH32 0x8C379A000000000000000000000000000000000000000000000000000000000 DUP2 MSTORE PUSH1 0x4 ADD PUSH2 0x1107 SWAP1 PUSH2 0x1EF0 JUMP JUMPDEST PUSH1 0x40 MLOAD DUP1 SWAP2 SUB SWAP1 REVERT JUMPDEST PUSH1 0x0 DUP1 PUSH1 0x0 DUP1 PUSH1 0x0 DUP1 PUSH1 0x0 SWAP1 POP JUMPDEST DUP7 DUP2 LT ISZERO PUSH2 0x128D JUMPI PUSH2 0x1130 DUP9 DUP3 PUSH2 0x1298 JUMP JUMPDEST DUP1 SWAP5 POP DUP2 SWAP6 POP DUP3 SWAP7 POP POP POP POP PUSH1 0x1 DUP10 PUSH1 0x40 MLOAD PUSH1 0x20 ADD PUSH2 0x114F SWAP2 SWAP1 PUSH2 0x1F88 JUMP JUMPDEST PUSH1 0x40 MLOAD PUSH1 0x20 DUP2 DUP4 SUB SUB DUP2 MSTORE SWAP1 PUSH1 0x40 MSTORE DUP1 MLOAD SWAP1 PUSH1 0x20 ADD KECCAK256 DUP6 DUP6 DUP6 PUSH1 0x40 MLOAD PUSH1 0x0 DUP2 MSTORE PUSH1 0x20 ADD PUSH1 0x40 MSTORE PUSH1 0x40 MLOAD PUSH2 0x1185 SWAP5 SWAP4 SWAP3 SWAP2 SWAP1 PUSH2 0x1FCA JUMP JUMPDEST PUSH1 0x20 PUSH1 0x40 MLOAD PUSH1 0x20 DUP2 SUB SWAP1 DUP1 DUP5 SUB SWAP1 DUP6 GAS STATICCALL ISZERO DUP1 ISZERO PUSH2 0x11A7 JUMPI RETURNDATASIZE PUSH1 0x0 DUP1 RETURNDATACOPY RETURNDATASIZE PUSH1 0x0 REVERT JUMPDEST POP POP POP PUSH1 0x20 PUSH1 0x40 MLOAD SUB MLOAD SWAP5 POP DUP6 PUSH20 0xFFFFFFFFFFFFFFFFFFFFFFFFFFFFFFFFFFFFFFFF AND DUP6 PUSH20 0xFFFFFFFFFFFFFFFFFFFFFFFFFFFFFFFFFFFFFFFF AND EQ ISZERO DUP1 ISZERO PUSH2 0x1238 JUMPI POP PUSH1 0x1 PUSH1 0x0 DUP7 PUSH20 0xFFFFFFFFFFFFFFFFFFFFFFFFFFFFFFFFFFFFFFFF AND PUSH20 0xFFFFFFFFFFFFFFFFFFFFFFFFFFFFFFFFFFFFFFFF AND DUP2 MSTORE PUSH1 0x20 ADD SWAP1 DUP2 MSTORE PUSH1 0x20 ADD PUSH1 0x0 KECCAK256 PUSH1 0x0 SWAP1 SLOAD SWAP1 PUSH2 0x100 EXP SWAP1 DIV PUSH1 0xFF AND JUMPDEST PUSH2 0x1277 JUMPI PUSH1 0x40 MLOAD PUSH32 0x8C379A000000000000000000000000000000000000000000000000000000000 DUP2 MSTORE PUSH1 0x4 ADD PUSH2 0x126E SWAP1 PUSH2 0x205B JUMP JUMPDEST PUSH1 0x40 MLOAD DUP1 SWAP2 SUB SWAP1 REVERT JUMPDEST DUP5 SWAP6 POP DUP1 DUP1 PUSH2 0x1285 SWAP1 PUSH2 0x1A1C JUMP JUMPDEST SWAP2 POP POP PUSH2 0x111E JUMP JUMPDEST POP POP POP POP POP POP POP POP POP JUMP JUMPDEST PUSH1 0x0 DUP1 PUSH1 0x0 DUP4 PUSH1 0x41 MUL PUSH1 0x20 DUP2 ADD DUP7 ADD MLOAD SWAP3 POP PUSH1 0x40 DUP2 ADD DUP7 ADD MLOAD SWAP2 POP PUSH1 0xFF PUSH1 0x41 DUP3 ADD DUP8 ADD MLOAD AND SWAP4 POP POP SWAP3 POP SWAP3 POP SWAP3 JUMP JUMPDEST PUSH1 0x0 DUP2 SWAP1 POP SWAP2 SWAP1 POP JUMP JUMPDEST PUSH2 0x12DA DUP2 PUSH2 0x12C7 JUMP JUMPDEST DUP3 MSTORE POP POP JUMP JUMPDEST PUSH1 0x0 PUSH1 0x20 DUP3 ADD SWAP1 POP PUSH2 0x12F5 PUSH1 0x0 DUP4 ADD DUP5 PUSH2 0x12D1 JUMP JUMPDEST SWAP3 SWAP2 POP POP JUMP JUMPDEST PUSH1 0x0 DUP3 DUP3 MSTORE PUSH1 0x20 DUP3 ADD SWAP1 POP SWAP3 SWAP2 POP POP JUMP JUMPDEST DUP3 DUP2 DUP4 CALLDATACOPY PUSH1 0x0 DUP4 DUP4 ADD MSTORE POP POP POP JUMP JUMPDEST PUSH1 0x0 PUSH1 0x1F NOT PUSH1 0x1F DUP4 ADD AND SWAP1 POP SWAP2 SWAP1 POP JUMP JUMPDEST PUSH1 0x0 PUSH2 0x1338 DUP4 DUP6 PUSH2 0x12FB JUMP JUMPDEST SWAP4 POP PUSH2 0x1345 DUP4 DUP6 DUP5 PUSH2 0x130C JUMP JUMPDEST PUSH2 0x134E DUP4 PUSH2 0x131B JUMP JUMPDEST DUP5 ADD SWAP1 POP SWAP4 SWAP3 POP POP POP JUMP JUMPDEST PUSH1 0x0 PUSH1 0x40 DUP3 ADD SWAP1 POP PUSH2 0x136E PUSH1 0x0 DUP4 ADD DUP7 PUSH2 0x12D1 JUMP JUMPDEST DUP2 DUP2 SUB PUSH1 0x20 DUP4 ADD MSTORE PUSH2 0x1381 DUP2 DUP5 DUP7 PUSH2 0x132C JUMP JUMPDEST SWAP1 POP SWAP5 SWAP4 POP POP POP POP JUMP JUMPDEST PUSH1 0x0 DUP2 MLOAD SWAP1 POP SWAP2 SWAP1 POP JUMP JUMPDEST PUSH1 0x0 DUP3 DUP3 MSTORE PUSH1 0x20 DUP3 ADD SWAP1 POP SWAP3 SWAP2 POP POP JUMP JUMPDEST PUSH1 0x0 DUP2 SWAP1 POP PUSH1 0x20 DUP3 ADD SWAP1 POP SWAP2 SWAP1 POP JUMP JUMPDEST PUSH1 0x0 PUSH20 0xFFFFFFFFFFFFFFFFFFFFFFFFFFFFFFFFFFFFFFFF DUP3 AND SWAP1 POP SWAP2 SWAP1 POP JUMP JUMPDEST PUSH1 0x0 PUSH2 0x13E2 DUP3 PUSH2 0x13B7 JUMP JUMPDEST SWAP1 POP SWAP2 SWAP1 POP JUMP JUMPDEST PUSH2 0x13F2 DUP2 PUSH2 0x13D7 JUMP JUMPDEST DUP3 MSTORE POP POP JUMP JUMPDEST PUSH1 0x0 PUSH2 0x1404 DUP4 DUP4 PUSH2 0x13E9 JUMP JUMPDEST PUSH1 0x20 DUP4 ADD SWAP1 POP SWAP3 SWAP2 POP POP JUMP JUMPDEST PUSH1 0x0 PUSH1 0x20 DUP3 ADD SWAP1 POP SWAP2 SWAP1 POP JUMP JUMPDEST PUSH1 0x0 PUSH2 0x1428 DUP3 PUSH2 0x138B JUMP JUMPDEST PUSH2 0x1432 DUP2 DUP6 PUSH2 0x1396 JUMP JUMPDEST SWAP4 POP PUSH2 0x143D DUP4 PUSH2 0x13A7 JUMP JUMPDEST DUP1 PUSH1 0x0 JUMPDEST DUP4 DUP2 LT ISZERO PUSH2 0x146E JUMPI DUP2 MLOAD PUSH2 0x1455 DUP9 DUP3 PUSH2 0x13F8 JUMP JUMPDEST SWAP8 POP PUSH2 0x1460 DUP4 PUSH2 0x1410 JUMP JUMPDEST SWAP3 POP POP PUSH1 0x1 DUP2 ADD SWAP1 POP PUSH2 0x1441 JUMP JUMPDEST POP DUP6 SWAP4 POP POP POP POP SWAP3 SWAP2 POP POP JUMP JUMPDEST PUSH1 0x0 PUSH1 0x20 DUP3 ADD SWAP1 POP DUP2 DUP2 SUB PUSH1 0x0 DUP4 ADD MSTORE PUSH2 0x1495 DUP2 DUP5 PUSH2 0x141D JUMP JUMPDEST SWAP1 POP SWAP3 SWAP2 POP POP JUMP JUMPDEST PUSH1 0x0 PUSH1 0x40 MLOAD SWAP1 POP SWAP1 JUMP JUMPDEST PUSH1 0x0 DUP1 REVERT JUMPDEST PUSH1 0x0 DUP1 REVERT JUMPDEST PUSH2 0x14BA DUP2 PUSH2 0x13D7 JUMP JUMPDEST DUP2 EQ PUSH2 0x14C5 JUMPI PUSH1 0x0 DUP1 REVERT JUMPDEST POP JUMP JUMPDEST PUSH1 0x0 DUP2 CALLDATALOAD SWAP1 POP PUSH2 0x14D7 DUP2 PUSH2 0x14B1 JUMP JUMPDEST SWAP3 SWAP2 POP POP JUMP JUMPDEST PUSH2 0x14E6 DUP2 PUSH2 0x12C7 JUMP JUMPDEST DUP2 EQ PUSH2 0x14F1 JUMPI PUSH1 0x0 DUP1 REVERT JUMPDEST POP JUMP JUMPDEST PUSH1 0x0 DUP2 CALLDATALOAD SWAP1 POP PUSH2 0x1503 DUP2 PUSH2 0x14DD JUMP JUMPDEST SWAP3 SWAP2 POP POP JUMP JUMPDEST PUSH1 0x0 DUP1 PUSH1 0x40 DUP4 DUP6 SUB SLT ISZERO PUSH2 0x1520 JUMPI PUSH2 0x151F PUSH2 0x14A7 JUMP JUMPDEST JUMPDEST PUSH1 0x0 PUSH2 0x152E DUP6 DUP3 DUP7 ADD PUSH2 0x14C8 JUMP JUMPDEST SWAP3 POP POP PUSH1 0x20 PUSH2 0x153F DUP6 DUP3 DUP7 ADD PUSH2 0x14F4 JUMP JUMPDEST SWAP2 POP POP SWAP3 POP SWAP3 SWAP1 POP JUMP JUMPDEST PUSH1 0x0 DUP1 REVERT JUMPDEST PUSH1 0x0 DUP1 REVERT JUMPDEST PUSH1 0x0 DUP1 REVERT JUMPDEST PUSH1 0x0 DUP1 DUP4 PUSH1 0x1F DUP5 ADD SLT PUSH2 0x156E JUMPI PUSH2 0x156D PUSH2 0x1549 JUMP JUMPDEST JUMPDEST DUP3 CALLDATALOAD SWAP1 POP PUSH8 0xFFFFFFFFFFFFFFFF DUP2 GT ISZERO PUSH2 0x158B JUMPI PUSH2 0x158A PUSH2 0x154E JUMP JUMPDEST JUMPDEST PUSH1 0x20 DUP4 ADD SWAP2 POP DUP4 PUSH1 0x1 DUP3 MUL DUP4 ADD GT ISZERO PUSH2 0x15A7 JUMPI PUSH2 0x15A6 PUSH2 0x1553 JUMP JUMPDEST JUMPDEST SWAP3 POP SWAP3 SWAP1 POP JUMP JUMPDEST PUSH1 0x0 DUP1 REVERT JUMPDEST PUSH32 0x4E487B7100000000000000000000000000000000000000000000000000000000 PUSH1 0x0 MSTORE PUSH1 0x41 PUSH1 0x4 MSTORE PUSH1 0x24 PUSH1 0x0 REVERT JUMPDEST PUSH2 0x15EB DUP3 PUSH2 0x131B JUMP JUMPDEST DUP2 ADD DUP2 DUP2 LT PUSH8 0xFFFFFFFFFFFFFFFF DUP3 GT OR ISZERO PUSH2 0x160A JUMPI PUSH2 0x1609 PUSH2 0x15B3 JUMP JUMPDEST JUMPDEST DUP1 PUSH1 0x40 MSTORE POP POP POP JUMP JUMPDEST PUSH1 0x0 PUSH2 0x161D PUSH2 0x149D JUMP JUMPDEST SWAP1 POP PUSH2 0x1629 DUP3 DUP3 PUSH2 0x15E2 JUMP JUMPDEST SWAP2 SWAP1 POP JUMP JUMPDEST PUSH1 0x0 PUSH8 0xFFFFFFFFFFFFFFFF DUP3 GT ISZERO PUSH2 0x1649 JUMPI PUSH2 0x1648 PUSH2 0x15B3 JUMP JUMPDEST JUMPDEST PUSH2 0x1652 DUP3 PUSH2 0x131B JUMP JUMPDEST SWAP1 POP PUSH1 0x20 DUP2 ADD SWAP1 POP SWAP2 SWAP1 POP JUMP JUMPDEST PUSH1 0x0 PUSH2 0x1672 PUSH2 0x166D DUP5 PUSH2 0x162E JUMP JUMPDEST PUSH2 0x1613 JUMP JUMPDEST SWAP1 POP DUP3 DUP2 MSTORE PUSH1 0x20 DUP2 ADD DUP5 DUP5 DUP5 ADD GT ISZERO PUSH2 0x168E JUMPI PUSH2 0x168D PUSH2 0x15AE JUMP JUMPDEST JUMPDEST PUSH2 0x1699 DUP5 DUP3 DUP6 PUSH2 0x130C JUMP JUMPDEST POP SWAP4 SWAP3 POP POP POP JUMP JUMPDEST PUSH1 0x0 DUP3 PUSH1 0x1F DUP4 ADD SLT PUSH2 0x16B6 JUMPI PUSH2 0x16B5 PUSH2 0x1549 JUMP JUMPDEST JUMPDEST DUP2 CALLDATALOAD PUSH2 0x16C6 DUP5 DUP3 PUSH1 0x20 DUP7 ADD PUSH2 0x165F JUMP JUMPDEST SWAP2 POP POP SWAP3 SWAP2 POP POP JUMP JUMPDEST PUSH1 0x0 DUP1 PUSH1 0x0 DUP1 PUSH1 0x0 PUSH1 0x80 DUP7 DUP9 SUB SLT ISZERO PUSH2 0x16EB JUMPI PUSH2 0x16EA PUSH2 0x14A7 JUMP JUMPDEST JUMPDEST PUSH1 0x0 PUSH2 0x16F9 DUP9 DUP3 DUP10 ADD PUSH2 0x14C8 JUMP JUMPDEST SWAP6 POP POP PUSH1 0x20 PUSH2 0x170A DUP9 DUP3 DUP10 ADD PUSH2 0x14F4 JUMP JUMPDEST SWAP5 POP POP PUSH1 0x40 DUP7 ADD CALLDATALOAD PUSH8 0xFFFFFFFFFFFFFFFF DUP2 GT ISZERO PUSH2 0x172B JUMPI PUSH2 0x172A PUSH2 0x14AC JUMP JUMPDEST JUMPDEST PUSH2 0x1737 DUP9 DUP3 DUP10 ADD PUSH2 0x1558 JUMP JUMPDEST SWAP4 POP SWAP4 POP POP PUSH1 0x60 DUP7 ADD CALLDATALOAD PUSH8 0xFFFFFFFFFFFFFFFF DUP2 GT ISZERO PUSH2 0x175A JUMPI PUSH2 0x1759 PUSH2 0x14AC JUMP JUMPDEST JUMPDEST PUSH2 0x1766 DUP9 DUP3 DUP10 ADD PUSH2 0x16A1 JUMP JUMPDEST SWAP2 POP POP SWAP3 SWAP6 POP SWAP3 SWAP6 SWAP1 SWAP4 POP JUMP JUMPDEST PUSH1 0x0 DUP2 ISZERO ISZERO SWAP1 POP SWAP2 SWAP1 POP JUMP JUMPDEST PUSH2 0x1788 DUP2 PUSH2 0x1773 JUMP JUMPDEST DUP3 MSTORE POP POP JUMP JUMPDEST PUSH1 0x0 PUSH1 0x20 DUP3 ADD SWAP1 POP PUSH2 0x17A3 PUSH1 0x0 DUP4 ADD DUP5 PUSH2 0x177F JUMP JUMPDEST SWAP3 SWAP2 POP POP JUMP JUMPDEST PUSH1 0x0 PUSH1 0x20 DUP3 DUP5 SUB SLT ISZERO PUSH2 0x17BF JUMPI PUSH2 0x17BE PUSH2 0x14A7 JUMP JUMPDEST JUMPDEST PUSH1 0x0 PUSH2 0x17CD DUP5 DUP3 DUP6 ADD PUSH2 0x14C8 JUMP JUMPDEST SWAP2 POP POP SWAP3 SWAP2 POP POP JUMP JUMPDEST PUSH1 0x0 DUP2 MLOAD SWAP1 POP SWAP2 SWAP1 POP JUMP JUMPDEST PUSH1 0x0 JUMPDEST DUP4 DUP2 LT ISZERO PUSH2 0x17FF JUMPI DUP1 DUP3 ADD MLOAD DUP2 DUP5 ADD MSTORE PUSH1 0x20 DUP2 ADD SWAP1 POP PUSH2 0x17E4 JUMP JUMPDEST PUSH1 0x0 DUP5 DUP5 ADD MSTORE POP POP POP POP JUMP JUMPDEST PUSH1 0x0 PUSH2 0x1816 DUP3 PUSH2 0x17D6 JUMP JUMPDEST PUSH2 0x1820 DUP2 DUP6 PUSH2 0x12FB JUMP JUMPDEST SWAP4 POP PUSH2 0x1830 DUP2 DUP6 PUSH1 0x20 DUP7 ADD PUSH2 0x17E1 JUMP JUMPDEST PUSH2 0x1839 DUP2 PUSH2 0x131B JUMP JUMPDEST DUP5 ADD SWAP2 POP POP SWAP3 SWAP2 POP POP JUMP JUMPDEST PUSH1 0x0 PUSH1 0x20 DUP3 ADD SWAP1 POP DUP2 DUP2 SUB PUSH1 0x0 DUP4 ADD MSTORE PUSH2 0x185E DUP2 DUP5 PUSH2 0x180B JUMP JUMPDEST SWAP1 POP SWAP3 SWAP2 POP POP JUMP JUMPDEST PUSH1 0x0 PUSH1 0x20 DUP3 DUP5 SUB SLT ISZERO PUSH2 0x187C JUMPI PUSH2 0x187B PUSH2 0x14A7 JUMP JUMPDEST JUMPDEST PUSH1 0x0 PUSH2 0x188A DUP5 DUP3 DUP6 ADD PUSH2 0x14F4 JUMP JUMPDEST SWAP2 POP POP SWAP3 SWAP2 POP POP JUMP JUMPDEST PUSH1 0x0 DUP2 SWAP1 POP SWAP2 SWAP1 POP JUMP JUMPDEST PUSH2 0x18A6 DUP2 PUSH2 0x1893 JUMP JUMPDEST DUP2 EQ PUSH2 0x18B1 JUMPI PUSH1 0x0 DUP1 REVERT JUMPDEST POP JUMP JUMPDEST PUSH1 0x0 DUP2 CALLDATALOAD SWAP1 POP PUSH2 0x18C3 DUP2 PUSH2 0x189D JUMP JUMPDEST SWAP3 SWAP2 POP POP JUMP JUMPDEST PUSH1 0x0 DUP1 PUSH1 0x40 DUP4 DUP6 SUB SLT ISZERO PUSH2 0x18E0 JUMPI PUSH2 0x18DF PUSH2 0x14A7 JUMP JUMPDEST JUMPDEST PUSH1 0x0 PUSH2 0x18EE DUP6 DUP3 DUP7 ADD PUSH2 0x18B4 JUMP JUMPDEST SWAP3 POP POP PUSH1 0x20 DUP4 ADD CALLDATALOAD PUSH8 0xFFFFFFFFFFFFFFFF DUP2 GT ISZERO PUSH2 0x190F JUMPI PUSH2 0x190E PUSH2 0x14AC JUMP JUMPDEST JUMPDEST PUSH2 0x191B DUP6 DUP3 DUP7 ADD PUSH2 0x16A1 JUMP JUMPDEST SWAP2 POP POP SWAP3 POP SWAP3 SWAP1 POP JUMP JUMPDEST PUSH1 0x0 DUP1 PUSH1 0x0 PUSH1 0x60 DUP5 DUP7 SUB SLT ISZERO PUSH2 0x193E JUMPI PUSH2 0x193D PUSH2 0x14A7 JUMP JUMPDEST JUMPDEST PUSH1 0x0 PUSH2 0x194C DUP7 DUP3 DUP8 ADD PUSH2 0x14C8 JUMP JUMPDEST SWAP4 POP POP PUSH1 0x20 PUSH2 0x195D DUP7 DUP3 DUP8 ADD PUSH2 0x14F4 JUMP JUMPDEST SWAP3 POP POP PUSH1 0x40 DUP5 ADD CALLDATALOAD PUSH8 0xFFFFFFFFFFFFFFFF DUP2 GT ISZERO PUSH2 0x197E JUMPI PUSH2 0x197D PUSH2 0x14AC JUMP JUMPDEST JUMPDEST PUSH2 0x198A DUP7 DUP3 DUP8 ADD PUSH2 0x16A1 JUMP JUMPDEST SWAP2 POP POP SWAP3 POP SWAP3 POP SWAP3 JUMP JUMPDEST PUSH2 0x199D DUP2 PUSH2 0x1893 JUMP JUMPDEST DUP3 MSTORE POP POP JUMP JUMPDEST PUSH1 0x0 PUSH1 0x20 DUP3 ADD SWAP1 POP PUSH2 0x19B8 PUSH1 0x0 DUP4 ADD DUP5 PUSH2 0x1994 JUMP JUMPDEST SWAP3 SWAP2 POP POP JUMP JUMPDEST PUSH32 0x4E487B7100000000000000000000000000000000000000000000000000000000 PUSH1 0x0 MSTORE PUSH1 0x32 PUSH1 0x4 MSTORE PUSH1 0x24 PUSH1 0x0 REVERT JUMPDEST PUSH32 0x4E487B7100000000000000000000000000000000000000000000000000000000 PUSH1 0x0 MSTORE PUSH1 0x11 PUSH1 0x4 MSTORE PUSH1 0x24 PUSH1 0x0 REVERT JUMPDEST PUSH1 0x0 PUSH2 0x1A27 DUP3 PUSH2 0x12C7 JUMP JUMPDEST SWAP2 POP PUSH32 0xFFFFFFFFFFFFFFFFFFFFFFFFFFFFFFFFFFFFFFFFFFFFFFFFFFFFFFFFFFFFFFFF DUP3 SUB PUSH2 0x1A59 JUMPI PUSH2 0x1A58 PUSH2 0x19ED JUMP JUMPDEST JUMPDEST PUSH1 0x1 DUP3 ADD SWAP1 POP SWAP2 SWAP1 POP JUMP JUMPDEST PUSH1 0x0 DUP3 DUP3 MSTORE PUSH1 0x20 DUP3 ADD SWAP1 POP SWAP3 SWAP2 POP POP JUMP JUMPDEST PUSH32 0x4E6F7420617574686F72697A6564000000000000000000000000000000000000 PUSH1 0x0 DUP3 ADD MSTORE POP JUMP JUMPDEST PUSH1 0x0 PUSH2 0x1AAB PUSH1 0xE DUP4 PUSH2 0x1A64 JUMP JUMPDEST SWAP2 POP PUSH2 0x1AB6 DUP3 PUSH2 0x1A75 JUMP JUMPDEST PUSH1 0x20 DUP3 ADD SWAP1 POP SWAP2 SWAP1 POP JUMP JUMPDEST PUSH1 0x0 PUSH1 0x20 DUP3 ADD SWAP1 POP DUP2 DUP2 SUB PUSH1 0x0 DUP4 ADD MSTORE PUSH2 0x1ADA DUP2 PUSH2 0x1A9E JUMP JUMPDEST SWAP1 POP SWAP2 SWAP1 POP JUMP JUMPDEST PUSH1 0x0 PUSH2 0x1AEC DUP3 PUSH2 0x12C7 JUMP JUMPDEST SWAP2 POP PUSH2 0x1AF7 DUP4 PUSH2 0x12C7 JUMP JUMPDEST SWAP3 POP DUP3 DUP3 ADD SWAP1 POP DUP1 DUP3 GT ISZERO PUSH2 0x1B0F JUMPI PUSH2 0x1B0E PUSH2 0x19ED JUMP JUMPDEST JUMPDEST SWAP3 SWAP2 POP POP JUMP JUMPDEST PUSH32 0x6572726F72303400000000000000000000000000000000000000000000000000 PUSH1 0x0 DUP3 ADD MSTORE POP JUMP JUMPDEST PUSH1 0x0 PUSH2 0x1B4B PUSH1 0x7 DUP4 PUSH2 0x1A64 JUMP JUMPDEST SWAP2 POP PUSH2 0x1B56 DUP3 PUSH2 0x1B15 JUMP JUMPDEST PUSH1 0x20 DUP3 ADD SWAP1 POP SWAP2 SWAP1 POP JUMP JUMPDEST PUSH1 0x0 PUSH1 0x20 DUP3 ADD SWAP1 POP DUP2 DUP2 SUB PUSH1 0x0 DUP4 ADD MSTORE PUSH2 0x1B7A DUP2 PUSH2 0x1B3E JUMP JUMPDEST SWAP1 POP SWAP2 SWAP1 POP JUMP JUMPDEST PUSH1 0x0 DUP2 SWAP1 POP SWAP3 SWAP2 POP POP JUMP JUMPDEST PUSH1 0x0 PUSH2 0x1B98 DUP4 DUP6 PUSH2 0x1B81 JUMP JUMPDEST SWAP4 POP PUSH2 0x1BA5 DUP4 DUP6 DUP5 PUSH2 0x130C JUMP JUMPDEST DUP3 DUP5 ADD SWAP1 POP SWAP4 SWAP3 POP POP POP JUMP JUMPDEST PUSH1 0x0 PUSH2 0x1BBE DUP3 DUP5 DUP7 PUSH2 0x1B8C JUMP JUMPDEST SWAP2 POP DUP2 SWAP1 POP SWAP4 SWAP3 POP POP POP JUMP JUMPDEST PUSH2 0x1BD3 DUP2 PUSH2 0x13D7 JUMP JUMPDEST DUP3 MSTORE POP POP JUMP JUMPDEST PUSH1 0x0 PUSH1 0x40 DUP3 ADD SWAP1 POP PUSH2 0x1BEE PUSH1 0x0 DUP4 ADD DUP6 PUSH2 0x1BCA JUMP JUMPDEST PUSH2 0x1BFB PUSH1 0x20 DUP4 ADD DUP5 PUSH2 0x12D1 JUMP JUMPDEST SWAP4 SWAP3 POP POP POP JUMP JUMPDEST PUSH32 0x6572726F72303200000000000000000000000000000000000000000000000000 PUSH1 0x0 DUP3 ADD MSTORE POP JUMP JUMPDEST PUSH1 0x0 PUSH2 0x1C38 PUSH1 0x7 DUP4 PUSH2 0x1A64 JUMP JUMPDEST SWAP2 POP PUSH2 0x1C43 DUP3 PUSH2 0x1C02 JUMP JUMPDEST PUSH1 0x20 DUP3 ADD SWAP1 POP SWAP2 SWAP1 POP JUMP JUMPDEST PUSH1 0x0 PUSH1 0x20 DUP3 ADD SWAP1 POP DUP2 DUP2 SUB PUSH1 0x0 DUP4 ADD MSTORE PUSH2 0x1C67 DUP2 PUSH2 0x1C2B JUMP JUMPDEST SWAP1 POP SWAP2 SWAP1 POP JUMP JUMPDEST PUSH32 0x6572726F72303300000000000000000000000000000000000000000000000000 PUSH1 0x0 DUP3 ADD MSTORE POP JUMP JUMPDEST PUSH1 0x0 PUSH2 0x1CA4 PUSH1 0x7 DUP4 PUSH2 0x1A64 JUMP JUMPDEST SWAP2 POP PUSH2 0x1CAF DUP3 PUSH2 0x1C6E JUMP JUMPDEST PUSH1 0x20 DUP3 ADD SWAP1 POP SWAP2 SWAP1 POP JUMP JUMPDEST PUSH1 0x0 PUSH1 0x20 DUP3 ADD SWAP1 POP DUP2 DUP2 SUB PUSH1 0x0 DUP4 ADD MSTORE PUSH2 0x1CD3 DUP2 PUSH2 0x1C97 JUMP JUMPDEST SWAP1 POP SWAP2 SWAP1 POP JUMP JUMPDEST PUSH32 0x6572726F72303500000000000000000000000000000000000000000000000000 PUSH1 0x0 DUP3 ADD MSTORE POP JUMP JUMPDEST PUSH1 0x0 PUSH2 0x1D10 PUSH1 0x7 DUP4 PUSH2 0x1A64 JUMP JUMPDEST SWAP2 POP PUSH2 0x1D1B DUP3 PUSH2 0x1CDA JUMP JUMPDEST PUSH1 0x20 DUP3 ADD SWAP1 POP SWAP2 SWAP1 POP JUMP JUMPDEST PUSH1 0x0 PUSH1 0x20 DUP3 ADD SWAP1 POP DUP2 DUP2 SUB PUSH1 0x0 DUP4 ADD MSTORE PUSH2 0x1D3F DUP2 PUSH2 0x1D03 JUMP JUMPDEST SWAP1 POP SWAP2 SWAP1 POP JUMP JUMPDEST PUSH1 0x0 PUSH2 0x1D51 DUP3 PUSH2 0x12C7 JUMP JUMPDEST SWAP2 POP PUSH2 0x1D5C DUP4 PUSH2 0x12C7 JUMP JUMPDEST SWAP3 POP DUP3 DUP3 SUB SWAP1 POP DUP2 DUP2 GT ISZERO PUSH2 0x1D74 JUMPI PUSH2 0x1D73 PUSH2 0x19ED JUMP JUMPDEST JUMPDEST SWAP3 SWAP2 POP POP JUMP JUMPDEST PUSH32 0x6572726F72303700000000000000000000000000000000000000000000000000 PUSH1 0x0 DUP3 ADD MSTORE POP JUMP JUMPDEST PUSH1 0x0 PUSH2 0x1DB0 PUSH1 0x7 DUP4 PUSH2 0x1A64 JUMP JUMPDEST SWAP2 POP PUSH2 0x1DBB DUP3 PUSH2 0x1D7A JUMP JUMPDEST PUSH1 0x20 DUP3 ADD SWAP1 POP SWAP2 SWAP1 POP JUMP JUMPDEST PUSH1 0x0 PUSH1 0x20 DUP3 ADD SWAP1 POP DUP2 DUP2 SUB PUSH1 0x0 DUP4 ADD MSTORE PUSH2 0x1DDF DUP2 PUSH2 0x1DA3 JUMP JUMPDEST SWAP1 POP SWAP2 SWAP1 POP JUMP JUMPDEST PUSH1 0x0 PUSH2 0x1DF1 DUP3 PUSH2 0x12C7 JUMP JUMPDEST SWAP2 POP PUSH1 0x0 DUP3 SUB PUSH2 0x1E04 JUMPI PUSH2 0x1E03 PUSH2 0x19ED JUMP JUMPDEST JUMPDEST PUSH1 0x1 DUP3 SUB SWAP1 POP SWAP2 SWAP1 POP JUMP JUMPDEST PUSH1 0x0 PUSH1 0xA0 DUP3 ADD SWAP1 POP PUSH2 0x1E24 PUSH1 0x0 DUP4 ADD DUP9 PUSH2 0x1BCA JUMP JUMPDEST PUSH2 0x1E31 PUSH1 0x20 DUP4 ADD DUP8 PUSH2 0x12D1 JUMP JUMPDEST PUSH2 0x1E3E PUSH1 0x40 DUP4 ADD DUP7 PUSH2 0x1994 JUMP JUMPDEST PUSH2 0x1E4B PUSH1 0x60 DUP4 ADD DUP6 PUSH2 0x12D1 JUMP JUMPDEST PUSH2 0x1E58 PUSH1 0x80 DUP4 ADD DUP5 PUSH2 0x12D1 JUMP JUMPDEST SWAP7 SWAP6 POP POP POP POP POP POP JUMP JUMPDEST PUSH1 0x0 PUSH2 0x1E6D DUP3 PUSH2 0x12C7 JUMP JUMPDEST SWAP2 POP PUSH2 0x1E78 DUP4 PUSH2 0x12C7 JUMP JUMPDEST SWAP3 POP DUP3 DUP3 MUL PUSH2 0x1E86 DUP2 PUSH2 0x12C7 JUMP JUMPDEST SWAP2 POP DUP3 DUP3 DIV DUP5 EQ DUP4 ISZERO OR PUSH2 0x1E9D JUMPI PUSH2 0x1E9C PUSH2 0x19ED JUMP JUMPDEST JUMPDEST POP SWAP3 SWAP2 POP POP JUMP JUMPDEST PUSH32 0x5369676E61747572657320746F6F2073686F7274000000000000000000000000 PUSH1 0x0 DUP3 ADD MSTORE POP JUMP JUMPDEST PUSH1 0x0 PUSH2 0x1EDA PUSH1 0x14 DUP4 PUSH2 0x1A64 JUMP JUMPDEST SWAP2 POP PUSH2 0x1EE5 DUP3 PUSH2 0x1EA4 JUMP JUMPDEST PUSH1 0x20 DUP3 ADD SWAP1 POP SWAP2 SWAP1 POP JUMP JUMPDEST PUSH1 0x0 PUSH1 0x20 DUP3 ADD SWAP1 POP DUP2 DUP2 SUB PUSH1 0x0 DUP4 ADD MSTORE PUSH2 0x1F09 DUP2 PUSH2 0x1ECD JUMP JUMPDEST SWAP1 POP SWAP2 SWAP1 POP JUMP JUMPDEST PUSH1 0x0 DUP2 SWAP1 POP SWAP3 SWAP2 POP POP JUMP JUMPDEST PUSH32 0x19457468657265756D205369676E6564204D6573736167653A0A333200000000 PUSH1 0x0 DUP3 ADD MSTORE POP JUMP JUMPDEST PUSH1 0x0 PUSH2 0x1F51 PUSH1 0x1C DUP4 PUSH2 0x1F10 JUMP JUMPDEST SWAP2 POP PUSH2 0x1F5C DUP3 PUSH2 0x1F1B JUMP JUMPDEST PUSH1 0x1C DUP3 ADD SWAP1 POP SWAP2 SWAP1 POP JUMP JUMPDEST PUSH1 0x0 DUP2 SWAP1 POP SWAP2 SWAP1 POP JUMP JUMPDEST PUSH2 0x1F82 PUSH2 0x1F7D DUP3 PUSH2 0x1893 JUMP JUMPDEST PUSH2 0x1F67 JUMP JUMPDEST DUP3 MSTORE POP POP JUMP JUMPDEST PUSH1 0x0 PUSH2 0x1F93 DUP3 PUSH2 0x1F44 JUMP JUMPDEST SWAP2 POP PUSH2 0x1F9F DUP3 DUP5 PUSH2 0x1F71 JUMP JUMPDEST PUSH1 0x20 DUP3 ADD SWAP2 POP DUP2 SWAP1 POP SWAP3 SWAP2 POP POP JUMP JUMPDEST PUSH1 0x0 PUSH1 0xFF DUP3 AND SWAP1 POP SWAP2 SWAP1 POP JUMP JUMPDEST PUSH2 0x1FC4 DUP2 PUSH2 0x1FAE JUMP JUMPDEST DUP3 MSTORE POP POP JUMP JUMPDEST PUSH1 0x0 PUSH1 0x80 DUP3 ADD SWAP1 POP PUSH2 0x1FDF PUSH1 0x0 DUP4 ADD DUP8 PUSH2 0x1994 JUMP JUMPDEST PUSH2 0x1FEC PUSH1 0x20 DUP4 ADD DUP7 PUSH2 0x1FBB JUMP JUMPDEST PUSH2 0x1FF9 PUSH1 0x40 DUP4 ADD DUP6 PUSH2 0x1994 JUMP JUMPDEST PUSH2 0x2006 PUSH1 0x60 DUP4 ADD DUP5 PUSH2 0x1994 JUMP JUMPDEST SWAP6 SWAP5 POP POP POP POP POP JUMP JUMPDEST PUSH32 0x6572726F72303600000000000000000000000000000000000000000000000000 PUSH1 0x0 DUP3 ADD MSTORE POP JUMP JUMPDEST PUSH1 0x0 PUSH2 0x2045 PUSH1 0x7 DUP4 PUSH2 0x1A64 JUMP JUMPDEST SWAP2 POP PUSH2 0x2050 DUP3 PUSH2 0x200F JUMP JUMPDEST PUSH1 0x20 DUP3 ADD SWAP1 POP SWAP2 SWAP1 POP JUMP JUMPDEST PUSH1 0x0 PUSH1 0x20 DUP3 ADD SWAP1 POP DUP2 DUP2 SUB PUSH1 0x0 DUP4 ADD MSTORE PUSH2 0x2074 DUP2 PUSH2 0x2038 JUMP JUMPDEST SWAP1 POP SWAP2 SWAP1 POP JUMP INVALID LOG2 PUSH5 0x6970667358 0x22 SLT KECCAK256 EXTCODEHASH 0x21 0x21 DIV PUSH24 0xDAA54D80171D1779EBF3A598E1526EE891D8C5FD49C3DB70 0x49 DUP10 0xA7 PUSH5 0x736F6C6343 STOP ADDMOD SLT STOP CALLER "
				},
				"gasEstimates": {
					"creation": {
						"codeDepositCost": "1673800",
						"executionCost": "infinite",
						"totalCost": "infinite"
					},
					"external": {
						"": "infinite",
						"addOwnersAndThreshold(address,uint256)": "infinite",
						"addOwnersencode(address,uint256)": "infinite",
						"changeThreshold(uint256)": "infinite",
						"changeThresholdencode(uint256)": "infinite",
						"checkOwners()": "infinite",
						"checkSignature(bytes32,bytes)": "infinite",
						"checkThreshold()": "2482",
						"exertransact(address,uint256,bytes,bytes)": "infinite",
						"getTxhash(address,uint256,bytes)": "infinite",
						"isOwner(address)": "2950",
						"nonce()": "2473",
						"removeOwners(address,uint256)": "infinite",
						"removeOwnersencode(address,uint256)": "infinite"
					},
					"internal": {
						"_initialwallet(address[] memory,uint256)": "infinite",
						"encodetx(address,uint256,bytes memory,uint256,uint256)": "infinite",
						"signatureSplit(bytes memory,uint256)": "infinite",
						"startCheckSignature(bytes32,bytes memory,uint256)": "infinite"
					}
				},
				"methodIdentifiers": {
					"addOwnersAndThreshold(address,uint256)": "0c546204",
					"addOwnersencode(address,uint256)": "ff87578c",
					"changeThreshold(uint256)": "694e80c3",
					"changeThresholdencode(uint256)": "6876a95e",
					"checkOwners()": "029c81e3",
					"checkSignature(bytes32,bytes)": "831c9e2e",
					"checkThreshold()": "81244e5d",
					"exertransact(address,uint256,bytes,bytes)": "0fce747a",
					"getTxhash(address,uint256,bytes)": "8b30486c",
					"isOwner(address)": "2f54bf6e",
					"nonce()": "affed0e0",
					"removeOwners(address,uint256)": "c0f0b3f1",
					"removeOwnersencode(address,uint256)": "54910298"
				}
			},
			"storageLayout": {
				"storage": [
					{
						"astId": 58,
						"contract": "contracts/Try01/Simplewallet.sol:Wallet",
						"label": "owners",
						"offset": 0,
						"slot": "0",
						"type": "t_array(t_address)dyn_storage"
					},
					{
						"astId": 62,
						"contract": "contracts/Try01/Simplewallet.sol:Wallet",
						"label": "isowners",
						"offset": 0,
						"slot": "1",
						"type": "t_mapping(t_address,t_bool)"
					},
					{
						"astId": 64,
						"contract": "contracts/Try01/Simplewallet.sol:Wallet",
						"label": "owners_num",
						"offset": 0,
						"slot": "2",
						"type": "t_uint256"
					},
					{
						"astId": 66,
						"contract": "contracts/Try01/Simplewallet.sol:Wallet",
						"label": "threshold",
						"offset": 0,
						"slot": "3",
						"type": "t_uint256"
					},
					{
						"astId": 68,
						"contract": "contracts/Try01/Simplewallet.sol:Wallet",
						"label": "nonce",
						"offset": 0,
						"slot": "4",
						"type": "t_uint256"
					}
				],
				"types": {
					"t_address": {
						"encoding": "inplace",
						"label": "address",
						"numberOfBytes": "20"
					},
					"t_array(t_address)dyn_storage": {
						"base": "t_address",
						"encoding": "dynamic_array",
						"label": "address[]",
						"numberOfBytes": "32"
					},
					"t_bool": {
						"encoding": "inplace",
						"label": "bool",
						"numberOfBytes": "1"
					},
					"t_mapping(t_address,t_bool)": {
						"encoding": "mapping",
						"key": "t_address",
						"label": "mapping(address => bool)",
						"numberOfBytes": "32",
						"value": "t_bool"
					},
					"t_uint256": {
						"encoding": "inplace",
						"label": "uint256",
						"numberOfBytes": "32"
					}
				}
			},
			"userdoc": {
				"kind": "user",
				"methods": {},
				"version": 1
			}
		}
	}
}