{
	"contracts/Try01/Simplewallet02.sol": {
		"Wallet": {
			"abi": [
				{
					"inputs": [
						{
							"internalType": "address[]",
							"name": "_owners",
							"type": "address[]"
						},
						{
							"internalType": "uint256",
							"name": "_threshold",
							"type": "uint256"
						}
					],
					"stateMutability": "nonpayable",
					"type": "constructor"
				},
				{
					"anonymous": false,
					"inputs": [
						{
							"indexed": true,
							"internalType": "address",
							"name": "owner",
							"type": "address"
						}
					],
					"name": "AddOwner",
					"type": "event"
				},
				{
					"anonymous": false,
					"inputs": [
						{
							"indexed": false,
							"internalType": "uint256",
							"name": "value",
							"type": "uint256"
						},
						{
							"indexed": false,
							"internalType": "bytes",
							"name": "data",
							"type": "bytes"
						}
					],
					"name": "Callfallback",
					"type": "event"
				},
				{
					"anonymous": false,
					"inputs": [
						{
							"indexed": false,
							"internalType": "uint256",
							"name": "threshold",
							"type": "uint256"
						}
					],
					"name": "ChangeThreshold",
					"type": "event"
				},
				{
					"anonymous": false,
					"inputs": [
						{
							"indexed": true,
							"internalType": "bytes32",
							"name": "txhash",
							"type": "bytes32"
						}
					],
					"name": "ExecutionFailure",
					"type": "event"
				},
				{
					"anonymous": false,
					"inputs": [
						{
							"indexed": true,
							"internalType": "bytes32",
							"name": "txhash",
							"type": "bytes32"
						}
					],
					"name": "ExecutionSuccess",
					"type": "event"
				},
				{
					"anonymous": false,
					"inputs": [
						{
							"indexed": false,
							"internalType": "uint256",
							"name": "value",
							"type": "uint256"
						}
					],
					"name": "Receiveeth",
					"type": "event"
				},
				{
					"anonymous": false,
					"inputs": [
						{
							"indexed": true,
							"internalType": "address",
							"name": "preowner",
							"type": "address"
						}
					],
					"name": "RemoveOwner",
					"type": "event"
				},
				{
					"stateMutability": "payable",
					"type": "fallback"
				},
				{
					"inputs": [
						{
							"internalType": "address",
							"name": "x",
							"type": "address"
						},
						{
							"internalType": "uint256",
							"name": "y",
							"type": "uint256"
						}
					],
					"name": "addOwnersencode",
					"outputs": [
						{
							"internalType": "bytes",
							"name": "result",
							"type": "bytes"
						}
					],
					"stateMutability": "pure",
					"type": "function"
				},
				{
					"inputs": [
						{
							"internalType": "uint256",
							"name": "new_threshold",
							"type": "uint256"
						}
					],
					"name": "changeThreshold",
					"outputs": [],
					"stateMutability": "nonpayable",
					"type": "function"
				},
				{
					"inputs": [
						{
							"internalType": "uint256",
							"name": "new_threshold",
							"type": "uint256"
						}
					],
					"name": "changeThresholdencode",
					"outputs": [
						{
							"internalType": "bytes",
							"name": "result",
							"type": "bytes"
						}
					],
					"stateMutability": "pure",
					"type": "function"
				},
				{
					"inputs": [],
					"name": "checkOwners",
					"outputs": [
						{
							"internalType": "address[]",
							"name": "",
							"type": "address[]"
						}
					],
					"stateMutability": "view",
					"type": "function"
				},
				{
					"inputs": [
						{
							"internalType": "bytes32",
							"name": "datatxhash",
							"type": "bytes32"
						},
						{
							"internalType": "bytes",
							"name": "signatures",
							"type": "bytes"
						}
					],
					"name": "checkSignature",
					"outputs": [],
					"stateMutability": "view",
					"type": "function"
				},
				{
					"inputs": [],
					"name": "checkThreshold",
					"outputs": [
						{
							"internalType": "uint256",
							"name": "",
							"type": "uint256"
						}
					],
					"stateMutability": "view",
					"type": "function"
				},
				{
					"inputs": [
						{
							"internalType": "address",
							"name": "to",
							"type": "address"
						},
						{
							"internalType": "uint256",
							"name": "value",
							"type": "uint256"
						},
						{
							"internalType": "bytes",
							"name": "data",
							"type": "bytes"
						},
						{
							"internalType": "bytes",
							"name": "signatures",
							"type": "bytes"
						}
					],
					"name": "exertransact",
					"outputs": [
						{
							"internalType": "bool",
							"name": "success",
							"type": "bool"
						}
					],
					"stateMutability": "payable",
					"type": "function"
				},
				{
					"inputs": [
						{
							"internalType": "address",
							"name": "to",
							"type": "address"
						},
						{
							"internalType": "uint256",
							"name": "value",
							"type": "uint256"
						},
						{
							"internalType": "bytes",
							"name": "data",
							"type": "bytes"
						}
					],
					"name": "getTxhash",
					"outputs": [
						{
							"internalType": "bytes32",
							"name": "",
							"type": "bytes32"
						}
					],
					"stateMutability": "view",
					"type": "function"
				},
				{
					"inputs": [],
					"name": "nonce",
					"outputs": [
						{
							"internalType": "uint256",
							"name": "",
							"type": "uint256"
						}
					],
					"stateMutability": "view",
					"type": "function"
				},
				{
					"inputs": [
						{
							"internalType": "address",
							"name": "_owner",
							"type": "address"
						}
					],
					"name": "ownerExist",
					"outputs": [
						{
							"internalType": "bool",
							"name": "",
							"type": "bool"
						}
					],
					"stateMutability": "view",
					"type": "function"
				},
				{
					"inputs": [],
					"name": "owners_num",
					"outputs": [
						{
							"internalType": "uint256",
							"name": "",
							"type": "uint256"
						}
					],
					"stateMutability": "view",
					"type": "function"
				},
				{
					"inputs": [
						{
							"internalType": "address",
							"name": "preowner",
							"type": "address"
						},
						{
							"internalType": "uint256",
							"name": "new_threshold",
							"type": "uint256"
						}
					],
					"name": "removeOwners",
					"outputs": [],
					"stateMutability": "nonpayable",
					"type": "function"
				},
				{
					"inputs": [
						{
							"internalType": "address",
							"name": "x",
							"type": "address"
						},
						{
							"internalType": "uint256",
							"name": "y",
							"type": "uint256"
						}
					],
					"name": "removeOwnersencode",
					"outputs": [
						{
							"internalType": "bytes",
							"name": "result",
							"type": "bytes"
						}
					],
					"stateMutability": "pure",
					"type": "function"
				},
				{
					"stateMutability": "payable",
					"type": "receive"
				}
			],
			"devdoc": {
				"kind": "dev",
				"methods": {},
				"version": 1
			},
			"evm": {
				"assembly": "    /* \"contracts/Try01/Simplewallet02.sol\":102:4387  contract Wallet is Manageowner{... */\n  mstore(0x40, 0x80)\n    /* \"contracts/Try01/Simplewallet02.sol\":393:529  constructor(... */\n  callvalue\n  dup1\n  iszero\n  tag_1\n  jumpi\n  0x00\n  dup1\n  revert\ntag_1:\n  pop\n  mload(0x40)\n  sub(codesize, bytecodeSize)\n  dup1\n  bytecodeSize\n  dup4\n  codecopy\n  dup2\n  dup2\n  add\n  0x40\n  mstore\n  dup2\n  add\n  swap1\n  tag_2\n  swap2\n  swap1\n  tag_3\n  jump\t// in\ntag_2:\n    /* \"contracts/Try01/Simplewallet02.sol\":486:521  _initialwallet(_owners, _threshold) */\n  tag_6\n    /* \"contracts/Try01/Simplewallet02.sol\":501:508  _owners */\n  dup3\n    /* \"contracts/Try01/Simplewallet02.sol\":510:520  _threshold */\n  dup3\n    /* \"contracts/Try01/Simplewallet02.sol\":486:500  _initialwallet */\n  shl(0x20, tag_7)\n    /* \"contracts/Try01/Simplewallet02.sol\":486:521  _initialwallet(_owners, _threshold) */\n  0x20\n  shr\n  jump\t// in\ntag_6:\n    /* \"contracts/Try01/Simplewallet02.sol\":393:529  constructor(... */\n  pop\n  pop\n    /* \"contracts/Try01/Simplewallet02.sol\":102:4387  contract Wallet is Manageowner{... */\n  jump(tag_8)\n    /* \"contracts/Try01/Manage.sol\":720:1623  function _initialwallet(address[] memory _owners,uint256 _threshold)internal {... */\ntag_7:\n    /* \"contracts/Try01/Manage.sol\":875:876  0 */\n  0x00\n    /* \"contracts/Try01/Manage.sol\":862:871  threshold */\n  sload(0x01)\n    /* \"contracts/Try01/Manage.sol\":862:876  threshold == 0 */\n  eq\n    /* \"contracts/Try01/Manage.sol\":854:888  require(threshold == 0, \"error01\") */\n  tag_10\n  jumpi\n  mload(0x40)\n  0x08c379a000000000000000000000000000000000000000000000000000000000\n  dup2\n  mstore\n  0x04\n  add\n  tag_11\n  swap1\n  tag_12\n  jump\t// in\ntag_11:\n  mload(0x40)\n  dup1\n  swap2\n  sub\n  swap1\n  revert\ntag_10:\n    /* \"contracts/Try01/Manage.sol\":970:977  _owners */\n  dup2\n    /* \"contracts/Try01/Manage.sol\":970:984  _owners.length */\n  mload\n    /* \"contracts/Try01/Manage.sol\":956:966  _threshold */\n  dup2\n    /* \"contracts/Try01/Manage.sol\":956:984  _threshold <= _owners.length */\n  gt\n  iszero\n    /* \"contracts/Try01/Manage.sol\":948:996  require(_threshold <= _owners.length, \"error02\") */\n  tag_13\n  jumpi\n  mload(0x40)\n  0x08c379a000000000000000000000000000000000000000000000000000000000\n  dup2\n  mstore\n  0x04\n  add\n  tag_14\n  swap1\n  tag_15\n  jump\t// in\ntag_14:\n  mload(0x40)\n  dup1\n  swap2\n  sub\n  swap1\n  revert\ntag_13:\n    /* \"contracts/Try01/Manage.sol\":1067:1068  1 */\n  0x01\n    /* \"contracts/Try01/Manage.sol\":1053:1063  _threshold */\n  dup2\n    /* \"contracts/Try01/Manage.sol\":1053:1068  _threshold >= 1 */\n  lt\n  iszero\n    /* \"contracts/Try01/Manage.sol\":1045:1080  require(_threshold >= 1, \"error03\") */\n  tag_16\n  jumpi\n  mload(0x40)\n  0x08c379a000000000000000000000000000000000000000000000000000000000\n  dup2\n  mstore\n  0x04\n  add\n  tag_17\n  swap1\n  tag_18\n  jump\t// in\ntag_17:\n  mload(0x40)\n  dup1\n  swap2\n  sub\n  swap1\n  revert\ntag_16:\n    /* \"contracts/Try01/Manage.sol\":1125:1145  address currentowner */\n  0x00\n    /* \"contracts/Try01/Manage.sol\":707:710  0x1 */\n  0x01\n    /* \"contracts/Try01/Manage.sol\":1125:1153  address currentowner = _HEAD */\n  swap1\n  pop\n    /* \"contracts/Try01/Manage.sol\":1169:1175  uint i */\n  0x00\n    /* \"contracts/Try01/Manage.sol\":1164:1504  for (uint i=0; i<_owners.length;i++)... */\ntag_19:\n    /* \"contracts/Try01/Manage.sol\":1181:1188  _owners */\n  dup4\n    /* \"contracts/Try01/Manage.sol\":1181:1195  _owners.length */\n  mload\n    /* \"contracts/Try01/Manage.sol\":1179:1180  i */\n  dup2\n    /* \"contracts/Try01/Manage.sol\":1179:1195  i<_owners.length */\n  lt\n    /* \"contracts/Try01/Manage.sol\":1164:1504  for (uint i=0; i<_owners.length;i++)... */\n  iszero\n  tag_20\n  jumpi\n    /* \"contracts/Try01/Manage.sol\":1225:1238  address owner */\n  0x00\n    /* \"contracts/Try01/Manage.sol\":1241:1248  _owners */\n  dup5\n    /* \"contracts/Try01/Manage.sol\":1249:1250  i */\n  dup3\n    /* \"contracts/Try01/Manage.sol\":1241:1251  _owners[i] */\n  dup2\n  mload\n  dup2\n  lt\n  tag_22\n  jumpi\n  tag_23\n  tag_24\n  jump\t// in\ntag_23:\ntag_22:\n  0x20\n  mul\n  0x20\n  add\n  add\n  mload\n    /* \"contracts/Try01/Manage.sol\":1225:1251  address owner = _owners[i] */\n  swap1\n  pop\n    /* \"contracts/Try01/Manage.sol\":1366:1367  0 */\n  0x00\n    /* \"contracts/Try01/Manage.sol\":1349:1368  owner != address(0) */\n  0xffffffffffffffffffffffffffffffffffffffff\n  and\n    /* \"contracts/Try01/Manage.sol\":1349:1354  owner */\n  dup2\n    /* \"contracts/Try01/Manage.sol\":1349:1368  owner != address(0) */\n  0xffffffffffffffffffffffffffffffffffffffff\n  and\n  eq\n  iszero\n    /* \"contracts/Try01/Manage.sol\":1349:1394  owner != address(0) && owner != address(this) */\n  dup1\n  iszero\n  tag_25\n  jumpi\n  pop\n    /* \"contracts/Try01/Manage.sol\":1389:1393  this */\n  address\n    /* \"contracts/Try01/Manage.sol\":1372:1394  owner != address(this) */\n  0xffffffffffffffffffffffffffffffffffffffff\n  and\n    /* \"contracts/Try01/Manage.sol\":1372:1377  owner */\n  dup2\n    /* \"contracts/Try01/Manage.sol\":1372:1394  owner != address(this) */\n  0xffffffffffffffffffffffffffffffffffffffff\n  and\n  eq\n  iszero\n    /* \"contracts/Try01/Manage.sol\":1349:1394  owner != address(0) && owner != address(this) */\ntag_25:\n    /* \"contracts/Try01/Manage.sol\":1349:1416  owner != address(0) && owner != address(this) && !ownerExist(owner) */\n  dup1\n  iszero\n  tag_26\n  jumpi\n  pop\n    /* \"contracts/Try01/Manage.sol\":1399:1416  ownerExist(owner) */\n  tag_27\n    /* \"contracts/Try01/Manage.sol\":1410:1415  owner */\n  dup2\n    /* \"contracts/Try01/Manage.sol\":1399:1409  ownerExist */\n  shl(0x20, tag_28)\n    /* \"contracts/Try01/Manage.sol\":1399:1416  ownerExist(owner) */\n  0x20\n  shr\n  jump\t// in\ntag_27:\n    /* \"contracts/Try01/Manage.sol\":1398:1416  !ownerExist(owner) */\n  iszero\n    /* \"contracts/Try01/Manage.sol\":1349:1416  owner != address(0) && owner != address(this) && !ownerExist(owner) */\ntag_26:\n    /* \"contracts/Try01/Manage.sol\":1341:1427  require(owner != address(0) && owner != address(this) && !ownerExist(owner),\"error04\") */\n  tag_29\n  jumpi\n  mload(0x40)\n  0x08c379a000000000000000000000000000000000000000000000000000000000\n  dup2\n  mstore\n  0x04\n  add\n  tag_30\n  swap1\n  tag_31\n  jump\t// in\ntag_30:\n  mload(0x40)\n  dup1\n  swap2\n  sub\n  swap1\n  revert\ntag_29:\n    /* \"contracts/Try01/Manage.sol\":1442:1457  addowner(owner) */\n  tag_32\n    /* \"contracts/Try01/Manage.sol\":1451:1456  owner */\n  dup2\n    /* \"contracts/Try01/Manage.sol\":1442:1450  addowner */\n  shl(0x20, tag_33)\n    /* \"contracts/Try01/Manage.sol\":1442:1457  addowner(owner) */\n  0x20\n  shr\n  jump\t// in\ntag_32:\n    /* \"contracts/Try01/Manage.sol\":1487:1492  owner */\n  dup1\n    /* \"contracts/Try01/Manage.sol\":1472:1492  currentowner = owner */\n  swap3\n  pop\n    /* \"contracts/Try01/Manage.sol\":1210:1504  {... */\n  pop\n    /* \"contracts/Try01/Manage.sol\":1196:1199  i++ */\n  dup1\n  dup1\n  tag_34\n  swap1\n  tag_35\n  jump\t// in\ntag_34:\n  swap2\n  pop\n  pop\n    /* \"contracts/Try01/Manage.sol\":1164:1504  for (uint i=0; i<_owners.length;i++)... */\n  jump(tag_19)\ntag_20:\n  pop\n    /* \"contracts/Try01/Manage.sol\":1557:1567  _threshold */\n  dup2\n    /* \"contracts/Try01/Manage.sol\":1545:1554  threshold */\n  0x01\n    /* \"contracts/Try01/Manage.sol\":1545:1567  threshold = _threshold */\n  dup2\n  swap1\n  sstore\n  pop\n    /* \"contracts/Try01/Manage.sol\":1591:1598  _owners */\n  dup3\n    /* \"contracts/Try01/Manage.sol\":1591:1605  _owners.length */\n  mload\n    /* \"contracts/Try01/Manage.sol\":1578:1588  owners_num */\n  0x00\n    /* \"contracts/Try01/Manage.sol\":1578:1605  owners_num = _owners.length */\n  dup2\n  swap1\n  sstore\n  pop\n    /* \"contracts/Try01/Manage.sol\":797:1623  {... */\n  pop\n    /* \"contracts/Try01/Manage.sol\":720:1623  function _initialwallet(address[] memory _owners,uint256 _threshold)internal {... */\n  pop\n  pop\n  jump\t// out\n    /* \"contracts/Try01/Manage.sol\":5502:5655  function ownerExist(address _owner)public view returns (bool){... */\ntag_28:\n    /* \"contracts/Try01/Manage.sol\":5558:5562  bool */\n  0x00\n    /* \"contracts/Try01/Manage.sol\":656:657  0 */\n  dup1\n    /* \"contracts/Try01/Manage.sol\":5582:5611  owners[_owner][_PRE] != _NULL */\n  0xffffffffffffffffffffffffffffffffffffffff\n  and\n    /* \"contracts/Try01/Manage.sol\":5582:5588  owners */\n  0x02\n    /* \"contracts/Try01/Manage.sol\":5582:5596  owners[_owner] */\n  0x00\n    /* \"contracts/Try01/Manage.sol\":5589:5595  _owner */\n  dup5\n    /* \"contracts/Try01/Manage.sol\":5582:5596  owners[_owner] */\n  0xffffffffffffffffffffffffffffffffffffffff\n  and\n  0xffffffffffffffffffffffffffffffffffffffff\n  and\n  dup2\n  mstore\n  0x20\n  add\n  swap1\n  dup2\n  mstore\n  0x20\n  add\n  0x00\n  keccak256\n    /* \"contracts/Try01/Manage.sol\":5582:5602  owners[_owner][_PRE] */\n  0x00\n    /* \"contracts/Try01/Manage.sol\":515:520  false */\n  dup1\n    /* \"contracts/Try01/Manage.sol\":5582:5602  owners[_owner][_PRE] */\n  iszero\n  iszero\n  iszero\n  iszero\n  dup2\n  mstore\n  0x20\n  add\n  swap1\n  dup2\n  mstore\n  0x20\n  add\n  0x00\n  keccak256\n  0x00\n  swap1\n  sload\n  swap1\n  0x0100\n  exp\n  swap1\n  div\n  0xffffffffffffffffffffffffffffffffffffffff\n  and\n    /* \"contracts/Try01/Manage.sol\":5582:5611  owners[_owner][_PRE] != _NULL */\n  0xffffffffffffffffffffffffffffffffffffffff\n  and\n  eq\n  iszero\n    /* \"contracts/Try01/Manage.sol\":5582:5645  owners[_owner][_PRE] != _NULL || owners[_owner][_NEXT] != _NULL */\n  dup1\n  tag_37\n  jumpi\n  pop\n    /* \"contracts/Try01/Manage.sol\":656:657  0 */\n  0x00\n    /* \"contracts/Try01/Manage.sol\":5615:5645  owners[_owner][_NEXT] != _NULL */\n  0xffffffffffffffffffffffffffffffffffffffff\n  and\n    /* \"contracts/Try01/Manage.sol\":5615:5621  owners */\n  0x02\n    /* \"contracts/Try01/Manage.sol\":5615:5629  owners[_owner] */\n  0x00\n    /* \"contracts/Try01/Manage.sol\":5622:5628  _owner */\n  dup5\n    /* \"contracts/Try01/Manage.sol\":5615:5629  owners[_owner] */\n  0xffffffffffffffffffffffffffffffffffffffff\n  and\n  0xffffffffffffffffffffffffffffffffffffffff\n  and\n  dup2\n  mstore\n  0x20\n  add\n  swap1\n  dup2\n  mstore\n  0x20\n  add\n  0x00\n  keccak256\n    /* \"contracts/Try01/Manage.sol\":5615:5636  owners[_owner][_NEXT] */\n  0x00\n    /* \"contracts/Try01/Manage.sol\":558:562  true */\n  0x01\n    /* \"contracts/Try01/Manage.sol\":5615:5636  owners[_owner][_NEXT] */\n  iszero\n  iszero\n  iszero\n  iszero\n  dup2\n  mstore\n  0x20\n  add\n  swap1\n  dup2\n  mstore\n  0x20\n  add\n  0x00\n  keccak256\n  0x00\n  swap1\n  sload\n  swap1\n  0x0100\n  exp\n  swap1\n  div\n  0xffffffffffffffffffffffffffffffffffffffff\n  and\n    /* \"contracts/Try01/Manage.sol\":5615:5645  owners[_owner][_NEXT] != _NULL */\n  0xffffffffffffffffffffffffffffffffffffffff\n  and\n  eq\n  iszero\n    /* \"contracts/Try01/Manage.sol\":5582:5645  owners[_owner][_PRE] != _NULL || owners[_owner][_NEXT] != _NULL */\ntag_37:\n    /* \"contracts/Try01/Manage.sol\":5574:5646  return (owners[_owner][_PRE] != _NULL || owners[_owner][_NEXT] != _NULL) */\n  swap1\n  pop\n    /* \"contracts/Try01/Manage.sol\":5502:5655  function ownerExist(address _owner)public view returns (bool){... */\n  swap2\n  swap1\n  pop\n  jump\t// out\n    /* \"contracts/Try01/Manage.sol\":3845:4839  function addowner(address owner)private {... */\ntag_33:\n    /* \"contracts/Try01/Manage.sol\":3921:3922  0 */\n  0x00\n    /* \"contracts/Try01/Manage.sol\":3904:3923  owner != address(0) */\n  0xffffffffffffffffffffffffffffffffffffffff\n  and\n    /* \"contracts/Try01/Manage.sol\":3904:3909  owner */\n  dup2\n    /* \"contracts/Try01/Manage.sol\":3904:3923  owner != address(0) */\n  0xffffffffffffffffffffffffffffffffffffffff\n  and\n  eq\n  iszero\n    /* \"contracts/Try01/Manage.sol\":3904:3949  owner != address(0) && owner != address(this) */\n  dup1\n  iszero\n  tag_39\n  jumpi\n  pop\n    /* \"contracts/Try01/Manage.sol\":3944:3948  this */\n  address\n    /* \"contracts/Try01/Manage.sol\":3927:3949  owner != address(this) */\n  0xffffffffffffffffffffffffffffffffffffffff\n  and\n    /* \"contracts/Try01/Manage.sol\":3927:3932  owner */\n  dup2\n    /* \"contracts/Try01/Manage.sol\":3927:3949  owner != address(this) */\n  0xffffffffffffffffffffffffffffffffffffffff\n  and\n  eq\n  iszero\n    /* \"contracts/Try01/Manage.sol\":3904:3949  owner != address(0) && owner != address(this) */\ntag_39:\n    /* \"contracts/Try01/Manage.sol\":3904:3971  owner != address(0) && owner != address(this) && !ownerExist(owner) */\n  dup1\n  iszero\n  tag_40\n  jumpi\n  pop\n    /* \"contracts/Try01/Manage.sol\":3954:3971  ownerExist(owner) */\n  tag_41\n    /* \"contracts/Try01/Manage.sol\":3965:3970  owner */\n  dup2\n    /* \"contracts/Try01/Manage.sol\":3954:3964  ownerExist */\n  shl(0x20, tag_28)\n    /* \"contracts/Try01/Manage.sol\":3954:3971  ownerExist(owner) */\n  0x20\n  shr\n  jump\t// in\ntag_41:\n    /* \"contracts/Try01/Manage.sol\":3953:3971  !ownerExist(owner) */\n  iszero\n    /* \"contracts/Try01/Manage.sol\":3904:3971  owner != address(0) && owner != address(this) && !ownerExist(owner) */\ntag_40:\n    /* \"contracts/Try01/Manage.sol\":3896:3982  require(owner != address(0) && owner != address(this) && !ownerExist(owner),\"error04\") */\n  tag_42\n  jumpi\n  mload(0x40)\n  0x08c379a000000000000000000000000000000000000000000000000000000000\n  dup2\n  mstore\n  0x04\n  add\n  tag_43\n  swap1\n  tag_31\n  jump\t// in\ntag_43:\n  mload(0x40)\n  dup1\n  swap2\n  sub\n  swap1\n  revert\ntag_42:\n    /* \"contracts/Try01/Manage.sol\":3993:4013  address currentowner */\n  0x00\n    /* \"contracts/Try01/Manage.sol\":707:710  0x1 */\n  0x01\n    /* \"contracts/Try01/Manage.sol\":3993:4021  address currentowner = _HEAD */\n  swap1\n  pop\n    /* \"contracts/Try01/Manage.sol\":4032:4049  address nextowner */\n  0x00\n    /* \"contracts/Try01/Manage.sol\":4075:4106  getAdjacent(currentowner,_NEXT) */\n  tag_44\n    /* \"contracts/Try01/Manage.sol\":4087:4099  currentowner */\n  dup3\n    /* \"contracts/Try01/Manage.sol\":558:562  true */\n  0x01\n    /* \"contracts/Try01/Manage.sol\":4075:4086  getAdjacent */\n  shl(0x20, tag_45)\n    /* \"contracts/Try01/Manage.sol\":4075:4106  getAdjacent(currentowner,_NEXT) */\n  0x20\n  shr\n  jump\t// in\ntag_44:\n    /* \"contracts/Try01/Manage.sol\":4060:4106  (,nextowner) = getAdjacent(currentowner,_NEXT) */\n  swap1\n  pop\n  dup1\n  swap2\n  pop\n  pop\n    /* \"contracts/Try01/Manage.sol\":4117:4739  while (nextowner != _NULL){... */\ntag_46:\n    /* \"contracts/Try01/Manage.sol\":656:657  0 */\n  0x00\n    /* \"contracts/Try01/Manage.sol\":4124:4142  nextowner != _NULL */\n  0xffffffffffffffffffffffffffffffffffffffff\n  and\n    /* \"contracts/Try01/Manage.sol\":4124:4133  nextowner */\n  dup2\n    /* \"contracts/Try01/Manage.sol\":4124:4142  nextowner != _NULL */\n  0xffffffffffffffffffffffffffffffffffffffff\n  and\n  eq\n    /* \"contracts/Try01/Manage.sol\":4117:4739  while (nextowner != _NULL){... */\n  tag_47\n  jumpi\n    /* \"contracts/Try01/Manage.sol\":4178:4183  owner */\n  dup3\n    /* \"contracts/Try01/Manage.sol\":4166:4183  nextowner > owner */\n  0xffffffffffffffffffffffffffffffffffffffff\n  and\n    /* \"contracts/Try01/Manage.sol\":4166:4175  nextowner */\n  dup2\n    /* \"contracts/Try01/Manage.sol\":4166:4183  nextowner > owner */\n  0xffffffffffffffffffffffffffffffffffffffff\n  and\n  gt\n    /* \"contracts/Try01/Manage.sol\":4166:4207  nextowner > owner && currentowner < owner */\n  dup1\n  iszero\n  tag_48\n  jumpi\n  pop\n    /* \"contracts/Try01/Manage.sol\":4202:4207  owner */\n  dup3\n    /* \"contracts/Try01/Manage.sol\":4187:4207  currentowner < owner */\n  0xffffffffffffffffffffffffffffffffffffffff\n  and\n    /* \"contracts/Try01/Manage.sol\":4187:4199  currentowner */\n  dup3\n    /* \"contracts/Try01/Manage.sol\":4187:4207  currentowner < owner */\n  0xffffffffffffffffffffffffffffffffffffffff\n  and\n  lt\n    /* \"contracts/Try01/Manage.sol\":4166:4207  nextowner > owner && currentowner < owner */\ntag_48:\n    /* \"contracts/Try01/Manage.sol\":4162:4724  if (nextowner > owner && currentowner < owner){... */\n  iszero\n  tag_49\n  jumpi\n    /* \"contracts/Try01/Manage.sol\":4231:4266  _insert(currentowner, owner, _NEXT) */\n  tag_50\n    /* \"contracts/Try01/Manage.sol\":4239:4251  currentowner */\n  dup3\n    /* \"contracts/Try01/Manage.sol\":4253:4258  owner */\n  dup5\n    /* \"contracts/Try01/Manage.sol\":558:562  true */\n  0x01\n    /* \"contracts/Try01/Manage.sol\":4231:4238  _insert */\n  shl(0x20, tag_51)\n    /* \"contracts/Try01/Manage.sol\":4231:4266  _insert(currentowner, owner, _NEXT) */\n  0x20\n  shr\n  jump\t// in\ntag_50:\n    /* \"contracts/Try01/Manage.sol\":4289:4294  break */\n  jump(tag_47)\n    /* \"contracts/Try01/Manage.sol\":4162:4724  if (nextowner > owner && currentowner < owner){... */\ntag_49:\n    /* \"contracts/Try01/Manage.sol\":4376:4381  owner */\n  dup3\n    /* \"contracts/Try01/Manage.sol\":4364:4381  nextowner > owner */\n  0xffffffffffffffffffffffffffffffffffffffff\n  and\n    /* \"contracts/Try01/Manage.sol\":4364:4373  nextowner */\n  dup2\n    /* \"contracts/Try01/Manage.sol\":4364:4381  nextowner > owner */\n  0xffffffffffffffffffffffffffffffffffffffff\n  and\n  gt\n    /* \"contracts/Try01/Manage.sol\":4360:4705  if (nextowner > owner){... */\n  iszero\n  tag_53\n  jumpi\n    /* \"contracts/Try01/Manage.sol\":4421:4433  currentowner */\n  dup2\n    /* \"contracts/Try01/Manage.sol\":4409:4433  nextowner = currentowner */\n  swap1\n  pop\n    /* \"contracts/Try01/Manage.sol\":4478:4509  getAdjacent(currentowner, _PRE) */\n  tag_54\n    /* \"contracts/Try01/Manage.sol\":4490:4502  currentowner */\n  dup3\n    /* \"contracts/Try01/Manage.sol\":515:520  false */\n  0x00\n    /* \"contracts/Try01/Manage.sol\":4478:4489  getAdjacent */\n  shl(0x20, tag_45)\n    /* \"contracts/Try01/Manage.sol\":4478:4509  getAdjacent(currentowner, _PRE) */\n  0x20\n  shr\n  jump\t// in\ntag_54:\n    /* \"contracts/Try01/Manage.sol\":4460:4509  (,currentowner) = getAdjacent(currentowner, _PRE) */\n  swap1\n  pop\n  dup1\n  swap3\n  pop\n  pop\n    /* \"contracts/Try01/Manage.sol\":4360:4705  if (nextowner > owner){... */\n  jump(tag_55)\ntag_53:\n    /* \"contracts/Try01/Manage.sol\":4601:4610  nextowner */\n  dup1\n    /* \"contracts/Try01/Manage.sol\":4586:4610  currentowner = nextowner */\n  swap2\n  pop\n    /* \"contracts/Try01/Manage.sol\":4652:4681  getAdjacent(nextowner, _NEXT) */\n  tag_56\n    /* \"contracts/Try01/Manage.sol\":4664:4673  nextowner */\n  dup2\n    /* \"contracts/Try01/Manage.sol\":558:562  true */\n  0x01\n    /* \"contracts/Try01/Manage.sol\":4652:4663  getAdjacent */\n  shl(0x20, tag_45)\n    /* \"contracts/Try01/Manage.sol\":4652:4681  getAdjacent(nextowner, _NEXT) */\n  0x20\n  shr\n  jump\t// in\ntag_56:\n    /* \"contracts/Try01/Manage.sol\":4637:4681  (,nextowner) = getAdjacent(nextowner, _NEXT) */\n  swap1\n  pop\n  dup1\n  swap2\n  pop\n  pop\n    /* \"contracts/Try01/Manage.sol\":4360:4705  if (nextowner > owner){... */\ntag_55:\n    /* \"contracts/Try01/Manage.sol\":4117:4739  while (nextowner != _NULL){... */\n  jump(tag_46)\ntag_47:\n    /* \"contracts/Try01/Manage.sol\":656:657  0 */\n  0x00\n    /* \"contracts/Try01/Manage.sol\":4753:4771  nextowner == _NULL */\n  0xffffffffffffffffffffffffffffffffffffffff\n  and\n    /* \"contracts/Try01/Manage.sol\":4753:4762  nextowner */\n  dup2\n    /* \"contracts/Try01/Manage.sol\":4753:4771  nextowner == _NULL */\n  0xffffffffffffffffffffffffffffffffffffffff\n  and\n  sub\n    /* \"contracts/Try01/Manage.sol\":4749:4808  if (nextowner == _NULL) _insert(currentowner, owner, _NEXT) */\n  tag_57\n  jumpi\n    /* \"contracts/Try01/Manage.sol\":4773:4808  _insert(currentowner, owner, _NEXT) */\n  tag_58\n    /* \"contracts/Try01/Manage.sol\":4781:4793  currentowner */\n  dup3\n    /* \"contracts/Try01/Manage.sol\":4795:4800  owner */\n  dup5\n    /* \"contracts/Try01/Manage.sol\":558:562  true */\n  0x01\n    /* \"contracts/Try01/Manage.sol\":4773:4780  _insert */\n  shl(0x20, tag_51)\n    /* \"contracts/Try01/Manage.sol\":4773:4808  _insert(currentowner, owner, _NEXT) */\n  0x20\n  shr\n  jump\t// in\ntag_58:\n    /* \"contracts/Try01/Manage.sol\":4749:4808  if (nextowner == _NULL) _insert(currentowner, owner, _NEXT) */\ntag_57:\n    /* \"contracts/Try01/Manage.sol\":4819:4829  owners_num */\n  0x00\n  dup1\n    /* \"contracts/Try01/Manage.sol\":4819:4831  owners_num++ */\n  dup2\n  sload\n  dup1\n  swap3\n  swap2\n  swap1\n  tag_59\n  swap1\n  tag_35\n  jump\t// in\ntag_59:\n  swap2\n  swap1\n  pop\n  sstore\n  pop\n    /* \"contracts/Try01/Manage.sol\":3885:4839  {... */\n  pop\n  pop\n    /* \"contracts/Try01/Manage.sol\":3845:4839  function addowner(address owner)private {... */\n  pop\n  jump\t// out\n    /* \"contracts/Try01/Manage.sol\":5921:6174  function getAdjacent(address owner, bool _direction)internal view returns (bool, address) {... */\ntag_45:\n    /* \"contracts/Try01/Manage.sol\":5996:6000  bool */\n  0x00\n    /* \"contracts/Try01/Manage.sol\":6002:6009  address */\n  dup1\n    /* \"contracts/Try01/Manage.sol\":6027:6044  ownerExist(owner) */\n  tag_61\n    /* \"contracts/Try01/Manage.sol\":6038:6043  owner */\n  dup5\n    /* \"contracts/Try01/Manage.sol\":6027:6037  ownerExist */\n  shl(0x20, tag_28)\n    /* \"contracts/Try01/Manage.sol\":6027:6044  ownerExist(owner) */\n  0x20\n  shr\n  jump\t// in\ntag_61:\n    /* \"contracts/Try01/Manage.sol\":6022:6167  if (!ownerExist(owner)) {... */\n  tag_62\n  jumpi\n    /* \"contracts/Try01/Manage.sol\":6069:6074  false */\n  0x00\n    /* \"contracts/Try01/Manage.sol\":656:657  0 */\n  dup1\n    /* \"contracts/Try01/Manage.sol\":6061:6082  return (false, _NULL) */\n  swap2\n  pop\n  swap2\n  pop\n  jump(tag_60)\n    /* \"contracts/Try01/Manage.sol\":6022:6167  if (!ownerExist(owner)) {... */\ntag_62:\n    /* \"contracts/Try01/Manage.sol\":6123:6127  true */\n  0x01\n    /* \"contracts/Try01/Manage.sol\":6129:6135  owners */\n  0x02\n    /* \"contracts/Try01/Manage.sol\":6129:6142  owners[owner] */\n  0x00\n    /* \"contracts/Try01/Manage.sol\":6136:6141  owner */\n  dup7\n    /* \"contracts/Try01/Manage.sol\":6129:6142  owners[owner] */\n  0xffffffffffffffffffffffffffffffffffffffff\n  and\n  0xffffffffffffffffffffffffffffffffffffffff\n  and\n  dup2\n  mstore\n  0x20\n  add\n  swap1\n  dup2\n  mstore\n  0x20\n  add\n  0x00\n  keccak256\n    /* \"contracts/Try01/Manage.sol\":6129:6154  owners[owner][_direction] */\n  0x00\n    /* \"contracts/Try01/Manage.sol\":6143:6153  _direction */\n  dup6\n    /* \"contracts/Try01/Manage.sol\":6129:6154  owners[owner][_direction] */\n  iszero\n  iszero\n  iszero\n  iszero\n  dup2\n  mstore\n  0x20\n  add\n  swap1\n  dup2\n  mstore\n  0x20\n  add\n  0x00\n  keccak256\n  0x00\n  swap1\n  sload\n  swap1\n  0x0100\n  exp\n  swap1\n  div\n  0xffffffffffffffffffffffffffffffffffffffff\n  and\n    /* \"contracts/Try01/Manage.sol\":6115:6155  return (true, owners[owner][_direction]) */\n  swap2\n  pop\n  swap2\n  pop\n    /* \"contracts/Try01/Manage.sol\":5921:6174  function getAdjacent(address owner, bool _direction)internal view returns (bool, address) {... */\ntag_60:\n  swap3\n  pop\n  swap3\n  swap1\n  pop\n  jump\t// out\n    /* \"contracts/Try01/Manage.sol\":5203:5451  function _insert( address _owner, address _newowner, bool _direction)internal {... */\ntag_51:\n    /* \"contracts/Try01/Manage.sol\":5302:5311  address c */\n  0x00\n    /* \"contracts/Try01/Manage.sol\":5314:5320  owners */\n  0x02\n    /* \"contracts/Try01/Manage.sol\":5314:5328  owners[_owner] */\n  0x00\n    /* \"contracts/Try01/Manage.sol\":5321:5327  _owner */\n  dup6\n    /* \"contracts/Try01/Manage.sol\":5314:5328  owners[_owner] */\n  0xffffffffffffffffffffffffffffffffffffffff\n  and\n  0xffffffffffffffffffffffffffffffffffffffff\n  and\n  dup2\n  mstore\n  0x20\n  add\n  swap1\n  dup2\n  mstore\n  0x20\n  add\n  0x00\n  keccak256\n    /* \"contracts/Try01/Manage.sol\":5314:5340  owners[_owner][_direction] */\n  0x00\n    /* \"contracts/Try01/Manage.sol\":5329:5339  _direction */\n  dup4\n    /* \"contracts/Try01/Manage.sol\":5314:5340  owners[_owner][_direction] */\n  iszero\n  iszero\n  iszero\n  iszero\n  dup2\n  mstore\n  0x20\n  add\n  swap1\n  dup2\n  mstore\n  0x20\n  add\n  0x00\n  keccak256\n  0x00\n  swap1\n  sload\n  swap1\n  0x0100\n  exp\n  swap1\n  div\n  0xffffffffffffffffffffffffffffffffffffffff\n  and\n    /* \"contracts/Try01/Manage.sol\":5302:5340  address c = owners[_owner][_direction] */\n  swap1\n  pop\n    /* \"contracts/Try01/Manage.sol\":5351:5393  _createLink(_owner, _newowner, _direction) */\n  tag_65\n    /* \"contracts/Try01/Manage.sol\":5363:5369  _owner */\n  dup5\n    /* \"contracts/Try01/Manage.sol\":5371:5380  _newowner */\n  dup5\n    /* \"contracts/Try01/Manage.sol\":5382:5392  _direction */\n  dup5\n    /* \"contracts/Try01/Manage.sol\":5351:5362  _createLink */\n  shl(0x20, tag_66)\n    /* \"contracts/Try01/Manage.sol\":5351:5393  _createLink(_owner, _newowner, _direction) */\n  0x20\n  shr\n  jump\t// in\ntag_65:\n    /* \"contracts/Try01/Manage.sol\":5404:5441  _createLink(_newowner, c, _direction) */\n  tag_67\n    /* \"contracts/Try01/Manage.sol\":5416:5425  _newowner */\n  dup4\n    /* \"contracts/Try01/Manage.sol\":5427:5428  c */\n  dup3\n    /* \"contracts/Try01/Manage.sol\":5430:5440  _direction */\n  dup5\n    /* \"contracts/Try01/Manage.sol\":5404:5415  _createLink */\n  shl(0x20, tag_66)\n    /* \"contracts/Try01/Manage.sol\":5404:5441  _createLink(_newowner, c, _direction) */\n  0x20\n  shr\n  jump\t// in\ntag_67:\n    /* \"contracts/Try01/Manage.sol\":5281:5451  {... */\n  pop\n    /* \"contracts/Try01/Manage.sol\":5203:5451  function _insert( address _owner, address _newowner, bool _direction)internal {... */\n  pop\n  pop\n  pop\n  jump\t// out\n    /* \"contracts/Try01/Manage.sol\":5685:5885  function _createLink(address _preowner, address _nextowner, bool _direction)internal {... */\ntag_66:\n    /* \"contracts/Try01/Manage.sol\":5815:5824  _preowner */\n  dup3\n    /* \"contracts/Try01/Manage.sol\":5781:5787  owners */\n  0x02\n    /* \"contracts/Try01/Manage.sol\":5781:5799  owners[_nextowner] */\n  0x00\n    /* \"contracts/Try01/Manage.sol\":5788:5798  _nextowner */\n  dup5\n    /* \"contracts/Try01/Manage.sol\":5781:5799  owners[_nextowner] */\n  0xffffffffffffffffffffffffffffffffffffffff\n  and\n  0xffffffffffffffffffffffffffffffffffffffff\n  and\n  dup2\n  mstore\n  0x20\n  add\n  swap1\n  dup2\n  mstore\n  0x20\n  add\n  0x00\n  keccak256\n    /* \"contracts/Try01/Manage.sol\":5781:5812  owners[_nextowner][!_direction] */\n  0x00\n    /* \"contracts/Try01/Manage.sol\":5801:5811  _direction */\n  dup4\n    /* \"contracts/Try01/Manage.sol\":5800:5811  !_direction */\n  iszero\n    /* \"contracts/Try01/Manage.sol\":5781:5812  owners[_nextowner][!_direction] */\n  iszero\n  iszero\n  iszero\n  iszero\n  dup2\n  mstore\n  0x20\n  add\n  swap1\n  dup2\n  mstore\n  0x20\n  add\n  0x00\n  keccak256\n  0x00\n    /* \"contracts/Try01/Manage.sol\":5781:5824  owners[_nextowner][!_direction] = _preowner */\n  0x0100\n  exp\n  dup2\n  sload\n  dup2\n  0xffffffffffffffffffffffffffffffffffffffff\n  mul\n  not\n  and\n  swap1\n  dup4\n  0xffffffffffffffffffffffffffffffffffffffff\n  and\n  mul\n  or\n  swap1\n  sstore\n  pop\n    /* \"contracts/Try01/Manage.sol\":5867:5877  _nextowner */\n  dup2\n    /* \"contracts/Try01/Manage.sol\":5835:5841  owners */\n  0x02\n    /* \"contracts/Try01/Manage.sol\":5835:5852  owners[_preowner] */\n  0x00\n    /* \"contracts/Try01/Manage.sol\":5842:5851  _preowner */\n  dup6\n    /* \"contracts/Try01/Manage.sol\":5835:5852  owners[_preowner] */\n  0xffffffffffffffffffffffffffffffffffffffff\n  and\n  0xffffffffffffffffffffffffffffffffffffffff\n  and\n  dup2\n  mstore\n  0x20\n  add\n  swap1\n  dup2\n  mstore\n  0x20\n  add\n  0x00\n  keccak256\n    /* \"contracts/Try01/Manage.sol\":5835:5864  owners[_preowner][_direction] */\n  0x00\n    /* \"contracts/Try01/Manage.sol\":5853:5863  _direction */\n  dup4\n    /* \"contracts/Try01/Manage.sol\":5835:5864  owners[_preowner][_direction] */\n  iszero\n  iszero\n  iszero\n  iszero\n  dup2\n  mstore\n  0x20\n  add\n  swap1\n  dup2\n  mstore\n  0x20\n  add\n  0x00\n  keccak256\n  0x00\n    /* \"contracts/Try01/Manage.sol\":5835:5877  owners[_preowner][_direction] = _nextowner */\n  0x0100\n  exp\n  dup2\n  sload\n  dup2\n  0xffffffffffffffffffffffffffffffffffffffff\n  mul\n  not\n  and\n  swap1\n  dup4\n  0xffffffffffffffffffffffffffffffffffffffff\n  and\n  mul\n  or\n  swap1\n  sstore\n  pop\n    /* \"contracts/Try01/Manage.sol\":5685:5885  function _createLink(address _preowner, address _nextowner, bool _direction)internal {... */\n  pop\n  pop\n  pop\n  jump\t// out\n    /* \"#utility.yul\":7:82   */\ntag_69:\n    /* \"#utility.yul\":40:46   */\n  0x00\n    /* \"#utility.yul\":73:75   */\n  0x40\n    /* \"#utility.yul\":67:76   */\n  mload\n    /* \"#utility.yul\":57:76   */\n  swap1\n  pop\n    /* \"#utility.yul\":7:82   */\n  swap1\n  jump\t// out\n    /* \"#utility.yul\":88:205   */\ntag_70:\n    /* \"#utility.yul\":197:198   */\n  0x00\n    /* \"#utility.yul\":194:195   */\n  dup1\n    /* \"#utility.yul\":187:199   */\n  revert\n    /* \"#utility.yul\":211:328   */\ntag_71:\n    /* \"#utility.yul\":320:321   */\n  0x00\n    /* \"#utility.yul\":317:318   */\n  dup1\n    /* \"#utility.yul\":310:322   */\n  revert\n    /* \"#utility.yul\":334:451   */\ntag_72:\n    /* \"#utility.yul\":443:444   */\n  0x00\n    /* \"#utility.yul\":440:441   */\n  dup1\n    /* \"#utility.yul\":433:445   */\n  revert\n    /* \"#utility.yul\":457:559   */\ntag_73:\n    /* \"#utility.yul\":498:504   */\n  0x00\n    /* \"#utility.yul\":549:551   */\n  0x1f\n    /* \"#utility.yul\":545:552   */\n  not\n    /* \"#utility.yul\":540:542   */\n  0x1f\n    /* \"#utility.yul\":533:538   */\n  dup4\n    /* \"#utility.yul\":529:543   */\n  add\n    /* \"#utility.yul\":525:553   */\n  and\n    /* \"#utility.yul\":515:553   */\n  swap1\n  pop\n    /* \"#utility.yul\":457:559   */\n  swap2\n  swap1\n  pop\n  jump\t// out\n    /* \"#utility.yul\":565:745   */\ntag_74:\n    /* \"#utility.yul\":613:690   */\n  0x4e487b7100000000000000000000000000000000000000000000000000000000\n    /* \"#utility.yul\":610:611   */\n  0x00\n    /* \"#utility.yul\":603:691   */\n  mstore\n    /* \"#utility.yul\":710:714   */\n  0x41\n    /* \"#utility.yul\":707:708   */\n  0x04\n    /* \"#utility.yul\":700:715   */\n  mstore\n    /* \"#utility.yul\":734:738   */\n  0x24\n    /* \"#utility.yul\":731:732   */\n  0x00\n    /* \"#utility.yul\":724:739   */\n  revert\n    /* \"#utility.yul\":751:1032   */\ntag_75:\n    /* \"#utility.yul\":834:861   */\n  tag_106\n    /* \"#utility.yul\":856:860   */\n  dup3\n    /* \"#utility.yul\":834:861   */\n  tag_73\n  jump\t// in\ntag_106:\n    /* \"#utility.yul\":826:832   */\n  dup2\n    /* \"#utility.yul\":822:862   */\n  add\n    /* \"#utility.yul\":964:970   */\n  dup2\n    /* \"#utility.yul\":952:962   */\n  dup2\n    /* \"#utility.yul\":949:971   */\n  lt\n    /* \"#utility.yul\":928:946   */\n  0xffffffffffffffff\n    /* \"#utility.yul\":916:926   */\n  dup3\n    /* \"#utility.yul\":913:947   */\n  gt\n    /* \"#utility.yul\":910:972   */\n  or\n    /* \"#utility.yul\":907:995   */\n  iszero\n  tag_107\n  jumpi\n    /* \"#utility.yul\":975:993   */\n  tag_108\n  tag_74\n  jump\t// in\ntag_108:\n    /* \"#utility.yul\":907:995   */\ntag_107:\n    /* \"#utility.yul\":1015:1025   */\n  dup1\n    /* \"#utility.yul\":1011:1013   */\n  0x40\n    /* \"#utility.yul\":1004:1026   */\n  mstore\n    /* \"#utility.yul\":794:1032   */\n  pop\n    /* \"#utility.yul\":751:1032   */\n  pop\n  pop\n  jump\t// out\n    /* \"#utility.yul\":1038:1167   */\ntag_76:\n    /* \"#utility.yul\":1072:1078   */\n  0x00\n    /* \"#utility.yul\":1099:1119   */\n  tag_110\n  tag_69\n  jump\t// in\ntag_110:\n    /* \"#utility.yul\":1089:1119   */\n  swap1\n  pop\n    /* \"#utility.yul\":1128:1161   */\n  tag_111\n    /* \"#utility.yul\":1156:1160   */\n  dup3\n    /* \"#utility.yul\":1148:1154   */\n  dup3\n    /* \"#utility.yul\":1128:1161   */\n  tag_75\n  jump\t// in\ntag_111:\n    /* \"#utility.yul\":1038:1167   */\n  swap2\n  swap1\n  pop\n  jump\t// out\n    /* \"#utility.yul\":1173:1484   */\ntag_77:\n    /* \"#utility.yul\":1250:1254   */\n  0x00\n    /* \"#utility.yul\":1340:1358   */\n  0xffffffffffffffff\n    /* \"#utility.yul\":1332:1338   */\n  dup3\n    /* \"#utility.yul\":1329:1359   */\n  gt\n    /* \"#utility.yul\":1326:1382   */\n  iszero\n  tag_113\n  jumpi\n    /* \"#utility.yul\":1362:1380   */\n  tag_114\n  tag_74\n  jump\t// in\ntag_114:\n    /* \"#utility.yul\":1326:1382   */\ntag_113:\n    /* \"#utility.yul\":1412:1416   */\n  0x20\n    /* \"#utility.yul\":1404:1410   */\n  dup3\n    /* \"#utility.yul\":1400:1417   */\n  mul\n    /* \"#utility.yul\":1392:1417   */\n  swap1\n  pop\n    /* \"#utility.yul\":1472:1476   */\n  0x20\n    /* \"#utility.yul\":1466:1470   */\n  dup2\n    /* \"#utility.yul\":1462:1477   */\n  add\n    /* \"#utility.yul\":1454:1477   */\n  swap1\n  pop\n    /* \"#utility.yul\":1173:1484   */\n  swap2\n  swap1\n  pop\n  jump\t// out\n    /* \"#utility.yul\":1490:1607   */\ntag_78:\n    /* \"#utility.yul\":1599:1600   */\n  0x00\n    /* \"#utility.yul\":1596:1597   */\n  dup1\n    /* \"#utility.yul\":1589:1601   */\n  revert\n    /* \"#utility.yul\":1613:1739   */\ntag_79:\n    /* \"#utility.yul\":1650:1657   */\n  0x00\n    /* \"#utility.yul\":1690:1732   */\n  0xffffffffffffffffffffffffffffffffffffffff\n    /* \"#utility.yul\":1683:1688   */\n  dup3\n    /* \"#utility.yul\":1679:1733   */\n  and\n    /* \"#utility.yul\":1668:1733   */\n  swap1\n  pop\n    /* \"#utility.yul\":1613:1739   */\n  swap2\n  swap1\n  pop\n  jump\t// out\n    /* \"#utility.yul\":1745:1841   */\ntag_80:\n    /* \"#utility.yul\":1782:1789   */\n  0x00\n    /* \"#utility.yul\":1811:1835   */\n  tag_118\n    /* \"#utility.yul\":1829:1834   */\n  dup3\n    /* \"#utility.yul\":1811:1835   */\n  tag_79\n  jump\t// in\ntag_118:\n    /* \"#utility.yul\":1800:1835   */\n  swap1\n  pop\n    /* \"#utility.yul\":1745:1841   */\n  swap2\n  swap1\n  pop\n  jump\t// out\n    /* \"#utility.yul\":1847:1969   */\ntag_81:\n    /* \"#utility.yul\":1920:1944   */\n  tag_120\n    /* \"#utility.yul\":1938:1943   */\n  dup2\n    /* \"#utility.yul\":1920:1944   */\n  tag_80\n  jump\t// in\ntag_120:\n    /* \"#utility.yul\":1913:1918   */\n  dup2\n    /* \"#utility.yul\":1910:1945   */\n  eq\n    /* \"#utility.yul\":1900:1963   */\n  tag_121\n  jumpi\n    /* \"#utility.yul\":1959:1960   */\n  0x00\n    /* \"#utility.yul\":1956:1957   */\n  dup1\n    /* \"#utility.yul\":1949:1961   */\n  revert\n    /* \"#utility.yul\":1900:1963   */\ntag_121:\n    /* \"#utility.yul\":1847:1969   */\n  pop\n  jump\t// out\n    /* \"#utility.yul\":1975:2118   */\ntag_82:\n    /* \"#utility.yul\":2032:2037   */\n  0x00\n    /* \"#utility.yul\":2063:2069   */\n  dup2\n    /* \"#utility.yul\":2057:2070   */\n  mload\n    /* \"#utility.yul\":2048:2070   */\n  swap1\n  pop\n    /* \"#utility.yul\":2079:2112   */\n  tag_123\n    /* \"#utility.yul\":2106:2111   */\n  dup2\n    /* \"#utility.yul\":2079:2112   */\n  tag_81\n  jump\t// in\ntag_123:\n    /* \"#utility.yul\":1975:2118   */\n  swap3\n  swap2\n  pop\n  pop\n  jump\t// out\n    /* \"#utility.yul\":2141:2873   */\ntag_83:\n    /* \"#utility.yul\":2248:2253   */\n  0x00\n    /* \"#utility.yul\":2273:2354   */\n  tag_125\n    /* \"#utility.yul\":2289:2353   */\n  tag_126\n    /* \"#utility.yul\":2346:2352   */\n  dup5\n    /* \"#utility.yul\":2289:2353   */\n  tag_77\n  jump\t// in\ntag_126:\n    /* \"#utility.yul\":2273:2354   */\n  tag_76\n  jump\t// in\ntag_125:\n    /* \"#utility.yul\":2264:2354   */\n  swap1\n  pop\n    /* \"#utility.yul\":2374:2379   */\n  dup1\n    /* \"#utility.yul\":2403:2409   */\n  dup4\n    /* \"#utility.yul\":2396:2401   */\n  dup3\n    /* \"#utility.yul\":2389:2410   */\n  mstore\n    /* \"#utility.yul\":2437:2441   */\n  0x20\n    /* \"#utility.yul\":2430:2435   */\n  dup3\n    /* \"#utility.yul\":2426:2442   */\n  add\n    /* \"#utility.yul\":2419:2442   */\n  swap1\n  pop\n    /* \"#utility.yul\":2490:2494   */\n  0x20\n    /* \"#utility.yul\":2482:2488   */\n  dup5\n    /* \"#utility.yul\":2478:2495   */\n  mul\n    /* \"#utility.yul\":2470:2476   */\n  dup4\n    /* \"#utility.yul\":2466:2496   */\n  add\n    /* \"#utility.yul\":2519:2522   */\n  dup6\n    /* \"#utility.yul\":2511:2517   */\n  dup2\n    /* \"#utility.yul\":2508:2523   */\n  gt\n    /* \"#utility.yul\":2505:2627   */\n  iszero\n  tag_127\n  jumpi\n    /* \"#utility.yul\":2538:2617   */\n  tag_128\n  tag_78\n  jump\t// in\ntag_128:\n    /* \"#utility.yul\":2505:2627   */\ntag_127:\n    /* \"#utility.yul\":2653:2659   */\n  dup4\n    /* \"#utility.yul\":2636:2867   */\ntag_129:\n    /* \"#utility.yul\":2670:2676   */\n  dup2\n    /* \"#utility.yul\":2665:2668   */\n  dup2\n    /* \"#utility.yul\":2662:2677   */\n  lt\n    /* \"#utility.yul\":2636:2867   */\n  iszero\n  tag_131\n  jumpi\n    /* \"#utility.yul\":2745:2748   */\n  dup1\n    /* \"#utility.yul\":2774:2822   */\n  tag_132\n    /* \"#utility.yul\":2818:2821   */\n  dup9\n    /* \"#utility.yul\":2806:2816   */\n  dup3\n    /* \"#utility.yul\":2774:2822   */\n  tag_82\n  jump\t// in\ntag_132:\n    /* \"#utility.yul\":2769:2772   */\n  dup5\n    /* \"#utility.yul\":2762:2823   */\n  mstore\n    /* \"#utility.yul\":2852:2856   */\n  0x20\n    /* \"#utility.yul\":2847:2850   */\n  dup5\n    /* \"#utility.yul\":2843:2857   */\n  add\n    /* \"#utility.yul\":2836:2857   */\n  swap4\n  pop\n    /* \"#utility.yul\":2712:2867   */\n  pop\n    /* \"#utility.yul\":2696:2700   */\n  0x20\n    /* \"#utility.yul\":2691:2694   */\n  dup2\n    /* \"#utility.yul\":2687:2701   */\n  add\n    /* \"#utility.yul\":2680:2701   */\n  swap1\n  pop\n    /* \"#utility.yul\":2636:2867   */\n  jump(tag_129)\ntag_131:\n    /* \"#utility.yul\":2640:2661   */\n  pop\n    /* \"#utility.yul\":2254:2873   */\n  pop\n  pop\n    /* \"#utility.yul\":2141:2873   */\n  swap4\n  swap3\n  pop\n  pop\n  pop\n  jump\t// out\n    /* \"#utility.yul\":2896:3281   */\ntag_84:\n    /* \"#utility.yul\":2978:2983   */\n  0x00\n    /* \"#utility.yul\":3027:3030   */\n  dup3\n    /* \"#utility.yul\":3020:3024   */\n  0x1f\n    /* \"#utility.yul\":3012:3018   */\n  dup4\n    /* \"#utility.yul\":3008:3025   */\n  add\n    /* \"#utility.yul\":3004:3031   */\n  slt\n    /* \"#utility.yul\":2994:3116   */\n  tag_134\n  jumpi\n    /* \"#utility.yul\":3035:3114   */\n  tag_135\n  tag_72\n  jump\t// in\ntag_135:\n    /* \"#utility.yul\":2994:3116   */\ntag_134:\n    /* \"#utility.yul\":3145:3151   */\n  dup2\n    /* \"#utility.yul\":3139:3152   */\n  mload\n    /* \"#utility.yul\":3170:3275   */\n  tag_136\n    /* \"#utility.yul\":3271:3274   */\n  dup5\n    /* \"#utility.yul\":3263:3269   */\n  dup3\n    /* \"#utility.yul\":3256:3260   */\n  0x20\n    /* \"#utility.yul\":3248:3254   */\n  dup7\n    /* \"#utility.yul\":3244:3261   */\n  add\n    /* \"#utility.yul\":3170:3275   */\n  tag_83\n  jump\t// in\ntag_136:\n    /* \"#utility.yul\":3161:3275   */\n  swap2\n  pop\n    /* \"#utility.yul\":2984:3281   */\n  pop\n    /* \"#utility.yul\":2896:3281   */\n  swap3\n  swap2\n  pop\n  pop\n  jump\t// out\n    /* \"#utility.yul\":3287:3364   */\ntag_85:\n    /* \"#utility.yul\":3324:3331   */\n  0x00\n    /* \"#utility.yul\":3353:3358   */\n  dup2\n    /* \"#utility.yul\":3342:3358   */\n  swap1\n  pop\n    /* \"#utility.yul\":3287:3364   */\n  swap2\n  swap1\n  pop\n  jump\t// out\n    /* \"#utility.yul\":3370:3492   */\ntag_86:\n    /* \"#utility.yul\":3443:3467   */\n  tag_139\n    /* \"#utility.yul\":3461:3466   */\n  dup2\n    /* \"#utility.yul\":3443:3467   */\n  tag_85\n  jump\t// in\ntag_139:\n    /* \"#utility.yul\":3436:3441   */\n  dup2\n    /* \"#utility.yul\":3433:3468   */\n  eq\n    /* \"#utility.yul\":3423:3486   */\n  tag_140\n  jumpi\n    /* \"#utility.yul\":3482:3483   */\n  0x00\n    /* \"#utility.yul\":3479:3480   */\n  dup1\n    /* \"#utility.yul\":3472:3484   */\n  revert\n    /* \"#utility.yul\":3423:3486   */\ntag_140:\n    /* \"#utility.yul\":3370:3492   */\n  pop\n  jump\t// out\n    /* \"#utility.yul\":3498:3641   */\ntag_87:\n    /* \"#utility.yul\":3555:3560   */\n  0x00\n    /* \"#utility.yul\":3586:3592   */\n  dup2\n    /* \"#utility.yul\":3580:3593   */\n  mload\n    /* \"#utility.yul\":3571:3593   */\n  swap1\n  pop\n    /* \"#utility.yul\":3602:3635   */\n  tag_142\n    /* \"#utility.yul\":3629:3634   */\n  dup2\n    /* \"#utility.yul\":3602:3635   */\n  tag_86\n  jump\t// in\ntag_142:\n    /* \"#utility.yul\":3498:3641   */\n  swap3\n  swap2\n  pop\n  pop\n  jump\t// out\n    /* \"#utility.yul\":3647:4357   */\ntag_3:\n    /* \"#utility.yul\":3751:3757   */\n  0x00\n    /* \"#utility.yul\":3759:3765   */\n  dup1\n    /* \"#utility.yul\":3808:3810   */\n  0x40\n    /* \"#utility.yul\":3796:3805   */\n  dup4\n    /* \"#utility.yul\":3787:3794   */\n  dup6\n    /* \"#utility.yul\":3783:3806   */\n  sub\n    /* \"#utility.yul\":3779:3811   */\n  slt\n    /* \"#utility.yul\":3776:3895   */\n  iszero\n  tag_144\n  jumpi\n    /* \"#utility.yul\":3814:3893   */\n  tag_145\n  tag_70\n  jump\t// in\ntag_145:\n    /* \"#utility.yul\":3776:3895   */\ntag_144:\n    /* \"#utility.yul\":3955:3956   */\n  0x00\n    /* \"#utility.yul\":3944:3953   */\n  dup4\n    /* \"#utility.yul\":3940:3957   */\n  add\n    /* \"#utility.yul\":3934:3958   */\n  mload\n    /* \"#utility.yul\":3985:4003   */\n  0xffffffffffffffff\n    /* \"#utility.yul\":3977:3983   */\n  dup2\n    /* \"#utility.yul\":3974:4004   */\n  gt\n    /* \"#utility.yul\":3971:4088   */\n  iszero\n  tag_146\n  jumpi\n    /* \"#utility.yul\":4007:4086   */\n  tag_147\n  tag_71\n  jump\t// in\ntag_147:\n    /* \"#utility.yul\":3971:4088   */\ntag_146:\n    /* \"#utility.yul\":4112:4201   */\n  tag_148\n    /* \"#utility.yul\":4193:4200   */\n  dup6\n    /* \"#utility.yul\":4184:4190   */\n  dup3\n    /* \"#utility.yul\":4173:4182   */\n  dup7\n    /* \"#utility.yul\":4169:4191   */\n  add\n    /* \"#utility.yul\":4112:4201   */\n  tag_84\n  jump\t// in\ntag_148:\n    /* \"#utility.yul\":4102:4201   */\n  swap3\n  pop\n    /* \"#utility.yul\":3905:4211   */\n  pop\n    /* \"#utility.yul\":4250:4252   */\n  0x20\n    /* \"#utility.yul\":4276:4340   */\n  tag_149\n    /* \"#utility.yul\":4332:4339   */\n  dup6\n    /* \"#utility.yul\":4323:4329   */\n  dup3\n    /* \"#utility.yul\":4312:4321   */\n  dup7\n    /* \"#utility.yul\":4308:4330   */\n  add\n    /* \"#utility.yul\":4276:4340   */\n  tag_87\n  jump\t// in\ntag_149:\n    /* \"#utility.yul\":4266:4340   */\n  swap2\n  pop\n    /* \"#utility.yul\":4221:4350   */\n  pop\n    /* \"#utility.yul\":3647:4357   */\n  swap3\n  pop\n  swap3\n  swap1\n  pop\n  jump\t// out\n    /* \"#utility.yul\":4363:4532   */\ntag_88:\n    /* \"#utility.yul\":4447:4458   */\n  0x00\n    /* \"#utility.yul\":4481:4487   */\n  dup3\n    /* \"#utility.yul\":4476:4479   */\n  dup3\n    /* \"#utility.yul\":4469:4488   */\n  mstore\n    /* \"#utility.yul\":4521:4525   */\n  0x20\n    /* \"#utility.yul\":4516:4519   */\n  dup3\n    /* \"#utility.yul\":4512:4526   */\n  add\n    /* \"#utility.yul\":4497:4526   */\n  swap1\n  pop\n    /* \"#utility.yul\":4363:4532   */\n  swap3\n  swap2\n  pop\n  pop\n  jump\t// out\n    /* \"#utility.yul\":4538:4695   */\ntag_89:\n    /* \"#utility.yul\":4678:4687   */\n  0x6572726f72303100000000000000000000000000000000000000000000000000\n    /* \"#utility.yul\":4674:4675   */\n  0x00\n    /* \"#utility.yul\":4666:4672   */\n  dup3\n    /* \"#utility.yul\":4662:4676   */\n  add\n    /* \"#utility.yul\":4655:4688   */\n  mstore\n    /* \"#utility.yul\":4538:4695   */\n  pop\n  jump\t// out\n    /* \"#utility.yul\":4701:5066   */\ntag_90:\n    /* \"#utility.yul\":4843:4846   */\n  0x00\n    /* \"#utility.yul\":4864:4930   */\n  tag_153\n    /* \"#utility.yul\":4928:4929   */\n  0x07\n    /* \"#utility.yul\":4923:4926   */\n  dup4\n    /* \"#utility.yul\":4864:4930   */\n  tag_88\n  jump\t// in\ntag_153:\n    /* \"#utility.yul\":4857:4930   */\n  swap2\n  pop\n    /* \"#utility.yul\":4939:5032   */\n  tag_154\n    /* \"#utility.yul\":5028:5031   */\n  dup3\n    /* \"#utility.yul\":4939:5032   */\n  tag_89\n  jump\t// in\ntag_154:\n    /* \"#utility.yul\":5057:5059   */\n  0x20\n    /* \"#utility.yul\":5052:5055   */\n  dup3\n    /* \"#utility.yul\":5048:5060   */\n  add\n    /* \"#utility.yul\":5041:5060   */\n  swap1\n  pop\n    /* \"#utility.yul\":4701:5066   */\n  swap2\n  swap1\n  pop\n  jump\t// out\n    /* \"#utility.yul\":5072:5491   */\ntag_12:\n    /* \"#utility.yul\":5238:5242   */\n  0x00\n    /* \"#utility.yul\":5276:5278   */\n  0x20\n    /* \"#utility.yul\":5265:5274   */\n  dup3\n    /* \"#utility.yul\":5261:5279   */\n  add\n    /* \"#utility.yul\":5253:5279   */\n  swap1\n  pop\n    /* \"#utility.yul\":5325:5334   */\n  dup2\n    /* \"#utility.yul\":5319:5323   */\n  dup2\n    /* \"#utility.yul\":5315:5335   */\n  sub\n    /* \"#utility.yul\":5311:5312   */\n  0x00\n    /* \"#utility.yul\":5300:5309   */\n  dup4\n    /* \"#utility.yul\":5296:5313   */\n  add\n    /* \"#utility.yul\":5289:5336   */\n  mstore\n    /* \"#utility.yul\":5353:5484   */\n  tag_156\n    /* \"#utility.yul\":5479:5483   */\n  dup2\n    /* \"#utility.yul\":5353:5484   */\n  tag_90\n  jump\t// in\ntag_156:\n    /* \"#utility.yul\":5345:5484   */\n  swap1\n  pop\n    /* \"#utility.yul\":5072:5491   */\n  swap2\n  swap1\n  pop\n  jump\t// out\n    /* \"#utility.yul\":5497:5654   */\ntag_91:\n    /* \"#utility.yul\":5637:5646   */\n  0x6572726f72303200000000000000000000000000000000000000000000000000\n    /* \"#utility.yul\":5633:5634   */\n  0x00\n    /* \"#utility.yul\":5625:5631   */\n  dup3\n    /* \"#utility.yul\":5621:5635   */\n  add\n    /* \"#utility.yul\":5614:5647   */\n  mstore\n    /* \"#utility.yul\":5497:5654   */\n  pop\n  jump\t// out\n    /* \"#utility.yul\":5660:6025   */\ntag_92:\n    /* \"#utility.yul\":5802:5805   */\n  0x00\n    /* \"#utility.yul\":5823:5889   */\n  tag_159\n    /* \"#utility.yul\":5887:5888   */\n  0x07\n    /* \"#utility.yul\":5882:5885   */\n  dup4\n    /* \"#utility.yul\":5823:5889   */\n  tag_88\n  jump\t// in\ntag_159:\n    /* \"#utility.yul\":5816:5889   */\n  swap2\n  pop\n    /* \"#utility.yul\":5898:5991   */\n  tag_160\n    /* \"#utility.yul\":5987:5990   */\n  dup3\n    /* \"#utility.yul\":5898:5991   */\n  tag_91\n  jump\t// in\ntag_160:\n    /* \"#utility.yul\":6016:6018   */\n  0x20\n    /* \"#utility.yul\":6011:6014   */\n  dup3\n    /* \"#utility.yul\":6007:6019   */\n  add\n    /* \"#utility.yul\":6000:6019   */\n  swap1\n  pop\n    /* \"#utility.yul\":5660:6025   */\n  swap2\n  swap1\n  pop\n  jump\t// out\n    /* \"#utility.yul\":6031:6450   */\ntag_15:\n    /* \"#utility.yul\":6197:6201   */\n  0x00\n    /* \"#utility.yul\":6235:6237   */\n  0x20\n    /* \"#utility.yul\":6224:6233   */\n  dup3\n    /* \"#utility.yul\":6220:6238   */\n  add\n    /* \"#utility.yul\":6212:6238   */\n  swap1\n  pop\n    /* \"#utility.yul\":6284:6293   */\n  dup2\n    /* \"#utility.yul\":6278:6282   */\n  dup2\n    /* \"#utility.yul\":6274:6294   */\n  sub\n    /* \"#utility.yul\":6270:6271   */\n  0x00\n    /* \"#utility.yul\":6259:6268   */\n  dup4\n    /* \"#utility.yul\":6255:6272   */\n  add\n    /* \"#utility.yul\":6248:6295   */\n  mstore\n    /* \"#utility.yul\":6312:6443   */\n  tag_162\n    /* \"#utility.yul\":6438:6442   */\n  dup2\n    /* \"#utility.yul\":6312:6443   */\n  tag_92\n  jump\t// in\ntag_162:\n    /* \"#utility.yul\":6304:6443   */\n  swap1\n  pop\n    /* \"#utility.yul\":6031:6450   */\n  swap2\n  swap1\n  pop\n  jump\t// out\n    /* \"#utility.yul\":6456:6613   */\ntag_93:\n    /* \"#utility.yul\":6596:6605   */\n  0x6572726f72303300000000000000000000000000000000000000000000000000\n    /* \"#utility.yul\":6592:6593   */\n  0x00\n    /* \"#utility.yul\":6584:6590   */\n  dup3\n    /* \"#utility.yul\":6580:6594   */\n  add\n    /* \"#utility.yul\":6573:6606   */\n  mstore\n    /* \"#utility.yul\":6456:6613   */\n  pop\n  jump\t// out\n    /* \"#utility.yul\":6619:6984   */\ntag_94:\n    /* \"#utility.yul\":6761:6764   */\n  0x00\n    /* \"#utility.yul\":6782:6848   */\n  tag_165\n    /* \"#utility.yul\":6846:6847   */\n  0x07\n    /* \"#utility.yul\":6841:6844   */\n  dup4\n    /* \"#utility.yul\":6782:6848   */\n  tag_88\n  jump\t// in\ntag_165:\n    /* \"#utility.yul\":6775:6848   */\n  swap2\n  pop\n    /* \"#utility.yul\":6857:6950   */\n  tag_166\n    /* \"#utility.yul\":6946:6949   */\n  dup3\n    /* \"#utility.yul\":6857:6950   */\n  tag_93\n  jump\t// in\ntag_166:\n    /* \"#utility.yul\":6975:6977   */\n  0x20\n    /* \"#utility.yul\":6970:6973   */\n  dup3\n    /* \"#utility.yul\":6966:6978   */\n  add\n    /* \"#utility.yul\":6959:6978   */\n  swap1\n  pop\n    /* \"#utility.yul\":6619:6984   */\n  swap2\n  swap1\n  pop\n  jump\t// out\n    /* \"#utility.yul\":6990:7409   */\ntag_18:\n    /* \"#utility.yul\":7156:7160   */\n  0x00\n    /* \"#utility.yul\":7194:7196   */\n  0x20\n    /* \"#utility.yul\":7183:7192   */\n  dup3\n    /* \"#utility.yul\":7179:7197   */\n  add\n    /* \"#utility.yul\":7171:7197   */\n  swap1\n  pop\n    /* \"#utility.yul\":7243:7252   */\n  dup2\n    /* \"#utility.yul\":7237:7241   */\n  dup2\n    /* \"#utility.yul\":7233:7253   */\n  sub\n    /* \"#utility.yul\":7229:7230   */\n  0x00\n    /* \"#utility.yul\":7218:7227   */\n  dup4\n    /* \"#utility.yul\":7214:7231   */\n  add\n    /* \"#utility.yul\":7207:7254   */\n  mstore\n    /* \"#utility.yul\":7271:7402   */\n  tag_168\n    /* \"#utility.yul\":7397:7401   */\n  dup2\n    /* \"#utility.yul\":7271:7402   */\n  tag_94\n  jump\t// in\ntag_168:\n    /* \"#utility.yul\":7263:7402   */\n  swap1\n  pop\n    /* \"#utility.yul\":6990:7409   */\n  swap2\n  swap1\n  pop\n  jump\t// out\n    /* \"#utility.yul\":7415:7595   */\ntag_24:\n    /* \"#utility.yul\":7463:7540   */\n  0x4e487b7100000000000000000000000000000000000000000000000000000000\n    /* \"#utility.yul\":7460:7461   */\n  0x00\n    /* \"#utility.yul\":7453:7541   */\n  mstore\n    /* \"#utility.yul\":7560:7564   */\n  0x32\n    /* \"#utility.yul\":7557:7558   */\n  0x04\n    /* \"#utility.yul\":7550:7565   */\n  mstore\n    /* \"#utility.yul\":7584:7588   */\n  0x24\n    /* \"#utility.yul\":7581:7582   */\n  0x00\n    /* \"#utility.yul\":7574:7589   */\n  revert\n    /* \"#utility.yul\":7601:7758   */\ntag_95:\n    /* \"#utility.yul\":7741:7750   */\n  0x6572726f72303400000000000000000000000000000000000000000000000000\n    /* \"#utility.yul\":7737:7738   */\n  0x00\n    /* \"#utility.yul\":7729:7735   */\n  dup3\n    /* \"#utility.yul\":7725:7739   */\n  add\n    /* \"#utility.yul\":7718:7751   */\n  mstore\n    /* \"#utility.yul\":7601:7758   */\n  pop\n  jump\t// out\n    /* \"#utility.yul\":7764:8129   */\ntag_96:\n    /* \"#utility.yul\":7906:7909   */\n  0x00\n    /* \"#utility.yul\":7927:7993   */\n  tag_172\n    /* \"#utility.yul\":7991:7992   */\n  0x07\n    /* \"#utility.yul\":7986:7989   */\n  dup4\n    /* \"#utility.yul\":7927:7993   */\n  tag_88\n  jump\t// in\ntag_172:\n    /* \"#utility.yul\":7920:7993   */\n  swap2\n  pop\n    /* \"#utility.yul\":8002:8095   */\n  tag_173\n    /* \"#utility.yul\":8091:8094   */\n  dup3\n    /* \"#utility.yul\":8002:8095   */\n  tag_95\n  jump\t// in\ntag_173:\n    /* \"#utility.yul\":8120:8122   */\n  0x20\n    /* \"#utility.yul\":8115:8118   */\n  dup3\n    /* \"#utility.yul\":8111:8123   */\n  add\n    /* \"#utility.yul\":8104:8123   */\n  swap1\n  pop\n    /* \"#utility.yul\":7764:8129   */\n  swap2\n  swap1\n  pop\n  jump\t// out\n    /* \"#utility.yul\":8135:8554   */\ntag_31:\n    /* \"#utility.yul\":8301:8305   */\n  0x00\n    /* \"#utility.yul\":8339:8341   */\n  0x20\n    /* \"#utility.yul\":8328:8337   */\n  dup3\n    /* \"#utility.yul\":8324:8342   */\n  add\n    /* \"#utility.yul\":8316:8342   */\n  swap1\n  pop\n    /* \"#utility.yul\":8388:8397   */\n  dup2\n    /* \"#utility.yul\":8382:8386   */\n  dup2\n    /* \"#utility.yul\":8378:8398   */\n  sub\n    /* \"#utility.yul\":8374:8375   */\n  0x00\n    /* \"#utility.yul\":8363:8372   */\n  dup4\n    /* \"#utility.yul\":8359:8376   */\n  add\n    /* \"#utility.yul\":8352:8399   */\n  mstore\n    /* \"#utility.yul\":8416:8547   */\n  tag_175\n    /* \"#utility.yul\":8542:8546   */\n  dup2\n    /* \"#utility.yul\":8416:8547   */\n  tag_96\n  jump\t// in\ntag_175:\n    /* \"#utility.yul\":8408:8547   */\n  swap1\n  pop\n    /* \"#utility.yul\":8135:8554   */\n  swap2\n  swap1\n  pop\n  jump\t// out\n    /* \"#utility.yul\":8560:8740   */\ntag_97:\n    /* \"#utility.yul\":8608:8685   */\n  0x4e487b7100000000000000000000000000000000000000000000000000000000\n    /* \"#utility.yul\":8605:8606   */\n  0x00\n    /* \"#utility.yul\":8598:8686   */\n  mstore\n    /* \"#utility.yul\":8705:8709   */\n  0x11\n    /* \"#utility.yul\":8702:8703   */\n  0x04\n    /* \"#utility.yul\":8695:8710   */\n  mstore\n    /* \"#utility.yul\":8729:8733   */\n  0x24\n    /* \"#utility.yul\":8726:8727   */\n  0x00\n    /* \"#utility.yul\":8719:8734   */\n  revert\n    /* \"#utility.yul\":8746:8979   */\ntag_35:\n    /* \"#utility.yul\":8785:8788   */\n  0x00\n    /* \"#utility.yul\":8808:8832   */\n  tag_178\n    /* \"#utility.yul\":8826:8831   */\n  dup3\n    /* \"#utility.yul\":8808:8832   */\n  tag_85\n  jump\t// in\ntag_178:\n    /* \"#utility.yul\":8799:8832   */\n  swap2\n  pop\n    /* \"#utility.yul\":8854:8920   */\n  0xffffffffffffffffffffffffffffffffffffffffffffffffffffffffffffffff\n    /* \"#utility.yul\":8847:8852   */\n  dup3\n    /* \"#utility.yul\":8844:8921   */\n  sub\n    /* \"#utility.yul\":8841:8944   */\n  tag_179\n  jumpi\n    /* \"#utility.yul\":8924:8942   */\n  tag_180\n  tag_97\n  jump\t// in\ntag_180:\n    /* \"#utility.yul\":8841:8944   */\ntag_179:\n    /* \"#utility.yul\":8971:8972   */\n  0x01\n    /* \"#utility.yul\":8964:8969   */\n  dup3\n    /* \"#utility.yul\":8960:8973   */\n  add\n    /* \"#utility.yul\":8953:8973   */\n  swap1\n  pop\n    /* \"#utility.yul\":8746:8979   */\n  swap2\n  swap1\n  pop\n  jump\t// out\n    /* \"contracts/Try01/Simplewallet02.sol\":102:4387  contract Wallet is Manageowner{... */\ntag_8:\n  dataSize(sub_0)\n  dup1\n  dataOffset(sub_0)\n  0x00\n  codecopy\n  0x00\n  return\nstop\n\nsub_0: assembly {\n        /* \"contracts/Try01/Simplewallet02.sol\":102:4387  contract Wallet is Manageowner{... */\n      mstore(0x40, 0x80)\n      jumpi(tag_1, lt(calldatasize, 0x04))\n      shr(0xe0, calldataload(0x00))\n      dup1\n      0x81244e5d\n      gt\n      tag_16\n      jumpi\n      dup1\n      0xaffed0e0\n      gt\n      tag_17\n      jumpi\n      dup1\n      0xaffed0e0\n      eq\n      tag_12\n      jumpi\n      dup1\n      0xc0f0b3f1\n      eq\n      tag_13\n      jumpi\n      dup1\n      0xef11783c\n      eq\n      tag_14\n      jumpi\n      dup1\n      0xff87578c\n      eq\n      tag_15\n      jumpi\n      jump(tag_2)\n    tag_17:\n      dup1\n      0x81244e5d\n      eq\n      tag_9\n      jumpi\n      dup1\n      0x831c9e2e\n      eq\n      tag_10\n      jumpi\n      dup1\n      0x8b30486c\n      eq\n      tag_11\n      jumpi\n      jump(tag_2)\n    tag_16:\n      dup1\n      0x029c81e3\n      eq\n      tag_3\n      jumpi\n      dup1\n      0x0c3dfc1a\n      eq\n      tag_4\n      jumpi\n      dup1\n      0x0fce747a\n      eq\n      tag_5\n      jumpi\n      dup1\n      0x54910298\n      eq\n      tag_6\n      jumpi\n      dup1\n      0x6876a95e\n      eq\n      tag_7\n      jumpi\n      dup1\n      0x694e80c3\n      eq\n      tag_8\n      jumpi\n      jump(tag_2)\n    tag_1:\n      jumpi(tag_2, calldatasize)\n        /* \"contracts/Try01/Simplewallet02.sol\":4252:4273  Receiveeth(msg.value) */\n      0x1776003212b2028854792a50b4eff933707f4a7576de0678b9f21b4d6c99dc28\n        /* \"contracts/Try01/Simplewallet02.sol\":4263:4272  msg.value */\n      callvalue\n        /* \"contracts/Try01/Simplewallet02.sol\":4252:4273  Receiveeth(msg.value) */\n      mload(0x40)\n      tag_20\n      swap2\n      swap1\n      tag_21\n      jump\t// in\n    tag_20:\n      mload(0x40)\n      dup1\n      swap2\n      sub\n      swap1\n      log1\n        /* \"contracts/Try01/Simplewallet02.sol\":102:4387  contract Wallet is Manageowner{... */\n      stop\n    tag_2:\n        /* \"contracts/Try01/Simplewallet02.sol\":4333:4366  Callfallback(msg.value, msg.data) */\n      0x54e5fbadefe8e4e5345e8c6a9ce1017e52802fd305c8d69255f2fb1ddacebf36\n        /* \"contracts/Try01/Simplewallet02.sol\":4346:4355  msg.value */\n      callvalue\n        /* \"contracts/Try01/Simplewallet02.sol\":4357:4365  msg.data */\n      0x00\n      calldatasize\n        /* \"contracts/Try01/Simplewallet02.sol\":4333:4366  Callfallback(msg.value, msg.data) */\n      mload(0x40)\n      tag_24\n      swap4\n      swap3\n      swap2\n      swap1\n      tag_25\n      jump\t// in\n    tag_24:\n      mload(0x40)\n      dup1\n      swap2\n      sub\n      swap1\n      log1\n        /* \"contracts/Try01/Simplewallet02.sol\":102:4387  contract Wallet is Manageowner{... */\n      stop\n        /* \"contracts/Try01/Manage.sol\":3404:3807  function checkOwners()public view returns(address[] memory){... */\n    tag_3:\n      callvalue\n      dup1\n      iszero\n      tag_26\n      jumpi\n      0x00\n      dup1\n      revert\n    tag_26:\n      pop\n      tag_27\n      tag_28\n      jump\t// in\n    tag_27:\n      mload(0x40)\n      tag_29\n      swap2\n      swap1\n      tag_30\n      jump\t// in\n    tag_29:\n      mload(0x40)\n      dup1\n      swap2\n      sub\n      swap1\n      return\n        /* \"contracts/Try01/Manage.sol\":260:285  uint256 public owners_num */\n    tag_4:\n      callvalue\n      dup1\n      iszero\n      tag_31\n      jumpi\n      0x00\n      dup1\n      revert\n    tag_31:\n      pop\n      tag_32\n      tag_33\n      jump\t// in\n    tag_32:\n      mload(0x40)\n      tag_34\n      swap2\n      swap1\n      tag_21\n      jump\t// in\n    tag_34:\n      mload(0x40)\n      dup1\n      swap2\n      sub\n      swap1\n      return\n        /* \"contracts/Try01/Simplewallet02.sol\":567:1457  function exertransact(... */\n    tag_5:\n      tag_35\n      0x04\n      dup1\n      calldatasize\n      sub\n      dup2\n      add\n      swap1\n      tag_36\n      swap2\n      swap1\n      tag_37\n      jump\t// in\n    tag_36:\n      tag_38\n      jump\t// in\n    tag_35:\n      mload(0x40)\n      tag_39\n      swap2\n      swap1\n      tag_40\n      jump\t// in\n    tag_39:\n      mload(0x40)\n      dup1\n      swap2\n      sub\n      swap1\n      return\n        /* \"contracts/Try01/Manage.sol\":6940:7161  function removeOwnersencode(address x, uint256 y) public pure returns(bytes memory result) {... */\n    tag_6:\n      callvalue\n      dup1\n      iszero\n      tag_41\n      jumpi\n      0x00\n      dup1\n      revert\n    tag_41:\n      pop\n      tag_42\n      0x04\n      dup1\n      calldatasize\n      sub\n      dup2\n      add\n      swap1\n      tag_43\n      swap2\n      swap1\n      tag_44\n      jump\t// in\n    tag_43:\n      tag_45\n      jump\t// in\n    tag_42:\n      mload(0x40)\n      tag_46\n      swap2\n      swap1\n      tag_47\n      jump\t// in\n    tag_46:\n      mload(0x40)\n      dup1\n      swap2\n      sub\n      swap1\n      return\n        /* \"contracts/Try01/Manage.sol\":6434:6640  function changeThresholdencode(uint256 new_threshold) public pure returns(bytes memory result) {... */\n    tag_7:\n      callvalue\n      dup1\n      iszero\n      tag_48\n      jumpi\n      0x00\n      dup1\n      revert\n    tag_48:\n      pop\n      tag_49\n      0x04\n      dup1\n      calldatasize\n      sub\n      dup2\n      add\n      swap1\n      tag_50\n      swap2\n      swap1\n      tag_51\n      jump\t// in\n    tag_50:\n      tag_52\n      jump\t// in\n    tag_49:\n      mload(0x40)\n      tag_53\n      swap2\n      swap1\n      tag_47\n      jump\t// in\n    tag_53:\n      mload(0x40)\n      dup1\n      swap2\n      sub\n      swap1\n      return\n        /* \"contracts/Try01/Manage.sol\":2902:3242  function changeThreshold(uint256 new_threshold)public signed{... */\n    tag_8:\n      callvalue\n      dup1\n      iszero\n      tag_54\n      jumpi\n      0x00\n      dup1\n      revert\n    tag_54:\n      pop\n      tag_55\n      0x04\n      dup1\n      calldatasize\n      sub\n      dup2\n      add\n      swap1\n      tag_56\n      swap2\n      swap1\n      tag_51\n      jump\t// in\n    tag_56:\n      tag_57\n      jump\t// in\n    tag_55:\n      stop\n        /* \"contracts/Try01/Manage.sol\":3277:3365  function checkThreshold()public view returns(uint256){... */\n    tag_9:\n      callvalue\n      dup1\n      iszero\n      tag_58\n      jumpi\n      0x00\n      dup1\n      revert\n    tag_58:\n      pop\n      tag_59\n      tag_60\n      jump\t// in\n    tag_59:\n      mload(0x40)\n      tag_61\n      swap2\n      swap1\n      tag_21\n      jump\t// in\n    tag_61:\n      mload(0x40)\n      dup1\n      swap2\n      sub\n      swap1\n      return\n        /* \"contracts/Try01/Simplewallet02.sol\":1484:1792  function checkSignature(bytes32 datatxhash, bytes memory signatures)public view {... */\n    tag_10:\n      callvalue\n      dup1\n      iszero\n      tag_62\n      jumpi\n      0x00\n      dup1\n      revert\n    tag_62:\n      pop\n      tag_63\n      0x04\n      dup1\n      calldatasize\n      sub\n      dup2\n      add\n      swap1\n      tag_64\n      swap2\n      swap1\n      tag_65\n      jump\t// in\n    tag_64:\n      tag_66\n      jump\t// in\n    tag_63:\n      stop\n        /* \"contracts/Try01/Simplewallet02.sol\":3487:3726  function getTxhash(... */\n    tag_11:\n      callvalue\n      dup1\n      iszero\n      tag_67\n      jumpi\n      0x00\n      dup1\n      revert\n    tag_67:\n      pop\n      tag_68\n      0x04\n      dup1\n      calldatasize\n      sub\n      dup2\n      add\n      swap1\n      tag_69\n      swap2\n      swap1\n      tag_70\n      jump\t// in\n    tag_69:\n      tag_71\n      jump\t// in\n    tag_68:\n      mload(0x40)\n      tag_72\n      swap2\n      swap1\n      tag_73\n      jump\t// in\n    tag_72:\n      mload(0x40)\n      dup1\n      swap2\n      sub\n      swap1\n      return\n        /* \"contracts/Try01/Simplewallet02.sol\":366:386  uint256 public nonce */\n    tag_12:\n      callvalue\n      dup1\n      iszero\n      tag_74\n      jumpi\n      0x00\n      dup1\n      revert\n    tag_74:\n      pop\n      tag_75\n      tag_76\n      jump\t// in\n    tag_75:\n      mload(0x40)\n      tag_77\n      swap2\n      swap1\n      tag_21\n      jump\t// in\n    tag_77:\n      mload(0x40)\n      dup1\n      swap2\n      sub\n      swap1\n      return\n        /* \"contracts/Try01/Manage.sol\":2368:2813  function removeOwners(address preowner, uint256 new_threshold)public signed{... */\n    tag_13:\n      callvalue\n      dup1\n      iszero\n      tag_78\n      jumpi\n      0x00\n      dup1\n      revert\n    tag_78:\n      pop\n      tag_79\n      0x04\n      dup1\n      calldatasize\n      sub\n      dup2\n      add\n      swap1\n      tag_80\n      swap2\n      swap1\n      tag_44\n      jump\t// in\n    tag_80:\n      tag_81\n      jump\t// in\n    tag_79:\n      stop\n        /* \"contracts/Try01/Manage.sol\":5502:5655  function ownerExist(address _owner)public view returns (bool){... */\n    tag_14:\n      callvalue\n      dup1\n      iszero\n      tag_82\n      jumpi\n      0x00\n      dup1\n      revert\n    tag_82:\n      pop\n      tag_83\n      0x04\n      dup1\n      calldatasize\n      sub\n      dup2\n      add\n      swap1\n      tag_84\n      swap2\n      swap1\n      tag_85\n      jump\t// in\n    tag_84:\n      tag_86\n      jump\t// in\n    tag_83:\n      mload(0x40)\n      tag_87\n      swap2\n      swap1\n      tag_40\n      jump\t// in\n    tag_87:\n      mload(0x40)\n      dup1\n      swap2\n      sub\n      swap1\n      return\n        /* \"contracts/Try01/Manage.sol\":6688:6890  function addOwnersencode(address x, uint256 y) public pure returns(bytes memory result) {... */\n    tag_15:\n      callvalue\n      dup1\n      iszero\n      tag_88\n      jumpi\n      0x00\n      dup1\n      revert\n    tag_88:\n      pop\n      tag_89\n      0x04\n      dup1\n      calldatasize\n      sub\n      dup2\n      add\n      swap1\n      tag_90\n      swap2\n      swap1\n      tag_44\n      jump\t// in\n    tag_90:\n      tag_91\n      jump\t// in\n    tag_89:\n      mload(0x40)\n      tag_92\n      swap2\n      swap1\n      tag_47\n      jump\t// in\n    tag_92:\n      mload(0x40)\n      dup1\n      swap2\n      sub\n      swap1\n      return\n        /* \"contracts/Try01/Manage.sol\":3404:3807  function checkOwners()public view returns(address[] memory){... */\n    tag_28:\n        /* \"contracts/Try01/Manage.sol\":3446:3462  address[] memory */\n      0x60\n        /* \"contracts/Try01/Manage.sol\":3474:3496  address[] memory array */\n      0x00\n        /* \"contracts/Try01/Manage.sol\":3513:3523  owners_num */\n      dup1\n      sload\n        /* \"contracts/Try01/Manage.sol\":3499:3524  new address[](owners_num) */\n      0xffffffffffffffff\n      dup2\n      gt\n      iszero\n      tag_94\n      jumpi\n      tag_95\n      tag_96\n      jump\t// in\n    tag_95:\n    tag_94:\n      mload(0x40)\n      swap1\n      dup1\n      dup3\n      mstore\n      dup1\n      0x20\n      mul\n      0x20\n      add\n      dup3\n      add\n      0x40\n      mstore\n      dup1\n      iszero\n      tag_97\n      jumpi\n      dup2\n      0x20\n      add\n      0x20\n      dup3\n      mul\n      dup1\n      calldatasize\n      dup4\n      calldatacopy\n      dup1\n      dup3\n      add\n      swap2\n      pop\n      pop\n      swap1\n      pop\n    tag_97:\n      pop\n        /* \"contracts/Try01/Manage.sol\":3474:3524  address[] memory array = new address[](owners_num) */\n      swap1\n      pop\n        /* \"contracts/Try01/Manage.sol\":3535:3555  address currentowner */\n      0x00\n        /* \"contracts/Try01/Manage.sol\":3558:3564  owners */\n      0x02\n        /* \"contracts/Try01/Manage.sol\":3558:3571  owners[_HEAD] */\n      0x00\n        /* \"contracts/Try01/Manage.sol\":707:710  0x1 */\n      0x01\n        /* \"contracts/Try01/Manage.sol\":3558:3571  owners[_HEAD] */\n      0xffffffffffffffffffffffffffffffffffffffff\n      and\n      0xffffffffffffffffffffffffffffffffffffffff\n      and\n      dup2\n      mstore\n      0x20\n      add\n      swap1\n      dup2\n      mstore\n      0x20\n      add\n      0x00\n      keccak256\n        /* \"contracts/Try01/Manage.sol\":3558:3578  owners[_HEAD][_NEXT] */\n      0x00\n        /* \"contracts/Try01/Manage.sol\":558:562  true */\n      0x01\n        /* \"contracts/Try01/Manage.sol\":3558:3578  owners[_HEAD][_NEXT] */\n      iszero\n      iszero\n      iszero\n      iszero\n      dup2\n      mstore\n      0x20\n      add\n      swap1\n      dup2\n      mstore\n      0x20\n      add\n      0x00\n      keccak256\n      0x00\n      swap1\n      sload\n      swap1\n      0x0100\n      exp\n      swap1\n      div\n      0xffffffffffffffffffffffffffffffffffffffff\n      and\n        /* \"contracts/Try01/Manage.sol\":3535:3578  address currentowner = owners[_HEAD][_NEXT] */\n      swap1\n      pop\n        /* \"contracts/Try01/Manage.sol\":3589:3602  uint256 index */\n      0x00\n        /* \"contracts/Try01/Manage.sol\":3617:3777  for (index=0; index < owners_num; index++){... */\n    tag_98:\n        /* \"contracts/Try01/Manage.sol\":3639:3649  owners_num */\n      sload(0x00)\n        /* \"contracts/Try01/Manage.sol\":3631:3636  index */\n      dup2\n        /* \"contracts/Try01/Manage.sol\":3631:3649  index < owners_num */\n      lt\n        /* \"contracts/Try01/Manage.sol\":3617:3777  for (index=0; index < owners_num; index++){... */\n      iszero\n      tag_99\n      jumpi\n        /* \"contracts/Try01/Manage.sol\":3689:3701  currentowner */\n      dup2\n        /* \"contracts/Try01/Manage.sol\":3674:3679  array */\n      dup4\n        /* \"contracts/Try01/Manage.sol\":3680:3685  index */\n      dup3\n        /* \"contracts/Try01/Manage.sol\":3674:3686  array[index] */\n      dup2\n      mload\n      dup2\n      lt\n      tag_101\n      jumpi\n      tag_102\n      tag_103\n      jump\t// in\n    tag_102:\n    tag_101:\n      0x20\n      mul\n      0x20\n      add\n      add\n        /* \"contracts/Try01/Manage.sol\":3674:3701  array[index] = currentowner */\n      swap1\n      0xffffffffffffffffffffffffffffffffffffffff\n      and\n      swap1\n      dup2\n      0xffffffffffffffffffffffffffffffffffffffff\n      and\n      dup2\n      mstore\n      pop\n      pop\n        /* \"contracts/Try01/Manage.sol\":3734:3765  getAdjacent(currentowner,_NEXT) */\n      tag_104\n        /* \"contracts/Try01/Manage.sol\":3746:3758  currentowner */\n      dup3\n        /* \"contracts/Try01/Manage.sol\":558:562  true */\n      0x01\n        /* \"contracts/Try01/Manage.sol\":3734:3745  getAdjacent */\n      tag_105\n        /* \"contracts/Try01/Manage.sol\":3734:3765  getAdjacent(currentowner,_NEXT) */\n      jump\t// in\n    tag_104:\n        /* \"contracts/Try01/Manage.sol\":3716:3765  (,currentowner) = getAdjacent(currentowner,_NEXT) */\n      swap1\n      pop\n      dup1\n      swap3\n      pop\n      pop\n        /* \"contracts/Try01/Manage.sol\":3651:3658  index++ */\n      dup1\n      dup1\n      tag_106\n      swap1\n      tag_107\n      jump\t// in\n    tag_106:\n      swap2\n      pop\n      pop\n        /* \"contracts/Try01/Manage.sol\":3617:3777  for (index=0; index < owners_num; index++){... */\n      jump(tag_98)\n    tag_99:\n        /* \"contracts/Try01/Manage.sol\":3794:3799  array */\n      dup3\n        /* \"contracts/Try01/Manage.sol\":3787:3799  return array */\n      swap4\n      pop\n      pop\n      pop\n      pop\n        /* \"contracts/Try01/Manage.sol\":3404:3807  function checkOwners()public view returns(address[] memory){... */\n      swap1\n      jump\t// out\n        /* \"contracts/Try01/Manage.sol\":260:285  uint256 public owners_num */\n    tag_33:\n      sload(0x00)\n      dup2\n      jump\t// out\n        /* \"contracts/Try01/Simplewallet02.sol\":567:1457  function exertransact(... */\n    tag_38:\n        /* \"contracts/Try01/Simplewallet02.sol\":836:848  bool success */\n      0x00\n        /* \"contracts/Try01/Simplewallet02.sol\":864:878  bytes32 txhash */\n      dup1\n        /* \"contracts/Try01/Simplewallet02.sol\":937:1089  encodetx(... */\n      tag_109\n        /* \"contracts/Try01/Simplewallet02.sol\":964:966  to */\n      dup8\n        /* \"contracts/Try01/Simplewallet02.sol\":985:990  value */\n      dup8\n        /* \"contracts/Try01/Simplewallet02.sol\":1010:1014  data */\n      dup8\n      dup8\n        /* \"contracts/Try01/Simplewallet02.sol\":937:1089  encodetx(... */\n      dup1\n      dup1\n      0x1f\n      add\n      0x20\n      dup1\n      swap2\n      div\n      mul\n      0x20\n      add\n      mload(0x40)\n      swap1\n      dup2\n      add\n      0x40\n      mstore\n      dup1\n      swap4\n      swap3\n      swap2\n      swap1\n      dup2\n      dup2\n      mstore\n      0x20\n      add\n      dup4\n      dup4\n      dup1\n      dup3\n      dup5\n      calldatacopy\n      0x00\n      dup2\n      dup5\n      add\n      mstore\n      not(0x1f)\n      0x1f\n      dup3\n      add\n      and\n      swap1\n      pop\n      dup1\n      dup4\n      add\n      swap3\n      pop\n      pop\n      pop\n      pop\n      pop\n      pop\n      pop\n        /* \"contracts/Try01/Simplewallet02.sol\":1033:1038  nonce */\n      sload(0x03)\n        /* \"contracts/Try01/Simplewallet02.sol\":1057:1070  block.chainid */\n      chainid\n        /* \"contracts/Try01/Simplewallet02.sol\":937:945  encodetx */\n      tag_110\n        /* \"contracts/Try01/Simplewallet02.sol\":937:1089  encodetx(... */\n      jump\t// in\n    tag_109:\n        /* \"contracts/Try01/Simplewallet02.sol\":928:1089  txhash = encodetx(... */\n      swap1\n      pop\n        /* \"contracts/Try01/Simplewallet02.sol\":1104:1109  nonce */\n      0x03\n      0x00\n        /* \"contracts/Try01/Simplewallet02.sol\":1104:1111  nonce++ */\n      dup2\n      sload\n      dup1\n      swap3\n      swap2\n      swap1\n      tag_111\n      swap1\n      tag_107\n      jump\t// in\n    tag_111:\n      swap2\n      swap1\n      pop\n      sstore\n      pop\n        /* \"contracts/Try01/Simplewallet02.sol\":1155:1189  checkSignature(txhash, signatures) */\n      tag_112\n        /* \"contracts/Try01/Simplewallet02.sol\":1170:1176  txhash */\n      dup2\n        /* \"contracts/Try01/Simplewallet02.sol\":1178:1188  signatures */\n      dup5\n        /* \"contracts/Try01/Simplewallet02.sol\":1155:1169  checkSignature */\n      tag_66\n        /* \"contracts/Try01/Simplewallet02.sol\":1155:1189  checkSignature(txhash, signatures) */\n      jump\t// in\n    tag_112:\n        /* \"contracts/Try01/Simplewallet02.sol\":1261:1263  to */\n      dup7\n        /* \"contracts/Try01/Simplewallet02.sol\":1261:1268  to.call */\n      0xffffffffffffffffffffffffffffffffffffffff\n      and\n        /* \"contracts/Try01/Simplewallet02.sol\":1276:1281  value */\n      dup7\n        /* \"contracts/Try01/Simplewallet02.sol\":1283:1287  data */\n      dup7\n      dup7\n        /* \"contracts/Try01/Simplewallet02.sol\":1261:1288  to.call{value: value}(data) */\n      mload(0x40)\n      tag_113\n      swap3\n      swap2\n      swap1\n      tag_114\n      jump\t// in\n    tag_113:\n      0x00\n      mload(0x40)\n      dup1\n      dup4\n      sub\n      dup2\n      dup6\n      dup8\n      gas\n      call\n      swap3\n      pop\n      pop\n      pop\n      returndatasize\n      dup1\n      0x00\n      dup2\n      eq\n      tag_117\n      jumpi\n      mload(0x40)\n      swap2\n      pop\n      and(add(returndatasize, 0x3f), not(0x1f))\n      dup3\n      add\n      0x40\n      mstore\n      returndatasize\n      dup3\n      mstore\n      returndatasize\n      0x00\n      0x20\n      dup5\n      add\n      returndatacopy\n      jump(tag_116)\n    tag_117:\n      0x60\n      swap2\n      pop\n    tag_116:\n      pop\n        /* \"contracts/Try01/Simplewallet02.sol\":1248:1288  (success,) = to.call{value: value}(data) */\n      pop\n      dup1\n      swap3\n      pop\n      pop\n        /* \"contracts/Try01/Simplewallet02.sol\":1307:1314  success */\n      dup2\n        /* \"contracts/Try01/Simplewallet02.sol\":1303:1429  if (success)... */\n      iszero\n      tag_118\n      jumpi\n        /* \"contracts/Try01/Simplewallet02.sol\":1355:1361  txhash */\n      dup1\n        /* \"contracts/Try01/Simplewallet02.sol\":1338:1362  ExecutionSuccess(txhash) */\n      0xdc29884a71d2bb98d3c53dc09718be05c7bfd142b7773a5c5cf2517629290ac0\n      mload(0x40)\n      mload(0x40)\n      dup1\n      swap2\n      sub\n      swap1\n      log2\n        /* \"contracts/Try01/Simplewallet02.sol\":1303:1429  if (success)... */\n      jump(tag_119)\n    tag_118:\n        /* \"contracts/Try01/Simplewallet02.sol\":1422:1428  txhash */\n      dup1\n        /* \"contracts/Try01/Simplewallet02.sol\":1405:1429  ExecutionFailure(txhash) */\n      0xdbe42d02a4e07d7eeff2874efe172540c93b297d206f6d691c9782a257323e32\n      mload(0x40)\n      mload(0x40)\n      dup1\n      swap2\n      sub\n      swap1\n      log2\n        /* \"contracts/Try01/Simplewallet02.sol\":1303:1429  if (success)... */\n    tag_119:\n        /* \"contracts/Try01/Simplewallet02.sol\":849:1457  {... */\n      pop\n        /* \"contracts/Try01/Simplewallet02.sol\":567:1457  function exertransact(... */\n      swap6\n      swap5\n      pop\n      pop\n      pop\n      pop\n      pop\n      jump\t// out\n        /* \"contracts/Try01/Manage.sol\":6940:7161  function removeOwnersencode(address x, uint256 y) public pure returns(bytes memory result) {... */\n    tag_45:\n        /* \"contracts/Try01/Manage.sol\":7010:7029  bytes memory result */\n      0x60\n        /* \"contracts/Try01/Manage.sol\":7080:7122  keccak256(\"removeOwners(address,uint256)\") */\n      0xc0f0b3f17d4cd2b558f2e7888914cd773111e1da10e55baf4d1f32e1f6c2222f\n        /* \"contracts/Try01/Manage.sol\":7125:7126  x */\n      dup4\n        /* \"contracts/Try01/Manage.sol\":7127:7128  y */\n      dup4\n        /* \"contracts/Try01/Manage.sol\":7050:7129  abi.encodeWithSelector(bytes4(keccak256(\"removeOwners(address,uint256)\")), x,y) */\n      add(0x24, mload(0x40))\n      tag_121\n      swap3\n      swap2\n      swap1\n      tag_122\n      jump\t// in\n    tag_121:\n      mload(0x40)\n      0x20\n      dup2\n      dup4\n      sub\n      sub\n      dup2\n      mstore\n      swap1\n      0x40\n      mstore\n      swap1\n      not(0xffffffffffffffffffffffffffffffffffffffffffffffffffffffff)\n      and\n      0x20\n      dup3\n      add\n      dup1\n      mload\n      0xffffffffffffffffffffffffffffffffffffffffffffffffffffffff\n      dup4\n      dup2\n      dup4\n      and\n      or\n      dup4\n      mstore\n      pop\n      pop\n      pop\n      pop\n        /* \"contracts/Try01/Manage.sol\":7042:7129  result =abi.encodeWithSelector(bytes4(keccak256(\"removeOwners(address,uint256)\")), x,y) */\n      swap1\n      pop\n        /* \"contracts/Try01/Manage.sol\":6940:7161  function removeOwnersencode(address x, uint256 y) public pure returns(bytes memory result) {... */\n      swap3\n      swap2\n      pop\n      pop\n      jump\t// out\n        /* \"contracts/Try01/Manage.sol\":6434:6640  function changeThresholdencode(uint256 new_threshold) public pure returns(bytes memory result) {... */\n    tag_52:\n        /* \"contracts/Try01/Manage.sol\":6508:6527  bytes memory result */\n      0x60\n        /* \"contracts/Try01/Manage.sol\":6578:6615  keccak256(\"changeThreshold(uint256)\") */\n      0x694e80c37192d74d6099f3d3b41506932ab644a24442ee51857cfeb9eb01ac2f\n        /* \"contracts/Try01/Manage.sol\":6618:6631  new_threshold */\n      dup3\n        /* \"contracts/Try01/Manage.sol\":6548:6632  abi.encodeWithSelector(bytes4(keccak256(\"changeThreshold(uint256)\")), new_threshold) */\n      add(0x24, mload(0x40))\n      tag_124\n      swap2\n      swap1\n      tag_21\n      jump\t// in\n    tag_124:\n      mload(0x40)\n      0x20\n      dup2\n      dup4\n      sub\n      sub\n      dup2\n      mstore\n      swap1\n      0x40\n      mstore\n      swap1\n      not(0xffffffffffffffffffffffffffffffffffffffffffffffffffffffff)\n      and\n      0x20\n      dup3\n      add\n      dup1\n      mload\n      0xffffffffffffffffffffffffffffffffffffffffffffffffffffffff\n      dup4\n      dup2\n      dup4\n      and\n      or\n      dup4\n      mstore\n      pop\n      pop\n      pop\n      pop\n        /* \"contracts/Try01/Manage.sol\":6540:6632  result =abi.encodeWithSelector(bytes4(keccak256(\"changeThreshold(uint256)\")), new_threshold) */\n      swap1\n      pop\n        /* \"contracts/Try01/Manage.sol\":6434:6640  function changeThresholdencode(uint256 new_threshold) public pure returns(bytes memory result) {... */\n      swap2\n      swap1\n      pop\n      jump\t// out\n        /* \"contracts/Try01/Manage.sol\":2902:3242  function changeThreshold(uint256 new_threshold)public signed{... */\n    tag_57:\n        /* \"contracts/Try01/Manage.sol\":6341:6345  this */\n      address\n        /* \"contracts/Try01/Manage.sol\":6321:6346  msg.sender==address(this) */\n      0xffffffffffffffffffffffffffffffffffffffff\n      and\n        /* \"contracts/Try01/Manage.sol\":6321:6331  msg.sender */\n      caller\n        /* \"contracts/Try01/Manage.sol\":6321:6346  msg.sender==address(this) */\n      0xffffffffffffffffffffffffffffffffffffffff\n      and\n      eq\n        /* \"contracts/Try01/Manage.sol\":6313:6364  require(msg.sender==address(this),\"Not authorized\") */\n      tag_126\n      jumpi\n      mload(0x40)\n      0x08c379a000000000000000000000000000000000000000000000000000000000\n      dup2\n      mstore\n      0x04\n      add\n      tag_127\n      swap1\n      tag_128\n      jump\t// in\n    tag_127:\n      mload(0x40)\n      dup1\n      swap2\n      sub\n      swap1\n      revert\n    tag_126:\n        /* \"contracts/Try01/Manage.sol\":3047:3057  owners_num */\n      sload(0x00)\n        /* \"contracts/Try01/Manage.sol\":3030:3043  new_threshold */\n      dup2\n        /* \"contracts/Try01/Manage.sol\":3030:3057  new_threshold <= owners_num */\n      gt\n      iszero\n        /* \"contracts/Try01/Manage.sol\":3022:3069  require(new_threshold <= owners_num, \"error02\") */\n      tag_130\n      jumpi\n      mload(0x40)\n      0x08c379a000000000000000000000000000000000000000000000000000000000\n      dup2\n      mstore\n      0x04\n      add\n      tag_131\n      swap1\n      tag_132\n      jump\t// in\n    tag_131:\n      mload(0x40)\n      dup1\n      swap2\n      sub\n      swap1\n      revert\n    tag_130:\n        /* \"contracts/Try01/Manage.sol\":3143:3144  1 */\n      0x01\n        /* \"contracts/Try01/Manage.sol\":3126:3139  new_threshold */\n      dup2\n        /* \"contracts/Try01/Manage.sol\":3126:3144  new_threshold >= 1 */\n      lt\n      iszero\n        /* \"contracts/Try01/Manage.sol\":3118:3156  require(new_threshold >= 1, \"error03\") */\n      tag_133\n      jumpi\n      mload(0x40)\n      0x08c379a000000000000000000000000000000000000000000000000000000000\n      dup2\n      mstore\n      0x04\n      add\n      tag_134\n      swap1\n      tag_135\n      jump\t// in\n    tag_134:\n      mload(0x40)\n      dup1\n      swap2\n      sub\n      swap1\n      revert\n    tag_133:\n        /* \"contracts/Try01/Manage.sol\":3179:3192  new_threshold */\n      dup1\n        /* \"contracts/Try01/Manage.sol\":3167:3176  threshold */\n      0x01\n        /* \"contracts/Try01/Manage.sol\":3167:3192  threshold = new_threshold */\n      dup2\n      swap1\n      sstore\n      pop\n        /* \"contracts/Try01/Manage.sol\":3208:3234  ChangeThreshold(threshold) */\n      0x9947ac58e204d2da07b9748298663b3b77da7fb0638201d778987ded7c90fbaa\n        /* \"contracts/Try01/Manage.sol\":3224:3233  threshold */\n      sload(0x01)\n        /* \"contracts/Try01/Manage.sol\":3208:3234  ChangeThreshold(threshold) */\n      mload(0x40)\n      tag_136\n      swap2\n      swap1\n      tag_21\n      jump\t// in\n    tag_136:\n      mload(0x40)\n      dup1\n      swap2\n      sub\n      swap1\n      log1\n        /* \"contracts/Try01/Manage.sol\":2902:3242  function changeThreshold(uint256 new_threshold)public signed{... */\n      pop\n      jump\t// out\n        /* \"contracts/Try01/Manage.sol\":3277:3365  function checkThreshold()public view returns(uint256){... */\n    tag_60:\n        /* \"contracts/Try01/Manage.sol\":3322:3329  uint256 */\n      0x00\n        /* \"contracts/Try01/Manage.sol\":3348:3357  threshold */\n      sload(0x01)\n        /* \"contracts/Try01/Manage.sol\":3341:3357  return threshold */\n      swap1\n      pop\n        /* \"contracts/Try01/Manage.sol\":3277:3365  function checkThreshold()public view returns(uint256){... */\n      swap1\n      jump\t// out\n        /* \"contracts/Try01/Simplewallet02.sol\":1484:1792  function checkSignature(bytes32 datatxhash, bytes memory signatures)public view {... */\n    tag_66:\n        /* \"contracts/Try01/Simplewallet02.sol\":1575:1593  uint256 _threshold */\n      0x00\n        /* \"contracts/Try01/Simplewallet02.sol\":1596:1605  threshold */\n      sload(0x01)\n        /* \"contracts/Try01/Simplewallet02.sol\":1575:1605  uint256 _threshold = threshold */\n      swap1\n      pop\n        /* \"contracts/Try01/Simplewallet02.sol\":1674:1675  0 */\n      0x00\n        /* \"contracts/Try01/Simplewallet02.sol\":1661:1671  _threshold */\n      dup2\n        /* \"contracts/Try01/Simplewallet02.sol\":1661:1675  _threshold > 0 */\n      gt\n        /* \"contracts/Try01/Simplewallet02.sol\":1653:1687  require(_threshold > 0, \"error05\") */\n      tag_139\n      jumpi\n      mload(0x40)\n      0x08c379a000000000000000000000000000000000000000000000000000000000\n      dup2\n      mstore\n      0x04\n      add\n      tag_140\n      swap1\n      tag_141\n      jump\t// in\n    tag_140:\n      mload(0x40)\n      dup1\n      swap2\n      sub\n      swap1\n      revert\n    tag_139:\n        /* \"contracts/Try01/Simplewallet02.sol\":1729:1784  startCheckSignature(datatxhash, signatures, _threshold) */\n      tag_142\n        /* \"contracts/Try01/Simplewallet02.sol\":1749:1759  datatxhash */\n      dup4\n        /* \"contracts/Try01/Simplewallet02.sol\":1761:1771  signatures */\n      dup4\n        /* \"contracts/Try01/Simplewallet02.sol\":1773:1783  _threshold */\n      dup4\n        /* \"contracts/Try01/Simplewallet02.sol\":1729:1748  startCheckSignature */\n      tag_143\n        /* \"contracts/Try01/Simplewallet02.sol\":1729:1784  startCheckSignature(datatxhash, signatures, _threshold) */\n      jump\t// in\n    tag_142:\n        /* \"contracts/Try01/Simplewallet02.sol\":1564:1792  {... */\n      pop\n        /* \"contracts/Try01/Simplewallet02.sol\":1484:1792  function checkSignature(bytes32 datatxhash, bytes memory signatures)public view {... */\n      pop\n      pop\n      jump\t// out\n        /* \"contracts/Try01/Simplewallet02.sol\":3487:3726  function getTxhash(... */\n    tag_71:\n        /* \"contracts/Try01/Simplewallet02.sol\":3606:3613  bytes32 */\n      0x00\n        /* \"contracts/Try01/Simplewallet02.sol\":3675:3718  encodetx(to,value,data,nonce,block.chainid) */\n      tag_145\n        /* \"contracts/Try01/Simplewallet02.sol\":3684:3686  to */\n      dup5\n        /* \"contracts/Try01/Simplewallet02.sol\":3687:3692  value */\n      dup5\n        /* \"contracts/Try01/Simplewallet02.sol\":3693:3697  data */\n      dup5\n        /* \"contracts/Try01/Simplewallet02.sol\":3698:3703  nonce */\n      sload(0x03)\n        /* \"contracts/Try01/Simplewallet02.sol\":3704:3717  block.chainid */\n      chainid\n        /* \"contracts/Try01/Simplewallet02.sol\":3675:3683  encodetx */\n      tag_110\n        /* \"contracts/Try01/Simplewallet02.sol\":3675:3718  encodetx(to,value,data,nonce,block.chainid) */\n      jump\t// in\n    tag_145:\n        /* \"contracts/Try01/Simplewallet02.sol\":3668:3718  return encodetx(to,value,data,nonce,block.chainid) */\n      swap1\n      pop\n        /* \"contracts/Try01/Simplewallet02.sol\":3487:3726  function getTxhash(... */\n      swap4\n      swap3\n      pop\n      pop\n      pop\n      jump\t// out\n        /* \"contracts/Try01/Simplewallet02.sol\":366:386  uint256 public nonce */\n    tag_76:\n      sload(0x03)\n      dup2\n      jump\t// out\n        /* \"contracts/Try01/Manage.sol\":2368:2813  function removeOwners(address preowner, uint256 new_threshold)public signed{... */\n    tag_81:\n        /* \"contracts/Try01/Manage.sol\":6341:6345  this */\n      address\n        /* \"contracts/Try01/Manage.sol\":6321:6346  msg.sender==address(this) */\n      0xffffffffffffffffffffffffffffffffffffffff\n      and\n        /* \"contracts/Try01/Manage.sol\":6321:6331  msg.sender */\n      caller\n        /* \"contracts/Try01/Manage.sol\":6321:6346  msg.sender==address(this) */\n      0xffffffffffffffffffffffffffffffffffffffff\n      and\n      eq\n        /* \"contracts/Try01/Manage.sol\":6313:6364  require(msg.sender==address(this),\"Not authorized\") */\n      tag_147\n      jumpi\n      mload(0x40)\n      0x08c379a000000000000000000000000000000000000000000000000000000000\n      dup2\n      mstore\n      0x04\n      add\n      tag_148\n      swap1\n      tag_128\n      jump\t// in\n    tag_148:\n      mload(0x40)\n      dup1\n      swap2\n      sub\n      swap1\n      revert\n    tag_147:\n        /* \"contracts/Try01/Manage.sol\":2522:2535  new_threshold */\n      dup1\n        /* \"contracts/Try01/Manage.sol\":2518:2519  1 */\n      0x01\n        /* \"contracts/Try01/Manage.sol\":2505:2515  owners_num */\n      sload(0x00)\n        /* \"contracts/Try01/Manage.sol\":2505:2519  owners_num - 1 */\n      tag_150\n      swap2\n      swap1\n      tag_151\n      jump\t// in\n    tag_150:\n        /* \"contracts/Try01/Manage.sol\":2505:2535  owners_num - 1 >=new_threshold */\n      lt\n      iszero\n        /* \"contracts/Try01/Manage.sol\":2497:2546  require(owners_num - 1 >=new_threshold,\"error02\") */\n      tag_152\n      jumpi\n      mload(0x40)\n      0x08c379a000000000000000000000000000000000000000000000000000000000\n      dup2\n      mstore\n      0x04\n      add\n      tag_153\n      swap1\n      tag_132\n      jump\t// in\n    tag_153:\n      mload(0x40)\n      dup1\n      swap2\n      sub\n      swap1\n      revert\n    tag_152:\n        /* \"contracts/Try01/Manage.sol\":2605:2625  ownerExist(preowner) */\n      tag_154\n        /* \"contracts/Try01/Manage.sol\":2616:2624  preowner */\n      dup3\n        /* \"contracts/Try01/Manage.sol\":2605:2615  ownerExist */\n      tag_86\n        /* \"contracts/Try01/Manage.sol\":2605:2625  ownerExist(preowner) */\n      jump\t// in\n    tag_154:\n        /* \"contracts/Try01/Manage.sol\":2597:2636  require(ownerExist(preowner),\"error07\") */\n      tag_155\n      jumpi\n      mload(0x40)\n      0x08c379a000000000000000000000000000000000000000000000000000000000\n      dup2\n      mstore\n      0x04\n      add\n      tag_156\n      swap1\n      tag_157\n      jump\t// in\n    tag_156:\n      mload(0x40)\n      dup1\n      swap2\n      sub\n      swap1\n      revert\n    tag_155:\n        /* \"contracts/Try01/Manage.sol\":2675:2696  removeowner(preowner) */\n      tag_158\n        /* \"contracts/Try01/Manage.sol\":2687:2695  preowner */\n      dup3\n        /* \"contracts/Try01/Manage.sol\":2675:2686  removeowner */\n      tag_159\n        /* \"contracts/Try01/Manage.sol\":2675:2696  removeowner(preowner) */\n      jump\t// in\n    tag_158:\n        /* \"contracts/Try01/Manage.sol\":2724:2732  preowner */\n      dup2\n        /* \"contracts/Try01/Manage.sol\":2712:2733  RemoveOwner(preowner) */\n      0xffffffffffffffffffffffffffffffffffffffff\n      and\n      0xac6e8398676cf37429d530b81144d7079e99f4fe9d28b0d88c4a749ceccbe8cd\n      mload(0x40)\n      mload(0x40)\n      dup1\n      swap2\n      sub\n      swap1\n      log2\n        /* \"contracts/Try01/Manage.sol\":2764:2773  threshold */\n      sload(0x01)\n        /* \"contracts/Try01/Manage.sol\":2747:2760  new_threshold */\n      dup2\n        /* \"contracts/Try01/Manage.sol\":2747:2773  new_threshold != threshold */\n      eq\n        /* \"contracts/Try01/Manage.sol\":2744:2805  if(new_threshold != threshold) changeThreshold(new_threshold) */\n      tag_160\n      jumpi\n        /* \"contracts/Try01/Manage.sol\":2775:2805  changeThreshold(new_threshold) */\n      tag_161\n        /* \"contracts/Try01/Manage.sol\":2791:2804  new_threshold */\n      dup2\n        /* \"contracts/Try01/Manage.sol\":2775:2790  changeThreshold */\n      tag_57\n        /* \"contracts/Try01/Manage.sol\":2775:2805  changeThreshold(new_threshold) */\n      jump\t// in\n    tag_161:\n        /* \"contracts/Try01/Manage.sol\":2744:2805  if(new_threshold != threshold) changeThreshold(new_threshold) */\n    tag_160:\n        /* \"contracts/Try01/Manage.sol\":2368:2813  function removeOwners(address preowner, uint256 new_threshold)public signed{... */\n      pop\n      pop\n      jump\t// out\n        /* \"contracts/Try01/Manage.sol\":5502:5655  function ownerExist(address _owner)public view returns (bool){... */\n    tag_86:\n        /* \"contracts/Try01/Manage.sol\":5558:5562  bool */\n      0x00\n        /* \"contracts/Try01/Manage.sol\":656:657  0 */\n      dup1\n        /* \"contracts/Try01/Manage.sol\":5582:5611  owners[_owner][_PRE] != _NULL */\n      0xffffffffffffffffffffffffffffffffffffffff\n      and\n        /* \"contracts/Try01/Manage.sol\":5582:5588  owners */\n      0x02\n        /* \"contracts/Try01/Manage.sol\":5582:5596  owners[_owner] */\n      0x00\n        /* \"contracts/Try01/Manage.sol\":5589:5595  _owner */\n      dup5\n        /* \"contracts/Try01/Manage.sol\":5582:5596  owners[_owner] */\n      0xffffffffffffffffffffffffffffffffffffffff\n      and\n      0xffffffffffffffffffffffffffffffffffffffff\n      and\n      dup2\n      mstore\n      0x20\n      add\n      swap1\n      dup2\n      mstore\n      0x20\n      add\n      0x00\n      keccak256\n        /* \"contracts/Try01/Manage.sol\":5582:5602  owners[_owner][_PRE] */\n      0x00\n        /* \"contracts/Try01/Manage.sol\":515:520  false */\n      dup1\n        /* \"contracts/Try01/Manage.sol\":5582:5602  owners[_owner][_PRE] */\n      iszero\n      iszero\n      iszero\n      iszero\n      dup2\n      mstore\n      0x20\n      add\n      swap1\n      dup2\n      mstore\n      0x20\n      add\n      0x00\n      keccak256\n      0x00\n      swap1\n      sload\n      swap1\n      0x0100\n      exp\n      swap1\n      div\n      0xffffffffffffffffffffffffffffffffffffffff\n      and\n        /* \"contracts/Try01/Manage.sol\":5582:5611  owners[_owner][_PRE] != _NULL */\n      0xffffffffffffffffffffffffffffffffffffffff\n      and\n      eq\n      iszero\n        /* \"contracts/Try01/Manage.sol\":5582:5645  owners[_owner][_PRE] != _NULL || owners[_owner][_NEXT] != _NULL */\n      dup1\n      tag_163\n      jumpi\n      pop\n        /* \"contracts/Try01/Manage.sol\":656:657  0 */\n      0x00\n        /* \"contracts/Try01/Manage.sol\":5615:5645  owners[_owner][_NEXT] != _NULL */\n      0xffffffffffffffffffffffffffffffffffffffff\n      and\n        /* \"contracts/Try01/Manage.sol\":5615:5621  owners */\n      0x02\n        /* \"contracts/Try01/Manage.sol\":5615:5629  owners[_owner] */\n      0x00\n        /* \"contracts/Try01/Manage.sol\":5622:5628  _owner */\n      dup5\n        /* \"contracts/Try01/Manage.sol\":5615:5629  owners[_owner] */\n      0xffffffffffffffffffffffffffffffffffffffff\n      and\n      0xffffffffffffffffffffffffffffffffffffffff\n      and\n      dup2\n      mstore\n      0x20\n      add\n      swap1\n      dup2\n      mstore\n      0x20\n      add\n      0x00\n      keccak256\n        /* \"contracts/Try01/Manage.sol\":5615:5636  owners[_owner][_NEXT] */\n      0x00\n        /* \"contracts/Try01/Manage.sol\":558:562  true */\n      0x01\n        /* \"contracts/Try01/Manage.sol\":5615:5636  owners[_owner][_NEXT] */\n      iszero\n      iszero\n      iszero\n      iszero\n      dup2\n      mstore\n      0x20\n      add\n      swap1\n      dup2\n      mstore\n      0x20\n      add\n      0x00\n      keccak256\n      0x00\n      swap1\n      sload\n      swap1\n      0x0100\n      exp\n      swap1\n      div\n      0xffffffffffffffffffffffffffffffffffffffff\n      and\n        /* \"contracts/Try01/Manage.sol\":5615:5645  owners[_owner][_NEXT] != _NULL */\n      0xffffffffffffffffffffffffffffffffffffffff\n      and\n      eq\n      iszero\n        /* \"contracts/Try01/Manage.sol\":5582:5645  owners[_owner][_PRE] != _NULL || owners[_owner][_NEXT] != _NULL */\n    tag_163:\n        /* \"contracts/Try01/Manage.sol\":5574:5646  return (owners[_owner][_PRE] != _NULL || owners[_owner][_NEXT] != _NULL) */\n      swap1\n      pop\n        /* \"contracts/Try01/Manage.sol\":5502:5655  function ownerExist(address _owner)public view returns (bool){... */\n      swap2\n      swap1\n      pop\n      jump\t// out\n        /* \"contracts/Try01/Manage.sol\":6688:6890  function addOwnersencode(address x, uint256 y) public pure returns(bytes memory result) {... */\n    tag_91:\n        /* \"contracts/Try01/Manage.sol\":6755:6774  bytes memory result */\n      0x60\n        /* \"contracts/Try01/Manage.sol\":6825:6876  keccak256(\"addOwnersAndThreshold(address,uint256)\") */\n      0x0c54620469a3eeff8e01e9971bcf46e640abbf3fa3139aa3afa97959f3d74499\n        /* \"contracts/Try01/Manage.sol\":6878:6879  x */\n      dup4\n        /* \"contracts/Try01/Manage.sol\":6880:6881  y */\n      dup4\n        /* \"contracts/Try01/Manage.sol\":6795:6882  abi.encodeWithSelector(bytes4(keccak256(\"addOwnersAndThreshold(address,uint256)\")),x,y) */\n      add(0x24, mload(0x40))\n      tag_165\n      swap3\n      swap2\n      swap1\n      tag_122\n      jump\t// in\n    tag_165:\n      mload(0x40)\n      0x20\n      dup2\n      dup4\n      sub\n      sub\n      dup2\n      mstore\n      swap1\n      0x40\n      mstore\n      swap1\n      not(0xffffffffffffffffffffffffffffffffffffffffffffffffffffffff)\n      and\n      0x20\n      dup3\n      add\n      dup1\n      mload\n      0xffffffffffffffffffffffffffffffffffffffffffffffffffffffff\n      dup4\n      dup2\n      dup4\n      and\n      or\n      dup4\n      mstore\n      pop\n      pop\n      pop\n      pop\n        /* \"contracts/Try01/Manage.sol\":6787:6882  result =abi.encodeWithSelector(bytes4(keccak256(\"addOwnersAndThreshold(address,uint256)\")),x,y) */\n      swap1\n      pop\n        /* \"contracts/Try01/Manage.sol\":6688:6890  function addOwnersencode(address x, uint256 y) public pure returns(bytes memory result) {... */\n      swap3\n      swap2\n      pop\n      pop\n      jump\t// out\n        /* \"contracts/Try01/Manage.sol\":5921:6174  function getAdjacent(address owner, bool _direction)internal view returns (bool, address) {... */\n    tag_105:\n        /* \"contracts/Try01/Manage.sol\":5996:6000  bool */\n      0x00\n        /* \"contracts/Try01/Manage.sol\":6002:6009  address */\n      dup1\n        /* \"contracts/Try01/Manage.sol\":6027:6044  ownerExist(owner) */\n      tag_167\n        /* \"contracts/Try01/Manage.sol\":6038:6043  owner */\n      dup5\n        /* \"contracts/Try01/Manage.sol\":6027:6037  ownerExist */\n      tag_86\n        /* \"contracts/Try01/Manage.sol\":6027:6044  ownerExist(owner) */\n      jump\t// in\n    tag_167:\n        /* \"contracts/Try01/Manage.sol\":6022:6167  if (!ownerExist(owner)) {... */\n      tag_168\n      jumpi\n        /* \"contracts/Try01/Manage.sol\":6069:6074  false */\n      0x00\n        /* \"contracts/Try01/Manage.sol\":656:657  0 */\n      dup1\n        /* \"contracts/Try01/Manage.sol\":6061:6082  return (false, _NULL) */\n      swap2\n      pop\n      swap2\n      pop\n      jump(tag_166)\n        /* \"contracts/Try01/Manage.sol\":6022:6167  if (!ownerExist(owner)) {... */\n    tag_168:\n        /* \"contracts/Try01/Manage.sol\":6123:6127  true */\n      0x01\n        /* \"contracts/Try01/Manage.sol\":6129:6135  owners */\n      0x02\n        /* \"contracts/Try01/Manage.sol\":6129:6142  owners[owner] */\n      0x00\n        /* \"contracts/Try01/Manage.sol\":6136:6141  owner */\n      dup7\n        /* \"contracts/Try01/Manage.sol\":6129:6142  owners[owner] */\n      0xffffffffffffffffffffffffffffffffffffffff\n      and\n      0xffffffffffffffffffffffffffffffffffffffff\n      and\n      dup2\n      mstore\n      0x20\n      add\n      swap1\n      dup2\n      mstore\n      0x20\n      add\n      0x00\n      keccak256\n        /* \"contracts/Try01/Manage.sol\":6129:6154  owners[owner][_direction] */\n      0x00\n        /* \"contracts/Try01/Manage.sol\":6143:6153  _direction */\n      dup6\n        /* \"contracts/Try01/Manage.sol\":6129:6154  owners[owner][_direction] */\n      iszero\n      iszero\n      iszero\n      iszero\n      dup2\n      mstore\n      0x20\n      add\n      swap1\n      dup2\n      mstore\n      0x20\n      add\n      0x00\n      keccak256\n      0x00\n      swap1\n      sload\n      swap1\n      0x0100\n      exp\n      swap1\n      div\n      0xffffffffffffffffffffffffffffffffffffffff\n      and\n        /* \"contracts/Try01/Manage.sol\":6115:6155  return (true, owners[owner][_direction]) */\n      swap2\n      pop\n      swap2\n      pop\n        /* \"contracts/Try01/Manage.sol\":5921:6174  function getAdjacent(address owner, bool _direction)internal view returns (bool, address) {... */\n    tag_166:\n      swap3\n      pop\n      swap3\n      swap1\n      pop\n      jump\t// out\n        /* \"contracts/Try01/Simplewallet02.sol\":3760:4195  function encodetx(... */\n    tag_110:\n        /* \"contracts/Try01/Simplewallet02.sol\":3929:3936  bytes32 */\n      0x00\n        /* \"contracts/Try01/Simplewallet02.sol\":3948:3966  bytes32 safetxhash */\n      dup1\n        /* \"contracts/Try01/Simplewallet02.sol\":4022:4024  to */\n      dup7\n        /* \"contracts/Try01/Simplewallet02.sol\":4043:4048  value */\n      dup7\n        /* \"contracts/Try01/Simplewallet02.sol\":4077:4081  data */\n      dup7\n        /* \"contracts/Try01/Simplewallet02.sol\":4067:4082  keccak256(data) */\n      dup1\n      mload\n      swap1\n      0x20\n      add\n      keccak256\n        /* \"contracts/Try01/Simplewallet02.sol\":4101:4107  _nonce */\n      dup7\n        /* \"contracts/Try01/Simplewallet02.sol\":4126:4133  chainid */\n      dup7\n        /* \"contracts/Try01/Simplewallet02.sol\":3993:4148  abi.encode(... */\n      add(0x20, mload(0x40))\n      tag_171\n      swap6\n      swap5\n      swap4\n      swap3\n      swap2\n      swap1\n      tag_172\n      jump\t// in\n    tag_171:\n      mload(0x40)\n      0x20\n      dup2\n      dup4\n      sub\n      sub\n      dup2\n      mstore\n      swap1\n      0x40\n      mstore\n        /* \"contracts/Try01/Simplewallet02.sol\":3969:4159  keccak256(... */\n      dup1\n      mload\n      swap1\n      0x20\n      add\n      keccak256\n        /* \"contracts/Try01/Simplewallet02.sol\":3948:4159  bytes32 safetxhash = keccak256(... */\n      swap1\n      pop\n        /* \"contracts/Try01/Simplewallet02.sol\":4177:4187  safetxhash */\n      dup1\n        /* \"contracts/Try01/Simplewallet02.sol\":4170:4187  return safetxhash */\n      swap2\n      pop\n      pop\n        /* \"contracts/Try01/Simplewallet02.sol\":3760:4195  function encodetx(... */\n      swap6\n      swap5\n      pop\n      pop\n      pop\n      pop\n      pop\n      jump\t// out\n        /* \"contracts/Try01/Simplewallet02.sol\":1798:2917  function startCheckSignature (bytes32 txhash, bytes memory signatures, uint256 numOfsignatures)internal view {... */\n    tag_143:\n        /* \"contracts/Try01/Simplewallet02.sol\":1999:2001  65 */\n      0x41\n        /* \"contracts/Try01/Simplewallet02.sol\":1981:1996  numOfsignatures */\n      dup2\n        /* \"contracts/Try01/Simplewallet02.sol\":1981:2001  numOfsignatures * 65 */\n      tag_174\n      swap2\n      swap1\n      tag_175\n      jump\t// in\n    tag_174:\n        /* \"contracts/Try01/Simplewallet02.sol\":1960:1970  signatures */\n      dup3\n        /* \"contracts/Try01/Simplewallet02.sol\":1960:1977  signatures.length */\n      mload\n        /* \"contracts/Try01/Simplewallet02.sol\":1960:2001  signatures.length >= numOfsignatures * 65 */\n      lt\n      iszero\n        /* \"contracts/Try01/Simplewallet02.sol\":1952:2025  require(signatures.length >= numOfsignatures * 65,\"Signatures too short\") */\n      tag_176\n      jumpi\n      mload(0x40)\n      0x08c379a000000000000000000000000000000000000000000000000000000000\n      dup2\n      mstore\n      0x04\n      add\n      tag_177\n      swap1\n      tag_178\n      jump\t// in\n    tag_177:\n      mload(0x40)\n      dup1\n      swap2\n      sub\n      swap1\n      revert\n    tag_176:\n        /* \"contracts/Try01/Simplewallet02.sol\":2304:2321  address lastowner */\n      0x00\n        /* \"contracts/Try01/Simplewallet02.sol\":2332:2352  address currentowner */\n      dup1\n        /* \"contracts/Try01/Simplewallet02.sol\":2363:2370  uint8 v */\n      0x00\n        /* \"contracts/Try01/Simplewallet02.sol\":2381:2390  bytes32 r */\n      dup1\n        /* \"contracts/Try01/Simplewallet02.sol\":2401:2410  bytes32 s */\n      0x00\n        /* \"contracts/Try01/Simplewallet02.sol\":2421:2430  uint256 i */\n      dup1\n        /* \"contracts/Try01/Simplewallet02.sol\":2447:2448  0 */\n      0x00\n        /* \"contracts/Try01/Simplewallet02.sol\":2445:2448  i=0 */\n      swap1\n      pop\n        /* \"contracts/Try01/Simplewallet02.sol\":2441:2910  for(i=0; i<numOfsignatures; i++){... */\n    tag_179:\n        /* \"contracts/Try01/Simplewallet02.sol\":2452:2467  numOfsignatures */\n      dup7\n        /* \"contracts/Try01/Simplewallet02.sol\":2450:2451  i */\n      dup2\n        /* \"contracts/Try01/Simplewallet02.sol\":2450:2467  i<numOfsignatures */\n      lt\n        /* \"contracts/Try01/Simplewallet02.sol\":2441:2910  for(i=0; i<numOfsignatures; i++){... */\n      iszero\n      tag_180\n      jumpi\n        /* \"contracts/Try01/Simplewallet02.sol\":2500:2529  signatureSplit(signatures, i) */\n      tag_182\n        /* \"contracts/Try01/Simplewallet02.sol\":2515:2525  signatures */\n      dup9\n        /* \"contracts/Try01/Simplewallet02.sol\":2527:2528  i */\n      dup3\n        /* \"contracts/Try01/Simplewallet02.sol\":2500:2514  signatureSplit */\n      tag_183\n        /* \"contracts/Try01/Simplewallet02.sol\":2500:2529  signatureSplit(signatures, i) */\n      jump\t// in\n    tag_182:\n        /* \"contracts/Try01/Simplewallet02.sol\":2488:2529  (v, r, s) = signatureSplit(signatures, i) */\n      dup1\n      swap5\n      pop\n      dup2\n      swap6\n      pop\n      dup3\n      swap7\n      pop\n      pop\n      pop\n      pop\n        /* \"contracts/Try01/Simplewallet02.sol\":2668:2758  ecrecover(keccak256(abi.encodePacked(\"\\x19Ethereum Signed Message:\\n32\",txhash)), v, r, s) */\n      0x01\n        /* \"contracts/Try01/Simplewallet02.sol\":2740:2746  txhash */\n      dup10\n        /* \"contracts/Try01/Simplewallet02.sol\":2688:2747  abi.encodePacked(\"\\x19Ethereum Signed Message:\\n32\",txhash) */\n      add(0x20, mload(0x40))\n      tag_184\n      swap2\n      swap1\n      tag_185\n      jump\t// in\n    tag_184:\n      mload(0x40)\n      0x20\n      dup2\n      dup4\n      sub\n      sub\n      dup2\n      mstore\n      swap1\n      0x40\n      mstore\n        /* \"contracts/Try01/Simplewallet02.sol\":2678:2748  keccak256(abi.encodePacked(\"\\x19Ethereum Signed Message:\\n32\",txhash)) */\n      dup1\n      mload\n      swap1\n      0x20\n      add\n      keccak256\n        /* \"contracts/Try01/Simplewallet02.sol\":2750:2751  v */\n      dup6\n        /* \"contracts/Try01/Simplewallet02.sol\":2753:2754  r */\n      dup6\n        /* \"contracts/Try01/Simplewallet02.sol\":2756:2757  s */\n      dup6\n        /* \"contracts/Try01/Simplewallet02.sol\":2668:2758  ecrecover(keccak256(abi.encodePacked(\"\\x19Ethereum Signed Message:\\n32\",txhash)), v, r, s) */\n      mload(0x40)\n      0x00\n      dup2\n      mstore\n      0x20\n      add\n      0x40\n      mstore\n      mload(0x40)\n      tag_186\n      swap5\n      swap4\n      swap3\n      swap2\n      swap1\n      tag_187\n      jump\t// in\n    tag_186:\n      0x20\n      mload(0x40)\n      0x20\n      dup2\n      sub\n      swap1\n      dup1\n      dup5\n      sub\n      swap1\n      dup6\n      gas\n      staticcall\n      iszero\n      dup1\n      iszero\n      tag_189\n      jumpi\n      returndatasize\n      0x00\n      dup1\n      returndatacopy\n      revert(0x00, returndatasize)\n    tag_189:\n      pop\n      pop\n      pop\n      mload(sub(mload(0x40), 0x20))\n        /* \"contracts/Try01/Simplewallet02.sol\":2653:2758  currentowner = ecrecover(keccak256(abi.encodePacked(\"\\x19Ethereum Signed Message:\\n32\",txhash)), v, r, s) */\n      swap5\n      pop\n        /* \"contracts/Try01/Simplewallet02.sol\":2796:2805  lastowner */\n      dup6\n        /* \"contracts/Try01/Simplewallet02.sol\":2781:2805  currentowner > lastowner */\n      0xffffffffffffffffffffffffffffffffffffffff\n      and\n        /* \"contracts/Try01/Simplewallet02.sol\":2781:2793  currentowner */\n      dup6\n        /* \"contracts/Try01/Simplewallet02.sol\":2781:2805  currentowner > lastowner */\n      0xffffffffffffffffffffffffffffffffffffffff\n      and\n      gt\n        /* \"contracts/Try01/Simplewallet02.sol\":2781:2833  currentowner > lastowner && ownerExist(currentowner) */\n      dup1\n      iszero\n      tag_190\n      jumpi\n      pop\n        /* \"contracts/Try01/Simplewallet02.sol\":2809:2833  ownerExist(currentowner) */\n      tag_191\n        /* \"contracts/Try01/Simplewallet02.sol\":2820:2832  currentowner */\n      dup6\n        /* \"contracts/Try01/Simplewallet02.sol\":2809:2819  ownerExist */\n      tag_86\n        /* \"contracts/Try01/Simplewallet02.sol\":2809:2833  ownerExist(currentowner) */\n      jump\t// in\n    tag_191:\n        /* \"contracts/Try01/Simplewallet02.sol\":2781:2833  currentowner > lastowner && ownerExist(currentowner) */\n    tag_190:\n        /* \"contracts/Try01/Simplewallet02.sol\":2773:2845  require(currentowner > lastowner && ownerExist(currentowner), \"error06\") */\n      tag_192\n      jumpi\n      mload(0x40)\n      0x08c379a000000000000000000000000000000000000000000000000000000000\n      dup2\n      mstore\n      0x04\n      add\n      tag_193\n      swap1\n      tag_194\n      jump\t// in\n    tag_193:\n      mload(0x40)\n      dup1\n      swap2\n      sub\n      swap1\n      revert\n    tag_192:\n        /* \"contracts/Try01/Simplewallet02.sol\":2886:2898  currentowner */\n      dup5\n        /* \"contracts/Try01/Simplewallet02.sol\":2874:2898  lastowner = currentowner */\n      swap6\n      pop\n        /* \"contracts/Try01/Simplewallet02.sol\":2469:2472  i++ */\n      dup1\n      dup1\n      tag_195\n      swap1\n      tag_107\n      jump\t// in\n    tag_195:\n      swap2\n      pop\n      pop\n        /* \"contracts/Try01/Simplewallet02.sol\":2441:2910  for(i=0; i<numOfsignatures; i++){... */\n      jump(tag_179)\n    tag_180:\n        /* \"contracts/Try01/Simplewallet02.sol\":1907:2917  {... */\n      pop\n      pop\n      pop\n      pop\n      pop\n      pop\n        /* \"contracts/Try01/Simplewallet02.sol\":1798:2917  function startCheckSignature (bytes32 txhash, bytes memory signatures, uint256 numOfsignatures)internal view {... */\n      pop\n      pop\n      pop\n      jump\t// out\n        /* \"contracts/Try01/Manage.sol\":4877:5164  function removeowner(address preowner)internal {... */\n    tag_159:\n        /* \"contracts/Try01/Manage.sol\":4943:4963  ownerExist(preowner) */\n      tag_197\n        /* \"contracts/Try01/Manage.sol\":4954:4962  preowner */\n      dup2\n        /* \"contracts/Try01/Manage.sol\":4943:4953  ownerExist */\n      tag_86\n        /* \"contracts/Try01/Manage.sol\":4943:4963  ownerExist(preowner) */\n      jump\t// in\n    tag_197:\n        /* \"contracts/Try01/Manage.sol\":4935:4974  require(ownerExist(preowner),\"error07\") */\n      tag_198\n      jumpi\n      mload(0x40)\n      0x08c379a000000000000000000000000000000000000000000000000000000000\n      dup2\n      mstore\n      0x04\n      add\n      tag_199\n      swap1\n      tag_157\n      jump\t// in\n    tag_199:\n      mload(0x40)\n      dup1\n      swap2\n      sub\n      swap1\n      revert\n    tag_198:\n        /* \"contracts/Try01/Manage.sol\":4985:5052  _createLink(owners[preowner][_PRE], owners[preowner][_NEXT], _NEXT) */\n      tag_200\n        /* \"contracts/Try01/Manage.sol\":4997:5003  owners */\n      0x02\n        /* \"contracts/Try01/Manage.sol\":4997:5013  owners[preowner] */\n      0x00\n        /* \"contracts/Try01/Manage.sol\":5004:5012  preowner */\n      dup4\n        /* \"contracts/Try01/Manage.sol\":4997:5013  owners[preowner] */\n      0xffffffffffffffffffffffffffffffffffffffff\n      and\n      0xffffffffffffffffffffffffffffffffffffffff\n      and\n      dup2\n      mstore\n      0x20\n      add\n      swap1\n      dup2\n      mstore\n      0x20\n      add\n      0x00\n      keccak256\n        /* \"contracts/Try01/Manage.sol\":4997:5019  owners[preowner][_PRE] */\n      0x00\n        /* \"contracts/Try01/Manage.sol\":515:520  false */\n      dup1\n        /* \"contracts/Try01/Manage.sol\":4997:5019  owners[preowner][_PRE] */\n      iszero\n      iszero\n      iszero\n      iszero\n      dup2\n      mstore\n      0x20\n      add\n      swap1\n      dup2\n      mstore\n      0x20\n      add\n      0x00\n      keccak256\n      0x00\n      swap1\n      sload\n      swap1\n      0x0100\n      exp\n      swap1\n      div\n      0xffffffffffffffffffffffffffffffffffffffff\n      and\n        /* \"contracts/Try01/Manage.sol\":5021:5027  owners */\n      0x02\n        /* \"contracts/Try01/Manage.sol\":5021:5037  owners[preowner] */\n      0x00\n        /* \"contracts/Try01/Manage.sol\":5028:5036  preowner */\n      dup5\n        /* \"contracts/Try01/Manage.sol\":5021:5037  owners[preowner] */\n      0xffffffffffffffffffffffffffffffffffffffff\n      and\n      0xffffffffffffffffffffffffffffffffffffffff\n      and\n      dup2\n      mstore\n      0x20\n      add\n      swap1\n      dup2\n      mstore\n      0x20\n      add\n      0x00\n      keccak256\n        /* \"contracts/Try01/Manage.sol\":5021:5044  owners[preowner][_NEXT] */\n      0x00\n        /* \"contracts/Try01/Manage.sol\":558:562  true */\n      0x01\n        /* \"contracts/Try01/Manage.sol\":5021:5044  owners[preowner][_NEXT] */\n      iszero\n      iszero\n      iszero\n      iszero\n      dup2\n      mstore\n      0x20\n      add\n      swap1\n      dup2\n      mstore\n      0x20\n      add\n      0x00\n      keccak256\n      0x00\n      swap1\n      sload\n      swap1\n      0x0100\n      exp\n      swap1\n      div\n      0xffffffffffffffffffffffffffffffffffffffff\n      and\n        /* \"contracts/Try01/Manage.sol\":558:562  true */\n      0x01\n        /* \"contracts/Try01/Manage.sol\":4985:4996  _createLink */\n      tag_201\n        /* \"contracts/Try01/Manage.sol\":4985:5052  _createLink(owners[preowner][_PRE], owners[preowner][_NEXT], _NEXT) */\n      jump\t// in\n    tag_200:\n        /* \"contracts/Try01/Manage.sol\":5070:5076  owners */\n      0x02\n        /* \"contracts/Try01/Manage.sol\":5070:5086  owners[preowner] */\n      0x00\n        /* \"contracts/Try01/Manage.sol\":5077:5085  preowner */\n      dup3\n        /* \"contracts/Try01/Manage.sol\":5070:5086  owners[preowner] */\n      0xffffffffffffffffffffffffffffffffffffffff\n      and\n      0xffffffffffffffffffffffffffffffffffffffff\n      and\n      dup2\n      mstore\n      0x20\n      add\n      swap1\n      dup2\n      mstore\n      0x20\n      add\n      0x00\n      keccak256\n        /* \"contracts/Try01/Manage.sol\":5070:5092  owners[preowner][_PRE] */\n      0x00\n        /* \"contracts/Try01/Manage.sol\":515:520  false */\n      dup1\n        /* \"contracts/Try01/Manage.sol\":5070:5092  owners[preowner][_PRE] */\n      iszero\n      iszero\n      iszero\n      iszero\n      dup2\n      mstore\n      0x20\n      add\n      swap1\n      dup2\n      mstore\n      0x20\n      add\n      0x00\n      keccak256\n      0x00\n        /* \"contracts/Try01/Manage.sol\":5063:5092  delete owners[preowner][_PRE] */\n      0x0100\n      exp\n      dup2\n      sload\n      swap1\n      0xffffffffffffffffffffffffffffffffffffffff\n      mul\n      not\n      and\n      swap1\n      sstore\n        /* \"contracts/Try01/Manage.sol\":5110:5116  owners */\n      0x02\n        /* \"contracts/Try01/Manage.sol\":5110:5126  owners[preowner] */\n      0x00\n        /* \"contracts/Try01/Manage.sol\":5117:5125  preowner */\n      dup3\n        /* \"contracts/Try01/Manage.sol\":5110:5126  owners[preowner] */\n      0xffffffffffffffffffffffffffffffffffffffff\n      and\n      0xffffffffffffffffffffffffffffffffffffffff\n      and\n      dup2\n      mstore\n      0x20\n      add\n      swap1\n      dup2\n      mstore\n      0x20\n      add\n      0x00\n      keccak256\n        /* \"contracts/Try01/Manage.sol\":5110:5133  owners[preowner][_NEXT] */\n      0x00\n        /* \"contracts/Try01/Manage.sol\":558:562  true */\n      0x01\n        /* \"contracts/Try01/Manage.sol\":5110:5133  owners[preowner][_NEXT] */\n      iszero\n      iszero\n      iszero\n      iszero\n      dup2\n      mstore\n      0x20\n      add\n      swap1\n      dup2\n      mstore\n      0x20\n      add\n      0x00\n      keccak256\n      0x00\n        /* \"contracts/Try01/Manage.sol\":5103:5133  delete owners[preowner][_NEXT] */\n      0x0100\n      exp\n      dup2\n      sload\n      swap1\n      0xffffffffffffffffffffffffffffffffffffffff\n      mul\n      not\n      and\n      swap1\n      sstore\n        /* \"contracts/Try01/Manage.sol\":5144:5154  owners_num */\n      0x00\n      dup1\n        /* \"contracts/Try01/Manage.sol\":5144:5156  owners_num-- */\n      dup2\n      sload\n      dup1\n      swap3\n      swap2\n      swap1\n      tag_202\n      swap1\n      tag_203\n      jump\t// in\n    tag_202:\n      swap2\n      swap1\n      pop\n      sstore\n      pop\n        /* \"contracts/Try01/Manage.sol\":4877:5164  function removeowner(address preowner)internal {... */\n      pop\n      jump\t// out\n        /* \"contracts/Try01/Simplewallet02.sol\":2983:3452  function signatureSplit(bytes memory signatures, uint256 pos)internal pure returns(uint8 v,bytes32 r,bytes32 s){... */\n    tag_183:\n        /* \"contracts/Try01/Simplewallet02.sol\":3066:3073  uint8 v */\n      0x00\n        /* \"contracts/Try01/Simplewallet02.sol\":3074:3083  bytes32 r */\n      dup1\n        /* \"contracts/Try01/Simplewallet02.sol\":3084:3093  bytes32 s */\n      0x00\n        /* \"contracts/Try01/Simplewallet02.sol\":3221:3224  pos */\n      dup4\n        /* \"contracts/Try01/Simplewallet02.sol\":3215:3219  0x41 */\n      0x41\n        /* \"contracts/Try01/Simplewallet02.sol\":3211:3225  mul(0x41, pos) */\n      mul\n        /* \"contracts/Try01/Simplewallet02.sol\":3284:3288  0x20 */\n      0x20\n        /* \"contracts/Try01/Simplewallet02.sol\":3270:3282  signaturePos */\n      dup2\n        /* \"contracts/Try01/Simplewallet02.sol\":3266:3289  add(signaturePos, 0x20) */\n      add\n        /* \"contracts/Try01/Simplewallet02.sol\":3254:3264  signatures */\n      dup7\n        /* \"contracts/Try01/Simplewallet02.sol\":3250:3290  add(signatures, add(signaturePos, 0x20)) */\n      add\n        /* \"contracts/Try01/Simplewallet02.sol\":3244:3291  mload(add(signatures, add(signaturePos, 0x20))) */\n      mload\n        /* \"contracts/Try01/Simplewallet02.sol\":3239:3291  r := mload(add(signatures, add(signaturePos, 0x20))) */\n      swap3\n      pop\n        /* \"contracts/Try01/Simplewallet02.sol\":3350:3354  0x40 */\n      0x40\n        /* \"contracts/Try01/Simplewallet02.sol\":3336:3348  signaturePos */\n      dup2\n        /* \"contracts/Try01/Simplewallet02.sol\":3332:3355  add(signaturePos, 0x40) */\n      add\n        /* \"contracts/Try01/Simplewallet02.sol\":3320:3330  signatures */\n      dup7\n        /* \"contracts/Try01/Simplewallet02.sol\":3316:3356  add(signatures, add(signaturePos, 0x40)) */\n      add\n        /* \"contracts/Try01/Simplewallet02.sol\":3310:3357  mload(add(signatures, add(signaturePos, 0x40))) */\n      mload\n        /* \"contracts/Try01/Simplewallet02.sol\":3305:3357  s := mload(add(signatures, add(signaturePos, 0x40))) */\n      swap2\n      pop\n        /* \"contracts/Try01/Simplewallet02.sol\":3429:3433  0xff */\n      0xff\n        /* \"contracts/Try01/Simplewallet02.sol\":3420:3424  0x41 */\n      0x41\n        /* \"contracts/Try01/Simplewallet02.sol\":3406:3418  signaturePos */\n      dup3\n        /* \"contracts/Try01/Simplewallet02.sol\":3402:3425  add(signaturePos, 0x41) */\n      add\n        /* \"contracts/Try01/Simplewallet02.sol\":3390:3400  signatures */\n      dup8\n        /* \"contracts/Try01/Simplewallet02.sol\":3386:3426  add(signatures, add(signaturePos, 0x41)) */\n      add\n        /* \"contracts/Try01/Simplewallet02.sol\":3380:3427  mload(add(signatures, add(signaturePos, 0x41))) */\n      mload\n        /* \"contracts/Try01/Simplewallet02.sol\":3376:3434  and(mload(add(signatures, add(signaturePos, 0x41))), 0xff) */\n      and\n        /* \"contracts/Try01/Simplewallet02.sol\":3371:3434  v := and(mload(add(signatures, add(signaturePos, 0x41))), 0xff) */\n      swap4\n      pop\n        /* \"contracts/Try01/Simplewallet02.sol\":3176:3445  {... */\n      pop\n        /* \"contracts/Try01/Simplewallet02.sol\":2983:3452  function signatureSplit(bytes memory signatures, uint256 pos)internal pure returns(uint8 v,bytes32 r,bytes32 s){... */\n      swap3\n      pop\n      swap3\n      pop\n      swap3\n      jump\t// out\n        /* \"contracts/Try01/Manage.sol\":5685:5885  function _createLink(address _preowner, address _nextowner, bool _direction)internal {... */\n    tag_201:\n        /* \"contracts/Try01/Manage.sol\":5815:5824  _preowner */\n      dup3\n        /* \"contracts/Try01/Manage.sol\":5781:5787  owners */\n      0x02\n        /* \"contracts/Try01/Manage.sol\":5781:5799  owners[_nextowner] */\n      0x00\n        /* \"contracts/Try01/Manage.sol\":5788:5798  _nextowner */\n      dup5\n        /* \"contracts/Try01/Manage.sol\":5781:5799  owners[_nextowner] */\n      0xffffffffffffffffffffffffffffffffffffffff\n      and\n      0xffffffffffffffffffffffffffffffffffffffff\n      and\n      dup2\n      mstore\n      0x20\n      add\n      swap1\n      dup2\n      mstore\n      0x20\n      add\n      0x00\n      keccak256\n        /* \"contracts/Try01/Manage.sol\":5781:5812  owners[_nextowner][!_direction] */\n      0x00\n        /* \"contracts/Try01/Manage.sol\":5801:5811  _direction */\n      dup4\n        /* \"contracts/Try01/Manage.sol\":5800:5811  !_direction */\n      iszero\n        /* \"contracts/Try01/Manage.sol\":5781:5812  owners[_nextowner][!_direction] */\n      iszero\n      iszero\n      iszero\n      iszero\n      dup2\n      mstore\n      0x20\n      add\n      swap1\n      dup2\n      mstore\n      0x20\n      add\n      0x00\n      keccak256\n      0x00\n        /* \"contracts/Try01/Manage.sol\":5781:5824  owners[_nextowner][!_direction] = _preowner */\n      0x0100\n      exp\n      dup2\n      sload\n      dup2\n      0xffffffffffffffffffffffffffffffffffffffff\n      mul\n      not\n      and\n      swap1\n      dup4\n      0xffffffffffffffffffffffffffffffffffffffff\n      and\n      mul\n      or\n      swap1\n      sstore\n      pop\n        /* \"contracts/Try01/Manage.sol\":5867:5877  _nextowner */\n      dup2\n        /* \"contracts/Try01/Manage.sol\":5835:5841  owners */\n      0x02\n        /* \"contracts/Try01/Manage.sol\":5835:5852  owners[_preowner] */\n      0x00\n        /* \"contracts/Try01/Manage.sol\":5842:5851  _preowner */\n      dup6\n        /* \"contracts/Try01/Manage.sol\":5835:5852  owners[_preowner] */\n      0xffffffffffffffffffffffffffffffffffffffff\n      and\n      0xffffffffffffffffffffffffffffffffffffffff\n      and\n      dup2\n      mstore\n      0x20\n      add\n      swap1\n      dup2\n      mstore\n      0x20\n      add\n      0x00\n      keccak256\n        /* \"contracts/Try01/Manage.sol\":5835:5864  owners[_preowner][_direction] */\n      0x00\n        /* \"contracts/Try01/Manage.sol\":5853:5863  _direction */\n      dup4\n        /* \"contracts/Try01/Manage.sol\":5835:5864  owners[_preowner][_direction] */\n      iszero\n      iszero\n      iszero\n      iszero\n      dup2\n      mstore\n      0x20\n      add\n      swap1\n      dup2\n      mstore\n      0x20\n      add\n      0x00\n      keccak256\n      0x00\n        /* \"contracts/Try01/Manage.sol\":5835:5877  owners[_preowner][_direction] = _nextowner */\n      0x0100\n      exp\n      dup2\n      sload\n      dup2\n      0xffffffffffffffffffffffffffffffffffffffff\n      mul\n      not\n      and\n      swap1\n      dup4\n      0xffffffffffffffffffffffffffffffffffffffff\n      and\n      mul\n      or\n      swap1\n      sstore\n      pop\n        /* \"contracts/Try01/Manage.sol\":5685:5885  function _createLink(address _preowner, address _nextowner, bool _direction)internal {... */\n      pop\n      pop\n      pop\n      jump\t// out\n        /* \"#utility.yul\":7:84   */\n    tag_206:\n        /* \"#utility.yul\":44:51   */\n      0x00\n        /* \"#utility.yul\":73:78   */\n      dup2\n        /* \"#utility.yul\":62:78   */\n      swap1\n      pop\n        /* \"#utility.yul\":7:84   */\n      swap2\n      swap1\n      pop\n      jump\t// out\n        /* \"#utility.yul\":90:208   */\n    tag_207:\n        /* \"#utility.yul\":177:201   */\n      tag_276\n        /* \"#utility.yul\":195:200   */\n      dup2\n        /* \"#utility.yul\":177:201   */\n      tag_206\n      jump\t// in\n    tag_276:\n        /* \"#utility.yul\":172:175   */\n      dup3\n        /* \"#utility.yul\":165:202   */\n      mstore\n        /* \"#utility.yul\":90:208   */\n      pop\n      pop\n      jump\t// out\n        /* \"#utility.yul\":214:436   */\n    tag_21:\n        /* \"#utility.yul\":307:311   */\n      0x00\n        /* \"#utility.yul\":345:347   */\n      0x20\n        /* \"#utility.yul\":334:343   */\n      dup3\n        /* \"#utility.yul\":330:348   */\n      add\n        /* \"#utility.yul\":322:348   */\n      swap1\n      pop\n        /* \"#utility.yul\":358:429   */\n      tag_278\n        /* \"#utility.yul\":426:427   */\n      0x00\n        /* \"#utility.yul\":415:424   */\n      dup4\n        /* \"#utility.yul\":411:428   */\n      add\n        /* \"#utility.yul\":402:408   */\n      dup5\n        /* \"#utility.yul\":358:429   */\n      tag_207\n      jump\t// in\n    tag_278:\n        /* \"#utility.yul\":214:436   */\n      swap3\n      swap2\n      pop\n      pop\n      jump\t// out\n        /* \"#utility.yul\":442:610   */\n    tag_208:\n        /* \"#utility.yul\":525:536   */\n      0x00\n        /* \"#utility.yul\":559:565   */\n      dup3\n        /* \"#utility.yul\":554:557   */\n      dup3\n        /* \"#utility.yul\":547:566   */\n      mstore\n        /* \"#utility.yul\":599:603   */\n      0x20\n        /* \"#utility.yul\":594:597   */\n      dup3\n        /* \"#utility.yul\":590:604   */\n      add\n        /* \"#utility.yul\":575:604   */\n      swap1\n      pop\n        /* \"#utility.yul\":442:610   */\n      swap3\n      swap2\n      pop\n      pop\n      jump\t// out\n        /* \"#utility.yul\":616:762   */\n    tag_209:\n        /* \"#utility.yul\":713:719   */\n      dup3\n        /* \"#utility.yul\":708:711   */\n      dup2\n        /* \"#utility.yul\":703:706   */\n      dup4\n        /* \"#utility.yul\":690:720   */\n      calldatacopy\n        /* \"#utility.yul\":754:755   */\n      0x00\n        /* \"#utility.yul\":745:751   */\n      dup4\n        /* \"#utility.yul\":740:743   */\n      dup4\n        /* \"#utility.yul\":736:752   */\n      add\n        /* \"#utility.yul\":729:756   */\n      mstore\n        /* \"#utility.yul\":616:762   */\n      pop\n      pop\n      pop\n      jump\t// out\n        /* \"#utility.yul\":768:870   */\n    tag_210:\n        /* \"#utility.yul\":809:815   */\n      0x00\n        /* \"#utility.yul\":860:862   */\n      0x1f\n        /* \"#utility.yul\":856:863   */\n      not\n        /* \"#utility.yul\":851:853   */\n      0x1f\n        /* \"#utility.yul\":844:849   */\n      dup4\n        /* \"#utility.yul\":840:854   */\n      add\n        /* \"#utility.yul\":836:864   */\n      and\n        /* \"#utility.yul\":826:864   */\n      swap1\n      pop\n        /* \"#utility.yul\":768:870   */\n      swap2\n      swap1\n      pop\n      jump\t// out\n        /* \"#utility.yul\":898:1212   */\n    tag_211:\n        /* \"#utility.yul\":994:997   */\n      0x00\n        /* \"#utility.yul\":1015:1085   */\n      tag_283\n        /* \"#utility.yul\":1078:1084   */\n      dup4\n        /* \"#utility.yul\":1073:1076   */\n      dup6\n        /* \"#utility.yul\":1015:1085   */\n      tag_208\n      jump\t// in\n    tag_283:\n        /* \"#utility.yul\":1008:1085   */\n      swap4\n      pop\n        /* \"#utility.yul\":1095:1151   */\n      tag_284\n        /* \"#utility.yul\":1144:1150   */\n      dup4\n        /* \"#utility.yul\":1139:1142   */\n      dup6\n        /* \"#utility.yul\":1132:1137   */\n      dup5\n        /* \"#utility.yul\":1095:1151   */\n      tag_209\n      jump\t// in\n    tag_284:\n        /* \"#utility.yul\":1176:1205   */\n      tag_285\n        /* \"#utility.yul\":1198:1204   */\n      dup4\n        /* \"#utility.yul\":1176:1205   */\n      tag_210\n      jump\t// in\n    tag_285:\n        /* \"#utility.yul\":1171:1174   */\n      dup5\n        /* \"#utility.yul\":1167:1206   */\n      add\n        /* \"#utility.yul\":1160:1206   */\n      swap1\n      pop\n        /* \"#utility.yul\":898:1212   */\n      swap4\n      swap3\n      pop\n      pop\n      pop\n      jump\t// out\n        /* \"#utility.yul\":1218:1657   */\n    tag_25:\n        /* \"#utility.yul\":1367:1371   */\n      0x00\n        /* \"#utility.yul\":1405:1407   */\n      0x40\n        /* \"#utility.yul\":1394:1403   */\n      dup3\n        /* \"#utility.yul\":1390:1408   */\n      add\n        /* \"#utility.yul\":1382:1408   */\n      swap1\n      pop\n        /* \"#utility.yul\":1418:1489   */\n      tag_287\n        /* \"#utility.yul\":1486:1487   */\n      0x00\n        /* \"#utility.yul\":1475:1484   */\n      dup4\n        /* \"#utility.yul\":1471:1488   */\n      add\n        /* \"#utility.yul\":1462:1468   */\n      dup7\n        /* \"#utility.yul\":1418:1489   */\n      tag_207\n      jump\t// in\n    tag_287:\n        /* \"#utility.yul\":1536:1545   */\n      dup2\n        /* \"#utility.yul\":1530:1534   */\n      dup2\n        /* \"#utility.yul\":1526:1546   */\n      sub\n        /* \"#utility.yul\":1521:1523   */\n      0x20\n        /* \"#utility.yul\":1510:1519   */\n      dup4\n        /* \"#utility.yul\":1506:1524   */\n      add\n        /* \"#utility.yul\":1499:1547   */\n      mstore\n        /* \"#utility.yul\":1564:1650   */\n      tag_288\n        /* \"#utility.yul\":1645:1649   */\n      dup2\n        /* \"#utility.yul\":1636:1642   */\n      dup5\n        /* \"#utility.yul\":1628:1634   */\n      dup7\n        /* \"#utility.yul\":1564:1650   */\n      tag_211\n      jump\t// in\n    tag_288:\n        /* \"#utility.yul\":1556:1650   */\n      swap1\n      pop\n        /* \"#utility.yul\":1218:1657   */\n      swap5\n      swap4\n      pop\n      pop\n      pop\n      pop\n      jump\t// out\n        /* \"#utility.yul\":1663:1777   */\n    tag_212:\n        /* \"#utility.yul\":1730:1736   */\n      0x00\n        /* \"#utility.yul\":1764:1769   */\n      dup2\n        /* \"#utility.yul\":1758:1770   */\n      mload\n        /* \"#utility.yul\":1748:1770   */\n      swap1\n      pop\n        /* \"#utility.yul\":1663:1777   */\n      swap2\n      swap1\n      pop\n      jump\t// out\n        /* \"#utility.yul\":1783:1967   */\n    tag_213:\n        /* \"#utility.yul\":1882:1893   */\n      0x00\n        /* \"#utility.yul\":1916:1922   */\n      dup3\n        /* \"#utility.yul\":1911:1914   */\n      dup3\n        /* \"#utility.yul\":1904:1923   */\n      mstore\n        /* \"#utility.yul\":1956:1960   */\n      0x20\n        /* \"#utility.yul\":1951:1954   */\n      dup3\n        /* \"#utility.yul\":1947:1961   */\n      add\n        /* \"#utility.yul\":1932:1961   */\n      swap1\n      pop\n        /* \"#utility.yul\":1783:1967   */\n      swap3\n      swap2\n      pop\n      pop\n      jump\t// out\n        /* \"#utility.yul\":1973:2105   */\n    tag_214:\n        /* \"#utility.yul\":2040:2044   */\n      0x00\n        /* \"#utility.yul\":2063:2066   */\n      dup2\n        /* \"#utility.yul\":2055:2066   */\n      swap1\n      pop\n        /* \"#utility.yul\":2093:2097   */\n      0x20\n        /* \"#utility.yul\":2088:2091   */\n      dup3\n        /* \"#utility.yul\":2084:2098   */\n      add\n        /* \"#utility.yul\":2076:2098   */\n      swap1\n      pop\n        /* \"#utility.yul\":1973:2105   */\n      swap2\n      swap1\n      pop\n      jump\t// out\n        /* \"#utility.yul\":2111:2237   */\n    tag_215:\n        /* \"#utility.yul\":2148:2155   */\n      0x00\n        /* \"#utility.yul\":2188:2230   */\n      0xffffffffffffffffffffffffffffffffffffffff\n        /* \"#utility.yul\":2181:2186   */\n      dup3\n        /* \"#utility.yul\":2177:2231   */\n      and\n        /* \"#utility.yul\":2166:2231   */\n      swap1\n      pop\n        /* \"#utility.yul\":2111:2237   */\n      swap2\n      swap1\n      pop\n      jump\t// out\n        /* \"#utility.yul\":2243:2339   */\n    tag_216:\n        /* \"#utility.yul\":2280:2287   */\n      0x00\n        /* \"#utility.yul\":2309:2333   */\n      tag_294\n        /* \"#utility.yul\":2327:2332   */\n      dup3\n        /* \"#utility.yul\":2309:2333   */\n      tag_215\n      jump\t// in\n    tag_294:\n        /* \"#utility.yul\":2298:2333   */\n      swap1\n      pop\n        /* \"#utility.yul\":2243:2339   */\n      swap2\n      swap1\n      pop\n      jump\t// out\n        /* \"#utility.yul\":2345:2453   */\n    tag_217:\n        /* \"#utility.yul\":2422:2446   */\n      tag_296\n        /* \"#utility.yul\":2440:2445   */\n      dup2\n        /* \"#utility.yul\":2422:2446   */\n      tag_216\n      jump\t// in\n    tag_296:\n        /* \"#utility.yul\":2417:2420   */\n      dup3\n        /* \"#utility.yul\":2410:2447   */\n      mstore\n        /* \"#utility.yul\":2345:2453   */\n      pop\n      pop\n      jump\t// out\n        /* \"#utility.yul\":2459:2638   */\n    tag_218:\n        /* \"#utility.yul\":2528:2538   */\n      0x00\n        /* \"#utility.yul\":2549:2595   */\n      tag_298\n        /* \"#utility.yul\":2591:2594   */\n      dup4\n        /* \"#utility.yul\":2583:2589   */\n      dup4\n        /* \"#utility.yul\":2549:2595   */\n      tag_217\n      jump\t// in\n    tag_298:\n        /* \"#utility.yul\":2627:2631   */\n      0x20\n        /* \"#utility.yul\":2622:2625   */\n      dup4\n        /* \"#utility.yul\":2618:2632   */\n      add\n        /* \"#utility.yul\":2604:2632   */\n      swap1\n      pop\n        /* \"#utility.yul\":2459:2638   */\n      swap3\n      swap2\n      pop\n      pop\n      jump\t// out\n        /* \"#utility.yul\":2644:2757   */\n    tag_219:\n        /* \"#utility.yul\":2714:2718   */\n      0x00\n        /* \"#utility.yul\":2746:2750   */\n      0x20\n        /* \"#utility.yul\":2741:2744   */\n      dup3\n        /* \"#utility.yul\":2737:2751   */\n      add\n        /* \"#utility.yul\":2729:2751   */\n      swap1\n      pop\n        /* \"#utility.yul\":2644:2757   */\n      swap2\n      swap1\n      pop\n      jump\t// out\n        /* \"#utility.yul\":2793:3525   */\n    tag_220:\n        /* \"#utility.yul\":2912:2915   */\n      0x00\n        /* \"#utility.yul\":2941:2995   */\n      tag_301\n        /* \"#utility.yul\":2989:2994   */\n      dup3\n        /* \"#utility.yul\":2941:2995   */\n      tag_212\n      jump\t// in\n    tag_301:\n        /* \"#utility.yul\":3011:3097   */\n      tag_302\n        /* \"#utility.yul\":3090:3096   */\n      dup2\n        /* \"#utility.yul\":3085:3088   */\n      dup6\n        /* \"#utility.yul\":3011:3097   */\n      tag_213\n      jump\t// in\n    tag_302:\n        /* \"#utility.yul\":3004:3097   */\n      swap4\n      pop\n        /* \"#utility.yul\":3121:3177   */\n      tag_303\n        /* \"#utility.yul\":3171:3176   */\n      dup4\n        /* \"#utility.yul\":3121:3177   */\n      tag_214\n      jump\t// in\n    tag_303:\n        /* \"#utility.yul\":3200:3207   */\n      dup1\n        /* \"#utility.yul\":3231:3232   */\n      0x00\n        /* \"#utility.yul\":3216:3500   */\n    tag_304:\n        /* \"#utility.yul\":3241:3247   */\n      dup4\n        /* \"#utility.yul\":3238:3239   */\n      dup2\n        /* \"#utility.yul\":3235:3248   */\n      lt\n        /* \"#utility.yul\":3216:3500   */\n      iszero\n      tag_306\n      jumpi\n        /* \"#utility.yul\":3317:3323   */\n      dup2\n        /* \"#utility.yul\":3311:3324   */\n      mload\n        /* \"#utility.yul\":3344:3407   */\n      tag_307\n        /* \"#utility.yul\":3403:3406   */\n      dup9\n        /* \"#utility.yul\":3388:3401   */\n      dup3\n        /* \"#utility.yul\":3344:3407   */\n      tag_218\n      jump\t// in\n    tag_307:\n        /* \"#utility.yul\":3337:3407   */\n      swap8\n      pop\n        /* \"#utility.yul\":3430:3490   */\n      tag_308\n        /* \"#utility.yul\":3483:3489   */\n      dup4\n        /* \"#utility.yul\":3430:3490   */\n      tag_219\n      jump\t// in\n    tag_308:\n        /* \"#utility.yul\":3420:3490   */\n      swap3\n      pop\n        /* \"#utility.yul\":3276:3500   */\n      pop\n        /* \"#utility.yul\":3263:3264   */\n      0x01\n        /* \"#utility.yul\":3260:3261   */\n      dup2\n        /* \"#utility.yul\":3256:3265   */\n      add\n        /* \"#utility.yul\":3251:3265   */\n      swap1\n      pop\n        /* \"#utility.yul\":3216:3500   */\n      jump(tag_304)\n    tag_306:\n        /* \"#utility.yul\":3220:3234   */\n      pop\n        /* \"#utility.yul\":3516:3519   */\n      dup6\n        /* \"#utility.yul\":3509:3519   */\n      swap4\n      pop\n        /* \"#utility.yul\":2917:3525   */\n      pop\n      pop\n      pop\n        /* \"#utility.yul\":2793:3525   */\n      swap3\n      swap2\n      pop\n      pop\n      jump\t// out\n        /* \"#utility.yul\":3531:3904   */\n    tag_30:\n        /* \"#utility.yul\":3674:3678   */\n      0x00\n        /* \"#utility.yul\":3712:3714   */\n      0x20\n        /* \"#utility.yul\":3701:3710   */\n      dup3\n        /* \"#utility.yul\":3697:3715   */\n      add\n        /* \"#utility.yul\":3689:3715   */\n      swap1\n      pop\n        /* \"#utility.yul\":3761:3770   */\n      dup2\n        /* \"#utility.yul\":3755:3759   */\n      dup2\n        /* \"#utility.yul\":3751:3771   */\n      sub\n        /* \"#utility.yul\":3747:3748   */\n      0x00\n        /* \"#utility.yul\":3736:3745   */\n      dup4\n        /* \"#utility.yul\":3732:3749   */\n      add\n        /* \"#utility.yul\":3725:3772   */\n      mstore\n        /* \"#utility.yul\":3789:3897   */\n      tag_310\n        /* \"#utility.yul\":3892:3896   */\n      dup2\n        /* \"#utility.yul\":3883:3889   */\n      dup5\n        /* \"#utility.yul\":3789:3897   */\n      tag_220\n      jump\t// in\n    tag_310:\n        /* \"#utility.yul\":3781:3897   */\n      swap1\n      pop\n        /* \"#utility.yul\":3531:3904   */\n      swap3\n      swap2\n      pop\n      pop\n      jump\t// out\n        /* \"#utility.yul\":3910:3985   */\n    tag_221:\n        /* \"#utility.yul\":3943:3949   */\n      0x00\n        /* \"#utility.yul\":3976:3978   */\n      0x40\n        /* \"#utility.yul\":3970:3979   */\n      mload\n        /* \"#utility.yul\":3960:3979   */\n      swap1\n      pop\n        /* \"#utility.yul\":3910:3985   */\n      swap1\n      jump\t// out\n        /* \"#utility.yul\":3991:4108   */\n    tag_222:\n        /* \"#utility.yul\":4100:4101   */\n      0x00\n        /* \"#utility.yul\":4097:4098   */\n      dup1\n        /* \"#utility.yul\":4090:4102   */\n      revert\n        /* \"#utility.yul\":4114:4231   */\n    tag_223:\n        /* \"#utility.yul\":4223:4224   */\n      0x00\n        /* \"#utility.yul\":4220:4221   */\n      dup1\n        /* \"#utility.yul\":4213:4225   */\n      revert\n        /* \"#utility.yul\":4237:4359   */\n    tag_224:\n        /* \"#utility.yul\":4310:4334   */\n      tag_315\n        /* \"#utility.yul\":4328:4333   */\n      dup2\n        /* \"#utility.yul\":4310:4334   */\n      tag_216\n      jump\t// in\n    tag_315:\n        /* \"#utility.yul\":4303:4308   */\n      dup2\n        /* \"#utility.yul\":4300:4335   */\n      eq\n        /* \"#utility.yul\":4290:4353   */\n      tag_316\n      jumpi\n        /* \"#utility.yul\":4349:4350   */\n      0x00\n        /* \"#utility.yul\":4346:4347   */\n      dup1\n        /* \"#utility.yul\":4339:4351   */\n      revert\n        /* \"#utility.yul\":4290:4353   */\n    tag_316:\n        /* \"#utility.yul\":4237:4359   */\n      pop\n      jump\t// out\n        /* \"#utility.yul\":4365:4504   */\n    tag_225:\n        /* \"#utility.yul\":4411:4416   */\n      0x00\n        /* \"#utility.yul\":4449:4455   */\n      dup2\n        /* \"#utility.yul\":4436:4456   */\n      calldataload\n        /* \"#utility.yul\":4427:4456   */\n      swap1\n      pop\n        /* \"#utility.yul\":4465:4498   */\n      tag_318\n        /* \"#utility.yul\":4492:4497   */\n      dup2\n        /* \"#utility.yul\":4465:4498   */\n      tag_224\n      jump\t// in\n    tag_318:\n        /* \"#utility.yul\":4365:4504   */\n      swap3\n      swap2\n      pop\n      pop\n      jump\t// out\n        /* \"#utility.yul\":4510:4632   */\n    tag_226:\n        /* \"#utility.yul\":4583:4607   */\n      tag_320\n        /* \"#utility.yul\":4601:4606   */\n      dup2\n        /* \"#utility.yul\":4583:4607   */\n      tag_206\n      jump\t// in\n    tag_320:\n        /* \"#utility.yul\":4576:4581   */\n      dup2\n        /* \"#utility.yul\":4573:4608   */\n      eq\n        /* \"#utility.yul\":4563:4626   */\n      tag_321\n      jumpi\n        /* \"#utility.yul\":4622:4623   */\n      0x00\n        /* \"#utility.yul\":4619:4620   */\n      dup1\n        /* \"#utility.yul\":4612:4624   */\n      revert\n        /* \"#utility.yul\":4563:4626   */\n    tag_321:\n        /* \"#utility.yul\":4510:4632   */\n      pop\n      jump\t// out\n        /* \"#utility.yul\":4638:4777   */\n    tag_227:\n        /* \"#utility.yul\":4684:4689   */\n      0x00\n        /* \"#utility.yul\":4722:4728   */\n      dup2\n        /* \"#utility.yul\":4709:4729   */\n      calldataload\n        /* \"#utility.yul\":4700:4729   */\n      swap1\n      pop\n        /* \"#utility.yul\":4738:4771   */\n      tag_323\n        /* \"#utility.yul\":4765:4770   */\n      dup2\n        /* \"#utility.yul\":4738:4771   */\n      tag_226\n      jump\t// in\n    tag_323:\n        /* \"#utility.yul\":4638:4777   */\n      swap3\n      swap2\n      pop\n      pop\n      jump\t// out\n        /* \"#utility.yul\":4783:4900   */\n    tag_228:\n        /* \"#utility.yul\":4892:4893   */\n      0x00\n        /* \"#utility.yul\":4889:4890   */\n      dup1\n        /* \"#utility.yul\":4882:4894   */\n      revert\n        /* \"#utility.yul\":4906:5023   */\n    tag_229:\n        /* \"#utility.yul\":5015:5016   */\n      0x00\n        /* \"#utility.yul\":5012:5013   */\n      dup1\n        /* \"#utility.yul\":5005:5017   */\n      revert\n        /* \"#utility.yul\":5029:5146   */\n    tag_230:\n        /* \"#utility.yul\":5138:5139   */\n      0x00\n        /* \"#utility.yul\":5135:5136   */\n      dup1\n        /* \"#utility.yul\":5128:5140   */\n      revert\n        /* \"#utility.yul\":5165:5717   */\n    tag_231:\n        /* \"#utility.yul\":5222:5230   */\n      0x00\n        /* \"#utility.yul\":5232:5238   */\n      dup1\n        /* \"#utility.yul\":5282:5285   */\n      dup4\n        /* \"#utility.yul\":5275:5279   */\n      0x1f\n        /* \"#utility.yul\":5267:5273   */\n      dup5\n        /* \"#utility.yul\":5263:5280   */\n      add\n        /* \"#utility.yul\":5259:5286   */\n      slt\n        /* \"#utility.yul\":5249:5371   */\n      tag_328\n      jumpi\n        /* \"#utility.yul\":5290:5369   */\n      tag_329\n      tag_228\n      jump\t// in\n    tag_329:\n        /* \"#utility.yul\":5249:5371   */\n    tag_328:\n        /* \"#utility.yul\":5403:5409   */\n      dup3\n        /* \"#utility.yul\":5390:5410   */\n      calldataload\n        /* \"#utility.yul\":5380:5410   */\n      swap1\n      pop\n        /* \"#utility.yul\":5433:5451   */\n      0xffffffffffffffff\n        /* \"#utility.yul\":5425:5431   */\n      dup2\n        /* \"#utility.yul\":5422:5452   */\n      gt\n        /* \"#utility.yul\":5419:5536   */\n      iszero\n      tag_330\n      jumpi\n        /* \"#utility.yul\":5455:5534   */\n      tag_331\n      tag_229\n      jump\t// in\n    tag_331:\n        /* \"#utility.yul\":5419:5536   */\n    tag_330:\n        /* \"#utility.yul\":5569:5573   */\n      0x20\n        /* \"#utility.yul\":5561:5567   */\n      dup4\n        /* \"#utility.yul\":5557:5574   */\n      add\n        /* \"#utility.yul\":5545:5574   */\n      swap2\n      pop\n        /* \"#utility.yul\":5623:5626   */\n      dup4\n        /* \"#utility.yul\":5615:5619   */\n      0x01\n        /* \"#utility.yul\":5607:5613   */\n      dup3\n        /* \"#utility.yul\":5603:5620   */\n      mul\n        /* \"#utility.yul\":5593:5601   */\n      dup4\n        /* \"#utility.yul\":5589:5621   */\n      add\n        /* \"#utility.yul\":5586:5627   */\n      gt\n        /* \"#utility.yul\":5583:5711   */\n      iszero\n      tag_332\n      jumpi\n        /* \"#utility.yul\":5630:5709   */\n      tag_333\n      tag_230\n      jump\t// in\n    tag_333:\n        /* \"#utility.yul\":5583:5711   */\n    tag_332:\n        /* \"#utility.yul\":5165:5717   */\n      swap3\n      pop\n      swap3\n      swap1\n      pop\n      jump\t// out\n        /* \"#utility.yul\":5723:5840   */\n    tag_232:\n        /* \"#utility.yul\":5832:5833   */\n      0x00\n        /* \"#utility.yul\":5829:5830   */\n      dup1\n        /* \"#utility.yul\":5822:5834   */\n      revert\n        /* \"#utility.yul\":5846:6026   */\n    tag_96:\n        /* \"#utility.yul\":5894:5971   */\n      0x4e487b7100000000000000000000000000000000000000000000000000000000\n        /* \"#utility.yul\":5891:5892   */\n      0x00\n        /* \"#utility.yul\":5884:5972   */\n      mstore\n        /* \"#utility.yul\":5991:5995   */\n      0x41\n        /* \"#utility.yul\":5988:5989   */\n      0x04\n        /* \"#utility.yul\":5981:5996   */\n      mstore\n        /* \"#utility.yul\":6015:6019   */\n      0x24\n        /* \"#utility.yul\":6012:6013   */\n      0x00\n        /* \"#utility.yul\":6005:6020   */\n      revert\n        /* \"#utility.yul\":6032:6313   */\n    tag_233:\n        /* \"#utility.yul\":6115:6142   */\n      tag_337\n        /* \"#utility.yul\":6137:6141   */\n      dup3\n        /* \"#utility.yul\":6115:6142   */\n      tag_210\n      jump\t// in\n    tag_337:\n        /* \"#utility.yul\":6107:6113   */\n      dup2\n        /* \"#utility.yul\":6103:6143   */\n      add\n        /* \"#utility.yul\":6245:6251   */\n      dup2\n        /* \"#utility.yul\":6233:6243   */\n      dup2\n        /* \"#utility.yul\":6230:6252   */\n      lt\n        /* \"#utility.yul\":6209:6227   */\n      0xffffffffffffffff\n        /* \"#utility.yul\":6197:6207   */\n      dup3\n        /* \"#utility.yul\":6194:6228   */\n      gt\n        /* \"#utility.yul\":6191:6253   */\n      or\n        /* \"#utility.yul\":6188:6276   */\n      iszero\n      tag_338\n      jumpi\n        /* \"#utility.yul\":6256:6274   */\n      tag_339\n      tag_96\n      jump\t// in\n    tag_339:\n        /* \"#utility.yul\":6188:6276   */\n    tag_338:\n        /* \"#utility.yul\":6296:6306   */\n      dup1\n        /* \"#utility.yul\":6292:6294   */\n      0x40\n        /* \"#utility.yul\":6285:6307   */\n      mstore\n        /* \"#utility.yul\":6075:6313   */\n      pop\n        /* \"#utility.yul\":6032:6313   */\n      pop\n      pop\n      jump\t// out\n        /* \"#utility.yul\":6319:6448   */\n    tag_234:\n        /* \"#utility.yul\":6353:6359   */\n      0x00\n        /* \"#utility.yul\":6380:6400   */\n      tag_341\n      tag_221\n      jump\t// in\n    tag_341:\n        /* \"#utility.yul\":6370:6400   */\n      swap1\n      pop\n        /* \"#utility.yul\":6409:6442   */\n      tag_342\n        /* \"#utility.yul\":6437:6441   */\n      dup3\n        /* \"#utility.yul\":6429:6435   */\n      dup3\n        /* \"#utility.yul\":6409:6442   */\n      tag_233\n      jump\t// in\n    tag_342:\n        /* \"#utility.yul\":6319:6448   */\n      swap2\n      swap1\n      pop\n      jump\t// out\n        /* \"#utility.yul\":6454:6761   */\n    tag_235:\n        /* \"#utility.yul\":6515:6519   */\n      0x00\n        /* \"#utility.yul\":6605:6623   */\n      0xffffffffffffffff\n        /* \"#utility.yul\":6597:6603   */\n      dup3\n        /* \"#utility.yul\":6594:6624   */\n      gt\n        /* \"#utility.yul\":6591:6647   */\n      iszero\n      tag_344\n      jumpi\n        /* \"#utility.yul\":6627:6645   */\n      tag_345\n      tag_96\n      jump\t// in\n    tag_345:\n        /* \"#utility.yul\":6591:6647   */\n    tag_344:\n        /* \"#utility.yul\":6665:6694   */\n      tag_346\n        /* \"#utility.yul\":6687:6693   */\n      dup3\n        /* \"#utility.yul\":6665:6694   */\n      tag_210\n      jump\t// in\n    tag_346:\n        /* \"#utility.yul\":6657:6694   */\n      swap1\n      pop\n        /* \"#utility.yul\":6749:6753   */\n      0x20\n        /* \"#utility.yul\":6743:6747   */\n      dup2\n        /* \"#utility.yul\":6739:6754   */\n      add\n        /* \"#utility.yul\":6731:6754   */\n      swap1\n      pop\n        /* \"#utility.yul\":6454:6761   */\n      swap2\n      swap1\n      pop\n      jump\t// out\n        /* \"#utility.yul\":6767:7190   */\n    tag_236:\n        /* \"#utility.yul\":6844:6849   */\n      0x00\n        /* \"#utility.yul\":6869:6934   */\n      tag_348\n        /* \"#utility.yul\":6885:6933   */\n      tag_349\n        /* \"#utility.yul\":6926:6932   */\n      dup5\n        /* \"#utility.yul\":6885:6933   */\n      tag_235\n      jump\t// in\n    tag_349:\n        /* \"#utility.yul\":6869:6934   */\n      tag_234\n      jump\t// in\n    tag_348:\n        /* \"#utility.yul\":6860:6934   */\n      swap1\n      pop\n        /* \"#utility.yul\":6957:6963   */\n      dup3\n        /* \"#utility.yul\":6950:6955   */\n      dup2\n        /* \"#utility.yul\":6943:6964   */\n      mstore\n        /* \"#utility.yul\":6995:6999   */\n      0x20\n        /* \"#utility.yul\":6988:6993   */\n      dup2\n        /* \"#utility.yul\":6984:7000   */\n      add\n        /* \"#utility.yul\":7033:7036   */\n      dup5\n        /* \"#utility.yul\":7024:7030   */\n      dup5\n        /* \"#utility.yul\":7019:7022   */\n      dup5\n        /* \"#utility.yul\":7015:7031   */\n      add\n        /* \"#utility.yul\":7012:7037   */\n      gt\n        /* \"#utility.yul\":7009:7121   */\n      iszero\n      tag_350\n      jumpi\n        /* \"#utility.yul\":7040:7119   */\n      tag_351\n      tag_232\n      jump\t// in\n    tag_351:\n        /* \"#utility.yul\":7009:7121   */\n    tag_350:\n        /* \"#utility.yul\":7130:7184   */\n      tag_352\n        /* \"#utility.yul\":7177:7183   */\n      dup5\n        /* \"#utility.yul\":7172:7175   */\n      dup3\n        /* \"#utility.yul\":7167:7170   */\n      dup6\n        /* \"#utility.yul\":7130:7184   */\n      tag_209\n      jump\t// in\n    tag_352:\n        /* \"#utility.yul\":6850:7190   */\n      pop\n        /* \"#utility.yul\":6767:7190   */\n      swap4\n      swap3\n      pop\n      pop\n      pop\n      jump\t// out\n        /* \"#utility.yul\":7209:7547   */\n    tag_237:\n        /* \"#utility.yul\":7264:7269   */\n      0x00\n        /* \"#utility.yul\":7313:7316   */\n      dup3\n        /* \"#utility.yul\":7306:7310   */\n      0x1f\n        /* \"#utility.yul\":7298:7304   */\n      dup4\n        /* \"#utility.yul\":7294:7311   */\n      add\n        /* \"#utility.yul\":7290:7317   */\n      slt\n        /* \"#utility.yul\":7280:7402   */\n      tag_354\n      jumpi\n        /* \"#utility.yul\":7321:7400   */\n      tag_355\n      tag_228\n      jump\t// in\n    tag_355:\n        /* \"#utility.yul\":7280:7402   */\n    tag_354:\n        /* \"#utility.yul\":7438:7444   */\n      dup2\n        /* \"#utility.yul\":7425:7445   */\n      calldataload\n        /* \"#utility.yul\":7463:7541   */\n      tag_356\n        /* \"#utility.yul\":7537:7540   */\n      dup5\n        /* \"#utility.yul\":7529:7535   */\n      dup3\n        /* \"#utility.yul\":7522:7526   */\n      0x20\n        /* \"#utility.yul\":7514:7520   */\n      dup7\n        /* \"#utility.yul\":7510:7527   */\n      add\n        /* \"#utility.yul\":7463:7541   */\n      tag_236\n      jump\t// in\n    tag_356:\n        /* \"#utility.yul\":7454:7541   */\n      swap2\n      pop\n        /* \"#utility.yul\":7270:7547   */\n      pop\n        /* \"#utility.yul\":7209:7547   */\n      swap3\n      swap2\n      pop\n      pop\n      jump\t// out\n        /* \"#utility.yul\":7553:8694   */\n    tag_37:\n        /* \"#utility.yul\":7659:7665   */\n      0x00\n        /* \"#utility.yul\":7667:7673   */\n      dup1\n        /* \"#utility.yul\":7675:7681   */\n      0x00\n        /* \"#utility.yul\":7683:7689   */\n      dup1\n        /* \"#utility.yul\":7691:7697   */\n      0x00\n        /* \"#utility.yul\":7740:7743   */\n      0x80\n        /* \"#utility.yul\":7728:7737   */\n      dup7\n        /* \"#utility.yul\":7719:7726   */\n      dup9\n        /* \"#utility.yul\":7715:7738   */\n      sub\n        /* \"#utility.yul\":7711:7744   */\n      slt\n        /* \"#utility.yul\":7708:7828   */\n      iszero\n      tag_358\n      jumpi\n        /* \"#utility.yul\":7747:7826   */\n      tag_359\n      tag_222\n      jump\t// in\n    tag_359:\n        /* \"#utility.yul\":7708:7828   */\n    tag_358:\n        /* \"#utility.yul\":7867:7868   */\n      0x00\n        /* \"#utility.yul\":7892:7945   */\n      tag_360\n        /* \"#utility.yul\":7937:7944   */\n      dup9\n        /* \"#utility.yul\":7928:7934   */\n      dup3\n        /* \"#utility.yul\":7917:7926   */\n      dup10\n        /* \"#utility.yul\":7913:7935   */\n      add\n        /* \"#utility.yul\":7892:7945   */\n      tag_225\n      jump\t// in\n    tag_360:\n        /* \"#utility.yul\":7882:7945   */\n      swap6\n      pop\n        /* \"#utility.yul\":7838:7955   */\n      pop\n        /* \"#utility.yul\":7994:7996   */\n      0x20\n        /* \"#utility.yul\":8020:8073   */\n      tag_361\n        /* \"#utility.yul\":8065:8072   */\n      dup9\n        /* \"#utility.yul\":8056:8062   */\n      dup3\n        /* \"#utility.yul\":8045:8054   */\n      dup10\n        /* \"#utility.yul\":8041:8063   */\n      add\n        /* \"#utility.yul\":8020:8073   */\n      tag_227\n      jump\t// in\n    tag_361:\n        /* \"#utility.yul\":8010:8073   */\n      swap5\n      pop\n        /* \"#utility.yul\":7965:8083   */\n      pop\n        /* \"#utility.yul\":8150:8152   */\n      0x40\n        /* \"#utility.yul\":8139:8148   */\n      dup7\n        /* \"#utility.yul\":8135:8153   */\n      add\n        /* \"#utility.yul\":8122:8154   */\n      calldataload\n        /* \"#utility.yul\":8181:8199   */\n      0xffffffffffffffff\n        /* \"#utility.yul\":8173:8179   */\n      dup2\n        /* \"#utility.yul\":8170:8200   */\n      gt\n        /* \"#utility.yul\":8167:8284   */\n      iszero\n      tag_362\n      jumpi\n        /* \"#utility.yul\":8203:8282   */\n      tag_363\n      tag_223\n      jump\t// in\n    tag_363:\n        /* \"#utility.yul\":8167:8284   */\n    tag_362:\n        /* \"#utility.yul\":8316:8380   */\n      tag_364\n        /* \"#utility.yul\":8372:8379   */\n      dup9\n        /* \"#utility.yul\":8363:8369   */\n      dup3\n        /* \"#utility.yul\":8352:8361   */\n      dup10\n        /* \"#utility.yul\":8348:8370   */\n      add\n        /* \"#utility.yul\":8316:8380   */\n      tag_231\n      jump\t// in\n    tag_364:\n        /* \"#utility.yul\":8298:8380   */\n      swap4\n      pop\n      swap4\n      pop\n        /* \"#utility.yul\":8093:8390   */\n      pop\n        /* \"#utility.yul\":8457:8459   */\n      0x60\n        /* \"#utility.yul\":8446:8455   */\n      dup7\n        /* \"#utility.yul\":8442:8460   */\n      add\n        /* \"#utility.yul\":8429:8461   */\n      calldataload\n        /* \"#utility.yul\":8488:8506   */\n      0xffffffffffffffff\n        /* \"#utility.yul\":8480:8486   */\n      dup2\n        /* \"#utility.yul\":8477:8507   */\n      gt\n        /* \"#utility.yul\":8474:8591   */\n      iszero\n      tag_365\n      jumpi\n        /* \"#utility.yul\":8510:8589   */\n      tag_366\n      tag_223\n      jump\t// in\n    tag_366:\n        /* \"#utility.yul\":8474:8591   */\n    tag_365:\n        /* \"#utility.yul\":8615:8677   */\n      tag_367\n        /* \"#utility.yul\":8669:8676   */\n      dup9\n        /* \"#utility.yul\":8660:8666   */\n      dup3\n        /* \"#utility.yul\":8649:8658   */\n      dup10\n        /* \"#utility.yul\":8645:8667   */\n      add\n        /* \"#utility.yul\":8615:8677   */\n      tag_237\n      jump\t// in\n    tag_367:\n        /* \"#utility.yul\":8605:8677   */\n      swap2\n      pop\n        /* \"#utility.yul\":8400:8687   */\n      pop\n        /* \"#utility.yul\":7553:8694   */\n      swap3\n      swap6\n      pop\n      swap3\n      swap6\n      swap1\n      swap4\n      pop\n      jump\t// out\n        /* \"#utility.yul\":8700:8790   */\n    tag_238:\n        /* \"#utility.yul\":8734:8741   */\n      0x00\n        /* \"#utility.yul\":8777:8782   */\n      dup2\n        /* \"#utility.yul\":8770:8783   */\n      iszero\n        /* \"#utility.yul\":8763:8784   */\n      iszero\n        /* \"#utility.yul\":8752:8784   */\n      swap1\n      pop\n        /* \"#utility.yul\":8700:8790   */\n      swap2\n      swap1\n      pop\n      jump\t// out\n        /* \"#utility.yul\":8796:8905   */\n    tag_239:\n        /* \"#utility.yul\":8877:8898   */\n      tag_370\n        /* \"#utility.yul\":8892:8897   */\n      dup2\n        /* \"#utility.yul\":8877:8898   */\n      tag_238\n      jump\t// in\n    tag_370:\n        /* \"#utility.yul\":8872:8875   */\n      dup3\n        /* \"#utility.yul\":8865:8899   */\n      mstore\n        /* \"#utility.yul\":8796:8905   */\n      pop\n      pop\n      jump\t// out\n        /* \"#utility.yul\":8911:9121   */\n    tag_40:\n        /* \"#utility.yul\":8998:9002   */\n      0x00\n        /* \"#utility.yul\":9036:9038   */\n      0x20\n        /* \"#utility.yul\":9025:9034   */\n      dup3\n        /* \"#utility.yul\":9021:9039   */\n      add\n        /* \"#utility.yul\":9013:9039   */\n      swap1\n      pop\n        /* \"#utility.yul\":9049:9114   */\n      tag_372\n        /* \"#utility.yul\":9111:9112   */\n      0x00\n        /* \"#utility.yul\":9100:9109   */\n      dup4\n        /* \"#utility.yul\":9096:9113   */\n      add\n        /* \"#utility.yul\":9087:9093   */\n      dup5\n        /* \"#utility.yul\":9049:9114   */\n      tag_239\n      jump\t// in\n    tag_372:\n        /* \"#utility.yul\":8911:9121   */\n      swap3\n      swap2\n      pop\n      pop\n      jump\t// out\n        /* \"#utility.yul\":9127:9601   */\n    tag_44:\n        /* \"#utility.yul\":9195:9201   */\n      0x00\n        /* \"#utility.yul\":9203:9209   */\n      dup1\n        /* \"#utility.yul\":9252:9254   */\n      0x40\n        /* \"#utility.yul\":9240:9249   */\n      dup4\n        /* \"#utility.yul\":9231:9238   */\n      dup6\n        /* \"#utility.yul\":9227:9250   */\n      sub\n        /* \"#utility.yul\":9223:9255   */\n      slt\n        /* \"#utility.yul\":9220:9339   */\n      iszero\n      tag_374\n      jumpi\n        /* \"#utility.yul\":9258:9337   */\n      tag_375\n      tag_222\n      jump\t// in\n    tag_375:\n        /* \"#utility.yul\":9220:9339   */\n    tag_374:\n        /* \"#utility.yul\":9378:9379   */\n      0x00\n        /* \"#utility.yul\":9403:9456   */\n      tag_376\n        /* \"#utility.yul\":9448:9455   */\n      dup6\n        /* \"#utility.yul\":9439:9445   */\n      dup3\n        /* \"#utility.yul\":9428:9437   */\n      dup7\n        /* \"#utility.yul\":9424:9446   */\n      add\n        /* \"#utility.yul\":9403:9456   */\n      tag_225\n      jump\t// in\n    tag_376:\n        /* \"#utility.yul\":9393:9456   */\n      swap3\n      pop\n        /* \"#utility.yul\":9349:9466   */\n      pop\n        /* \"#utility.yul\":9505:9507   */\n      0x20\n        /* \"#utility.yul\":9531:9584   */\n      tag_377\n        /* \"#utility.yul\":9576:9583   */\n      dup6\n        /* \"#utility.yul\":9567:9573   */\n      dup3\n        /* \"#utility.yul\":9556:9565   */\n      dup7\n        /* \"#utility.yul\":9552:9574   */\n      add\n        /* \"#utility.yul\":9531:9584   */\n      tag_227\n      jump\t// in\n    tag_377:\n        /* \"#utility.yul\":9521:9584   */\n      swap2\n      pop\n        /* \"#utility.yul\":9476:9594   */\n      pop\n        /* \"#utility.yul\":9127:9601   */\n      swap3\n      pop\n      swap3\n      swap1\n      pop\n      jump\t// out\n        /* \"#utility.yul\":9607:9705   */\n    tag_240:\n        /* \"#utility.yul\":9658:9664   */\n      0x00\n        /* \"#utility.yul\":9692:9697   */\n      dup2\n        /* \"#utility.yul\":9686:9698   */\n      mload\n        /* \"#utility.yul\":9676:9698   */\n      swap1\n      pop\n        /* \"#utility.yul\":9607:9705   */\n      swap2\n      swap1\n      pop\n      jump\t// out\n        /* \"#utility.yul\":9711:9957   */\n    tag_241:\n        /* \"#utility.yul\":9792:9793   */\n      0x00\n        /* \"#utility.yul\":9802:9915   */\n    tag_380:\n        /* \"#utility.yul\":9816:9822   */\n      dup4\n        /* \"#utility.yul\":9813:9814   */\n      dup2\n        /* \"#utility.yul\":9810:9823   */\n      lt\n        /* \"#utility.yul\":9802:9915   */\n      iszero\n      tag_382\n      jumpi\n        /* \"#utility.yul\":9901:9902   */\n      dup1\n        /* \"#utility.yul\":9896:9899   */\n      dup3\n        /* \"#utility.yul\":9892:9903   */\n      add\n        /* \"#utility.yul\":9886:9904   */\n      mload\n        /* \"#utility.yul\":9882:9883   */\n      dup2\n        /* \"#utility.yul\":9877:9880   */\n      dup5\n        /* \"#utility.yul\":9873:9884   */\n      add\n        /* \"#utility.yul\":9866:9905   */\n      mstore\n        /* \"#utility.yul\":9838:9840   */\n      0x20\n        /* \"#utility.yul\":9835:9836   */\n      dup2\n        /* \"#utility.yul\":9831:9841   */\n      add\n        /* \"#utility.yul\":9826:9841   */\n      swap1\n      pop\n        /* \"#utility.yul\":9802:9915   */\n      jump(tag_380)\n    tag_382:\n        /* \"#utility.yul\":9949:9950   */\n      0x00\n        /* \"#utility.yul\":9940:9946   */\n      dup5\n        /* \"#utility.yul\":9935:9938   */\n      dup5\n        /* \"#utility.yul\":9931:9947   */\n      add\n        /* \"#utility.yul\":9924:9951   */\n      mstore\n        /* \"#utility.yul\":9773:9957   */\n      pop\n        /* \"#utility.yul\":9711:9957   */\n      pop\n      pop\n      pop\n      jump\t// out\n        /* \"#utility.yul\":9963:10336   */\n    tag_242:\n        /* \"#utility.yul\":10049:10052   */\n      0x00\n        /* \"#utility.yul\":10077:10115   */\n      tag_384\n        /* \"#utility.yul\":10109:10114   */\n      dup3\n        /* \"#utility.yul\":10077:10115   */\n      tag_240\n      jump\t// in\n    tag_384:\n        /* \"#utility.yul\":10131:10201   */\n      tag_385\n        /* \"#utility.yul\":10194:10200   */\n      dup2\n        /* \"#utility.yul\":10189:10192   */\n      dup6\n        /* \"#utility.yul\":10131:10201   */\n      tag_208\n      jump\t// in\n    tag_385:\n        /* \"#utility.yul\":10124:10201   */\n      swap4\n      pop\n        /* \"#utility.yul\":10210:10275   */\n      tag_386\n        /* \"#utility.yul\":10268:10274   */\n      dup2\n        /* \"#utility.yul\":10263:10266   */\n      dup6\n        /* \"#utility.yul\":10256:10260   */\n      0x20\n        /* \"#utility.yul\":10249:10254   */\n      dup7\n        /* \"#utility.yul\":10245:10261   */\n      add\n        /* \"#utility.yul\":10210:10275   */\n      tag_241\n      jump\t// in\n    tag_386:\n        /* \"#utility.yul\":10300:10329   */\n      tag_387\n        /* \"#utility.yul\":10322:10328   */\n      dup2\n        /* \"#utility.yul\":10300:10329   */\n      tag_210\n      jump\t// in\n    tag_387:\n        /* \"#utility.yul\":10295:10298   */\n      dup5\n        /* \"#utility.yul\":10291:10330   */\n      add\n        /* \"#utility.yul\":10284:10330   */\n      swap2\n      pop\n        /* \"#utility.yul\":10053:10336   */\n      pop\n        /* \"#utility.yul\":9963:10336   */\n      swap3\n      swap2\n      pop\n      pop\n      jump\t// out\n        /* \"#utility.yul\":10342:10651   */\n    tag_47:\n        /* \"#utility.yul\":10453:10457   */\n      0x00\n        /* \"#utility.yul\":10491:10493   */\n      0x20\n        /* \"#utility.yul\":10480:10489   */\n      dup3\n        /* \"#utility.yul\":10476:10494   */\n      add\n        /* \"#utility.yul\":10468:10494   */\n      swap1\n      pop\n        /* \"#utility.yul\":10540:10549   */\n      dup2\n        /* \"#utility.yul\":10534:10538   */\n      dup2\n        /* \"#utility.yul\":10530:10550   */\n      sub\n        /* \"#utility.yul\":10526:10527   */\n      0x00\n        /* \"#utility.yul\":10515:10524   */\n      dup4\n        /* \"#utility.yul\":10511:10528   */\n      add\n        /* \"#utility.yul\":10504:10551   */\n      mstore\n        /* \"#utility.yul\":10568:10644   */\n      tag_389\n        /* \"#utility.yul\":10639:10643   */\n      dup2\n        /* \"#utility.yul\":10630:10636   */\n      dup5\n        /* \"#utility.yul\":10568:10644   */\n      tag_242\n      jump\t// in\n    tag_389:\n        /* \"#utility.yul\":10560:10644   */\n      swap1\n      pop\n        /* \"#utility.yul\":10342:10651   */\n      swap3\n      swap2\n      pop\n      pop\n      jump\t// out\n        /* \"#utility.yul\":10657:10986   */\n    tag_51:\n        /* \"#utility.yul\":10716:10722   */\n      0x00\n        /* \"#utility.yul\":10765:10767   */\n      0x20\n        /* \"#utility.yul\":10753:10762   */\n      dup3\n        /* \"#utility.yul\":10744:10751   */\n      dup5\n        /* \"#utility.yul\":10740:10763   */\n      sub\n        /* \"#utility.yul\":10736:10768   */\n      slt\n        /* \"#utility.yul\":10733:10852   */\n      iszero\n      tag_391\n      jumpi\n        /* \"#utility.yul\":10771:10850   */\n      tag_392\n      tag_222\n      jump\t// in\n    tag_392:\n        /* \"#utility.yul\":10733:10852   */\n    tag_391:\n        /* \"#utility.yul\":10891:10892   */\n      0x00\n        /* \"#utility.yul\":10916:10969   */\n      tag_393\n        /* \"#utility.yul\":10961:10968   */\n      dup5\n        /* \"#utility.yul\":10952:10958   */\n      dup3\n        /* \"#utility.yul\":10941:10950   */\n      dup6\n        /* \"#utility.yul\":10937:10959   */\n      add\n        /* \"#utility.yul\":10916:10969   */\n      tag_227\n      jump\t// in\n    tag_393:\n        /* \"#utility.yul\":10906:10969   */\n      swap2\n      pop\n        /* \"#utility.yul\":10862:10979   */\n      pop\n        /* \"#utility.yul\":10657:10986   */\n      swap3\n      swap2\n      pop\n      pop\n      jump\t// out\n        /* \"#utility.yul\":10992:11069   */\n    tag_243:\n        /* \"#utility.yul\":11029:11036   */\n      0x00\n        /* \"#utility.yul\":11058:11063   */\n      dup2\n        /* \"#utility.yul\":11047:11063   */\n      swap1\n      pop\n        /* \"#utility.yul\":10992:11069   */\n      swap2\n      swap1\n      pop\n      jump\t// out\n        /* \"#utility.yul\":11075:11197   */\n    tag_244:\n        /* \"#utility.yul\":11148:11172   */\n      tag_396\n        /* \"#utility.yul\":11166:11171   */\n      dup2\n        /* \"#utility.yul\":11148:11172   */\n      tag_243\n      jump\t// in\n    tag_396:\n        /* \"#utility.yul\":11141:11146   */\n      dup2\n        /* \"#utility.yul\":11138:11173   */\n      eq\n        /* \"#utility.yul\":11128:11191   */\n      tag_397\n      jumpi\n        /* \"#utility.yul\":11187:11188   */\n      0x00\n        /* \"#utility.yul\":11184:11185   */\n      dup1\n        /* \"#utility.yul\":11177:11189   */\n      revert\n        /* \"#utility.yul\":11128:11191   */\n    tag_397:\n        /* \"#utility.yul\":11075:11197   */\n      pop\n      jump\t// out\n        /* \"#utility.yul\":11203:11342   */\n    tag_245:\n        /* \"#utility.yul\":11249:11254   */\n      0x00\n        /* \"#utility.yul\":11287:11293   */\n      dup2\n        /* \"#utility.yul\":11274:11294   */\n      calldataload\n        /* \"#utility.yul\":11265:11294   */\n      swap1\n      pop\n        /* \"#utility.yul\":11303:11336   */\n      tag_399\n        /* \"#utility.yul\":11330:11335   */\n      dup2\n        /* \"#utility.yul\":11303:11336   */\n      tag_244\n      jump\t// in\n    tag_399:\n        /* \"#utility.yul\":11203:11342   */\n      swap3\n      swap2\n      pop\n      pop\n      jump\t// out\n        /* \"#utility.yul\":11348:12000   */\n    tag_65:\n        /* \"#utility.yul\":11425:11431   */\n      0x00\n        /* \"#utility.yul\":11433:11439   */\n      dup1\n        /* \"#utility.yul\":11482:11484   */\n      0x40\n        /* \"#utility.yul\":11470:11479   */\n      dup4\n        /* \"#utility.yul\":11461:11468   */\n      dup6\n        /* \"#utility.yul\":11457:11480   */\n      sub\n        /* \"#utility.yul\":11453:11485   */\n      slt\n        /* \"#utility.yul\":11450:11569   */\n      iszero\n      tag_401\n      jumpi\n        /* \"#utility.yul\":11488:11567   */\n      tag_402\n      tag_222\n      jump\t// in\n    tag_402:\n        /* \"#utility.yul\":11450:11569   */\n    tag_401:\n        /* \"#utility.yul\":11608:11609   */\n      0x00\n        /* \"#utility.yul\":11633:11686   */\n      tag_403\n        /* \"#utility.yul\":11678:11685   */\n      dup6\n        /* \"#utility.yul\":11669:11675   */\n      dup3\n        /* \"#utility.yul\":11658:11667   */\n      dup7\n        /* \"#utility.yul\":11654:11676   */\n      add\n        /* \"#utility.yul\":11633:11686   */\n      tag_245\n      jump\t// in\n    tag_403:\n        /* \"#utility.yul\":11623:11686   */\n      swap3\n      pop\n        /* \"#utility.yul\":11579:11696   */\n      pop\n        /* \"#utility.yul\":11763:11765   */\n      0x20\n        /* \"#utility.yul\":11752:11761   */\n      dup4\n        /* \"#utility.yul\":11748:11766   */\n      add\n        /* \"#utility.yul\":11735:11767   */\n      calldataload\n        /* \"#utility.yul\":11794:11812   */\n      0xffffffffffffffff\n        /* \"#utility.yul\":11786:11792   */\n      dup2\n        /* \"#utility.yul\":11783:11813   */\n      gt\n        /* \"#utility.yul\":11780:11897   */\n      iszero\n      tag_404\n      jumpi\n        /* \"#utility.yul\":11816:11895   */\n      tag_405\n      tag_223\n      jump\t// in\n    tag_405:\n        /* \"#utility.yul\":11780:11897   */\n    tag_404:\n        /* \"#utility.yul\":11921:11983   */\n      tag_406\n        /* \"#utility.yul\":11975:11982   */\n      dup6\n        /* \"#utility.yul\":11966:11972   */\n      dup3\n        /* \"#utility.yul\":11955:11964   */\n      dup7\n        /* \"#utility.yul\":11951:11973   */\n      add\n        /* \"#utility.yul\":11921:11983   */\n      tag_237\n      jump\t// in\n    tag_406:\n        /* \"#utility.yul\":11911:11983   */\n      swap2\n      pop\n        /* \"#utility.yul\":11706:11993   */\n      pop\n        /* \"#utility.yul\":11348:12000   */\n      swap3\n      pop\n      swap3\n      swap1\n      pop\n      jump\t// out\n        /* \"#utility.yul\":12006:12803   */\n    tag_70:\n        /* \"#utility.yul\":12092:12098   */\n      0x00\n        /* \"#utility.yul\":12100:12106   */\n      dup1\n        /* \"#utility.yul\":12108:12114   */\n      0x00\n        /* \"#utility.yul\":12157:12159   */\n      0x60\n        /* \"#utility.yul\":12145:12154   */\n      dup5\n        /* \"#utility.yul\":12136:12143   */\n      dup7\n        /* \"#utility.yul\":12132:12155   */\n      sub\n        /* \"#utility.yul\":12128:12160   */\n      slt\n        /* \"#utility.yul\":12125:12244   */\n      iszero\n      tag_408\n      jumpi\n        /* \"#utility.yul\":12163:12242   */\n      tag_409\n      tag_222\n      jump\t// in\n    tag_409:\n        /* \"#utility.yul\":12125:12244   */\n    tag_408:\n        /* \"#utility.yul\":12283:12284   */\n      0x00\n        /* \"#utility.yul\":12308:12361   */\n      tag_410\n        /* \"#utility.yul\":12353:12360   */\n      dup7\n        /* \"#utility.yul\":12344:12350   */\n      dup3\n        /* \"#utility.yul\":12333:12342   */\n      dup8\n        /* \"#utility.yul\":12329:12351   */\n      add\n        /* \"#utility.yul\":12308:12361   */\n      tag_225\n      jump\t// in\n    tag_410:\n        /* \"#utility.yul\":12298:12361   */\n      swap4\n      pop\n        /* \"#utility.yul\":12254:12371   */\n      pop\n        /* \"#utility.yul\":12410:12412   */\n      0x20\n        /* \"#utility.yul\":12436:12489   */\n      tag_411\n        /* \"#utility.yul\":12481:12488   */\n      dup7\n        /* \"#utility.yul\":12472:12478   */\n      dup3\n        /* \"#utility.yul\":12461:12470   */\n      dup8\n        /* \"#utility.yul\":12457:12479   */\n      add\n        /* \"#utility.yul\":12436:12489   */\n      tag_227\n      jump\t// in\n    tag_411:\n        /* \"#utility.yul\":12426:12489   */\n      swap3\n      pop\n        /* \"#utility.yul\":12381:12499   */\n      pop\n        /* \"#utility.yul\":12566:12568   */\n      0x40\n        /* \"#utility.yul\":12555:12564   */\n      dup5\n        /* \"#utility.yul\":12551:12569   */\n      add\n        /* \"#utility.yul\":12538:12570   */\n      calldataload\n        /* \"#utility.yul\":12597:12615   */\n      0xffffffffffffffff\n        /* \"#utility.yul\":12589:12595   */\n      dup2\n        /* \"#utility.yul\":12586:12616   */\n      gt\n        /* \"#utility.yul\":12583:12700   */\n      iszero\n      tag_412\n      jumpi\n        /* \"#utility.yul\":12619:12698   */\n      tag_413\n      tag_223\n      jump\t// in\n    tag_413:\n        /* \"#utility.yul\":12583:12700   */\n    tag_412:\n        /* \"#utility.yul\":12724:12786   */\n      tag_414\n        /* \"#utility.yul\":12778:12785   */\n      dup7\n        /* \"#utility.yul\":12769:12775   */\n      dup3\n        /* \"#utility.yul\":12758:12767   */\n      dup8\n        /* \"#utility.yul\":12754:12776   */\n      add\n        /* \"#utility.yul\":12724:12786   */\n      tag_237\n      jump\t// in\n    tag_414:\n        /* \"#utility.yul\":12714:12786   */\n      swap2\n      pop\n        /* \"#utility.yul\":12509:12796   */\n      pop\n        /* \"#utility.yul\":12006:12803   */\n      swap3\n      pop\n      swap3\n      pop\n      swap3\n      jump\t// out\n        /* \"#utility.yul\":12809:12927   */\n    tag_246:\n        /* \"#utility.yul\":12896:12920   */\n      tag_416\n        /* \"#utility.yul\":12914:12919   */\n      dup2\n        /* \"#utility.yul\":12896:12920   */\n      tag_243\n      jump\t// in\n    tag_416:\n        /* \"#utility.yul\":12891:12894   */\n      dup3\n        /* \"#utility.yul\":12884:12921   */\n      mstore\n        /* \"#utility.yul\":12809:12927   */\n      pop\n      pop\n      jump\t// out\n        /* \"#utility.yul\":12933:13155   */\n    tag_73:\n        /* \"#utility.yul\":13026:13030   */\n      0x00\n        /* \"#utility.yul\":13064:13066   */\n      0x20\n        /* \"#utility.yul\":13053:13062   */\n      dup3\n        /* \"#utility.yul\":13049:13067   */\n      add\n        /* \"#utility.yul\":13041:13067   */\n      swap1\n      pop\n        /* \"#utility.yul\":13077:13148   */\n      tag_418\n        /* \"#utility.yul\":13145:13146   */\n      0x00\n        /* \"#utility.yul\":13134:13143   */\n      dup4\n        /* \"#utility.yul\":13130:13147   */\n      add\n        /* \"#utility.yul\":13121:13127   */\n      dup5\n        /* \"#utility.yul\":13077:13148   */\n      tag_246\n      jump\t// in\n    tag_418:\n        /* \"#utility.yul\":12933:13155   */\n      swap3\n      swap2\n      pop\n      pop\n      jump\t// out\n        /* \"#utility.yul\":13161:13490   */\n    tag_85:\n        /* \"#utility.yul\":13220:13226   */\n      0x00\n        /* \"#utility.yul\":13269:13271   */\n      0x20\n        /* \"#utility.yul\":13257:13266   */\n      dup3\n        /* \"#utility.yul\":13248:13255   */\n      dup5\n        /* \"#utility.yul\":13244:13267   */\n      sub\n        /* \"#utility.yul\":13240:13272   */\n      slt\n        /* \"#utility.yul\":13237:13356   */\n      iszero\n      tag_420\n      jumpi\n        /* \"#utility.yul\":13275:13354   */\n      tag_421\n      tag_222\n      jump\t// in\n    tag_421:\n        /* \"#utility.yul\":13237:13356   */\n    tag_420:\n        /* \"#utility.yul\":13395:13396   */\n      0x00\n        /* \"#utility.yul\":13420:13473   */\n      tag_422\n        /* \"#utility.yul\":13465:13472   */\n      dup5\n        /* \"#utility.yul\":13456:13462   */\n      dup3\n        /* \"#utility.yul\":13445:13454   */\n      dup6\n        /* \"#utility.yul\":13441:13463   */\n      add\n        /* \"#utility.yul\":13420:13473   */\n      tag_225\n      jump\t// in\n    tag_422:\n        /* \"#utility.yul\":13410:13473   */\n      swap2\n      pop\n        /* \"#utility.yul\":13366:13483   */\n      pop\n        /* \"#utility.yul\":13161:13490   */\n      swap3\n      swap2\n      pop\n      pop\n      jump\t// out\n        /* \"#utility.yul\":13496:13676   */\n    tag_103:\n        /* \"#utility.yul\":13544:13621   */\n      0x4e487b7100000000000000000000000000000000000000000000000000000000\n        /* \"#utility.yul\":13541:13542   */\n      0x00\n        /* \"#utility.yul\":13534:13622   */\n      mstore\n        /* \"#utility.yul\":13641:13645   */\n      0x32\n        /* \"#utility.yul\":13638:13639   */\n      0x04\n        /* \"#utility.yul\":13631:13646   */\n      mstore\n        /* \"#utility.yul\":13665:13669   */\n      0x24\n        /* \"#utility.yul\":13662:13663   */\n      0x00\n        /* \"#utility.yul\":13655:13670   */\n      revert\n        /* \"#utility.yul\":13682:13862   */\n    tag_247:\n        /* \"#utility.yul\":13730:13807   */\n      0x4e487b7100000000000000000000000000000000000000000000000000000000\n        /* \"#utility.yul\":13727:13728   */\n      0x00\n        /* \"#utility.yul\":13720:13808   */\n      mstore\n        /* \"#utility.yul\":13827:13831   */\n      0x11\n        /* \"#utility.yul\":13824:13825   */\n      0x04\n        /* \"#utility.yul\":13817:13832   */\n      mstore\n        /* \"#utility.yul\":13851:13855   */\n      0x24\n        /* \"#utility.yul\":13848:13849   */\n      0x00\n        /* \"#utility.yul\":13841:13856   */\n      revert\n        /* \"#utility.yul\":13868:14101   */\n    tag_107:\n        /* \"#utility.yul\":13907:13910   */\n      0x00\n        /* \"#utility.yul\":13930:13954   */\n      tag_426\n        /* \"#utility.yul\":13948:13953   */\n      dup3\n        /* \"#utility.yul\":13930:13954   */\n      tag_206\n      jump\t// in\n    tag_426:\n        /* \"#utility.yul\":13921:13954   */\n      swap2\n      pop\n        /* \"#utility.yul\":13976:14042   */\n      0xffffffffffffffffffffffffffffffffffffffffffffffffffffffffffffffff\n        /* \"#utility.yul\":13969:13974   */\n      dup3\n        /* \"#utility.yul\":13966:14043   */\n      sub\n        /* \"#utility.yul\":13963:14066   */\n      tag_427\n      jumpi\n        /* \"#utility.yul\":14046:14064   */\n      tag_428\n      tag_247\n      jump\t// in\n    tag_428:\n        /* \"#utility.yul\":13963:14066   */\n    tag_427:\n        /* \"#utility.yul\":14093:14094   */\n      0x01\n        /* \"#utility.yul\":14086:14091   */\n      dup3\n        /* \"#utility.yul\":14082:14095   */\n      add\n        /* \"#utility.yul\":14075:14095   */\n      swap1\n      pop\n        /* \"#utility.yul\":13868:14101   */\n      swap2\n      swap1\n      pop\n      jump\t// out\n        /* \"#utility.yul\":14107:14254   */\n    tag_248:\n        /* \"#utility.yul\":14208:14219   */\n      0x00\n        /* \"#utility.yul\":14245:14248   */\n      dup2\n        /* \"#utility.yul\":14230:14248   */\n      swap1\n      pop\n        /* \"#utility.yul\":14107:14254   */\n      swap3\n      swap2\n      pop\n      pop\n      jump\t// out\n        /* \"#utility.yul\":14282:14609   */\n    tag_249:\n        /* \"#utility.yul\":14396:14399   */\n      0x00\n        /* \"#utility.yul\":14417:14505   */\n      tag_431\n        /* \"#utility.yul\":14498:14504   */\n      dup4\n        /* \"#utility.yul\":14493:14496   */\n      dup6\n        /* \"#utility.yul\":14417:14505   */\n      tag_248\n      jump\t// in\n    tag_431:\n        /* \"#utility.yul\":14410:14505   */\n      swap4\n      pop\n        /* \"#utility.yul\":14515:14571   */\n      tag_432\n        /* \"#utility.yul\":14564:14570   */\n      dup4\n        /* \"#utility.yul\":14559:14562   */\n      dup6\n        /* \"#utility.yul\":14552:14557   */\n      dup5\n        /* \"#utility.yul\":14515:14571   */\n      tag_209\n      jump\t// in\n    tag_432:\n        /* \"#utility.yul\":14596:14602   */\n      dup3\n        /* \"#utility.yul\":14591:14594   */\n      dup5\n        /* \"#utility.yul\":14587:14603   */\n      add\n        /* \"#utility.yul\":14580:14603   */\n      swap1\n      pop\n        /* \"#utility.yul\":14282:14609   */\n      swap4\n      swap3\n      pop\n      pop\n      pop\n      jump\t// out\n        /* \"#utility.yul\":14615:14906   */\n    tag_114:\n        /* \"#utility.yul\":14755:14758   */\n      0x00\n        /* \"#utility.yul\":14777:14880   */\n      tag_434\n        /* \"#utility.yul\":14876:14879   */\n      dup3\n        /* \"#utility.yul\":14867:14873   */\n      dup5\n        /* \"#utility.yul\":14859:14865   */\n      dup7\n        /* \"#utility.yul\":14777:14880   */\n      tag_249\n      jump\t// in\n    tag_434:\n        /* \"#utility.yul\":14770:14880   */\n      swap2\n      pop\n        /* \"#utility.yul\":14897:14900   */\n      dup2\n        /* \"#utility.yul\":14890:14900   */\n      swap1\n      pop\n        /* \"#utility.yul\":14615:14906   */\n      swap4\n      swap3\n      pop\n      pop\n      pop\n      jump\t// out\n        /* \"#utility.yul\":14912:15030   */\n    tag_250:\n        /* \"#utility.yul\":14999:15023   */\n      tag_436\n        /* \"#utility.yul\":15017:15022   */\n      dup2\n        /* \"#utility.yul\":14999:15023   */\n      tag_216\n      jump\t// in\n    tag_436:\n        /* \"#utility.yul\":14994:14997   */\n      dup3\n        /* \"#utility.yul\":14987:15024   */\n      mstore\n        /* \"#utility.yul\":14912:15030   */\n      pop\n      pop\n      jump\t// out\n        /* \"#utility.yul\":15036:15368   */\n    tag_122:\n        /* \"#utility.yul\":15157:15161   */\n      0x00\n        /* \"#utility.yul\":15195:15197   */\n      0x40\n        /* \"#utility.yul\":15184:15193   */\n      dup3\n        /* \"#utility.yul\":15180:15198   */\n      add\n        /* \"#utility.yul\":15172:15198   */\n      swap1\n      pop\n        /* \"#utility.yul\":15208:15279   */\n      tag_438\n        /* \"#utility.yul\":15276:15277   */\n      0x00\n        /* \"#utility.yul\":15265:15274   */\n      dup4\n        /* \"#utility.yul\":15261:15278   */\n      add\n        /* \"#utility.yul\":15252:15258   */\n      dup6\n        /* \"#utility.yul\":15208:15279   */\n      tag_250\n      jump\t// in\n    tag_438:\n        /* \"#utility.yul\":15289:15361   */\n      tag_439\n        /* \"#utility.yul\":15357:15359   */\n      0x20\n        /* \"#utility.yul\":15346:15355   */\n      dup4\n        /* \"#utility.yul\":15342:15360   */\n      add\n        /* \"#utility.yul\":15333:15339   */\n      dup5\n        /* \"#utility.yul\":15289:15361   */\n      tag_207\n      jump\t// in\n    tag_439:\n        /* \"#utility.yul\":15036:15368   */\n      swap4\n      swap3\n      pop\n      pop\n      pop\n      jump\t// out\n        /* \"#utility.yul\":15374:15543   */\n    tag_251:\n        /* \"#utility.yul\":15458:15469   */\n      0x00\n        /* \"#utility.yul\":15492:15498   */\n      dup3\n        /* \"#utility.yul\":15487:15490   */\n      dup3\n        /* \"#utility.yul\":15480:15499   */\n      mstore\n        /* \"#utility.yul\":15532:15536   */\n      0x20\n        /* \"#utility.yul\":15527:15530   */\n      dup3\n        /* \"#utility.yul\":15523:15537   */\n      add\n        /* \"#utility.yul\":15508:15537   */\n      swap1\n      pop\n        /* \"#utility.yul\":15374:15543   */\n      swap3\n      swap2\n      pop\n      pop\n      jump\t// out\n        /* \"#utility.yul\":15549:15713   */\n    tag_252:\n        /* \"#utility.yul\":15689:15705   */\n      0x4e6f7420617574686f72697a6564000000000000000000000000000000000000\n        /* \"#utility.yul\":15685:15686   */\n      0x00\n        /* \"#utility.yul\":15677:15683   */\n      dup3\n        /* \"#utility.yul\":15673:15687   */\n      add\n        /* \"#utility.yul\":15666:15706   */\n      mstore\n        /* \"#utility.yul\":15549:15713   */\n      pop\n      jump\t// out\n        /* \"#utility.yul\":15719:16085   */\n    tag_253:\n        /* \"#utility.yul\":15861:15864   */\n      0x00\n        /* \"#utility.yul\":15882:15949   */\n      tag_443\n        /* \"#utility.yul\":15946:15948   */\n      0x0e\n        /* \"#utility.yul\":15941:15944   */\n      dup4\n        /* \"#utility.yul\":15882:15949   */\n      tag_251\n      jump\t// in\n    tag_443:\n        /* \"#utility.yul\":15875:15949   */\n      swap2\n      pop\n        /* \"#utility.yul\":15958:16051   */\n      tag_444\n        /* \"#utility.yul\":16047:16050   */\n      dup3\n        /* \"#utility.yul\":15958:16051   */\n      tag_252\n      jump\t// in\n    tag_444:\n        /* \"#utility.yul\":16076:16078   */\n      0x20\n        /* \"#utility.yul\":16071:16074   */\n      dup3\n        /* \"#utility.yul\":16067:16079   */\n      add\n        /* \"#utility.yul\":16060:16079   */\n      swap1\n      pop\n        /* \"#utility.yul\":15719:16085   */\n      swap2\n      swap1\n      pop\n      jump\t// out\n        /* \"#utility.yul\":16091:16510   */\n    tag_128:\n        /* \"#utility.yul\":16257:16261   */\n      0x00\n        /* \"#utility.yul\":16295:16297   */\n      0x20\n        /* \"#utility.yul\":16284:16293   */\n      dup3\n        /* \"#utility.yul\":16280:16298   */\n      add\n        /* \"#utility.yul\":16272:16298   */\n      swap1\n      pop\n        /* \"#utility.yul\":16344:16353   */\n      dup2\n        /* \"#utility.yul\":16338:16342   */\n      dup2\n        /* \"#utility.yul\":16334:16354   */\n      sub\n        /* \"#utility.yul\":16330:16331   */\n      0x00\n        /* \"#utility.yul\":16319:16328   */\n      dup4\n        /* \"#utility.yul\":16315:16332   */\n      add\n        /* \"#utility.yul\":16308:16355   */\n      mstore\n        /* \"#utility.yul\":16372:16503   */\n      tag_446\n        /* \"#utility.yul\":16498:16502   */\n      dup2\n        /* \"#utility.yul\":16372:16503   */\n      tag_253\n      jump\t// in\n    tag_446:\n        /* \"#utility.yul\":16364:16503   */\n      swap1\n      pop\n        /* \"#utility.yul\":16091:16510   */\n      swap2\n      swap1\n      pop\n      jump\t// out\n        /* \"#utility.yul\":16516:16673   */\n    tag_254:\n        /* \"#utility.yul\":16656:16665   */\n      0x6572726f72303200000000000000000000000000000000000000000000000000\n        /* \"#utility.yul\":16652:16653   */\n      0x00\n        /* \"#utility.yul\":16644:16650   */\n      dup3\n        /* \"#utility.yul\":16640:16654   */\n      add\n        /* \"#utility.yul\":16633:16666   */\n      mstore\n        /* \"#utility.yul\":16516:16673   */\n      pop\n      jump\t// out\n        /* \"#utility.yul\":16679:17044   */\n    tag_255:\n        /* \"#utility.yul\":16821:16824   */\n      0x00\n        /* \"#utility.yul\":16842:16908   */\n      tag_449\n        /* \"#utility.yul\":16906:16907   */\n      0x07\n        /* \"#utility.yul\":16901:16904   */\n      dup4\n        /* \"#utility.yul\":16842:16908   */\n      tag_251\n      jump\t// in\n    tag_449:\n        /* \"#utility.yul\":16835:16908   */\n      swap2\n      pop\n        /* \"#utility.yul\":16917:17010   */\n      tag_450\n        /* \"#utility.yul\":17006:17009   */\n      dup3\n        /* \"#utility.yul\":16917:17010   */\n      tag_254\n      jump\t// in\n    tag_450:\n        /* \"#utility.yul\":17035:17037   */\n      0x20\n        /* \"#utility.yul\":17030:17033   */\n      dup3\n        /* \"#utility.yul\":17026:17038   */\n      add\n        /* \"#utility.yul\":17019:17038   */\n      swap1\n      pop\n        /* \"#utility.yul\":16679:17044   */\n      swap2\n      swap1\n      pop\n      jump\t// out\n        /* \"#utility.yul\":17050:17469   */\n    tag_132:\n        /* \"#utility.yul\":17216:17220   */\n      0x00\n        /* \"#utility.yul\":17254:17256   */\n      0x20\n        /* \"#utility.yul\":17243:17252   */\n      dup3\n        /* \"#utility.yul\":17239:17257   */\n      add\n        /* \"#utility.yul\":17231:17257   */\n      swap1\n      pop\n        /* \"#utility.yul\":17303:17312   */\n      dup2\n        /* \"#utility.yul\":17297:17301   */\n      dup2\n        /* \"#utility.yul\":17293:17313   */\n      sub\n        /* \"#utility.yul\":17289:17290   */\n      0x00\n        /* \"#utility.yul\":17278:17287   */\n      dup4\n        /* \"#utility.yul\":17274:17291   */\n      add\n        /* \"#utility.yul\":17267:17314   */\n      mstore\n        /* \"#utility.yul\":17331:17462   */\n      tag_452\n        /* \"#utility.yul\":17457:17461   */\n      dup2\n        /* \"#utility.yul\":17331:17462   */\n      tag_255\n      jump\t// in\n    tag_452:\n        /* \"#utility.yul\":17323:17462   */\n      swap1\n      pop\n        /* \"#utility.yul\":17050:17469   */\n      swap2\n      swap1\n      pop\n      jump\t// out\n        /* \"#utility.yul\":17475:17632   */\n    tag_256:\n        /* \"#utility.yul\":17615:17624   */\n      0x6572726f72303300000000000000000000000000000000000000000000000000\n        /* \"#utility.yul\":17611:17612   */\n      0x00\n        /* \"#utility.yul\":17603:17609   */\n      dup3\n        /* \"#utility.yul\":17599:17613   */\n      add\n        /* \"#utility.yul\":17592:17625   */\n      mstore\n        /* \"#utility.yul\":17475:17632   */\n      pop\n      jump\t// out\n        /* \"#utility.yul\":17638:18003   */\n    tag_257:\n        /* \"#utility.yul\":17780:17783   */\n      0x00\n        /* \"#utility.yul\":17801:17867   */\n      tag_455\n        /* \"#utility.yul\":17865:17866   */\n      0x07\n        /* \"#utility.yul\":17860:17863   */\n      dup4\n        /* \"#utility.yul\":17801:17867   */\n      tag_251\n      jump\t// in\n    tag_455:\n        /* \"#utility.yul\":17794:17867   */\n      swap2\n      pop\n        /* \"#utility.yul\":17876:17969   */\n      tag_456\n        /* \"#utility.yul\":17965:17968   */\n      dup3\n        /* \"#utility.yul\":17876:17969   */\n      tag_256\n      jump\t// in\n    tag_456:\n        /* \"#utility.yul\":17994:17996   */\n      0x20\n        /* \"#utility.yul\":17989:17992   */\n      dup3\n        /* \"#utility.yul\":17985:17997   */\n      add\n        /* \"#utility.yul\":17978:17997   */\n      swap1\n      pop\n        /* \"#utility.yul\":17638:18003   */\n      swap2\n      swap1\n      pop\n      jump\t// out\n        /* \"#utility.yul\":18009:18428   */\n    tag_135:\n        /* \"#utility.yul\":18175:18179   */\n      0x00\n        /* \"#utility.yul\":18213:18215   */\n      0x20\n        /* \"#utility.yul\":18202:18211   */\n      dup3\n        /* \"#utility.yul\":18198:18216   */\n      add\n        /* \"#utility.yul\":18190:18216   */\n      swap1\n      pop\n        /* \"#utility.yul\":18262:18271   */\n      dup2\n        /* \"#utility.yul\":18256:18260   */\n      dup2\n        /* \"#utility.yul\":18252:18272   */\n      sub\n        /* \"#utility.yul\":18248:18249   */\n      0x00\n        /* \"#utility.yul\":18237:18246   */\n      dup4\n        /* \"#utility.yul\":18233:18250   */\n      add\n        /* \"#utility.yul\":18226:18273   */\n      mstore\n        /* \"#utility.yul\":18290:18421   */\n      tag_458\n        /* \"#utility.yul\":18416:18420   */\n      dup2\n        /* \"#utility.yul\":18290:18421   */\n      tag_257\n      jump\t// in\n    tag_458:\n        /* \"#utility.yul\":18282:18421   */\n      swap1\n      pop\n        /* \"#utility.yul\":18009:18428   */\n      swap2\n      swap1\n      pop\n      jump\t// out\n        /* \"#utility.yul\":18434:18591   */\n    tag_258:\n        /* \"#utility.yul\":18574:18583   */\n      0x6572726f72303500000000000000000000000000000000000000000000000000\n        /* \"#utility.yul\":18570:18571   */\n      0x00\n        /* \"#utility.yul\":18562:18568   */\n      dup3\n        /* \"#utility.yul\":18558:18572   */\n      add\n        /* \"#utility.yul\":18551:18584   */\n      mstore\n        /* \"#utility.yul\":18434:18591   */\n      pop\n      jump\t// out\n        /* \"#utility.yul\":18597:18962   */\n    tag_259:\n        /* \"#utility.yul\":18739:18742   */\n      0x00\n        /* \"#utility.yul\":18760:18826   */\n      tag_461\n        /* \"#utility.yul\":18824:18825   */\n      0x07\n        /* \"#utility.yul\":18819:18822   */\n      dup4\n        /* \"#utility.yul\":18760:18826   */\n      tag_251\n      jump\t// in\n    tag_461:\n        /* \"#utility.yul\":18753:18826   */\n      swap2\n      pop\n        /* \"#utility.yul\":18835:18928   */\n      tag_462\n        /* \"#utility.yul\":18924:18927   */\n      dup3\n        /* \"#utility.yul\":18835:18928   */\n      tag_258\n      jump\t// in\n    tag_462:\n        /* \"#utility.yul\":18953:18955   */\n      0x20\n        /* \"#utility.yul\":18948:18951   */\n      dup3\n        /* \"#utility.yul\":18944:18956   */\n      add\n        /* \"#utility.yul\":18937:18956   */\n      swap1\n      pop\n        /* \"#utility.yul\":18597:18962   */\n      swap2\n      swap1\n      pop\n      jump\t// out\n        /* \"#utility.yul\":18968:19387   */\n    tag_141:\n        /* \"#utility.yul\":19134:19138   */\n      0x00\n        /* \"#utility.yul\":19172:19174   */\n      0x20\n        /* \"#utility.yul\":19161:19170   */\n      dup3\n        /* \"#utility.yul\":19157:19175   */\n      add\n        /* \"#utility.yul\":19149:19175   */\n      swap1\n      pop\n        /* \"#utility.yul\":19221:19230   */\n      dup2\n        /* \"#utility.yul\":19215:19219   */\n      dup2\n        /* \"#utility.yul\":19211:19231   */\n      sub\n        /* \"#utility.yul\":19207:19208   */\n      0x00\n        /* \"#utility.yul\":19196:19205   */\n      dup4\n        /* \"#utility.yul\":19192:19209   */\n      add\n        /* \"#utility.yul\":19185:19232   */\n      mstore\n        /* \"#utility.yul\":19249:19380   */\n      tag_464\n        /* \"#utility.yul\":19375:19379   */\n      dup2\n        /* \"#utility.yul\":19249:19380   */\n      tag_259\n      jump\t// in\n    tag_464:\n        /* \"#utility.yul\":19241:19380   */\n      swap1\n      pop\n        /* \"#utility.yul\":18968:19387   */\n      swap2\n      swap1\n      pop\n      jump\t// out\n        /* \"#utility.yul\":19393:19587   */\n    tag_151:\n        /* \"#utility.yul\":19433:19437   */\n      0x00\n        /* \"#utility.yul\":19453:19473   */\n      tag_466\n        /* \"#utility.yul\":19471:19472   */\n      dup3\n        /* \"#utility.yul\":19453:19473   */\n      tag_206\n      jump\t// in\n    tag_466:\n        /* \"#utility.yul\":19448:19473   */\n      swap2\n      pop\n        /* \"#utility.yul\":19487:19507   */\n      tag_467\n        /* \"#utility.yul\":19505:19506   */\n      dup4\n        /* \"#utility.yul\":19487:19507   */\n      tag_206\n      jump\t// in\n    tag_467:\n        /* \"#utility.yul\":19482:19507   */\n      swap3\n      pop\n        /* \"#utility.yul\":19531:19532   */\n      dup3\n        /* \"#utility.yul\":19528:19529   */\n      dup3\n        /* \"#utility.yul\":19524:19533   */\n      sub\n        /* \"#utility.yul\":19516:19533   */\n      swap1\n      pop\n        /* \"#utility.yul\":19555:19556   */\n      dup2\n        /* \"#utility.yul\":19549:19553   */\n      dup2\n        /* \"#utility.yul\":19546:19557   */\n      gt\n        /* \"#utility.yul\":19543:19580   */\n      iszero\n      tag_468\n      jumpi\n        /* \"#utility.yul\":19560:19578   */\n      tag_469\n      tag_247\n      jump\t// in\n    tag_469:\n        /* \"#utility.yul\":19543:19580   */\n    tag_468:\n        /* \"#utility.yul\":19393:19587   */\n      swap3\n      swap2\n      pop\n      pop\n      jump\t// out\n        /* \"#utility.yul\":19593:19750   */\n    tag_260:\n        /* \"#utility.yul\":19733:19742   */\n      0x6572726f72303700000000000000000000000000000000000000000000000000\n        /* \"#utility.yul\":19729:19730   */\n      0x00\n        /* \"#utility.yul\":19721:19727   */\n      dup3\n        /* \"#utility.yul\":19717:19731   */\n      add\n        /* \"#utility.yul\":19710:19743   */\n      mstore\n        /* \"#utility.yul\":19593:19750   */\n      pop\n      jump\t// out\n        /* \"#utility.yul\":19756:20121   */\n    tag_261:\n        /* \"#utility.yul\":19898:19901   */\n      0x00\n        /* \"#utility.yul\":19919:19985   */\n      tag_472\n        /* \"#utility.yul\":19983:19984   */\n      0x07\n        /* \"#utility.yul\":19978:19981   */\n      dup4\n        /* \"#utility.yul\":19919:19985   */\n      tag_251\n      jump\t// in\n    tag_472:\n        /* \"#utility.yul\":19912:19985   */\n      swap2\n      pop\n        /* \"#utility.yul\":19994:20087   */\n      tag_473\n        /* \"#utility.yul\":20083:20086   */\n      dup3\n        /* \"#utility.yul\":19994:20087   */\n      tag_260\n      jump\t// in\n    tag_473:\n        /* \"#utility.yul\":20112:20114   */\n      0x20\n        /* \"#utility.yul\":20107:20110   */\n      dup3\n        /* \"#utility.yul\":20103:20115   */\n      add\n        /* \"#utility.yul\":20096:20115   */\n      swap1\n      pop\n        /* \"#utility.yul\":19756:20121   */\n      swap2\n      swap1\n      pop\n      jump\t// out\n        /* \"#utility.yul\":20127:20546   */\n    tag_157:\n        /* \"#utility.yul\":20293:20297   */\n      0x00\n        /* \"#utility.yul\":20331:20333   */\n      0x20\n        /* \"#utility.yul\":20320:20329   */\n      dup3\n        /* \"#utility.yul\":20316:20334   */\n      add\n        /* \"#utility.yul\":20308:20334   */\n      swap1\n      pop\n        /* \"#utility.yul\":20380:20389   */\n      dup2\n        /* \"#utility.yul\":20374:20378   */\n      dup2\n        /* \"#utility.yul\":20370:20390   */\n      sub\n        /* \"#utility.yul\":20366:20367   */\n      0x00\n        /* \"#utility.yul\":20355:20364   */\n      dup4\n        /* \"#utility.yul\":20351:20368   */\n      add\n        /* \"#utility.yul\":20344:20391   */\n      mstore\n        /* \"#utility.yul\":20408:20539   */\n      tag_475\n        /* \"#utility.yul\":20534:20538   */\n      dup2\n        /* \"#utility.yul\":20408:20539   */\n      tag_261\n      jump\t// in\n    tag_475:\n        /* \"#utility.yul\":20400:20539   */\n      swap1\n      pop\n        /* \"#utility.yul\":20127:20546   */\n      swap2\n      swap1\n      pop\n      jump\t// out\n        /* \"#utility.yul\":20552:21216   */\n    tag_172:\n        /* \"#utility.yul\":20757:20761   */\n      0x00\n        /* \"#utility.yul\":20795:20798   */\n      0xa0\n        /* \"#utility.yul\":20784:20793   */\n      dup3\n        /* \"#utility.yul\":20780:20799   */\n      add\n        /* \"#utility.yul\":20772:20799   */\n      swap1\n      pop\n        /* \"#utility.yul\":20809:20880   */\n      tag_477\n        /* \"#utility.yul\":20877:20878   */\n      0x00\n        /* \"#utility.yul\":20866:20875   */\n      dup4\n        /* \"#utility.yul\":20862:20879   */\n      add\n        /* \"#utility.yul\":20853:20859   */\n      dup9\n        /* \"#utility.yul\":20809:20880   */\n      tag_250\n      jump\t// in\n    tag_477:\n        /* \"#utility.yul\":20890:20962   */\n      tag_478\n        /* \"#utility.yul\":20958:20960   */\n      0x20\n        /* \"#utility.yul\":20947:20956   */\n      dup4\n        /* \"#utility.yul\":20943:20961   */\n      add\n        /* \"#utility.yul\":20934:20940   */\n      dup8\n        /* \"#utility.yul\":20890:20962   */\n      tag_207\n      jump\t// in\n    tag_478:\n        /* \"#utility.yul\":20972:21044   */\n      tag_479\n        /* \"#utility.yul\":21040:21042   */\n      0x40\n        /* \"#utility.yul\":21029:21038   */\n      dup4\n        /* \"#utility.yul\":21025:21043   */\n      add\n        /* \"#utility.yul\":21016:21022   */\n      dup7\n        /* \"#utility.yul\":20972:21044   */\n      tag_246\n      jump\t// in\n    tag_479:\n        /* \"#utility.yul\":21054:21126   */\n      tag_480\n        /* \"#utility.yul\":21122:21124   */\n      0x60\n        /* \"#utility.yul\":21111:21120   */\n      dup4\n        /* \"#utility.yul\":21107:21125   */\n      add\n        /* \"#utility.yul\":21098:21104   */\n      dup6\n        /* \"#utility.yul\":21054:21126   */\n      tag_207\n      jump\t// in\n    tag_480:\n        /* \"#utility.yul\":21136:21209   */\n      tag_481\n        /* \"#utility.yul\":21204:21207   */\n      0x80\n        /* \"#utility.yul\":21193:21202   */\n      dup4\n        /* \"#utility.yul\":21189:21208   */\n      add\n        /* \"#utility.yul\":21180:21186   */\n      dup5\n        /* \"#utility.yul\":21136:21209   */\n      tag_207\n      jump\t// in\n    tag_481:\n        /* \"#utility.yul\":20552:21216   */\n      swap7\n      swap6\n      pop\n      pop\n      pop\n      pop\n      pop\n      pop\n      jump\t// out\n        /* \"#utility.yul\":21222:21632   */\n    tag_175:\n        /* \"#utility.yul\":21262:21269   */\n      0x00\n        /* \"#utility.yul\":21285:21305   */\n      tag_483\n        /* \"#utility.yul\":21303:21304   */\n      dup3\n        /* \"#utility.yul\":21285:21305   */\n      tag_206\n      jump\t// in\n    tag_483:\n        /* \"#utility.yul\":21280:21305   */\n      swap2\n      pop\n        /* \"#utility.yul\":21319:21339   */\n      tag_484\n        /* \"#utility.yul\":21337:21338   */\n      dup4\n        /* \"#utility.yul\":21319:21339   */\n      tag_206\n      jump\t// in\n    tag_484:\n        /* \"#utility.yul\":21314:21339   */\n      swap3\n      pop\n        /* \"#utility.yul\":21374:21375   */\n      dup3\n        /* \"#utility.yul\":21371:21372   */\n      dup3\n        /* \"#utility.yul\":21367:21376   */\n      mul\n        /* \"#utility.yul\":21396:21426   */\n      tag_485\n        /* \"#utility.yul\":21414:21425   */\n      dup2\n        /* \"#utility.yul\":21396:21426   */\n      tag_206\n      jump\t// in\n    tag_485:\n        /* \"#utility.yul\":21385:21426   */\n      swap2\n      pop\n        /* \"#utility.yul\":21575:21576   */\n      dup3\n        /* \"#utility.yul\":21566:21573   */\n      dup3\n        /* \"#utility.yul\":21562:21577   */\n      div\n        /* \"#utility.yul\":21559:21560   */\n      dup5\n        /* \"#utility.yul\":21556:21578   */\n      eq\n        /* \"#utility.yul\":21536:21537   */\n      dup4\n        /* \"#utility.yul\":21529:21538   */\n      iszero\n        /* \"#utility.yul\":21509:21592   */\n      or\n        /* \"#utility.yul\":21486:21625   */\n      tag_486\n      jumpi\n        /* \"#utility.yul\":21605:21623   */\n      tag_487\n      tag_247\n      jump\t// in\n    tag_487:\n        /* \"#utility.yul\":21486:21625   */\n    tag_486:\n        /* \"#utility.yul\":21270:21632   */\n      pop\n        /* \"#utility.yul\":21222:21632   */\n      swap3\n      swap2\n      pop\n      pop\n      jump\t// out\n        /* \"#utility.yul\":21638:21808   */\n    tag_262:\n        /* \"#utility.yul\":21778:21800   */\n      0x5369676e61747572657320746f6f2073686f7274000000000000000000000000\n        /* \"#utility.yul\":21774:21775   */\n      0x00\n        /* \"#utility.yul\":21766:21772   */\n      dup3\n        /* \"#utility.yul\":21762:21776   */\n      add\n        /* \"#utility.yul\":21755:21801   */\n      mstore\n        /* \"#utility.yul\":21638:21808   */\n      pop\n      jump\t// out\n        /* \"#utility.yul\":21814:22180   */\n    tag_263:\n        /* \"#utility.yul\":21956:21959   */\n      0x00\n        /* \"#utility.yul\":21977:22044   */\n      tag_490\n        /* \"#utility.yul\":22041:22043   */\n      0x14\n        /* \"#utility.yul\":22036:22039   */\n      dup4\n        /* \"#utility.yul\":21977:22044   */\n      tag_251\n      jump\t// in\n    tag_490:\n        /* \"#utility.yul\":21970:22044   */\n      swap2\n      pop\n        /* \"#utility.yul\":22053:22146   */\n      tag_491\n        /* \"#utility.yul\":22142:22145   */\n      dup3\n        /* \"#utility.yul\":22053:22146   */\n      tag_262\n      jump\t// in\n    tag_491:\n        /* \"#utility.yul\":22171:22173   */\n      0x20\n        /* \"#utility.yul\":22166:22169   */\n      dup3\n        /* \"#utility.yul\":22162:22174   */\n      add\n        /* \"#utility.yul\":22155:22174   */\n      swap1\n      pop\n        /* \"#utility.yul\":21814:22180   */\n      swap2\n      swap1\n      pop\n      jump\t// out\n        /* \"#utility.yul\":22186:22605   */\n    tag_178:\n        /* \"#utility.yul\":22352:22356   */\n      0x00\n        /* \"#utility.yul\":22390:22392   */\n      0x20\n        /* \"#utility.yul\":22379:22388   */\n      dup3\n        /* \"#utility.yul\":22375:22393   */\n      add\n        /* \"#utility.yul\":22367:22393   */\n      swap1\n      pop\n        /* \"#utility.yul\":22439:22448   */\n      dup2\n        /* \"#utility.yul\":22433:22437   */\n      dup2\n        /* \"#utility.yul\":22429:22449   */\n      sub\n        /* \"#utility.yul\":22425:22426   */\n      0x00\n        /* \"#utility.yul\":22414:22423   */\n      dup4\n        /* \"#utility.yul\":22410:22427   */\n      add\n        /* \"#utility.yul\":22403:22450   */\n      mstore\n        /* \"#utility.yul\":22467:22598   */\n      tag_493\n        /* \"#utility.yul\":22593:22597   */\n      dup2\n        /* \"#utility.yul\":22467:22598   */\n      tag_263\n      jump\t// in\n    tag_493:\n        /* \"#utility.yul\":22459:22598   */\n      swap1\n      pop\n        /* \"#utility.yul\":22186:22605   */\n      swap2\n      swap1\n      pop\n      jump\t// out\n        /* \"#utility.yul\":22611:22759   */\n    tag_264:\n        /* \"#utility.yul\":22713:22724   */\n      0x00\n        /* \"#utility.yul\":22750:22753   */\n      dup2\n        /* \"#utility.yul\":22735:22753   */\n      swap1\n      pop\n        /* \"#utility.yul\":22611:22759   */\n      swap3\n      swap2\n      pop\n      pop\n      jump\t// out\n        /* \"#utility.yul\":22765:22979   */\n    tag_265:\n        /* \"#utility.yul\":22905:22971   */\n      0x19457468657265756d205369676e6564204d6573736167653a0a333200000000\n        /* \"#utility.yul\":22901:22902   */\n      0x00\n        /* \"#utility.yul\":22893:22899   */\n      dup3\n        /* \"#utility.yul\":22889:22903   */\n      add\n        /* \"#utility.yul\":22882:22972   */\n      mstore\n        /* \"#utility.yul\":22765:22979   */\n      pop\n      jump\t// out\n        /* \"#utility.yul\":22985:23387   */\n    tag_266:\n        /* \"#utility.yul\":23145:23148   */\n      0x00\n        /* \"#utility.yul\":23166:23251   */\n      tag_497\n        /* \"#utility.yul\":23248:23250   */\n      0x1c\n        /* \"#utility.yul\":23243:23246   */\n      dup4\n        /* \"#utility.yul\":23166:23251   */\n      tag_264\n      jump\t// in\n    tag_497:\n        /* \"#utility.yul\":23159:23251   */\n      swap2\n      pop\n        /* \"#utility.yul\":23260:23353   */\n      tag_498\n        /* \"#utility.yul\":23349:23352   */\n      dup3\n        /* \"#utility.yul\":23260:23353   */\n      tag_265\n      jump\t// in\n    tag_498:\n        /* \"#utility.yul\":23378:23380   */\n      0x1c\n        /* \"#utility.yul\":23373:23376   */\n      dup3\n        /* \"#utility.yul\":23369:23381   */\n      add\n        /* \"#utility.yul\":23362:23381   */\n      swap1\n      pop\n        /* \"#utility.yul\":22985:23387   */\n      swap2\n      swap1\n      pop\n      jump\t// out\n        /* \"#utility.yul\":23393:23472   */\n    tag_267:\n        /* \"#utility.yul\":23432:23439   */\n      0x00\n        /* \"#utility.yul\":23461:23466   */\n      dup2\n        /* \"#utility.yul\":23450:23466   */\n      swap1\n      pop\n        /* \"#utility.yul\":23393:23472   */\n      swap2\n      swap1\n      pop\n      jump\t// out\n        /* \"#utility.yul\":23478:23635   */\n    tag_268:\n        /* \"#utility.yul\":23583:23628   */\n      tag_501\n        /* \"#utility.yul\":23603:23627   */\n      tag_502\n        /* \"#utility.yul\":23621:23626   */\n      dup3\n        /* \"#utility.yul\":23603:23627   */\n      tag_243\n      jump\t// in\n    tag_502:\n        /* \"#utility.yul\":23583:23628   */\n      tag_267\n      jump\t// in\n    tag_501:\n        /* \"#utility.yul\":23578:23581   */\n      dup3\n        /* \"#utility.yul\":23571:23629   */\n      mstore\n        /* \"#utility.yul\":23478:23635   */\n      pop\n      pop\n      jump\t// out\n        /* \"#utility.yul\":23641:24163   */\n    tag_185:\n        /* \"#utility.yul\":23854:23857   */\n      0x00\n        /* \"#utility.yul\":23876:24024   */\n      tag_504\n        /* \"#utility.yul\":24020:24023   */\n      dup3\n        /* \"#utility.yul\":23876:24024   */\n      tag_266\n      jump\t// in\n    tag_504:\n        /* \"#utility.yul\":23869:24024   */\n      swap2\n      pop\n        /* \"#utility.yul\":24034:24109   */\n      tag_505\n        /* \"#utility.yul\":24105:24108   */\n      dup3\n        /* \"#utility.yul\":24096:24102   */\n      dup5\n        /* \"#utility.yul\":24034:24109   */\n      tag_268\n      jump\t// in\n    tag_505:\n        /* \"#utility.yul\":24134:24136   */\n      0x20\n        /* \"#utility.yul\":24129:24132   */\n      dup3\n        /* \"#utility.yul\":24125:24137   */\n      add\n        /* \"#utility.yul\":24118:24137   */\n      swap2\n      pop\n        /* \"#utility.yul\":24154:24157   */\n      dup2\n        /* \"#utility.yul\":24147:24157   */\n      swap1\n      pop\n        /* \"#utility.yul\":23641:24163   */\n      swap3\n      swap2\n      pop\n      pop\n      jump\t// out\n        /* \"#utility.yul\":24169:24255   */\n    tag_269:\n        /* \"#utility.yul\":24204:24211   */\n      0x00\n        /* \"#utility.yul\":24244:24248   */\n      0xff\n        /* \"#utility.yul\":24237:24242   */\n      dup3\n        /* \"#utility.yul\":24233:24249   */\n      and\n        /* \"#utility.yul\":24222:24249   */\n      swap1\n      pop\n        /* \"#utility.yul\":24169:24255   */\n      swap2\n      swap1\n      pop\n      jump\t// out\n        /* \"#utility.yul\":24261:24373   */\n    tag_270:\n        /* \"#utility.yul\":24344:24366   */\n      tag_508\n        /* \"#utility.yul\":24360:24365   */\n      dup2\n        /* \"#utility.yul\":24344:24366   */\n      tag_269\n      jump\t// in\n    tag_508:\n        /* \"#utility.yul\":24339:24342   */\n      dup3\n        /* \"#utility.yul\":24332:24367   */\n      mstore\n        /* \"#utility.yul\":24261:24373   */\n      pop\n      pop\n      jump\t// out\n        /* \"#utility.yul\":24379:24924   */\n    tag_187:\n        /* \"#utility.yul\":24552:24556   */\n      0x00\n        /* \"#utility.yul\":24590:24593   */\n      0x80\n        /* \"#utility.yul\":24579:24588   */\n      dup3\n        /* \"#utility.yul\":24575:24594   */\n      add\n        /* \"#utility.yul\":24567:24594   */\n      swap1\n      pop\n        /* \"#utility.yul\":24604:24675   */\n      tag_510\n        /* \"#utility.yul\":24672:24673   */\n      0x00\n        /* \"#utility.yul\":24661:24670   */\n      dup4\n        /* \"#utility.yul\":24657:24674   */\n      add\n        /* \"#utility.yul\":24648:24654   */\n      dup8\n        /* \"#utility.yul\":24604:24675   */\n      tag_246\n      jump\t// in\n    tag_510:\n        /* \"#utility.yul\":24685:24753   */\n      tag_511\n        /* \"#utility.yul\":24749:24751   */\n      0x20\n        /* \"#utility.yul\":24738:24747   */\n      dup4\n        /* \"#utility.yul\":24734:24752   */\n      add\n        /* \"#utility.yul\":24725:24731   */\n      dup7\n        /* \"#utility.yul\":24685:24753   */\n      tag_270\n      jump\t// in\n    tag_511:\n        /* \"#utility.yul\":24763:24835   */\n      tag_512\n        /* \"#utility.yul\":24831:24833   */\n      0x40\n        /* \"#utility.yul\":24820:24829   */\n      dup4\n        /* \"#utility.yul\":24816:24834   */\n      add\n        /* \"#utility.yul\":24807:24813   */\n      dup6\n        /* \"#utility.yul\":24763:24835   */\n      tag_246\n      jump\t// in\n    tag_512:\n        /* \"#utility.yul\":24845:24917   */\n      tag_513\n        /* \"#utility.yul\":24913:24915   */\n      0x60\n        /* \"#utility.yul\":24902:24911   */\n      dup4\n        /* \"#utility.yul\":24898:24916   */\n      add\n        /* \"#utility.yul\":24889:24895   */\n      dup5\n        /* \"#utility.yul\":24845:24917   */\n      tag_246\n      jump\t// in\n    tag_513:\n        /* \"#utility.yul\":24379:24924   */\n      swap6\n      swap5\n      pop\n      pop\n      pop\n      pop\n      pop\n      jump\t// out\n        /* \"#utility.yul\":24930:25087   */\n    tag_271:\n        /* \"#utility.yul\":25070:25079   */\n      0x6572726f72303600000000000000000000000000000000000000000000000000\n        /* \"#utility.yul\":25066:25067   */\n      0x00\n        /* \"#utility.yul\":25058:25064   */\n      dup3\n        /* \"#utility.yul\":25054:25068   */\n      add\n        /* \"#utility.yul\":25047:25080   */\n      mstore\n        /* \"#utility.yul\":24930:25087   */\n      pop\n      jump\t// out\n        /* \"#utility.yul\":25093:25458   */\n    tag_272:\n        /* \"#utility.yul\":25235:25238   */\n      0x00\n        /* \"#utility.yul\":25256:25322   */\n      tag_516\n        /* \"#utility.yul\":25320:25321   */\n      0x07\n        /* \"#utility.yul\":25315:25318   */\n      dup4\n        /* \"#utility.yul\":25256:25322   */\n      tag_251\n      jump\t// in\n    tag_516:\n        /* \"#utility.yul\":25249:25322   */\n      swap2\n      pop\n        /* \"#utility.yul\":25331:25424   */\n      tag_517\n        /* \"#utility.yul\":25420:25423   */\n      dup3\n        /* \"#utility.yul\":25331:25424   */\n      tag_271\n      jump\t// in\n    tag_517:\n        /* \"#utility.yul\":25449:25451   */\n      0x20\n        /* \"#utility.yul\":25444:25447   */\n      dup3\n        /* \"#utility.yul\":25440:25452   */\n      add\n        /* \"#utility.yul\":25433:25452   */\n      swap1\n      pop\n        /* \"#utility.yul\":25093:25458   */\n      swap2\n      swap1\n      pop\n      jump\t// out\n        /* \"#utility.yul\":25464:25883   */\n    tag_194:\n        /* \"#utility.yul\":25630:25634   */\n      0x00\n        /* \"#utility.yul\":25668:25670   */\n      0x20\n        /* \"#utility.yul\":25657:25666   */\n      dup3\n        /* \"#utility.yul\":25653:25671   */\n      add\n        /* \"#utility.yul\":25645:25671   */\n      swap1\n      pop\n        /* \"#utility.yul\":25717:25726   */\n      dup2\n        /* \"#utility.yul\":25711:25715   */\n      dup2\n        /* \"#utility.yul\":25707:25727   */\n      sub\n        /* \"#utility.yul\":25703:25704   */\n      0x00\n        /* \"#utility.yul\":25692:25701   */\n      dup4\n        /* \"#utility.yul\":25688:25705   */\n      add\n        /* \"#utility.yul\":25681:25728   */\n      mstore\n        /* \"#utility.yul\":25745:25876   */\n      tag_519\n        /* \"#utility.yul\":25871:25875   */\n      dup2\n        /* \"#utility.yul\":25745:25876   */\n      tag_272\n      jump\t// in\n    tag_519:\n        /* \"#utility.yul\":25737:25876   */\n      swap1\n      pop\n        /* \"#utility.yul\":25464:25883   */\n      swap2\n      swap1\n      pop\n      jump\t// out\n        /* \"#utility.yul\":25889:26060   */\n    tag_203:\n        /* \"#utility.yul\":25928:25931   */\n      0x00\n        /* \"#utility.yul\":25951:25975   */\n      tag_521\n        /* \"#utility.yul\":25969:25974   */\n      dup3\n        /* \"#utility.yul\":25951:25975   */\n      tag_206\n      jump\t// in\n    tag_521:\n        /* \"#utility.yul\":25942:25975   */\n      swap2\n      pop\n        /* \"#utility.yul\":25997:26001   */\n      0x00\n        /* \"#utility.yul\":25990:25995   */\n      dup3\n        /* \"#utility.yul\":25987:26002   */\n      sub\n        /* \"#utility.yul\":25984:26025   */\n      tag_522\n      jumpi\n        /* \"#utility.yul\":26005:26023   */\n      tag_523\n      tag_247\n      jump\t// in\n    tag_523:\n        /* \"#utility.yul\":25984:26025   */\n    tag_522:\n        /* \"#utility.yul\":26052:26053   */\n      0x01\n        /* \"#utility.yul\":26045:26050   */\n      dup3\n        /* \"#utility.yul\":26041:26054   */\n      sub\n        /* \"#utility.yul\":26034:26054   */\n      swap1\n      pop\n        /* \"#utility.yul\":25889:26060   */\n      swap2\n      swap1\n      pop\n      jump\t// out\n\n    auxdata: 0xa26469706673582212202c36c91c11f9e698e4c79bf90922e29f8442468afa20a97e9ad09cedf9cad27d64736f6c63430008120033\n}\n",
				"bytecode": {
					"linkReferences": {},
					"object": "60806040523480156200001157600080fd5b5060405162002e1438038062002e14833981810160405281019062000037919062000ae8565b6200004982826200005160201b60201c565b505062000dd2565b60006001541462000099576040517f08c379a0000000000000000000000000000000000000000000000000000000008152600401620000909062000baf565b60405180910390fd5b8151811115620000e0576040517f08c379a0000000000000000000000000000000000000000000000000000000008152600401620000d79062000c21565b60405180910390fd5b600181101562000127576040517f08c379a00000000000000000000000000000000000000000000000000000000081526004016200011e9062000c93565b60405180910390fd5b60006001905060005b83518110156200024e57600084828151811062000152576200015162000cb5565b5b60200260200101519050600073ffffffffffffffffffffffffffffffffffffffff168173ffffffffffffffffffffffffffffffffffffffff1614158015620001c657503073ffffffffffffffffffffffffffffffffffffffff168173ffffffffffffffffffffffffffffffffffffffff1614155b8015620001e15750620001df816200026360201b60201c565b155b62000223576040517f08c379a00000000000000000000000000000000000000000000000000000000081526004016200021a9062000d34565b60405180910390fd5b6200023481620003be60201b60201c565b809250508080620002459062000d85565b91505062000130565b50816001819055508251600081905550505050565b60008073ffffffffffffffffffffffffffffffffffffffff16600260008473ffffffffffffffffffffffffffffffffffffffff1673ffffffffffffffffffffffffffffffffffffffff16815260200190815260200160002060008015151515815260200190815260200160002060009054906101000a900473ffffffffffffffffffffffffffffffffffffffff1673ffffffffffffffffffffffffffffffffffffffff16141580620003b75750600073ffffffffffffffffffffffffffffffffffffffff16600260008473ffffffffffffffffffffffffffffffffffffffff1673ffffffffffffffffffffffffffffffffffffffff1681526020019081526020016000206000600115151515815260200190815260200160002060009054906101000a900473ffffffffffffffffffffffffffffffffffffffff1673ffffffffffffffffffffffffffffffffffffffff1614155b9050919050565b600073ffffffffffffffffffffffffffffffffffffffff168173ffffffffffffffffffffffffffffffffffffffff16141580156200042857503073ffffffffffffffffffffffffffffffffffffffff168173ffffffffffffffffffffffffffffffffffffffff1614155b801562000443575062000441816200026360201b60201c565b155b62000485576040517f08c379a00000000000000000000000000000000000000000000000000000000081526004016200047c9062000d34565b60405180910390fd5b6000600190506000620004a08260016200064560201b60201c565b9050809150505b600073ffffffffffffffffffffffffffffffffffffffff168173ffffffffffffffffffffffffffffffffffffffff1614620005dd578273ffffffffffffffffffffffffffffffffffffffff168173ffffffffffffffffffffffffffffffffffffffff161180156200054357508273ffffffffffffffffffffffffffffffffffffffff168273ffffffffffffffffffffffffffffffffffffffff16105b1562000563576200055d82846001620006ee60201b60201c565b620005dd565b8273ffffffffffffffffffffffffffffffffffffffff168173ffffffffffffffffffffffffffffffffffffffff161115620005ba57819050620005ae8260006200064560201b60201c565b905080925050620005d7565b809150620005d08160016200064560201b60201c565b9050809150505b620004a7565b600073ffffffffffffffffffffffffffffffffffffffff168173ffffffffffffffffffffffffffffffffffffffff160362000627576200062682846001620006ee60201b60201c565b5b6000808154809291906200063b9062000d85565b9190505550505050565b60008062000659846200026360201b60201c565b6200066b5760008091509150620006e7565b6001600260008673ffffffffffffffffffffffffffffffffffffffff1673ffffffffffffffffffffffffffffffffffffffff16815260200190815260200160002060008515151515815260200190815260200160002060009054906101000a900473ffffffffffffffffffffffffffffffffffffffff16915091505b9250929050565b6000600260008573ffffffffffffffffffffffffffffffffffffffff1673ffffffffffffffffffffffffffffffffffffffff16815260200190815260200160002060008315151515815260200190815260200160002060009054906101000a900473ffffffffffffffffffffffffffffffffffffffff1690506200077a8484846200079360201b60201c565b6200078d8382846200079360201b60201c565b50505050565b82600260008473ffffffffffffffffffffffffffffffffffffffff1673ffffffffffffffffffffffffffffffffffffffff1681526020019081526020016000206000831515151515815260200190815260200160002060006101000a81548173ffffffffffffffffffffffffffffffffffffffff021916908373ffffffffffffffffffffffffffffffffffffffff16021790555081600260008573ffffffffffffffffffffffffffffffffffffffff1673ffffffffffffffffffffffffffffffffffffffff16815260200190815260200160002060008315151515815260200190815260200160002060006101000a81548173ffffffffffffffffffffffffffffffffffffffff021916908373ffffffffffffffffffffffffffffffffffffffff160217905550505050565b6000604051905090565b600080fd5b600080fd5b600080fd5b6000601f19601f8301169050919050565b7f4e487b7100000000000000000000000000000000000000000000000000000000600052604160045260246000fd5b6200092382620008d8565b810181811067ffffffffffffffff82111715620009455762000944620008e9565b5b80604052505050565b60006200095a620008bf565b905062000968828262000918565b919050565b600067ffffffffffffffff8211156200098b576200098a620008e9565b5b602082029050602081019050919050565b600080fd5b600073ffffffffffffffffffffffffffffffffffffffff82169050919050565b6000620009ce82620009a1565b9050919050565b620009e081620009c1565b8114620009ec57600080fd5b50565b60008151905062000a0081620009d5565b92915050565b600062000a1d62000a17846200096d565b6200094e565b9050808382526020820190506020840283018581111562000a435762000a426200099c565b5b835b8181101562000a70578062000a5b8882620009ef565b84526020840193505060208101905062000a45565b5050509392505050565b600082601f83011262000a925762000a91620008d3565b5b815162000aa484826020860162000a06565b91505092915050565b6000819050919050565b62000ac28162000aad565b811462000ace57600080fd5b50565b60008151905062000ae28162000ab7565b92915050565b6000806040838503121562000b025762000b01620008c9565b5b600083015167ffffffffffffffff81111562000b235762000b22620008ce565b5b62000b318582860162000a7a565b925050602062000b448582860162000ad1565b9150509250929050565b600082825260208201905092915050565b7f6572726f72303100000000000000000000000000000000000000000000000000600082015250565b600062000b9760078362000b4e565b915062000ba48262000b5f565b602082019050919050565b6000602082019050818103600083015262000bca8162000b88565b9050919050565b7f6572726f72303200000000000000000000000000000000000000000000000000600082015250565b600062000c0960078362000b4e565b915062000c168262000bd1565b602082019050919050565b6000602082019050818103600083015262000c3c8162000bfa565b9050919050565b7f6572726f72303300000000000000000000000000000000000000000000000000600082015250565b600062000c7b60078362000b4e565b915062000c888262000c43565b602082019050919050565b6000602082019050818103600083015262000cae8162000c6c565b9050919050565b7f4e487b7100000000000000000000000000000000000000000000000000000000600052603260045260246000fd5b7f6572726f72303400000000000000000000000000000000000000000000000000600082015250565b600062000d1c60078362000b4e565b915062000d298262000ce4565b602082019050919050565b6000602082019050818103600083015262000d4f8162000d0d565b9050919050565b7f4e487b7100000000000000000000000000000000000000000000000000000000600052601160045260246000fd5b600062000d928262000aad565b91507fffffffffffffffffffffffffffffffffffffffffffffffffffffffffffffffff820362000dc75762000dc662000d56565b5b600182019050919050565b6120328062000de26000396000f3fe6080604052600436106100c65760003560e01c806381244e5d1161007f578063affed0e011610059578063affed0e0146102fc578063c0f0b3f114610327578063ef11783c14610350578063ff87578c1461038d57610104565b806381244e5d1461026b578063831c9e2e146102965780638b30486c146102bf57610104565b8063029c81e3146101425780630c3dfc1a1461016d5780630fce747a1461019857806354910298146101c85780636876a95e14610205578063694e80c31461024257610104565b36610104577f1776003212b2028854792a50b4eff933707f4a7576de0678b9f21b4d6c99dc28346040516100fa9190611301565b60405180910390a1005b7f54e5fbadefe8e4e5345e8c6a9ce1017e52802fd305c8d69255f2fb1ddacebf36346000366040516101389392919061137a565b60405180910390a1005b34801561014e57600080fd5b506101576103ca565b604051610164919061149c565b60405180910390f35b34801561017957600080fd5b5061018261051d565b60405161018f9190611301565b60405180910390f35b6101b260048036038101906101ad91906116b0565b610523565b6040516101bf919061176f565b60405180910390f35b3480156101d457600080fd5b506101ef60048036038101906101ea919061178a565b61067d565b6040516101fc9190611838565b60405180910390f35b34801561021157600080fd5b5061022c6004803603810190610227919061185a565b610718565b6040516102399190611838565b60405180910390f35b34801561024e57600080fd5b506102696004803603810190610264919061185a565b6107b0565b005b34801561027757600080fd5b506102806108ea565b60405161028d9190611301565b60405180910390f35b3480156102a257600080fd5b506102bd60048036038101906102b891906118bd565b6108f4565b005b3480156102cb57600080fd5b506102e660048036038101906102e19190611919565b61094e565b6040516102f39190611997565b60405180910390f35b34801561030857600080fd5b50610311610968565b60405161031e9190611301565b60405180910390f35b34801561033357600080fd5b5061034e6004803603810190610349919061178a565b61096e565b005b34801561035c57600080fd5b50610377600480360381019061037291906119b2565b610ad8565b604051610384919061176f565b60405180910390f35b34801561039957600080fd5b506103b460048036038101906103af919061178a565b610c32565b6040516103c19190611838565b60405180910390f35b60606000805467ffffffffffffffff8111156103e9576103e8611594565b5b6040519080825280602002602001820160405280156104175781602001602082028036833780820191505090505b509050600060026000600173ffffffffffffffffffffffffffffffffffffffff1673ffffffffffffffffffffffffffffffffffffffff1681526020019081526020016000206000600115151515815260200190815260200160002060009054906101000a900473ffffffffffffffffffffffffffffffffffffffff16905060005b60005481101561051457818382815181106104b6576104b56119df565b5b602002602001019073ffffffffffffffffffffffffffffffffffffffff16908173ffffffffffffffffffffffffffffffffffffffff16815250506104fb826001610ccd565b905080925050808061050c90611a3d565b915050610498565b82935050505090565b60005481565b600080610579878787878080601f016020809104026020016040519081016040528093929190818152602001838380828437600081840152601f19601f8201169050808301925050505050505060035446610d6c565b90506003600081548092919061058e90611a3d565b919050555061059d81846108f4565b8673ffffffffffffffffffffffffffffffffffffffff168686866040516105c5929190611ab5565b60006040518083038185875af1925050503d8060008114610602576040519150601f19603f3d011682016040523d82523d6000602084013e610607565b606091505b505080925050811561064557807fdc29884a71d2bb98d3c53dc09718be05c7bfd142b7773a5c5cf2517629290ac060405160405180910390a2610673565b807fdbe42d02a4e07d7eeff2874efe172540c93b297d206f6d691c9782a257323e3260405160405180910390a25b5095945050505050565b60607fc0f0b3f17d4cd2b558f2e7888914cd773111e1da10e55baf4d1f32e1f6c2222f83836040516024016106b3929190611add565b604051602081830303815290604052907bffffffffffffffffffffffffffffffffffffffffffffffffffffffff19166020820180517bffffffffffffffffffffffffffffffffffffffffffffffffffffffff8381831617835250505050905092915050565b60607f694e80c37192d74d6099f3d3b41506932ab644a24442ee51857cfeb9eb01ac2f8260405160240161074c9190611301565b604051602081830303815290604052907bffffffffffffffffffffffffffffffffffffffffffffffffffffffff19166020820180517bffffffffffffffffffffffffffffffffffffffffffffffffffffffff83818316178352505050509050919050565b3073ffffffffffffffffffffffffffffffffffffffff163373ffffffffffffffffffffffffffffffffffffffff161461081e576040517f08c379a000000000000000000000000000000000000000000000000000000000815260040161081590611b63565b60405180910390fd5b600054811115610863576040517f08c379a000000000000000000000000000000000000000000000000000000000815260040161085a90611bcf565b60405180910390fd5b60018110156108a7576040517f08c379a000000000000000000000000000000000000000000000000000000000815260040161089e90611c3b565b60405180910390fd5b806001819055507f9947ac58e204d2da07b9748298663b3b77da7fb0638201d778987ded7c90fbaa6001546040516108df9190611301565b60405180910390a150565b6000600154905090565b600060015490506000811161093e576040517f08c379a000000000000000000000000000000000000000000000000000000000815260040161093590611ca7565b60405180910390fd5b610949838383610db4565b505050565b600061095f84848460035446610d6c565b90509392505050565b60035481565b3073ffffffffffffffffffffffffffffffffffffffff163373ffffffffffffffffffffffffffffffffffffffff16146109dc576040517f08c379a00000000000000000000000000000000000000000000000000000000081526004016109d390611b63565b60405180910390fd5b8060016000546109ec9190611cc7565b1015610a2d576040517f08c379a0000000000000000000000000000000000000000000000000000000008152600401610a2490611bcf565b60405180910390fd5b610a3682610ad8565b610a75576040517f08c379a0000000000000000000000000000000000000000000000000000000008152600401610a6c90611d47565b60405180910390fd5b610a7e82610f47565b8173ffffffffffffffffffffffffffffffffffffffff167fac6e8398676cf37429d530b81144d7079e99f4fe9d28b0d88c4a749ceccbe8cd60405160405180910390a26001548114610ad457610ad3816107b0565b5b5050565b60008073ffffffffffffffffffffffffffffffffffffffff16600260008473ffffffffffffffffffffffffffffffffffffffff1673ffffffffffffffffffffffffffffffffffffffff16815260200190815260200160002060008015151515815260200190815260200160002060009054906101000a900473ffffffffffffffffffffffffffffffffffffffff1673ffffffffffffffffffffffffffffffffffffffff16141580610c2b5750600073ffffffffffffffffffffffffffffffffffffffff16600260008473ffffffffffffffffffffffffffffffffffffffff1673ffffffffffffffffffffffffffffffffffffffff1681526020019081526020016000206000600115151515815260200190815260200160002060009054906101000a900473ffffffffffffffffffffffffffffffffffffffff1673ffffffffffffffffffffffffffffffffffffffff1614155b9050919050565b60607f0c54620469a3eeff8e01e9971bcf46e640abbf3fa3139aa3afa97959f3d744998383604051602401610c68929190611add565b604051602081830303815290604052907bffffffffffffffffffffffffffffffffffffffffffffffffffffffff19166020820180517bffffffffffffffffffffffffffffffffffffffffffffffffffffffff8381831617835250505050905092915050565b600080610cd984610ad8565b610ce95760008091509150610d65565b6001600260008673ffffffffffffffffffffffffffffffffffffffff1673ffffffffffffffffffffffffffffffffffffffff16815260200190815260200160002060008515151515815260200190815260200160002060009054906101000a900473ffffffffffffffffffffffffffffffffffffffff16915091505b9250929050565b600080868686805190602001208686604051602001610d8f959493929190611d67565b6040516020818303038152906040528051906020012090508091505095945050505050565b604181610dc19190611dba565b82511015610e04576040517f08c379a0000000000000000000000000000000000000000000000000000000008152600401610dfb90611e48565b60405180910390fd5b600080600080600080600090505b86811015610f3c57610e24888261118d565b809450819550829650505050600189604051602001610e439190611ee0565b6040516020818303038152906040528051906020012085858560405160008152602001604052604051610e799493929190611f22565b6020604051602081039080840390855afa158015610e9b573d6000803e3d6000fd5b5050506020604051035194508573ffffffffffffffffffffffffffffffffffffffff168573ffffffffffffffffffffffffffffffffffffffff16118015610ee75750610ee685610ad8565b5b610f26576040517f08c379a0000000000000000000000000000000000000000000000000000000008152600401610f1d90611fb3565b60405180910390fd5b8495508080610f3490611a3d565b915050610e12565b505050505050505050565b610f5081610ad8565b610f8f576040517f08c379a0000000000000000000000000000000000000000000000000000000008152600401610f8690611d47565b60405180910390fd5b611084600260008373ffffffffffffffffffffffffffffffffffffffff1673ffffffffffffffffffffffffffffffffffffffff16815260200190815260200160002060008015151515815260200190815260200160002060009054906101000a900473ffffffffffffffffffffffffffffffffffffffff16600260008473ffffffffffffffffffffffffffffffffffffffff1673ffffffffffffffffffffffffffffffffffffffff1681526020019081526020016000206000600115151515815260200190815260200160002060009054906101000a900473ffffffffffffffffffffffffffffffffffffffff1660016111bc565b600260008273ffffffffffffffffffffffffffffffffffffffff1673ffffffffffffffffffffffffffffffffffffffff16815260200190815260200160002060008015151515815260200190815260200160002060006101000a81549073ffffffffffffffffffffffffffffffffffffffff0219169055600260008273ffffffffffffffffffffffffffffffffffffffff1673ffffffffffffffffffffffffffffffffffffffff1681526020019081526020016000206000600115151515815260200190815260200160002060006101000a81549073ffffffffffffffffffffffffffffffffffffffff021916905560008081548092919061118590611fd3565b919050555050565b60008060008360410260208101860151925060408101860151915060ff60418201870151169350509250925092565b82600260008473ffffffffffffffffffffffffffffffffffffffff1673ffffffffffffffffffffffffffffffffffffffff1681526020019081526020016000206000831515151515815260200190815260200160002060006101000a81548173ffffffffffffffffffffffffffffffffffffffff021916908373ffffffffffffffffffffffffffffffffffffffff16021790555081600260008573ffffffffffffffffffffffffffffffffffffffff1673ffffffffffffffffffffffffffffffffffffffff16815260200190815260200160002060008315151515815260200190815260200160002060006101000a81548173ffffffffffffffffffffffffffffffffffffffff021916908373ffffffffffffffffffffffffffffffffffffffff160217905550505050565b6000819050919050565b6112fb816112e8565b82525050565b600060208201905061131660008301846112f2565b92915050565b600082825260208201905092915050565b82818337600083830152505050565b6000601f19601f8301169050919050565b6000611359838561131c565b935061136683858461132d565b61136f8361133c565b840190509392505050565b600060408201905061138f60008301866112f2565b81810360208301526113a281848661134d565b9050949350505050565b600081519050919050565b600082825260208201905092915050565b6000819050602082019050919050565b600073ffffffffffffffffffffffffffffffffffffffff82169050919050565b6000611403826113d8565b9050919050565b611413816113f8565b82525050565b6000611425838361140a565b60208301905092915050565b6000602082019050919050565b6000611449826113ac565b61145381856113b7565b935061145e836113c8565b8060005b8381101561148f5781516114768882611419565b975061148183611431565b925050600181019050611462565b5085935050505092915050565b600060208201905081810360008301526114b6818461143e565b905092915050565b6000604051905090565b600080fd5b600080fd5b6114db816113f8565b81146114e657600080fd5b50565b6000813590506114f8816114d2565b92915050565b611507816112e8565b811461151257600080fd5b50565b600081359050611524816114fe565b92915050565b600080fd5b600080fd5b600080fd5b60008083601f84011261154f5761154e61152a565b5b8235905067ffffffffffffffff81111561156c5761156b61152f565b5b60208301915083600182028301111561158857611587611534565b5b9250929050565b600080fd5b7f4e487b7100000000000000000000000000000000000000000000000000000000600052604160045260246000fd5b6115cc8261133c565b810181811067ffffffffffffffff821117156115eb576115ea611594565b5b80604052505050565b60006115fe6114be565b905061160a82826115c3565b919050565b600067ffffffffffffffff82111561162a57611629611594565b5b6116338261133c565b9050602081019050919050565b600061165361164e8461160f565b6115f4565b90508281526020810184848401111561166f5761166e61158f565b5b61167a84828561132d565b509392505050565b600082601f8301126116975761169661152a565b5b81356116a7848260208601611640565b91505092915050565b6000806000806000608086880312156116cc576116cb6114c8565b5b60006116da888289016114e9565b95505060206116eb88828901611515565b945050604086013567ffffffffffffffff81111561170c5761170b6114cd565b5b61171888828901611539565b9350935050606086013567ffffffffffffffff81111561173b5761173a6114cd565b5b61174788828901611682565b9150509295509295909350565b60008115159050919050565b61176981611754565b82525050565b60006020820190506117846000830184611760565b92915050565b600080604083850312156117a1576117a06114c8565b5b60006117af858286016114e9565b92505060206117c085828601611515565b9150509250929050565b600081519050919050565b60005b838110156117f35780820151818401526020810190506117d8565b60008484015250505050565b600061180a826117ca565b611814818561131c565b93506118248185602086016117d5565b61182d8161133c565b840191505092915050565b6000602082019050818103600083015261185281846117ff565b905092915050565b6000602082840312156118705761186f6114c8565b5b600061187e84828501611515565b91505092915050565b6000819050919050565b61189a81611887565b81146118a557600080fd5b50565b6000813590506118b781611891565b92915050565b600080604083850312156118d4576118d36114c8565b5b60006118e2858286016118a8565b925050602083013567ffffffffffffffff811115611903576119026114cd565b5b61190f85828601611682565b9150509250929050565b600080600060608486031215611932576119316114c8565b5b6000611940868287016114e9565b935050602061195186828701611515565b925050604084013567ffffffffffffffff811115611972576119716114cd565b5b61197e86828701611682565b9150509250925092565b61199181611887565b82525050565b60006020820190506119ac6000830184611988565b92915050565b6000602082840312156119c8576119c76114c8565b5b60006119d6848285016114e9565b91505092915050565b7f4e487b7100000000000000000000000000000000000000000000000000000000600052603260045260246000fd5b7f4e487b7100000000000000000000000000000000000000000000000000000000600052601160045260246000fd5b6000611a48826112e8565b91507fffffffffffffffffffffffffffffffffffffffffffffffffffffffffffffffff8203611a7a57611a79611a0e565b5b600182019050919050565b600081905092915050565b6000611a9c8385611a85565b9350611aa983858461132d565b82840190509392505050565b6000611ac2828486611a90565b91508190509392505050565b611ad7816113f8565b82525050565b6000604082019050611af26000830185611ace565b611aff60208301846112f2565b9392505050565b600082825260208201905092915050565b7f4e6f7420617574686f72697a6564000000000000000000000000000000000000600082015250565b6000611b4d600e83611b06565b9150611b5882611b17565b602082019050919050565b60006020820190508181036000830152611b7c81611b40565b9050919050565b7f6572726f72303200000000000000000000000000000000000000000000000000600082015250565b6000611bb9600783611b06565b9150611bc482611b83565b602082019050919050565b60006020820190508181036000830152611be881611bac565b9050919050565b7f6572726f72303300000000000000000000000000000000000000000000000000600082015250565b6000611c25600783611b06565b9150611c3082611bef565b602082019050919050565b60006020820190508181036000830152611c5481611c18565b9050919050565b7f6572726f72303500000000000000000000000000000000000000000000000000600082015250565b6000611c91600783611b06565b9150611c9c82611c5b565b602082019050919050565b60006020820190508181036000830152611cc081611c84565b9050919050565b6000611cd2826112e8565b9150611cdd836112e8565b9250828203905081811115611cf557611cf4611a0e565b5b92915050565b7f6572726f72303700000000000000000000000000000000000000000000000000600082015250565b6000611d31600783611b06565b9150611d3c82611cfb565b602082019050919050565b60006020820190508181036000830152611d6081611d24565b9050919050565b600060a082019050611d7c6000830188611ace565b611d8960208301876112f2565b611d966040830186611988565b611da360608301856112f2565b611db060808301846112f2565b9695505050505050565b6000611dc5826112e8565b9150611dd0836112e8565b9250828202611dde816112e8565b91508282048414831517611df557611df4611a0e565b5b5092915050565b7f5369676e61747572657320746f6f2073686f7274000000000000000000000000600082015250565b6000611e32601483611b06565b9150611e3d82611dfc565b602082019050919050565b60006020820190508181036000830152611e6181611e25565b9050919050565b600081905092915050565b7f19457468657265756d205369676e6564204d6573736167653a0a333200000000600082015250565b6000611ea9601c83611e68565b9150611eb482611e73565b601c82019050919050565b6000819050919050565b611eda611ed582611887565b611ebf565b82525050565b6000611eeb82611e9c565b9150611ef78284611ec9565b60208201915081905092915050565b600060ff82169050919050565b611f1c81611f06565b82525050565b6000608082019050611f376000830187611988565b611f446020830186611f13565b611f516040830185611988565b611f5e6060830184611988565b95945050505050565b7f6572726f72303600000000000000000000000000000000000000000000000000600082015250565b6000611f9d600783611b06565b9150611fa882611f67565b602082019050919050565b60006020820190508181036000830152611fcc81611f90565b9050919050565b6000611fde826112e8565b915060008203611ff157611ff0611a0e565b5b60018203905091905056fea26469706673582212202c36c91c11f9e698e4c79bf90922e29f8442468afa20a97e9ad09cedf9cad27d64736f6c63430008120033",
					"opcodes": "PUSH1 0x80 PUSH1 0x40 MSTORE CALLVALUE DUP1 ISZERO PUSH3 0x11 JUMPI PUSH1 0x0 DUP1 REVERT JUMPDEST POP PUSH1 0x40 MLOAD PUSH3 0x2E14 CODESIZE SUB DUP1 PUSH3 0x2E14 DUP4 CODECOPY DUP2 DUP2 ADD PUSH1 0x40 MSTORE DUP2 ADD SWAP1 PUSH3 0x37 SWAP2 SWAP1 PUSH3 0xAE8 JUMP JUMPDEST PUSH3 0x49 DUP3 DUP3 PUSH3 0x51 PUSH1 0x20 SHL PUSH1 0x20 SHR JUMP JUMPDEST POP POP PUSH3 0xDD2 JUMP JUMPDEST PUSH1 0x0 PUSH1 0x1 SLOAD EQ PUSH3 0x99 JUMPI PUSH1 0x40 MLOAD PUSH32 0x8C379A000000000000000000000000000000000000000000000000000000000 DUP2 MSTORE PUSH1 0x4 ADD PUSH3 0x90 SWAP1 PUSH3 0xBAF JUMP JUMPDEST PUSH1 0x40 MLOAD DUP1 SWAP2 SUB SWAP1 REVERT JUMPDEST DUP2 MLOAD DUP2 GT ISZERO PUSH3 0xE0 JUMPI PUSH1 0x40 MLOAD PUSH32 0x8C379A000000000000000000000000000000000000000000000000000000000 DUP2 MSTORE PUSH1 0x4 ADD PUSH3 0xD7 SWAP1 PUSH3 0xC21 JUMP JUMPDEST PUSH1 0x40 MLOAD DUP1 SWAP2 SUB SWAP1 REVERT JUMPDEST PUSH1 0x1 DUP2 LT ISZERO PUSH3 0x127 JUMPI PUSH1 0x40 MLOAD PUSH32 0x8C379A000000000000000000000000000000000000000000000000000000000 DUP2 MSTORE PUSH1 0x4 ADD PUSH3 0x11E SWAP1 PUSH3 0xC93 JUMP JUMPDEST PUSH1 0x40 MLOAD DUP1 SWAP2 SUB SWAP1 REVERT JUMPDEST PUSH1 0x0 PUSH1 0x1 SWAP1 POP PUSH1 0x0 JUMPDEST DUP4 MLOAD DUP2 LT ISZERO PUSH3 0x24E JUMPI PUSH1 0x0 DUP5 DUP3 DUP2 MLOAD DUP2 LT PUSH3 0x152 JUMPI PUSH3 0x151 PUSH3 0xCB5 JUMP JUMPDEST JUMPDEST PUSH1 0x20 MUL PUSH1 0x20 ADD ADD MLOAD SWAP1 POP PUSH1 0x0 PUSH20 0xFFFFFFFFFFFFFFFFFFFFFFFFFFFFFFFFFFFFFFFF AND DUP2 PUSH20 0xFFFFFFFFFFFFFFFFFFFFFFFFFFFFFFFFFFFFFFFF AND EQ ISZERO DUP1 ISZERO PUSH3 0x1C6 JUMPI POP ADDRESS PUSH20 0xFFFFFFFFFFFFFFFFFFFFFFFFFFFFFFFFFFFFFFFF AND DUP2 PUSH20 0xFFFFFFFFFFFFFFFFFFFFFFFFFFFFFFFFFFFFFFFF AND EQ ISZERO JUMPDEST DUP1 ISZERO PUSH3 0x1E1 JUMPI POP PUSH3 0x1DF DUP2 PUSH3 0x263 PUSH1 0x20 SHL PUSH1 0x20 SHR JUMP JUMPDEST ISZERO JUMPDEST PUSH3 0x223 JUMPI PUSH1 0x40 MLOAD PUSH32 0x8C379A000000000000000000000000000000000000000000000000000000000 DUP2 MSTORE PUSH1 0x4 ADD PUSH3 0x21A SWAP1 PUSH3 0xD34 JUMP JUMPDEST PUSH1 0x40 MLOAD DUP1 SWAP2 SUB SWAP1 REVERT JUMPDEST PUSH3 0x234 DUP2 PUSH3 0x3BE PUSH1 0x20 SHL PUSH1 0x20 SHR JUMP JUMPDEST DUP1 SWAP3 POP POP DUP1 DUP1 PUSH3 0x245 SWAP1 PUSH3 0xD85 JUMP JUMPDEST SWAP2 POP POP PUSH3 0x130 JUMP JUMPDEST POP DUP2 PUSH1 0x1 DUP2 SWAP1 SSTORE POP DUP3 MLOAD PUSH1 0x0 DUP2 SWAP1 SSTORE POP POP POP POP JUMP JUMPDEST PUSH1 0x0 DUP1 PUSH20 0xFFFFFFFFFFFFFFFFFFFFFFFFFFFFFFFFFFFFFFFF AND PUSH1 0x2 PUSH1 0x0 DUP5 PUSH20 0xFFFFFFFFFFFFFFFFFFFFFFFFFFFFFFFFFFFFFFFF AND PUSH20 0xFFFFFFFFFFFFFFFFFFFFFFFFFFFFFFFFFFFFFFFF AND DUP2 MSTORE PUSH1 0x20 ADD SWAP1 DUP2 MSTORE PUSH1 0x20 ADD PUSH1 0x0 KECCAK256 PUSH1 0x0 DUP1 ISZERO ISZERO ISZERO ISZERO DUP2 MSTORE PUSH1 0x20 ADD SWAP1 DUP2 MSTORE PUSH1 0x20 ADD PUSH1 0x0 KECCAK256 PUSH1 0x0 SWAP1 SLOAD SWAP1 PUSH2 0x100 EXP SWAP1 DIV PUSH20 0xFFFFFFFFFFFFFFFFFFFFFFFFFFFFFFFFFFFFFFFF AND PUSH20 0xFFFFFFFFFFFFFFFFFFFFFFFFFFFFFFFFFFFFFFFF AND EQ ISZERO DUP1 PUSH3 0x3B7 JUMPI POP PUSH1 0x0 PUSH20 0xFFFFFFFFFFFFFFFFFFFFFFFFFFFFFFFFFFFFFFFF AND PUSH1 0x2 PUSH1 0x0 DUP5 PUSH20 0xFFFFFFFFFFFFFFFFFFFFFFFFFFFFFFFFFFFFFFFF AND PUSH20 0xFFFFFFFFFFFFFFFFFFFFFFFFFFFFFFFFFFFFFFFF AND DUP2 MSTORE PUSH1 0x20 ADD SWAP1 DUP2 MSTORE PUSH1 0x20 ADD PUSH1 0x0 KECCAK256 PUSH1 0x0 PUSH1 0x1 ISZERO ISZERO ISZERO ISZERO DUP2 MSTORE PUSH1 0x20 ADD SWAP1 DUP2 MSTORE PUSH1 0x20 ADD PUSH1 0x0 KECCAK256 PUSH1 0x0 SWAP1 SLOAD SWAP1 PUSH2 0x100 EXP SWAP1 DIV PUSH20 0xFFFFFFFFFFFFFFFFFFFFFFFFFFFFFFFFFFFFFFFF AND PUSH20 0xFFFFFFFFFFFFFFFFFFFFFFFFFFFFFFFFFFFFFFFF AND EQ ISZERO JUMPDEST SWAP1 POP SWAP2 SWAP1 POP JUMP JUMPDEST PUSH1 0x0 PUSH20 0xFFFFFFFFFFFFFFFFFFFFFFFFFFFFFFFFFFFFFFFF AND DUP2 PUSH20 0xFFFFFFFFFFFFFFFFFFFFFFFFFFFFFFFFFFFFFFFF AND EQ ISZERO DUP1 ISZERO PUSH3 0x428 JUMPI POP ADDRESS PUSH20 0xFFFFFFFFFFFFFFFFFFFFFFFFFFFFFFFFFFFFFFFF AND DUP2 PUSH20 0xFFFFFFFFFFFFFFFFFFFFFFFFFFFFFFFFFFFFFFFF AND EQ ISZERO JUMPDEST DUP1 ISZERO PUSH3 0x443 JUMPI POP PUSH3 0x441 DUP2 PUSH3 0x263 PUSH1 0x20 SHL PUSH1 0x20 SHR JUMP JUMPDEST ISZERO JUMPDEST PUSH3 0x485 JUMPI PUSH1 0x40 MLOAD PUSH32 0x8C379A000000000000000000000000000000000000000000000000000000000 DUP2 MSTORE PUSH1 0x4 ADD PUSH3 0x47C SWAP1 PUSH3 0xD34 JUMP JUMPDEST PUSH1 0x40 MLOAD DUP1 SWAP2 SUB SWAP1 REVERT JUMPDEST PUSH1 0x0 PUSH1 0x1 SWAP1 POP PUSH1 0x0 PUSH3 0x4A0 DUP3 PUSH1 0x1 PUSH3 0x645 PUSH1 0x20 SHL PUSH1 0x20 SHR JUMP JUMPDEST SWAP1 POP DUP1 SWAP2 POP POP JUMPDEST PUSH1 0x0 PUSH20 0xFFFFFFFFFFFFFFFFFFFFFFFFFFFFFFFFFFFFFFFF AND DUP2 PUSH20 0xFFFFFFFFFFFFFFFFFFFFFFFFFFFFFFFFFFFFFFFF AND EQ PUSH3 0x5DD JUMPI DUP3 PUSH20 0xFFFFFFFFFFFFFFFFFFFFFFFFFFFFFFFFFFFFFFFF AND DUP2 PUSH20 0xFFFFFFFFFFFFFFFFFFFFFFFFFFFFFFFFFFFFFFFF AND GT DUP1 ISZERO PUSH3 0x543 JUMPI POP DUP3 PUSH20 0xFFFFFFFFFFFFFFFFFFFFFFFFFFFFFFFFFFFFFFFF AND DUP3 PUSH20 0xFFFFFFFFFFFFFFFFFFFFFFFFFFFFFFFFFFFFFFFF AND LT JUMPDEST ISZERO PUSH3 0x563 JUMPI PUSH3 0x55D DUP3 DUP5 PUSH1 0x1 PUSH3 0x6EE PUSH1 0x20 SHL PUSH1 0x20 SHR JUMP JUMPDEST PUSH3 0x5DD JUMP JUMPDEST DUP3 PUSH20 0xFFFFFFFFFFFFFFFFFFFFFFFFFFFFFFFFFFFFFFFF AND DUP2 PUSH20 0xFFFFFFFFFFFFFFFFFFFFFFFFFFFFFFFFFFFFFFFF AND GT ISZERO PUSH3 0x5BA JUMPI DUP2 SWAP1 POP PUSH3 0x5AE DUP3 PUSH1 0x0 PUSH3 0x645 PUSH1 0x20 SHL PUSH1 0x20 SHR JUMP JUMPDEST SWAP1 POP DUP1 SWAP3 POP POP PUSH3 0x5D7 JUMP JUMPDEST DUP1 SWAP2 POP PUSH3 0x5D0 DUP2 PUSH1 0x1 PUSH3 0x645 PUSH1 0x20 SHL PUSH1 0x20 SHR JUMP JUMPDEST SWAP1 POP DUP1 SWAP2 POP POP JUMPDEST PUSH3 0x4A7 JUMP JUMPDEST PUSH1 0x0 PUSH20 0xFFFFFFFFFFFFFFFFFFFFFFFFFFFFFFFFFFFFFFFF AND DUP2 PUSH20 0xFFFFFFFFFFFFFFFFFFFFFFFFFFFFFFFFFFFFFFFF AND SUB PUSH3 0x627 JUMPI PUSH3 0x626 DUP3 DUP5 PUSH1 0x1 PUSH3 0x6EE PUSH1 0x20 SHL PUSH1 0x20 SHR JUMP JUMPDEST JUMPDEST PUSH1 0x0 DUP1 DUP2 SLOAD DUP1 SWAP3 SWAP2 SWAP1 PUSH3 0x63B SWAP1 PUSH3 0xD85 JUMP JUMPDEST SWAP2 SWAP1 POP SSTORE POP POP POP POP JUMP JUMPDEST PUSH1 0x0 DUP1 PUSH3 0x659 DUP5 PUSH3 0x263 PUSH1 0x20 SHL PUSH1 0x20 SHR JUMP JUMPDEST PUSH3 0x66B JUMPI PUSH1 0x0 DUP1 SWAP2 POP SWAP2 POP PUSH3 0x6E7 JUMP JUMPDEST PUSH1 0x1 PUSH1 0x2 PUSH1 0x0 DUP7 PUSH20 0xFFFFFFFFFFFFFFFFFFFFFFFFFFFFFFFFFFFFFFFF AND PUSH20 0xFFFFFFFFFFFFFFFFFFFFFFFFFFFFFFFFFFFFFFFF AND DUP2 MSTORE PUSH1 0x20 ADD SWAP1 DUP2 MSTORE PUSH1 0x20 ADD PUSH1 0x0 KECCAK256 PUSH1 0x0 DUP6 ISZERO ISZERO ISZERO ISZERO DUP2 MSTORE PUSH1 0x20 ADD SWAP1 DUP2 MSTORE PUSH1 0x20 ADD PUSH1 0x0 KECCAK256 PUSH1 0x0 SWAP1 SLOAD SWAP1 PUSH2 0x100 EXP SWAP1 DIV PUSH20 0xFFFFFFFFFFFFFFFFFFFFFFFFFFFFFFFFFFFFFFFF AND SWAP2 POP SWAP2 POP JUMPDEST SWAP3 POP SWAP3 SWAP1 POP JUMP JUMPDEST PUSH1 0x0 PUSH1 0x2 PUSH1 0x0 DUP6 PUSH20 0xFFFFFFFFFFFFFFFFFFFFFFFFFFFFFFFFFFFFFFFF AND PUSH20 0xFFFFFFFFFFFFFFFFFFFFFFFFFFFFFFFFFFFFFFFF AND DUP2 MSTORE PUSH1 0x20 ADD SWAP1 DUP2 MSTORE PUSH1 0x20 ADD PUSH1 0x0 KECCAK256 PUSH1 0x0 DUP4 ISZERO ISZERO ISZERO ISZERO DUP2 MSTORE PUSH1 0x20 ADD SWAP1 DUP2 MSTORE PUSH1 0x20 ADD PUSH1 0x0 KECCAK256 PUSH1 0x0 SWAP1 SLOAD SWAP1 PUSH2 0x100 EXP SWAP1 DIV PUSH20 0xFFFFFFFFFFFFFFFFFFFFFFFFFFFFFFFFFFFFFFFF AND SWAP1 POP PUSH3 0x77A DUP5 DUP5 DUP5 PUSH3 0x793 PUSH1 0x20 SHL PUSH1 0x20 SHR JUMP JUMPDEST PUSH3 0x78D DUP4 DUP3 DUP5 PUSH3 0x793 PUSH1 0x20 SHL PUSH1 0x20 SHR JUMP JUMPDEST POP POP POP POP JUMP JUMPDEST DUP3 PUSH1 0x2 PUSH1 0x0 DUP5 PUSH20 0xFFFFFFFFFFFFFFFFFFFFFFFFFFFFFFFFFFFFFFFF AND PUSH20 0xFFFFFFFFFFFFFFFFFFFFFFFFFFFFFFFFFFFFFFFF AND DUP2 MSTORE PUSH1 0x20 ADD SWAP1 DUP2 MSTORE PUSH1 0x20 ADD PUSH1 0x0 KECCAK256 PUSH1 0x0 DUP4 ISZERO ISZERO ISZERO ISZERO ISZERO DUP2 MSTORE PUSH1 0x20 ADD SWAP1 DUP2 MSTORE PUSH1 0x20 ADD PUSH1 0x0 KECCAK256 PUSH1 0x0 PUSH2 0x100 EXP DUP2 SLOAD DUP2 PUSH20 0xFFFFFFFFFFFFFFFFFFFFFFFFFFFFFFFFFFFFFFFF MUL NOT AND SWAP1 DUP4 PUSH20 0xFFFFFFFFFFFFFFFFFFFFFFFFFFFFFFFFFFFFFFFF AND MUL OR SWAP1 SSTORE POP DUP2 PUSH1 0x2 PUSH1 0x0 DUP6 PUSH20 0xFFFFFFFFFFFFFFFFFFFFFFFFFFFFFFFFFFFFFFFF AND PUSH20 0xFFFFFFFFFFFFFFFFFFFFFFFFFFFFFFFFFFFFFFFF AND DUP2 MSTORE PUSH1 0x20 ADD SWAP1 DUP2 MSTORE PUSH1 0x20 ADD PUSH1 0x0 KECCAK256 PUSH1 0x0 DUP4 ISZERO ISZERO ISZERO ISZERO DUP2 MSTORE PUSH1 0x20 ADD SWAP1 DUP2 MSTORE PUSH1 0x20 ADD PUSH1 0x0 KECCAK256 PUSH1 0x0 PUSH2 0x100 EXP DUP2 SLOAD DUP2 PUSH20 0xFFFFFFFFFFFFFFFFFFFFFFFFFFFFFFFFFFFFFFFF MUL NOT AND SWAP1 DUP4 PUSH20 0xFFFFFFFFFFFFFFFFFFFFFFFFFFFFFFFFFFFFFFFF AND MUL OR SWAP1 SSTORE POP POP POP POP JUMP JUMPDEST PUSH1 0x0 PUSH1 0x40 MLOAD SWAP1 POP SWAP1 JUMP JUMPDEST PUSH1 0x0 DUP1 REVERT JUMPDEST PUSH1 0x0 DUP1 REVERT JUMPDEST PUSH1 0x0 DUP1 REVERT JUMPDEST PUSH1 0x0 PUSH1 0x1F NOT PUSH1 0x1F DUP4 ADD AND SWAP1 POP SWAP2 SWAP1 POP JUMP JUMPDEST PUSH32 0x4E487B7100000000000000000000000000000000000000000000000000000000 PUSH1 0x0 MSTORE PUSH1 0x41 PUSH1 0x4 MSTORE PUSH1 0x24 PUSH1 0x0 REVERT JUMPDEST PUSH3 0x923 DUP3 PUSH3 0x8D8 JUMP JUMPDEST DUP2 ADD DUP2 DUP2 LT PUSH8 0xFFFFFFFFFFFFFFFF DUP3 GT OR ISZERO PUSH3 0x945 JUMPI PUSH3 0x944 PUSH3 0x8E9 JUMP JUMPDEST JUMPDEST DUP1 PUSH1 0x40 MSTORE POP POP POP JUMP JUMPDEST PUSH1 0x0 PUSH3 0x95A PUSH3 0x8BF JUMP JUMPDEST SWAP1 POP PUSH3 0x968 DUP3 DUP3 PUSH3 0x918 JUMP JUMPDEST SWAP2 SWAP1 POP JUMP JUMPDEST PUSH1 0x0 PUSH8 0xFFFFFFFFFFFFFFFF DUP3 GT ISZERO PUSH3 0x98B JUMPI PUSH3 0x98A PUSH3 0x8E9 JUMP JUMPDEST JUMPDEST PUSH1 0x20 DUP3 MUL SWAP1 POP PUSH1 0x20 DUP2 ADD SWAP1 POP SWAP2 SWAP1 POP JUMP JUMPDEST PUSH1 0x0 DUP1 REVERT JUMPDEST PUSH1 0x0 PUSH20 0xFFFFFFFFFFFFFFFFFFFFFFFFFFFFFFFFFFFFFFFF DUP3 AND SWAP1 POP SWAP2 SWAP1 POP JUMP JUMPDEST PUSH1 0x0 PUSH3 0x9CE DUP3 PUSH3 0x9A1 JUMP JUMPDEST SWAP1 POP SWAP2 SWAP1 POP JUMP JUMPDEST PUSH3 0x9E0 DUP2 PUSH3 0x9C1 JUMP JUMPDEST DUP2 EQ PUSH3 0x9EC JUMPI PUSH1 0x0 DUP1 REVERT JUMPDEST POP JUMP JUMPDEST PUSH1 0x0 DUP2 MLOAD SWAP1 POP PUSH3 0xA00 DUP2 PUSH3 0x9D5 JUMP JUMPDEST SWAP3 SWAP2 POP POP JUMP JUMPDEST PUSH1 0x0 PUSH3 0xA1D PUSH3 0xA17 DUP5 PUSH3 0x96D JUMP JUMPDEST PUSH3 0x94E JUMP JUMPDEST SWAP1 POP DUP1 DUP4 DUP3 MSTORE PUSH1 0x20 DUP3 ADD SWAP1 POP PUSH1 0x20 DUP5 MUL DUP4 ADD DUP6 DUP2 GT ISZERO PUSH3 0xA43 JUMPI PUSH3 0xA42 PUSH3 0x99C JUMP JUMPDEST JUMPDEST DUP4 JUMPDEST DUP2 DUP2 LT ISZERO PUSH3 0xA70 JUMPI DUP1 PUSH3 0xA5B DUP9 DUP3 PUSH3 0x9EF JUMP JUMPDEST DUP5 MSTORE PUSH1 0x20 DUP5 ADD SWAP4 POP POP PUSH1 0x20 DUP2 ADD SWAP1 POP PUSH3 0xA45 JUMP JUMPDEST POP POP POP SWAP4 SWAP3 POP POP POP JUMP JUMPDEST PUSH1 0x0 DUP3 PUSH1 0x1F DUP4 ADD SLT PUSH3 0xA92 JUMPI PUSH3 0xA91 PUSH3 0x8D3 JUMP JUMPDEST JUMPDEST DUP2 MLOAD PUSH3 0xAA4 DUP5 DUP3 PUSH1 0x20 DUP7 ADD PUSH3 0xA06 JUMP JUMPDEST SWAP2 POP POP SWAP3 SWAP2 POP POP JUMP JUMPDEST PUSH1 0x0 DUP2 SWAP1 POP SWAP2 SWAP1 POP JUMP JUMPDEST PUSH3 0xAC2 DUP2 PUSH3 0xAAD JUMP JUMPDEST DUP2 EQ PUSH3 0xACE JUMPI PUSH1 0x0 DUP1 REVERT JUMPDEST POP JUMP JUMPDEST PUSH1 0x0 DUP2 MLOAD SWAP1 POP PUSH3 0xAE2 DUP2 PUSH3 0xAB7 JUMP JUMPDEST SWAP3 SWAP2 POP POP JUMP JUMPDEST PUSH1 0x0 DUP1 PUSH1 0x40 DUP4 DUP6 SUB SLT ISZERO PUSH3 0xB02 JUMPI PUSH3 0xB01 PUSH3 0x8C9 JUMP JUMPDEST JUMPDEST PUSH1 0x0 DUP4 ADD MLOAD PUSH8 0xFFFFFFFFFFFFFFFF DUP2 GT ISZERO PUSH3 0xB23 JUMPI PUSH3 0xB22 PUSH3 0x8CE JUMP JUMPDEST JUMPDEST PUSH3 0xB31 DUP6 DUP3 DUP7 ADD PUSH3 0xA7A JUMP JUMPDEST SWAP3 POP POP PUSH1 0x20 PUSH3 0xB44 DUP6 DUP3 DUP7 ADD PUSH3 0xAD1 JUMP JUMPDEST SWAP2 POP POP SWAP3 POP SWAP3 SWAP1 POP JUMP JUMPDEST PUSH1 0x0 DUP3 DUP3 MSTORE PUSH1 0x20 DUP3 ADD SWAP1 POP SWAP3 SWAP2 POP POP JUMP JUMPDEST PUSH32 0x6572726F72303100000000000000000000000000000000000000000000000000 PUSH1 0x0 DUP3 ADD MSTORE POP JUMP JUMPDEST PUSH1 0x0 PUSH3 0xB97 PUSH1 0x7 DUP4 PUSH3 0xB4E JUMP JUMPDEST SWAP2 POP PUSH3 0xBA4 DUP3 PUSH3 0xB5F JUMP JUMPDEST PUSH1 0x20 DUP3 ADD SWAP1 POP SWAP2 SWAP1 POP JUMP JUMPDEST PUSH1 0x0 PUSH1 0x20 DUP3 ADD SWAP1 POP DUP2 DUP2 SUB PUSH1 0x0 DUP4 ADD MSTORE PUSH3 0xBCA DUP2 PUSH3 0xB88 JUMP JUMPDEST SWAP1 POP SWAP2 SWAP1 POP JUMP JUMPDEST PUSH32 0x6572726F72303200000000000000000000000000000000000000000000000000 PUSH1 0x0 DUP3 ADD MSTORE POP JUMP JUMPDEST PUSH1 0x0 PUSH3 0xC09 PUSH1 0x7 DUP4 PUSH3 0xB4E JUMP JUMPDEST SWAP2 POP PUSH3 0xC16 DUP3 PUSH3 0xBD1 JUMP JUMPDEST PUSH1 0x20 DUP3 ADD SWAP1 POP SWAP2 SWAP1 POP JUMP JUMPDEST PUSH1 0x0 PUSH1 0x20 DUP3 ADD SWAP1 POP DUP2 DUP2 SUB PUSH1 0x0 DUP4 ADD MSTORE PUSH3 0xC3C DUP2 PUSH3 0xBFA JUMP JUMPDEST SWAP1 POP SWAP2 SWAP1 POP JUMP JUMPDEST PUSH32 0x6572726F72303300000000000000000000000000000000000000000000000000 PUSH1 0x0 DUP3 ADD MSTORE POP JUMP JUMPDEST PUSH1 0x0 PUSH3 0xC7B PUSH1 0x7 DUP4 PUSH3 0xB4E JUMP JUMPDEST SWAP2 POP PUSH3 0xC88 DUP3 PUSH3 0xC43 JUMP JUMPDEST PUSH1 0x20 DUP3 ADD SWAP1 POP SWAP2 SWAP1 POP JUMP JUMPDEST PUSH1 0x0 PUSH1 0x20 DUP3 ADD SWAP1 POP DUP2 DUP2 SUB PUSH1 0x0 DUP4 ADD MSTORE PUSH3 0xCAE DUP2 PUSH3 0xC6C JUMP JUMPDEST SWAP1 POP SWAP2 SWAP1 POP JUMP JUMPDEST PUSH32 0x4E487B7100000000000000000000000000000000000000000000000000000000 PUSH1 0x0 MSTORE PUSH1 0x32 PUSH1 0x4 MSTORE PUSH1 0x24 PUSH1 0x0 REVERT JUMPDEST PUSH32 0x6572726F72303400000000000000000000000000000000000000000000000000 PUSH1 0x0 DUP3 ADD MSTORE POP JUMP JUMPDEST PUSH1 0x0 PUSH3 0xD1C PUSH1 0x7 DUP4 PUSH3 0xB4E JUMP JUMPDEST SWAP2 POP PUSH3 0xD29 DUP3 PUSH3 0xCE4 JUMP JUMPDEST PUSH1 0x20 DUP3 ADD SWAP1 POP SWAP2 SWAP1 POP JUMP JUMPDEST PUSH1 0x0 PUSH1 0x20 DUP3 ADD SWAP1 POP DUP2 DUP2 SUB PUSH1 0x0 DUP4 ADD MSTORE PUSH3 0xD4F DUP2 PUSH3 0xD0D JUMP JUMPDEST SWAP1 POP SWAP2 SWAP1 POP JUMP JUMPDEST PUSH32 0x4E487B7100000000000000000000000000000000000000000000000000000000 PUSH1 0x0 MSTORE PUSH1 0x11 PUSH1 0x4 MSTORE PUSH1 0x24 PUSH1 0x0 REVERT JUMPDEST PUSH1 0x0 PUSH3 0xD92 DUP3 PUSH3 0xAAD JUMP JUMPDEST SWAP2 POP PUSH32 0xFFFFFFFFFFFFFFFFFFFFFFFFFFFFFFFFFFFFFFFFFFFFFFFFFFFFFFFFFFFFFFFF DUP3 SUB PUSH3 0xDC7 JUMPI PUSH3 0xDC6 PUSH3 0xD56 JUMP JUMPDEST JUMPDEST PUSH1 0x1 DUP3 ADD SWAP1 POP SWAP2 SWAP1 POP JUMP JUMPDEST PUSH2 0x2032 DUP1 PUSH3 0xDE2 PUSH1 0x0 CODECOPY PUSH1 0x0 RETURN INVALID PUSH1 0x80 PUSH1 0x40 MSTORE PUSH1 0x4 CALLDATASIZE LT PUSH2 0xC6 JUMPI PUSH1 0x0 CALLDATALOAD PUSH1 0xE0 SHR DUP1 PUSH4 0x81244E5D GT PUSH2 0x7F JUMPI DUP1 PUSH4 0xAFFED0E0 GT PUSH2 0x59 JUMPI DUP1 PUSH4 0xAFFED0E0 EQ PUSH2 0x2FC JUMPI DUP1 PUSH4 0xC0F0B3F1 EQ PUSH2 0x327 JUMPI DUP1 PUSH4 0xEF11783C EQ PUSH2 0x350 JUMPI DUP1 PUSH4 0xFF87578C EQ PUSH2 0x38D JUMPI PUSH2 0x104 JUMP JUMPDEST DUP1 PUSH4 0x81244E5D EQ PUSH2 0x26B JUMPI DUP1 PUSH4 0x831C9E2E EQ PUSH2 0x296 JUMPI DUP1 PUSH4 0x8B30486C EQ PUSH2 0x2BF JUMPI PUSH2 0x104 JUMP JUMPDEST DUP1 PUSH4 0x29C81E3 EQ PUSH2 0x142 JUMPI DUP1 PUSH4 0xC3DFC1A EQ PUSH2 0x16D JUMPI DUP1 PUSH4 0xFCE747A EQ PUSH2 0x198 JUMPI DUP1 PUSH4 0x54910298 EQ PUSH2 0x1C8 JUMPI DUP1 PUSH4 0x6876A95E EQ PUSH2 0x205 JUMPI DUP1 PUSH4 0x694E80C3 EQ PUSH2 0x242 JUMPI PUSH2 0x104 JUMP JUMPDEST CALLDATASIZE PUSH2 0x104 JUMPI PUSH32 0x1776003212B2028854792A50B4EFF933707F4A7576DE0678B9F21B4D6C99DC28 CALLVALUE PUSH1 0x40 MLOAD PUSH2 0xFA SWAP2 SWAP1 PUSH2 0x1301 JUMP JUMPDEST PUSH1 0x40 MLOAD DUP1 SWAP2 SUB SWAP1 LOG1 STOP JUMPDEST PUSH32 0x54E5FBADEFE8E4E5345E8C6A9CE1017E52802FD305C8D69255F2FB1DDACEBF36 CALLVALUE PUSH1 0x0 CALLDATASIZE PUSH1 0x40 MLOAD PUSH2 0x138 SWAP4 SWAP3 SWAP2 SWAP1 PUSH2 0x137A JUMP JUMPDEST PUSH1 0x40 MLOAD DUP1 SWAP2 SUB SWAP1 LOG1 STOP JUMPDEST CALLVALUE DUP1 ISZERO PUSH2 0x14E JUMPI PUSH1 0x0 DUP1 REVERT JUMPDEST POP PUSH2 0x157 PUSH2 0x3CA JUMP JUMPDEST PUSH1 0x40 MLOAD PUSH2 0x164 SWAP2 SWAP1 PUSH2 0x149C JUMP JUMPDEST PUSH1 0x40 MLOAD DUP1 SWAP2 SUB SWAP1 RETURN JUMPDEST CALLVALUE DUP1 ISZERO PUSH2 0x179 JUMPI PUSH1 0x0 DUP1 REVERT JUMPDEST POP PUSH2 0x182 PUSH2 0x51D JUMP JUMPDEST PUSH1 0x40 MLOAD PUSH2 0x18F SWAP2 SWAP1 PUSH2 0x1301 JUMP JUMPDEST PUSH1 0x40 MLOAD DUP1 SWAP2 SUB SWAP1 RETURN JUMPDEST PUSH2 0x1B2 PUSH1 0x4 DUP1 CALLDATASIZE SUB DUP2 ADD SWAP1 PUSH2 0x1AD SWAP2 SWAP1 PUSH2 0x16B0 JUMP JUMPDEST PUSH2 0x523 JUMP JUMPDEST PUSH1 0x40 MLOAD PUSH2 0x1BF SWAP2 SWAP1 PUSH2 0x176F JUMP JUMPDEST PUSH1 0x40 MLOAD DUP1 SWAP2 SUB SWAP1 RETURN JUMPDEST CALLVALUE DUP1 ISZERO PUSH2 0x1D4 JUMPI PUSH1 0x0 DUP1 REVERT JUMPDEST POP PUSH2 0x1EF PUSH1 0x4 DUP1 CALLDATASIZE SUB DUP2 ADD SWAP1 PUSH2 0x1EA SWAP2 SWAP1 PUSH2 0x178A JUMP JUMPDEST PUSH2 0x67D JUMP JUMPDEST PUSH1 0x40 MLOAD PUSH2 0x1FC SWAP2 SWAP1 PUSH2 0x1838 JUMP JUMPDEST PUSH1 0x40 MLOAD DUP1 SWAP2 SUB SWAP1 RETURN JUMPDEST CALLVALUE DUP1 ISZERO PUSH2 0x211 JUMPI PUSH1 0x0 DUP1 REVERT JUMPDEST POP PUSH2 0x22C PUSH1 0x4 DUP1 CALLDATASIZE SUB DUP2 ADD SWAP1 PUSH2 0x227 SWAP2 SWAP1 PUSH2 0x185A JUMP JUMPDEST PUSH2 0x718 JUMP JUMPDEST PUSH1 0x40 MLOAD PUSH2 0x239 SWAP2 SWAP1 PUSH2 0x1838 JUMP JUMPDEST PUSH1 0x40 MLOAD DUP1 SWAP2 SUB SWAP1 RETURN JUMPDEST CALLVALUE DUP1 ISZERO PUSH2 0x24E JUMPI PUSH1 0x0 DUP1 REVERT JUMPDEST POP PUSH2 0x269 PUSH1 0x4 DUP1 CALLDATASIZE SUB DUP2 ADD SWAP1 PUSH2 0x264 SWAP2 SWAP1 PUSH2 0x185A JUMP JUMPDEST PUSH2 0x7B0 JUMP JUMPDEST STOP JUMPDEST CALLVALUE DUP1 ISZERO PUSH2 0x277 JUMPI PUSH1 0x0 DUP1 REVERT JUMPDEST POP PUSH2 0x280 PUSH2 0x8EA JUMP JUMPDEST PUSH1 0x40 MLOAD PUSH2 0x28D SWAP2 SWAP1 PUSH2 0x1301 JUMP JUMPDEST PUSH1 0x40 MLOAD DUP1 SWAP2 SUB SWAP1 RETURN JUMPDEST CALLVALUE DUP1 ISZERO PUSH2 0x2A2 JUMPI PUSH1 0x0 DUP1 REVERT JUMPDEST POP PUSH2 0x2BD PUSH1 0x4 DUP1 CALLDATASIZE SUB DUP2 ADD SWAP1 PUSH2 0x2B8 SWAP2 SWAP1 PUSH2 0x18BD JUMP JUMPDEST PUSH2 0x8F4 JUMP JUMPDEST STOP JUMPDEST CALLVALUE DUP1 ISZERO PUSH2 0x2CB JUMPI PUSH1 0x0 DUP1 REVERT JUMPDEST POP PUSH2 0x2E6 PUSH1 0x4 DUP1 CALLDATASIZE SUB DUP2 ADD SWAP1 PUSH2 0x2E1 SWAP2 SWAP1 PUSH2 0x1919 JUMP JUMPDEST PUSH2 0x94E JUMP JUMPDEST PUSH1 0x40 MLOAD PUSH2 0x2F3 SWAP2 SWAP1 PUSH2 0x1997 JUMP JUMPDEST PUSH1 0x40 MLOAD DUP1 SWAP2 SUB SWAP1 RETURN JUMPDEST CALLVALUE DUP1 ISZERO PUSH2 0x308 JUMPI PUSH1 0x0 DUP1 REVERT JUMPDEST POP PUSH2 0x311 PUSH2 0x968 JUMP JUMPDEST PUSH1 0x40 MLOAD PUSH2 0x31E SWAP2 SWAP1 PUSH2 0x1301 JUMP JUMPDEST PUSH1 0x40 MLOAD DUP1 SWAP2 SUB SWAP1 RETURN JUMPDEST CALLVALUE DUP1 ISZERO PUSH2 0x333 JUMPI PUSH1 0x0 DUP1 REVERT JUMPDEST POP PUSH2 0x34E PUSH1 0x4 DUP1 CALLDATASIZE SUB DUP2 ADD SWAP1 PUSH2 0x349 SWAP2 SWAP1 PUSH2 0x178A JUMP JUMPDEST PUSH2 0x96E JUMP JUMPDEST STOP JUMPDEST CALLVALUE DUP1 ISZERO PUSH2 0x35C JUMPI PUSH1 0x0 DUP1 REVERT JUMPDEST POP PUSH2 0x377 PUSH1 0x4 DUP1 CALLDATASIZE SUB DUP2 ADD SWAP1 PUSH2 0x372 SWAP2 SWAP1 PUSH2 0x19B2 JUMP JUMPDEST PUSH2 0xAD8 JUMP JUMPDEST PUSH1 0x40 MLOAD PUSH2 0x384 SWAP2 SWAP1 PUSH2 0x176F JUMP JUMPDEST PUSH1 0x40 MLOAD DUP1 SWAP2 SUB SWAP1 RETURN JUMPDEST CALLVALUE DUP1 ISZERO PUSH2 0x399 JUMPI PUSH1 0x0 DUP1 REVERT JUMPDEST POP PUSH2 0x3B4 PUSH1 0x4 DUP1 CALLDATASIZE SUB DUP2 ADD SWAP1 PUSH2 0x3AF SWAP2 SWAP1 PUSH2 0x178A JUMP JUMPDEST PUSH2 0xC32 JUMP JUMPDEST PUSH1 0x40 MLOAD PUSH2 0x3C1 SWAP2 SWAP1 PUSH2 0x1838 JUMP JUMPDEST PUSH1 0x40 MLOAD DUP1 SWAP2 SUB SWAP1 RETURN JUMPDEST PUSH1 0x60 PUSH1 0x0 DUP1 SLOAD PUSH8 0xFFFFFFFFFFFFFFFF DUP2 GT ISZERO PUSH2 0x3E9 JUMPI PUSH2 0x3E8 PUSH2 0x1594 JUMP JUMPDEST JUMPDEST PUSH1 0x40 MLOAD SWAP1 DUP1 DUP3 MSTORE DUP1 PUSH1 0x20 MUL PUSH1 0x20 ADD DUP3 ADD PUSH1 0x40 MSTORE DUP1 ISZERO PUSH2 0x417 JUMPI DUP2 PUSH1 0x20 ADD PUSH1 0x20 DUP3 MUL DUP1 CALLDATASIZE DUP4 CALLDATACOPY DUP1 DUP3 ADD SWAP2 POP POP SWAP1 POP JUMPDEST POP SWAP1 POP PUSH1 0x0 PUSH1 0x2 PUSH1 0x0 PUSH1 0x1 PUSH20 0xFFFFFFFFFFFFFFFFFFFFFFFFFFFFFFFFFFFFFFFF AND PUSH20 0xFFFFFFFFFFFFFFFFFFFFFFFFFFFFFFFFFFFFFFFF AND DUP2 MSTORE PUSH1 0x20 ADD SWAP1 DUP2 MSTORE PUSH1 0x20 ADD PUSH1 0x0 KECCAK256 PUSH1 0x0 PUSH1 0x1 ISZERO ISZERO ISZERO ISZERO DUP2 MSTORE PUSH1 0x20 ADD SWAP1 DUP2 MSTORE PUSH1 0x20 ADD PUSH1 0x0 KECCAK256 PUSH1 0x0 SWAP1 SLOAD SWAP1 PUSH2 0x100 EXP SWAP1 DIV PUSH20 0xFFFFFFFFFFFFFFFFFFFFFFFFFFFFFFFFFFFFFFFF AND SWAP1 POP PUSH1 0x0 JUMPDEST PUSH1 0x0 SLOAD DUP2 LT ISZERO PUSH2 0x514 JUMPI DUP2 DUP4 DUP3 DUP2 MLOAD DUP2 LT PUSH2 0x4B6 JUMPI PUSH2 0x4B5 PUSH2 0x19DF JUMP JUMPDEST JUMPDEST PUSH1 0x20 MUL PUSH1 0x20 ADD ADD SWAP1 PUSH20 0xFFFFFFFFFFFFFFFFFFFFFFFFFFFFFFFFFFFFFFFF AND SWAP1 DUP2 PUSH20 0xFFFFFFFFFFFFFFFFFFFFFFFFFFFFFFFFFFFFFFFF AND DUP2 MSTORE POP POP PUSH2 0x4FB DUP3 PUSH1 0x1 PUSH2 0xCCD JUMP JUMPDEST SWAP1 POP DUP1 SWAP3 POP POP DUP1 DUP1 PUSH2 0x50C SWAP1 PUSH2 0x1A3D JUMP JUMPDEST SWAP2 POP POP PUSH2 0x498 JUMP JUMPDEST DUP3 SWAP4 POP POP POP POP SWAP1 JUMP JUMPDEST PUSH1 0x0 SLOAD DUP2 JUMP JUMPDEST PUSH1 0x0 DUP1 PUSH2 0x579 DUP8 DUP8 DUP8 DUP8 DUP1 DUP1 PUSH1 0x1F ADD PUSH1 0x20 DUP1 SWAP2 DIV MUL PUSH1 0x20 ADD PUSH1 0x40 MLOAD SWAP1 DUP2 ADD PUSH1 0x40 MSTORE DUP1 SWAP4 SWAP3 SWAP2 SWAP1 DUP2 DUP2 MSTORE PUSH1 0x20 ADD DUP4 DUP4 DUP1 DUP3 DUP5 CALLDATACOPY PUSH1 0x0 DUP2 DUP5 ADD MSTORE PUSH1 0x1F NOT PUSH1 0x1F DUP3 ADD AND SWAP1 POP DUP1 DUP4 ADD SWAP3 POP POP POP POP POP POP POP PUSH1 0x3 SLOAD CHAINID PUSH2 0xD6C JUMP JUMPDEST SWAP1 POP PUSH1 0x3 PUSH1 0x0 DUP2 SLOAD DUP1 SWAP3 SWAP2 SWAP1 PUSH2 0x58E SWAP1 PUSH2 0x1A3D JUMP JUMPDEST SWAP2 SWAP1 POP SSTORE POP PUSH2 0x59D DUP2 DUP5 PUSH2 0x8F4 JUMP JUMPDEST DUP7 PUSH20 0xFFFFFFFFFFFFFFFFFFFFFFFFFFFFFFFFFFFFFFFF AND DUP7 DUP7 DUP7 PUSH1 0x40 MLOAD PUSH2 0x5C5 SWAP3 SWAP2 SWAP1 PUSH2 0x1AB5 JUMP JUMPDEST PUSH1 0x0 PUSH1 0x40 MLOAD DUP1 DUP4 SUB DUP2 DUP6 DUP8 GAS CALL SWAP3 POP POP POP RETURNDATASIZE DUP1 PUSH1 0x0 DUP2 EQ PUSH2 0x602 JUMPI PUSH1 0x40 MLOAD SWAP2 POP PUSH1 0x1F NOT PUSH1 0x3F RETURNDATASIZE ADD AND DUP3 ADD PUSH1 0x40 MSTORE RETURNDATASIZE DUP3 MSTORE RETURNDATASIZE PUSH1 0x0 PUSH1 0x20 DUP5 ADD RETURNDATACOPY PUSH2 0x607 JUMP JUMPDEST PUSH1 0x60 SWAP2 POP JUMPDEST POP POP DUP1 SWAP3 POP POP DUP2 ISZERO PUSH2 0x645 JUMPI DUP1 PUSH32 0xDC29884A71D2BB98D3C53DC09718BE05C7BFD142B7773A5C5CF2517629290AC0 PUSH1 0x40 MLOAD PUSH1 0x40 MLOAD DUP1 SWAP2 SUB SWAP1 LOG2 PUSH2 0x673 JUMP JUMPDEST DUP1 PUSH32 0xDBE42D02A4E07D7EEFF2874EFE172540C93B297D206F6D691C9782A257323E32 PUSH1 0x40 MLOAD PUSH1 0x40 MLOAD DUP1 SWAP2 SUB SWAP1 LOG2 JUMPDEST POP SWAP6 SWAP5 POP POP POP POP POP JUMP JUMPDEST PUSH1 0x60 PUSH32 0xC0F0B3F17D4CD2B558F2E7888914CD773111E1DA10E55BAF4D1F32E1F6C2222F DUP4 DUP4 PUSH1 0x40 MLOAD PUSH1 0x24 ADD PUSH2 0x6B3 SWAP3 SWAP2 SWAP1 PUSH2 0x1ADD JUMP JUMPDEST PUSH1 0x40 MLOAD PUSH1 0x20 DUP2 DUP4 SUB SUB DUP2 MSTORE SWAP1 PUSH1 0x40 MSTORE SWAP1 PUSH28 0xFFFFFFFFFFFFFFFFFFFFFFFFFFFFFFFFFFFFFFFFFFFFFFFFFFFFFFFF NOT AND PUSH1 0x20 DUP3 ADD DUP1 MLOAD PUSH28 0xFFFFFFFFFFFFFFFFFFFFFFFFFFFFFFFFFFFFFFFFFFFFFFFFFFFFFFFF DUP4 DUP2 DUP4 AND OR DUP4 MSTORE POP POP POP POP SWAP1 POP SWAP3 SWAP2 POP POP JUMP JUMPDEST PUSH1 0x60 PUSH32 0x694E80C37192D74D6099F3D3B41506932AB644A24442EE51857CFEB9EB01AC2F DUP3 PUSH1 0x40 MLOAD PUSH1 0x24 ADD PUSH2 0x74C SWAP2 SWAP1 PUSH2 0x1301 JUMP JUMPDEST PUSH1 0x40 MLOAD PUSH1 0x20 DUP2 DUP4 SUB SUB DUP2 MSTORE SWAP1 PUSH1 0x40 MSTORE SWAP1 PUSH28 0xFFFFFFFFFFFFFFFFFFFFFFFFFFFFFFFFFFFFFFFFFFFFFFFFFFFFFFFF NOT AND PUSH1 0x20 DUP3 ADD DUP1 MLOAD PUSH28 0xFFFFFFFFFFFFFFFFFFFFFFFFFFFFFFFFFFFFFFFFFFFFFFFFFFFFFFFF DUP4 DUP2 DUP4 AND OR DUP4 MSTORE POP POP POP POP SWAP1 POP SWAP2 SWAP1 POP JUMP JUMPDEST ADDRESS PUSH20 0xFFFFFFFFFFFFFFFFFFFFFFFFFFFFFFFFFFFFFFFF AND CALLER PUSH20 0xFFFFFFFFFFFFFFFFFFFFFFFFFFFFFFFFFFFFFFFF AND EQ PUSH2 0x81E JUMPI PUSH1 0x40 MLOAD PUSH32 0x8C379A000000000000000000000000000000000000000000000000000000000 DUP2 MSTORE PUSH1 0x4 ADD PUSH2 0x815 SWAP1 PUSH2 0x1B63 JUMP JUMPDEST PUSH1 0x40 MLOAD DUP1 SWAP2 SUB SWAP1 REVERT JUMPDEST PUSH1 0x0 SLOAD DUP2 GT ISZERO PUSH2 0x863 JUMPI PUSH1 0x40 MLOAD PUSH32 0x8C379A000000000000000000000000000000000000000000000000000000000 DUP2 MSTORE PUSH1 0x4 ADD PUSH2 0x85A SWAP1 PUSH2 0x1BCF JUMP JUMPDEST PUSH1 0x40 MLOAD DUP1 SWAP2 SUB SWAP1 REVERT JUMPDEST PUSH1 0x1 DUP2 LT ISZERO PUSH2 0x8A7 JUMPI PUSH1 0x40 MLOAD PUSH32 0x8C379A000000000000000000000000000000000000000000000000000000000 DUP2 MSTORE PUSH1 0x4 ADD PUSH2 0x89E SWAP1 PUSH2 0x1C3B JUMP JUMPDEST PUSH1 0x40 MLOAD DUP1 SWAP2 SUB SWAP1 REVERT JUMPDEST DUP1 PUSH1 0x1 DUP2 SWAP1 SSTORE POP PUSH32 0x9947AC58E204D2DA07B9748298663B3B77DA7FB0638201D778987DED7C90FBAA PUSH1 0x1 SLOAD PUSH1 0x40 MLOAD PUSH2 0x8DF SWAP2 SWAP1 PUSH2 0x1301 JUMP JUMPDEST PUSH1 0x40 MLOAD DUP1 SWAP2 SUB SWAP1 LOG1 POP JUMP JUMPDEST PUSH1 0x0 PUSH1 0x1 SLOAD SWAP1 POP SWAP1 JUMP JUMPDEST PUSH1 0x0 PUSH1 0x1 SLOAD SWAP1 POP PUSH1 0x0 DUP2 GT PUSH2 0x93E JUMPI PUSH1 0x40 MLOAD PUSH32 0x8C379A000000000000000000000000000000000000000000000000000000000 DUP2 MSTORE PUSH1 0x4 ADD PUSH2 0x935 SWAP1 PUSH2 0x1CA7 JUMP JUMPDEST PUSH1 0x40 MLOAD DUP1 SWAP2 SUB SWAP1 REVERT JUMPDEST PUSH2 0x949 DUP4 DUP4 DUP4 PUSH2 0xDB4 JUMP JUMPDEST POP POP POP JUMP JUMPDEST PUSH1 0x0 PUSH2 0x95F DUP5 DUP5 DUP5 PUSH1 0x3 SLOAD CHAINID PUSH2 0xD6C JUMP JUMPDEST SWAP1 POP SWAP4 SWAP3 POP POP POP JUMP JUMPDEST PUSH1 0x3 SLOAD DUP2 JUMP JUMPDEST ADDRESS PUSH20 0xFFFFFFFFFFFFFFFFFFFFFFFFFFFFFFFFFFFFFFFF AND CALLER PUSH20 0xFFFFFFFFFFFFFFFFFFFFFFFFFFFFFFFFFFFFFFFF AND EQ PUSH2 0x9DC JUMPI PUSH1 0x40 MLOAD PUSH32 0x8C379A000000000000000000000000000000000000000000000000000000000 DUP2 MSTORE PUSH1 0x4 ADD PUSH2 0x9D3 SWAP1 PUSH2 0x1B63 JUMP JUMPDEST PUSH1 0x40 MLOAD DUP1 SWAP2 SUB SWAP1 REVERT JUMPDEST DUP1 PUSH1 0x1 PUSH1 0x0 SLOAD PUSH2 0x9EC SWAP2 SWAP1 PUSH2 0x1CC7 JUMP JUMPDEST LT ISZERO PUSH2 0xA2D JUMPI PUSH1 0x40 MLOAD PUSH32 0x8C379A000000000000000000000000000000000000000000000000000000000 DUP2 MSTORE PUSH1 0x4 ADD PUSH2 0xA24 SWAP1 PUSH2 0x1BCF JUMP JUMPDEST PUSH1 0x40 MLOAD DUP1 SWAP2 SUB SWAP1 REVERT JUMPDEST PUSH2 0xA36 DUP3 PUSH2 0xAD8 JUMP JUMPDEST PUSH2 0xA75 JUMPI PUSH1 0x40 MLOAD PUSH32 0x8C379A000000000000000000000000000000000000000000000000000000000 DUP2 MSTORE PUSH1 0x4 ADD PUSH2 0xA6C SWAP1 PUSH2 0x1D47 JUMP JUMPDEST PUSH1 0x40 MLOAD DUP1 SWAP2 SUB SWAP1 REVERT JUMPDEST PUSH2 0xA7E DUP3 PUSH2 0xF47 JUMP JUMPDEST DUP2 PUSH20 0xFFFFFFFFFFFFFFFFFFFFFFFFFFFFFFFFFFFFFFFF AND PUSH32 0xAC6E8398676CF37429D530B81144D7079E99F4FE9D28B0D88C4A749CECCBE8CD PUSH1 0x40 MLOAD PUSH1 0x40 MLOAD DUP1 SWAP2 SUB SWAP1 LOG2 PUSH1 0x1 SLOAD DUP2 EQ PUSH2 0xAD4 JUMPI PUSH2 0xAD3 DUP2 PUSH2 0x7B0 JUMP JUMPDEST JUMPDEST POP POP JUMP JUMPDEST PUSH1 0x0 DUP1 PUSH20 0xFFFFFFFFFFFFFFFFFFFFFFFFFFFFFFFFFFFFFFFF AND PUSH1 0x2 PUSH1 0x0 DUP5 PUSH20 0xFFFFFFFFFFFFFFFFFFFFFFFFFFFFFFFFFFFFFFFF AND PUSH20 0xFFFFFFFFFFFFFFFFFFFFFFFFFFFFFFFFFFFFFFFF AND DUP2 MSTORE PUSH1 0x20 ADD SWAP1 DUP2 MSTORE PUSH1 0x20 ADD PUSH1 0x0 KECCAK256 PUSH1 0x0 DUP1 ISZERO ISZERO ISZERO ISZERO DUP2 MSTORE PUSH1 0x20 ADD SWAP1 DUP2 MSTORE PUSH1 0x20 ADD PUSH1 0x0 KECCAK256 PUSH1 0x0 SWAP1 SLOAD SWAP1 PUSH2 0x100 EXP SWAP1 DIV PUSH20 0xFFFFFFFFFFFFFFFFFFFFFFFFFFFFFFFFFFFFFFFF AND PUSH20 0xFFFFFFFFFFFFFFFFFFFFFFFFFFFFFFFFFFFFFFFF AND EQ ISZERO DUP1 PUSH2 0xC2B JUMPI POP PUSH1 0x0 PUSH20 0xFFFFFFFFFFFFFFFFFFFFFFFFFFFFFFFFFFFFFFFF AND PUSH1 0x2 PUSH1 0x0 DUP5 PUSH20 0xFFFFFFFFFFFFFFFFFFFFFFFFFFFFFFFFFFFFFFFF AND PUSH20 0xFFFFFFFFFFFFFFFFFFFFFFFFFFFFFFFFFFFFFFFF AND DUP2 MSTORE PUSH1 0x20 ADD SWAP1 DUP2 MSTORE PUSH1 0x20 ADD PUSH1 0x0 KECCAK256 PUSH1 0x0 PUSH1 0x1 ISZERO ISZERO ISZERO ISZERO DUP2 MSTORE PUSH1 0x20 ADD SWAP1 DUP2 MSTORE PUSH1 0x20 ADD PUSH1 0x0 KECCAK256 PUSH1 0x0 SWAP1 SLOAD SWAP1 PUSH2 0x100 EXP SWAP1 DIV PUSH20 0xFFFFFFFFFFFFFFFFFFFFFFFFFFFFFFFFFFFFFFFF AND PUSH20 0xFFFFFFFFFFFFFFFFFFFFFFFFFFFFFFFFFFFFFFFF AND EQ ISZERO JUMPDEST SWAP1 POP SWAP2 SWAP1 POP JUMP JUMPDEST PUSH1 0x60 PUSH32 0xC54620469A3EEFF8E01E9971BCF46E640ABBF3FA3139AA3AFA97959F3D74499 DUP4 DUP4 PUSH1 0x40 MLOAD PUSH1 0x24 ADD PUSH2 0xC68 SWAP3 SWAP2 SWAP1 PUSH2 0x1ADD JUMP JUMPDEST PUSH1 0x40 MLOAD PUSH1 0x20 DUP2 DUP4 SUB SUB DUP2 MSTORE SWAP1 PUSH1 0x40 MSTORE SWAP1 PUSH28 0xFFFFFFFFFFFFFFFFFFFFFFFFFFFFFFFFFFFFFFFFFFFFFFFFFFFFFFFF NOT AND PUSH1 0x20 DUP3 ADD DUP1 MLOAD PUSH28 0xFFFFFFFFFFFFFFFFFFFFFFFFFFFFFFFFFFFFFFFFFFFFFFFFFFFFFFFF DUP4 DUP2 DUP4 AND OR DUP4 MSTORE POP POP POP POP SWAP1 POP SWAP3 SWAP2 POP POP JUMP JUMPDEST PUSH1 0x0 DUP1 PUSH2 0xCD9 DUP5 PUSH2 0xAD8 JUMP JUMPDEST PUSH2 0xCE9 JUMPI PUSH1 0x0 DUP1 SWAP2 POP SWAP2 POP PUSH2 0xD65 JUMP JUMPDEST PUSH1 0x1 PUSH1 0x2 PUSH1 0x0 DUP7 PUSH20 0xFFFFFFFFFFFFFFFFFFFFFFFFFFFFFFFFFFFFFFFF AND PUSH20 0xFFFFFFFFFFFFFFFFFFFFFFFFFFFFFFFFFFFFFFFF AND DUP2 MSTORE PUSH1 0x20 ADD SWAP1 DUP2 MSTORE PUSH1 0x20 ADD PUSH1 0x0 KECCAK256 PUSH1 0x0 DUP6 ISZERO ISZERO ISZERO ISZERO DUP2 MSTORE PUSH1 0x20 ADD SWAP1 DUP2 MSTORE PUSH1 0x20 ADD PUSH1 0x0 KECCAK256 PUSH1 0x0 SWAP1 SLOAD SWAP1 PUSH2 0x100 EXP SWAP1 DIV PUSH20 0xFFFFFFFFFFFFFFFFFFFFFFFFFFFFFFFFFFFFFFFF AND SWAP2 POP SWAP2 POP JUMPDEST SWAP3 POP SWAP3 SWAP1 POP JUMP JUMPDEST PUSH1 0x0 DUP1 DUP7 DUP7 DUP7 DUP1 MLOAD SWAP1 PUSH1 0x20 ADD KECCAK256 DUP7 DUP7 PUSH1 0x40 MLOAD PUSH1 0x20 ADD PUSH2 0xD8F SWAP6 SWAP5 SWAP4 SWAP3 SWAP2 SWAP1 PUSH2 0x1D67 JUMP JUMPDEST PUSH1 0x40 MLOAD PUSH1 0x20 DUP2 DUP4 SUB SUB DUP2 MSTORE SWAP1 PUSH1 0x40 MSTORE DUP1 MLOAD SWAP1 PUSH1 0x20 ADD KECCAK256 SWAP1 POP DUP1 SWAP2 POP POP SWAP6 SWAP5 POP POP POP POP POP JUMP JUMPDEST PUSH1 0x41 DUP2 PUSH2 0xDC1 SWAP2 SWAP1 PUSH2 0x1DBA JUMP JUMPDEST DUP3 MLOAD LT ISZERO PUSH2 0xE04 JUMPI PUSH1 0x40 MLOAD PUSH32 0x8C379A000000000000000000000000000000000000000000000000000000000 DUP2 MSTORE PUSH1 0x4 ADD PUSH2 0xDFB SWAP1 PUSH2 0x1E48 JUMP JUMPDEST PUSH1 0x40 MLOAD DUP1 SWAP2 SUB SWAP1 REVERT JUMPDEST PUSH1 0x0 DUP1 PUSH1 0x0 DUP1 PUSH1 0x0 DUP1 PUSH1 0x0 SWAP1 POP JUMPDEST DUP7 DUP2 LT ISZERO PUSH2 0xF3C JUMPI PUSH2 0xE24 DUP9 DUP3 PUSH2 0x118D JUMP JUMPDEST DUP1 SWAP5 POP DUP2 SWAP6 POP DUP3 SWAP7 POP POP POP POP PUSH1 0x1 DUP10 PUSH1 0x40 MLOAD PUSH1 0x20 ADD PUSH2 0xE43 SWAP2 SWAP1 PUSH2 0x1EE0 JUMP JUMPDEST PUSH1 0x40 MLOAD PUSH1 0x20 DUP2 DUP4 SUB SUB DUP2 MSTORE SWAP1 PUSH1 0x40 MSTORE DUP1 MLOAD SWAP1 PUSH1 0x20 ADD KECCAK256 DUP6 DUP6 DUP6 PUSH1 0x40 MLOAD PUSH1 0x0 DUP2 MSTORE PUSH1 0x20 ADD PUSH1 0x40 MSTORE PUSH1 0x40 MLOAD PUSH2 0xE79 SWAP5 SWAP4 SWAP3 SWAP2 SWAP1 PUSH2 0x1F22 JUMP JUMPDEST PUSH1 0x20 PUSH1 0x40 MLOAD PUSH1 0x20 DUP2 SUB SWAP1 DUP1 DUP5 SUB SWAP1 DUP6 GAS STATICCALL ISZERO DUP1 ISZERO PUSH2 0xE9B JUMPI RETURNDATASIZE PUSH1 0x0 DUP1 RETURNDATACOPY RETURNDATASIZE PUSH1 0x0 REVERT JUMPDEST POP POP POP PUSH1 0x20 PUSH1 0x40 MLOAD SUB MLOAD SWAP5 POP DUP6 PUSH20 0xFFFFFFFFFFFFFFFFFFFFFFFFFFFFFFFFFFFFFFFF AND DUP6 PUSH20 0xFFFFFFFFFFFFFFFFFFFFFFFFFFFFFFFFFFFFFFFF AND GT DUP1 ISZERO PUSH2 0xEE7 JUMPI POP PUSH2 0xEE6 DUP6 PUSH2 0xAD8 JUMP JUMPDEST JUMPDEST PUSH2 0xF26 JUMPI PUSH1 0x40 MLOAD PUSH32 0x8C379A000000000000000000000000000000000000000000000000000000000 DUP2 MSTORE PUSH1 0x4 ADD PUSH2 0xF1D SWAP1 PUSH2 0x1FB3 JUMP JUMPDEST PUSH1 0x40 MLOAD DUP1 SWAP2 SUB SWAP1 REVERT JUMPDEST DUP5 SWAP6 POP DUP1 DUP1 PUSH2 0xF34 SWAP1 PUSH2 0x1A3D JUMP JUMPDEST SWAP2 POP POP PUSH2 0xE12 JUMP JUMPDEST POP POP POP POP POP POP POP POP POP JUMP JUMPDEST PUSH2 0xF50 DUP2 PUSH2 0xAD8 JUMP JUMPDEST PUSH2 0xF8F JUMPI PUSH1 0x40 MLOAD PUSH32 0x8C379A000000000000000000000000000000000000000000000000000000000 DUP2 MSTORE PUSH1 0x4 ADD PUSH2 0xF86 SWAP1 PUSH2 0x1D47 JUMP JUMPDEST PUSH1 0x40 MLOAD DUP1 SWAP2 SUB SWAP1 REVERT JUMPDEST PUSH2 0x1084 PUSH1 0x2 PUSH1 0x0 DUP4 PUSH20 0xFFFFFFFFFFFFFFFFFFFFFFFFFFFFFFFFFFFFFFFF AND PUSH20 0xFFFFFFFFFFFFFFFFFFFFFFFFFFFFFFFFFFFFFFFF AND DUP2 MSTORE PUSH1 0x20 ADD SWAP1 DUP2 MSTORE PUSH1 0x20 ADD PUSH1 0x0 KECCAK256 PUSH1 0x0 DUP1 ISZERO ISZERO ISZERO ISZERO DUP2 MSTORE PUSH1 0x20 ADD SWAP1 DUP2 MSTORE PUSH1 0x20 ADD PUSH1 0x0 KECCAK256 PUSH1 0x0 SWAP1 SLOAD SWAP1 PUSH2 0x100 EXP SWAP1 DIV PUSH20 0xFFFFFFFFFFFFFFFFFFFFFFFFFFFFFFFFFFFFFFFF AND PUSH1 0x2 PUSH1 0x0 DUP5 PUSH20 0xFFFFFFFFFFFFFFFFFFFFFFFFFFFFFFFFFFFFFFFF AND PUSH20 0xFFFFFFFFFFFFFFFFFFFFFFFFFFFFFFFFFFFFFFFF AND DUP2 MSTORE PUSH1 0x20 ADD SWAP1 DUP2 MSTORE PUSH1 0x20 ADD PUSH1 0x0 KECCAK256 PUSH1 0x0 PUSH1 0x1 ISZERO ISZERO ISZERO ISZERO DUP2 MSTORE PUSH1 0x20 ADD SWAP1 DUP2 MSTORE PUSH1 0x20 ADD PUSH1 0x0 KECCAK256 PUSH1 0x0 SWAP1 SLOAD SWAP1 PUSH2 0x100 EXP SWAP1 DIV PUSH20 0xFFFFFFFFFFFFFFFFFFFFFFFFFFFFFFFFFFFFFFFF AND PUSH1 0x1 PUSH2 0x11BC JUMP JUMPDEST PUSH1 0x2 PUSH1 0x0 DUP3 PUSH20 0xFFFFFFFFFFFFFFFFFFFFFFFFFFFFFFFFFFFFFFFF AND PUSH20 0xFFFFFFFFFFFFFFFFFFFFFFFFFFFFFFFFFFFFFFFF AND DUP2 MSTORE PUSH1 0x20 ADD SWAP1 DUP2 MSTORE PUSH1 0x20 ADD PUSH1 0x0 KECCAK256 PUSH1 0x0 DUP1 ISZERO ISZERO ISZERO ISZERO DUP2 MSTORE PUSH1 0x20 ADD SWAP1 DUP2 MSTORE PUSH1 0x20 ADD PUSH1 0x0 KECCAK256 PUSH1 0x0 PUSH2 0x100 EXP DUP2 SLOAD SWAP1 PUSH20 0xFFFFFFFFFFFFFFFFFFFFFFFFFFFFFFFFFFFFFFFF MUL NOT AND SWAP1 SSTORE PUSH1 0x2 PUSH1 0x0 DUP3 PUSH20 0xFFFFFFFFFFFFFFFFFFFFFFFFFFFFFFFFFFFFFFFF AND PUSH20 0xFFFFFFFFFFFFFFFFFFFFFFFFFFFFFFFFFFFFFFFF AND DUP2 MSTORE PUSH1 0x20 ADD SWAP1 DUP2 MSTORE PUSH1 0x20 ADD PUSH1 0x0 KECCAK256 PUSH1 0x0 PUSH1 0x1 ISZERO ISZERO ISZERO ISZERO DUP2 MSTORE PUSH1 0x20 ADD SWAP1 DUP2 MSTORE PUSH1 0x20 ADD PUSH1 0x0 KECCAK256 PUSH1 0x0 PUSH2 0x100 EXP DUP2 SLOAD SWAP1 PUSH20 0xFFFFFFFFFFFFFFFFFFFFFFFFFFFFFFFFFFFFFFFF MUL NOT AND SWAP1 SSTORE PUSH1 0x0 DUP1 DUP2 SLOAD DUP1 SWAP3 SWAP2 SWAP1 PUSH2 0x1185 SWAP1 PUSH2 0x1FD3 JUMP JUMPDEST SWAP2 SWAP1 POP SSTORE POP POP JUMP JUMPDEST PUSH1 0x0 DUP1 PUSH1 0x0 DUP4 PUSH1 0x41 MUL PUSH1 0x20 DUP2 ADD DUP7 ADD MLOAD SWAP3 POP PUSH1 0x40 DUP2 ADD DUP7 ADD MLOAD SWAP2 POP PUSH1 0xFF PUSH1 0x41 DUP3 ADD DUP8 ADD MLOAD AND SWAP4 POP POP SWAP3 POP SWAP3 POP SWAP3 JUMP JUMPDEST DUP3 PUSH1 0x2 PUSH1 0x0 DUP5 PUSH20 0xFFFFFFFFFFFFFFFFFFFFFFFFFFFFFFFFFFFFFFFF AND PUSH20 0xFFFFFFFFFFFFFFFFFFFFFFFFFFFFFFFFFFFFFFFF AND DUP2 MSTORE PUSH1 0x20 ADD SWAP1 DUP2 MSTORE PUSH1 0x20 ADD PUSH1 0x0 KECCAK256 PUSH1 0x0 DUP4 ISZERO ISZERO ISZERO ISZERO ISZERO DUP2 MSTORE PUSH1 0x20 ADD SWAP1 DUP2 MSTORE PUSH1 0x20 ADD PUSH1 0x0 KECCAK256 PUSH1 0x0 PUSH2 0x100 EXP DUP2 SLOAD DUP2 PUSH20 0xFFFFFFFFFFFFFFFFFFFFFFFFFFFFFFFFFFFFFFFF MUL NOT AND SWAP1 DUP4 PUSH20 0xFFFFFFFFFFFFFFFFFFFFFFFFFFFFFFFFFFFFFFFF AND MUL OR SWAP1 SSTORE POP DUP2 PUSH1 0x2 PUSH1 0x0 DUP6 PUSH20 0xFFFFFFFFFFFFFFFFFFFFFFFFFFFFFFFFFFFFFFFF AND PUSH20 0xFFFFFFFFFFFFFFFFFFFFFFFFFFFFFFFFFFFFFFFF AND DUP2 MSTORE PUSH1 0x20 ADD SWAP1 DUP2 MSTORE PUSH1 0x20 ADD PUSH1 0x0 KECCAK256 PUSH1 0x0 DUP4 ISZERO ISZERO ISZERO ISZERO DUP2 MSTORE PUSH1 0x20 ADD SWAP1 DUP2 MSTORE PUSH1 0x20 ADD PUSH1 0x0 KECCAK256 PUSH1 0x0 PUSH2 0x100 EXP DUP2 SLOAD DUP2 PUSH20 0xFFFFFFFFFFFFFFFFFFFFFFFFFFFFFFFFFFFFFFFF MUL NOT AND SWAP1 DUP4 PUSH20 0xFFFFFFFFFFFFFFFFFFFFFFFFFFFFFFFFFFFFFFFF AND MUL OR SWAP1 SSTORE POP POP POP POP JUMP JUMPDEST PUSH1 0x0 DUP2 SWAP1 POP SWAP2 SWAP1 POP JUMP JUMPDEST PUSH2 0x12FB DUP2 PUSH2 0x12E8 JUMP JUMPDEST DUP3 MSTORE POP POP JUMP JUMPDEST PUSH1 0x0 PUSH1 0x20 DUP3 ADD SWAP1 POP PUSH2 0x1316 PUSH1 0x0 DUP4 ADD DUP5 PUSH2 0x12F2 JUMP JUMPDEST SWAP3 SWAP2 POP POP JUMP JUMPDEST PUSH1 0x0 DUP3 DUP3 MSTORE PUSH1 0x20 DUP3 ADD SWAP1 POP SWAP3 SWAP2 POP POP JUMP JUMPDEST DUP3 DUP2 DUP4 CALLDATACOPY PUSH1 0x0 DUP4 DUP4 ADD MSTORE POP POP POP JUMP JUMPDEST PUSH1 0x0 PUSH1 0x1F NOT PUSH1 0x1F DUP4 ADD AND SWAP1 POP SWAP2 SWAP1 POP JUMP JUMPDEST PUSH1 0x0 PUSH2 0x1359 DUP4 DUP6 PUSH2 0x131C JUMP JUMPDEST SWAP4 POP PUSH2 0x1366 DUP4 DUP6 DUP5 PUSH2 0x132D JUMP JUMPDEST PUSH2 0x136F DUP4 PUSH2 0x133C JUMP JUMPDEST DUP5 ADD SWAP1 POP SWAP4 SWAP3 POP POP POP JUMP JUMPDEST PUSH1 0x0 PUSH1 0x40 DUP3 ADD SWAP1 POP PUSH2 0x138F PUSH1 0x0 DUP4 ADD DUP7 PUSH2 0x12F2 JUMP JUMPDEST DUP2 DUP2 SUB PUSH1 0x20 DUP4 ADD MSTORE PUSH2 0x13A2 DUP2 DUP5 DUP7 PUSH2 0x134D JUMP JUMPDEST SWAP1 POP SWAP5 SWAP4 POP POP POP POP JUMP JUMPDEST PUSH1 0x0 DUP2 MLOAD SWAP1 POP SWAP2 SWAP1 POP JUMP JUMPDEST PUSH1 0x0 DUP3 DUP3 MSTORE PUSH1 0x20 DUP3 ADD SWAP1 POP SWAP3 SWAP2 POP POP JUMP JUMPDEST PUSH1 0x0 DUP2 SWAP1 POP PUSH1 0x20 DUP3 ADD SWAP1 POP SWAP2 SWAP1 POP JUMP JUMPDEST PUSH1 0x0 PUSH20 0xFFFFFFFFFFFFFFFFFFFFFFFFFFFFFFFFFFFFFFFF DUP3 AND SWAP1 POP SWAP2 SWAP1 POP JUMP JUMPDEST PUSH1 0x0 PUSH2 0x1403 DUP3 PUSH2 0x13D8 JUMP JUMPDEST SWAP1 POP SWAP2 SWAP1 POP JUMP JUMPDEST PUSH2 0x1413 DUP2 PUSH2 0x13F8 JUMP JUMPDEST DUP3 MSTORE POP POP JUMP JUMPDEST PUSH1 0x0 PUSH2 0x1425 DUP4 DUP4 PUSH2 0x140A JUMP JUMPDEST PUSH1 0x20 DUP4 ADD SWAP1 POP SWAP3 SWAP2 POP POP JUMP JUMPDEST PUSH1 0x0 PUSH1 0x20 DUP3 ADD SWAP1 POP SWAP2 SWAP1 POP JUMP JUMPDEST PUSH1 0x0 PUSH2 0x1449 DUP3 PUSH2 0x13AC JUMP JUMPDEST PUSH2 0x1453 DUP2 DUP6 PUSH2 0x13B7 JUMP JUMPDEST SWAP4 POP PUSH2 0x145E DUP4 PUSH2 0x13C8 JUMP JUMPDEST DUP1 PUSH1 0x0 JUMPDEST DUP4 DUP2 LT ISZERO PUSH2 0x148F JUMPI DUP2 MLOAD PUSH2 0x1476 DUP9 DUP3 PUSH2 0x1419 JUMP JUMPDEST SWAP8 POP PUSH2 0x1481 DUP4 PUSH2 0x1431 JUMP JUMPDEST SWAP3 POP POP PUSH1 0x1 DUP2 ADD SWAP1 POP PUSH2 0x1462 JUMP JUMPDEST POP DUP6 SWAP4 POP POP POP POP SWAP3 SWAP2 POP POP JUMP JUMPDEST PUSH1 0x0 PUSH1 0x20 DUP3 ADD SWAP1 POP DUP2 DUP2 SUB PUSH1 0x0 DUP4 ADD MSTORE PUSH2 0x14B6 DUP2 DUP5 PUSH2 0x143E JUMP JUMPDEST SWAP1 POP SWAP3 SWAP2 POP POP JUMP JUMPDEST PUSH1 0x0 PUSH1 0x40 MLOAD SWAP1 POP SWAP1 JUMP JUMPDEST PUSH1 0x0 DUP1 REVERT JUMPDEST PUSH1 0x0 DUP1 REVERT JUMPDEST PUSH2 0x14DB DUP2 PUSH2 0x13F8 JUMP JUMPDEST DUP2 EQ PUSH2 0x14E6 JUMPI PUSH1 0x0 DUP1 REVERT JUMPDEST POP JUMP JUMPDEST PUSH1 0x0 DUP2 CALLDATALOAD SWAP1 POP PUSH2 0x14F8 DUP2 PUSH2 0x14D2 JUMP JUMPDEST SWAP3 SWAP2 POP POP JUMP JUMPDEST PUSH2 0x1507 DUP2 PUSH2 0x12E8 JUMP JUMPDEST DUP2 EQ PUSH2 0x1512 JUMPI PUSH1 0x0 DUP1 REVERT JUMPDEST POP JUMP JUMPDEST PUSH1 0x0 DUP2 CALLDATALOAD SWAP1 POP PUSH2 0x1524 DUP2 PUSH2 0x14FE JUMP JUMPDEST SWAP3 SWAP2 POP POP JUMP JUMPDEST PUSH1 0x0 DUP1 REVERT JUMPDEST PUSH1 0x0 DUP1 REVERT JUMPDEST PUSH1 0x0 DUP1 REVERT JUMPDEST PUSH1 0x0 DUP1 DUP4 PUSH1 0x1F DUP5 ADD SLT PUSH2 0x154F JUMPI PUSH2 0x154E PUSH2 0x152A JUMP JUMPDEST JUMPDEST DUP3 CALLDATALOAD SWAP1 POP PUSH8 0xFFFFFFFFFFFFFFFF DUP2 GT ISZERO PUSH2 0x156C JUMPI PUSH2 0x156B PUSH2 0x152F JUMP JUMPDEST JUMPDEST PUSH1 0x20 DUP4 ADD SWAP2 POP DUP4 PUSH1 0x1 DUP3 MUL DUP4 ADD GT ISZERO PUSH2 0x1588 JUMPI PUSH2 0x1587 PUSH2 0x1534 JUMP JUMPDEST JUMPDEST SWAP3 POP SWAP3 SWAP1 POP JUMP JUMPDEST PUSH1 0x0 DUP1 REVERT JUMPDEST PUSH32 0x4E487B7100000000000000000000000000000000000000000000000000000000 PUSH1 0x0 MSTORE PUSH1 0x41 PUSH1 0x4 MSTORE PUSH1 0x24 PUSH1 0x0 REVERT JUMPDEST PUSH2 0x15CC DUP3 PUSH2 0x133C JUMP JUMPDEST DUP2 ADD DUP2 DUP2 LT PUSH8 0xFFFFFFFFFFFFFFFF DUP3 GT OR ISZERO PUSH2 0x15EB JUMPI PUSH2 0x15EA PUSH2 0x1594 JUMP JUMPDEST JUMPDEST DUP1 PUSH1 0x40 MSTORE POP POP POP JUMP JUMPDEST PUSH1 0x0 PUSH2 0x15FE PUSH2 0x14BE JUMP JUMPDEST SWAP1 POP PUSH2 0x160A DUP3 DUP3 PUSH2 0x15C3 JUMP JUMPDEST SWAP2 SWAP1 POP JUMP JUMPDEST PUSH1 0x0 PUSH8 0xFFFFFFFFFFFFFFFF DUP3 GT ISZERO PUSH2 0x162A JUMPI PUSH2 0x1629 PUSH2 0x1594 JUMP JUMPDEST JUMPDEST PUSH2 0x1633 DUP3 PUSH2 0x133C JUMP JUMPDEST SWAP1 POP PUSH1 0x20 DUP2 ADD SWAP1 POP SWAP2 SWAP1 POP JUMP JUMPDEST PUSH1 0x0 PUSH2 0x1653 PUSH2 0x164E DUP5 PUSH2 0x160F JUMP JUMPDEST PUSH2 0x15F4 JUMP JUMPDEST SWAP1 POP DUP3 DUP2 MSTORE PUSH1 0x20 DUP2 ADD DUP5 DUP5 DUP5 ADD GT ISZERO PUSH2 0x166F JUMPI PUSH2 0x166E PUSH2 0x158F JUMP JUMPDEST JUMPDEST PUSH2 0x167A DUP5 DUP3 DUP6 PUSH2 0x132D JUMP JUMPDEST POP SWAP4 SWAP3 POP POP POP JUMP JUMPDEST PUSH1 0x0 DUP3 PUSH1 0x1F DUP4 ADD SLT PUSH2 0x1697 JUMPI PUSH2 0x1696 PUSH2 0x152A JUMP JUMPDEST JUMPDEST DUP2 CALLDATALOAD PUSH2 0x16A7 DUP5 DUP3 PUSH1 0x20 DUP7 ADD PUSH2 0x1640 JUMP JUMPDEST SWAP2 POP POP SWAP3 SWAP2 POP POP JUMP JUMPDEST PUSH1 0x0 DUP1 PUSH1 0x0 DUP1 PUSH1 0x0 PUSH1 0x80 DUP7 DUP9 SUB SLT ISZERO PUSH2 0x16CC JUMPI PUSH2 0x16CB PUSH2 0x14C8 JUMP JUMPDEST JUMPDEST PUSH1 0x0 PUSH2 0x16DA DUP9 DUP3 DUP10 ADD PUSH2 0x14E9 JUMP JUMPDEST SWAP6 POP POP PUSH1 0x20 PUSH2 0x16EB DUP9 DUP3 DUP10 ADD PUSH2 0x1515 JUMP JUMPDEST SWAP5 POP POP PUSH1 0x40 DUP7 ADD CALLDATALOAD PUSH8 0xFFFFFFFFFFFFFFFF DUP2 GT ISZERO PUSH2 0x170C JUMPI PUSH2 0x170B PUSH2 0x14CD JUMP JUMPDEST JUMPDEST PUSH2 0x1718 DUP9 DUP3 DUP10 ADD PUSH2 0x1539 JUMP JUMPDEST SWAP4 POP SWAP4 POP POP PUSH1 0x60 DUP7 ADD CALLDATALOAD PUSH8 0xFFFFFFFFFFFFFFFF DUP2 GT ISZERO PUSH2 0x173B JUMPI PUSH2 0x173A PUSH2 0x14CD JUMP JUMPDEST JUMPDEST PUSH2 0x1747 DUP9 DUP3 DUP10 ADD PUSH2 0x1682 JUMP JUMPDEST SWAP2 POP POP SWAP3 SWAP6 POP SWAP3 SWAP6 SWAP1 SWAP4 POP JUMP JUMPDEST PUSH1 0x0 DUP2 ISZERO ISZERO SWAP1 POP SWAP2 SWAP1 POP JUMP JUMPDEST PUSH2 0x1769 DUP2 PUSH2 0x1754 JUMP JUMPDEST DUP3 MSTORE POP POP JUMP JUMPDEST PUSH1 0x0 PUSH1 0x20 DUP3 ADD SWAP1 POP PUSH2 0x1784 PUSH1 0x0 DUP4 ADD DUP5 PUSH2 0x1760 JUMP JUMPDEST SWAP3 SWAP2 POP POP JUMP JUMPDEST PUSH1 0x0 DUP1 PUSH1 0x40 DUP4 DUP6 SUB SLT ISZERO PUSH2 0x17A1 JUMPI PUSH2 0x17A0 PUSH2 0x14C8 JUMP JUMPDEST JUMPDEST PUSH1 0x0 PUSH2 0x17AF DUP6 DUP3 DUP7 ADD PUSH2 0x14E9 JUMP JUMPDEST SWAP3 POP POP PUSH1 0x20 PUSH2 0x17C0 DUP6 DUP3 DUP7 ADD PUSH2 0x1515 JUMP JUMPDEST SWAP2 POP POP SWAP3 POP SWAP3 SWAP1 POP JUMP JUMPDEST PUSH1 0x0 DUP2 MLOAD SWAP1 POP SWAP2 SWAP1 POP JUMP JUMPDEST PUSH1 0x0 JUMPDEST DUP4 DUP2 LT ISZERO PUSH2 0x17F3 JUMPI DUP1 DUP3 ADD MLOAD DUP2 DUP5 ADD MSTORE PUSH1 0x20 DUP2 ADD SWAP1 POP PUSH2 0x17D8 JUMP JUMPDEST PUSH1 0x0 DUP5 DUP5 ADD MSTORE POP POP POP POP JUMP JUMPDEST PUSH1 0x0 PUSH2 0x180A DUP3 PUSH2 0x17CA JUMP JUMPDEST PUSH2 0x1814 DUP2 DUP6 PUSH2 0x131C JUMP JUMPDEST SWAP4 POP PUSH2 0x1824 DUP2 DUP6 PUSH1 0x20 DUP7 ADD PUSH2 0x17D5 JUMP JUMPDEST PUSH2 0x182D DUP2 PUSH2 0x133C JUMP JUMPDEST DUP5 ADD SWAP2 POP POP SWAP3 SWAP2 POP POP JUMP JUMPDEST PUSH1 0x0 PUSH1 0x20 DUP3 ADD SWAP1 POP DUP2 DUP2 SUB PUSH1 0x0 DUP4 ADD MSTORE PUSH2 0x1852 DUP2 DUP5 PUSH2 0x17FF JUMP JUMPDEST SWAP1 POP SWAP3 SWAP2 POP POP JUMP JUMPDEST PUSH1 0x0 PUSH1 0x20 DUP3 DUP5 SUB SLT ISZERO PUSH2 0x1870 JUMPI PUSH2 0x186F PUSH2 0x14C8 JUMP JUMPDEST JUMPDEST PUSH1 0x0 PUSH2 0x187E DUP5 DUP3 DUP6 ADD PUSH2 0x1515 JUMP JUMPDEST SWAP2 POP POP SWAP3 SWAP2 POP POP JUMP JUMPDEST PUSH1 0x0 DUP2 SWAP1 POP SWAP2 SWAP1 POP JUMP JUMPDEST PUSH2 0x189A DUP2 PUSH2 0x1887 JUMP JUMPDEST DUP2 EQ PUSH2 0x18A5 JUMPI PUSH1 0x0 DUP1 REVERT JUMPDEST POP JUMP JUMPDEST PUSH1 0x0 DUP2 CALLDATALOAD SWAP1 POP PUSH2 0x18B7 DUP2 PUSH2 0x1891 JUMP JUMPDEST SWAP3 SWAP2 POP POP JUMP JUMPDEST PUSH1 0x0 DUP1 PUSH1 0x40 DUP4 DUP6 SUB SLT ISZERO PUSH2 0x18D4 JUMPI PUSH2 0x18D3 PUSH2 0x14C8 JUMP JUMPDEST JUMPDEST PUSH1 0x0 PUSH2 0x18E2 DUP6 DUP3 DUP7 ADD PUSH2 0x18A8 JUMP JUMPDEST SWAP3 POP POP PUSH1 0x20 DUP4 ADD CALLDATALOAD PUSH8 0xFFFFFFFFFFFFFFFF DUP2 GT ISZERO PUSH2 0x1903 JUMPI PUSH2 0x1902 PUSH2 0x14CD JUMP JUMPDEST JUMPDEST PUSH2 0x190F DUP6 DUP3 DUP7 ADD PUSH2 0x1682 JUMP JUMPDEST SWAP2 POP POP SWAP3 POP SWAP3 SWAP1 POP JUMP JUMPDEST PUSH1 0x0 DUP1 PUSH1 0x0 PUSH1 0x60 DUP5 DUP7 SUB SLT ISZERO PUSH2 0x1932 JUMPI PUSH2 0x1931 PUSH2 0x14C8 JUMP JUMPDEST JUMPDEST PUSH1 0x0 PUSH2 0x1940 DUP7 DUP3 DUP8 ADD PUSH2 0x14E9 JUMP JUMPDEST SWAP4 POP POP PUSH1 0x20 PUSH2 0x1951 DUP7 DUP3 DUP8 ADD PUSH2 0x1515 JUMP JUMPDEST SWAP3 POP POP PUSH1 0x40 DUP5 ADD CALLDATALOAD PUSH8 0xFFFFFFFFFFFFFFFF DUP2 GT ISZERO PUSH2 0x1972 JUMPI PUSH2 0x1971 PUSH2 0x14CD JUMP JUMPDEST JUMPDEST PUSH2 0x197E DUP7 DUP3 DUP8 ADD PUSH2 0x1682 JUMP JUMPDEST SWAP2 POP POP SWAP3 POP SWAP3 POP SWAP3 JUMP JUMPDEST PUSH2 0x1991 DUP2 PUSH2 0x1887 JUMP JUMPDEST DUP3 MSTORE POP POP JUMP JUMPDEST PUSH1 0x0 PUSH1 0x20 DUP3 ADD SWAP1 POP PUSH2 0x19AC PUSH1 0x0 DUP4 ADD DUP5 PUSH2 0x1988 JUMP JUMPDEST SWAP3 SWAP2 POP POP JUMP JUMPDEST PUSH1 0x0 PUSH1 0x20 DUP3 DUP5 SUB SLT ISZERO PUSH2 0x19C8 JUMPI PUSH2 0x19C7 PUSH2 0x14C8 JUMP JUMPDEST JUMPDEST PUSH1 0x0 PUSH2 0x19D6 DUP5 DUP3 DUP6 ADD PUSH2 0x14E9 JUMP JUMPDEST SWAP2 POP POP SWAP3 SWAP2 POP POP JUMP JUMPDEST PUSH32 0x4E487B7100000000000000000000000000000000000000000000000000000000 PUSH1 0x0 MSTORE PUSH1 0x32 PUSH1 0x4 MSTORE PUSH1 0x24 PUSH1 0x0 REVERT JUMPDEST PUSH32 0x4E487B7100000000000000000000000000000000000000000000000000000000 PUSH1 0x0 MSTORE PUSH1 0x11 PUSH1 0x4 MSTORE PUSH1 0x24 PUSH1 0x0 REVERT JUMPDEST PUSH1 0x0 PUSH2 0x1A48 DUP3 PUSH2 0x12E8 JUMP JUMPDEST SWAP2 POP PUSH32 0xFFFFFFFFFFFFFFFFFFFFFFFFFFFFFFFFFFFFFFFFFFFFFFFFFFFFFFFFFFFFFFFF DUP3 SUB PUSH2 0x1A7A JUMPI PUSH2 0x1A79 PUSH2 0x1A0E JUMP JUMPDEST JUMPDEST PUSH1 0x1 DUP3 ADD SWAP1 POP SWAP2 SWAP1 POP JUMP JUMPDEST PUSH1 0x0 DUP2 SWAP1 POP SWAP3 SWAP2 POP POP JUMP JUMPDEST PUSH1 0x0 PUSH2 0x1A9C DUP4 DUP6 PUSH2 0x1A85 JUMP JUMPDEST SWAP4 POP PUSH2 0x1AA9 DUP4 DUP6 DUP5 PUSH2 0x132D JUMP JUMPDEST DUP3 DUP5 ADD SWAP1 POP SWAP4 SWAP3 POP POP POP JUMP JUMPDEST PUSH1 0x0 PUSH2 0x1AC2 DUP3 DUP5 DUP7 PUSH2 0x1A90 JUMP JUMPDEST SWAP2 POP DUP2 SWAP1 POP SWAP4 SWAP3 POP POP POP JUMP JUMPDEST PUSH2 0x1AD7 DUP2 PUSH2 0x13F8 JUMP JUMPDEST DUP3 MSTORE POP POP JUMP JUMPDEST PUSH1 0x0 PUSH1 0x40 DUP3 ADD SWAP1 POP PUSH2 0x1AF2 PUSH1 0x0 DUP4 ADD DUP6 PUSH2 0x1ACE JUMP JUMPDEST PUSH2 0x1AFF PUSH1 0x20 DUP4 ADD DUP5 PUSH2 0x12F2 JUMP JUMPDEST SWAP4 SWAP3 POP POP POP JUMP JUMPDEST PUSH1 0x0 DUP3 DUP3 MSTORE PUSH1 0x20 DUP3 ADD SWAP1 POP SWAP3 SWAP2 POP POP JUMP JUMPDEST PUSH32 0x4E6F7420617574686F72697A6564000000000000000000000000000000000000 PUSH1 0x0 DUP3 ADD MSTORE POP JUMP JUMPDEST PUSH1 0x0 PUSH2 0x1B4D PUSH1 0xE DUP4 PUSH2 0x1B06 JUMP JUMPDEST SWAP2 POP PUSH2 0x1B58 DUP3 PUSH2 0x1B17 JUMP JUMPDEST PUSH1 0x20 DUP3 ADD SWAP1 POP SWAP2 SWAP1 POP JUMP JUMPDEST PUSH1 0x0 PUSH1 0x20 DUP3 ADD SWAP1 POP DUP2 DUP2 SUB PUSH1 0x0 DUP4 ADD MSTORE PUSH2 0x1B7C DUP2 PUSH2 0x1B40 JUMP JUMPDEST SWAP1 POP SWAP2 SWAP1 POP JUMP JUMPDEST PUSH32 0x6572726F72303200000000000000000000000000000000000000000000000000 PUSH1 0x0 DUP3 ADD MSTORE POP JUMP JUMPDEST PUSH1 0x0 PUSH2 0x1BB9 PUSH1 0x7 DUP4 PUSH2 0x1B06 JUMP JUMPDEST SWAP2 POP PUSH2 0x1BC4 DUP3 PUSH2 0x1B83 JUMP JUMPDEST PUSH1 0x20 DUP3 ADD SWAP1 POP SWAP2 SWAP1 POP JUMP JUMPDEST PUSH1 0x0 PUSH1 0x20 DUP3 ADD SWAP1 POP DUP2 DUP2 SUB PUSH1 0x0 DUP4 ADD MSTORE PUSH2 0x1BE8 DUP2 PUSH2 0x1BAC JUMP JUMPDEST SWAP1 POP SWAP2 SWAP1 POP JUMP JUMPDEST PUSH32 0x6572726F72303300000000000000000000000000000000000000000000000000 PUSH1 0x0 DUP3 ADD MSTORE POP JUMP JUMPDEST PUSH1 0x0 PUSH2 0x1C25 PUSH1 0x7 DUP4 PUSH2 0x1B06 JUMP JUMPDEST SWAP2 POP PUSH2 0x1C30 DUP3 PUSH2 0x1BEF JUMP JUMPDEST PUSH1 0x20 DUP3 ADD SWAP1 POP SWAP2 SWAP1 POP JUMP JUMPDEST PUSH1 0x0 PUSH1 0x20 DUP3 ADD SWAP1 POP DUP2 DUP2 SUB PUSH1 0x0 DUP4 ADD MSTORE PUSH2 0x1C54 DUP2 PUSH2 0x1C18 JUMP JUMPDEST SWAP1 POP SWAP2 SWAP1 POP JUMP JUMPDEST PUSH32 0x6572726F72303500000000000000000000000000000000000000000000000000 PUSH1 0x0 DUP3 ADD MSTORE POP JUMP JUMPDEST PUSH1 0x0 PUSH2 0x1C91 PUSH1 0x7 DUP4 PUSH2 0x1B06 JUMP JUMPDEST SWAP2 POP PUSH2 0x1C9C DUP3 PUSH2 0x1C5B JUMP JUMPDEST PUSH1 0x20 DUP3 ADD SWAP1 POP SWAP2 SWAP1 POP JUMP JUMPDEST PUSH1 0x0 PUSH1 0x20 DUP3 ADD SWAP1 POP DUP2 DUP2 SUB PUSH1 0x0 DUP4 ADD MSTORE PUSH2 0x1CC0 DUP2 PUSH2 0x1C84 JUMP JUMPDEST SWAP1 POP SWAP2 SWAP1 POP JUMP JUMPDEST PUSH1 0x0 PUSH2 0x1CD2 DUP3 PUSH2 0x12E8 JUMP JUMPDEST SWAP2 POP PUSH2 0x1CDD DUP4 PUSH2 0x12E8 JUMP JUMPDEST SWAP3 POP DUP3 DUP3 SUB SWAP1 POP DUP2 DUP2 GT ISZERO PUSH2 0x1CF5 JUMPI PUSH2 0x1CF4 PUSH2 0x1A0E JUMP JUMPDEST JUMPDEST SWAP3 SWAP2 POP POP JUMP JUMPDEST PUSH32 0x6572726F72303700000000000000000000000000000000000000000000000000 PUSH1 0x0 DUP3 ADD MSTORE POP JUMP JUMPDEST PUSH1 0x0 PUSH2 0x1D31 PUSH1 0x7 DUP4 PUSH2 0x1B06 JUMP JUMPDEST SWAP2 POP PUSH2 0x1D3C DUP3 PUSH2 0x1CFB JUMP JUMPDEST PUSH1 0x20 DUP3 ADD SWAP1 POP SWAP2 SWAP1 POP JUMP JUMPDEST PUSH1 0x0 PUSH1 0x20 DUP3 ADD SWAP1 POP DUP2 DUP2 SUB PUSH1 0x0 DUP4 ADD MSTORE PUSH2 0x1D60 DUP2 PUSH2 0x1D24 JUMP JUMPDEST SWAP1 POP SWAP2 SWAP1 POP JUMP JUMPDEST PUSH1 0x0 PUSH1 0xA0 DUP3 ADD SWAP1 POP PUSH2 0x1D7C PUSH1 0x0 DUP4 ADD DUP9 PUSH2 0x1ACE JUMP JUMPDEST PUSH2 0x1D89 PUSH1 0x20 DUP4 ADD DUP8 PUSH2 0x12F2 JUMP JUMPDEST PUSH2 0x1D96 PUSH1 0x40 DUP4 ADD DUP7 PUSH2 0x1988 JUMP JUMPDEST PUSH2 0x1DA3 PUSH1 0x60 DUP4 ADD DUP6 PUSH2 0x12F2 JUMP JUMPDEST PUSH2 0x1DB0 PUSH1 0x80 DUP4 ADD DUP5 PUSH2 0x12F2 JUMP JUMPDEST SWAP7 SWAP6 POP POP POP POP POP POP JUMP JUMPDEST PUSH1 0x0 PUSH2 0x1DC5 DUP3 PUSH2 0x12E8 JUMP JUMPDEST SWAP2 POP PUSH2 0x1DD0 DUP4 PUSH2 0x12E8 JUMP JUMPDEST SWAP3 POP DUP3 DUP3 MUL PUSH2 0x1DDE DUP2 PUSH2 0x12E8 JUMP JUMPDEST SWAP2 POP DUP3 DUP3 DIV DUP5 EQ DUP4 ISZERO OR PUSH2 0x1DF5 JUMPI PUSH2 0x1DF4 PUSH2 0x1A0E JUMP JUMPDEST JUMPDEST POP SWAP3 SWAP2 POP POP JUMP JUMPDEST PUSH32 0x5369676E61747572657320746F6F2073686F7274000000000000000000000000 PUSH1 0x0 DUP3 ADD MSTORE POP JUMP JUMPDEST PUSH1 0x0 PUSH2 0x1E32 PUSH1 0x14 DUP4 PUSH2 0x1B06 JUMP JUMPDEST SWAP2 POP PUSH2 0x1E3D DUP3 PUSH2 0x1DFC JUMP JUMPDEST PUSH1 0x20 DUP3 ADD SWAP1 POP SWAP2 SWAP1 POP JUMP JUMPDEST PUSH1 0x0 PUSH1 0x20 DUP3 ADD SWAP1 POP DUP2 DUP2 SUB PUSH1 0x0 DUP4 ADD MSTORE PUSH2 0x1E61 DUP2 PUSH2 0x1E25 JUMP JUMPDEST SWAP1 POP SWAP2 SWAP1 POP JUMP JUMPDEST PUSH1 0x0 DUP2 SWAP1 POP SWAP3 SWAP2 POP POP JUMP JUMPDEST PUSH32 0x19457468657265756D205369676E6564204D6573736167653A0A333200000000 PUSH1 0x0 DUP3 ADD MSTORE POP JUMP JUMPDEST PUSH1 0x0 PUSH2 0x1EA9 PUSH1 0x1C DUP4 PUSH2 0x1E68 JUMP JUMPDEST SWAP2 POP PUSH2 0x1EB4 DUP3 PUSH2 0x1E73 JUMP JUMPDEST PUSH1 0x1C DUP3 ADD SWAP1 POP SWAP2 SWAP1 POP JUMP JUMPDEST PUSH1 0x0 DUP2 SWAP1 POP SWAP2 SWAP1 POP JUMP JUMPDEST PUSH2 0x1EDA PUSH2 0x1ED5 DUP3 PUSH2 0x1887 JUMP JUMPDEST PUSH2 0x1EBF JUMP JUMPDEST DUP3 MSTORE POP POP JUMP JUMPDEST PUSH1 0x0 PUSH2 0x1EEB DUP3 PUSH2 0x1E9C JUMP JUMPDEST SWAP2 POP PUSH2 0x1EF7 DUP3 DUP5 PUSH2 0x1EC9 JUMP JUMPDEST PUSH1 0x20 DUP3 ADD SWAP2 POP DUP2 SWAP1 POP SWAP3 SWAP2 POP POP JUMP JUMPDEST PUSH1 0x0 PUSH1 0xFF DUP3 AND SWAP1 POP SWAP2 SWAP1 POP JUMP JUMPDEST PUSH2 0x1F1C DUP2 PUSH2 0x1F06 JUMP JUMPDEST DUP3 MSTORE POP POP JUMP JUMPDEST PUSH1 0x0 PUSH1 0x80 DUP3 ADD SWAP1 POP PUSH2 0x1F37 PUSH1 0x0 DUP4 ADD DUP8 PUSH2 0x1988 JUMP JUMPDEST PUSH2 0x1F44 PUSH1 0x20 DUP4 ADD DUP7 PUSH2 0x1F13 JUMP JUMPDEST PUSH2 0x1F51 PUSH1 0x40 DUP4 ADD DUP6 PUSH2 0x1988 JUMP JUMPDEST PUSH2 0x1F5E PUSH1 0x60 DUP4 ADD DUP5 PUSH2 0x1988 JUMP JUMPDEST SWAP6 SWAP5 POP POP POP POP POP JUMP JUMPDEST PUSH32 0x6572726F72303600000000000000000000000000000000000000000000000000 PUSH1 0x0 DUP3 ADD MSTORE POP JUMP JUMPDEST PUSH1 0x0 PUSH2 0x1F9D PUSH1 0x7 DUP4 PUSH2 0x1B06 JUMP JUMPDEST SWAP2 POP PUSH2 0x1FA8 DUP3 PUSH2 0x1F67 JUMP JUMPDEST PUSH1 0x20 DUP3 ADD SWAP1 POP SWAP2 SWAP1 POP JUMP JUMPDEST PUSH1 0x0 PUSH1 0x20 DUP3 ADD SWAP1 POP DUP2 DUP2 SUB PUSH1 0x0 DUP4 ADD MSTORE PUSH2 0x1FCC DUP2 PUSH2 0x1F90 JUMP JUMPDEST SWAP1 POP SWAP2 SWAP1 POP JUMP JUMPDEST PUSH1 0x0 PUSH2 0x1FDE DUP3 PUSH2 0x12E8 JUMP JUMPDEST SWAP2 POP PUSH1 0x0 DUP3 SUB PUSH2 0x1FF1 JUMPI PUSH2 0x1FF0 PUSH2 0x1A0E JUMP JUMPDEST JUMPDEST PUSH1 0x1 DUP3 SUB SWAP1 POP SWAP2 SWAP1 POP JUMP INVALID LOG2 PUSH5 0x6970667358 0x22 SLT KECCAK256 0x2C CALLDATASIZE 0xC9 SHR GT 0xF9 0xE6 SWAP9 0xE4 0xC7 SWAP12 0xF9 MULMOD 0x22 0xE2 SWAP16 DUP5 TIMESTAMP CHAINID DUP11 STATICCALL KECCAK256 0xA9 PUSH31 0x9AD09CEDF9CAD27D64736F6C63430008120033000000000000000000000000 "
				},
				"gasEstimates": {
					"creation": {
						"codeDepositCost": "1648400",
						"executionCost": "infinite",
						"totalCost": "infinite"
					},
					"external": {
						"": "infinite",
						"addOwnersencode(address,uint256)": "infinite",
						"changeThreshold(uint256)": "infinite",
						"changeThresholdencode(uint256)": "infinite",
						"checkOwners()": "infinite",
						"checkSignature(bytes32,bytes)": "infinite",
						"checkThreshold()": "2460",
						"exertransact(address,uint256,bytes,bytes)": "infinite",
						"getTxhash(address,uint256,bytes)": "infinite",
						"nonce()": "2451",
						"ownerExist(address)": "5419",
						"owners_num()": "2452",
						"removeOwners(address,uint256)": "infinite",
						"removeOwnersencode(address,uint256)": "infinite"
					},
					"internal": {
						"encodetx(address,uint256,bytes memory,uint256,uint256)": "infinite",
						"signatureSplit(bytes memory,uint256)": "infinite",
						"startCheckSignature(bytes32,bytes memory,uint256)": "infinite"
					}
				},
				"methodIdentifiers": {
					"addOwnersencode(address,uint256)": "ff87578c",
					"changeThreshold(uint256)": "694e80c3",
					"changeThresholdencode(uint256)": "6876a95e",
					"checkOwners()": "029c81e3",
					"checkSignature(bytes32,bytes)": "831c9e2e",
					"checkThreshold()": "81244e5d",
					"exertransact(address,uint256,bytes,bytes)": "0fce747a",
					"getTxhash(address,uint256,bytes)": "8b30486c",
					"nonce()": "affed0e0",
					"ownerExist(address)": "ef11783c",
					"owners_num()": "0c3dfc1a",
					"removeOwners(address,uint256)": "c0f0b3f1",
					"removeOwnersencode(address,uint256)": "54910298"
				}
			},
			"storageLayout": {
				"storage": [
					{
						"astId": 15,
						"contract": "contracts/Try01/Simplewallet02.sol:Wallet",
						"label": "owners_num",
						"offset": 0,
						"slot": "0",
						"type": "t_uint256"
					},
					{
						"astId": 17,
						"contract": "contracts/Try01/Simplewallet02.sol:Wallet",
						"label": "threshold",
						"offset": 0,
						"slot": "1",
						"type": "t_uint256"
					},
					{
						"astId": 23,
						"contract": "contracts/Try01/Simplewallet02.sol:Wallet",
						"label": "owners",
						"offset": 0,
						"slot": "2",
						"type": "t_mapping(t_address,t_mapping(t_bool,t_address))"
					},
					{
						"astId": 710,
						"contract": "contracts/Try01/Simplewallet02.sol:Wallet",
						"label": "nonce",
						"offset": 0,
						"slot": "3",
						"type": "t_uint256"
					}
				],
				"types": {
					"t_address": {
						"encoding": "inplace",
						"label": "address",
						"numberOfBytes": "20"
					},
					"t_bool": {
						"encoding": "inplace",
						"label": "bool",
						"numberOfBytes": "1"
					},
					"t_mapping(t_address,t_mapping(t_bool,t_address))": {
						"encoding": "mapping",
						"key": "t_address",
						"label": "mapping(address => mapping(bool => address))",
						"numberOfBytes": "32",
						"value": "t_mapping(t_bool,t_address)"
					},
					"t_mapping(t_bool,t_address)": {
						"encoding": "mapping",
						"key": "t_bool",
						"label": "mapping(bool => address)",
						"numberOfBytes": "32",
						"value": "t_address"
					},
					"t_uint256": {
						"encoding": "inplace",
						"label": "uint256",
						"numberOfBytes": "32"
					}
				}
			},
			"userdoc": {
				"kind": "user",
				"methods": {},
				"version": 1
			}
		}
	}
}