{
	"contracts/Try01/Manage.sol": {
		"Manageowner": {
			"abi": [
				{
					"anonymous": false,
					"inputs": [
						{
							"indexed": true,
							"internalType": "address",
							"name": "owner",
							"type": "address"
						}
					],
					"name": "AddOwner",
					"type": "event"
				},
				{
					"anonymous": false,
					"inputs": [
						{
							"indexed": false,
							"internalType": "uint256",
							"name": "threshold",
							"type": "uint256"
						}
					],
					"name": "ChangeThreshold",
					"type": "event"
				},
				{
					"anonymous": false,
					"inputs": [
						{
							"indexed": true,
							"internalType": "address",
							"name": "preowner",
							"type": "address"
						}
					],
					"name": "RemoveOwner",
					"type": "event"
				},
				{
					"inputs": [
						{
							"internalType": "address",
							"name": "x",
							"type": "address"
						},
						{
							"internalType": "uint256",
							"name": "y",
							"type": "uint256"
						}
					],
					"name": "addOwnersencode",
					"outputs": [
						{
							"internalType": "bytes",
							"name": "result",
							"type": "bytes"
						}
					],
					"stateMutability": "pure",
					"type": "function"
				},
				{
					"inputs": [
						{
							"internalType": "uint256",
							"name": "new_threshold",
							"type": "uint256"
						}
					],
					"name": "changeThreshold",
					"outputs": [],
					"stateMutability": "nonpayable",
					"type": "function"
				},
				{
					"inputs": [
						{
							"internalType": "uint256",
							"name": "new_threshold",
							"type": "uint256"
						}
					],
					"name": "changeThresholdencode",
					"outputs": [
						{
							"internalType": "bytes",
							"name": "result",
							"type": "bytes"
						}
					],
					"stateMutability": "pure",
					"type": "function"
				},
				{
					"inputs": [],
					"name": "checkOwners",
					"outputs": [
						{
							"internalType": "address[]",
							"name": "",
							"type": "address[]"
						}
					],
					"stateMutability": "view",
					"type": "function"
				},
				{
					"inputs": [],
					"name": "checkThreshold",
					"outputs": [
						{
							"internalType": "uint256",
							"name": "",
							"type": "uint256"
						}
					],
					"stateMutability": "view",
					"type": "function"
				},
				{
					"inputs": [
						{
							"internalType": "address",
							"name": "_owner",
							"type": "address"
						}
					],
					"name": "ownerExist",
					"outputs": [
						{
							"internalType": "bool",
							"name": "",
							"type": "bool"
						}
					],
					"stateMutability": "view",
					"type": "function"
				},
				{
					"inputs": [],
					"name": "owners_num",
					"outputs": [
						{
							"internalType": "uint256",
							"name": "",
							"type": "uint256"
						}
					],
					"stateMutability": "view",
					"type": "function"
				},
				{
					"inputs": [
						{
							"internalType": "address",
							"name": "preowner",
							"type": "address"
						},
						{
							"internalType": "uint256",
							"name": "new_threshold",
							"type": "uint256"
						}
					],
					"name": "removeOwners",
					"outputs": [],
					"stateMutability": "nonpayable",
					"type": "function"
				},
				{
					"inputs": [
						{
							"internalType": "address",
							"name": "x",
							"type": "address"
						},
						{
							"internalType": "uint256",
							"name": "y",
							"type": "uint256"
						}
					],
					"name": "removeOwnersencode",
					"outputs": [
						{
							"internalType": "bytes",
							"name": "result",
							"type": "bytes"
						}
					],
					"stateMutability": "pure",
					"type": "function"
				}
			],
			"devdoc": {
				"kind": "dev",
				"methods": {},
				"version": 1
			},
			"evm": {
				"assembly": "    /* \"contracts/Try01/Manage.sol\":60:7166  contract Manageowner{... */\n  mstore(0x40, 0x80)\n  callvalue\n  dup1\n  iszero\n  tag_1\n  jumpi\n  0x00\n  dup1\n  revert\ntag_1:\n  pop\n  dataSize(sub_0)\n  dup1\n  dataOffset(sub_0)\n  0x00\n  codecopy\n  0x00\n  return\nstop\n\nsub_0: assembly {\n        /* \"contracts/Try01/Manage.sol\":60:7166  contract Manageowner{... */\n      mstore(0x40, 0x80)\n      callvalue\n      dup1\n      iszero\n      tag_1\n      jumpi\n      0x00\n      dup1\n      revert\n    tag_1:\n      pop\n      jumpi(tag_2, lt(calldatasize, 0x04))\n      shr(0xe0, calldataload(0x00))\n      dup1\n      0x694e80c3\n      gt\n      tag_12\n      jumpi\n      dup1\n      0x694e80c3\n      eq\n      tag_7\n      jumpi\n      dup1\n      0x81244e5d\n      eq\n      tag_8\n      jumpi\n      dup1\n      0xc0f0b3f1\n      eq\n      tag_9\n      jumpi\n      dup1\n      0xef11783c\n      eq\n      tag_10\n      jumpi\n      dup1\n      0xff87578c\n      eq\n      tag_11\n      jumpi\n      jump(tag_2)\n    tag_12:\n      dup1\n      0x029c81e3\n      eq\n      tag_3\n      jumpi\n      dup1\n      0x0c3dfc1a\n      eq\n      tag_4\n      jumpi\n      dup1\n      0x54910298\n      eq\n      tag_5\n      jumpi\n      dup1\n      0x6876a95e\n      eq\n      tag_6\n      jumpi\n    tag_2:\n      0x00\n      dup1\n      revert\n        /* \"contracts/Try01/Manage.sol\":3404:3807  function checkOwners()public view returns(address[] memory){... */\n    tag_3:\n      tag_13\n      tag_14\n      jump\t// in\n    tag_13:\n      mload(0x40)\n      tag_15\n      swap2\n      swap1\n      tag_16\n      jump\t// in\n    tag_15:\n      mload(0x40)\n      dup1\n      swap2\n      sub\n      swap1\n      return\n        /* \"contracts/Try01/Manage.sol\":260:285  uint256 public owners_num */\n    tag_4:\n      tag_17\n      tag_18\n      jump\t// in\n    tag_17:\n      mload(0x40)\n      tag_19\n      swap2\n      swap1\n      tag_20\n      jump\t// in\n    tag_19:\n      mload(0x40)\n      dup1\n      swap2\n      sub\n      swap1\n      return\n        /* \"contracts/Try01/Manage.sol\":6940:7161  function removeOwnersencode(address x, uint256 y) public pure returns(bytes memory result) {... */\n    tag_5:\n      tag_21\n      0x04\n      dup1\n      calldatasize\n      sub\n      dup2\n      add\n      swap1\n      tag_22\n      swap2\n      swap1\n      tag_23\n      jump\t// in\n    tag_22:\n      tag_24\n      jump\t// in\n    tag_21:\n      mload(0x40)\n      tag_25\n      swap2\n      swap1\n      tag_26\n      jump\t// in\n    tag_25:\n      mload(0x40)\n      dup1\n      swap2\n      sub\n      swap1\n      return\n        /* \"contracts/Try01/Manage.sol\":6434:6640  function changeThresholdencode(uint256 new_threshold) public pure returns(bytes memory result) {... */\n    tag_6:\n      tag_27\n      0x04\n      dup1\n      calldatasize\n      sub\n      dup2\n      add\n      swap1\n      tag_28\n      swap2\n      swap1\n      tag_29\n      jump\t// in\n    tag_28:\n      tag_30\n      jump\t// in\n    tag_27:\n      mload(0x40)\n      tag_31\n      swap2\n      swap1\n      tag_26\n      jump\t// in\n    tag_31:\n      mload(0x40)\n      dup1\n      swap2\n      sub\n      swap1\n      return\n        /* \"contracts/Try01/Manage.sol\":2902:3242  function changeThreshold(uint256 new_threshold)public signed{... */\n    tag_7:\n      tag_32\n      0x04\n      dup1\n      calldatasize\n      sub\n      dup2\n      add\n      swap1\n      tag_33\n      swap2\n      swap1\n      tag_29\n      jump\t// in\n    tag_33:\n      tag_34\n      jump\t// in\n    tag_32:\n      stop\n        /* \"contracts/Try01/Manage.sol\":3277:3365  function checkThreshold()public view returns(uint256){... */\n    tag_8:\n      tag_35\n      tag_36\n      jump\t// in\n    tag_35:\n      mload(0x40)\n      tag_37\n      swap2\n      swap1\n      tag_20\n      jump\t// in\n    tag_37:\n      mload(0x40)\n      dup1\n      swap2\n      sub\n      swap1\n      return\n        /* \"contracts/Try01/Manage.sol\":2368:2813  function removeOwners(address preowner, uint256 new_threshold)public signed{... */\n    tag_9:\n      tag_38\n      0x04\n      dup1\n      calldatasize\n      sub\n      dup2\n      add\n      swap1\n      tag_39\n      swap2\n      swap1\n      tag_23\n      jump\t// in\n    tag_39:\n      tag_40\n      jump\t// in\n    tag_38:\n      stop\n        /* \"contracts/Try01/Manage.sol\":5502:5655  function ownerExist(address _owner)public view returns (bool){... */\n    tag_10:\n      tag_41\n      0x04\n      dup1\n      calldatasize\n      sub\n      dup2\n      add\n      swap1\n      tag_42\n      swap2\n      swap1\n      tag_43\n      jump\t// in\n    tag_42:\n      tag_44\n      jump\t// in\n    tag_41:\n      mload(0x40)\n      tag_45\n      swap2\n      swap1\n      tag_46\n      jump\t// in\n    tag_45:\n      mload(0x40)\n      dup1\n      swap2\n      sub\n      swap1\n      return\n        /* \"contracts/Try01/Manage.sol\":6688:6890  function addOwnersencode(address x, uint256 y) public pure returns(bytes memory result) {... */\n    tag_11:\n      tag_47\n      0x04\n      dup1\n      calldatasize\n      sub\n      dup2\n      add\n      swap1\n      tag_48\n      swap2\n      swap1\n      tag_23\n      jump\t// in\n    tag_48:\n      tag_49\n      jump\t// in\n    tag_47:\n      mload(0x40)\n      tag_50\n      swap2\n      swap1\n      tag_26\n      jump\t// in\n    tag_50:\n      mload(0x40)\n      dup1\n      swap2\n      sub\n      swap1\n      return\n        /* \"contracts/Try01/Manage.sol\":3404:3807  function checkOwners()public view returns(address[] memory){... */\n    tag_14:\n        /* \"contracts/Try01/Manage.sol\":3446:3462  address[] memory */\n      0x60\n        /* \"contracts/Try01/Manage.sol\":3474:3496  address[] memory array */\n      0x00\n        /* \"contracts/Try01/Manage.sol\":3513:3523  owners_num */\n      dup1\n      sload\n        /* \"contracts/Try01/Manage.sol\":3499:3524  new address[](owners_num) */\n      0xffffffffffffffff\n      dup2\n      gt\n      iszero\n      tag_52\n      jumpi\n      tag_53\n      tag_54\n      jump\t// in\n    tag_53:\n    tag_52:\n      mload(0x40)\n      swap1\n      dup1\n      dup3\n      mstore\n      dup1\n      0x20\n      mul\n      0x20\n      add\n      dup3\n      add\n      0x40\n      mstore\n      dup1\n      iszero\n      tag_55\n      jumpi\n      dup2\n      0x20\n      add\n      0x20\n      dup3\n      mul\n      dup1\n      calldatasize\n      dup4\n      calldatacopy\n      dup1\n      dup3\n      add\n      swap2\n      pop\n      pop\n      swap1\n      pop\n    tag_55:\n      pop\n        /* \"contracts/Try01/Manage.sol\":3474:3524  address[] memory array = new address[](owners_num) */\n      swap1\n      pop\n        /* \"contracts/Try01/Manage.sol\":3535:3555  address currentowner */\n      0x00\n        /* \"contracts/Try01/Manage.sol\":3558:3564  owners */\n      0x02\n        /* \"contracts/Try01/Manage.sol\":3558:3571  owners[_HEAD] */\n      0x00\n        /* \"contracts/Try01/Manage.sol\":707:710  0x1 */\n      0x01\n        /* \"contracts/Try01/Manage.sol\":3558:3571  owners[_HEAD] */\n      0xffffffffffffffffffffffffffffffffffffffff\n      and\n      0xffffffffffffffffffffffffffffffffffffffff\n      and\n      dup2\n      mstore\n      0x20\n      add\n      swap1\n      dup2\n      mstore\n      0x20\n      add\n      0x00\n      keccak256\n        /* \"contracts/Try01/Manage.sol\":3558:3578  owners[_HEAD][_NEXT] */\n      0x00\n        /* \"contracts/Try01/Manage.sol\":558:562  true */\n      0x01\n        /* \"contracts/Try01/Manage.sol\":3558:3578  owners[_HEAD][_NEXT] */\n      iszero\n      iszero\n      iszero\n      iszero\n      dup2\n      mstore\n      0x20\n      add\n      swap1\n      dup2\n      mstore\n      0x20\n      add\n      0x00\n      keccak256\n      0x00\n      swap1\n      sload\n      swap1\n      0x0100\n      exp\n      swap1\n      div\n      0xffffffffffffffffffffffffffffffffffffffff\n      and\n        /* \"contracts/Try01/Manage.sol\":3535:3578  address currentowner = owners[_HEAD][_NEXT] */\n      swap1\n      pop\n        /* \"contracts/Try01/Manage.sol\":3589:3602  uint256 index */\n      0x00\n        /* \"contracts/Try01/Manage.sol\":3617:3777  for (index=0; index < owners_num; index++){... */\n    tag_56:\n        /* \"contracts/Try01/Manage.sol\":3639:3649  owners_num */\n      sload(0x00)\n        /* \"contracts/Try01/Manage.sol\":3631:3636  index */\n      dup2\n        /* \"contracts/Try01/Manage.sol\":3631:3649  index < owners_num */\n      lt\n        /* \"contracts/Try01/Manage.sol\":3617:3777  for (index=0; index < owners_num; index++){... */\n      iszero\n      tag_57\n      jumpi\n        /* \"contracts/Try01/Manage.sol\":3689:3701  currentowner */\n      dup2\n        /* \"contracts/Try01/Manage.sol\":3674:3679  array */\n      dup4\n        /* \"contracts/Try01/Manage.sol\":3680:3685  index */\n      dup3\n        /* \"contracts/Try01/Manage.sol\":3674:3686  array[index] */\n      dup2\n      mload\n      dup2\n      lt\n      tag_59\n      jumpi\n      tag_60\n      tag_61\n      jump\t// in\n    tag_60:\n    tag_59:\n      0x20\n      mul\n      0x20\n      add\n      add\n        /* \"contracts/Try01/Manage.sol\":3674:3701  array[index] = currentowner */\n      swap1\n      0xffffffffffffffffffffffffffffffffffffffff\n      and\n      swap1\n      dup2\n      0xffffffffffffffffffffffffffffffffffffffff\n      and\n      dup2\n      mstore\n      pop\n      pop\n        /* \"contracts/Try01/Manage.sol\":3734:3765  getAdjacent(currentowner,_NEXT) */\n      tag_62\n        /* \"contracts/Try01/Manage.sol\":3746:3758  currentowner */\n      dup3\n        /* \"contracts/Try01/Manage.sol\":558:562  true */\n      0x01\n        /* \"contracts/Try01/Manage.sol\":3734:3745  getAdjacent */\n      tag_63\n        /* \"contracts/Try01/Manage.sol\":3734:3765  getAdjacent(currentowner,_NEXT) */\n      jump\t// in\n    tag_62:\n        /* \"contracts/Try01/Manage.sol\":3716:3765  (,currentowner) = getAdjacent(currentowner,_NEXT) */\n      swap1\n      pop\n      dup1\n      swap3\n      pop\n      pop\n        /* \"contracts/Try01/Manage.sol\":3651:3658  index++ */\n      dup1\n      dup1\n      tag_64\n      swap1\n      tag_65\n      jump\t// in\n    tag_64:\n      swap2\n      pop\n      pop\n        /* \"contracts/Try01/Manage.sol\":3617:3777  for (index=0; index < owners_num; index++){... */\n      jump(tag_56)\n    tag_57:\n        /* \"contracts/Try01/Manage.sol\":3794:3799  array */\n      dup3\n        /* \"contracts/Try01/Manage.sol\":3787:3799  return array */\n      swap4\n      pop\n      pop\n      pop\n      pop\n        /* \"contracts/Try01/Manage.sol\":3404:3807  function checkOwners()public view returns(address[] memory){... */\n      swap1\n      jump\t// out\n        /* \"contracts/Try01/Manage.sol\":260:285  uint256 public owners_num */\n    tag_18:\n      sload(0x00)\n      dup2\n      jump\t// out\n        /* \"contracts/Try01/Manage.sol\":6940:7161  function removeOwnersencode(address x, uint256 y) public pure returns(bytes memory result) {... */\n    tag_24:\n        /* \"contracts/Try01/Manage.sol\":7010:7029  bytes memory result */\n      0x60\n        /* \"contracts/Try01/Manage.sol\":7080:7122  keccak256(\"removeOwners(address,uint256)\") */\n      0xc0f0b3f17d4cd2b558f2e7888914cd773111e1da10e55baf4d1f32e1f6c2222f\n        /* \"contracts/Try01/Manage.sol\":7125:7126  x */\n      dup4\n        /* \"contracts/Try01/Manage.sol\":7127:7128  y */\n      dup4\n        /* \"contracts/Try01/Manage.sol\":7050:7129  abi.encodeWithSelector(bytes4(keccak256(\"removeOwners(address,uint256)\")), x,y) */\n      add(0x24, mload(0x40))\n      tag_67\n      swap3\n      swap2\n      swap1\n      tag_68\n      jump\t// in\n    tag_67:\n      mload(0x40)\n      0x20\n      dup2\n      dup4\n      sub\n      sub\n      dup2\n      mstore\n      swap1\n      0x40\n      mstore\n      swap1\n      not(0xffffffffffffffffffffffffffffffffffffffffffffffffffffffff)\n      and\n      0x20\n      dup3\n      add\n      dup1\n      mload\n      0xffffffffffffffffffffffffffffffffffffffffffffffffffffffff\n      dup4\n      dup2\n      dup4\n      and\n      or\n      dup4\n      mstore\n      pop\n      pop\n      pop\n      pop\n        /* \"contracts/Try01/Manage.sol\":7042:7129  result =abi.encodeWithSelector(bytes4(keccak256(\"removeOwners(address,uint256)\")), x,y) */\n      swap1\n      pop\n        /* \"contracts/Try01/Manage.sol\":6940:7161  function removeOwnersencode(address x, uint256 y) public pure returns(bytes memory result) {... */\n      swap3\n      swap2\n      pop\n      pop\n      jump\t// out\n        /* \"contracts/Try01/Manage.sol\":6434:6640  function changeThresholdencode(uint256 new_threshold) public pure returns(bytes memory result) {... */\n    tag_30:\n        /* \"contracts/Try01/Manage.sol\":6508:6527  bytes memory result */\n      0x60\n        /* \"contracts/Try01/Manage.sol\":6578:6615  keccak256(\"changeThreshold(uint256)\") */\n      0x694e80c37192d74d6099f3d3b41506932ab644a24442ee51857cfeb9eb01ac2f\n        /* \"contracts/Try01/Manage.sol\":6618:6631  new_threshold */\n      dup3\n        /* \"contracts/Try01/Manage.sol\":6548:6632  abi.encodeWithSelector(bytes4(keccak256(\"changeThreshold(uint256)\")), new_threshold) */\n      add(0x24, mload(0x40))\n      tag_70\n      swap2\n      swap1\n      tag_20\n      jump\t// in\n    tag_70:\n      mload(0x40)\n      0x20\n      dup2\n      dup4\n      sub\n      sub\n      dup2\n      mstore\n      swap1\n      0x40\n      mstore\n      swap1\n      not(0xffffffffffffffffffffffffffffffffffffffffffffffffffffffff)\n      and\n      0x20\n      dup3\n      add\n      dup1\n      mload\n      0xffffffffffffffffffffffffffffffffffffffffffffffffffffffff\n      dup4\n      dup2\n      dup4\n      and\n      or\n      dup4\n      mstore\n      pop\n      pop\n      pop\n      pop\n        /* \"contracts/Try01/Manage.sol\":6540:6632  result =abi.encodeWithSelector(bytes4(keccak256(\"changeThreshold(uint256)\")), new_threshold) */\n      swap1\n      pop\n        /* \"contracts/Try01/Manage.sol\":6434:6640  function changeThresholdencode(uint256 new_threshold) public pure returns(bytes memory result) {... */\n      swap2\n      swap1\n      pop\n      jump\t// out\n        /* \"contracts/Try01/Manage.sol\":2902:3242  function changeThreshold(uint256 new_threshold)public signed{... */\n    tag_34:\n        /* \"contracts/Try01/Manage.sol\":6341:6345  this */\n      address\n        /* \"contracts/Try01/Manage.sol\":6321:6346  msg.sender==address(this) */\n      0xffffffffffffffffffffffffffffffffffffffff\n      and\n        /* \"contracts/Try01/Manage.sol\":6321:6331  msg.sender */\n      caller\n        /* \"contracts/Try01/Manage.sol\":6321:6346  msg.sender==address(this) */\n      0xffffffffffffffffffffffffffffffffffffffff\n      and\n      eq\n        /* \"contracts/Try01/Manage.sol\":6313:6364  require(msg.sender==address(this),\"Not authorized\") */\n      tag_72\n      jumpi\n      mload(0x40)\n      0x08c379a000000000000000000000000000000000000000000000000000000000\n      dup2\n      mstore\n      0x04\n      add\n      tag_73\n      swap1\n      tag_74\n      jump\t// in\n    tag_73:\n      mload(0x40)\n      dup1\n      swap2\n      sub\n      swap1\n      revert\n    tag_72:\n        /* \"contracts/Try01/Manage.sol\":3047:3057  owners_num */\n      sload(0x00)\n        /* \"contracts/Try01/Manage.sol\":3030:3043  new_threshold */\n      dup2\n        /* \"contracts/Try01/Manage.sol\":3030:3057  new_threshold <= owners_num */\n      gt\n      iszero\n        /* \"contracts/Try01/Manage.sol\":3022:3069  require(new_threshold <= owners_num, \"error02\") */\n      tag_76\n      jumpi\n      mload(0x40)\n      0x08c379a000000000000000000000000000000000000000000000000000000000\n      dup2\n      mstore\n      0x04\n      add\n      tag_77\n      swap1\n      tag_78\n      jump\t// in\n    tag_77:\n      mload(0x40)\n      dup1\n      swap2\n      sub\n      swap1\n      revert\n    tag_76:\n        /* \"contracts/Try01/Manage.sol\":3143:3144  1 */\n      0x01\n        /* \"contracts/Try01/Manage.sol\":3126:3139  new_threshold */\n      dup2\n        /* \"contracts/Try01/Manage.sol\":3126:3144  new_threshold >= 1 */\n      lt\n      iszero\n        /* \"contracts/Try01/Manage.sol\":3118:3156  require(new_threshold >= 1, \"error03\") */\n      tag_79\n      jumpi\n      mload(0x40)\n      0x08c379a000000000000000000000000000000000000000000000000000000000\n      dup2\n      mstore\n      0x04\n      add\n      tag_80\n      swap1\n      tag_81\n      jump\t// in\n    tag_80:\n      mload(0x40)\n      dup1\n      swap2\n      sub\n      swap1\n      revert\n    tag_79:\n        /* \"contracts/Try01/Manage.sol\":3179:3192  new_threshold */\n      dup1\n        /* \"contracts/Try01/Manage.sol\":3167:3176  threshold */\n      0x01\n        /* \"contracts/Try01/Manage.sol\":3167:3192  threshold = new_threshold */\n      dup2\n      swap1\n      sstore\n      pop\n        /* \"contracts/Try01/Manage.sol\":3208:3234  ChangeThreshold(threshold) */\n      0x9947ac58e204d2da07b9748298663b3b77da7fb0638201d778987ded7c90fbaa\n        /* \"contracts/Try01/Manage.sol\":3224:3233  threshold */\n      sload(0x01)\n        /* \"contracts/Try01/Manage.sol\":3208:3234  ChangeThreshold(threshold) */\n      mload(0x40)\n      tag_82\n      swap2\n      swap1\n      tag_20\n      jump\t// in\n    tag_82:\n      mload(0x40)\n      dup1\n      swap2\n      sub\n      swap1\n      log1\n        /* \"contracts/Try01/Manage.sol\":2902:3242  function changeThreshold(uint256 new_threshold)public signed{... */\n      pop\n      jump\t// out\n        /* \"contracts/Try01/Manage.sol\":3277:3365  function checkThreshold()public view returns(uint256){... */\n    tag_36:\n        /* \"contracts/Try01/Manage.sol\":3322:3329  uint256 */\n      0x00\n        /* \"contracts/Try01/Manage.sol\":3348:3357  threshold */\n      sload(0x01)\n        /* \"contracts/Try01/Manage.sol\":3341:3357  return threshold */\n      swap1\n      pop\n        /* \"contracts/Try01/Manage.sol\":3277:3365  function checkThreshold()public view returns(uint256){... */\n      swap1\n      jump\t// out\n        /* \"contracts/Try01/Manage.sol\":2368:2813  function removeOwners(address preowner, uint256 new_threshold)public signed{... */\n    tag_40:\n        /* \"contracts/Try01/Manage.sol\":6341:6345  this */\n      address\n        /* \"contracts/Try01/Manage.sol\":6321:6346  msg.sender==address(this) */\n      0xffffffffffffffffffffffffffffffffffffffff\n      and\n        /* \"contracts/Try01/Manage.sol\":6321:6331  msg.sender */\n      caller\n        /* \"contracts/Try01/Manage.sol\":6321:6346  msg.sender==address(this) */\n      0xffffffffffffffffffffffffffffffffffffffff\n      and\n      eq\n        /* \"contracts/Try01/Manage.sol\":6313:6364  require(msg.sender==address(this),\"Not authorized\") */\n      tag_85\n      jumpi\n      mload(0x40)\n      0x08c379a000000000000000000000000000000000000000000000000000000000\n      dup2\n      mstore\n      0x04\n      add\n      tag_86\n      swap1\n      tag_74\n      jump\t// in\n    tag_86:\n      mload(0x40)\n      dup1\n      swap2\n      sub\n      swap1\n      revert\n    tag_85:\n        /* \"contracts/Try01/Manage.sol\":2522:2535  new_threshold */\n      dup1\n        /* \"contracts/Try01/Manage.sol\":2518:2519  1 */\n      0x01\n        /* \"contracts/Try01/Manage.sol\":2505:2515  owners_num */\n      sload(0x00)\n        /* \"contracts/Try01/Manage.sol\":2505:2519  owners_num - 1 */\n      tag_88\n      swap2\n      swap1\n      tag_89\n      jump\t// in\n    tag_88:\n        /* \"contracts/Try01/Manage.sol\":2505:2535  owners_num - 1 >=new_threshold */\n      lt\n      iszero\n        /* \"contracts/Try01/Manage.sol\":2497:2546  require(owners_num - 1 >=new_threshold,\"error02\") */\n      tag_90\n      jumpi\n      mload(0x40)\n      0x08c379a000000000000000000000000000000000000000000000000000000000\n      dup2\n      mstore\n      0x04\n      add\n      tag_91\n      swap1\n      tag_78\n      jump\t// in\n    tag_91:\n      mload(0x40)\n      dup1\n      swap2\n      sub\n      swap1\n      revert\n    tag_90:\n        /* \"contracts/Try01/Manage.sol\":2605:2625  ownerExist(preowner) */\n      tag_92\n        /* \"contracts/Try01/Manage.sol\":2616:2624  preowner */\n      dup3\n        /* \"contracts/Try01/Manage.sol\":2605:2615  ownerExist */\n      tag_44\n        /* \"contracts/Try01/Manage.sol\":2605:2625  ownerExist(preowner) */\n      jump\t// in\n    tag_92:\n        /* \"contracts/Try01/Manage.sol\":2597:2636  require(ownerExist(preowner),\"error07\") */\n      tag_93\n      jumpi\n      mload(0x40)\n      0x08c379a000000000000000000000000000000000000000000000000000000000\n      dup2\n      mstore\n      0x04\n      add\n      tag_94\n      swap1\n      tag_95\n      jump\t// in\n    tag_94:\n      mload(0x40)\n      dup1\n      swap2\n      sub\n      swap1\n      revert\n    tag_93:\n        /* \"contracts/Try01/Manage.sol\":2675:2696  removeowner(preowner) */\n      tag_96\n        /* \"contracts/Try01/Manage.sol\":2687:2695  preowner */\n      dup3\n        /* \"contracts/Try01/Manage.sol\":2675:2686  removeowner */\n      tag_97\n        /* \"contracts/Try01/Manage.sol\":2675:2696  removeowner(preowner) */\n      jump\t// in\n    tag_96:\n        /* \"contracts/Try01/Manage.sol\":2724:2732  preowner */\n      dup2\n        /* \"contracts/Try01/Manage.sol\":2712:2733  RemoveOwner(preowner) */\n      0xffffffffffffffffffffffffffffffffffffffff\n      and\n      0xac6e8398676cf37429d530b81144d7079e99f4fe9d28b0d88c4a749ceccbe8cd\n      mload(0x40)\n      mload(0x40)\n      dup1\n      swap2\n      sub\n      swap1\n      log2\n        /* \"contracts/Try01/Manage.sol\":2764:2773  threshold */\n      sload(0x01)\n        /* \"contracts/Try01/Manage.sol\":2747:2760  new_threshold */\n      dup2\n        /* \"contracts/Try01/Manage.sol\":2747:2773  new_threshold != threshold */\n      eq\n        /* \"contracts/Try01/Manage.sol\":2744:2805  if(new_threshold != threshold) changeThreshold(new_threshold) */\n      tag_98\n      jumpi\n        /* \"contracts/Try01/Manage.sol\":2775:2805  changeThreshold(new_threshold) */\n      tag_99\n        /* \"contracts/Try01/Manage.sol\":2791:2804  new_threshold */\n      dup2\n        /* \"contracts/Try01/Manage.sol\":2775:2790  changeThreshold */\n      tag_34\n        /* \"contracts/Try01/Manage.sol\":2775:2805  changeThreshold(new_threshold) */\n      jump\t// in\n    tag_99:\n        /* \"contracts/Try01/Manage.sol\":2744:2805  if(new_threshold != threshold) changeThreshold(new_threshold) */\n    tag_98:\n        /* \"contracts/Try01/Manage.sol\":2368:2813  function removeOwners(address preowner, uint256 new_threshold)public signed{... */\n      pop\n      pop\n      jump\t// out\n        /* \"contracts/Try01/Manage.sol\":5502:5655  function ownerExist(address _owner)public view returns (bool){... */\n    tag_44:\n        /* \"contracts/Try01/Manage.sol\":5558:5562  bool */\n      0x00\n        /* \"contracts/Try01/Manage.sol\":656:657  0 */\n      dup1\n        /* \"contracts/Try01/Manage.sol\":5582:5611  owners[_owner][_PRE] != _NULL */\n      0xffffffffffffffffffffffffffffffffffffffff\n      and\n        /* \"contracts/Try01/Manage.sol\":5582:5588  owners */\n      0x02\n        /* \"contracts/Try01/Manage.sol\":5582:5596  owners[_owner] */\n      0x00\n        /* \"contracts/Try01/Manage.sol\":5589:5595  _owner */\n      dup5\n        /* \"contracts/Try01/Manage.sol\":5582:5596  owners[_owner] */\n      0xffffffffffffffffffffffffffffffffffffffff\n      and\n      0xffffffffffffffffffffffffffffffffffffffff\n      and\n      dup2\n      mstore\n      0x20\n      add\n      swap1\n      dup2\n      mstore\n      0x20\n      add\n      0x00\n      keccak256\n        /* \"contracts/Try01/Manage.sol\":5582:5602  owners[_owner][_PRE] */\n      0x00\n        /* \"contracts/Try01/Manage.sol\":515:520  false */\n      dup1\n        /* \"contracts/Try01/Manage.sol\":5582:5602  owners[_owner][_PRE] */\n      iszero\n      iszero\n      iszero\n      iszero\n      dup2\n      mstore\n      0x20\n      add\n      swap1\n      dup2\n      mstore\n      0x20\n      add\n      0x00\n      keccak256\n      0x00\n      swap1\n      sload\n      swap1\n      0x0100\n      exp\n      swap1\n      div\n      0xffffffffffffffffffffffffffffffffffffffff\n      and\n        /* \"contracts/Try01/Manage.sol\":5582:5611  owners[_owner][_PRE] != _NULL */\n      0xffffffffffffffffffffffffffffffffffffffff\n      and\n      eq\n      iszero\n        /* \"contracts/Try01/Manage.sol\":5582:5645  owners[_owner][_PRE] != _NULL || owners[_owner][_NEXT] != _NULL */\n      dup1\n      tag_101\n      jumpi\n      pop\n        /* \"contracts/Try01/Manage.sol\":656:657  0 */\n      0x00\n        /* \"contracts/Try01/Manage.sol\":5615:5645  owners[_owner][_NEXT] != _NULL */\n      0xffffffffffffffffffffffffffffffffffffffff\n      and\n        /* \"contracts/Try01/Manage.sol\":5615:5621  owners */\n      0x02\n        /* \"contracts/Try01/Manage.sol\":5615:5629  owners[_owner] */\n      0x00\n        /* \"contracts/Try01/Manage.sol\":5622:5628  _owner */\n      dup5\n        /* \"contracts/Try01/Manage.sol\":5615:5629  owners[_owner] */\n      0xffffffffffffffffffffffffffffffffffffffff\n      and\n      0xffffffffffffffffffffffffffffffffffffffff\n      and\n      dup2\n      mstore\n      0x20\n      add\n      swap1\n      dup2\n      mstore\n      0x20\n      add\n      0x00\n      keccak256\n        /* \"contracts/Try01/Manage.sol\":5615:5636  owners[_owner][_NEXT] */\n      0x00\n        /* \"contracts/Try01/Manage.sol\":558:562  true */\n      0x01\n        /* \"contracts/Try01/Manage.sol\":5615:5636  owners[_owner][_NEXT] */\n      iszero\n      iszero\n      iszero\n      iszero\n      dup2\n      mstore\n      0x20\n      add\n      swap1\n      dup2\n      mstore\n      0x20\n      add\n      0x00\n      keccak256\n      0x00\n      swap1\n      sload\n      swap1\n      0x0100\n      exp\n      swap1\n      div\n      0xffffffffffffffffffffffffffffffffffffffff\n      and\n        /* \"contracts/Try01/Manage.sol\":5615:5645  owners[_owner][_NEXT] != _NULL */\n      0xffffffffffffffffffffffffffffffffffffffff\n      and\n      eq\n      iszero\n        /* \"contracts/Try01/Manage.sol\":5582:5645  owners[_owner][_PRE] != _NULL || owners[_owner][_NEXT] != _NULL */\n    tag_101:\n        /* \"contracts/Try01/Manage.sol\":5574:5646  return (owners[_owner][_PRE] != _NULL || owners[_owner][_NEXT] != _NULL) */\n      swap1\n      pop\n        /* \"contracts/Try01/Manage.sol\":5502:5655  function ownerExist(address _owner)public view returns (bool){... */\n      swap2\n      swap1\n      pop\n      jump\t// out\n        /* \"contracts/Try01/Manage.sol\":6688:6890  function addOwnersencode(address x, uint256 y) public pure returns(bytes memory result) {... */\n    tag_49:\n        /* \"contracts/Try01/Manage.sol\":6755:6774  bytes memory result */\n      0x60\n        /* \"contracts/Try01/Manage.sol\":6825:6876  keccak256(\"addOwnersAndThreshold(address,uint256)\") */\n      0x0c54620469a3eeff8e01e9971bcf46e640abbf3fa3139aa3afa97959f3d74499\n        /* \"contracts/Try01/Manage.sol\":6878:6879  x */\n      dup4\n        /* \"contracts/Try01/Manage.sol\":6880:6881  y */\n      dup4\n        /* \"contracts/Try01/Manage.sol\":6795:6882  abi.encodeWithSelector(bytes4(keccak256(\"addOwnersAndThreshold(address,uint256)\")),x,y) */\n      add(0x24, mload(0x40))\n      tag_103\n      swap3\n      swap2\n      swap1\n      tag_68\n      jump\t// in\n    tag_103:\n      mload(0x40)\n      0x20\n      dup2\n      dup4\n      sub\n      sub\n      dup2\n      mstore\n      swap1\n      0x40\n      mstore\n      swap1\n      not(0xffffffffffffffffffffffffffffffffffffffffffffffffffffffff)\n      and\n      0x20\n      dup3\n      add\n      dup1\n      mload\n      0xffffffffffffffffffffffffffffffffffffffffffffffffffffffff\n      dup4\n      dup2\n      dup4\n      and\n      or\n      dup4\n      mstore\n      pop\n      pop\n      pop\n      pop\n        /* \"contracts/Try01/Manage.sol\":6787:6882  result =abi.encodeWithSelector(bytes4(keccak256(\"addOwnersAndThreshold(address,uint256)\")),x,y) */\n      swap1\n      pop\n        /* \"contracts/Try01/Manage.sol\":6688:6890  function addOwnersencode(address x, uint256 y) public pure returns(bytes memory result) {... */\n      swap3\n      swap2\n      pop\n      pop\n      jump\t// out\n        /* \"contracts/Try01/Manage.sol\":5921:6174  function getAdjacent(address owner, bool _direction)internal view returns (bool, address) {... */\n    tag_63:\n        /* \"contracts/Try01/Manage.sol\":5996:6000  bool */\n      0x00\n        /* \"contracts/Try01/Manage.sol\":6002:6009  address */\n      dup1\n        /* \"contracts/Try01/Manage.sol\":6027:6044  ownerExist(owner) */\n      tag_105\n        /* \"contracts/Try01/Manage.sol\":6038:6043  owner */\n      dup5\n        /* \"contracts/Try01/Manage.sol\":6027:6037  ownerExist */\n      tag_44\n        /* \"contracts/Try01/Manage.sol\":6027:6044  ownerExist(owner) */\n      jump\t// in\n    tag_105:\n        /* \"contracts/Try01/Manage.sol\":6022:6167  if (!ownerExist(owner)) {... */\n      tag_106\n      jumpi\n        /* \"contracts/Try01/Manage.sol\":6069:6074  false */\n      0x00\n        /* \"contracts/Try01/Manage.sol\":656:657  0 */\n      dup1\n        /* \"contracts/Try01/Manage.sol\":6061:6082  return (false, _NULL) */\n      swap2\n      pop\n      swap2\n      pop\n      jump(tag_104)\n        /* \"contracts/Try01/Manage.sol\":6022:6167  if (!ownerExist(owner)) {... */\n    tag_106:\n        /* \"contracts/Try01/Manage.sol\":6123:6127  true */\n      0x01\n        /* \"contracts/Try01/Manage.sol\":6129:6135  owners */\n      0x02\n        /* \"contracts/Try01/Manage.sol\":6129:6142  owners[owner] */\n      0x00\n        /* \"contracts/Try01/Manage.sol\":6136:6141  owner */\n      dup7\n        /* \"contracts/Try01/Manage.sol\":6129:6142  owners[owner] */\n      0xffffffffffffffffffffffffffffffffffffffff\n      and\n      0xffffffffffffffffffffffffffffffffffffffff\n      and\n      dup2\n      mstore\n      0x20\n      add\n      swap1\n      dup2\n      mstore\n      0x20\n      add\n      0x00\n      keccak256\n        /* \"contracts/Try01/Manage.sol\":6129:6154  owners[owner][_direction] */\n      0x00\n        /* \"contracts/Try01/Manage.sol\":6143:6153  _direction */\n      dup6\n        /* \"contracts/Try01/Manage.sol\":6129:6154  owners[owner][_direction] */\n      iszero\n      iszero\n      iszero\n      iszero\n      dup2\n      mstore\n      0x20\n      add\n      swap1\n      dup2\n      mstore\n      0x20\n      add\n      0x00\n      keccak256\n      0x00\n      swap1\n      sload\n      swap1\n      0x0100\n      exp\n      swap1\n      div\n      0xffffffffffffffffffffffffffffffffffffffff\n      and\n        /* \"contracts/Try01/Manage.sol\":6115:6155  return (true, owners[owner][_direction]) */\n      swap2\n      pop\n      swap2\n      pop\n        /* \"contracts/Try01/Manage.sol\":5921:6174  function getAdjacent(address owner, bool _direction)internal view returns (bool, address) {... */\n    tag_104:\n      swap3\n      pop\n      swap3\n      swap1\n      pop\n      jump\t// out\n        /* \"contracts/Try01/Manage.sol\":4877:5164  function removeowner(address preowner)internal {... */\n    tag_97:\n        /* \"contracts/Try01/Manage.sol\":4943:4963  ownerExist(preowner) */\n      tag_109\n        /* \"contracts/Try01/Manage.sol\":4954:4962  preowner */\n      dup2\n        /* \"contracts/Try01/Manage.sol\":4943:4953  ownerExist */\n      tag_44\n        /* \"contracts/Try01/Manage.sol\":4943:4963  ownerExist(preowner) */\n      jump\t// in\n    tag_109:\n        /* \"contracts/Try01/Manage.sol\":4935:4974  require(ownerExist(preowner),\"error07\") */\n      tag_110\n      jumpi\n      mload(0x40)\n      0x08c379a000000000000000000000000000000000000000000000000000000000\n      dup2\n      mstore\n      0x04\n      add\n      tag_111\n      swap1\n      tag_95\n      jump\t// in\n    tag_111:\n      mload(0x40)\n      dup1\n      swap2\n      sub\n      swap1\n      revert\n    tag_110:\n        /* \"contracts/Try01/Manage.sol\":4985:5052  _createLink(owners[preowner][_PRE], owners[preowner][_NEXT], _NEXT) */\n      tag_112\n        /* \"contracts/Try01/Manage.sol\":4997:5003  owners */\n      0x02\n        /* \"contracts/Try01/Manage.sol\":4997:5013  owners[preowner] */\n      0x00\n        /* \"contracts/Try01/Manage.sol\":5004:5012  preowner */\n      dup4\n        /* \"contracts/Try01/Manage.sol\":4997:5013  owners[preowner] */\n      0xffffffffffffffffffffffffffffffffffffffff\n      and\n      0xffffffffffffffffffffffffffffffffffffffff\n      and\n      dup2\n      mstore\n      0x20\n      add\n      swap1\n      dup2\n      mstore\n      0x20\n      add\n      0x00\n      keccak256\n        /* \"contracts/Try01/Manage.sol\":4997:5019  owners[preowner][_PRE] */\n      0x00\n        /* \"contracts/Try01/Manage.sol\":515:520  false */\n      dup1\n        /* \"contracts/Try01/Manage.sol\":4997:5019  owners[preowner][_PRE] */\n      iszero\n      iszero\n      iszero\n      iszero\n      dup2\n      mstore\n      0x20\n      add\n      swap1\n      dup2\n      mstore\n      0x20\n      add\n      0x00\n      keccak256\n      0x00\n      swap1\n      sload\n      swap1\n      0x0100\n      exp\n      swap1\n      div\n      0xffffffffffffffffffffffffffffffffffffffff\n      and\n        /* \"contracts/Try01/Manage.sol\":5021:5027  owners */\n      0x02\n        /* \"contracts/Try01/Manage.sol\":5021:5037  owners[preowner] */\n      0x00\n        /* \"contracts/Try01/Manage.sol\":5028:5036  preowner */\n      dup5\n        /* \"contracts/Try01/Manage.sol\":5021:5037  owners[preowner] */\n      0xffffffffffffffffffffffffffffffffffffffff\n      and\n      0xffffffffffffffffffffffffffffffffffffffff\n      and\n      dup2\n      mstore\n      0x20\n      add\n      swap1\n      dup2\n      mstore\n      0x20\n      add\n      0x00\n      keccak256\n        /* \"contracts/Try01/Manage.sol\":5021:5044  owners[preowner][_NEXT] */\n      0x00\n        /* \"contracts/Try01/Manage.sol\":558:562  true */\n      0x01\n        /* \"contracts/Try01/Manage.sol\":5021:5044  owners[preowner][_NEXT] */\n      iszero\n      iszero\n      iszero\n      iszero\n      dup2\n      mstore\n      0x20\n      add\n      swap1\n      dup2\n      mstore\n      0x20\n      add\n      0x00\n      keccak256\n      0x00\n      swap1\n      sload\n      swap1\n      0x0100\n      exp\n      swap1\n      div\n      0xffffffffffffffffffffffffffffffffffffffff\n      and\n        /* \"contracts/Try01/Manage.sol\":558:562  true */\n      0x01\n        /* \"contracts/Try01/Manage.sol\":4985:4996  _createLink */\n      tag_113\n        /* \"contracts/Try01/Manage.sol\":4985:5052  _createLink(owners[preowner][_PRE], owners[preowner][_NEXT], _NEXT) */\n      jump\t// in\n    tag_112:\n        /* \"contracts/Try01/Manage.sol\":5070:5076  owners */\n      0x02\n        /* \"contracts/Try01/Manage.sol\":5070:5086  owners[preowner] */\n      0x00\n        /* \"contracts/Try01/Manage.sol\":5077:5085  preowner */\n      dup3\n        /* \"contracts/Try01/Manage.sol\":5070:5086  owners[preowner] */\n      0xffffffffffffffffffffffffffffffffffffffff\n      and\n      0xffffffffffffffffffffffffffffffffffffffff\n      and\n      dup2\n      mstore\n      0x20\n      add\n      swap1\n      dup2\n      mstore\n      0x20\n      add\n      0x00\n      keccak256\n        /* \"contracts/Try01/Manage.sol\":5070:5092  owners[preowner][_PRE] */\n      0x00\n        /* \"contracts/Try01/Manage.sol\":515:520  false */\n      dup1\n        /* \"contracts/Try01/Manage.sol\":5070:5092  owners[preowner][_PRE] */\n      iszero\n      iszero\n      iszero\n      iszero\n      dup2\n      mstore\n      0x20\n      add\n      swap1\n      dup2\n      mstore\n      0x20\n      add\n      0x00\n      keccak256\n      0x00\n        /* \"contracts/Try01/Manage.sol\":5063:5092  delete owners[preowner][_PRE] */\n      0x0100\n      exp\n      dup2\n      sload\n      swap1\n      0xffffffffffffffffffffffffffffffffffffffff\n      mul\n      not\n      and\n      swap1\n      sstore\n        /* \"contracts/Try01/Manage.sol\":5110:5116  owners */\n      0x02\n        /* \"contracts/Try01/Manage.sol\":5110:5126  owners[preowner] */\n      0x00\n        /* \"contracts/Try01/Manage.sol\":5117:5125  preowner */\n      dup3\n        /* \"contracts/Try01/Manage.sol\":5110:5126  owners[preowner] */\n      0xffffffffffffffffffffffffffffffffffffffff\n      and\n      0xffffffffffffffffffffffffffffffffffffffff\n      and\n      dup2\n      mstore\n      0x20\n      add\n      swap1\n      dup2\n      mstore\n      0x20\n      add\n      0x00\n      keccak256\n        /* \"contracts/Try01/Manage.sol\":5110:5133  owners[preowner][_NEXT] */\n      0x00\n        /* \"contracts/Try01/Manage.sol\":558:562  true */\n      0x01\n        /* \"contracts/Try01/Manage.sol\":5110:5133  owners[preowner][_NEXT] */\n      iszero\n      iszero\n      iszero\n      iszero\n      dup2\n      mstore\n      0x20\n      add\n      swap1\n      dup2\n      mstore\n      0x20\n      add\n      0x00\n      keccak256\n      0x00\n        /* \"contracts/Try01/Manage.sol\":5103:5133  delete owners[preowner][_NEXT] */\n      0x0100\n      exp\n      dup2\n      sload\n      swap1\n      0xffffffffffffffffffffffffffffffffffffffff\n      mul\n      not\n      and\n      swap1\n      sstore\n        /* \"contracts/Try01/Manage.sol\":5144:5154  owners_num */\n      0x00\n      dup1\n        /* \"contracts/Try01/Manage.sol\":5144:5156  owners_num-- */\n      dup2\n      sload\n      dup1\n      swap3\n      swap2\n      swap1\n      tag_114\n      swap1\n      tag_115\n      jump\t// in\n    tag_114:\n      swap2\n      swap1\n      pop\n      sstore\n      pop\n        /* \"contracts/Try01/Manage.sol\":4877:5164  function removeowner(address preowner)internal {... */\n      pop\n      jump\t// out\n        /* \"contracts/Try01/Manage.sol\":5685:5885  function _createLink(address _preowner, address _nextowner, bool _direction)internal {... */\n    tag_113:\n        /* \"contracts/Try01/Manage.sol\":5815:5824  _preowner */\n      dup3\n        /* \"contracts/Try01/Manage.sol\":5781:5787  owners */\n      0x02\n        /* \"contracts/Try01/Manage.sol\":5781:5799  owners[_nextowner] */\n      0x00\n        /* \"contracts/Try01/Manage.sol\":5788:5798  _nextowner */\n      dup5\n        /* \"contracts/Try01/Manage.sol\":5781:5799  owners[_nextowner] */\n      0xffffffffffffffffffffffffffffffffffffffff\n      and\n      0xffffffffffffffffffffffffffffffffffffffff\n      and\n      dup2\n      mstore\n      0x20\n      add\n      swap1\n      dup2\n      mstore\n      0x20\n      add\n      0x00\n      keccak256\n        /* \"contracts/Try01/Manage.sol\":5781:5812  owners[_nextowner][!_direction] */\n      0x00\n        /* \"contracts/Try01/Manage.sol\":5801:5811  _direction */\n      dup4\n        /* \"contracts/Try01/Manage.sol\":5800:5811  !_direction */\n      iszero\n        /* \"contracts/Try01/Manage.sol\":5781:5812  owners[_nextowner][!_direction] */\n      iszero\n      iszero\n      iszero\n      iszero\n      dup2\n      mstore\n      0x20\n      add\n      swap1\n      dup2\n      mstore\n      0x20\n      add\n      0x00\n      keccak256\n      0x00\n        /* \"contracts/Try01/Manage.sol\":5781:5824  owners[_nextowner][!_direction] = _preowner */\n      0x0100\n      exp\n      dup2\n      sload\n      dup2\n      0xffffffffffffffffffffffffffffffffffffffff\n      mul\n      not\n      and\n      swap1\n      dup4\n      0xffffffffffffffffffffffffffffffffffffffff\n      and\n      mul\n      or\n      swap1\n      sstore\n      pop\n        /* \"contracts/Try01/Manage.sol\":5867:5877  _nextowner */\n      dup2\n        /* \"contracts/Try01/Manage.sol\":5835:5841  owners */\n      0x02\n        /* \"contracts/Try01/Manage.sol\":5835:5852  owners[_preowner] */\n      0x00\n        /* \"contracts/Try01/Manage.sol\":5842:5851  _preowner */\n      dup6\n        /* \"contracts/Try01/Manage.sol\":5835:5852  owners[_preowner] */\n      0xffffffffffffffffffffffffffffffffffffffff\n      and\n      0xffffffffffffffffffffffffffffffffffffffff\n      and\n      dup2\n      mstore\n      0x20\n      add\n      swap1\n      dup2\n      mstore\n      0x20\n      add\n      0x00\n      keccak256\n        /* \"contracts/Try01/Manage.sol\":5835:5864  owners[_preowner][_direction] */\n      0x00\n        /* \"contracts/Try01/Manage.sol\":5853:5863  _direction */\n      dup4\n        /* \"contracts/Try01/Manage.sol\":5835:5864  owners[_preowner][_direction] */\n      iszero\n      iszero\n      iszero\n      iszero\n      dup2\n      mstore\n      0x20\n      add\n      swap1\n      dup2\n      mstore\n      0x20\n      add\n      0x00\n      keccak256\n      0x00\n        /* \"contracts/Try01/Manage.sol\":5835:5877  owners[_preowner][_direction] = _nextowner */\n      0x0100\n      exp\n      dup2\n      sload\n      dup2\n      0xffffffffffffffffffffffffffffffffffffffff\n      mul\n      not\n      and\n      swap1\n      dup4\n      0xffffffffffffffffffffffffffffffffffffffff\n      and\n      mul\n      or\n      swap1\n      sstore\n      pop\n        /* \"contracts/Try01/Manage.sol\":5685:5885  function _createLink(address _preowner, address _nextowner, bool _direction)internal {... */\n      pop\n      pop\n      pop\n      jump\t// out\n        /* \"#utility.yul\":7:121   */\n    tag_117:\n        /* \"#utility.yul\":74:80   */\n      0x00\n        /* \"#utility.yul\":108:113   */\n      dup2\n        /* \"#utility.yul\":102:114   */\n      mload\n        /* \"#utility.yul\":92:114   */\n      swap1\n      pop\n        /* \"#utility.yul\":7:121   */\n      swap2\n      swap1\n      pop\n      jump\t// out\n        /* \"#utility.yul\":127:311   */\n    tag_118:\n        /* \"#utility.yul\":226:237   */\n      0x00\n        /* \"#utility.yul\":260:266   */\n      dup3\n        /* \"#utility.yul\":255:258   */\n      dup3\n        /* \"#utility.yul\":248:267   */\n      mstore\n        /* \"#utility.yul\":300:304   */\n      0x20\n        /* \"#utility.yul\":295:298   */\n      dup3\n        /* \"#utility.yul\":291:305   */\n      add\n        /* \"#utility.yul\":276:305   */\n      swap1\n      pop\n        /* \"#utility.yul\":127:311   */\n      swap3\n      swap2\n      pop\n      pop\n      jump\t// out\n        /* \"#utility.yul\":317:449   */\n    tag_119:\n        /* \"#utility.yul\":384:388   */\n      0x00\n        /* \"#utility.yul\":407:410   */\n      dup2\n        /* \"#utility.yul\":399:410   */\n      swap1\n      pop\n        /* \"#utility.yul\":437:441   */\n      0x20\n        /* \"#utility.yul\":432:435   */\n      dup3\n        /* \"#utility.yul\":428:442   */\n      add\n        /* \"#utility.yul\":420:442   */\n      swap1\n      pop\n        /* \"#utility.yul\":317:449   */\n      swap2\n      swap1\n      pop\n      jump\t// out\n        /* \"#utility.yul\":455:581   */\n    tag_120:\n        /* \"#utility.yul\":492:499   */\n      0x00\n        /* \"#utility.yul\":532:574   */\n      0xffffffffffffffffffffffffffffffffffffffff\n        /* \"#utility.yul\":525:530   */\n      dup3\n        /* \"#utility.yul\":521:575   */\n      and\n        /* \"#utility.yul\":510:575   */\n      swap1\n      pop\n        /* \"#utility.yul\":455:581   */\n      swap2\n      swap1\n      pop\n      jump\t// out\n        /* \"#utility.yul\":587:683   */\n    tag_121:\n        /* \"#utility.yul\":624:631   */\n      0x00\n        /* \"#utility.yul\":653:677   */\n      tag_159\n        /* \"#utility.yul\":671:676   */\n      dup3\n        /* \"#utility.yul\":653:677   */\n      tag_120\n      jump\t// in\n    tag_159:\n        /* \"#utility.yul\":642:677   */\n      swap1\n      pop\n        /* \"#utility.yul\":587:683   */\n      swap2\n      swap1\n      pop\n      jump\t// out\n        /* \"#utility.yul\":689:797   */\n    tag_122:\n        /* \"#utility.yul\":766:790   */\n      tag_161\n        /* \"#utility.yul\":784:789   */\n      dup2\n        /* \"#utility.yul\":766:790   */\n      tag_121\n      jump\t// in\n    tag_161:\n        /* \"#utility.yul\":761:764   */\n      dup3\n        /* \"#utility.yul\":754:791   */\n      mstore\n        /* \"#utility.yul\":689:797   */\n      pop\n      pop\n      jump\t// out\n        /* \"#utility.yul\":803:982   */\n    tag_123:\n        /* \"#utility.yul\":872:882   */\n      0x00\n        /* \"#utility.yul\":893:939   */\n      tag_163\n        /* \"#utility.yul\":935:938   */\n      dup4\n        /* \"#utility.yul\":927:933   */\n      dup4\n        /* \"#utility.yul\":893:939   */\n      tag_122\n      jump\t// in\n    tag_163:\n        /* \"#utility.yul\":971:975   */\n      0x20\n        /* \"#utility.yul\":966:969   */\n      dup4\n        /* \"#utility.yul\":962:976   */\n      add\n        /* \"#utility.yul\":948:976   */\n      swap1\n      pop\n        /* \"#utility.yul\":803:982   */\n      swap3\n      swap2\n      pop\n      pop\n      jump\t// out\n        /* \"#utility.yul\":988:1101   */\n    tag_124:\n        /* \"#utility.yul\":1058:1062   */\n      0x00\n        /* \"#utility.yul\":1090:1094   */\n      0x20\n        /* \"#utility.yul\":1085:1088   */\n      dup3\n        /* \"#utility.yul\":1081:1095   */\n      add\n        /* \"#utility.yul\":1073:1095   */\n      swap1\n      pop\n        /* \"#utility.yul\":988:1101   */\n      swap2\n      swap1\n      pop\n      jump\t// out\n        /* \"#utility.yul\":1137:1869   */\n    tag_125:\n        /* \"#utility.yul\":1256:1259   */\n      0x00\n        /* \"#utility.yul\":1285:1339   */\n      tag_166\n        /* \"#utility.yul\":1333:1338   */\n      dup3\n        /* \"#utility.yul\":1285:1339   */\n      tag_117\n      jump\t// in\n    tag_166:\n        /* \"#utility.yul\":1355:1441   */\n      tag_167\n        /* \"#utility.yul\":1434:1440   */\n      dup2\n        /* \"#utility.yul\":1429:1432   */\n      dup6\n        /* \"#utility.yul\":1355:1441   */\n      tag_118\n      jump\t// in\n    tag_167:\n        /* \"#utility.yul\":1348:1441   */\n      swap4\n      pop\n        /* \"#utility.yul\":1465:1521   */\n      tag_168\n        /* \"#utility.yul\":1515:1520   */\n      dup4\n        /* \"#utility.yul\":1465:1521   */\n      tag_119\n      jump\t// in\n    tag_168:\n        /* \"#utility.yul\":1544:1551   */\n      dup1\n        /* \"#utility.yul\":1575:1576   */\n      0x00\n        /* \"#utility.yul\":1560:1844   */\n    tag_169:\n        /* \"#utility.yul\":1585:1591   */\n      dup4\n        /* \"#utility.yul\":1582:1583   */\n      dup2\n        /* \"#utility.yul\":1579:1592   */\n      lt\n        /* \"#utility.yul\":1560:1844   */\n      iszero\n      tag_171\n      jumpi\n        /* \"#utility.yul\":1661:1667   */\n      dup2\n        /* \"#utility.yul\":1655:1668   */\n      mload\n        /* \"#utility.yul\":1688:1751   */\n      tag_172\n        /* \"#utility.yul\":1747:1750   */\n      dup9\n        /* \"#utility.yul\":1732:1745   */\n      dup3\n        /* \"#utility.yul\":1688:1751   */\n      tag_123\n      jump\t// in\n    tag_172:\n        /* \"#utility.yul\":1681:1751   */\n      swap8\n      pop\n        /* \"#utility.yul\":1774:1834   */\n      tag_173\n        /* \"#utility.yul\":1827:1833   */\n      dup4\n        /* \"#utility.yul\":1774:1834   */\n      tag_124\n      jump\t// in\n    tag_173:\n        /* \"#utility.yul\":1764:1834   */\n      swap3\n      pop\n        /* \"#utility.yul\":1620:1844   */\n      pop\n        /* \"#utility.yul\":1607:1608   */\n      0x01\n        /* \"#utility.yul\":1604:1605   */\n      dup2\n        /* \"#utility.yul\":1600:1609   */\n      add\n        /* \"#utility.yul\":1595:1609   */\n      swap1\n      pop\n        /* \"#utility.yul\":1560:1844   */\n      jump(tag_169)\n    tag_171:\n        /* \"#utility.yul\":1564:1578   */\n      pop\n        /* \"#utility.yul\":1860:1863   */\n      dup6\n        /* \"#utility.yul\":1853:1863   */\n      swap4\n      pop\n        /* \"#utility.yul\":1261:1869   */\n      pop\n      pop\n      pop\n        /* \"#utility.yul\":1137:1869   */\n      swap3\n      swap2\n      pop\n      pop\n      jump\t// out\n        /* \"#utility.yul\":1875:2248   */\n    tag_16:\n        /* \"#utility.yul\":2018:2022   */\n      0x00\n        /* \"#utility.yul\":2056:2058   */\n      0x20\n        /* \"#utility.yul\":2045:2054   */\n      dup3\n        /* \"#utility.yul\":2041:2059   */\n      add\n        /* \"#utility.yul\":2033:2059   */\n      swap1\n      pop\n        /* \"#utility.yul\":2105:2114   */\n      dup2\n        /* \"#utility.yul\":2099:2103   */\n      dup2\n        /* \"#utility.yul\":2095:2115   */\n      sub\n        /* \"#utility.yul\":2091:2092   */\n      0x00\n        /* \"#utility.yul\":2080:2089   */\n      dup4\n        /* \"#utility.yul\":2076:2093   */\n      add\n        /* \"#utility.yul\":2069:2116   */\n      mstore\n        /* \"#utility.yul\":2133:2241   */\n      tag_175\n        /* \"#utility.yul\":2236:2240   */\n      dup2\n        /* \"#utility.yul\":2227:2233   */\n      dup5\n        /* \"#utility.yul\":2133:2241   */\n      tag_125\n      jump\t// in\n    tag_175:\n        /* \"#utility.yul\":2125:2241   */\n      swap1\n      pop\n        /* \"#utility.yul\":1875:2248   */\n      swap3\n      swap2\n      pop\n      pop\n      jump\t// out\n        /* \"#utility.yul\":2254:2331   */\n    tag_126:\n        /* \"#utility.yul\":2291:2298   */\n      0x00\n        /* \"#utility.yul\":2320:2325   */\n      dup2\n        /* \"#utility.yul\":2309:2325   */\n      swap1\n      pop\n        /* \"#utility.yul\":2254:2331   */\n      swap2\n      swap1\n      pop\n      jump\t// out\n        /* \"#utility.yul\":2337:2455   */\n    tag_127:\n        /* \"#utility.yul\":2424:2448   */\n      tag_178\n        /* \"#utility.yul\":2442:2447   */\n      dup2\n        /* \"#utility.yul\":2424:2448   */\n      tag_126\n      jump\t// in\n    tag_178:\n        /* \"#utility.yul\":2419:2422   */\n      dup3\n        /* \"#utility.yul\":2412:2449   */\n      mstore\n        /* \"#utility.yul\":2337:2455   */\n      pop\n      pop\n      jump\t// out\n        /* \"#utility.yul\":2461:2683   */\n    tag_20:\n        /* \"#utility.yul\":2554:2558   */\n      0x00\n        /* \"#utility.yul\":2592:2594   */\n      0x20\n        /* \"#utility.yul\":2581:2590   */\n      dup3\n        /* \"#utility.yul\":2577:2595   */\n      add\n        /* \"#utility.yul\":2569:2595   */\n      swap1\n      pop\n        /* \"#utility.yul\":2605:2676   */\n      tag_180\n        /* \"#utility.yul\":2673:2674   */\n      0x00\n        /* \"#utility.yul\":2662:2671   */\n      dup4\n        /* \"#utility.yul\":2658:2675   */\n      add\n        /* \"#utility.yul\":2649:2655   */\n      dup5\n        /* \"#utility.yul\":2605:2676   */\n      tag_127\n      jump\t// in\n    tag_180:\n        /* \"#utility.yul\":2461:2683   */\n      swap3\n      swap2\n      pop\n      pop\n      jump\t// out\n        /* \"#utility.yul\":2770:2887   */\n    tag_129:\n        /* \"#utility.yul\":2879:2880   */\n      0x00\n        /* \"#utility.yul\":2876:2877   */\n      dup1\n        /* \"#utility.yul\":2869:2881   */\n      revert\n        /* \"#utility.yul\":3016:3138   */\n    tag_131:\n        /* \"#utility.yul\":3089:3113   */\n      tag_185\n        /* \"#utility.yul\":3107:3112   */\n      dup2\n        /* \"#utility.yul\":3089:3113   */\n      tag_121\n      jump\t// in\n    tag_185:\n        /* \"#utility.yul\":3082:3087   */\n      dup2\n        /* \"#utility.yul\":3079:3114   */\n      eq\n        /* \"#utility.yul\":3069:3132   */\n      tag_186\n      jumpi\n        /* \"#utility.yul\":3128:3129   */\n      0x00\n        /* \"#utility.yul\":3125:3126   */\n      dup1\n        /* \"#utility.yul\":3118:3130   */\n      revert\n        /* \"#utility.yul\":3069:3132   */\n    tag_186:\n        /* \"#utility.yul\":3016:3138   */\n      pop\n      jump\t// out\n        /* \"#utility.yul\":3144:3283   */\n    tag_132:\n        /* \"#utility.yul\":3190:3195   */\n      0x00\n        /* \"#utility.yul\":3228:3234   */\n      dup2\n        /* \"#utility.yul\":3215:3235   */\n      calldataload\n        /* \"#utility.yul\":3206:3235   */\n      swap1\n      pop\n        /* \"#utility.yul\":3244:3277   */\n      tag_188\n        /* \"#utility.yul\":3271:3276   */\n      dup2\n        /* \"#utility.yul\":3244:3277   */\n      tag_131\n      jump\t// in\n    tag_188:\n        /* \"#utility.yul\":3144:3283   */\n      swap3\n      swap2\n      pop\n      pop\n      jump\t// out\n        /* \"#utility.yul\":3289:3411   */\n    tag_133:\n        /* \"#utility.yul\":3362:3386   */\n      tag_190\n        /* \"#utility.yul\":3380:3385   */\n      dup2\n        /* \"#utility.yul\":3362:3386   */\n      tag_126\n      jump\t// in\n    tag_190:\n        /* \"#utility.yul\":3355:3360   */\n      dup2\n        /* \"#utility.yul\":3352:3387   */\n      eq\n        /* \"#utility.yul\":3342:3405   */\n      tag_191\n      jumpi\n        /* \"#utility.yul\":3401:3402   */\n      0x00\n        /* \"#utility.yul\":3398:3399   */\n      dup1\n        /* \"#utility.yul\":3391:3403   */\n      revert\n        /* \"#utility.yul\":3342:3405   */\n    tag_191:\n        /* \"#utility.yul\":3289:3411   */\n      pop\n      jump\t// out\n        /* \"#utility.yul\":3417:3556   */\n    tag_134:\n        /* \"#utility.yul\":3463:3468   */\n      0x00\n        /* \"#utility.yul\":3501:3507   */\n      dup2\n        /* \"#utility.yul\":3488:3508   */\n      calldataload\n        /* \"#utility.yul\":3479:3508   */\n      swap1\n      pop\n        /* \"#utility.yul\":3517:3550   */\n      tag_193\n        /* \"#utility.yul\":3544:3549   */\n      dup2\n        /* \"#utility.yul\":3517:3550   */\n      tag_133\n      jump\t// in\n    tag_193:\n        /* \"#utility.yul\":3417:3556   */\n      swap3\n      swap2\n      pop\n      pop\n      jump\t// out\n        /* \"#utility.yul\":3562:4036   */\n    tag_23:\n        /* \"#utility.yul\":3630:3636   */\n      0x00\n        /* \"#utility.yul\":3638:3644   */\n      dup1\n        /* \"#utility.yul\":3687:3689   */\n      0x40\n        /* \"#utility.yul\":3675:3684   */\n      dup4\n        /* \"#utility.yul\":3666:3673   */\n      dup6\n        /* \"#utility.yul\":3662:3685   */\n      sub\n        /* \"#utility.yul\":3658:3690   */\n      slt\n        /* \"#utility.yul\":3655:3774   */\n      iszero\n      tag_195\n      jumpi\n        /* \"#utility.yul\":3693:3772   */\n      tag_196\n      tag_129\n      jump\t// in\n    tag_196:\n        /* \"#utility.yul\":3655:3774   */\n    tag_195:\n        /* \"#utility.yul\":3813:3814   */\n      0x00\n        /* \"#utility.yul\":3838:3891   */\n      tag_197\n        /* \"#utility.yul\":3883:3890   */\n      dup6\n        /* \"#utility.yul\":3874:3880   */\n      dup3\n        /* \"#utility.yul\":3863:3872   */\n      dup7\n        /* \"#utility.yul\":3859:3881   */\n      add\n        /* \"#utility.yul\":3838:3891   */\n      tag_132\n      jump\t// in\n    tag_197:\n        /* \"#utility.yul\":3828:3891   */\n      swap3\n      pop\n        /* \"#utility.yul\":3784:3901   */\n      pop\n        /* \"#utility.yul\":3940:3942   */\n      0x20\n        /* \"#utility.yul\":3966:4019   */\n      tag_198\n        /* \"#utility.yul\":4011:4018   */\n      dup6\n        /* \"#utility.yul\":4002:4008   */\n      dup3\n        /* \"#utility.yul\":3991:4000   */\n      dup7\n        /* \"#utility.yul\":3987:4009   */\n      add\n        /* \"#utility.yul\":3966:4019   */\n      tag_134\n      jump\t// in\n    tag_198:\n        /* \"#utility.yul\":3956:4019   */\n      swap2\n      pop\n        /* \"#utility.yul\":3911:4029   */\n      pop\n        /* \"#utility.yul\":3562:4036   */\n      swap3\n      pop\n      swap3\n      swap1\n      pop\n      jump\t// out\n        /* \"#utility.yul\":4042:4140   */\n    tag_135:\n        /* \"#utility.yul\":4093:4099   */\n      0x00\n        /* \"#utility.yul\":4127:4132   */\n      dup2\n        /* \"#utility.yul\":4121:4133   */\n      mload\n        /* \"#utility.yul\":4111:4133   */\n      swap1\n      pop\n        /* \"#utility.yul\":4042:4140   */\n      swap2\n      swap1\n      pop\n      jump\t// out\n        /* \"#utility.yul\":4146:4314   */\n    tag_136:\n        /* \"#utility.yul\":4229:4240   */\n      0x00\n        /* \"#utility.yul\":4263:4269   */\n      dup3\n        /* \"#utility.yul\":4258:4261   */\n      dup3\n        /* \"#utility.yul\":4251:4270   */\n      mstore\n        /* \"#utility.yul\":4303:4307   */\n      0x20\n        /* \"#utility.yul\":4298:4301   */\n      dup3\n        /* \"#utility.yul\":4294:4308   */\n      add\n        /* \"#utility.yul\":4279:4308   */\n      swap1\n      pop\n        /* \"#utility.yul\":4146:4314   */\n      swap3\n      swap2\n      pop\n      pop\n      jump\t// out\n        /* \"#utility.yul\":4320:4566   */\n    tag_137:\n        /* \"#utility.yul\":4401:4402   */\n      0x00\n        /* \"#utility.yul\":4411:4524   */\n    tag_202:\n        /* \"#utility.yul\":4425:4431   */\n      dup4\n        /* \"#utility.yul\":4422:4423   */\n      dup2\n        /* \"#utility.yul\":4419:4432   */\n      lt\n        /* \"#utility.yul\":4411:4524   */\n      iszero\n      tag_204\n      jumpi\n        /* \"#utility.yul\":4510:4511   */\n      dup1\n        /* \"#utility.yul\":4505:4508   */\n      dup3\n        /* \"#utility.yul\":4501:4512   */\n      add\n        /* \"#utility.yul\":4495:4513   */\n      mload\n        /* \"#utility.yul\":4491:4492   */\n      dup2\n        /* \"#utility.yul\":4486:4489   */\n      dup5\n        /* \"#utility.yul\":4482:4493   */\n      add\n        /* \"#utility.yul\":4475:4514   */\n      mstore\n        /* \"#utility.yul\":4447:4449   */\n      0x20\n        /* \"#utility.yul\":4444:4445   */\n      dup2\n        /* \"#utility.yul\":4440:4450   */\n      add\n        /* \"#utility.yul\":4435:4450   */\n      swap1\n      pop\n        /* \"#utility.yul\":4411:4524   */\n      jump(tag_202)\n    tag_204:\n        /* \"#utility.yul\":4558:4559   */\n      0x00\n        /* \"#utility.yul\":4549:4555   */\n      dup5\n        /* \"#utility.yul\":4544:4547   */\n      dup5\n        /* \"#utility.yul\":4540:4556   */\n      add\n        /* \"#utility.yul\":4533:4560   */\n      mstore\n        /* \"#utility.yul\":4382:4566   */\n      pop\n        /* \"#utility.yul\":4320:4566   */\n      pop\n      pop\n      pop\n      jump\t// out\n        /* \"#utility.yul\":4572:4674   */\n    tag_138:\n        /* \"#utility.yul\":4613:4619   */\n      0x00\n        /* \"#utility.yul\":4664:4666   */\n      0x1f\n        /* \"#utility.yul\":4660:4667   */\n      not\n        /* \"#utility.yul\":4655:4657   */\n      0x1f\n        /* \"#utility.yul\":4648:4653   */\n      dup4\n        /* \"#utility.yul\":4644:4658   */\n      add\n        /* \"#utility.yul\":4640:4668   */\n      and\n        /* \"#utility.yul\":4630:4668   */\n      swap1\n      pop\n        /* \"#utility.yul\":4572:4674   */\n      swap2\n      swap1\n      pop\n      jump\t// out\n        /* \"#utility.yul\":4680:5053   */\n    tag_139:\n        /* \"#utility.yul\":4766:4769   */\n      0x00\n        /* \"#utility.yul\":4794:4832   */\n      tag_207\n        /* \"#utility.yul\":4826:4831   */\n      dup3\n        /* \"#utility.yul\":4794:4832   */\n      tag_135\n      jump\t// in\n    tag_207:\n        /* \"#utility.yul\":4848:4918   */\n      tag_208\n        /* \"#utility.yul\":4911:4917   */\n      dup2\n        /* \"#utility.yul\":4906:4909   */\n      dup6\n        /* \"#utility.yul\":4848:4918   */\n      tag_136\n      jump\t// in\n    tag_208:\n        /* \"#utility.yul\":4841:4918   */\n      swap4\n      pop\n        /* \"#utility.yul\":4927:4992   */\n      tag_209\n        /* \"#utility.yul\":4985:4991   */\n      dup2\n        /* \"#utility.yul\":4980:4983   */\n      dup6\n        /* \"#utility.yul\":4973:4977   */\n      0x20\n        /* \"#utility.yul\":4966:4971   */\n      dup7\n        /* \"#utility.yul\":4962:4978   */\n      add\n        /* \"#utility.yul\":4927:4992   */\n      tag_137\n      jump\t// in\n    tag_209:\n        /* \"#utility.yul\":5017:5046   */\n      tag_210\n        /* \"#utility.yul\":5039:5045   */\n      dup2\n        /* \"#utility.yul\":5017:5046   */\n      tag_138\n      jump\t// in\n    tag_210:\n        /* \"#utility.yul\":5012:5015   */\n      dup5\n        /* \"#utility.yul\":5008:5047   */\n      add\n        /* \"#utility.yul\":5001:5047   */\n      swap2\n      pop\n        /* \"#utility.yul\":4770:5053   */\n      pop\n        /* \"#utility.yul\":4680:5053   */\n      swap3\n      swap2\n      pop\n      pop\n      jump\t// out\n        /* \"#utility.yul\":5059:5368   */\n    tag_26:\n        /* \"#utility.yul\":5170:5174   */\n      0x00\n        /* \"#utility.yul\":5208:5210   */\n      0x20\n        /* \"#utility.yul\":5197:5206   */\n      dup3\n        /* \"#utility.yul\":5193:5211   */\n      add\n        /* \"#utility.yul\":5185:5211   */\n      swap1\n      pop\n        /* \"#utility.yul\":5257:5266   */\n      dup2\n        /* \"#utility.yul\":5251:5255   */\n      dup2\n        /* \"#utility.yul\":5247:5267   */\n      sub\n        /* \"#utility.yul\":5243:5244   */\n      0x00\n        /* \"#utility.yul\":5232:5241   */\n      dup4\n        /* \"#utility.yul\":5228:5245   */\n      add\n        /* \"#utility.yul\":5221:5268   */\n      mstore\n        /* \"#utility.yul\":5285:5361   */\n      tag_212\n        /* \"#utility.yul\":5356:5360   */\n      dup2\n        /* \"#utility.yul\":5347:5353   */\n      dup5\n        /* \"#utility.yul\":5285:5361   */\n      tag_139\n      jump\t// in\n    tag_212:\n        /* \"#utility.yul\":5277:5361   */\n      swap1\n      pop\n        /* \"#utility.yul\":5059:5368   */\n      swap3\n      swap2\n      pop\n      pop\n      jump\t// out\n        /* \"#utility.yul\":5374:5703   */\n    tag_29:\n        /* \"#utility.yul\":5433:5439   */\n      0x00\n        /* \"#utility.yul\":5482:5484   */\n      0x20\n        /* \"#utility.yul\":5470:5479   */\n      dup3\n        /* \"#utility.yul\":5461:5468   */\n      dup5\n        /* \"#utility.yul\":5457:5480   */\n      sub\n        /* \"#utility.yul\":5453:5485   */\n      slt\n        /* \"#utility.yul\":5450:5569   */\n      iszero\n      tag_214\n      jumpi\n        /* \"#utility.yul\":5488:5567   */\n      tag_215\n      tag_129\n      jump\t// in\n    tag_215:\n        /* \"#utility.yul\":5450:5569   */\n    tag_214:\n        /* \"#utility.yul\":5608:5609   */\n      0x00\n        /* \"#utility.yul\":5633:5686   */\n      tag_216\n        /* \"#utility.yul\":5678:5685   */\n      dup5\n        /* \"#utility.yul\":5669:5675   */\n      dup3\n        /* \"#utility.yul\":5658:5667   */\n      dup6\n        /* \"#utility.yul\":5654:5676   */\n      add\n        /* \"#utility.yul\":5633:5686   */\n      tag_134\n      jump\t// in\n    tag_216:\n        /* \"#utility.yul\":5623:5686   */\n      swap2\n      pop\n        /* \"#utility.yul\":5579:5696   */\n      pop\n        /* \"#utility.yul\":5374:5703   */\n      swap3\n      swap2\n      pop\n      pop\n      jump\t// out\n        /* \"#utility.yul\":5709:6038   */\n    tag_43:\n        /* \"#utility.yul\":5768:5774   */\n      0x00\n        /* \"#utility.yul\":5817:5819   */\n      0x20\n        /* \"#utility.yul\":5805:5814   */\n      dup3\n        /* \"#utility.yul\":5796:5803   */\n      dup5\n        /* \"#utility.yul\":5792:5815   */\n      sub\n        /* \"#utility.yul\":5788:5820   */\n      slt\n        /* \"#utility.yul\":5785:5904   */\n      iszero\n      tag_218\n      jumpi\n        /* \"#utility.yul\":5823:5902   */\n      tag_219\n      tag_129\n      jump\t// in\n    tag_219:\n        /* \"#utility.yul\":5785:5904   */\n    tag_218:\n        /* \"#utility.yul\":5943:5944   */\n      0x00\n        /* \"#utility.yul\":5968:6021   */\n      tag_220\n        /* \"#utility.yul\":6013:6020   */\n      dup5\n        /* \"#utility.yul\":6004:6010   */\n      dup3\n        /* \"#utility.yul\":5993:6002   */\n      dup6\n        /* \"#utility.yul\":5989:6011   */\n      add\n        /* \"#utility.yul\":5968:6021   */\n      tag_132\n      jump\t// in\n    tag_220:\n        /* \"#utility.yul\":5958:6021   */\n      swap2\n      pop\n        /* \"#utility.yul\":5914:6031   */\n      pop\n        /* \"#utility.yul\":5709:6038   */\n      swap3\n      swap2\n      pop\n      pop\n      jump\t// out\n        /* \"#utility.yul\":6044:6134   */\n    tag_140:\n        /* \"#utility.yul\":6078:6085   */\n      0x00\n        /* \"#utility.yul\":6121:6126   */\n      dup2\n        /* \"#utility.yul\":6114:6127   */\n      iszero\n        /* \"#utility.yul\":6107:6128   */\n      iszero\n        /* \"#utility.yul\":6096:6128   */\n      swap1\n      pop\n        /* \"#utility.yul\":6044:6134   */\n      swap2\n      swap1\n      pop\n      jump\t// out\n        /* \"#utility.yul\":6140:6249   */\n    tag_141:\n        /* \"#utility.yul\":6221:6242   */\n      tag_223\n        /* \"#utility.yul\":6236:6241   */\n      dup2\n        /* \"#utility.yul\":6221:6242   */\n      tag_140\n      jump\t// in\n    tag_223:\n        /* \"#utility.yul\":6216:6219   */\n      dup3\n        /* \"#utility.yul\":6209:6243   */\n      mstore\n        /* \"#utility.yul\":6140:6249   */\n      pop\n      pop\n      jump\t// out\n        /* \"#utility.yul\":6255:6465   */\n    tag_46:\n        /* \"#utility.yul\":6342:6346   */\n      0x00\n        /* \"#utility.yul\":6380:6382   */\n      0x20\n        /* \"#utility.yul\":6369:6378   */\n      dup3\n        /* \"#utility.yul\":6365:6383   */\n      add\n        /* \"#utility.yul\":6357:6383   */\n      swap1\n      pop\n        /* \"#utility.yul\":6393:6458   */\n      tag_225\n        /* \"#utility.yul\":6455:6456   */\n      0x00\n        /* \"#utility.yul\":6444:6453   */\n      dup4\n        /* \"#utility.yul\":6440:6457   */\n      add\n        /* \"#utility.yul\":6431:6437   */\n      dup5\n        /* \"#utility.yul\":6393:6458   */\n      tag_141\n      jump\t// in\n    tag_225:\n        /* \"#utility.yul\":6255:6465   */\n      swap3\n      swap2\n      pop\n      pop\n      jump\t// out\n        /* \"#utility.yul\":6471:6651   */\n    tag_54:\n        /* \"#utility.yul\":6519:6596   */\n      0x4e487b7100000000000000000000000000000000000000000000000000000000\n        /* \"#utility.yul\":6516:6517   */\n      0x00\n        /* \"#utility.yul\":6509:6597   */\n      mstore\n        /* \"#utility.yul\":6616:6620   */\n      0x41\n        /* \"#utility.yul\":6613:6614   */\n      0x04\n        /* \"#utility.yul\":6606:6621   */\n      mstore\n        /* \"#utility.yul\":6640:6644   */\n      0x24\n        /* \"#utility.yul\":6637:6638   */\n      0x00\n        /* \"#utility.yul\":6630:6645   */\n      revert\n        /* \"#utility.yul\":6657:6837   */\n    tag_61:\n        /* \"#utility.yul\":6705:6782   */\n      0x4e487b7100000000000000000000000000000000000000000000000000000000\n        /* \"#utility.yul\":6702:6703   */\n      0x00\n        /* \"#utility.yul\":6695:6783   */\n      mstore\n        /* \"#utility.yul\":6802:6806   */\n      0x32\n        /* \"#utility.yul\":6799:6800   */\n      0x04\n        /* \"#utility.yul\":6792:6807   */\n      mstore\n        /* \"#utility.yul\":6826:6830   */\n      0x24\n        /* \"#utility.yul\":6823:6824   */\n      0x00\n        /* \"#utility.yul\":6816:6831   */\n      revert\n        /* \"#utility.yul\":6843:7023   */\n    tag_142:\n        /* \"#utility.yul\":6891:6968   */\n      0x4e487b7100000000000000000000000000000000000000000000000000000000\n        /* \"#utility.yul\":6888:6889   */\n      0x00\n        /* \"#utility.yul\":6881:6969   */\n      mstore\n        /* \"#utility.yul\":6988:6992   */\n      0x11\n        /* \"#utility.yul\":6985:6986   */\n      0x04\n        /* \"#utility.yul\":6978:6993   */\n      mstore\n        /* \"#utility.yul\":7012:7016   */\n      0x24\n        /* \"#utility.yul\":7009:7010   */\n      0x00\n        /* \"#utility.yul\":7002:7017   */\n      revert\n        /* \"#utility.yul\":7029:7262   */\n    tag_65:\n        /* \"#utility.yul\":7068:7071   */\n      0x00\n        /* \"#utility.yul\":7091:7115   */\n      tag_230\n        /* \"#utility.yul\":7109:7114   */\n      dup3\n        /* \"#utility.yul\":7091:7115   */\n      tag_126\n      jump\t// in\n    tag_230:\n        /* \"#utility.yul\":7082:7115   */\n      swap2\n      pop\n        /* \"#utility.yul\":7137:7203   */\n      0xffffffffffffffffffffffffffffffffffffffffffffffffffffffffffffffff\n        /* \"#utility.yul\":7130:7135   */\n      dup3\n        /* \"#utility.yul\":7127:7204   */\n      sub\n        /* \"#utility.yul\":7124:7227   */\n      tag_231\n      jumpi\n        /* \"#utility.yul\":7207:7225   */\n      tag_232\n      tag_142\n      jump\t// in\n    tag_232:\n        /* \"#utility.yul\":7124:7227   */\n    tag_231:\n        /* \"#utility.yul\":7254:7255   */\n      0x01\n        /* \"#utility.yul\":7247:7252   */\n      dup3\n        /* \"#utility.yul\":7243:7256   */\n      add\n        /* \"#utility.yul\":7236:7256   */\n      swap1\n      pop\n        /* \"#utility.yul\":7029:7262   */\n      swap2\n      swap1\n      pop\n      jump\t// out\n        /* \"#utility.yul\":7268:7386   */\n    tag_143:\n        /* \"#utility.yul\":7355:7379   */\n      tag_234\n        /* \"#utility.yul\":7373:7378   */\n      dup2\n        /* \"#utility.yul\":7355:7379   */\n      tag_121\n      jump\t// in\n    tag_234:\n        /* \"#utility.yul\":7350:7353   */\n      dup3\n        /* \"#utility.yul\":7343:7380   */\n      mstore\n        /* \"#utility.yul\":7268:7386   */\n      pop\n      pop\n      jump\t// out\n        /* \"#utility.yul\":7392:7724   */\n    tag_68:\n        /* \"#utility.yul\":7513:7517   */\n      0x00\n        /* \"#utility.yul\":7551:7553   */\n      0x40\n        /* \"#utility.yul\":7540:7549   */\n      dup3\n        /* \"#utility.yul\":7536:7554   */\n      add\n        /* \"#utility.yul\":7528:7554   */\n      swap1\n      pop\n        /* \"#utility.yul\":7564:7635   */\n      tag_236\n        /* \"#utility.yul\":7632:7633   */\n      0x00\n        /* \"#utility.yul\":7621:7630   */\n      dup4\n        /* \"#utility.yul\":7617:7634   */\n      add\n        /* \"#utility.yul\":7608:7614   */\n      dup6\n        /* \"#utility.yul\":7564:7635   */\n      tag_143\n      jump\t// in\n    tag_236:\n        /* \"#utility.yul\":7645:7717   */\n      tag_237\n        /* \"#utility.yul\":7713:7715   */\n      0x20\n        /* \"#utility.yul\":7702:7711   */\n      dup4\n        /* \"#utility.yul\":7698:7716   */\n      add\n        /* \"#utility.yul\":7689:7695   */\n      dup5\n        /* \"#utility.yul\":7645:7717   */\n      tag_127\n      jump\t// in\n    tag_237:\n        /* \"#utility.yul\":7392:7724   */\n      swap4\n      swap3\n      pop\n      pop\n      pop\n      jump\t// out\n        /* \"#utility.yul\":7730:7899   */\n    tag_144:\n        /* \"#utility.yul\":7814:7825   */\n      0x00\n        /* \"#utility.yul\":7848:7854   */\n      dup3\n        /* \"#utility.yul\":7843:7846   */\n      dup3\n        /* \"#utility.yul\":7836:7855   */\n      mstore\n        /* \"#utility.yul\":7888:7892   */\n      0x20\n        /* \"#utility.yul\":7883:7886   */\n      dup3\n        /* \"#utility.yul\":7879:7893   */\n      add\n        /* \"#utility.yul\":7864:7893   */\n      swap1\n      pop\n        /* \"#utility.yul\":7730:7899   */\n      swap3\n      swap2\n      pop\n      pop\n      jump\t// out\n        /* \"#utility.yul\":7905:8069   */\n    tag_145:\n        /* \"#utility.yul\":8045:8061   */\n      0x4e6f7420617574686f72697a6564000000000000000000000000000000000000\n        /* \"#utility.yul\":8041:8042   */\n      0x00\n        /* \"#utility.yul\":8033:8039   */\n      dup3\n        /* \"#utility.yul\":8029:8043   */\n      add\n        /* \"#utility.yul\":8022:8062   */\n      mstore\n        /* \"#utility.yul\":7905:8069   */\n      pop\n      jump\t// out\n        /* \"#utility.yul\":8075:8441   */\n    tag_146:\n        /* \"#utility.yul\":8217:8220   */\n      0x00\n        /* \"#utility.yul\":8238:8305   */\n      tag_241\n        /* \"#utility.yul\":8302:8304   */\n      0x0e\n        /* \"#utility.yul\":8297:8300   */\n      dup4\n        /* \"#utility.yul\":8238:8305   */\n      tag_144\n      jump\t// in\n    tag_241:\n        /* \"#utility.yul\":8231:8305   */\n      swap2\n      pop\n        /* \"#utility.yul\":8314:8407   */\n      tag_242\n        /* \"#utility.yul\":8403:8406   */\n      dup3\n        /* \"#utility.yul\":8314:8407   */\n      tag_145\n      jump\t// in\n    tag_242:\n        /* \"#utility.yul\":8432:8434   */\n      0x20\n        /* \"#utility.yul\":8427:8430   */\n      dup3\n        /* \"#utility.yul\":8423:8435   */\n      add\n        /* \"#utility.yul\":8416:8435   */\n      swap1\n      pop\n        /* \"#utility.yul\":8075:8441   */\n      swap2\n      swap1\n      pop\n      jump\t// out\n        /* \"#utility.yul\":8447:8866   */\n    tag_74:\n        /* \"#utility.yul\":8613:8617   */\n      0x00\n        /* \"#utility.yul\":8651:8653   */\n      0x20\n        /* \"#utility.yul\":8640:8649   */\n      dup3\n        /* \"#utility.yul\":8636:8654   */\n      add\n        /* \"#utility.yul\":8628:8654   */\n      swap1\n      pop\n        /* \"#utility.yul\":8700:8709   */\n      dup2\n        /* \"#utility.yul\":8694:8698   */\n      dup2\n        /* \"#utility.yul\":8690:8710   */\n      sub\n        /* \"#utility.yul\":8686:8687   */\n      0x00\n        /* \"#utility.yul\":8675:8684   */\n      dup4\n        /* \"#utility.yul\":8671:8688   */\n      add\n        /* \"#utility.yul\":8664:8711   */\n      mstore\n        /* \"#utility.yul\":8728:8859   */\n      tag_244\n        /* \"#utility.yul\":8854:8858   */\n      dup2\n        /* \"#utility.yul\":8728:8859   */\n      tag_146\n      jump\t// in\n    tag_244:\n        /* \"#utility.yul\":8720:8859   */\n      swap1\n      pop\n        /* \"#utility.yul\":8447:8866   */\n      swap2\n      swap1\n      pop\n      jump\t// out\n        /* \"#utility.yul\":8872:9029   */\n    tag_147:\n        /* \"#utility.yul\":9012:9021   */\n      0x6572726f72303200000000000000000000000000000000000000000000000000\n        /* \"#utility.yul\":9008:9009   */\n      0x00\n        /* \"#utility.yul\":9000:9006   */\n      dup3\n        /* \"#utility.yul\":8996:9010   */\n      add\n        /* \"#utility.yul\":8989:9022   */\n      mstore\n        /* \"#utility.yul\":8872:9029   */\n      pop\n      jump\t// out\n        /* \"#utility.yul\":9035:9400   */\n    tag_148:\n        /* \"#utility.yul\":9177:9180   */\n      0x00\n        /* \"#utility.yul\":9198:9264   */\n      tag_247\n        /* \"#utility.yul\":9262:9263   */\n      0x07\n        /* \"#utility.yul\":9257:9260   */\n      dup4\n        /* \"#utility.yul\":9198:9264   */\n      tag_144\n      jump\t// in\n    tag_247:\n        /* \"#utility.yul\":9191:9264   */\n      swap2\n      pop\n        /* \"#utility.yul\":9273:9366   */\n      tag_248\n        /* \"#utility.yul\":9362:9365   */\n      dup3\n        /* \"#utility.yul\":9273:9366   */\n      tag_147\n      jump\t// in\n    tag_248:\n        /* \"#utility.yul\":9391:9393   */\n      0x20\n        /* \"#utility.yul\":9386:9389   */\n      dup3\n        /* \"#utility.yul\":9382:9394   */\n      add\n        /* \"#utility.yul\":9375:9394   */\n      swap1\n      pop\n        /* \"#utility.yul\":9035:9400   */\n      swap2\n      swap1\n      pop\n      jump\t// out\n        /* \"#utility.yul\":9406:9825   */\n    tag_78:\n        /* \"#utility.yul\":9572:9576   */\n      0x00\n        /* \"#utility.yul\":9610:9612   */\n      0x20\n        /* \"#utility.yul\":9599:9608   */\n      dup3\n        /* \"#utility.yul\":9595:9613   */\n      add\n        /* \"#utility.yul\":9587:9613   */\n      swap1\n      pop\n        /* \"#utility.yul\":9659:9668   */\n      dup2\n        /* \"#utility.yul\":9653:9657   */\n      dup2\n        /* \"#utility.yul\":9649:9669   */\n      sub\n        /* \"#utility.yul\":9645:9646   */\n      0x00\n        /* \"#utility.yul\":9634:9643   */\n      dup4\n        /* \"#utility.yul\":9630:9647   */\n      add\n        /* \"#utility.yul\":9623:9670   */\n      mstore\n        /* \"#utility.yul\":9687:9818   */\n      tag_250\n        /* \"#utility.yul\":9813:9817   */\n      dup2\n        /* \"#utility.yul\":9687:9818   */\n      tag_148\n      jump\t// in\n    tag_250:\n        /* \"#utility.yul\":9679:9818   */\n      swap1\n      pop\n        /* \"#utility.yul\":9406:9825   */\n      swap2\n      swap1\n      pop\n      jump\t// out\n        /* \"#utility.yul\":9831:9988   */\n    tag_149:\n        /* \"#utility.yul\":9971:9980   */\n      0x6572726f72303300000000000000000000000000000000000000000000000000\n        /* \"#utility.yul\":9967:9968   */\n      0x00\n        /* \"#utility.yul\":9959:9965   */\n      dup3\n        /* \"#utility.yul\":9955:9969   */\n      add\n        /* \"#utility.yul\":9948:9981   */\n      mstore\n        /* \"#utility.yul\":9831:9988   */\n      pop\n      jump\t// out\n        /* \"#utility.yul\":9994:10359   */\n    tag_150:\n        /* \"#utility.yul\":10136:10139   */\n      0x00\n        /* \"#utility.yul\":10157:10223   */\n      tag_253\n        /* \"#utility.yul\":10221:10222   */\n      0x07\n        /* \"#utility.yul\":10216:10219   */\n      dup4\n        /* \"#utility.yul\":10157:10223   */\n      tag_144\n      jump\t// in\n    tag_253:\n        /* \"#utility.yul\":10150:10223   */\n      swap2\n      pop\n        /* \"#utility.yul\":10232:10325   */\n      tag_254\n        /* \"#utility.yul\":10321:10324   */\n      dup3\n        /* \"#utility.yul\":10232:10325   */\n      tag_149\n      jump\t// in\n    tag_254:\n        /* \"#utility.yul\":10350:10352   */\n      0x20\n        /* \"#utility.yul\":10345:10348   */\n      dup3\n        /* \"#utility.yul\":10341:10353   */\n      add\n        /* \"#utility.yul\":10334:10353   */\n      swap1\n      pop\n        /* \"#utility.yul\":9994:10359   */\n      swap2\n      swap1\n      pop\n      jump\t// out\n        /* \"#utility.yul\":10365:10784   */\n    tag_81:\n        /* \"#utility.yul\":10531:10535   */\n      0x00\n        /* \"#utility.yul\":10569:10571   */\n      0x20\n        /* \"#utility.yul\":10558:10567   */\n      dup3\n        /* \"#utility.yul\":10554:10572   */\n      add\n        /* \"#utility.yul\":10546:10572   */\n      swap1\n      pop\n        /* \"#utility.yul\":10618:10627   */\n      dup2\n        /* \"#utility.yul\":10612:10616   */\n      dup2\n        /* \"#utility.yul\":10608:10628   */\n      sub\n        /* \"#utility.yul\":10604:10605   */\n      0x00\n        /* \"#utility.yul\":10593:10602   */\n      dup4\n        /* \"#utility.yul\":10589:10606   */\n      add\n        /* \"#utility.yul\":10582:10629   */\n      mstore\n        /* \"#utility.yul\":10646:10777   */\n      tag_256\n        /* \"#utility.yul\":10772:10776   */\n      dup2\n        /* \"#utility.yul\":10646:10777   */\n      tag_150\n      jump\t// in\n    tag_256:\n        /* \"#utility.yul\":10638:10777   */\n      swap1\n      pop\n        /* \"#utility.yul\":10365:10784   */\n      swap2\n      swap1\n      pop\n      jump\t// out\n        /* \"#utility.yul\":10790:10984   */\n    tag_89:\n        /* \"#utility.yul\":10830:10834   */\n      0x00\n        /* \"#utility.yul\":10850:10870   */\n      tag_258\n        /* \"#utility.yul\":10868:10869   */\n      dup3\n        /* \"#utility.yul\":10850:10870   */\n      tag_126\n      jump\t// in\n    tag_258:\n        /* \"#utility.yul\":10845:10870   */\n      swap2\n      pop\n        /* \"#utility.yul\":10884:10904   */\n      tag_259\n        /* \"#utility.yul\":10902:10903   */\n      dup4\n        /* \"#utility.yul\":10884:10904   */\n      tag_126\n      jump\t// in\n    tag_259:\n        /* \"#utility.yul\":10879:10904   */\n      swap3\n      pop\n        /* \"#utility.yul\":10928:10929   */\n      dup3\n        /* \"#utility.yul\":10925:10926   */\n      dup3\n        /* \"#utility.yul\":10921:10930   */\n      sub\n        /* \"#utility.yul\":10913:10930   */\n      swap1\n      pop\n        /* \"#utility.yul\":10952:10953   */\n      dup2\n        /* \"#utility.yul\":10946:10950   */\n      dup2\n        /* \"#utility.yul\":10943:10954   */\n      gt\n        /* \"#utility.yul\":10940:10977   */\n      iszero\n      tag_260\n      jumpi\n        /* \"#utility.yul\":10957:10975   */\n      tag_261\n      tag_142\n      jump\t// in\n    tag_261:\n        /* \"#utility.yul\":10940:10977   */\n    tag_260:\n        /* \"#utility.yul\":10790:10984   */\n      swap3\n      swap2\n      pop\n      pop\n      jump\t// out\n        /* \"#utility.yul\":10990:11147   */\n    tag_151:\n        /* \"#utility.yul\":11130:11139   */\n      0x6572726f72303700000000000000000000000000000000000000000000000000\n        /* \"#utility.yul\":11126:11127   */\n      0x00\n        /* \"#utility.yul\":11118:11124   */\n      dup3\n        /* \"#utility.yul\":11114:11128   */\n      add\n        /* \"#utility.yul\":11107:11140   */\n      mstore\n        /* \"#utility.yul\":10990:11147   */\n      pop\n      jump\t// out\n        /* \"#utility.yul\":11153:11518   */\n    tag_152:\n        /* \"#utility.yul\":11295:11298   */\n      0x00\n        /* \"#utility.yul\":11316:11382   */\n      tag_264\n        /* \"#utility.yul\":11380:11381   */\n      0x07\n        /* \"#utility.yul\":11375:11378   */\n      dup4\n        /* \"#utility.yul\":11316:11382   */\n      tag_144\n      jump\t// in\n    tag_264:\n        /* \"#utility.yul\":11309:11382   */\n      swap2\n      pop\n        /* \"#utility.yul\":11391:11484   */\n      tag_265\n        /* \"#utility.yul\":11480:11483   */\n      dup3\n        /* \"#utility.yul\":11391:11484   */\n      tag_151\n      jump\t// in\n    tag_265:\n        /* \"#utility.yul\":11509:11511   */\n      0x20\n        /* \"#utility.yul\":11504:11507   */\n      dup3\n        /* \"#utility.yul\":11500:11512   */\n      add\n        /* \"#utility.yul\":11493:11512   */\n      swap1\n      pop\n        /* \"#utility.yul\":11153:11518   */\n      swap2\n      swap1\n      pop\n      jump\t// out\n        /* \"#utility.yul\":11524:11943   */\n    tag_95:\n        /* \"#utility.yul\":11690:11694   */\n      0x00\n        /* \"#utility.yul\":11728:11730   */\n      0x20\n        /* \"#utility.yul\":11717:11726   */\n      dup3\n        /* \"#utility.yul\":11713:11731   */\n      add\n        /* \"#utility.yul\":11705:11731   */\n      swap1\n      pop\n        /* \"#utility.yul\":11777:11786   */\n      dup2\n        /* \"#utility.yul\":11771:11775   */\n      dup2\n        /* \"#utility.yul\":11767:11787   */\n      sub\n        /* \"#utility.yul\":11763:11764   */\n      0x00\n        /* \"#utility.yul\":11752:11761   */\n      dup4\n        /* \"#utility.yul\":11748:11765   */\n      add\n        /* \"#utility.yul\":11741:11788   */\n      mstore\n        /* \"#utility.yul\":11805:11936   */\n      tag_267\n        /* \"#utility.yul\":11931:11935   */\n      dup2\n        /* \"#utility.yul\":11805:11936   */\n      tag_152\n      jump\t// in\n    tag_267:\n        /* \"#utility.yul\":11797:11936   */\n      swap1\n      pop\n        /* \"#utility.yul\":11524:11943   */\n      swap2\n      swap1\n      pop\n      jump\t// out\n        /* \"#utility.yul\":11949:12120   */\n    tag_115:\n        /* \"#utility.yul\":11988:11991   */\n      0x00\n        /* \"#utility.yul\":12011:12035   */\n      tag_269\n        /* \"#utility.yul\":12029:12034   */\n      dup3\n        /* \"#utility.yul\":12011:12035   */\n      tag_126\n      jump\t// in\n    tag_269:\n        /* \"#utility.yul\":12002:12035   */\n      swap2\n      pop\n        /* \"#utility.yul\":12057:12061   */\n      0x00\n        /* \"#utility.yul\":12050:12055   */\n      dup3\n        /* \"#utility.yul\":12047:12062   */\n      sub\n        /* \"#utility.yul\":12044:12085   */\n      tag_270\n      jumpi\n        /* \"#utility.yul\":12065:12083   */\n      tag_271\n      tag_142\n      jump\t// in\n    tag_271:\n        /* \"#utility.yul\":12044:12085   */\n    tag_270:\n        /* \"#utility.yul\":12112:12113   */\n      0x01\n        /* \"#utility.yul\":12105:12110   */\n      dup3\n        /* \"#utility.yul\":12101:12114   */\n      sub\n        /* \"#utility.yul\":12094:12114   */\n      swap1\n      pop\n        /* \"#utility.yul\":11949:12120   */\n      swap2\n      swap1\n      pop\n      jump\t// out\n\n    auxdata: 0xa26469706673582212202eb8cb1d31145928ffaa720b3b9102a267e6f83ac6a1c797a097dde9d60c1e6664736f6c63430008120033\n}\n",
				"bytecode": {
					"linkReferences": {},
					"object": "608060405234801561001057600080fd5b506113b0806100206000396000f3fe608060405234801561001057600080fd5b50600436106100935760003560e01c8063694e80c311610066578063694e80c31461013457806381244e5d14610150578063c0f0b3f11461016e578063ef11783c1461018a578063ff87578c146101ba57610093565b8063029c81e3146100985780630c3dfc1a146100b657806354910298146100d45780636876a95e14610104575b600080fd5b6100a06101ea565b6040516100ad9190610e1a565b60405180910390f35b6100be61033d565b6040516100cb9190610e55565b60405180910390f35b6100ee60048036038101906100e99190610ecd565b610343565b6040516100fb9190610f9d565b60405180910390f35b61011e60048036038101906101199190610fbf565b6103de565b60405161012b9190610f9d565b60405180910390f35b61014e60048036038101906101499190610fbf565b610476565b005b6101586105b0565b6040516101659190610e55565b60405180910390f35b61018860048036038101906101839190610ecd565b6105ba565b005b6101a4600480360381019061019f9190610fec565b610724565b6040516101b19190611034565b60405180910390f35b6101d460048036038101906101cf9190610ecd565b61087e565b6040516101e19190610f9d565b60405180910390f35b60606000805467ffffffffffffffff8111156102095761020861104f565b5b6040519080825280602002602001820160405280156102375781602001602082028036833780820191505090505b509050600060026000600173ffffffffffffffffffffffffffffffffffffffff1673ffffffffffffffffffffffffffffffffffffffff1681526020019081526020016000206000600115151515815260200190815260200160002060009054906101000a900473ffffffffffffffffffffffffffffffffffffffff16905060005b60005481101561033457818382815181106102d6576102d561107e565b5b602002602001019073ffffffffffffffffffffffffffffffffffffffff16908173ffffffffffffffffffffffffffffffffffffffff168152505061031b826001610919565b905080925050808061032c906110dc565b9150506102b8565b82935050505090565b60005481565b60607fc0f0b3f17d4cd2b558f2e7888914cd773111e1da10e55baf4d1f32e1f6c2222f8383604051602401610379929190611133565b604051602081830303815290604052907bffffffffffffffffffffffffffffffffffffffffffffffffffffffff19166020820180517bffffffffffffffffffffffffffffffffffffffffffffffffffffffff8381831617835250505050905092915050565b60607f694e80c37192d74d6099f3d3b41506932ab644a24442ee51857cfeb9eb01ac2f826040516024016104129190610e55565b604051602081830303815290604052907bffffffffffffffffffffffffffffffffffffffffffffffffffffffff19166020820180517bffffffffffffffffffffffffffffffffffffffffffffffffffffffff83818316178352505050509050919050565b3073ffffffffffffffffffffffffffffffffffffffff163373ffffffffffffffffffffffffffffffffffffffff16146104e4576040517f08c379a00000000000000000000000000000000000000000000000000000000081526004016104db906111b9565b60405180910390fd5b600054811115610529576040517f08c379a000000000000000000000000000000000000000000000000000000000815260040161052090611225565b60405180910390fd5b600181101561056d576040517f08c379a000000000000000000000000000000000000000000000000000000000815260040161056490611291565b60405180910390fd5b806001819055507f9947ac58e204d2da07b9748298663b3b77da7fb0638201d778987ded7c90fbaa6001546040516105a59190610e55565b60405180910390a150565b6000600154905090565b3073ffffffffffffffffffffffffffffffffffffffff163373ffffffffffffffffffffffffffffffffffffffff1614610628576040517f08c379a000000000000000000000000000000000000000000000000000000000815260040161061f906111b9565b60405180910390fd5b80600160005461063891906112b1565b1015610679576040517f08c379a000000000000000000000000000000000000000000000000000000000815260040161067090611225565b60405180910390fd5b61068282610724565b6106c1576040517f08c379a00000000000000000000000000000000000000000000000000000000081526004016106b890611331565b60405180910390fd5b6106ca826109b8565b8173ffffffffffffffffffffffffffffffffffffffff167fac6e8398676cf37429d530b81144d7079e99f4fe9d28b0d88c4a749ceccbe8cd60405160405180910390a260015481146107205761071f81610476565b5b5050565b60008073ffffffffffffffffffffffffffffffffffffffff16600260008473ffffffffffffffffffffffffffffffffffffffff1673ffffffffffffffffffffffffffffffffffffffff16815260200190815260200160002060008015151515815260200190815260200160002060009054906101000a900473ffffffffffffffffffffffffffffffffffffffff1673ffffffffffffffffffffffffffffffffffffffff161415806108775750600073ffffffffffffffffffffffffffffffffffffffff16600260008473ffffffffffffffffffffffffffffffffffffffff1673ffffffffffffffffffffffffffffffffffffffff1681526020019081526020016000206000600115151515815260200190815260200160002060009054906101000a900473ffffffffffffffffffffffffffffffffffffffff1673ffffffffffffffffffffffffffffffffffffffff1614155b9050919050565b60607f0c54620469a3eeff8e01e9971bcf46e640abbf3fa3139aa3afa97959f3d7449983836040516024016108b4929190611133565b604051602081830303815290604052907bffffffffffffffffffffffffffffffffffffffffffffffffffffffff19166020820180517bffffffffffffffffffffffffffffffffffffffffffffffffffffffff8381831617835250505050905092915050565b60008061092584610724565b61093557600080915091506109b1565b6001600260008673ffffffffffffffffffffffffffffffffffffffff1673ffffffffffffffffffffffffffffffffffffffff16815260200190815260200160002060008515151515815260200190815260200160002060009054906101000a900473ffffffffffffffffffffffffffffffffffffffff16915091505b9250929050565b6109c181610724565b610a00576040517f08c379a00000000000000000000000000000000000000000000000000000000081526004016109f790611331565b60405180910390fd5b610af5600260008373ffffffffffffffffffffffffffffffffffffffff1673ffffffffffffffffffffffffffffffffffffffff16815260200190815260200160002060008015151515815260200190815260200160002060009054906101000a900473ffffffffffffffffffffffffffffffffffffffff16600260008473ffffffffffffffffffffffffffffffffffffffff1673ffffffffffffffffffffffffffffffffffffffff1681526020019081526020016000206000600115151515815260200190815260200160002060009054906101000a900473ffffffffffffffffffffffffffffffffffffffff166001610bfe565b600260008273ffffffffffffffffffffffffffffffffffffffff1673ffffffffffffffffffffffffffffffffffffffff16815260200190815260200160002060008015151515815260200190815260200160002060006101000a81549073ffffffffffffffffffffffffffffffffffffffff0219169055600260008273ffffffffffffffffffffffffffffffffffffffff1673ffffffffffffffffffffffffffffffffffffffff1681526020019081526020016000206000600115151515815260200190815260200160002060006101000a81549073ffffffffffffffffffffffffffffffffffffffff0219169055600080815480929190610bf690611351565b919050555050565b82600260008473ffffffffffffffffffffffffffffffffffffffff1673ffffffffffffffffffffffffffffffffffffffff1681526020019081526020016000206000831515151515815260200190815260200160002060006101000a81548173ffffffffffffffffffffffffffffffffffffffff021916908373ffffffffffffffffffffffffffffffffffffffff16021790555081600260008573ffffffffffffffffffffffffffffffffffffffff1673ffffffffffffffffffffffffffffffffffffffff16815260200190815260200160002060008315151515815260200190815260200160002060006101000a81548173ffffffffffffffffffffffffffffffffffffffff021916908373ffffffffffffffffffffffffffffffffffffffff160217905550505050565b600081519050919050565b600082825260208201905092915050565b6000819050602082019050919050565b600073ffffffffffffffffffffffffffffffffffffffff82169050919050565b6000610d8182610d56565b9050919050565b610d9181610d76565b82525050565b6000610da38383610d88565b60208301905092915050565b6000602082019050919050565b6000610dc782610d2a565b610dd18185610d35565b9350610ddc83610d46565b8060005b83811015610e0d578151610df48882610d97565b9750610dff83610daf565b925050600181019050610de0565b5085935050505092915050565b60006020820190508181036000830152610e348184610dbc565b905092915050565b6000819050919050565b610e4f81610e3c565b82525050565b6000602082019050610e6a6000830184610e46565b92915050565b600080fd5b610e7e81610d76565b8114610e8957600080fd5b50565b600081359050610e9b81610e75565b92915050565b610eaa81610e3c565b8114610eb557600080fd5b50565b600081359050610ec781610ea1565b92915050565b60008060408385031215610ee457610ee3610e70565b5b6000610ef285828601610e8c565b9250506020610f0385828601610eb8565b9150509250929050565b600081519050919050565b600082825260208201905092915050565b60005b83811015610f47578082015181840152602081019050610f2c565b60008484015250505050565b6000601f19601f8301169050919050565b6000610f6f82610f0d565b610f798185610f18565b9350610f89818560208601610f29565b610f9281610f53565b840191505092915050565b60006020820190508181036000830152610fb78184610f64565b905092915050565b600060208284031215610fd557610fd4610e70565b5b6000610fe384828501610eb8565b91505092915050565b60006020828403121561100257611001610e70565b5b600061101084828501610e8c565b91505092915050565b60008115159050919050565b61102e81611019565b82525050565b60006020820190506110496000830184611025565b92915050565b7f4e487b7100000000000000000000000000000000000000000000000000000000600052604160045260246000fd5b7f4e487b7100000000000000000000000000000000000000000000000000000000600052603260045260246000fd5b7f4e487b7100000000000000000000000000000000000000000000000000000000600052601160045260246000fd5b60006110e782610e3c565b91507fffffffffffffffffffffffffffffffffffffffffffffffffffffffffffffffff8203611119576111186110ad565b5b600182019050919050565b61112d81610d76565b82525050565b60006040820190506111486000830185611124565b6111556020830184610e46565b9392505050565b600082825260208201905092915050565b7f4e6f7420617574686f72697a6564000000000000000000000000000000000000600082015250565b60006111a3600e8361115c565b91506111ae8261116d565b602082019050919050565b600060208201905081810360008301526111d281611196565b9050919050565b7f6572726f72303200000000000000000000000000000000000000000000000000600082015250565b600061120f60078361115c565b915061121a826111d9565b602082019050919050565b6000602082019050818103600083015261123e81611202565b9050919050565b7f6572726f72303300000000000000000000000000000000000000000000000000600082015250565b600061127b60078361115c565b915061128682611245565b602082019050919050565b600060208201905081810360008301526112aa8161126e565b9050919050565b60006112bc82610e3c565b91506112c783610e3c565b92508282039050818111156112df576112de6110ad565b5b92915050565b7f6572726f72303700000000000000000000000000000000000000000000000000600082015250565b600061131b60078361115c565b9150611326826112e5565b602082019050919050565b6000602082019050818103600083015261134a8161130e565b9050919050565b600061135c82610e3c565b91506000820361136f5761136e6110ad565b5b60018203905091905056fea26469706673582212202eb8cb1d31145928ffaa720b3b9102a267e6f83ac6a1c797a097dde9d60c1e6664736f6c63430008120033",
					"opcodes": "PUSH1 0x80 PUSH1 0x40 MSTORE CALLVALUE DUP1 ISZERO PUSH2 0x10 JUMPI PUSH1 0x0 DUP1 REVERT JUMPDEST POP PUSH2 0x13B0 DUP1 PUSH2 0x20 PUSH1 0x0 CODECOPY PUSH1 0x0 RETURN INVALID PUSH1 0x80 PUSH1 0x40 MSTORE CALLVALUE DUP1 ISZERO PUSH2 0x10 JUMPI PUSH1 0x0 DUP1 REVERT JUMPDEST POP PUSH1 0x4 CALLDATASIZE LT PUSH2 0x93 JUMPI PUSH1 0x0 CALLDATALOAD PUSH1 0xE0 SHR DUP1 PUSH4 0x694E80C3 GT PUSH2 0x66 JUMPI DUP1 PUSH4 0x694E80C3 EQ PUSH2 0x134 JUMPI DUP1 PUSH4 0x81244E5D EQ PUSH2 0x150 JUMPI DUP1 PUSH4 0xC0F0B3F1 EQ PUSH2 0x16E JUMPI DUP1 PUSH4 0xEF11783C EQ PUSH2 0x18A JUMPI DUP1 PUSH4 0xFF87578C EQ PUSH2 0x1BA JUMPI PUSH2 0x93 JUMP JUMPDEST DUP1 PUSH4 0x29C81E3 EQ PUSH2 0x98 JUMPI DUP1 PUSH4 0xC3DFC1A EQ PUSH2 0xB6 JUMPI DUP1 PUSH4 0x54910298 EQ PUSH2 0xD4 JUMPI DUP1 PUSH4 0x6876A95E EQ PUSH2 0x104 JUMPI JUMPDEST PUSH1 0x0 DUP1 REVERT JUMPDEST PUSH2 0xA0 PUSH2 0x1EA JUMP JUMPDEST PUSH1 0x40 MLOAD PUSH2 0xAD SWAP2 SWAP1 PUSH2 0xE1A JUMP JUMPDEST PUSH1 0x40 MLOAD DUP1 SWAP2 SUB SWAP1 RETURN JUMPDEST PUSH2 0xBE PUSH2 0x33D JUMP JUMPDEST PUSH1 0x40 MLOAD PUSH2 0xCB SWAP2 SWAP1 PUSH2 0xE55 JUMP JUMPDEST PUSH1 0x40 MLOAD DUP1 SWAP2 SUB SWAP1 RETURN JUMPDEST PUSH2 0xEE PUSH1 0x4 DUP1 CALLDATASIZE SUB DUP2 ADD SWAP1 PUSH2 0xE9 SWAP2 SWAP1 PUSH2 0xECD JUMP JUMPDEST PUSH2 0x343 JUMP JUMPDEST PUSH1 0x40 MLOAD PUSH2 0xFB SWAP2 SWAP1 PUSH2 0xF9D JUMP JUMPDEST PUSH1 0x40 MLOAD DUP1 SWAP2 SUB SWAP1 RETURN JUMPDEST PUSH2 0x11E PUSH1 0x4 DUP1 CALLDATASIZE SUB DUP2 ADD SWAP1 PUSH2 0x119 SWAP2 SWAP1 PUSH2 0xFBF JUMP JUMPDEST PUSH2 0x3DE JUMP JUMPDEST PUSH1 0x40 MLOAD PUSH2 0x12B SWAP2 SWAP1 PUSH2 0xF9D JUMP JUMPDEST PUSH1 0x40 MLOAD DUP1 SWAP2 SUB SWAP1 RETURN JUMPDEST PUSH2 0x14E PUSH1 0x4 DUP1 CALLDATASIZE SUB DUP2 ADD SWAP1 PUSH2 0x149 SWAP2 SWAP1 PUSH2 0xFBF JUMP JUMPDEST PUSH2 0x476 JUMP JUMPDEST STOP JUMPDEST PUSH2 0x158 PUSH2 0x5B0 JUMP JUMPDEST PUSH1 0x40 MLOAD PUSH2 0x165 SWAP2 SWAP1 PUSH2 0xE55 JUMP JUMPDEST PUSH1 0x40 MLOAD DUP1 SWAP2 SUB SWAP1 RETURN JUMPDEST PUSH2 0x188 PUSH1 0x4 DUP1 CALLDATASIZE SUB DUP2 ADD SWAP1 PUSH2 0x183 SWAP2 SWAP1 PUSH2 0xECD JUMP JUMPDEST PUSH2 0x5BA JUMP JUMPDEST STOP JUMPDEST PUSH2 0x1A4 PUSH1 0x4 DUP1 CALLDATASIZE SUB DUP2 ADD SWAP1 PUSH2 0x19F SWAP2 SWAP1 PUSH2 0xFEC JUMP JUMPDEST PUSH2 0x724 JUMP JUMPDEST PUSH1 0x40 MLOAD PUSH2 0x1B1 SWAP2 SWAP1 PUSH2 0x1034 JUMP JUMPDEST PUSH1 0x40 MLOAD DUP1 SWAP2 SUB SWAP1 RETURN JUMPDEST PUSH2 0x1D4 PUSH1 0x4 DUP1 CALLDATASIZE SUB DUP2 ADD SWAP1 PUSH2 0x1CF SWAP2 SWAP1 PUSH2 0xECD JUMP JUMPDEST PUSH2 0x87E JUMP JUMPDEST PUSH1 0x40 MLOAD PUSH2 0x1E1 SWAP2 SWAP1 PUSH2 0xF9D JUMP JUMPDEST PUSH1 0x40 MLOAD DUP1 SWAP2 SUB SWAP1 RETURN JUMPDEST PUSH1 0x60 PUSH1 0x0 DUP1 SLOAD PUSH8 0xFFFFFFFFFFFFFFFF DUP2 GT ISZERO PUSH2 0x209 JUMPI PUSH2 0x208 PUSH2 0x104F JUMP JUMPDEST JUMPDEST PUSH1 0x40 MLOAD SWAP1 DUP1 DUP3 MSTORE DUP1 PUSH1 0x20 MUL PUSH1 0x20 ADD DUP3 ADD PUSH1 0x40 MSTORE DUP1 ISZERO PUSH2 0x237 JUMPI DUP2 PUSH1 0x20 ADD PUSH1 0x20 DUP3 MUL DUP1 CALLDATASIZE DUP4 CALLDATACOPY DUP1 DUP3 ADD SWAP2 POP POP SWAP1 POP JUMPDEST POP SWAP1 POP PUSH1 0x0 PUSH1 0x2 PUSH1 0x0 PUSH1 0x1 PUSH20 0xFFFFFFFFFFFFFFFFFFFFFFFFFFFFFFFFFFFFFFFF AND PUSH20 0xFFFFFFFFFFFFFFFFFFFFFFFFFFFFFFFFFFFFFFFF AND DUP2 MSTORE PUSH1 0x20 ADD SWAP1 DUP2 MSTORE PUSH1 0x20 ADD PUSH1 0x0 KECCAK256 PUSH1 0x0 PUSH1 0x1 ISZERO ISZERO ISZERO ISZERO DUP2 MSTORE PUSH1 0x20 ADD SWAP1 DUP2 MSTORE PUSH1 0x20 ADD PUSH1 0x0 KECCAK256 PUSH1 0x0 SWAP1 SLOAD SWAP1 PUSH2 0x100 EXP SWAP1 DIV PUSH20 0xFFFFFFFFFFFFFFFFFFFFFFFFFFFFFFFFFFFFFFFF AND SWAP1 POP PUSH1 0x0 JUMPDEST PUSH1 0x0 SLOAD DUP2 LT ISZERO PUSH2 0x334 JUMPI DUP2 DUP4 DUP3 DUP2 MLOAD DUP2 LT PUSH2 0x2D6 JUMPI PUSH2 0x2D5 PUSH2 0x107E JUMP JUMPDEST JUMPDEST PUSH1 0x20 MUL PUSH1 0x20 ADD ADD SWAP1 PUSH20 0xFFFFFFFFFFFFFFFFFFFFFFFFFFFFFFFFFFFFFFFF AND SWAP1 DUP2 PUSH20 0xFFFFFFFFFFFFFFFFFFFFFFFFFFFFFFFFFFFFFFFF AND DUP2 MSTORE POP POP PUSH2 0x31B DUP3 PUSH1 0x1 PUSH2 0x919 JUMP JUMPDEST SWAP1 POP DUP1 SWAP3 POP POP DUP1 DUP1 PUSH2 0x32C SWAP1 PUSH2 0x10DC JUMP JUMPDEST SWAP2 POP POP PUSH2 0x2B8 JUMP JUMPDEST DUP3 SWAP4 POP POP POP POP SWAP1 JUMP JUMPDEST PUSH1 0x0 SLOAD DUP2 JUMP JUMPDEST PUSH1 0x60 PUSH32 0xC0F0B3F17D4CD2B558F2E7888914CD773111E1DA10E55BAF4D1F32E1F6C2222F DUP4 DUP4 PUSH1 0x40 MLOAD PUSH1 0x24 ADD PUSH2 0x379 SWAP3 SWAP2 SWAP1 PUSH2 0x1133 JUMP JUMPDEST PUSH1 0x40 MLOAD PUSH1 0x20 DUP2 DUP4 SUB SUB DUP2 MSTORE SWAP1 PUSH1 0x40 MSTORE SWAP1 PUSH28 0xFFFFFFFFFFFFFFFFFFFFFFFFFFFFFFFFFFFFFFFFFFFFFFFFFFFFFFFF NOT AND PUSH1 0x20 DUP3 ADD DUP1 MLOAD PUSH28 0xFFFFFFFFFFFFFFFFFFFFFFFFFFFFFFFFFFFFFFFFFFFFFFFFFFFFFFFF DUP4 DUP2 DUP4 AND OR DUP4 MSTORE POP POP POP POP SWAP1 POP SWAP3 SWAP2 POP POP JUMP JUMPDEST PUSH1 0x60 PUSH32 0x694E80C37192D74D6099F3D3B41506932AB644A24442EE51857CFEB9EB01AC2F DUP3 PUSH1 0x40 MLOAD PUSH1 0x24 ADD PUSH2 0x412 SWAP2 SWAP1 PUSH2 0xE55 JUMP JUMPDEST PUSH1 0x40 MLOAD PUSH1 0x20 DUP2 DUP4 SUB SUB DUP2 MSTORE SWAP1 PUSH1 0x40 MSTORE SWAP1 PUSH28 0xFFFFFFFFFFFFFFFFFFFFFFFFFFFFFFFFFFFFFFFFFFFFFFFFFFFFFFFF NOT AND PUSH1 0x20 DUP3 ADD DUP1 MLOAD PUSH28 0xFFFFFFFFFFFFFFFFFFFFFFFFFFFFFFFFFFFFFFFFFFFFFFFFFFFFFFFF DUP4 DUP2 DUP4 AND OR DUP4 MSTORE POP POP POP POP SWAP1 POP SWAP2 SWAP1 POP JUMP JUMPDEST ADDRESS PUSH20 0xFFFFFFFFFFFFFFFFFFFFFFFFFFFFFFFFFFFFFFFF AND CALLER PUSH20 0xFFFFFFFFFFFFFFFFFFFFFFFFFFFFFFFFFFFFFFFF AND EQ PUSH2 0x4E4 JUMPI PUSH1 0x40 MLOAD PUSH32 0x8C379A000000000000000000000000000000000000000000000000000000000 DUP2 MSTORE PUSH1 0x4 ADD PUSH2 0x4DB SWAP1 PUSH2 0x11B9 JUMP JUMPDEST PUSH1 0x40 MLOAD DUP1 SWAP2 SUB SWAP1 REVERT JUMPDEST PUSH1 0x0 SLOAD DUP2 GT ISZERO PUSH2 0x529 JUMPI PUSH1 0x40 MLOAD PUSH32 0x8C379A000000000000000000000000000000000000000000000000000000000 DUP2 MSTORE PUSH1 0x4 ADD PUSH2 0x520 SWAP1 PUSH2 0x1225 JUMP JUMPDEST PUSH1 0x40 MLOAD DUP1 SWAP2 SUB SWAP1 REVERT JUMPDEST PUSH1 0x1 DUP2 LT ISZERO PUSH2 0x56D JUMPI PUSH1 0x40 MLOAD PUSH32 0x8C379A000000000000000000000000000000000000000000000000000000000 DUP2 MSTORE PUSH1 0x4 ADD PUSH2 0x564 SWAP1 PUSH2 0x1291 JUMP JUMPDEST PUSH1 0x40 MLOAD DUP1 SWAP2 SUB SWAP1 REVERT JUMPDEST DUP1 PUSH1 0x1 DUP2 SWAP1 SSTORE POP PUSH32 0x9947AC58E204D2DA07B9748298663B3B77DA7FB0638201D778987DED7C90FBAA PUSH1 0x1 SLOAD PUSH1 0x40 MLOAD PUSH2 0x5A5 SWAP2 SWAP1 PUSH2 0xE55 JUMP JUMPDEST PUSH1 0x40 MLOAD DUP1 SWAP2 SUB SWAP1 LOG1 POP JUMP JUMPDEST PUSH1 0x0 PUSH1 0x1 SLOAD SWAP1 POP SWAP1 JUMP JUMPDEST ADDRESS PUSH20 0xFFFFFFFFFFFFFFFFFFFFFFFFFFFFFFFFFFFFFFFF AND CALLER PUSH20 0xFFFFFFFFFFFFFFFFFFFFFFFFFFFFFFFFFFFFFFFF AND EQ PUSH2 0x628 JUMPI PUSH1 0x40 MLOAD PUSH32 0x8C379A000000000000000000000000000000000000000000000000000000000 DUP2 MSTORE PUSH1 0x4 ADD PUSH2 0x61F SWAP1 PUSH2 0x11B9 JUMP JUMPDEST PUSH1 0x40 MLOAD DUP1 SWAP2 SUB SWAP1 REVERT JUMPDEST DUP1 PUSH1 0x1 PUSH1 0x0 SLOAD PUSH2 0x638 SWAP2 SWAP1 PUSH2 0x12B1 JUMP JUMPDEST LT ISZERO PUSH2 0x679 JUMPI PUSH1 0x40 MLOAD PUSH32 0x8C379A000000000000000000000000000000000000000000000000000000000 DUP2 MSTORE PUSH1 0x4 ADD PUSH2 0x670 SWAP1 PUSH2 0x1225 JUMP JUMPDEST PUSH1 0x40 MLOAD DUP1 SWAP2 SUB SWAP1 REVERT JUMPDEST PUSH2 0x682 DUP3 PUSH2 0x724 JUMP JUMPDEST PUSH2 0x6C1 JUMPI PUSH1 0x40 MLOAD PUSH32 0x8C379A000000000000000000000000000000000000000000000000000000000 DUP2 MSTORE PUSH1 0x4 ADD PUSH2 0x6B8 SWAP1 PUSH2 0x1331 JUMP JUMPDEST PUSH1 0x40 MLOAD DUP1 SWAP2 SUB SWAP1 REVERT JUMPDEST PUSH2 0x6CA DUP3 PUSH2 0x9B8 JUMP JUMPDEST DUP2 PUSH20 0xFFFFFFFFFFFFFFFFFFFFFFFFFFFFFFFFFFFFFFFF AND PUSH32 0xAC6E8398676CF37429D530B81144D7079E99F4FE9D28B0D88C4A749CECCBE8CD PUSH1 0x40 MLOAD PUSH1 0x40 MLOAD DUP1 SWAP2 SUB SWAP1 LOG2 PUSH1 0x1 SLOAD DUP2 EQ PUSH2 0x720 JUMPI PUSH2 0x71F DUP2 PUSH2 0x476 JUMP JUMPDEST JUMPDEST POP POP JUMP JUMPDEST PUSH1 0x0 DUP1 PUSH20 0xFFFFFFFFFFFFFFFFFFFFFFFFFFFFFFFFFFFFFFFF AND PUSH1 0x2 PUSH1 0x0 DUP5 PUSH20 0xFFFFFFFFFFFFFFFFFFFFFFFFFFFFFFFFFFFFFFFF AND PUSH20 0xFFFFFFFFFFFFFFFFFFFFFFFFFFFFFFFFFFFFFFFF AND DUP2 MSTORE PUSH1 0x20 ADD SWAP1 DUP2 MSTORE PUSH1 0x20 ADD PUSH1 0x0 KECCAK256 PUSH1 0x0 DUP1 ISZERO ISZERO ISZERO ISZERO DUP2 MSTORE PUSH1 0x20 ADD SWAP1 DUP2 MSTORE PUSH1 0x20 ADD PUSH1 0x0 KECCAK256 PUSH1 0x0 SWAP1 SLOAD SWAP1 PUSH2 0x100 EXP SWAP1 DIV PUSH20 0xFFFFFFFFFFFFFFFFFFFFFFFFFFFFFFFFFFFFFFFF AND PUSH20 0xFFFFFFFFFFFFFFFFFFFFFFFFFFFFFFFFFFFFFFFF AND EQ ISZERO DUP1 PUSH2 0x877 JUMPI POP PUSH1 0x0 PUSH20 0xFFFFFFFFFFFFFFFFFFFFFFFFFFFFFFFFFFFFFFFF AND PUSH1 0x2 PUSH1 0x0 DUP5 PUSH20 0xFFFFFFFFFFFFFFFFFFFFFFFFFFFFFFFFFFFFFFFF AND PUSH20 0xFFFFFFFFFFFFFFFFFFFFFFFFFFFFFFFFFFFFFFFF AND DUP2 MSTORE PUSH1 0x20 ADD SWAP1 DUP2 MSTORE PUSH1 0x20 ADD PUSH1 0x0 KECCAK256 PUSH1 0x0 PUSH1 0x1 ISZERO ISZERO ISZERO ISZERO DUP2 MSTORE PUSH1 0x20 ADD SWAP1 DUP2 MSTORE PUSH1 0x20 ADD PUSH1 0x0 KECCAK256 PUSH1 0x0 SWAP1 SLOAD SWAP1 PUSH2 0x100 EXP SWAP1 DIV PUSH20 0xFFFFFFFFFFFFFFFFFFFFFFFFFFFFFFFFFFFFFFFF AND PUSH20 0xFFFFFFFFFFFFFFFFFFFFFFFFFFFFFFFFFFFFFFFF AND EQ ISZERO JUMPDEST SWAP1 POP SWAP2 SWAP1 POP JUMP JUMPDEST PUSH1 0x60 PUSH32 0xC54620469A3EEFF8E01E9971BCF46E640ABBF3FA3139AA3AFA97959F3D74499 DUP4 DUP4 PUSH1 0x40 MLOAD PUSH1 0x24 ADD PUSH2 0x8B4 SWAP3 SWAP2 SWAP1 PUSH2 0x1133 JUMP JUMPDEST PUSH1 0x40 MLOAD PUSH1 0x20 DUP2 DUP4 SUB SUB DUP2 MSTORE SWAP1 PUSH1 0x40 MSTORE SWAP1 PUSH28 0xFFFFFFFFFFFFFFFFFFFFFFFFFFFFFFFFFFFFFFFFFFFFFFFFFFFFFFFF NOT AND PUSH1 0x20 DUP3 ADD DUP1 MLOAD PUSH28 0xFFFFFFFFFFFFFFFFFFFFFFFFFFFFFFFFFFFFFFFFFFFFFFFFFFFFFFFF DUP4 DUP2 DUP4 AND OR DUP4 MSTORE POP POP POP POP SWAP1 POP SWAP3 SWAP2 POP POP JUMP JUMPDEST PUSH1 0x0 DUP1 PUSH2 0x925 DUP5 PUSH2 0x724 JUMP JUMPDEST PUSH2 0x935 JUMPI PUSH1 0x0 DUP1 SWAP2 POP SWAP2 POP PUSH2 0x9B1 JUMP JUMPDEST PUSH1 0x1 PUSH1 0x2 PUSH1 0x0 DUP7 PUSH20 0xFFFFFFFFFFFFFFFFFFFFFFFFFFFFFFFFFFFFFFFF AND PUSH20 0xFFFFFFFFFFFFFFFFFFFFFFFFFFFFFFFFFFFFFFFF AND DUP2 MSTORE PUSH1 0x20 ADD SWAP1 DUP2 MSTORE PUSH1 0x20 ADD PUSH1 0x0 KECCAK256 PUSH1 0x0 DUP6 ISZERO ISZERO ISZERO ISZERO DUP2 MSTORE PUSH1 0x20 ADD SWAP1 DUP2 MSTORE PUSH1 0x20 ADD PUSH1 0x0 KECCAK256 PUSH1 0x0 SWAP1 SLOAD SWAP1 PUSH2 0x100 EXP SWAP1 DIV PUSH20 0xFFFFFFFFFFFFFFFFFFFFFFFFFFFFFFFFFFFFFFFF AND SWAP2 POP SWAP2 POP JUMPDEST SWAP3 POP SWAP3 SWAP1 POP JUMP JUMPDEST PUSH2 0x9C1 DUP2 PUSH2 0x724 JUMP JUMPDEST PUSH2 0xA00 JUMPI PUSH1 0x40 MLOAD PUSH32 0x8C379A000000000000000000000000000000000000000000000000000000000 DUP2 MSTORE PUSH1 0x4 ADD PUSH2 0x9F7 SWAP1 PUSH2 0x1331 JUMP JUMPDEST PUSH1 0x40 MLOAD DUP1 SWAP2 SUB SWAP1 REVERT JUMPDEST PUSH2 0xAF5 PUSH1 0x2 PUSH1 0x0 DUP4 PUSH20 0xFFFFFFFFFFFFFFFFFFFFFFFFFFFFFFFFFFFFFFFF AND PUSH20 0xFFFFFFFFFFFFFFFFFFFFFFFFFFFFFFFFFFFFFFFF AND DUP2 MSTORE PUSH1 0x20 ADD SWAP1 DUP2 MSTORE PUSH1 0x20 ADD PUSH1 0x0 KECCAK256 PUSH1 0x0 DUP1 ISZERO ISZERO ISZERO ISZERO DUP2 MSTORE PUSH1 0x20 ADD SWAP1 DUP2 MSTORE PUSH1 0x20 ADD PUSH1 0x0 KECCAK256 PUSH1 0x0 SWAP1 SLOAD SWAP1 PUSH2 0x100 EXP SWAP1 DIV PUSH20 0xFFFFFFFFFFFFFFFFFFFFFFFFFFFFFFFFFFFFFFFF AND PUSH1 0x2 PUSH1 0x0 DUP5 PUSH20 0xFFFFFFFFFFFFFFFFFFFFFFFFFFFFFFFFFFFFFFFF AND PUSH20 0xFFFFFFFFFFFFFFFFFFFFFFFFFFFFFFFFFFFFFFFF AND DUP2 MSTORE PUSH1 0x20 ADD SWAP1 DUP2 MSTORE PUSH1 0x20 ADD PUSH1 0x0 KECCAK256 PUSH1 0x0 PUSH1 0x1 ISZERO ISZERO ISZERO ISZERO DUP2 MSTORE PUSH1 0x20 ADD SWAP1 DUP2 MSTORE PUSH1 0x20 ADD PUSH1 0x0 KECCAK256 PUSH1 0x0 SWAP1 SLOAD SWAP1 PUSH2 0x100 EXP SWAP1 DIV PUSH20 0xFFFFFFFFFFFFFFFFFFFFFFFFFFFFFFFFFFFFFFFF AND PUSH1 0x1 PUSH2 0xBFE JUMP JUMPDEST PUSH1 0x2 PUSH1 0x0 DUP3 PUSH20 0xFFFFFFFFFFFFFFFFFFFFFFFFFFFFFFFFFFFFFFFF AND PUSH20 0xFFFFFFFFFFFFFFFFFFFFFFFFFFFFFFFFFFFFFFFF AND DUP2 MSTORE PUSH1 0x20 ADD SWAP1 DUP2 MSTORE PUSH1 0x20 ADD PUSH1 0x0 KECCAK256 PUSH1 0x0 DUP1 ISZERO ISZERO ISZERO ISZERO DUP2 MSTORE PUSH1 0x20 ADD SWAP1 DUP2 MSTORE PUSH1 0x20 ADD PUSH1 0x0 KECCAK256 PUSH1 0x0 PUSH2 0x100 EXP DUP2 SLOAD SWAP1 PUSH20 0xFFFFFFFFFFFFFFFFFFFFFFFFFFFFFFFFFFFFFFFF MUL NOT AND SWAP1 SSTORE PUSH1 0x2 PUSH1 0x0 DUP3 PUSH20 0xFFFFFFFFFFFFFFFFFFFFFFFFFFFFFFFFFFFFFFFF AND PUSH20 0xFFFFFFFFFFFFFFFFFFFFFFFFFFFFFFFFFFFFFFFF AND DUP2 MSTORE PUSH1 0x20 ADD SWAP1 DUP2 MSTORE PUSH1 0x20 ADD PUSH1 0x0 KECCAK256 PUSH1 0x0 PUSH1 0x1 ISZERO ISZERO ISZERO ISZERO DUP2 MSTORE PUSH1 0x20 ADD SWAP1 DUP2 MSTORE PUSH1 0x20 ADD PUSH1 0x0 KECCAK256 PUSH1 0x0 PUSH2 0x100 EXP DUP2 SLOAD SWAP1 PUSH20 0xFFFFFFFFFFFFFFFFFFFFFFFFFFFFFFFFFFFFFFFF MUL NOT AND SWAP1 SSTORE PUSH1 0x0 DUP1 DUP2 SLOAD DUP1 SWAP3 SWAP2 SWAP1 PUSH2 0xBF6 SWAP1 PUSH2 0x1351 JUMP JUMPDEST SWAP2 SWAP1 POP SSTORE POP POP JUMP JUMPDEST DUP3 PUSH1 0x2 PUSH1 0x0 DUP5 PUSH20 0xFFFFFFFFFFFFFFFFFFFFFFFFFFFFFFFFFFFFFFFF AND PUSH20 0xFFFFFFFFFFFFFFFFFFFFFFFFFFFFFFFFFFFFFFFF AND DUP2 MSTORE PUSH1 0x20 ADD SWAP1 DUP2 MSTORE PUSH1 0x20 ADD PUSH1 0x0 KECCAK256 PUSH1 0x0 DUP4 ISZERO ISZERO ISZERO ISZERO ISZERO DUP2 MSTORE PUSH1 0x20 ADD SWAP1 DUP2 MSTORE PUSH1 0x20 ADD PUSH1 0x0 KECCAK256 PUSH1 0x0 PUSH2 0x100 EXP DUP2 SLOAD DUP2 PUSH20 0xFFFFFFFFFFFFFFFFFFFFFFFFFFFFFFFFFFFFFFFF MUL NOT AND SWAP1 DUP4 PUSH20 0xFFFFFFFFFFFFFFFFFFFFFFFFFFFFFFFFFFFFFFFF AND MUL OR SWAP1 SSTORE POP DUP2 PUSH1 0x2 PUSH1 0x0 DUP6 PUSH20 0xFFFFFFFFFFFFFFFFFFFFFFFFFFFFFFFFFFFFFFFF AND PUSH20 0xFFFFFFFFFFFFFFFFFFFFFFFFFFFFFFFFFFFFFFFF AND DUP2 MSTORE PUSH1 0x20 ADD SWAP1 DUP2 MSTORE PUSH1 0x20 ADD PUSH1 0x0 KECCAK256 PUSH1 0x0 DUP4 ISZERO ISZERO ISZERO ISZERO DUP2 MSTORE PUSH1 0x20 ADD SWAP1 DUP2 MSTORE PUSH1 0x20 ADD PUSH1 0x0 KECCAK256 PUSH1 0x0 PUSH2 0x100 EXP DUP2 SLOAD DUP2 PUSH20 0xFFFFFFFFFFFFFFFFFFFFFFFFFFFFFFFFFFFFFFFF MUL NOT AND SWAP1 DUP4 PUSH20 0xFFFFFFFFFFFFFFFFFFFFFFFFFFFFFFFFFFFFFFFF AND MUL OR SWAP1 SSTORE POP POP POP POP JUMP JUMPDEST PUSH1 0x0 DUP2 MLOAD SWAP1 POP SWAP2 SWAP1 POP JUMP JUMPDEST PUSH1 0x0 DUP3 DUP3 MSTORE PUSH1 0x20 DUP3 ADD SWAP1 POP SWAP3 SWAP2 POP POP JUMP JUMPDEST PUSH1 0x0 DUP2 SWAP1 POP PUSH1 0x20 DUP3 ADD SWAP1 POP SWAP2 SWAP1 POP JUMP JUMPDEST PUSH1 0x0 PUSH20 0xFFFFFFFFFFFFFFFFFFFFFFFFFFFFFFFFFFFFFFFF DUP3 AND SWAP1 POP SWAP2 SWAP1 POP JUMP JUMPDEST PUSH1 0x0 PUSH2 0xD81 DUP3 PUSH2 0xD56 JUMP JUMPDEST SWAP1 POP SWAP2 SWAP1 POP JUMP JUMPDEST PUSH2 0xD91 DUP2 PUSH2 0xD76 JUMP JUMPDEST DUP3 MSTORE POP POP JUMP JUMPDEST PUSH1 0x0 PUSH2 0xDA3 DUP4 DUP4 PUSH2 0xD88 JUMP JUMPDEST PUSH1 0x20 DUP4 ADD SWAP1 POP SWAP3 SWAP2 POP POP JUMP JUMPDEST PUSH1 0x0 PUSH1 0x20 DUP3 ADD SWAP1 POP SWAP2 SWAP1 POP JUMP JUMPDEST PUSH1 0x0 PUSH2 0xDC7 DUP3 PUSH2 0xD2A JUMP JUMPDEST PUSH2 0xDD1 DUP2 DUP6 PUSH2 0xD35 JUMP JUMPDEST SWAP4 POP PUSH2 0xDDC DUP4 PUSH2 0xD46 JUMP JUMPDEST DUP1 PUSH1 0x0 JUMPDEST DUP4 DUP2 LT ISZERO PUSH2 0xE0D JUMPI DUP2 MLOAD PUSH2 0xDF4 DUP9 DUP3 PUSH2 0xD97 JUMP JUMPDEST SWAP8 POP PUSH2 0xDFF DUP4 PUSH2 0xDAF JUMP JUMPDEST SWAP3 POP POP PUSH1 0x1 DUP2 ADD SWAP1 POP PUSH2 0xDE0 JUMP JUMPDEST POP DUP6 SWAP4 POP POP POP POP SWAP3 SWAP2 POP POP JUMP JUMPDEST PUSH1 0x0 PUSH1 0x20 DUP3 ADD SWAP1 POP DUP2 DUP2 SUB PUSH1 0x0 DUP4 ADD MSTORE PUSH2 0xE34 DUP2 DUP5 PUSH2 0xDBC JUMP JUMPDEST SWAP1 POP SWAP3 SWAP2 POP POP JUMP JUMPDEST PUSH1 0x0 DUP2 SWAP1 POP SWAP2 SWAP1 POP JUMP JUMPDEST PUSH2 0xE4F DUP2 PUSH2 0xE3C JUMP JUMPDEST DUP3 MSTORE POP POP JUMP JUMPDEST PUSH1 0x0 PUSH1 0x20 DUP3 ADD SWAP1 POP PUSH2 0xE6A PUSH1 0x0 DUP4 ADD DUP5 PUSH2 0xE46 JUMP JUMPDEST SWAP3 SWAP2 POP POP JUMP JUMPDEST PUSH1 0x0 DUP1 REVERT JUMPDEST PUSH2 0xE7E DUP2 PUSH2 0xD76 JUMP JUMPDEST DUP2 EQ PUSH2 0xE89 JUMPI PUSH1 0x0 DUP1 REVERT JUMPDEST POP JUMP JUMPDEST PUSH1 0x0 DUP2 CALLDATALOAD SWAP1 POP PUSH2 0xE9B DUP2 PUSH2 0xE75 JUMP JUMPDEST SWAP3 SWAP2 POP POP JUMP JUMPDEST PUSH2 0xEAA DUP2 PUSH2 0xE3C JUMP JUMPDEST DUP2 EQ PUSH2 0xEB5 JUMPI PUSH1 0x0 DUP1 REVERT JUMPDEST POP JUMP JUMPDEST PUSH1 0x0 DUP2 CALLDATALOAD SWAP1 POP PUSH2 0xEC7 DUP2 PUSH2 0xEA1 JUMP JUMPDEST SWAP3 SWAP2 POP POP JUMP JUMPDEST PUSH1 0x0 DUP1 PUSH1 0x40 DUP4 DUP6 SUB SLT ISZERO PUSH2 0xEE4 JUMPI PUSH2 0xEE3 PUSH2 0xE70 JUMP JUMPDEST JUMPDEST PUSH1 0x0 PUSH2 0xEF2 DUP6 DUP3 DUP7 ADD PUSH2 0xE8C JUMP JUMPDEST SWAP3 POP POP PUSH1 0x20 PUSH2 0xF03 DUP6 DUP3 DUP7 ADD PUSH2 0xEB8 JUMP JUMPDEST SWAP2 POP POP SWAP3 POP SWAP3 SWAP1 POP JUMP JUMPDEST PUSH1 0x0 DUP2 MLOAD SWAP1 POP SWAP2 SWAP1 POP JUMP JUMPDEST PUSH1 0x0 DUP3 DUP3 MSTORE PUSH1 0x20 DUP3 ADD SWAP1 POP SWAP3 SWAP2 POP POP JUMP JUMPDEST PUSH1 0x0 JUMPDEST DUP4 DUP2 LT ISZERO PUSH2 0xF47 JUMPI DUP1 DUP3 ADD MLOAD DUP2 DUP5 ADD MSTORE PUSH1 0x20 DUP2 ADD SWAP1 POP PUSH2 0xF2C JUMP JUMPDEST PUSH1 0x0 DUP5 DUP5 ADD MSTORE POP POP POP POP JUMP JUMPDEST PUSH1 0x0 PUSH1 0x1F NOT PUSH1 0x1F DUP4 ADD AND SWAP1 POP SWAP2 SWAP1 POP JUMP JUMPDEST PUSH1 0x0 PUSH2 0xF6F DUP3 PUSH2 0xF0D JUMP JUMPDEST PUSH2 0xF79 DUP2 DUP6 PUSH2 0xF18 JUMP JUMPDEST SWAP4 POP PUSH2 0xF89 DUP2 DUP6 PUSH1 0x20 DUP7 ADD PUSH2 0xF29 JUMP JUMPDEST PUSH2 0xF92 DUP2 PUSH2 0xF53 JUMP JUMPDEST DUP5 ADD SWAP2 POP POP SWAP3 SWAP2 POP POP JUMP JUMPDEST PUSH1 0x0 PUSH1 0x20 DUP3 ADD SWAP1 POP DUP2 DUP2 SUB PUSH1 0x0 DUP4 ADD MSTORE PUSH2 0xFB7 DUP2 DUP5 PUSH2 0xF64 JUMP JUMPDEST SWAP1 POP SWAP3 SWAP2 POP POP JUMP JUMPDEST PUSH1 0x0 PUSH1 0x20 DUP3 DUP5 SUB SLT ISZERO PUSH2 0xFD5 JUMPI PUSH2 0xFD4 PUSH2 0xE70 JUMP JUMPDEST JUMPDEST PUSH1 0x0 PUSH2 0xFE3 DUP5 DUP3 DUP6 ADD PUSH2 0xEB8 JUMP JUMPDEST SWAP2 POP POP SWAP3 SWAP2 POP POP JUMP JUMPDEST PUSH1 0x0 PUSH1 0x20 DUP3 DUP5 SUB SLT ISZERO PUSH2 0x1002 JUMPI PUSH2 0x1001 PUSH2 0xE70 JUMP JUMPDEST JUMPDEST PUSH1 0x0 PUSH2 0x1010 DUP5 DUP3 DUP6 ADD PUSH2 0xE8C JUMP JUMPDEST SWAP2 POP POP SWAP3 SWAP2 POP POP JUMP JUMPDEST PUSH1 0x0 DUP2 ISZERO ISZERO SWAP1 POP SWAP2 SWAP1 POP JUMP JUMPDEST PUSH2 0x102E DUP2 PUSH2 0x1019 JUMP JUMPDEST DUP3 MSTORE POP POP JUMP JUMPDEST PUSH1 0x0 PUSH1 0x20 DUP3 ADD SWAP1 POP PUSH2 0x1049 PUSH1 0x0 DUP4 ADD DUP5 PUSH2 0x1025 JUMP JUMPDEST SWAP3 SWAP2 POP POP JUMP JUMPDEST PUSH32 0x4E487B7100000000000000000000000000000000000000000000000000000000 PUSH1 0x0 MSTORE PUSH1 0x41 PUSH1 0x4 MSTORE PUSH1 0x24 PUSH1 0x0 REVERT JUMPDEST PUSH32 0x4E487B7100000000000000000000000000000000000000000000000000000000 PUSH1 0x0 MSTORE PUSH1 0x32 PUSH1 0x4 MSTORE PUSH1 0x24 PUSH1 0x0 REVERT JUMPDEST PUSH32 0x4E487B7100000000000000000000000000000000000000000000000000000000 PUSH1 0x0 MSTORE PUSH1 0x11 PUSH1 0x4 MSTORE PUSH1 0x24 PUSH1 0x0 REVERT JUMPDEST PUSH1 0x0 PUSH2 0x10E7 DUP3 PUSH2 0xE3C JUMP JUMPDEST SWAP2 POP PUSH32 0xFFFFFFFFFFFFFFFFFFFFFFFFFFFFFFFFFFFFFFFFFFFFFFFFFFFFFFFFFFFFFFFF DUP3 SUB PUSH2 0x1119 JUMPI PUSH2 0x1118 PUSH2 0x10AD JUMP JUMPDEST JUMPDEST PUSH1 0x1 DUP3 ADD SWAP1 POP SWAP2 SWAP1 POP JUMP JUMPDEST PUSH2 0x112D DUP2 PUSH2 0xD76 JUMP JUMPDEST DUP3 MSTORE POP POP JUMP JUMPDEST PUSH1 0x0 PUSH1 0x40 DUP3 ADD SWAP1 POP PUSH2 0x1148 PUSH1 0x0 DUP4 ADD DUP6 PUSH2 0x1124 JUMP JUMPDEST PUSH2 0x1155 PUSH1 0x20 DUP4 ADD DUP5 PUSH2 0xE46 JUMP JUMPDEST SWAP4 SWAP3 POP POP POP JUMP JUMPDEST PUSH1 0x0 DUP3 DUP3 MSTORE PUSH1 0x20 DUP3 ADD SWAP1 POP SWAP3 SWAP2 POP POP JUMP JUMPDEST PUSH32 0x4E6F7420617574686F72697A6564000000000000000000000000000000000000 PUSH1 0x0 DUP3 ADD MSTORE POP JUMP JUMPDEST PUSH1 0x0 PUSH2 0x11A3 PUSH1 0xE DUP4 PUSH2 0x115C JUMP JUMPDEST SWAP2 POP PUSH2 0x11AE DUP3 PUSH2 0x116D JUMP JUMPDEST PUSH1 0x20 DUP3 ADD SWAP1 POP SWAP2 SWAP1 POP JUMP JUMPDEST PUSH1 0x0 PUSH1 0x20 DUP3 ADD SWAP1 POP DUP2 DUP2 SUB PUSH1 0x0 DUP4 ADD MSTORE PUSH2 0x11D2 DUP2 PUSH2 0x1196 JUMP JUMPDEST SWAP1 POP SWAP2 SWAP1 POP JUMP JUMPDEST PUSH32 0x6572726F72303200000000000000000000000000000000000000000000000000 PUSH1 0x0 DUP3 ADD MSTORE POP JUMP JUMPDEST PUSH1 0x0 PUSH2 0x120F PUSH1 0x7 DUP4 PUSH2 0x115C JUMP JUMPDEST SWAP2 POP PUSH2 0x121A DUP3 PUSH2 0x11D9 JUMP JUMPDEST PUSH1 0x20 DUP3 ADD SWAP1 POP SWAP2 SWAP1 POP JUMP JUMPDEST PUSH1 0x0 PUSH1 0x20 DUP3 ADD SWAP1 POP DUP2 DUP2 SUB PUSH1 0x0 DUP4 ADD MSTORE PUSH2 0x123E DUP2 PUSH2 0x1202 JUMP JUMPDEST SWAP1 POP SWAP2 SWAP1 POP JUMP JUMPDEST PUSH32 0x6572726F72303300000000000000000000000000000000000000000000000000 PUSH1 0x0 DUP3 ADD MSTORE POP JUMP JUMPDEST PUSH1 0x0 PUSH2 0x127B PUSH1 0x7 DUP4 PUSH2 0x115C JUMP JUMPDEST SWAP2 POP PUSH2 0x1286 DUP3 PUSH2 0x1245 JUMP JUMPDEST PUSH1 0x20 DUP3 ADD SWAP1 POP SWAP2 SWAP1 POP JUMP JUMPDEST PUSH1 0x0 PUSH1 0x20 DUP3 ADD SWAP1 POP DUP2 DUP2 SUB PUSH1 0x0 DUP4 ADD MSTORE PUSH2 0x12AA DUP2 PUSH2 0x126E JUMP JUMPDEST SWAP1 POP SWAP2 SWAP1 POP JUMP JUMPDEST PUSH1 0x0 PUSH2 0x12BC DUP3 PUSH2 0xE3C JUMP JUMPDEST SWAP2 POP PUSH2 0x12C7 DUP4 PUSH2 0xE3C JUMP JUMPDEST SWAP3 POP DUP3 DUP3 SUB SWAP1 POP DUP2 DUP2 GT ISZERO PUSH2 0x12DF JUMPI PUSH2 0x12DE PUSH2 0x10AD JUMP JUMPDEST JUMPDEST SWAP3 SWAP2 POP POP JUMP JUMPDEST PUSH32 0x6572726F72303700000000000000000000000000000000000000000000000000 PUSH1 0x0 DUP3 ADD MSTORE POP JUMP JUMPDEST PUSH1 0x0 PUSH2 0x131B PUSH1 0x7 DUP4 PUSH2 0x115C JUMP JUMPDEST SWAP2 POP PUSH2 0x1326 DUP3 PUSH2 0x12E5 JUMP JUMPDEST PUSH1 0x20 DUP3 ADD SWAP1 POP SWAP2 SWAP1 POP JUMP JUMPDEST PUSH1 0x0 PUSH1 0x20 DUP3 ADD SWAP1 POP DUP2 DUP2 SUB PUSH1 0x0 DUP4 ADD MSTORE PUSH2 0x134A DUP2 PUSH2 0x130E JUMP JUMPDEST SWAP1 POP SWAP2 SWAP1 POP JUMP JUMPDEST PUSH1 0x0 PUSH2 0x135C DUP3 PUSH2 0xE3C JUMP JUMPDEST SWAP2 POP PUSH1 0x0 DUP3 SUB PUSH2 0x136F JUMPI PUSH2 0x136E PUSH2 0x10AD JUMP JUMPDEST JUMPDEST PUSH1 0x1 DUP3 SUB SWAP1 POP SWAP2 SWAP1 POP JUMP INVALID LOG2 PUSH5 0x6970667358 0x22 SLT KECCAK256 0x2E 0xB8 0xCB SAR BALANCE EQ MSIZE 0x28 SELFDESTRUCT 0xAA PUSH19 0xB3B9102A267E6F83AC6A1C797A097DDE9D60C 0x1E PUSH7 0x64736F6C634300 ADDMOD SLT STOP CALLER "
				},
				"gasEstimates": {
					"creation": {
						"codeDepositCost": "1008000",
						"executionCost": "1047",
						"totalCost": "1009047"
					},
					"external": {
						"addOwnersencode(address,uint256)": "infinite",
						"changeThreshold(uint256)": "infinite",
						"changeThresholdencode(uint256)": "infinite",
						"checkOwners()": "infinite",
						"checkThreshold()": "2459",
						"ownerExist(address)": "5419",
						"owners_num()": "2452",
						"removeOwners(address,uint256)": "infinite",
						"removeOwnersencode(address,uint256)": "infinite"
					},
					"internal": {
						"_createLink(address,address,bool)": "48918",
						"_initialwallet(address[] memory,uint256)": "infinite",
						"_insert(address,address,bool)": "infinite",
						"addOwnersAndThreshold(address,uint256)": "infinite",
						"addowner(address)": "infinite",
						"getAdjacent(address,bool)": "7123",
						"removeowner(address)": "infinite"
					}
				},
				"methodIdentifiers": {
					"addOwnersencode(address,uint256)": "ff87578c",
					"changeThreshold(uint256)": "694e80c3",
					"changeThresholdencode(uint256)": "6876a95e",
					"checkOwners()": "029c81e3",
					"checkThreshold()": "81244e5d",
					"ownerExist(address)": "ef11783c",
					"owners_num()": "0c3dfc1a",
					"removeOwners(address,uint256)": "c0f0b3f1",
					"removeOwnersencode(address,uint256)": "54910298"
				}
			},
			"storageLayout": {
				"storage": [
					{
						"astId": 15,
						"contract": "contracts/Try01/Manage.sol:Manageowner",
						"label": "owners_num",
						"offset": 0,
						"slot": "0",
						"type": "t_uint256"
					},
					{
						"astId": 17,
						"contract": "contracts/Try01/Manage.sol:Manageowner",
						"label": "threshold",
						"offset": 0,
						"slot": "1",
						"type": "t_uint256"
					},
					{
						"astId": 23,
						"contract": "contracts/Try01/Manage.sol:Manageowner",
						"label": "owners",
						"offset": 0,
						"slot": "2",
						"type": "t_mapping(t_address,t_mapping(t_bool,t_address))"
					}
				],
				"types": {
					"t_address": {
						"encoding": "inplace",
						"label": "address",
						"numberOfBytes": "20"
					},
					"t_bool": {
						"encoding": "inplace",
						"label": "bool",
						"numberOfBytes": "1"
					},
					"t_mapping(t_address,t_mapping(t_bool,t_address))": {
						"encoding": "mapping",
						"key": "t_address",
						"label": "mapping(address => mapping(bool => address))",
						"numberOfBytes": "32",
						"value": "t_mapping(t_bool,t_address)"
					},
					"t_mapping(t_bool,t_address)": {
						"encoding": "mapping",
						"key": "t_bool",
						"label": "mapping(bool => address)",
						"numberOfBytes": "32",
						"value": "t_address"
					},
					"t_uint256": {
						"encoding": "inplace",
						"label": "uint256",
						"numberOfBytes": "32"
					}
				}
			},
			"userdoc": {
				"kind": "user",
				"methods": {},
				"version": 1
			}
		}
	}
}