{
	"contracts/Try01/t02.sol": {
		"ttt": {
			"abi": [
				{
					"anonymous": false,
					"inputs": [
						{
							"indexed": true,
							"internalType": "address",
							"name": "owner",
							"type": "address"
						}
					],
					"name": "AddOwner",
					"type": "event"
				},
				{
					"anonymous": false,
					"inputs": [
						{
							"indexed": false,
							"internalType": "uint256",
							"name": "threshold",
							"type": "uint256"
						}
					],
					"name": "ChangeThreshold",
					"type": "event"
				},
				{
					"anonymous": false,
					"inputs": [
						{
							"indexed": true,
							"internalType": "address",
							"name": "preowner",
							"type": "address"
						}
					],
					"name": "RemoveOwner",
					"type": "event"
				},
				{
					"inputs": [
						{
							"internalType": "address[]",
							"name": "_owners",
							"type": "address[]"
						},
						{
							"internalType": "uint256",
							"name": "_threshold",
							"type": "uint256"
						}
					],
					"name": "_initialwallet",
					"outputs": [],
					"stateMutability": "nonpayable",
					"type": "function"
				},
				{
					"inputs": [
						{
							"internalType": "address",
							"name": "addr",
							"type": "address"
						}
					],
					"name": "add",
					"outputs": [
						{
							"internalType": "bytes",
							"name": "result",
							"type": "bytes"
						}
					],
					"stateMutability": "pure",
					"type": "function"
				},
				{
					"inputs": [
						{
							"internalType": "address",
							"name": "owner",
							"type": "address"
						},
						{
							"internalType": "uint256",
							"name": "new_threshold",
							"type": "uint256"
						}
					],
					"name": "addOwnersAndThreshold",
					"outputs": [],
					"stateMutability": "nonpayable",
					"type": "function"
				},
				{
					"inputs": [
						{
							"internalType": "address",
							"name": "x",
							"type": "address"
						},
						{
							"internalType": "uint256",
							"name": "y",
							"type": "uint256"
						}
					],
					"name": "addOwnersencode",
					"outputs": [
						{
							"internalType": "bytes",
							"name": "result",
							"type": "bytes"
						}
					],
					"stateMutability": "pure",
					"type": "function"
				},
				{
					"inputs": [
						{
							"internalType": "address",
							"name": "owner",
							"type": "address"
						}
					],
					"name": "addowner",
					"outputs": [],
					"stateMutability": "nonpayable",
					"type": "function"
				},
				{
					"inputs": [
						{
							"internalType": "uint256",
							"name": "new_threshold",
							"type": "uint256"
						}
					],
					"name": "changeThreshold",
					"outputs": [],
					"stateMutability": "nonpayable",
					"type": "function"
				},
				{
					"inputs": [
						{
							"internalType": "uint256",
							"name": "new_threshold",
							"type": "uint256"
						}
					],
					"name": "changeThresholdencode",
					"outputs": [
						{
							"internalType": "bytes",
							"name": "result",
							"type": "bytes"
						}
					],
					"stateMutability": "pure",
					"type": "function"
				},
				{
					"inputs": [],
					"name": "checkOwners",
					"outputs": [
						{
							"internalType": "address[]",
							"name": "",
							"type": "address[]"
						}
					],
					"stateMutability": "view",
					"type": "function"
				},
				{
					"inputs": [],
					"name": "checkThreshold",
					"outputs": [
						{
							"internalType": "uint256",
							"name": "",
							"type": "uint256"
						}
					],
					"stateMutability": "view",
					"type": "function"
				},
				{
					"inputs": [
						{
							"internalType": "address",
							"name": "to",
							"type": "address"
						},
						{
							"internalType": "bytes",
							"name": "data",
							"type": "bytes"
						}
					],
					"name": "delegate",
					"outputs": [],
					"stateMutability": "payable",
					"type": "function"
				},
				{
					"inputs": [
						{
							"internalType": "address",
							"name": "_owner",
							"type": "address"
						}
					],
					"name": "ownerExist",
					"outputs": [
						{
							"internalType": "bool",
							"name": "",
							"type": "bool"
						}
					],
					"stateMutability": "view",
					"type": "function"
				},
				{
					"inputs": [],
					"name": "owners_num",
					"outputs": [
						{
							"internalType": "uint256",
							"name": "",
							"type": "uint256"
						}
					],
					"stateMutability": "view",
					"type": "function"
				},
				{
					"inputs": [
						{
							"internalType": "address",
							"name": "preowner",
							"type": "address"
						},
						{
							"internalType": "uint256",
							"name": "new_threshold",
							"type": "uint256"
						}
					],
					"name": "removeOwners",
					"outputs": [],
					"stateMutability": "nonpayable",
					"type": "function"
				},
				{
					"inputs": [
						{
							"internalType": "address",
							"name": "x",
							"type": "address"
						},
						{
							"internalType": "uint256",
							"name": "y",
							"type": "uint256"
						}
					],
					"name": "removeOwnersencode",
					"outputs": [
						{
							"internalType": "bytes",
							"name": "result",
							"type": "bytes"
						}
					],
					"stateMutability": "pure",
					"type": "function"
				}
			],
			"devdoc": {
				"kind": "dev",
				"methods": {},
				"version": 1
			},
			"evm": {
				"assembly": "    /* \"contracts/Try01/t02.sol\":84:266  contract ttt is Manageowner {... */\n  mstore(0x40, 0x80)\n  callvalue\n  dup1\n  iszero\n  tag_1\n  jumpi\n  0x00\n  dup1\n  revert\ntag_1:\n  pop\n  dataSize(sub_0)\n  dup1\n  dataOffset(sub_0)\n  0x00\n  codecopy\n  0x00\n  return\nstop\n\nsub_0: assembly {\n        /* \"contracts/Try01/t02.sol\":84:266  contract ttt is Manageowner {... */\n      mstore(0x40, 0x80)\n      jumpi(tag_1, lt(calldatasize, 0x04))\n      shr(0xe0, calldataload(0x00))\n      dup1\n      0x694e80c3\n      gt\n      tag_16\n      jumpi\n      dup1\n      0xc0f0b3f1\n      gt\n      tag_17\n      jumpi\n      dup1\n      0xc0f0b3f1\n      eq\n      tag_12\n      jumpi\n      dup1\n      0xd6d2b6ba\n      eq\n      tag_13\n      jumpi\n      dup1\n      0xef11783c\n      eq\n      tag_14\n      jumpi\n      dup1\n      0xff87578c\n      eq\n      tag_15\n      jumpi\n      jump(tag_1)\n    tag_17:\n      dup1\n      0x694e80c3\n      eq\n      tag_9\n      jumpi\n      dup1\n      0x81244e5d\n      eq\n      tag_10\n      jumpi\n      dup1\n      0xa0e1ace8\n      eq\n      tag_11\n      jumpi\n      jump(tag_1)\n    tag_16:\n      dup1\n      0x0c546204\n      gt\n      tag_18\n      jumpi\n      dup1\n      0x0c546204\n      eq\n      tag_5\n      jumpi\n      dup1\n      0x54910298\n      eq\n      tag_6\n      jumpi\n      dup1\n      0x5ce7fa2d\n      eq\n      tag_7\n      jumpi\n      dup1\n      0x6876a95e\n      eq\n      tag_8\n      jumpi\n      jump(tag_1)\n    tag_18:\n      dup1\n      0x029c81e3\n      eq\n      tag_2\n      jumpi\n      dup1\n      0x0a3b0a4f\n      eq\n      tag_3\n      jumpi\n      dup1\n      0x0c3dfc1a\n      eq\n      tag_4\n      jumpi\n    tag_1:\n      0x00\n      dup1\n      revert\n        /* \"contracts/Try01/Manage.sol\":3401:3804  function checkOwners()public view returns(address[] memory){... */\n    tag_2:\n      callvalue\n      dup1\n      iszero\n      tag_19\n      jumpi\n      0x00\n      dup1\n      revert\n    tag_19:\n      pop\n      tag_20\n      tag_21\n      jump\t// in\n    tag_20:\n      mload(0x40)\n      tag_22\n      swap2\n      swap1\n      tag_23\n      jump\t// in\n    tag_22:\n      mload(0x40)\n      dup1\n      swap2\n      sub\n      swap1\n      return\n        /* \"contracts/Try01/Manage.sol\":6944:7130  function add(address addr)public pure returns(bytes memory result){... */\n    tag_3:\n      callvalue\n      dup1\n      iszero\n      tag_24\n      jumpi\n      0x00\n      dup1\n      revert\n    tag_24:\n      pop\n      tag_25\n      0x04\n      dup1\n      calldatasize\n      sub\n      dup2\n      add\n      swap1\n      tag_26\n      swap2\n      swap1\n      tag_27\n      jump\t// in\n    tag_26:\n      tag_28\n      jump\t// in\n    tag_25:\n      mload(0x40)\n      tag_29\n      swap2\n      swap1\n      tag_30\n      jump\t// in\n    tag_29:\n      mload(0x40)\n      dup1\n      swap2\n      sub\n      swap1\n      return\n        /* \"contracts/Try01/Manage.sol\":260:285  uint256 public owners_num */\n    tag_4:\n      callvalue\n      dup1\n      iszero\n      tag_31\n      jumpi\n      0x00\n      dup1\n      revert\n    tag_31:\n      pop\n      tag_32\n      tag_33\n      jump\t// in\n    tag_32:\n      mload(0x40)\n      tag_34\n      swap2\n      swap1\n      tag_35\n      jump\t// in\n    tag_34:\n      mload(0x40)\n      dup1\n      swap2\n      sub\n      swap1\n      return\n        /* \"contracts/Try01/Manage.sol\":1714:2273  function addOwnersAndThreshold(address owner, uint256 new_threshold)public signed{... */\n    tag_5:\n      callvalue\n      dup1\n      iszero\n      tag_36\n      jumpi\n      0x00\n      dup1\n      revert\n    tag_36:\n      pop\n      tag_37\n      0x04\n      dup1\n      calldatasize\n      sub\n      dup2\n      add\n      swap1\n      tag_38\n      swap2\n      swap1\n      tag_39\n      jump\t// in\n    tag_38:\n      tag_40\n      jump\t// in\n    tag_37:\n      stop\n        /* \"contracts/Try01/Manage.sol\":7803:8048  function removeOwnersencode(address x, uint256 y) public pure returns(bytes memory result) {... */\n    tag_6:\n      callvalue\n      dup1\n      iszero\n      tag_41\n      jumpi\n      0x00\n      dup1\n      revert\n    tag_41:\n      pop\n      tag_42\n      0x04\n      dup1\n      calldatasize\n      sub\n      dup2\n      add\n      swap1\n      tag_43\n      swap2\n      swap1\n      tag_39\n      jump\t// in\n    tag_43:\n      tag_44\n      jump\t// in\n    tag_42:\n      mload(0x40)\n      tag_45\n      swap2\n      swap1\n      tag_30\n      jump\t// in\n    tag_45:\n      mload(0x40)\n      dup1\n      swap2\n      sub\n      swap1\n      return\n        /* \"contracts/Try01/Manage.sol\":3842:4836  function addowner(address owner)public  {... */\n    tag_7:\n      callvalue\n      dup1\n      iszero\n      tag_46\n      jumpi\n      0x00\n      dup1\n      revert\n    tag_46:\n      pop\n      tag_47\n      0x04\n      dup1\n      calldatasize\n      sub\n      dup2\n      add\n      swap1\n      tag_48\n      swap2\n      swap1\n      tag_27\n      jump\t// in\n    tag_48:\n      tag_49\n      jump\t// in\n    tag_47:\n      stop\n        /* \"contracts/Try01/Manage.sol\":6431:6661  function changeThresholdencode(uint256 new_threshold) public pure returns(bytes memory result) {... */\n    tag_8:\n      callvalue\n      dup1\n      iszero\n      tag_50\n      jumpi\n      0x00\n      dup1\n      revert\n    tag_50:\n      pop\n      tag_51\n      0x04\n      dup1\n      calldatasize\n      sub\n      dup2\n      add\n      swap1\n      tag_52\n      swap2\n      swap1\n      tag_53\n      jump\t// in\n    tag_52:\n      tag_54\n      jump\t// in\n    tag_51:\n      mload(0x40)\n      tag_55\n      swap2\n      swap1\n      tag_30\n      jump\t// in\n    tag_55:\n      mload(0x40)\n      dup1\n      swap2\n      sub\n      swap1\n      return\n        /* \"contracts/Try01/Manage.sol\":2899:3239  function changeThreshold(uint256 new_threshold)public signed{... */\n    tag_9:\n      callvalue\n      dup1\n      iszero\n      tag_56\n      jumpi\n      0x00\n      dup1\n      revert\n    tag_56:\n      pop\n      tag_57\n      0x04\n      dup1\n      calldatasize\n      sub\n      dup2\n      add\n      swap1\n      tag_58\n      swap2\n      swap1\n      tag_53\n      jump\t// in\n    tag_58:\n      tag_59\n      jump\t// in\n    tag_57:\n      stop\n        /* \"contracts/Try01/Manage.sol\":3274:3362  function checkThreshold()public view returns(uint256){... */\n    tag_10:\n      callvalue\n      dup1\n      iszero\n      tag_60\n      jumpi\n      0x00\n      dup1\n      revert\n    tag_60:\n      pop\n      tag_61\n      tag_62\n      jump\t// in\n    tag_61:\n      mload(0x40)\n      tag_63\n      swap2\n      swap1\n      tag_35\n      jump\t// in\n    tag_63:\n      mload(0x40)\n      dup1\n      swap2\n      sub\n      swap1\n      return\n        /* \"contracts/Try01/Manage.sol\":720:1622  function _initialwallet(address[] memory _owners,uint256 _threshold)public  {... */\n    tag_11:\n      callvalue\n      dup1\n      iszero\n      tag_64\n      jumpi\n      0x00\n      dup1\n      revert\n    tag_64:\n      pop\n      tag_65\n      0x04\n      dup1\n      calldatasize\n      sub\n      dup2\n      add\n      swap1\n      tag_66\n      swap2\n      swap1\n      tag_67\n      jump\t// in\n    tag_66:\n      tag_68\n      jump\t// in\n    tag_65:\n      stop\n        /* \"contracts/Try01/Manage.sol\":2365:2810  function removeOwners(address preowner, uint256 new_threshold)public signed{... */\n    tag_12:\n      callvalue\n      dup1\n      iszero\n      tag_69\n      jumpi\n      0x00\n      dup1\n      revert\n    tag_69:\n      pop\n      tag_70\n      0x04\n      dup1\n      calldatasize\n      sub\n      dup2\n      add\n      swap1\n      tag_71\n      swap2\n      swap1\n      tag_39\n      jump\t// in\n    tag_71:\n      tag_72\n      jump\t// in\n    tag_70:\n      stop\n        /* \"contracts/Try01/t02.sol\":125:257  function delegate( address to, bytes memory data)public payable {... */\n    tag_13:\n      tag_73\n      0x04\n      dup1\n      calldatasize\n      sub\n      dup2\n      add\n      swap1\n      tag_74\n      swap2\n      swap1\n      tag_75\n      jump\t// in\n    tag_74:\n      tag_76\n      jump\t// in\n    tag_73:\n      stop\n        /* \"contracts/Try01/Manage.sol\":5499:5652  function ownerExist(address _owner)public view returns (bool){... */\n    tag_14:\n      callvalue\n      dup1\n      iszero\n      tag_77\n      jumpi\n      0x00\n      dup1\n      revert\n    tag_77:\n      pop\n      tag_78\n      0x04\n      dup1\n      calldatasize\n      sub\n      dup2\n      add\n      swap1\n      tag_79\n      swap2\n      swap1\n      tag_27\n      jump\t// in\n    tag_79:\n      tag_80\n      jump\t// in\n    tag_78:\n      mload(0x40)\n      tag_81\n      swap2\n      swap1\n      tag_82\n      jump\t// in\n    tag_81:\n      mload(0x40)\n      dup1\n      swap2\n      sub\n      swap1\n      return\n        /* \"contracts/Try01/Manage.sol\":6709:6936  function addOwnersencode(address x, uint256 y) public pure returns(bytes memory result) {... */\n    tag_15:\n      callvalue\n      dup1\n      iszero\n      tag_83\n      jumpi\n      0x00\n      dup1\n      revert\n    tag_83:\n      pop\n      tag_84\n      0x04\n      dup1\n      calldatasize\n      sub\n      dup2\n      add\n      swap1\n      tag_85\n      swap2\n      swap1\n      tag_39\n      jump\t// in\n    tag_85:\n      tag_86\n      jump\t// in\n    tag_84:\n      mload(0x40)\n      tag_87\n      swap2\n      swap1\n      tag_30\n      jump\t// in\n    tag_87:\n      mload(0x40)\n      dup1\n      swap2\n      sub\n      swap1\n      return\n        /* \"contracts/Try01/Manage.sol\":3401:3804  function checkOwners()public view returns(address[] memory){... */\n    tag_21:\n        /* \"contracts/Try01/Manage.sol\":3443:3459  address[] memory */\n      0x60\n        /* \"contracts/Try01/Manage.sol\":3471:3493  address[] memory array */\n      0x00\n        /* \"contracts/Try01/Manage.sol\":3510:3520  owners_num */\n      dup1\n      sload\n        /* \"contracts/Try01/Manage.sol\":3496:3521  new address[](owners_num) */\n      0xffffffffffffffff\n      dup2\n      gt\n      iszero\n      tag_89\n      jumpi\n      tag_90\n      tag_91\n      jump\t// in\n    tag_90:\n    tag_89:\n      mload(0x40)\n      swap1\n      dup1\n      dup3\n      mstore\n      dup1\n      0x20\n      mul\n      0x20\n      add\n      dup3\n      add\n      0x40\n      mstore\n      dup1\n      iszero\n      tag_92\n      jumpi\n      dup2\n      0x20\n      add\n      0x20\n      dup3\n      mul\n      dup1\n      calldatasize\n      dup4\n      calldatacopy\n      dup1\n      dup3\n      add\n      swap2\n      pop\n      pop\n      swap1\n      pop\n    tag_92:\n      pop\n        /* \"contracts/Try01/Manage.sol\":3471:3521  address[] memory array = new address[](owners_num) */\n      swap1\n      pop\n        /* \"contracts/Try01/Manage.sol\":3532:3552  address currentowner */\n      0x00\n        /* \"contracts/Try01/Manage.sol\":3555:3561  owners */\n      0x02\n        /* \"contracts/Try01/Manage.sol\":3555:3568  owners[_HEAD] */\n      0x00\n        /* \"contracts/Try01/Manage.sol\":707:710  0x1 */\n      0x01\n        /* \"contracts/Try01/Manage.sol\":3555:3568  owners[_HEAD] */\n      0xffffffffffffffffffffffffffffffffffffffff\n      and\n      0xffffffffffffffffffffffffffffffffffffffff\n      and\n      dup2\n      mstore\n      0x20\n      add\n      swap1\n      dup2\n      mstore\n      0x20\n      add\n      0x00\n      keccak256\n        /* \"contracts/Try01/Manage.sol\":3555:3575  owners[_HEAD][_NEXT] */\n      0x00\n        /* \"contracts/Try01/Manage.sol\":558:562  true */\n      0x01\n        /* \"contracts/Try01/Manage.sol\":3555:3575  owners[_HEAD][_NEXT] */\n      iszero\n      iszero\n      iszero\n      iszero\n      dup2\n      mstore\n      0x20\n      add\n      swap1\n      dup2\n      mstore\n      0x20\n      add\n      0x00\n      keccak256\n      0x00\n      swap1\n      sload\n      swap1\n      0x0100\n      exp\n      swap1\n      div\n      0xffffffffffffffffffffffffffffffffffffffff\n      and\n        /* \"contracts/Try01/Manage.sol\":3532:3575  address currentowner = owners[_HEAD][_NEXT] */\n      swap1\n      pop\n        /* \"contracts/Try01/Manage.sol\":3586:3599  uint256 index */\n      0x00\n        /* \"contracts/Try01/Manage.sol\":3614:3774  for (index=0; index < owners_num; index++){... */\n    tag_93:\n        /* \"contracts/Try01/Manage.sol\":3636:3646  owners_num */\n      sload(0x00)\n        /* \"contracts/Try01/Manage.sol\":3628:3633  index */\n      dup2\n        /* \"contracts/Try01/Manage.sol\":3628:3646  index < owners_num */\n      lt\n        /* \"contracts/Try01/Manage.sol\":3614:3774  for (index=0; index < owners_num; index++){... */\n      iszero\n      tag_94\n      jumpi\n        /* \"contracts/Try01/Manage.sol\":3686:3698  currentowner */\n      dup2\n        /* \"contracts/Try01/Manage.sol\":3671:3676  array */\n      dup4\n        /* \"contracts/Try01/Manage.sol\":3677:3682  index */\n      dup3\n        /* \"contracts/Try01/Manage.sol\":3671:3683  array[index] */\n      dup2\n      mload\n      dup2\n      lt\n      tag_96\n      jumpi\n      tag_97\n      tag_98\n      jump\t// in\n    tag_97:\n    tag_96:\n      0x20\n      mul\n      0x20\n      add\n      add\n        /* \"contracts/Try01/Manage.sol\":3671:3698  array[index] = currentowner */\n      swap1\n      0xffffffffffffffffffffffffffffffffffffffff\n      and\n      swap1\n      dup2\n      0xffffffffffffffffffffffffffffffffffffffff\n      and\n      dup2\n      mstore\n      pop\n      pop\n        /* \"contracts/Try01/Manage.sol\":3731:3762  getAdjacent(currentowner,_NEXT) */\n      tag_99\n        /* \"contracts/Try01/Manage.sol\":3743:3755  currentowner */\n      dup3\n        /* \"contracts/Try01/Manage.sol\":558:562  true */\n      0x01\n        /* \"contracts/Try01/Manage.sol\":3731:3742  getAdjacent */\n      tag_100\n        /* \"contracts/Try01/Manage.sol\":3731:3762  getAdjacent(currentowner,_NEXT) */\n      jump\t// in\n    tag_99:\n        /* \"contracts/Try01/Manage.sol\":3713:3762  (,currentowner) = getAdjacent(currentowner,_NEXT) */\n      swap1\n      pop\n      dup1\n      swap3\n      pop\n      pop\n        /* \"contracts/Try01/Manage.sol\":3648:3655  index++ */\n      dup1\n      dup1\n      tag_101\n      swap1\n      tag_102\n      jump\t// in\n    tag_101:\n      swap2\n      pop\n      pop\n        /* \"contracts/Try01/Manage.sol\":3614:3774  for (index=0; index < owners_num; index++){... */\n      jump(tag_93)\n    tag_94:\n        /* \"contracts/Try01/Manage.sol\":3791:3796  array */\n      dup3\n        /* \"contracts/Try01/Manage.sol\":3784:3796  return array */\n      swap4\n      pop\n      pop\n      pop\n      pop\n        /* \"contracts/Try01/Manage.sol\":3401:3804  function checkOwners()public view returns(address[] memory){... */\n      swap1\n      jump\t// out\n        /* \"contracts/Try01/Manage.sol\":6944:7130  function add(address addr)public pure returns(bytes memory result){... */\n    tag_28:\n        /* \"contracts/Try01/Manage.sol\":6990:7009  bytes memory result */\n      0x60\n        /* \"contracts/Try01/Manage.sol\":7060:7090  keccak256(\"addowner(address)\") */\n      0x5ce7fa2d7df4a3b8ac1f4edf3b55bd9def1ea63ad71b157bf5823b2597dd13b0\n        /* \"contracts/Try01/Manage.sol\":7093:7097  addr */\n      dup3\n        /* \"contracts/Try01/Manage.sol\":7030:7098  abi.encodeWithSelector(bytes4(keccak256(\"addowner(address)\")), addr) */\n      add(0x24, mload(0x40))\n      tag_104\n      swap2\n      swap1\n      tag_105\n      jump\t// in\n    tag_104:\n      mload(0x40)\n      0x20\n      dup2\n      dup4\n      sub\n      sub\n      dup2\n      mstore\n      swap1\n      0x40\n      mstore\n      swap1\n      not(0xffffffffffffffffffffffffffffffffffffffffffffffffffffffff)\n      and\n      0x20\n      dup3\n      add\n      dup1\n      mload\n      0xffffffffffffffffffffffffffffffffffffffffffffffffffffffff\n      dup4\n      dup2\n      dup4\n      and\n      or\n      dup4\n      mstore\n      pop\n      pop\n      pop\n      pop\n        /* \"contracts/Try01/Manage.sol\":7021:7098  result = abi.encodeWithSelector(bytes4(keccak256(\"addowner(address)\")), addr) */\n      swap1\n      pop\n        /* \"contracts/Try01/Manage.sol\":6944:7130  function add(address addr)public pure returns(bytes memory result){... */\n      swap2\n      swap1\n      pop\n      jump\t// out\n        /* \"contracts/Try01/Manage.sol\":260:285  uint256 public owners_num */\n    tag_33:\n      sload(0x00)\n      dup2\n      jump\t// out\n        /* \"contracts/Try01/Manage.sol\":1714:2273  function addOwnersAndThreshold(address owner, uint256 new_threshold)public signed{... */\n    tag_40:\n        /* \"contracts/Try01/Manage.sol\":6338:6342  this */\n      address\n        /* \"contracts/Try01/Manage.sol\":6318:6343  msg.sender==address(this) */\n      0xffffffffffffffffffffffffffffffffffffffff\n      and\n        /* \"contracts/Try01/Manage.sol\":6318:6328  msg.sender */\n      caller\n        /* \"contracts/Try01/Manage.sol\":6318:6343  msg.sender==address(this) */\n      0xffffffffffffffffffffffffffffffffffffffff\n      and\n      eq\n        /* \"contracts/Try01/Manage.sol\":6310:6361  require(msg.sender==address(this),\"Not authorized\") */\n      tag_107\n      jumpi\n      mload(0x40)\n      0x08c379a000000000000000000000000000000000000000000000000000000000\n      dup2\n      mstore\n      0x04\n      add\n      tag_108\n      swap1\n      tag_109\n      jump\t// in\n    tag_108:\n      mload(0x40)\n      dup1\n      swap2\n      sub\n      swap1\n      revert\n    tag_107:\n        /* \"contracts/Try01/Manage.sol\":1875:1888  new_threshold */\n      dup1\n        /* \"contracts/Try01/Manage.sol\":1870:1871  1 */\n      0x01\n        /* \"contracts/Try01/Manage.sol\":1857:1867  owners_num */\n      sload(0x00)\n        /* \"contracts/Try01/Manage.sol\":1857:1871  owners_num + 1 */\n      tag_111\n      swap2\n      swap1\n      tag_112\n      jump\t// in\n    tag_111:\n        /* \"contracts/Try01/Manage.sol\":1857:1888  owners_num + 1 >= new_threshold */\n      lt\n      iszero\n        /* \"contracts/Try01/Manage.sol\":1857:1910  owners_num + 1 >= new_threshold && new_threshold >= 0 */\n      dup1\n      iszero\n      tag_113\n      jumpi\n      pop\n        /* \"contracts/Try01/Manage.sol\":1909:1910  0 */\n      0x00\n        /* \"contracts/Try01/Manage.sol\":1892:1905  new_threshold */\n      dup2\n        /* \"contracts/Try01/Manage.sol\":1892:1910  new_threshold >= 0 */\n      lt\n      iszero\n        /* \"contracts/Try01/Manage.sol\":1857:1910  owners_num + 1 >= new_threshold && new_threshold >= 0 */\n    tag_113:\n        /* \"contracts/Try01/Manage.sol\":1849:1911  require(owners_num + 1 >= new_threshold && new_threshold >= 0) */\n      tag_114\n      jumpi\n      0x00\n      dup1\n      revert\n    tag_114:\n        /* \"contracts/Try01/Manage.sol\":2002:2003  0 */\n      0x00\n        /* \"contracts/Try01/Manage.sol\":1985:2004  owner != address(0) */\n      0xffffffffffffffffffffffffffffffffffffffff\n      and\n        /* \"contracts/Try01/Manage.sol\":1985:1990  owner */\n      dup3\n        /* \"contracts/Try01/Manage.sol\":1985:2004  owner != address(0) */\n      0xffffffffffffffffffffffffffffffffffffffff\n      and\n      eq\n      iszero\n        /* \"contracts/Try01/Manage.sol\":1985:2030  owner != address(0) && owner != address(this) */\n      dup1\n      iszero\n      tag_115\n      jumpi\n      pop\n        /* \"contracts/Try01/Manage.sol\":2025:2029  this */\n      address\n        /* \"contracts/Try01/Manage.sol\":2008:2030  owner != address(this) */\n      0xffffffffffffffffffffffffffffffffffffffff\n      and\n        /* \"contracts/Try01/Manage.sol\":2008:2013  owner */\n      dup3\n        /* \"contracts/Try01/Manage.sol\":2008:2030  owner != address(this) */\n      0xffffffffffffffffffffffffffffffffffffffff\n      and\n      eq\n      iszero\n        /* \"contracts/Try01/Manage.sol\":1985:2030  owner != address(0) && owner != address(this) */\n    tag_115:\n        /* \"contracts/Try01/Manage.sol\":1985:2052  owner != address(0) && owner != address(this) && !ownerExist(owner) */\n      dup1\n      iszero\n      tag_116\n      jumpi\n      pop\n        /* \"contracts/Try01/Manage.sol\":2035:2052  ownerExist(owner) */\n      tag_117\n        /* \"contracts/Try01/Manage.sol\":2046:2051  owner */\n      dup3\n        /* \"contracts/Try01/Manage.sol\":2035:2045  ownerExist */\n      tag_80\n        /* \"contracts/Try01/Manage.sol\":2035:2052  ownerExist(owner) */\n      jump\t// in\n    tag_117:\n        /* \"contracts/Try01/Manage.sol\":2034:2052  !ownerExist(owner) */\n      iszero\n        /* \"contracts/Try01/Manage.sol\":1985:2052  owner != address(0) && owner != address(this) && !ownerExist(owner) */\n    tag_116:\n        /* \"contracts/Try01/Manage.sol\":1977:2063  require(owner != address(0) && owner != address(this) && !ownerExist(owner),\"error04\") */\n      tag_118\n      jumpi\n      mload(0x40)\n      0x08c379a000000000000000000000000000000000000000000000000000000000\n      dup2\n      mstore\n      0x04\n      add\n      tag_119\n      swap1\n      tag_120\n      jump\t// in\n    tag_119:\n      mload(0x40)\n      dup1\n      swap2\n      sub\n      swap1\n      revert\n    tag_118:\n        /* \"contracts/Try01/Manage.sol\":2082:2097  addowner(owner) */\n      tag_121\n        /* \"contracts/Try01/Manage.sol\":2091:2096  owner */\n      dup3\n        /* \"contracts/Try01/Manage.sol\":2082:2090  addowner */\n      tag_49\n        /* \"contracts/Try01/Manage.sol\":2082:2097  addowner(owner) */\n      jump\t// in\n    tag_121:\n        /* \"contracts/Try01/Manage.sol\":2122:2127  owner */\n      dup2\n        /* \"contracts/Try01/Manage.sol\":2113:2128  AddOwner(owner) */\n      0xffffffffffffffffffffffffffffffffffffffff\n      and\n      0xac1e9ef41b54c676ccf449d83ae6f2624bcdce8f5b93a6b48ce95874c332693d\n      mload(0x40)\n      mload(0x40)\n      dup1\n      swap2\n      sub\n      swap1\n      log2\n        /* \"contracts/Try01/Manage.sol\":2224:2233  threshold */\n      sload(0x01)\n        /* \"contracts/Try01/Manage.sol\":2207:2220  new_threshold */\n      dup2\n        /* \"contracts/Try01/Manage.sol\":2207:2233  new_threshold != threshold */\n      eq\n        /* \"contracts/Try01/Manage.sol\":2203:2265  if (new_threshold != threshold) changeThreshold(new_threshold) */\n      tag_122\n      jumpi\n        /* \"contracts/Try01/Manage.sol\":2235:2265  changeThreshold(new_threshold) */\n      tag_123\n        /* \"contracts/Try01/Manage.sol\":2251:2264  new_threshold */\n      dup2\n        /* \"contracts/Try01/Manage.sol\":2235:2250  changeThreshold */\n      tag_59\n        /* \"contracts/Try01/Manage.sol\":2235:2265  changeThreshold(new_threshold) */\n      jump\t// in\n    tag_123:\n        /* \"contracts/Try01/Manage.sol\":2203:2265  if (new_threshold != threshold) changeThreshold(new_threshold) */\n    tag_122:\n        /* \"contracts/Try01/Manage.sol\":1714:2273  function addOwnersAndThreshold(address owner, uint256 new_threshold)public signed{... */\n      pop\n      pop\n      jump\t// out\n        /* \"contracts/Try01/Manage.sol\":7803:8048  function removeOwnersencode(address x, uint256 y) public pure returns(bytes memory result) {... */\n    tag_44:\n        /* \"contracts/Try01/Manage.sol\":7873:7892  bytes memory result */\n      0x60\n        /* \"contracts/Try01/Manage.sol\":7943:8009  keccak256(\"removeOwners(address preowner, uint256 new_threshold)\") */\n      0x5cb963ae197a87311b65f828de4c1673c22d6ac1a28aa681cfeb35b1ff025d7a\n        /* \"contracts/Try01/Manage.sol\":8012:8013  x */\n      dup4\n        /* \"contracts/Try01/Manage.sol\":8014:8015  y */\n      dup4\n        /* \"contracts/Try01/Manage.sol\":7913:8016  abi.encodeWithSelector(bytes4(keccak256(\"removeOwners(address preowner, uint256 new_threshold)\")), x,y) */\n      add(0x24, mload(0x40))\n      tag_125\n      swap3\n      swap2\n      swap1\n      tag_126\n      jump\t// in\n    tag_125:\n      mload(0x40)\n      0x20\n      dup2\n      dup4\n      sub\n      sub\n      dup2\n      mstore\n      swap1\n      0x40\n      mstore\n      swap1\n      not(0xffffffffffffffffffffffffffffffffffffffffffffffffffffffff)\n      and\n      0x20\n      dup3\n      add\n      dup1\n      mload\n      0xffffffffffffffffffffffffffffffffffffffffffffffffffffffff\n      dup4\n      dup2\n      dup4\n      and\n      or\n      dup4\n      mstore\n      pop\n      pop\n      pop\n      pop\n        /* \"contracts/Try01/Manage.sol\":7905:8016  result =abi.encodeWithSelector(bytes4(keccak256(\"removeOwners(address preowner, uint256 new_threshold)\")), x,y) */\n      swap1\n      pop\n        /* \"contracts/Try01/Manage.sol\":7803:8048  function removeOwnersencode(address x, uint256 y) public pure returns(bytes memory result) {... */\n      swap3\n      swap2\n      pop\n      pop\n      jump\t// out\n        /* \"contracts/Try01/Manage.sol\":3842:4836  function addowner(address owner)public  {... */\n    tag_49:\n        /* \"contracts/Try01/Manage.sol\":3918:3919  0 */\n      0x00\n        /* \"contracts/Try01/Manage.sol\":3901:3920  owner != address(0) */\n      0xffffffffffffffffffffffffffffffffffffffff\n      and\n        /* \"contracts/Try01/Manage.sol\":3901:3906  owner */\n      dup2\n        /* \"contracts/Try01/Manage.sol\":3901:3920  owner != address(0) */\n      0xffffffffffffffffffffffffffffffffffffffff\n      and\n      eq\n      iszero\n        /* \"contracts/Try01/Manage.sol\":3901:3946  owner != address(0) && owner != address(this) */\n      dup1\n      iszero\n      tag_128\n      jumpi\n      pop\n        /* \"contracts/Try01/Manage.sol\":3941:3945  this */\n      address\n        /* \"contracts/Try01/Manage.sol\":3924:3946  owner != address(this) */\n      0xffffffffffffffffffffffffffffffffffffffff\n      and\n        /* \"contracts/Try01/Manage.sol\":3924:3929  owner */\n      dup2\n        /* \"contracts/Try01/Manage.sol\":3924:3946  owner != address(this) */\n      0xffffffffffffffffffffffffffffffffffffffff\n      and\n      eq\n      iszero\n        /* \"contracts/Try01/Manage.sol\":3901:3946  owner != address(0) && owner != address(this) */\n    tag_128:\n        /* \"contracts/Try01/Manage.sol\":3901:3968  owner != address(0) && owner != address(this) && !ownerExist(owner) */\n      dup1\n      iszero\n      tag_129\n      jumpi\n      pop\n        /* \"contracts/Try01/Manage.sol\":3951:3968  ownerExist(owner) */\n      tag_130\n        /* \"contracts/Try01/Manage.sol\":3962:3967  owner */\n      dup2\n        /* \"contracts/Try01/Manage.sol\":3951:3961  ownerExist */\n      tag_80\n        /* \"contracts/Try01/Manage.sol\":3951:3968  ownerExist(owner) */\n      jump\t// in\n    tag_130:\n        /* \"contracts/Try01/Manage.sol\":3950:3968  !ownerExist(owner) */\n      iszero\n        /* \"contracts/Try01/Manage.sol\":3901:3968  owner != address(0) && owner != address(this) && !ownerExist(owner) */\n    tag_129:\n        /* \"contracts/Try01/Manage.sol\":3893:3979  require(owner != address(0) && owner != address(this) && !ownerExist(owner),\"error04\") */\n      tag_131\n      jumpi\n      mload(0x40)\n      0x08c379a000000000000000000000000000000000000000000000000000000000\n      dup2\n      mstore\n      0x04\n      add\n      tag_132\n      swap1\n      tag_120\n      jump\t// in\n    tag_132:\n      mload(0x40)\n      dup1\n      swap2\n      sub\n      swap1\n      revert\n    tag_131:\n        /* \"contracts/Try01/Manage.sol\":3990:4010  address currentowner */\n      0x00\n        /* \"contracts/Try01/Manage.sol\":707:710  0x1 */\n      0x01\n        /* \"contracts/Try01/Manage.sol\":3990:4018  address currentowner = _HEAD */\n      swap1\n      pop\n        /* \"contracts/Try01/Manage.sol\":4029:4046  address nextowner */\n      0x00\n        /* \"contracts/Try01/Manage.sol\":4072:4103  getAdjacent(currentowner,_NEXT) */\n      tag_133\n        /* \"contracts/Try01/Manage.sol\":4084:4096  currentowner */\n      dup3\n        /* \"contracts/Try01/Manage.sol\":558:562  true */\n      0x01\n        /* \"contracts/Try01/Manage.sol\":4072:4083  getAdjacent */\n      tag_100\n        /* \"contracts/Try01/Manage.sol\":4072:4103  getAdjacent(currentowner,_NEXT) */\n      jump\t// in\n    tag_133:\n        /* \"contracts/Try01/Manage.sol\":4057:4103  (,nextowner) = getAdjacent(currentowner,_NEXT) */\n      swap1\n      pop\n      dup1\n      swap2\n      pop\n      pop\n        /* \"contracts/Try01/Manage.sol\":4114:4736  while (nextowner != _NULL){... */\n    tag_134:\n        /* \"contracts/Try01/Manage.sol\":656:657  0 */\n      0x00\n        /* \"contracts/Try01/Manage.sol\":4121:4139  nextowner != _NULL */\n      0xffffffffffffffffffffffffffffffffffffffff\n      and\n        /* \"contracts/Try01/Manage.sol\":4121:4130  nextowner */\n      dup2\n        /* \"contracts/Try01/Manage.sol\":4121:4139  nextowner != _NULL */\n      0xffffffffffffffffffffffffffffffffffffffff\n      and\n      eq\n        /* \"contracts/Try01/Manage.sol\":4114:4736  while (nextowner != _NULL){... */\n      tag_135\n      jumpi\n        /* \"contracts/Try01/Manage.sol\":4175:4180  owner */\n      dup3\n        /* \"contracts/Try01/Manage.sol\":4163:4180  nextowner > owner */\n      0xffffffffffffffffffffffffffffffffffffffff\n      and\n        /* \"contracts/Try01/Manage.sol\":4163:4172  nextowner */\n      dup2\n        /* \"contracts/Try01/Manage.sol\":4163:4180  nextowner > owner */\n      0xffffffffffffffffffffffffffffffffffffffff\n      and\n      gt\n        /* \"contracts/Try01/Manage.sol\":4163:4204  nextowner > owner && currentowner < owner */\n      dup1\n      iszero\n      tag_136\n      jumpi\n      pop\n        /* \"contracts/Try01/Manage.sol\":4199:4204  owner */\n      dup3\n        /* \"contracts/Try01/Manage.sol\":4184:4204  currentowner < owner */\n      0xffffffffffffffffffffffffffffffffffffffff\n      and\n        /* \"contracts/Try01/Manage.sol\":4184:4196  currentowner */\n      dup3\n        /* \"contracts/Try01/Manage.sol\":4184:4204  currentowner < owner */\n      0xffffffffffffffffffffffffffffffffffffffff\n      and\n      lt\n        /* \"contracts/Try01/Manage.sol\":4163:4204  nextowner > owner && currentowner < owner */\n    tag_136:\n        /* \"contracts/Try01/Manage.sol\":4159:4721  if (nextowner > owner && currentowner < owner){... */\n      iszero\n      tag_137\n      jumpi\n        /* \"contracts/Try01/Manage.sol\":4228:4263  _insert(currentowner, owner, _NEXT) */\n      tag_138\n        /* \"contracts/Try01/Manage.sol\":4236:4248  currentowner */\n      dup3\n        /* \"contracts/Try01/Manage.sol\":4250:4255  owner */\n      dup5\n        /* \"contracts/Try01/Manage.sol\":558:562  true */\n      0x01\n        /* \"contracts/Try01/Manage.sol\":4228:4235  _insert */\n      tag_139\n        /* \"contracts/Try01/Manage.sol\":4228:4263  _insert(currentowner, owner, _NEXT) */\n      jump\t// in\n    tag_138:\n        /* \"contracts/Try01/Manage.sol\":4286:4291  break */\n      jump(tag_135)\n        /* \"contracts/Try01/Manage.sol\":4159:4721  if (nextowner > owner && currentowner < owner){... */\n    tag_137:\n        /* \"contracts/Try01/Manage.sol\":4373:4378  owner */\n      dup3\n        /* \"contracts/Try01/Manage.sol\":4361:4378  nextowner > owner */\n      0xffffffffffffffffffffffffffffffffffffffff\n      and\n        /* \"contracts/Try01/Manage.sol\":4361:4370  nextowner */\n      dup2\n        /* \"contracts/Try01/Manage.sol\":4361:4378  nextowner > owner */\n      0xffffffffffffffffffffffffffffffffffffffff\n      and\n      gt\n        /* \"contracts/Try01/Manage.sol\":4357:4702  if (nextowner > owner){... */\n      iszero\n      tag_141\n      jumpi\n        /* \"contracts/Try01/Manage.sol\":4418:4430  currentowner */\n      dup2\n        /* \"contracts/Try01/Manage.sol\":4406:4430  nextowner = currentowner */\n      swap1\n      pop\n        /* \"contracts/Try01/Manage.sol\":4475:4506  getAdjacent(currentowner, _PRE) */\n      tag_142\n        /* \"contracts/Try01/Manage.sol\":4487:4499  currentowner */\n      dup3\n        /* \"contracts/Try01/Manage.sol\":515:520  false */\n      0x00\n        /* \"contracts/Try01/Manage.sol\":4475:4486  getAdjacent */\n      tag_100\n        /* \"contracts/Try01/Manage.sol\":4475:4506  getAdjacent(currentowner, _PRE) */\n      jump\t// in\n    tag_142:\n        /* \"contracts/Try01/Manage.sol\":4457:4506  (,currentowner) = getAdjacent(currentowner, _PRE) */\n      swap1\n      pop\n      dup1\n      swap3\n      pop\n      pop\n        /* \"contracts/Try01/Manage.sol\":4357:4702  if (nextowner > owner){... */\n      jump(tag_143)\n    tag_141:\n        /* \"contracts/Try01/Manage.sol\":4598:4607  nextowner */\n      dup1\n        /* \"contracts/Try01/Manage.sol\":4583:4607  currentowner = nextowner */\n      swap2\n      pop\n        /* \"contracts/Try01/Manage.sol\":4649:4678  getAdjacent(nextowner, _NEXT) */\n      tag_144\n        /* \"contracts/Try01/Manage.sol\":4661:4670  nextowner */\n      dup2\n        /* \"contracts/Try01/Manage.sol\":558:562  true */\n      0x01\n        /* \"contracts/Try01/Manage.sol\":4649:4660  getAdjacent */\n      tag_100\n        /* \"contracts/Try01/Manage.sol\":4649:4678  getAdjacent(nextowner, _NEXT) */\n      jump\t// in\n    tag_144:\n        /* \"contracts/Try01/Manage.sol\":4634:4678  (,nextowner) = getAdjacent(nextowner, _NEXT) */\n      swap1\n      pop\n      dup1\n      swap2\n      pop\n      pop\n        /* \"contracts/Try01/Manage.sol\":4357:4702  if (nextowner > owner){... */\n    tag_143:\n        /* \"contracts/Try01/Manage.sol\":4114:4736  while (nextowner != _NULL){... */\n      jump(tag_134)\n    tag_135:\n        /* \"contracts/Try01/Manage.sol\":656:657  0 */\n      0x00\n        /* \"contracts/Try01/Manage.sol\":4750:4768  nextowner == _NULL */\n      0xffffffffffffffffffffffffffffffffffffffff\n      and\n        /* \"contracts/Try01/Manage.sol\":4750:4759  nextowner */\n      dup2\n        /* \"contracts/Try01/Manage.sol\":4750:4768  nextowner == _NULL */\n      0xffffffffffffffffffffffffffffffffffffffff\n      and\n      sub\n        /* \"contracts/Try01/Manage.sol\":4746:4805  if (nextowner == _NULL) _insert(currentowner, owner, _NEXT) */\n      tag_145\n      jumpi\n        /* \"contracts/Try01/Manage.sol\":4770:4805  _insert(currentowner, owner, _NEXT) */\n      tag_146\n        /* \"contracts/Try01/Manage.sol\":4778:4790  currentowner */\n      dup3\n        /* \"contracts/Try01/Manage.sol\":4792:4797  owner */\n      dup5\n        /* \"contracts/Try01/Manage.sol\":558:562  true */\n      0x01\n        /* \"contracts/Try01/Manage.sol\":4770:4777  _insert */\n      tag_139\n        /* \"contracts/Try01/Manage.sol\":4770:4805  _insert(currentowner, owner, _NEXT) */\n      jump\t// in\n    tag_146:\n        /* \"contracts/Try01/Manage.sol\":4746:4805  if (nextowner == _NULL) _insert(currentowner, owner, _NEXT) */\n    tag_145:\n        /* \"contracts/Try01/Manage.sol\":4816:4826  owners_num */\n      0x00\n      dup1\n        /* \"contracts/Try01/Manage.sol\":4816:4828  owners_num++ */\n      dup2\n      sload\n      dup1\n      swap3\n      swap2\n      swap1\n      tag_147\n      swap1\n      tag_102\n      jump\t// in\n    tag_147:\n      swap2\n      swap1\n      pop\n      sstore\n      pop\n        /* \"contracts/Try01/Manage.sol\":3882:4836  {... */\n      pop\n      pop\n        /* \"contracts/Try01/Manage.sol\":3842:4836  function addowner(address owner)public  {... */\n      pop\n      jump\t// out\n        /* \"contracts/Try01/Manage.sol\":6431:6661  function changeThresholdencode(uint256 new_threshold) public pure returns(bytes memory result) {... */\n    tag_54:\n        /* \"contracts/Try01/Manage.sol\":6505:6524  bytes memory result */\n      0x60\n        /* \"contracts/Try01/Manage.sol\":6575:6612  keccak256(\"changeThreshold(uint256)\") */\n      0x694e80c37192d74d6099f3d3b41506932ab644a24442ee51857cfeb9eb01ac2f\n        /* \"contracts/Try01/Manage.sol\":6615:6628  new_threshold */\n      dup3\n        /* \"contracts/Try01/Manage.sol\":6545:6629  abi.encodeWithSelector(bytes4(keccak256(\"changeThreshold(uint256)\")), new_threshold) */\n      add(0x24, mload(0x40))\n      tag_149\n      swap2\n      swap1\n      tag_35\n      jump\t// in\n    tag_149:\n      mload(0x40)\n      0x20\n      dup2\n      dup4\n      sub\n      sub\n      dup2\n      mstore\n      swap1\n      0x40\n      mstore\n      swap1\n      not(0xffffffffffffffffffffffffffffffffffffffffffffffffffffffff)\n      and\n      0x20\n      dup3\n      add\n      dup1\n      mload\n      0xffffffffffffffffffffffffffffffffffffffffffffffffffffffff\n      dup4\n      dup2\n      dup4\n      and\n      or\n      dup4\n      mstore\n      pop\n      pop\n      pop\n      pop\n        /* \"contracts/Try01/Manage.sol\":6537:6629  result =abi.encodeWithSelector(bytes4(keccak256(\"changeThreshold(uint256)\")), new_threshold) */\n      swap1\n      pop\n        /* \"contracts/Try01/Manage.sol\":6431:6661  function changeThresholdencode(uint256 new_threshold) public pure returns(bytes memory result) {... */\n      swap2\n      swap1\n      pop\n      jump\t// out\n        /* \"contracts/Try01/Manage.sol\":2899:3239  function changeThreshold(uint256 new_threshold)public signed{... */\n    tag_59:\n        /* \"contracts/Try01/Manage.sol\":6338:6342  this */\n      address\n        /* \"contracts/Try01/Manage.sol\":6318:6343  msg.sender==address(this) */\n      0xffffffffffffffffffffffffffffffffffffffff\n      and\n        /* \"contracts/Try01/Manage.sol\":6318:6328  msg.sender */\n      caller\n        /* \"contracts/Try01/Manage.sol\":6318:6343  msg.sender==address(this) */\n      0xffffffffffffffffffffffffffffffffffffffff\n      and\n      eq\n        /* \"contracts/Try01/Manage.sol\":6310:6361  require(msg.sender==address(this),\"Not authorized\") */\n      tag_151\n      jumpi\n      mload(0x40)\n      0x08c379a000000000000000000000000000000000000000000000000000000000\n      dup2\n      mstore\n      0x04\n      add\n      tag_152\n      swap1\n      tag_109\n      jump\t// in\n    tag_152:\n      mload(0x40)\n      dup1\n      swap2\n      sub\n      swap1\n      revert\n    tag_151:\n        /* \"contracts/Try01/Manage.sol\":3044:3054  owners_num */\n      sload(0x00)\n        /* \"contracts/Try01/Manage.sol\":3027:3040  new_threshold */\n      dup2\n        /* \"contracts/Try01/Manage.sol\":3027:3054  new_threshold <= owners_num */\n      gt\n      iszero\n        /* \"contracts/Try01/Manage.sol\":3019:3066  require(new_threshold <= owners_num, \"error02\") */\n      tag_154\n      jumpi\n      mload(0x40)\n      0x08c379a000000000000000000000000000000000000000000000000000000000\n      dup2\n      mstore\n      0x04\n      add\n      tag_155\n      swap1\n      tag_156\n      jump\t// in\n    tag_155:\n      mload(0x40)\n      dup1\n      swap2\n      sub\n      swap1\n      revert\n    tag_154:\n        /* \"contracts/Try01/Manage.sol\":3140:3141  1 */\n      0x01\n        /* \"contracts/Try01/Manage.sol\":3123:3136  new_threshold */\n      dup2\n        /* \"contracts/Try01/Manage.sol\":3123:3141  new_threshold >= 1 */\n      lt\n      iszero\n        /* \"contracts/Try01/Manage.sol\":3115:3153  require(new_threshold >= 1, \"error03\") */\n      tag_157\n      jumpi\n      mload(0x40)\n      0x08c379a000000000000000000000000000000000000000000000000000000000\n      dup2\n      mstore\n      0x04\n      add\n      tag_158\n      swap1\n      tag_159\n      jump\t// in\n    tag_158:\n      mload(0x40)\n      dup1\n      swap2\n      sub\n      swap1\n      revert\n    tag_157:\n        /* \"contracts/Try01/Manage.sol\":3176:3189  new_threshold */\n      dup1\n        /* \"contracts/Try01/Manage.sol\":3164:3173  threshold */\n      0x01\n        /* \"contracts/Try01/Manage.sol\":3164:3189  threshold = new_threshold */\n      dup2\n      swap1\n      sstore\n      pop\n        /* \"contracts/Try01/Manage.sol\":3205:3231  ChangeThreshold(threshold) */\n      0x9947ac58e204d2da07b9748298663b3b77da7fb0638201d778987ded7c90fbaa\n        /* \"contracts/Try01/Manage.sol\":3221:3230  threshold */\n      sload(0x01)\n        /* \"contracts/Try01/Manage.sol\":3205:3231  ChangeThreshold(threshold) */\n      mload(0x40)\n      tag_160\n      swap2\n      swap1\n      tag_35\n      jump\t// in\n    tag_160:\n      mload(0x40)\n      dup1\n      swap2\n      sub\n      swap1\n      log1\n        /* \"contracts/Try01/Manage.sol\":2899:3239  function changeThreshold(uint256 new_threshold)public signed{... */\n      pop\n      jump\t// out\n        /* \"contracts/Try01/Manage.sol\":3274:3362  function checkThreshold()public view returns(uint256){... */\n    tag_62:\n        /* \"contracts/Try01/Manage.sol\":3319:3326  uint256 */\n      0x00\n        /* \"contracts/Try01/Manage.sol\":3345:3354  threshold */\n      sload(0x01)\n        /* \"contracts/Try01/Manage.sol\":3338:3354  return threshold */\n      swap1\n      pop\n        /* \"contracts/Try01/Manage.sol\":3274:3362  function checkThreshold()public view returns(uint256){... */\n      swap1\n      jump\t// out\n        /* \"contracts/Try01/Manage.sol\":720:1622  function _initialwallet(address[] memory _owners,uint256 _threshold)public  {... */\n    tag_68:\n        /* \"contracts/Try01/Manage.sol\":874:875  0 */\n      0x00\n        /* \"contracts/Try01/Manage.sol\":861:870  threshold */\n      sload(0x01)\n        /* \"contracts/Try01/Manage.sol\":861:875  threshold == 0 */\n      eq\n        /* \"contracts/Try01/Manage.sol\":853:887  require(threshold == 0, \"error01\") */\n      tag_163\n      jumpi\n      mload(0x40)\n      0x08c379a000000000000000000000000000000000000000000000000000000000\n      dup2\n      mstore\n      0x04\n      add\n      tag_164\n      swap1\n      tag_165\n      jump\t// in\n    tag_164:\n      mload(0x40)\n      dup1\n      swap2\n      sub\n      swap1\n      revert\n    tag_163:\n        /* \"contracts/Try01/Manage.sol\":969:976  _owners */\n      dup2\n        /* \"contracts/Try01/Manage.sol\":969:983  _owners.length */\n      mload\n        /* \"contracts/Try01/Manage.sol\":955:965  _threshold */\n      dup2\n        /* \"contracts/Try01/Manage.sol\":955:983  _threshold <= _owners.length */\n      gt\n      iszero\n        /* \"contracts/Try01/Manage.sol\":947:995  require(_threshold <= _owners.length, \"error02\") */\n      tag_166\n      jumpi\n      mload(0x40)\n      0x08c379a000000000000000000000000000000000000000000000000000000000\n      dup2\n      mstore\n      0x04\n      add\n      tag_167\n      swap1\n      tag_156\n      jump\t// in\n    tag_167:\n      mload(0x40)\n      dup1\n      swap2\n      sub\n      swap1\n      revert\n    tag_166:\n        /* \"contracts/Try01/Manage.sol\":1066:1067  1 */\n      0x01\n        /* \"contracts/Try01/Manage.sol\":1052:1062  _threshold */\n      dup2\n        /* \"contracts/Try01/Manage.sol\":1052:1067  _threshold >= 1 */\n      lt\n      iszero\n        /* \"contracts/Try01/Manage.sol\":1044:1079  require(_threshold >= 1, \"error03\") */\n      tag_168\n      jumpi\n      mload(0x40)\n      0x08c379a000000000000000000000000000000000000000000000000000000000\n      dup2\n      mstore\n      0x04\n      add\n      tag_169\n      swap1\n      tag_159\n      jump\t// in\n    tag_169:\n      mload(0x40)\n      dup1\n      swap2\n      sub\n      swap1\n      revert\n    tag_168:\n        /* \"contracts/Try01/Manage.sol\":1124:1144  address currentowner */\n      0x00\n        /* \"contracts/Try01/Manage.sol\":707:710  0x1 */\n      0x01\n        /* \"contracts/Try01/Manage.sol\":1124:1152  address currentowner = _HEAD */\n      swap1\n      pop\n        /* \"contracts/Try01/Manage.sol\":1168:1174  uint i */\n      0x00\n        /* \"contracts/Try01/Manage.sol\":1163:1503  for (uint i=0; i<_owners.length;i++)... */\n    tag_170:\n        /* \"contracts/Try01/Manage.sol\":1180:1187  _owners */\n      dup4\n        /* \"contracts/Try01/Manage.sol\":1180:1194  _owners.length */\n      mload\n        /* \"contracts/Try01/Manage.sol\":1178:1179  i */\n      dup2\n        /* \"contracts/Try01/Manage.sol\":1178:1194  i<_owners.length */\n      lt\n        /* \"contracts/Try01/Manage.sol\":1163:1503  for (uint i=0; i<_owners.length;i++)... */\n      iszero\n      tag_171\n      jumpi\n        /* \"contracts/Try01/Manage.sol\":1224:1237  address owner */\n      0x00\n        /* \"contracts/Try01/Manage.sol\":1240:1247  _owners */\n      dup5\n        /* \"contracts/Try01/Manage.sol\":1248:1249  i */\n      dup3\n        /* \"contracts/Try01/Manage.sol\":1240:1250  _owners[i] */\n      dup2\n      mload\n      dup2\n      lt\n      tag_173\n      jumpi\n      tag_174\n      tag_98\n      jump\t// in\n    tag_174:\n    tag_173:\n      0x20\n      mul\n      0x20\n      add\n      add\n      mload\n        /* \"contracts/Try01/Manage.sol\":1224:1250  address owner = _owners[i] */\n      swap1\n      pop\n        /* \"contracts/Try01/Manage.sol\":1365:1366  0 */\n      0x00\n        /* \"contracts/Try01/Manage.sol\":1348:1367  owner != address(0) */\n      0xffffffffffffffffffffffffffffffffffffffff\n      and\n        /* \"contracts/Try01/Manage.sol\":1348:1353  owner */\n      dup2\n        /* \"contracts/Try01/Manage.sol\":1348:1367  owner != address(0) */\n      0xffffffffffffffffffffffffffffffffffffffff\n      and\n      eq\n      iszero\n        /* \"contracts/Try01/Manage.sol\":1348:1393  owner != address(0) && owner != address(this) */\n      dup1\n      iszero\n      tag_175\n      jumpi\n      pop\n        /* \"contracts/Try01/Manage.sol\":1388:1392  this */\n      address\n        /* \"contracts/Try01/Manage.sol\":1371:1393  owner != address(this) */\n      0xffffffffffffffffffffffffffffffffffffffff\n      and\n        /* \"contracts/Try01/Manage.sol\":1371:1376  owner */\n      dup2\n        /* \"contracts/Try01/Manage.sol\":1371:1393  owner != address(this) */\n      0xffffffffffffffffffffffffffffffffffffffff\n      and\n      eq\n      iszero\n        /* \"contracts/Try01/Manage.sol\":1348:1393  owner != address(0) && owner != address(this) */\n    tag_175:\n        /* \"contracts/Try01/Manage.sol\":1348:1415  owner != address(0) && owner != address(this) && !ownerExist(owner) */\n      dup1\n      iszero\n      tag_176\n      jumpi\n      pop\n        /* \"contracts/Try01/Manage.sol\":1398:1415  ownerExist(owner) */\n      tag_177\n        /* \"contracts/Try01/Manage.sol\":1409:1414  owner */\n      dup2\n        /* \"contracts/Try01/Manage.sol\":1398:1408  ownerExist */\n      tag_80\n        /* \"contracts/Try01/Manage.sol\":1398:1415  ownerExist(owner) */\n      jump\t// in\n    tag_177:\n        /* \"contracts/Try01/Manage.sol\":1397:1415  !ownerExist(owner) */\n      iszero\n        /* \"contracts/Try01/Manage.sol\":1348:1415  owner != address(0) && owner != address(this) && !ownerExist(owner) */\n    tag_176:\n        /* \"contracts/Try01/Manage.sol\":1340:1426  require(owner != address(0) && owner != address(this) && !ownerExist(owner),\"error04\") */\n      tag_178\n      jumpi\n      mload(0x40)\n      0x08c379a000000000000000000000000000000000000000000000000000000000\n      dup2\n      mstore\n      0x04\n      add\n      tag_179\n      swap1\n      tag_120\n      jump\t// in\n    tag_179:\n      mload(0x40)\n      dup1\n      swap2\n      sub\n      swap1\n      revert\n    tag_178:\n        /* \"contracts/Try01/Manage.sol\":1441:1456  addowner(owner) */\n      tag_180\n        /* \"contracts/Try01/Manage.sol\":1450:1455  owner */\n      dup2\n        /* \"contracts/Try01/Manage.sol\":1441:1449  addowner */\n      tag_49\n        /* \"contracts/Try01/Manage.sol\":1441:1456  addowner(owner) */\n      jump\t// in\n    tag_180:\n        /* \"contracts/Try01/Manage.sol\":1486:1491  owner */\n      dup1\n        /* \"contracts/Try01/Manage.sol\":1471:1491  currentowner = owner */\n      swap3\n      pop\n        /* \"contracts/Try01/Manage.sol\":1209:1503  {... */\n      pop\n        /* \"contracts/Try01/Manage.sol\":1195:1198  i++ */\n      dup1\n      dup1\n      tag_181\n      swap1\n      tag_102\n      jump\t// in\n    tag_181:\n      swap2\n      pop\n      pop\n        /* \"contracts/Try01/Manage.sol\":1163:1503  for (uint i=0; i<_owners.length;i++)... */\n      jump(tag_170)\n    tag_171:\n      pop\n        /* \"contracts/Try01/Manage.sol\":1556:1566  _threshold */\n      dup2\n        /* \"contracts/Try01/Manage.sol\":1544:1553  threshold */\n      0x01\n        /* \"contracts/Try01/Manage.sol\":1544:1566  threshold = _threshold */\n      dup2\n      swap1\n      sstore\n      pop\n        /* \"contracts/Try01/Manage.sol\":1590:1597  _owners */\n      dup3\n        /* \"contracts/Try01/Manage.sol\":1590:1604  _owners.length */\n      mload\n        /* \"contracts/Try01/Manage.sol\":1577:1587  owners_num */\n      0x00\n        /* \"contracts/Try01/Manage.sol\":1577:1604  owners_num = _owners.length */\n      dup2\n      swap1\n      sstore\n      pop\n        /* \"contracts/Try01/Manage.sol\":796:1622  {... */\n      pop\n        /* \"contracts/Try01/Manage.sol\":720:1622  function _initialwallet(address[] memory _owners,uint256 _threshold)public  {... */\n      pop\n      pop\n      jump\t// out\n        /* \"contracts/Try01/Manage.sol\":2365:2810  function removeOwners(address preowner, uint256 new_threshold)public signed{... */\n    tag_72:\n        /* \"contracts/Try01/Manage.sol\":6338:6342  this */\n      address\n        /* \"contracts/Try01/Manage.sol\":6318:6343  msg.sender==address(this) */\n      0xffffffffffffffffffffffffffffffffffffffff\n      and\n        /* \"contracts/Try01/Manage.sol\":6318:6328  msg.sender */\n      caller\n        /* \"contracts/Try01/Manage.sol\":6318:6343  msg.sender==address(this) */\n      0xffffffffffffffffffffffffffffffffffffffff\n      and\n      eq\n        /* \"contracts/Try01/Manage.sol\":6310:6361  require(msg.sender==address(this),\"Not authorized\") */\n      tag_183\n      jumpi\n      mload(0x40)\n      0x08c379a000000000000000000000000000000000000000000000000000000000\n      dup2\n      mstore\n      0x04\n      add\n      tag_184\n      swap1\n      tag_109\n      jump\t// in\n    tag_184:\n      mload(0x40)\n      dup1\n      swap2\n      sub\n      swap1\n      revert\n    tag_183:\n        /* \"contracts/Try01/Manage.sol\":2519:2532  new_threshold */\n      dup1\n        /* \"contracts/Try01/Manage.sol\":2515:2516  1 */\n      0x01\n        /* \"contracts/Try01/Manage.sol\":2502:2512  owners_num */\n      sload(0x00)\n        /* \"contracts/Try01/Manage.sol\":2502:2516  owners_num - 1 */\n      tag_186\n      swap2\n      swap1\n      tag_187\n      jump\t// in\n    tag_186:\n        /* \"contracts/Try01/Manage.sol\":2502:2532  owners_num - 1 >=new_threshold */\n      lt\n      iszero\n        /* \"contracts/Try01/Manage.sol\":2494:2543  require(owners_num - 1 >=new_threshold,\"error02\") */\n      tag_188\n      jumpi\n      mload(0x40)\n      0x08c379a000000000000000000000000000000000000000000000000000000000\n      dup2\n      mstore\n      0x04\n      add\n      tag_189\n      swap1\n      tag_156\n      jump\t// in\n    tag_189:\n      mload(0x40)\n      dup1\n      swap2\n      sub\n      swap1\n      revert\n    tag_188:\n        /* \"contracts/Try01/Manage.sol\":2602:2622  ownerExist(preowner) */\n      tag_190\n        /* \"contracts/Try01/Manage.sol\":2613:2621  preowner */\n      dup3\n        /* \"contracts/Try01/Manage.sol\":2602:2612  ownerExist */\n      tag_80\n        /* \"contracts/Try01/Manage.sol\":2602:2622  ownerExist(preowner) */\n      jump\t// in\n    tag_190:\n        /* \"contracts/Try01/Manage.sol\":2594:2633  require(ownerExist(preowner),\"error07\") */\n      tag_191\n      jumpi\n      mload(0x40)\n      0x08c379a000000000000000000000000000000000000000000000000000000000\n      dup2\n      mstore\n      0x04\n      add\n      tag_192\n      swap1\n      tag_193\n      jump\t// in\n    tag_192:\n      mload(0x40)\n      dup1\n      swap2\n      sub\n      swap1\n      revert\n    tag_191:\n        /* \"contracts/Try01/Manage.sol\":2672:2693  removeowner(preowner) */\n      tag_194\n        /* \"contracts/Try01/Manage.sol\":2684:2692  preowner */\n      dup3\n        /* \"contracts/Try01/Manage.sol\":2672:2683  removeowner */\n      tag_195\n        /* \"contracts/Try01/Manage.sol\":2672:2693  removeowner(preowner) */\n      jump\t// in\n    tag_194:\n        /* \"contracts/Try01/Manage.sol\":2721:2729  preowner */\n      dup2\n        /* \"contracts/Try01/Manage.sol\":2709:2730  RemoveOwner(preowner) */\n      0xffffffffffffffffffffffffffffffffffffffff\n      and\n      0xac6e8398676cf37429d530b81144d7079e99f4fe9d28b0d88c4a749ceccbe8cd\n      mload(0x40)\n      mload(0x40)\n      dup1\n      swap2\n      sub\n      swap1\n      log2\n        /* \"contracts/Try01/Manage.sol\":2761:2770  threshold */\n      sload(0x01)\n        /* \"contracts/Try01/Manage.sol\":2744:2757  new_threshold */\n      dup2\n        /* \"contracts/Try01/Manage.sol\":2744:2770  new_threshold != threshold */\n      eq\n        /* \"contracts/Try01/Manage.sol\":2741:2802  if(new_threshold != threshold) changeThreshold(new_threshold) */\n      tag_196\n      jumpi\n        /* \"contracts/Try01/Manage.sol\":2772:2802  changeThreshold(new_threshold) */\n      tag_197\n        /* \"contracts/Try01/Manage.sol\":2788:2801  new_threshold */\n      dup2\n        /* \"contracts/Try01/Manage.sol\":2772:2787  changeThreshold */\n      tag_59\n        /* \"contracts/Try01/Manage.sol\":2772:2802  changeThreshold(new_threshold) */\n      jump\t// in\n    tag_197:\n        /* \"contracts/Try01/Manage.sol\":2741:2802  if(new_threshold != threshold) changeThreshold(new_threshold) */\n    tag_196:\n        /* \"contracts/Try01/Manage.sol\":2365:2810  function removeOwners(address preowner, uint256 new_threshold)public signed{... */\n      pop\n      pop\n      jump\t// out\n        /* \"contracts/Try01/t02.sol\":125:257  function delegate( address to, bytes memory data)public payable {... */\n    tag_76:\n        /* \"contracts/Try01/t02.sol\":200:212  bool success */\n      0x00\n        /* \"contracts/Try01/t02.sol\":236:238  to */\n      dup3\n        /* \"contracts/Try01/t02.sol\":236:243  to.call */\n      0xffffffffffffffffffffffffffffffffffffffff\n      and\n        /* \"contracts/Try01/t02.sol\":244:248  data */\n      dup3\n        /* \"contracts/Try01/t02.sol\":236:249  to.call(data) */\n      mload(0x40)\n      tag_199\n      swap2\n      swap1\n      tag_200\n      jump\t// in\n    tag_199:\n      0x00\n      mload(0x40)\n      dup1\n      dup4\n      sub\n      dup2\n      0x00\n      dup7\n      gas\n      call\n      swap2\n      pop\n      pop\n      returndatasize\n      dup1\n      0x00\n      dup2\n      eq\n      tag_203\n      jumpi\n      mload(0x40)\n      swap2\n      pop\n      and(add(returndatasize, 0x3f), not(0x1f))\n      dup3\n      add\n      0x40\n      mstore\n      returndatasize\n      dup3\n      mstore\n      returndatasize\n      0x00\n      0x20\n      dup5\n      add\n      returndatacopy\n      jump(tag_202)\n    tag_203:\n      0x60\n      swap2\n      pop\n    tag_202:\n      pop\n        /* \"contracts/Try01/t02.sol\":223:249  (success,) = to.call(data) */\n      pop\n      dup1\n      swap2\n      pop\n      pop\n        /* \"contracts/Try01/t02.sol\":189:257  {... */\n      pop\n        /* \"contracts/Try01/t02.sol\":125:257  function delegate( address to, bytes memory data)public payable {... */\n      pop\n      pop\n      jump\t// out\n        /* \"contracts/Try01/Manage.sol\":5499:5652  function ownerExist(address _owner)public view returns (bool){... */\n    tag_80:\n        /* \"contracts/Try01/Manage.sol\":5555:5559  bool */\n      0x00\n        /* \"contracts/Try01/Manage.sol\":656:657  0 */\n      dup1\n        /* \"contracts/Try01/Manage.sol\":5579:5608  owners[_owner][_PRE] != _NULL */\n      0xffffffffffffffffffffffffffffffffffffffff\n      and\n        /* \"contracts/Try01/Manage.sol\":5579:5585  owners */\n      0x02\n        /* \"contracts/Try01/Manage.sol\":5579:5593  owners[_owner] */\n      0x00\n        /* \"contracts/Try01/Manage.sol\":5586:5592  _owner */\n      dup5\n        /* \"contracts/Try01/Manage.sol\":5579:5593  owners[_owner] */\n      0xffffffffffffffffffffffffffffffffffffffff\n      and\n      0xffffffffffffffffffffffffffffffffffffffff\n      and\n      dup2\n      mstore\n      0x20\n      add\n      swap1\n      dup2\n      mstore\n      0x20\n      add\n      0x00\n      keccak256\n        /* \"contracts/Try01/Manage.sol\":5579:5599  owners[_owner][_PRE] */\n      0x00\n        /* \"contracts/Try01/Manage.sol\":515:520  false */\n      dup1\n        /* \"contracts/Try01/Manage.sol\":5579:5599  owners[_owner][_PRE] */\n      iszero\n      iszero\n      iszero\n      iszero\n      dup2\n      mstore\n      0x20\n      add\n      swap1\n      dup2\n      mstore\n      0x20\n      add\n      0x00\n      keccak256\n      0x00\n      swap1\n      sload\n      swap1\n      0x0100\n      exp\n      swap1\n      div\n      0xffffffffffffffffffffffffffffffffffffffff\n      and\n        /* \"contracts/Try01/Manage.sol\":5579:5608  owners[_owner][_PRE] != _NULL */\n      0xffffffffffffffffffffffffffffffffffffffff\n      and\n      eq\n      iszero\n        /* \"contracts/Try01/Manage.sol\":5579:5642  owners[_owner][_PRE] != _NULL || owners[_owner][_NEXT] != _NULL */\n      dup1\n      tag_205\n      jumpi\n      pop\n        /* \"contracts/Try01/Manage.sol\":656:657  0 */\n      0x00\n        /* \"contracts/Try01/Manage.sol\":5612:5642  owners[_owner][_NEXT] != _NULL */\n      0xffffffffffffffffffffffffffffffffffffffff\n      and\n        /* \"contracts/Try01/Manage.sol\":5612:5618  owners */\n      0x02\n        /* \"contracts/Try01/Manage.sol\":5612:5626  owners[_owner] */\n      0x00\n        /* \"contracts/Try01/Manage.sol\":5619:5625  _owner */\n      dup5\n        /* \"contracts/Try01/Manage.sol\":5612:5626  owners[_owner] */\n      0xffffffffffffffffffffffffffffffffffffffff\n      and\n      0xffffffffffffffffffffffffffffffffffffffff\n      and\n      dup2\n      mstore\n      0x20\n      add\n      swap1\n      dup2\n      mstore\n      0x20\n      add\n      0x00\n      keccak256\n        /* \"contracts/Try01/Manage.sol\":5612:5633  owners[_owner][_NEXT] */\n      0x00\n        /* \"contracts/Try01/Manage.sol\":558:562  true */\n      0x01\n        /* \"contracts/Try01/Manage.sol\":5612:5633  owners[_owner][_NEXT] */\n      iszero\n      iszero\n      iszero\n      iszero\n      dup2\n      mstore\n      0x20\n      add\n      swap1\n      dup2\n      mstore\n      0x20\n      add\n      0x00\n      keccak256\n      0x00\n      swap1\n      sload\n      swap1\n      0x0100\n      exp\n      swap1\n      div\n      0xffffffffffffffffffffffffffffffffffffffff\n      and\n        /* \"contracts/Try01/Manage.sol\":5612:5642  owners[_owner][_NEXT] != _NULL */\n      0xffffffffffffffffffffffffffffffffffffffff\n      and\n      eq\n      iszero\n        /* \"contracts/Try01/Manage.sol\":5579:5642  owners[_owner][_PRE] != _NULL || owners[_owner][_NEXT] != _NULL */\n    tag_205:\n        /* \"contracts/Try01/Manage.sol\":5571:5643  return (owners[_owner][_PRE] != _NULL || owners[_owner][_NEXT] != _NULL) */\n      swap1\n      pop\n        /* \"contracts/Try01/Manage.sol\":5499:5652  function ownerExist(address _owner)public view returns (bool){... */\n      swap2\n      swap1\n      pop\n      jump\t// out\n        /* \"contracts/Try01/Manage.sol\":6709:6936  function addOwnersencode(address x, uint256 y) public pure returns(bytes memory result) {... */\n    tag_86:\n        /* \"contracts/Try01/Manage.sol\":6776:6795  bytes memory result */\n      0x60\n        /* \"contracts/Try01/Manage.sol\":6846:6898  keccak256(\"addOwnersAndThreshold(address, uint256)\") */\n      0x0f6fd209ba0161acfd0f4d4fa947b5907845ed1e66071e030be54ba4c310c5a6\n        /* \"contracts/Try01/Manage.sol\":6900:6901  x */\n      dup4\n        /* \"contracts/Try01/Manage.sol\":6902:6903  y */\n      dup4\n        /* \"contracts/Try01/Manage.sol\":6816:6904  abi.encodeWithSelector(bytes4(keccak256(\"addOwnersAndThreshold(address, uint256)\")),x,y) */\n      add(0x24, mload(0x40))\n      tag_207\n      swap3\n      swap2\n      swap1\n      tag_126\n      jump\t// in\n    tag_207:\n      mload(0x40)\n      0x20\n      dup2\n      dup4\n      sub\n      sub\n      dup2\n      mstore\n      swap1\n      0x40\n      mstore\n      swap1\n      not(0xffffffffffffffffffffffffffffffffffffffffffffffffffffffff)\n      and\n      0x20\n      dup3\n      add\n      dup1\n      mload\n      0xffffffffffffffffffffffffffffffffffffffffffffffffffffffff\n      dup4\n      dup2\n      dup4\n      and\n      or\n      dup4\n      mstore\n      pop\n      pop\n      pop\n      pop\n        /* \"contracts/Try01/Manage.sol\":6808:6904  result =abi.encodeWithSelector(bytes4(keccak256(\"addOwnersAndThreshold(address, uint256)\")),x,y) */\n      swap1\n      pop\n        /* \"contracts/Try01/Manage.sol\":6709:6936  function addOwnersencode(address x, uint256 y) public pure returns(bytes memory result) {... */\n      swap3\n      swap2\n      pop\n      pop\n      jump\t// out\n        /* \"contracts/Try01/Manage.sol\":5918:6171  function getAdjacent(address owner, bool _direction)internal view returns (bool, address) {... */\n    tag_100:\n        /* \"contracts/Try01/Manage.sol\":5993:5997  bool */\n      0x00\n        /* \"contracts/Try01/Manage.sol\":5999:6006  address */\n      dup1\n        /* \"contracts/Try01/Manage.sol\":6024:6041  ownerExist(owner) */\n      tag_209\n        /* \"contracts/Try01/Manage.sol\":6035:6040  owner */\n      dup5\n        /* \"contracts/Try01/Manage.sol\":6024:6034  ownerExist */\n      tag_80\n        /* \"contracts/Try01/Manage.sol\":6024:6041  ownerExist(owner) */\n      jump\t// in\n    tag_209:\n        /* \"contracts/Try01/Manage.sol\":6019:6164  if (!ownerExist(owner)) {... */\n      tag_210\n      jumpi\n        /* \"contracts/Try01/Manage.sol\":6066:6071  false */\n      0x00\n        /* \"contracts/Try01/Manage.sol\":656:657  0 */\n      dup1\n        /* \"contracts/Try01/Manage.sol\":6058:6079  return (false, _NULL) */\n      swap2\n      pop\n      swap2\n      pop\n      jump(tag_208)\n        /* \"contracts/Try01/Manage.sol\":6019:6164  if (!ownerExist(owner)) {... */\n    tag_210:\n        /* \"contracts/Try01/Manage.sol\":6120:6124  true */\n      0x01\n        /* \"contracts/Try01/Manage.sol\":6126:6132  owners */\n      0x02\n        /* \"contracts/Try01/Manage.sol\":6126:6139  owners[owner] */\n      0x00\n        /* \"contracts/Try01/Manage.sol\":6133:6138  owner */\n      dup7\n        /* \"contracts/Try01/Manage.sol\":6126:6139  owners[owner] */\n      0xffffffffffffffffffffffffffffffffffffffff\n      and\n      0xffffffffffffffffffffffffffffffffffffffff\n      and\n      dup2\n      mstore\n      0x20\n      add\n      swap1\n      dup2\n      mstore\n      0x20\n      add\n      0x00\n      keccak256\n        /* \"contracts/Try01/Manage.sol\":6126:6151  owners[owner][_direction] */\n      0x00\n        /* \"contracts/Try01/Manage.sol\":6140:6150  _direction */\n      dup6\n        /* \"contracts/Try01/Manage.sol\":6126:6151  owners[owner][_direction] */\n      iszero\n      iszero\n      iszero\n      iszero\n      dup2\n      mstore\n      0x20\n      add\n      swap1\n      dup2\n      mstore\n      0x20\n      add\n      0x00\n      keccak256\n      0x00\n      swap1\n      sload\n      swap1\n      0x0100\n      exp\n      swap1\n      div\n      0xffffffffffffffffffffffffffffffffffffffff\n      and\n        /* \"contracts/Try01/Manage.sol\":6112:6152  return (true, owners[owner][_direction]) */\n      swap2\n      pop\n      swap2\n      pop\n        /* \"contracts/Try01/Manage.sol\":5918:6171  function getAdjacent(address owner, bool _direction)internal view returns (bool, address) {... */\n    tag_208:\n      swap3\n      pop\n      swap3\n      swap1\n      pop\n      jump\t// out\n        /* \"contracts/Try01/Manage.sol\":5200:5448  function _insert( address _owner, address _newowner, bool _direction)internal {... */\n    tag_139:\n        /* \"contracts/Try01/Manage.sol\":5299:5308  address c */\n      0x00\n        /* \"contracts/Try01/Manage.sol\":5311:5317  owners */\n      0x02\n        /* \"contracts/Try01/Manage.sol\":5311:5325  owners[_owner] */\n      0x00\n        /* \"contracts/Try01/Manage.sol\":5318:5324  _owner */\n      dup6\n        /* \"contracts/Try01/Manage.sol\":5311:5325  owners[_owner] */\n      0xffffffffffffffffffffffffffffffffffffffff\n      and\n      0xffffffffffffffffffffffffffffffffffffffff\n      and\n      dup2\n      mstore\n      0x20\n      add\n      swap1\n      dup2\n      mstore\n      0x20\n      add\n      0x00\n      keccak256\n        /* \"contracts/Try01/Manage.sol\":5311:5337  owners[_owner][_direction] */\n      0x00\n        /* \"contracts/Try01/Manage.sol\":5326:5336  _direction */\n      dup4\n        /* \"contracts/Try01/Manage.sol\":5311:5337  owners[_owner][_direction] */\n      iszero\n      iszero\n      iszero\n      iszero\n      dup2\n      mstore\n      0x20\n      add\n      swap1\n      dup2\n      mstore\n      0x20\n      add\n      0x00\n      keccak256\n      0x00\n      swap1\n      sload\n      swap1\n      0x0100\n      exp\n      swap1\n      div\n      0xffffffffffffffffffffffffffffffffffffffff\n      and\n        /* \"contracts/Try01/Manage.sol\":5299:5337  address c = owners[_owner][_direction] */\n      swap1\n      pop\n        /* \"contracts/Try01/Manage.sol\":5348:5390  _createLink(_owner, _newowner, _direction) */\n      tag_213\n        /* \"contracts/Try01/Manage.sol\":5360:5366  _owner */\n      dup5\n        /* \"contracts/Try01/Manage.sol\":5368:5377  _newowner */\n      dup5\n        /* \"contracts/Try01/Manage.sol\":5379:5389  _direction */\n      dup5\n        /* \"contracts/Try01/Manage.sol\":5348:5359  _createLink */\n      tag_214\n        /* \"contracts/Try01/Manage.sol\":5348:5390  _createLink(_owner, _newowner, _direction) */\n      jump\t// in\n    tag_213:\n        /* \"contracts/Try01/Manage.sol\":5401:5438  _createLink(_newowner, c, _direction) */\n      tag_215\n        /* \"contracts/Try01/Manage.sol\":5413:5422  _newowner */\n      dup4\n        /* \"contracts/Try01/Manage.sol\":5424:5425  c */\n      dup3\n        /* \"contracts/Try01/Manage.sol\":5427:5437  _direction */\n      dup5\n        /* \"contracts/Try01/Manage.sol\":5401:5412  _createLink */\n      tag_214\n        /* \"contracts/Try01/Manage.sol\":5401:5438  _createLink(_newowner, c, _direction) */\n      jump\t// in\n    tag_215:\n        /* \"contracts/Try01/Manage.sol\":5278:5448  {... */\n      pop\n        /* \"contracts/Try01/Manage.sol\":5200:5448  function _insert( address _owner, address _newowner, bool _direction)internal {... */\n      pop\n      pop\n      pop\n      jump\t// out\n        /* \"contracts/Try01/Manage.sol\":4874:5161  function removeowner(address preowner)internal {... */\n    tag_195:\n        /* \"contracts/Try01/Manage.sol\":4940:4960  ownerExist(preowner) */\n      tag_217\n        /* \"contracts/Try01/Manage.sol\":4951:4959  preowner */\n      dup2\n        /* \"contracts/Try01/Manage.sol\":4940:4950  ownerExist */\n      tag_80\n        /* \"contracts/Try01/Manage.sol\":4940:4960  ownerExist(preowner) */\n      jump\t// in\n    tag_217:\n        /* \"contracts/Try01/Manage.sol\":4932:4971  require(ownerExist(preowner),\"error07\") */\n      tag_218\n      jumpi\n      mload(0x40)\n      0x08c379a000000000000000000000000000000000000000000000000000000000\n      dup2\n      mstore\n      0x04\n      add\n      tag_219\n      swap1\n      tag_193\n      jump\t// in\n    tag_219:\n      mload(0x40)\n      dup1\n      swap2\n      sub\n      swap1\n      revert\n    tag_218:\n        /* \"contracts/Try01/Manage.sol\":4982:5049  _createLink(owners[preowner][_PRE], owners[preowner][_NEXT], _NEXT) */\n      tag_220\n        /* \"contracts/Try01/Manage.sol\":4994:5000  owners */\n      0x02\n        /* \"contracts/Try01/Manage.sol\":4994:5010  owners[preowner] */\n      0x00\n        /* \"contracts/Try01/Manage.sol\":5001:5009  preowner */\n      dup4\n        /* \"contracts/Try01/Manage.sol\":4994:5010  owners[preowner] */\n      0xffffffffffffffffffffffffffffffffffffffff\n      and\n      0xffffffffffffffffffffffffffffffffffffffff\n      and\n      dup2\n      mstore\n      0x20\n      add\n      swap1\n      dup2\n      mstore\n      0x20\n      add\n      0x00\n      keccak256\n        /* \"contracts/Try01/Manage.sol\":4994:5016  owners[preowner][_PRE] */\n      0x00\n        /* \"contracts/Try01/Manage.sol\":515:520  false */\n      dup1\n        /* \"contracts/Try01/Manage.sol\":4994:5016  owners[preowner][_PRE] */\n      iszero\n      iszero\n      iszero\n      iszero\n      dup2\n      mstore\n      0x20\n      add\n      swap1\n      dup2\n      mstore\n      0x20\n      add\n      0x00\n      keccak256\n      0x00\n      swap1\n      sload\n      swap1\n      0x0100\n      exp\n      swap1\n      div\n      0xffffffffffffffffffffffffffffffffffffffff\n      and\n        /* \"contracts/Try01/Manage.sol\":5018:5024  owners */\n      0x02\n        /* \"contracts/Try01/Manage.sol\":5018:5034  owners[preowner] */\n      0x00\n        /* \"contracts/Try01/Manage.sol\":5025:5033  preowner */\n      dup5\n        /* \"contracts/Try01/Manage.sol\":5018:5034  owners[preowner] */\n      0xffffffffffffffffffffffffffffffffffffffff\n      and\n      0xffffffffffffffffffffffffffffffffffffffff\n      and\n      dup2\n      mstore\n      0x20\n      add\n      swap1\n      dup2\n      mstore\n      0x20\n      add\n      0x00\n      keccak256\n        /* \"contracts/Try01/Manage.sol\":5018:5041  owners[preowner][_NEXT] */\n      0x00\n        /* \"contracts/Try01/Manage.sol\":558:562  true */\n      0x01\n        /* \"contracts/Try01/Manage.sol\":5018:5041  owners[preowner][_NEXT] */\n      iszero\n      iszero\n      iszero\n      iszero\n      dup2\n      mstore\n      0x20\n      add\n      swap1\n      dup2\n      mstore\n      0x20\n      add\n      0x00\n      keccak256\n      0x00\n      swap1\n      sload\n      swap1\n      0x0100\n      exp\n      swap1\n      div\n      0xffffffffffffffffffffffffffffffffffffffff\n      and\n        /* \"contracts/Try01/Manage.sol\":558:562  true */\n      0x01\n        /* \"contracts/Try01/Manage.sol\":4982:4993  _createLink */\n      tag_214\n        /* \"contracts/Try01/Manage.sol\":4982:5049  _createLink(owners[preowner][_PRE], owners[preowner][_NEXT], _NEXT) */\n      jump\t// in\n    tag_220:\n        /* \"contracts/Try01/Manage.sol\":5067:5073  owners */\n      0x02\n        /* \"contracts/Try01/Manage.sol\":5067:5083  owners[preowner] */\n      0x00\n        /* \"contracts/Try01/Manage.sol\":5074:5082  preowner */\n      dup3\n        /* \"contracts/Try01/Manage.sol\":5067:5083  owners[preowner] */\n      0xffffffffffffffffffffffffffffffffffffffff\n      and\n      0xffffffffffffffffffffffffffffffffffffffff\n      and\n      dup2\n      mstore\n      0x20\n      add\n      swap1\n      dup2\n      mstore\n      0x20\n      add\n      0x00\n      keccak256\n        /* \"contracts/Try01/Manage.sol\":5067:5089  owners[preowner][_PRE] */\n      0x00\n        /* \"contracts/Try01/Manage.sol\":515:520  false */\n      dup1\n        /* \"contracts/Try01/Manage.sol\":5067:5089  owners[preowner][_PRE] */\n      iszero\n      iszero\n      iszero\n      iszero\n      dup2\n      mstore\n      0x20\n      add\n      swap1\n      dup2\n      mstore\n      0x20\n      add\n      0x00\n      keccak256\n      0x00\n        /* \"contracts/Try01/Manage.sol\":5060:5089  delete owners[preowner][_PRE] */\n      0x0100\n      exp\n      dup2\n      sload\n      swap1\n      0xffffffffffffffffffffffffffffffffffffffff\n      mul\n      not\n      and\n      swap1\n      sstore\n        /* \"contracts/Try01/Manage.sol\":5107:5113  owners */\n      0x02\n        /* \"contracts/Try01/Manage.sol\":5107:5123  owners[preowner] */\n      0x00\n        /* \"contracts/Try01/Manage.sol\":5114:5122  preowner */\n      dup3\n        /* \"contracts/Try01/Manage.sol\":5107:5123  owners[preowner] */\n      0xffffffffffffffffffffffffffffffffffffffff\n      and\n      0xffffffffffffffffffffffffffffffffffffffff\n      and\n      dup2\n      mstore\n      0x20\n      add\n      swap1\n      dup2\n      mstore\n      0x20\n      add\n      0x00\n      keccak256\n        /* \"contracts/Try01/Manage.sol\":5107:5130  owners[preowner][_NEXT] */\n      0x00\n        /* \"contracts/Try01/Manage.sol\":558:562  true */\n      0x01\n        /* \"contracts/Try01/Manage.sol\":5107:5130  owners[preowner][_NEXT] */\n      iszero\n      iszero\n      iszero\n      iszero\n      dup2\n      mstore\n      0x20\n      add\n      swap1\n      dup2\n      mstore\n      0x20\n      add\n      0x00\n      keccak256\n      0x00\n        /* \"contracts/Try01/Manage.sol\":5100:5130  delete owners[preowner][_NEXT] */\n      0x0100\n      exp\n      dup2\n      sload\n      swap1\n      0xffffffffffffffffffffffffffffffffffffffff\n      mul\n      not\n      and\n      swap1\n      sstore\n        /* \"contracts/Try01/Manage.sol\":5141:5151  owners_num */\n      0x00\n      dup1\n        /* \"contracts/Try01/Manage.sol\":5141:5153  owners_num-- */\n      dup2\n      sload\n      dup1\n      swap3\n      swap2\n      swap1\n      tag_221\n      swap1\n      tag_222\n      jump\t// in\n    tag_221:\n      swap2\n      swap1\n      pop\n      sstore\n      pop\n        /* \"contracts/Try01/Manage.sol\":4874:5161  function removeowner(address preowner)internal {... */\n      pop\n      jump\t// out\n        /* \"contracts/Try01/Manage.sol\":5682:5882  function _createLink(address _preowner, address _nextowner, bool _direction)internal {... */\n    tag_214:\n        /* \"contracts/Try01/Manage.sol\":5812:5821  _preowner */\n      dup3\n        /* \"contracts/Try01/Manage.sol\":5778:5784  owners */\n      0x02\n        /* \"contracts/Try01/Manage.sol\":5778:5796  owners[_nextowner] */\n      0x00\n        /* \"contracts/Try01/Manage.sol\":5785:5795  _nextowner */\n      dup5\n        /* \"contracts/Try01/Manage.sol\":5778:5796  owners[_nextowner] */\n      0xffffffffffffffffffffffffffffffffffffffff\n      and\n      0xffffffffffffffffffffffffffffffffffffffff\n      and\n      dup2\n      mstore\n      0x20\n      add\n      swap1\n      dup2\n      mstore\n      0x20\n      add\n      0x00\n      keccak256\n        /* \"contracts/Try01/Manage.sol\":5778:5809  owners[_nextowner][!_direction] */\n      0x00\n        /* \"contracts/Try01/Manage.sol\":5798:5808  _direction */\n      dup4\n        /* \"contracts/Try01/Manage.sol\":5797:5808  !_direction */\n      iszero\n        /* \"contracts/Try01/Manage.sol\":5778:5809  owners[_nextowner][!_direction] */\n      iszero\n      iszero\n      iszero\n      iszero\n      dup2\n      mstore\n      0x20\n      add\n      swap1\n      dup2\n      mstore\n      0x20\n      add\n      0x00\n      keccak256\n      0x00\n        /* \"contracts/Try01/Manage.sol\":5778:5821  owners[_nextowner][!_direction] = _preowner */\n      0x0100\n      exp\n      dup2\n      sload\n      dup2\n      0xffffffffffffffffffffffffffffffffffffffff\n      mul\n      not\n      and\n      swap1\n      dup4\n      0xffffffffffffffffffffffffffffffffffffffff\n      and\n      mul\n      or\n      swap1\n      sstore\n      pop\n        /* \"contracts/Try01/Manage.sol\":5864:5874  _nextowner */\n      dup2\n        /* \"contracts/Try01/Manage.sol\":5832:5838  owners */\n      0x02\n        /* \"contracts/Try01/Manage.sol\":5832:5849  owners[_preowner] */\n      0x00\n        /* \"contracts/Try01/Manage.sol\":5839:5848  _preowner */\n      dup6\n        /* \"contracts/Try01/Manage.sol\":5832:5849  owners[_preowner] */\n      0xffffffffffffffffffffffffffffffffffffffff\n      and\n      0xffffffffffffffffffffffffffffffffffffffff\n      and\n      dup2\n      mstore\n      0x20\n      add\n      swap1\n      dup2\n      mstore\n      0x20\n      add\n      0x00\n      keccak256\n        /* \"contracts/Try01/Manage.sol\":5832:5861  owners[_preowner][_direction] */\n      0x00\n        /* \"contracts/Try01/Manage.sol\":5850:5860  _direction */\n      dup4\n        /* \"contracts/Try01/Manage.sol\":5832:5861  owners[_preowner][_direction] */\n      iszero\n      iszero\n      iszero\n      iszero\n      dup2\n      mstore\n      0x20\n      add\n      swap1\n      dup2\n      mstore\n      0x20\n      add\n      0x00\n      keccak256\n      0x00\n        /* \"contracts/Try01/Manage.sol\":5832:5874  owners[_preowner][_direction] = _nextowner */\n      0x0100\n      exp\n      dup2\n      sload\n      dup2\n      0xffffffffffffffffffffffffffffffffffffffff\n      mul\n      not\n      and\n      swap1\n      dup4\n      0xffffffffffffffffffffffffffffffffffffffff\n      and\n      mul\n      or\n      swap1\n      sstore\n      pop\n        /* \"contracts/Try01/Manage.sol\":5682:5882  function _createLink(address _preowner, address _nextowner, bool _direction)internal {... */\n      pop\n      pop\n      pop\n      jump\t// out\n        /* \"#utility.yul\":7:121   */\n    tag_224:\n        /* \"#utility.yul\":74:80   */\n      0x00\n        /* \"#utility.yul\":108:113   */\n      dup2\n        /* \"#utility.yul\":102:114   */\n      mload\n        /* \"#utility.yul\":92:114   */\n      swap1\n      pop\n        /* \"#utility.yul\":7:121   */\n      swap2\n      swap1\n      pop\n      jump\t// out\n        /* \"#utility.yul\":127:311   */\n    tag_225:\n        /* \"#utility.yul\":226:237   */\n      0x00\n        /* \"#utility.yul\":260:266   */\n      dup3\n        /* \"#utility.yul\":255:258   */\n      dup3\n        /* \"#utility.yul\":248:267   */\n      mstore\n        /* \"#utility.yul\":300:304   */\n      0x20\n        /* \"#utility.yul\":295:298   */\n      dup3\n        /* \"#utility.yul\":291:305   */\n      add\n        /* \"#utility.yul\":276:305   */\n      swap1\n      pop\n        /* \"#utility.yul\":127:311   */\n      swap3\n      swap2\n      pop\n      pop\n      jump\t// out\n        /* \"#utility.yul\":317:449   */\n    tag_226:\n        /* \"#utility.yul\":384:388   */\n      0x00\n        /* \"#utility.yul\":407:410   */\n      dup2\n        /* \"#utility.yul\":399:410   */\n      swap1\n      pop\n        /* \"#utility.yul\":437:441   */\n      0x20\n        /* \"#utility.yul\":432:435   */\n      dup3\n        /* \"#utility.yul\":428:442   */\n      add\n        /* \"#utility.yul\":420:442   */\n      swap1\n      pop\n        /* \"#utility.yul\":317:449   */\n      swap2\n      swap1\n      pop\n      jump\t// out\n        /* \"#utility.yul\":455:581   */\n    tag_227:\n        /* \"#utility.yul\":492:499   */\n      0x00\n        /* \"#utility.yul\":532:574   */\n      0xffffffffffffffffffffffffffffffffffffffff\n        /* \"#utility.yul\":525:530   */\n      dup3\n        /* \"#utility.yul\":521:575   */\n      and\n        /* \"#utility.yul\":510:575   */\n      swap1\n      pop\n        /* \"#utility.yul\":455:581   */\n      swap2\n      swap1\n      pop\n      jump\t// out\n        /* \"#utility.yul\":587:683   */\n    tag_228:\n        /* \"#utility.yul\":624:631   */\n      0x00\n        /* \"#utility.yul\":653:677   */\n      tag_284\n        /* \"#utility.yul\":671:676   */\n      dup3\n        /* \"#utility.yul\":653:677   */\n      tag_227\n      jump\t// in\n    tag_284:\n        /* \"#utility.yul\":642:677   */\n      swap1\n      pop\n        /* \"#utility.yul\":587:683   */\n      swap2\n      swap1\n      pop\n      jump\t// out\n        /* \"#utility.yul\":689:797   */\n    tag_229:\n        /* \"#utility.yul\":766:790   */\n      tag_286\n        /* \"#utility.yul\":784:789   */\n      dup2\n        /* \"#utility.yul\":766:790   */\n      tag_228\n      jump\t// in\n    tag_286:\n        /* \"#utility.yul\":761:764   */\n      dup3\n        /* \"#utility.yul\":754:791   */\n      mstore\n        /* \"#utility.yul\":689:797   */\n      pop\n      pop\n      jump\t// out\n        /* \"#utility.yul\":803:982   */\n    tag_230:\n        /* \"#utility.yul\":872:882   */\n      0x00\n        /* \"#utility.yul\":893:939   */\n      tag_288\n        /* \"#utility.yul\":935:938   */\n      dup4\n        /* \"#utility.yul\":927:933   */\n      dup4\n        /* \"#utility.yul\":893:939   */\n      tag_229\n      jump\t// in\n    tag_288:\n        /* \"#utility.yul\":971:975   */\n      0x20\n        /* \"#utility.yul\":966:969   */\n      dup4\n        /* \"#utility.yul\":962:976   */\n      add\n        /* \"#utility.yul\":948:976   */\n      swap1\n      pop\n        /* \"#utility.yul\":803:982   */\n      swap3\n      swap2\n      pop\n      pop\n      jump\t// out\n        /* \"#utility.yul\":988:1101   */\n    tag_231:\n        /* \"#utility.yul\":1058:1062   */\n      0x00\n        /* \"#utility.yul\":1090:1094   */\n      0x20\n        /* \"#utility.yul\":1085:1088   */\n      dup3\n        /* \"#utility.yul\":1081:1095   */\n      add\n        /* \"#utility.yul\":1073:1095   */\n      swap1\n      pop\n        /* \"#utility.yul\":988:1101   */\n      swap2\n      swap1\n      pop\n      jump\t// out\n        /* \"#utility.yul\":1137:1869   */\n    tag_232:\n        /* \"#utility.yul\":1256:1259   */\n      0x00\n        /* \"#utility.yul\":1285:1339   */\n      tag_291\n        /* \"#utility.yul\":1333:1338   */\n      dup3\n        /* \"#utility.yul\":1285:1339   */\n      tag_224\n      jump\t// in\n    tag_291:\n        /* \"#utility.yul\":1355:1441   */\n      tag_292\n        /* \"#utility.yul\":1434:1440   */\n      dup2\n        /* \"#utility.yul\":1429:1432   */\n      dup6\n        /* \"#utility.yul\":1355:1441   */\n      tag_225\n      jump\t// in\n    tag_292:\n        /* \"#utility.yul\":1348:1441   */\n      swap4\n      pop\n        /* \"#utility.yul\":1465:1521   */\n      tag_293\n        /* \"#utility.yul\":1515:1520   */\n      dup4\n        /* \"#utility.yul\":1465:1521   */\n      tag_226\n      jump\t// in\n    tag_293:\n        /* \"#utility.yul\":1544:1551   */\n      dup1\n        /* \"#utility.yul\":1575:1576   */\n      0x00\n        /* \"#utility.yul\":1560:1844   */\n    tag_294:\n        /* \"#utility.yul\":1585:1591   */\n      dup4\n        /* \"#utility.yul\":1582:1583   */\n      dup2\n        /* \"#utility.yul\":1579:1592   */\n      lt\n        /* \"#utility.yul\":1560:1844   */\n      iszero\n      tag_296\n      jumpi\n        /* \"#utility.yul\":1661:1667   */\n      dup2\n        /* \"#utility.yul\":1655:1668   */\n      mload\n        /* \"#utility.yul\":1688:1751   */\n      tag_297\n        /* \"#utility.yul\":1747:1750   */\n      dup9\n        /* \"#utility.yul\":1732:1745   */\n      dup3\n        /* \"#utility.yul\":1688:1751   */\n      tag_230\n      jump\t// in\n    tag_297:\n        /* \"#utility.yul\":1681:1751   */\n      swap8\n      pop\n        /* \"#utility.yul\":1774:1834   */\n      tag_298\n        /* \"#utility.yul\":1827:1833   */\n      dup4\n        /* \"#utility.yul\":1774:1834   */\n      tag_231\n      jump\t// in\n    tag_298:\n        /* \"#utility.yul\":1764:1834   */\n      swap3\n      pop\n        /* \"#utility.yul\":1620:1844   */\n      pop\n        /* \"#utility.yul\":1607:1608   */\n      0x01\n        /* \"#utility.yul\":1604:1605   */\n      dup2\n        /* \"#utility.yul\":1600:1609   */\n      add\n        /* \"#utility.yul\":1595:1609   */\n      swap1\n      pop\n        /* \"#utility.yul\":1560:1844   */\n      jump(tag_294)\n    tag_296:\n        /* \"#utility.yul\":1564:1578   */\n      pop\n        /* \"#utility.yul\":1860:1863   */\n      dup6\n        /* \"#utility.yul\":1853:1863   */\n      swap4\n      pop\n        /* \"#utility.yul\":1261:1869   */\n      pop\n      pop\n      pop\n        /* \"#utility.yul\":1137:1869   */\n      swap3\n      swap2\n      pop\n      pop\n      jump\t// out\n        /* \"#utility.yul\":1875:2248   */\n    tag_23:\n        /* \"#utility.yul\":2018:2022   */\n      0x00\n        /* \"#utility.yul\":2056:2058   */\n      0x20\n        /* \"#utility.yul\":2045:2054   */\n      dup3\n        /* \"#utility.yul\":2041:2059   */\n      add\n        /* \"#utility.yul\":2033:2059   */\n      swap1\n      pop\n        /* \"#utility.yul\":2105:2114   */\n      dup2\n        /* \"#utility.yul\":2099:2103   */\n      dup2\n        /* \"#utility.yul\":2095:2115   */\n      sub\n        /* \"#utility.yul\":2091:2092   */\n      0x00\n        /* \"#utility.yul\":2080:2089   */\n      dup4\n        /* \"#utility.yul\":2076:2093   */\n      add\n        /* \"#utility.yul\":2069:2116   */\n      mstore\n        /* \"#utility.yul\":2133:2241   */\n      tag_300\n        /* \"#utility.yul\":2236:2240   */\n      dup2\n        /* \"#utility.yul\":2227:2233   */\n      dup5\n        /* \"#utility.yul\":2133:2241   */\n      tag_232\n      jump\t// in\n    tag_300:\n        /* \"#utility.yul\":2125:2241   */\n      swap1\n      pop\n        /* \"#utility.yul\":1875:2248   */\n      swap3\n      swap2\n      pop\n      pop\n      jump\t// out\n        /* \"#utility.yul\":2254:2329   */\n    tag_233:\n        /* \"#utility.yul\":2287:2293   */\n      0x00\n        /* \"#utility.yul\":2320:2322   */\n      0x40\n        /* \"#utility.yul\":2314:2323   */\n      mload\n        /* \"#utility.yul\":2304:2323   */\n      swap1\n      pop\n        /* \"#utility.yul\":2254:2329   */\n      swap1\n      jump\t// out\n        /* \"#utility.yul\":2335:2452   */\n    tag_234:\n        /* \"#utility.yul\":2444:2445   */\n      0x00\n        /* \"#utility.yul\":2441:2442   */\n      dup1\n        /* \"#utility.yul\":2434:2446   */\n      revert\n        /* \"#utility.yul\":2458:2575   */\n    tag_235:\n        /* \"#utility.yul\":2567:2568   */\n      0x00\n        /* \"#utility.yul\":2564:2565   */\n      dup1\n        /* \"#utility.yul\":2557:2569   */\n      revert\n        /* \"#utility.yul\":2581:2703   */\n    tag_236:\n        /* \"#utility.yul\":2654:2678   */\n      tag_305\n        /* \"#utility.yul\":2672:2677   */\n      dup2\n        /* \"#utility.yul\":2654:2678   */\n      tag_228\n      jump\t// in\n    tag_305:\n        /* \"#utility.yul\":2647:2652   */\n      dup2\n        /* \"#utility.yul\":2644:2679   */\n      eq\n        /* \"#utility.yul\":2634:2697   */\n      tag_306\n      jumpi\n        /* \"#utility.yul\":2693:2694   */\n      0x00\n        /* \"#utility.yul\":2690:2691   */\n      dup1\n        /* \"#utility.yul\":2683:2695   */\n      revert\n        /* \"#utility.yul\":2634:2697   */\n    tag_306:\n        /* \"#utility.yul\":2581:2703   */\n      pop\n      jump\t// out\n        /* \"#utility.yul\":2709:2848   */\n    tag_237:\n        /* \"#utility.yul\":2755:2760   */\n      0x00\n        /* \"#utility.yul\":2793:2799   */\n      dup2\n        /* \"#utility.yul\":2780:2800   */\n      calldataload\n        /* \"#utility.yul\":2771:2800   */\n      swap1\n      pop\n        /* \"#utility.yul\":2809:2842   */\n      tag_308\n        /* \"#utility.yul\":2836:2841   */\n      dup2\n        /* \"#utility.yul\":2809:2842   */\n      tag_236\n      jump\t// in\n    tag_308:\n        /* \"#utility.yul\":2709:2848   */\n      swap3\n      swap2\n      pop\n      pop\n      jump\t// out\n        /* \"#utility.yul\":2854:3183   */\n    tag_27:\n        /* \"#utility.yul\":2913:2919   */\n      0x00\n        /* \"#utility.yul\":2962:2964   */\n      0x20\n        /* \"#utility.yul\":2950:2959   */\n      dup3\n        /* \"#utility.yul\":2941:2948   */\n      dup5\n        /* \"#utility.yul\":2937:2960   */\n      sub\n        /* \"#utility.yul\":2933:2965   */\n      slt\n        /* \"#utility.yul\":2930:3049   */\n      iszero\n      tag_310\n      jumpi\n        /* \"#utility.yul\":2968:3047   */\n      tag_311\n      tag_234\n      jump\t// in\n    tag_311:\n        /* \"#utility.yul\":2930:3049   */\n    tag_310:\n        /* \"#utility.yul\":3088:3089   */\n      0x00\n        /* \"#utility.yul\":3113:3166   */\n      tag_312\n        /* \"#utility.yul\":3158:3165   */\n      dup5\n        /* \"#utility.yul\":3149:3155   */\n      dup3\n        /* \"#utility.yul\":3138:3147   */\n      dup6\n        /* \"#utility.yul\":3134:3156   */\n      add\n        /* \"#utility.yul\":3113:3166   */\n      tag_237\n      jump\t// in\n    tag_312:\n        /* \"#utility.yul\":3103:3166   */\n      swap2\n      pop\n        /* \"#utility.yul\":3059:3176   */\n      pop\n        /* \"#utility.yul\":2854:3183   */\n      swap3\n      swap2\n      pop\n      pop\n      jump\t// out\n        /* \"#utility.yul\":3189:3287   */\n    tag_238:\n        /* \"#utility.yul\":3240:3246   */\n      0x00\n        /* \"#utility.yul\":3274:3279   */\n      dup2\n        /* \"#utility.yul\":3268:3280   */\n      mload\n        /* \"#utility.yul\":3258:3280   */\n      swap1\n      pop\n        /* \"#utility.yul\":3189:3287   */\n      swap2\n      swap1\n      pop\n      jump\t// out\n        /* \"#utility.yul\":3293:3461   */\n    tag_239:\n        /* \"#utility.yul\":3376:3387   */\n      0x00\n        /* \"#utility.yul\":3410:3416   */\n      dup3\n        /* \"#utility.yul\":3405:3408   */\n      dup3\n        /* \"#utility.yul\":3398:3417   */\n      mstore\n        /* \"#utility.yul\":3450:3454   */\n      0x20\n        /* \"#utility.yul\":3445:3448   */\n      dup3\n        /* \"#utility.yul\":3441:3455   */\n      add\n        /* \"#utility.yul\":3426:3455   */\n      swap1\n      pop\n        /* \"#utility.yul\":3293:3461   */\n      swap3\n      swap2\n      pop\n      pop\n      jump\t// out\n        /* \"#utility.yul\":3467:3713   */\n    tag_240:\n        /* \"#utility.yul\":3548:3549   */\n      0x00\n        /* \"#utility.yul\":3558:3671   */\n    tag_316:\n        /* \"#utility.yul\":3572:3578   */\n      dup4\n        /* \"#utility.yul\":3569:3570   */\n      dup2\n        /* \"#utility.yul\":3566:3579   */\n      lt\n        /* \"#utility.yul\":3558:3671   */\n      iszero\n      tag_318\n      jumpi\n        /* \"#utility.yul\":3657:3658   */\n      dup1\n        /* \"#utility.yul\":3652:3655   */\n      dup3\n        /* \"#utility.yul\":3648:3659   */\n      add\n        /* \"#utility.yul\":3642:3660   */\n      mload\n        /* \"#utility.yul\":3638:3639   */\n      dup2\n        /* \"#utility.yul\":3633:3636   */\n      dup5\n        /* \"#utility.yul\":3629:3640   */\n      add\n        /* \"#utility.yul\":3622:3661   */\n      mstore\n        /* \"#utility.yul\":3594:3596   */\n      0x20\n        /* \"#utility.yul\":3591:3592   */\n      dup2\n        /* \"#utility.yul\":3587:3597   */\n      add\n        /* \"#utility.yul\":3582:3597   */\n      swap1\n      pop\n        /* \"#utility.yul\":3558:3671   */\n      jump(tag_316)\n    tag_318:\n        /* \"#utility.yul\":3705:3706   */\n      0x00\n        /* \"#utility.yul\":3696:3702   */\n      dup5\n        /* \"#utility.yul\":3691:3694   */\n      dup5\n        /* \"#utility.yul\":3687:3703   */\n      add\n        /* \"#utility.yul\":3680:3707   */\n      mstore\n        /* \"#utility.yul\":3529:3713   */\n      pop\n        /* \"#utility.yul\":3467:3713   */\n      pop\n      pop\n      pop\n      jump\t// out\n        /* \"#utility.yul\":3719:3821   */\n    tag_241:\n        /* \"#utility.yul\":3760:3766   */\n      0x00\n        /* \"#utility.yul\":3811:3813   */\n      0x1f\n        /* \"#utility.yul\":3807:3814   */\n      not\n        /* \"#utility.yul\":3802:3804   */\n      0x1f\n        /* \"#utility.yul\":3795:3800   */\n      dup4\n        /* \"#utility.yul\":3791:3805   */\n      add\n        /* \"#utility.yul\":3787:3815   */\n      and\n        /* \"#utility.yul\":3777:3815   */\n      swap1\n      pop\n        /* \"#utility.yul\":3719:3821   */\n      swap2\n      swap1\n      pop\n      jump\t// out\n        /* \"#utility.yul\":3827:4200   */\n    tag_242:\n        /* \"#utility.yul\":3913:3916   */\n      0x00\n        /* \"#utility.yul\":3941:3979   */\n      tag_321\n        /* \"#utility.yul\":3973:3978   */\n      dup3\n        /* \"#utility.yul\":3941:3979   */\n      tag_238\n      jump\t// in\n    tag_321:\n        /* \"#utility.yul\":3995:4065   */\n      tag_322\n        /* \"#utility.yul\":4058:4064   */\n      dup2\n        /* \"#utility.yul\":4053:4056   */\n      dup6\n        /* \"#utility.yul\":3995:4065   */\n      tag_239\n      jump\t// in\n    tag_322:\n        /* \"#utility.yul\":3988:4065   */\n      swap4\n      pop\n        /* \"#utility.yul\":4074:4139   */\n      tag_323\n        /* \"#utility.yul\":4132:4138   */\n      dup2\n        /* \"#utility.yul\":4127:4130   */\n      dup6\n        /* \"#utility.yul\":4120:4124   */\n      0x20\n        /* \"#utility.yul\":4113:4118   */\n      dup7\n        /* \"#utility.yul\":4109:4125   */\n      add\n        /* \"#utility.yul\":4074:4139   */\n      tag_240\n      jump\t// in\n    tag_323:\n        /* \"#utility.yul\":4164:4193   */\n      tag_324\n        /* \"#utility.yul\":4186:4192   */\n      dup2\n        /* \"#utility.yul\":4164:4193   */\n      tag_241\n      jump\t// in\n    tag_324:\n        /* \"#utility.yul\":4159:4162   */\n      dup5\n        /* \"#utility.yul\":4155:4194   */\n      add\n        /* \"#utility.yul\":4148:4194   */\n      swap2\n      pop\n        /* \"#utility.yul\":3917:4200   */\n      pop\n        /* \"#utility.yul\":3827:4200   */\n      swap3\n      swap2\n      pop\n      pop\n      jump\t// out\n        /* \"#utility.yul\":4206:4515   */\n    tag_30:\n        /* \"#utility.yul\":4317:4321   */\n      0x00\n        /* \"#utility.yul\":4355:4357   */\n      0x20\n        /* \"#utility.yul\":4344:4353   */\n      dup3\n        /* \"#utility.yul\":4340:4358   */\n      add\n        /* \"#utility.yul\":4332:4358   */\n      swap1\n      pop\n        /* \"#utility.yul\":4404:4413   */\n      dup2\n        /* \"#utility.yul\":4398:4402   */\n      dup2\n        /* \"#utility.yul\":4394:4414   */\n      sub\n        /* \"#utility.yul\":4390:4391   */\n      0x00\n        /* \"#utility.yul\":4379:4388   */\n      dup4\n        /* \"#utility.yul\":4375:4392   */\n      add\n        /* \"#utility.yul\":4368:4415   */\n      mstore\n        /* \"#utility.yul\":4432:4508   */\n      tag_326\n        /* \"#utility.yul\":4503:4507   */\n      dup2\n        /* \"#utility.yul\":4494:4500   */\n      dup5\n        /* \"#utility.yul\":4432:4508   */\n      tag_242\n      jump\t// in\n    tag_326:\n        /* \"#utility.yul\":4424:4508   */\n      swap1\n      pop\n        /* \"#utility.yul\":4206:4515   */\n      swap3\n      swap2\n      pop\n      pop\n      jump\t// out\n        /* \"#utility.yul\":4521:4598   */\n    tag_243:\n        /* \"#utility.yul\":4558:4565   */\n      0x00\n        /* \"#utility.yul\":4587:4592   */\n      dup2\n        /* \"#utility.yul\":4576:4592   */\n      swap1\n      pop\n        /* \"#utility.yul\":4521:4598   */\n      swap2\n      swap1\n      pop\n      jump\t// out\n        /* \"#utility.yul\":4604:4722   */\n    tag_244:\n        /* \"#utility.yul\":4691:4715   */\n      tag_329\n        /* \"#utility.yul\":4709:4714   */\n      dup2\n        /* \"#utility.yul\":4691:4715   */\n      tag_243\n      jump\t// in\n    tag_329:\n        /* \"#utility.yul\":4686:4689   */\n      dup3\n        /* \"#utility.yul\":4679:4716   */\n      mstore\n        /* \"#utility.yul\":4604:4722   */\n      pop\n      pop\n      jump\t// out\n        /* \"#utility.yul\":4728:4950   */\n    tag_35:\n        /* \"#utility.yul\":4821:4825   */\n      0x00\n        /* \"#utility.yul\":4859:4861   */\n      0x20\n        /* \"#utility.yul\":4848:4857   */\n      dup3\n        /* \"#utility.yul\":4844:4862   */\n      add\n        /* \"#utility.yul\":4836:4862   */\n      swap1\n      pop\n        /* \"#utility.yul\":4872:4943   */\n      tag_331\n        /* \"#utility.yul\":4940:4941   */\n      0x00\n        /* \"#utility.yul\":4929:4938   */\n      dup4\n        /* \"#utility.yul\":4925:4942   */\n      add\n        /* \"#utility.yul\":4916:4922   */\n      dup5\n        /* \"#utility.yul\":4872:4943   */\n      tag_244\n      jump\t// in\n    tag_331:\n        /* \"#utility.yul\":4728:4950   */\n      swap3\n      swap2\n      pop\n      pop\n      jump\t// out\n        /* \"#utility.yul\":4956:5078   */\n    tag_245:\n        /* \"#utility.yul\":5029:5053   */\n      tag_333\n        /* \"#utility.yul\":5047:5052   */\n      dup2\n        /* \"#utility.yul\":5029:5053   */\n      tag_243\n      jump\t// in\n    tag_333:\n        /* \"#utility.yul\":5022:5027   */\n      dup2\n        /* \"#utility.yul\":5019:5054   */\n      eq\n        /* \"#utility.yul\":5009:5072   */\n      tag_334\n      jumpi\n        /* \"#utility.yul\":5068:5069   */\n      0x00\n        /* \"#utility.yul\":5065:5066   */\n      dup1\n        /* \"#utility.yul\":5058:5070   */\n      revert\n        /* \"#utility.yul\":5009:5072   */\n    tag_334:\n        /* \"#utility.yul\":4956:5078   */\n      pop\n      jump\t// out\n        /* \"#utility.yul\":5084:5223   */\n    tag_246:\n        /* \"#utility.yul\":5130:5135   */\n      0x00\n        /* \"#utility.yul\":5168:5174   */\n      dup2\n        /* \"#utility.yul\":5155:5175   */\n      calldataload\n        /* \"#utility.yul\":5146:5175   */\n      swap1\n      pop\n        /* \"#utility.yul\":5184:5217   */\n      tag_336\n        /* \"#utility.yul\":5211:5216   */\n      dup2\n        /* \"#utility.yul\":5184:5217   */\n      tag_245\n      jump\t// in\n    tag_336:\n        /* \"#utility.yul\":5084:5223   */\n      swap3\n      swap2\n      pop\n      pop\n      jump\t// out\n        /* \"#utility.yul\":5229:5703   */\n    tag_39:\n        /* \"#utility.yul\":5297:5303   */\n      0x00\n        /* \"#utility.yul\":5305:5311   */\n      dup1\n        /* \"#utility.yul\":5354:5356   */\n      0x40\n        /* \"#utility.yul\":5342:5351   */\n      dup4\n        /* \"#utility.yul\":5333:5340   */\n      dup6\n        /* \"#utility.yul\":5329:5352   */\n      sub\n        /* \"#utility.yul\":5325:5357   */\n      slt\n        /* \"#utility.yul\":5322:5441   */\n      iszero\n      tag_338\n      jumpi\n        /* \"#utility.yul\":5360:5439   */\n      tag_339\n      tag_234\n      jump\t// in\n    tag_339:\n        /* \"#utility.yul\":5322:5441   */\n    tag_338:\n        /* \"#utility.yul\":5480:5481   */\n      0x00\n        /* \"#utility.yul\":5505:5558   */\n      tag_340\n        /* \"#utility.yul\":5550:5557   */\n      dup6\n        /* \"#utility.yul\":5541:5547   */\n      dup3\n        /* \"#utility.yul\":5530:5539   */\n      dup7\n        /* \"#utility.yul\":5526:5548   */\n      add\n        /* \"#utility.yul\":5505:5558   */\n      tag_237\n      jump\t// in\n    tag_340:\n        /* \"#utility.yul\":5495:5558   */\n      swap3\n      pop\n        /* \"#utility.yul\":5451:5568   */\n      pop\n        /* \"#utility.yul\":5607:5609   */\n      0x20\n        /* \"#utility.yul\":5633:5686   */\n      tag_341\n        /* \"#utility.yul\":5678:5685   */\n      dup6\n        /* \"#utility.yul\":5669:5675   */\n      dup3\n        /* \"#utility.yul\":5658:5667   */\n      dup7\n        /* \"#utility.yul\":5654:5676   */\n      add\n        /* \"#utility.yul\":5633:5686   */\n      tag_246\n      jump\t// in\n    tag_341:\n        /* \"#utility.yul\":5623:5686   */\n      swap2\n      pop\n        /* \"#utility.yul\":5578:5696   */\n      pop\n        /* \"#utility.yul\":5229:5703   */\n      swap3\n      pop\n      swap3\n      swap1\n      pop\n      jump\t// out\n        /* \"#utility.yul\":5709:6038   */\n    tag_53:\n        /* \"#utility.yul\":5768:5774   */\n      0x00\n        /* \"#utility.yul\":5817:5819   */\n      0x20\n        /* \"#utility.yul\":5805:5814   */\n      dup3\n        /* \"#utility.yul\":5796:5803   */\n      dup5\n        /* \"#utility.yul\":5792:5815   */\n      sub\n        /* \"#utility.yul\":5788:5820   */\n      slt\n        /* \"#utility.yul\":5785:5904   */\n      iszero\n      tag_343\n      jumpi\n        /* \"#utility.yul\":5823:5902   */\n      tag_344\n      tag_234\n      jump\t// in\n    tag_344:\n        /* \"#utility.yul\":5785:5904   */\n    tag_343:\n        /* \"#utility.yul\":5943:5944   */\n      0x00\n        /* \"#utility.yul\":5968:6021   */\n      tag_345\n        /* \"#utility.yul\":6013:6020   */\n      dup5\n        /* \"#utility.yul\":6004:6010   */\n      dup3\n        /* \"#utility.yul\":5993:6002   */\n      dup6\n        /* \"#utility.yul\":5989:6011   */\n      add\n        /* \"#utility.yul\":5968:6021   */\n      tag_246\n      jump\t// in\n    tag_345:\n        /* \"#utility.yul\":5958:6021   */\n      swap2\n      pop\n        /* \"#utility.yul\":5914:6031   */\n      pop\n        /* \"#utility.yul\":5709:6038   */\n      swap3\n      swap2\n      pop\n      pop\n      jump\t// out\n        /* \"#utility.yul\":6044:6161   */\n    tag_247:\n        /* \"#utility.yul\":6153:6154   */\n      0x00\n        /* \"#utility.yul\":6150:6151   */\n      dup1\n        /* \"#utility.yul\":6143:6155   */\n      revert\n        /* \"#utility.yul\":6167:6347   */\n    tag_91:\n        /* \"#utility.yul\":6215:6292   */\n      0x4e487b7100000000000000000000000000000000000000000000000000000000\n        /* \"#utility.yul\":6212:6213   */\n      0x00\n        /* \"#utility.yul\":6205:6293   */\n      mstore\n        /* \"#utility.yul\":6312:6316   */\n      0x41\n        /* \"#utility.yul\":6309:6310   */\n      0x04\n        /* \"#utility.yul\":6302:6317   */\n      mstore\n        /* \"#utility.yul\":6336:6340   */\n      0x24\n        /* \"#utility.yul\":6333:6334   */\n      0x00\n        /* \"#utility.yul\":6326:6341   */\n      revert\n        /* \"#utility.yul\":6353:6634   */\n    tag_248:\n        /* \"#utility.yul\":6436:6463   */\n      tag_349\n        /* \"#utility.yul\":6458:6462   */\n      dup3\n        /* \"#utility.yul\":6436:6463   */\n      tag_241\n      jump\t// in\n    tag_349:\n        /* \"#utility.yul\":6428:6434   */\n      dup2\n        /* \"#utility.yul\":6424:6464   */\n      add\n        /* \"#utility.yul\":6566:6572   */\n      dup2\n        /* \"#utility.yul\":6554:6564   */\n      dup2\n        /* \"#utility.yul\":6551:6573   */\n      lt\n        /* \"#utility.yul\":6530:6548   */\n      0xffffffffffffffff\n        /* \"#utility.yul\":6518:6528   */\n      dup3\n        /* \"#utility.yul\":6515:6549   */\n      gt\n        /* \"#utility.yul\":6512:6574   */\n      or\n        /* \"#utility.yul\":6509:6597   */\n      iszero\n      tag_350\n      jumpi\n        /* \"#utility.yul\":6577:6595   */\n      tag_351\n      tag_91\n      jump\t// in\n    tag_351:\n        /* \"#utility.yul\":6509:6597   */\n    tag_350:\n        /* \"#utility.yul\":6617:6627   */\n      dup1\n        /* \"#utility.yul\":6613:6615   */\n      0x40\n        /* \"#utility.yul\":6606:6628   */\n      mstore\n        /* \"#utility.yul\":6396:6634   */\n      pop\n        /* \"#utility.yul\":6353:6634   */\n      pop\n      pop\n      jump\t// out\n        /* \"#utility.yul\":6640:6769   */\n    tag_249:\n        /* \"#utility.yul\":6674:6680   */\n      0x00\n        /* \"#utility.yul\":6701:6721   */\n      tag_353\n      tag_233\n      jump\t// in\n    tag_353:\n        /* \"#utility.yul\":6691:6721   */\n      swap1\n      pop\n        /* \"#utility.yul\":6730:6763   */\n      tag_354\n        /* \"#utility.yul\":6758:6762   */\n      dup3\n        /* \"#utility.yul\":6750:6756   */\n      dup3\n        /* \"#utility.yul\":6730:6763   */\n      tag_248\n      jump\t// in\n    tag_354:\n        /* \"#utility.yul\":6640:6769   */\n      swap2\n      swap1\n      pop\n      jump\t// out\n        /* \"#utility.yul\":6775:7086   */\n    tag_250:\n        /* \"#utility.yul\":6852:6856   */\n      0x00\n        /* \"#utility.yul\":6942:6960   */\n      0xffffffffffffffff\n        /* \"#utility.yul\":6934:6940   */\n      dup3\n        /* \"#utility.yul\":6931:6961   */\n      gt\n        /* \"#utility.yul\":6928:6984   */\n      iszero\n      tag_356\n      jumpi\n        /* \"#utility.yul\":6964:6982   */\n      tag_357\n      tag_91\n      jump\t// in\n    tag_357:\n        /* \"#utility.yul\":6928:6984   */\n    tag_356:\n        /* \"#utility.yul\":7014:7018   */\n      0x20\n        /* \"#utility.yul\":7006:7012   */\n      dup3\n        /* \"#utility.yul\":7002:7019   */\n      mul\n        /* \"#utility.yul\":6994:7019   */\n      swap1\n      pop\n        /* \"#utility.yul\":7074:7078   */\n      0x20\n        /* \"#utility.yul\":7068:7072   */\n      dup2\n        /* \"#utility.yul\":7064:7079   */\n      add\n        /* \"#utility.yul\":7056:7079   */\n      swap1\n      pop\n        /* \"#utility.yul\":6775:7086   */\n      swap2\n      swap1\n      pop\n      jump\t// out\n        /* \"#utility.yul\":7092:7209   */\n    tag_251:\n        /* \"#utility.yul\":7201:7202   */\n      0x00\n        /* \"#utility.yul\":7198:7199   */\n      dup1\n        /* \"#utility.yul\":7191:7203   */\n      revert\n        /* \"#utility.yul\":7232:7942   */\n    tag_252:\n        /* \"#utility.yul\":7328:7333   */\n      0x00\n        /* \"#utility.yul\":7353:7434   */\n      tag_360\n        /* \"#utility.yul\":7369:7433   */\n      tag_361\n        /* \"#utility.yul\":7426:7432   */\n      dup5\n        /* \"#utility.yul\":7369:7433   */\n      tag_250\n      jump\t// in\n    tag_361:\n        /* \"#utility.yul\":7353:7434   */\n      tag_249\n      jump\t// in\n    tag_360:\n        /* \"#utility.yul\":7344:7434   */\n      swap1\n      pop\n        /* \"#utility.yul\":7454:7459   */\n      dup1\n        /* \"#utility.yul\":7483:7489   */\n      dup4\n        /* \"#utility.yul\":7476:7481   */\n      dup3\n        /* \"#utility.yul\":7469:7490   */\n      mstore\n        /* \"#utility.yul\":7517:7521   */\n      0x20\n        /* \"#utility.yul\":7510:7515   */\n      dup3\n        /* \"#utility.yul\":7506:7522   */\n      add\n        /* \"#utility.yul\":7499:7522   */\n      swap1\n      pop\n        /* \"#utility.yul\":7570:7574   */\n      0x20\n        /* \"#utility.yul\":7562:7568   */\n      dup5\n        /* \"#utility.yul\":7558:7575   */\n      mul\n        /* \"#utility.yul\":7550:7556   */\n      dup4\n        /* \"#utility.yul\":7546:7576   */\n      add\n        /* \"#utility.yul\":7599:7602   */\n      dup6\n        /* \"#utility.yul\":7591:7597   */\n      dup2\n        /* \"#utility.yul\":7588:7603   */\n      gt\n        /* \"#utility.yul\":7585:7707   */\n      iszero\n      tag_362\n      jumpi\n        /* \"#utility.yul\":7618:7697   */\n      tag_363\n      tag_251\n      jump\t// in\n    tag_363:\n        /* \"#utility.yul\":7585:7707   */\n    tag_362:\n        /* \"#utility.yul\":7733:7739   */\n      dup4\n        /* \"#utility.yul\":7716:7936   */\n    tag_364:\n        /* \"#utility.yul\":7750:7756   */\n      dup2\n        /* \"#utility.yul\":7745:7748   */\n      dup2\n        /* \"#utility.yul\":7742:7757   */\n      lt\n        /* \"#utility.yul\":7716:7936   */\n      iszero\n      tag_366\n      jumpi\n        /* \"#utility.yul\":7825:7828   */\n      dup1\n        /* \"#utility.yul\":7854:7891   */\n      tag_367\n        /* \"#utility.yul\":7887:7890   */\n      dup9\n        /* \"#utility.yul\":7875:7885   */\n      dup3\n        /* \"#utility.yul\":7854:7891   */\n      tag_237\n      jump\t// in\n    tag_367:\n        /* \"#utility.yul\":7849:7852   */\n      dup5\n        /* \"#utility.yul\":7842:7892   */\n      mstore\n        /* \"#utility.yul\":7921:7925   */\n      0x20\n        /* \"#utility.yul\":7916:7919   */\n      dup5\n        /* \"#utility.yul\":7912:7926   */\n      add\n        /* \"#utility.yul\":7905:7926   */\n      swap4\n      pop\n        /* \"#utility.yul\":7792:7936   */\n      pop\n        /* \"#utility.yul\":7776:7780   */\n      0x20\n        /* \"#utility.yul\":7771:7774   */\n      dup2\n        /* \"#utility.yul\":7767:7781   */\n      add\n        /* \"#utility.yul\":7760:7781   */\n      swap1\n      pop\n        /* \"#utility.yul\":7716:7936   */\n      jump(tag_364)\n    tag_366:\n        /* \"#utility.yul\":7720:7741   */\n      pop\n        /* \"#utility.yul\":7334:7942   */\n      pop\n      pop\n        /* \"#utility.yul\":7232:7942   */\n      swap4\n      swap3\n      pop\n      pop\n      pop\n      jump\t// out\n        /* \"#utility.yul\":7965:8335   */\n    tag_253:\n        /* \"#utility.yul\":8036:8041   */\n      0x00\n        /* \"#utility.yul\":8085:8088   */\n      dup3\n        /* \"#utility.yul\":8078:8082   */\n      0x1f\n        /* \"#utility.yul\":8070:8076   */\n      dup4\n        /* \"#utility.yul\":8066:8083   */\n      add\n        /* \"#utility.yul\":8062:8089   */\n      slt\n        /* \"#utility.yul\":8052:8174   */\n      tag_369\n      jumpi\n        /* \"#utility.yul\":8093:8172   */\n      tag_370\n      tag_247\n      jump\t// in\n    tag_370:\n        /* \"#utility.yul\":8052:8174   */\n    tag_369:\n        /* \"#utility.yul\":8210:8216   */\n      dup2\n        /* \"#utility.yul\":8197:8217   */\n      calldataload\n        /* \"#utility.yul\":8235:8329   */\n      tag_371\n        /* \"#utility.yul\":8325:8328   */\n      dup5\n        /* \"#utility.yul\":8317:8323   */\n      dup3\n        /* \"#utility.yul\":8310:8314   */\n      0x20\n        /* \"#utility.yul\":8302:8308   */\n      dup7\n        /* \"#utility.yul\":8298:8315   */\n      add\n        /* \"#utility.yul\":8235:8329   */\n      tag_252\n      jump\t// in\n    tag_371:\n        /* \"#utility.yul\":8226:8329   */\n      swap2\n      pop\n        /* \"#utility.yul\":8042:8335   */\n      pop\n        /* \"#utility.yul\":7965:8335   */\n      swap3\n      swap2\n      pop\n      pop\n      jump\t// out\n        /* \"#utility.yul\":8341:9025   */\n    tag_67:\n        /* \"#utility.yul\":8434:8440   */\n      0x00\n        /* \"#utility.yul\":8442:8448   */\n      dup1\n        /* \"#utility.yul\":8491:8493   */\n      0x40\n        /* \"#utility.yul\":8479:8488   */\n      dup4\n        /* \"#utility.yul\":8470:8477   */\n      dup6\n        /* \"#utility.yul\":8466:8489   */\n      sub\n        /* \"#utility.yul\":8462:8494   */\n      slt\n        /* \"#utility.yul\":8459:8578   */\n      iszero\n      tag_373\n      jumpi\n        /* \"#utility.yul\":8497:8576   */\n      tag_374\n      tag_234\n      jump\t// in\n    tag_374:\n        /* \"#utility.yul\":8459:8578   */\n    tag_373:\n        /* \"#utility.yul\":8645:8646   */\n      0x00\n        /* \"#utility.yul\":8634:8643   */\n      dup4\n        /* \"#utility.yul\":8630:8647   */\n      add\n        /* \"#utility.yul\":8617:8648   */\n      calldataload\n        /* \"#utility.yul\":8675:8693   */\n      0xffffffffffffffff\n        /* \"#utility.yul\":8667:8673   */\n      dup2\n        /* \"#utility.yul\":8664:8694   */\n      gt\n        /* \"#utility.yul\":8661:8778   */\n      iszero\n      tag_375\n      jumpi\n        /* \"#utility.yul\":8697:8776   */\n      tag_376\n      tag_235\n      jump\t// in\n    tag_376:\n        /* \"#utility.yul\":8661:8778   */\n    tag_375:\n        /* \"#utility.yul\":8802:8880   */\n      tag_377\n        /* \"#utility.yul\":8872:8879   */\n      dup6\n        /* \"#utility.yul\":8863:8869   */\n      dup3\n        /* \"#utility.yul\":8852:8861   */\n      dup7\n        /* \"#utility.yul\":8848:8870   */\n      add\n        /* \"#utility.yul\":8802:8880   */\n      tag_253\n      jump\t// in\n    tag_377:\n        /* \"#utility.yul\":8792:8880   */\n      swap3\n      pop\n        /* \"#utility.yul\":8588:8890   */\n      pop\n        /* \"#utility.yul\":8929:8931   */\n      0x20\n        /* \"#utility.yul\":8955:9008   */\n      tag_378\n        /* \"#utility.yul\":9000:9007   */\n      dup6\n        /* \"#utility.yul\":8991:8997   */\n      dup3\n        /* \"#utility.yul\":8980:8989   */\n      dup7\n        /* \"#utility.yul\":8976:8998   */\n      add\n        /* \"#utility.yul\":8955:9008   */\n      tag_246\n      jump\t// in\n    tag_378:\n        /* \"#utility.yul\":8945:9008   */\n      swap2\n      pop\n        /* \"#utility.yul\":8900:9018   */\n      pop\n        /* \"#utility.yul\":8341:9025   */\n      swap3\n      pop\n      swap3\n      swap1\n      pop\n      jump\t// out\n        /* \"#utility.yul\":9031:9148   */\n    tag_254:\n        /* \"#utility.yul\":9140:9141   */\n      0x00\n        /* \"#utility.yul\":9137:9138   */\n      dup1\n        /* \"#utility.yul\":9130:9142   */\n      revert\n        /* \"#utility.yul\":9154:9461   */\n    tag_255:\n        /* \"#utility.yul\":9215:9219   */\n      0x00\n        /* \"#utility.yul\":9305:9323   */\n      0xffffffffffffffff\n        /* \"#utility.yul\":9297:9303   */\n      dup3\n        /* \"#utility.yul\":9294:9324   */\n      gt\n        /* \"#utility.yul\":9291:9347   */\n      iszero\n      tag_381\n      jumpi\n        /* \"#utility.yul\":9327:9345   */\n      tag_382\n      tag_91\n      jump\t// in\n    tag_382:\n        /* \"#utility.yul\":9291:9347   */\n    tag_381:\n        /* \"#utility.yul\":9365:9394   */\n      tag_383\n        /* \"#utility.yul\":9387:9393   */\n      dup3\n        /* \"#utility.yul\":9365:9394   */\n      tag_241\n      jump\t// in\n    tag_383:\n        /* \"#utility.yul\":9357:9394   */\n      swap1\n      pop\n        /* \"#utility.yul\":9449:9453   */\n      0x20\n        /* \"#utility.yul\":9443:9447   */\n      dup2\n        /* \"#utility.yul\":9439:9454   */\n      add\n        /* \"#utility.yul\":9431:9454   */\n      swap1\n      pop\n        /* \"#utility.yul\":9154:9461   */\n      swap2\n      swap1\n      pop\n      jump\t// out\n        /* \"#utility.yul\":9467:9613   */\n    tag_256:\n        /* \"#utility.yul\":9564:9570   */\n      dup3\n        /* \"#utility.yul\":9559:9562   */\n      dup2\n        /* \"#utility.yul\":9554:9557   */\n      dup4\n        /* \"#utility.yul\":9541:9571   */\n      calldatacopy\n        /* \"#utility.yul\":9605:9606   */\n      0x00\n        /* \"#utility.yul\":9596:9602   */\n      dup4\n        /* \"#utility.yul\":9591:9594   */\n      dup4\n        /* \"#utility.yul\":9587:9603   */\n      add\n        /* \"#utility.yul\":9580:9607   */\n      mstore\n        /* \"#utility.yul\":9467:9613   */\n      pop\n      pop\n      pop\n      jump\t// out\n        /* \"#utility.yul\":9619:10042   */\n    tag_257:\n        /* \"#utility.yul\":9696:9701   */\n      0x00\n        /* \"#utility.yul\":9721:9786   */\n      tag_386\n        /* \"#utility.yul\":9737:9785   */\n      tag_387\n        /* \"#utility.yul\":9778:9784   */\n      dup5\n        /* \"#utility.yul\":9737:9785   */\n      tag_255\n      jump\t// in\n    tag_387:\n        /* \"#utility.yul\":9721:9786   */\n      tag_249\n      jump\t// in\n    tag_386:\n        /* \"#utility.yul\":9712:9786   */\n      swap1\n      pop\n        /* \"#utility.yul\":9809:9815   */\n      dup3\n        /* \"#utility.yul\":9802:9807   */\n      dup2\n        /* \"#utility.yul\":9795:9816   */\n      mstore\n        /* \"#utility.yul\":9847:9851   */\n      0x20\n        /* \"#utility.yul\":9840:9845   */\n      dup2\n        /* \"#utility.yul\":9836:9852   */\n      add\n        /* \"#utility.yul\":9885:9888   */\n      dup5\n        /* \"#utility.yul\":9876:9882   */\n      dup5\n        /* \"#utility.yul\":9871:9874   */\n      dup5\n        /* \"#utility.yul\":9867:9883   */\n      add\n        /* \"#utility.yul\":9864:9889   */\n      gt\n        /* \"#utility.yul\":9861:9973   */\n      iszero\n      tag_388\n      jumpi\n        /* \"#utility.yul\":9892:9971   */\n      tag_389\n      tag_254\n      jump\t// in\n    tag_389:\n        /* \"#utility.yul\":9861:9973   */\n    tag_388:\n        /* \"#utility.yul\":9982:10036   */\n      tag_390\n        /* \"#utility.yul\":10029:10035   */\n      dup5\n        /* \"#utility.yul\":10024:10027   */\n      dup3\n        /* \"#utility.yul\":10019:10022   */\n      dup6\n        /* \"#utility.yul\":9982:10036   */\n      tag_256\n      jump\t// in\n    tag_390:\n        /* \"#utility.yul\":9702:10042   */\n      pop\n        /* \"#utility.yul\":9619:10042   */\n      swap4\n      swap3\n      pop\n      pop\n      pop\n      jump\t// out\n        /* \"#utility.yul\":10061:10399   */\n    tag_258:\n        /* \"#utility.yul\":10116:10121   */\n      0x00\n        /* \"#utility.yul\":10165:10168   */\n      dup3\n        /* \"#utility.yul\":10158:10162   */\n      0x1f\n        /* \"#utility.yul\":10150:10156   */\n      dup4\n        /* \"#utility.yul\":10146:10163   */\n      add\n        /* \"#utility.yul\":10142:10169   */\n      slt\n        /* \"#utility.yul\":10132:10254   */\n      tag_392\n      jumpi\n        /* \"#utility.yul\":10173:10252   */\n      tag_393\n      tag_247\n      jump\t// in\n    tag_393:\n        /* \"#utility.yul\":10132:10254   */\n    tag_392:\n        /* \"#utility.yul\":10290:10296   */\n      dup2\n        /* \"#utility.yul\":10277:10297   */\n      calldataload\n        /* \"#utility.yul\":10315:10393   */\n      tag_394\n        /* \"#utility.yul\":10389:10392   */\n      dup5\n        /* \"#utility.yul\":10381:10387   */\n      dup3\n        /* \"#utility.yul\":10374:10378   */\n      0x20\n        /* \"#utility.yul\":10366:10372   */\n      dup7\n        /* \"#utility.yul\":10362:10379   */\n      add\n        /* \"#utility.yul\":10315:10393   */\n      tag_257\n      jump\t// in\n    tag_394:\n        /* \"#utility.yul\":10306:10393   */\n      swap2\n      pop\n        /* \"#utility.yul\":10122:10399   */\n      pop\n        /* \"#utility.yul\":10061:10399   */\n      swap3\n      swap2\n      pop\n      pop\n      jump\t// out\n        /* \"#utility.yul\":10405:11057   */\n    tag_75:\n        /* \"#utility.yul\":10482:10488   */\n      0x00\n        /* \"#utility.yul\":10490:10496   */\n      dup1\n        /* \"#utility.yul\":10539:10541   */\n      0x40\n        /* \"#utility.yul\":10527:10536   */\n      dup4\n        /* \"#utility.yul\":10518:10525   */\n      dup6\n        /* \"#utility.yul\":10514:10537   */\n      sub\n        /* \"#utility.yul\":10510:10542   */\n      slt\n        /* \"#utility.yul\":10507:10626   */\n      iszero\n      tag_396\n      jumpi\n        /* \"#utility.yul\":10545:10624   */\n      tag_397\n      tag_234\n      jump\t// in\n    tag_397:\n        /* \"#utility.yul\":10507:10626   */\n    tag_396:\n        /* \"#utility.yul\":10665:10666   */\n      0x00\n        /* \"#utility.yul\":10690:10743   */\n      tag_398\n        /* \"#utility.yul\":10735:10742   */\n      dup6\n        /* \"#utility.yul\":10726:10732   */\n      dup3\n        /* \"#utility.yul\":10715:10724   */\n      dup7\n        /* \"#utility.yul\":10711:10733   */\n      add\n        /* \"#utility.yul\":10690:10743   */\n      tag_237\n      jump\t// in\n    tag_398:\n        /* \"#utility.yul\":10680:10743   */\n      swap3\n      pop\n        /* \"#utility.yul\":10636:10753   */\n      pop\n        /* \"#utility.yul\":10820:10822   */\n      0x20\n        /* \"#utility.yul\":10809:10818   */\n      dup4\n        /* \"#utility.yul\":10805:10823   */\n      add\n        /* \"#utility.yul\":10792:10824   */\n      calldataload\n        /* \"#utility.yul\":10851:10869   */\n      0xffffffffffffffff\n        /* \"#utility.yul\":10843:10849   */\n      dup2\n        /* \"#utility.yul\":10840:10870   */\n      gt\n        /* \"#utility.yul\":10837:10954   */\n      iszero\n      tag_399\n      jumpi\n        /* \"#utility.yul\":10873:10952   */\n      tag_400\n      tag_235\n      jump\t// in\n    tag_400:\n        /* \"#utility.yul\":10837:10954   */\n    tag_399:\n        /* \"#utility.yul\":10978:11040   */\n      tag_401\n        /* \"#utility.yul\":11032:11039   */\n      dup6\n        /* \"#utility.yul\":11023:11029   */\n      dup3\n        /* \"#utility.yul\":11012:11021   */\n      dup7\n        /* \"#utility.yul\":11008:11030   */\n      add\n        /* \"#utility.yul\":10978:11040   */\n      tag_258\n      jump\t// in\n    tag_401:\n        /* \"#utility.yul\":10968:11040   */\n      swap2\n      pop\n        /* \"#utility.yul\":10763:11050   */\n      pop\n        /* \"#utility.yul\":10405:11057   */\n      swap3\n      pop\n      swap3\n      swap1\n      pop\n      jump\t// out\n        /* \"#utility.yul\":11063:11153   */\n    tag_259:\n        /* \"#utility.yul\":11097:11104   */\n      0x00\n        /* \"#utility.yul\":11140:11145   */\n      dup2\n        /* \"#utility.yul\":11133:11146   */\n      iszero\n        /* \"#utility.yul\":11126:11147   */\n      iszero\n        /* \"#utility.yul\":11115:11147   */\n      swap1\n      pop\n        /* \"#utility.yul\":11063:11153   */\n      swap2\n      swap1\n      pop\n      jump\t// out\n        /* \"#utility.yul\":11159:11268   */\n    tag_260:\n        /* \"#utility.yul\":11240:11261   */\n      tag_404\n        /* \"#utility.yul\":11255:11260   */\n      dup2\n        /* \"#utility.yul\":11240:11261   */\n      tag_259\n      jump\t// in\n    tag_404:\n        /* \"#utility.yul\":11235:11238   */\n      dup3\n        /* \"#utility.yul\":11228:11262   */\n      mstore\n        /* \"#utility.yul\":11159:11268   */\n      pop\n      pop\n      jump\t// out\n        /* \"#utility.yul\":11274:11484   */\n    tag_82:\n        /* \"#utility.yul\":11361:11365   */\n      0x00\n        /* \"#utility.yul\":11399:11401   */\n      0x20\n        /* \"#utility.yul\":11388:11397   */\n      dup3\n        /* \"#utility.yul\":11384:11402   */\n      add\n        /* \"#utility.yul\":11376:11402   */\n      swap1\n      pop\n        /* \"#utility.yul\":11412:11477   */\n      tag_406\n        /* \"#utility.yul\":11474:11475   */\n      0x00\n        /* \"#utility.yul\":11463:11472   */\n      dup4\n        /* \"#utility.yul\":11459:11476   */\n      add\n        /* \"#utility.yul\":11450:11456   */\n      dup5\n        /* \"#utility.yul\":11412:11477   */\n      tag_260\n      jump\t// in\n    tag_406:\n        /* \"#utility.yul\":11274:11484   */\n      swap3\n      swap2\n      pop\n      pop\n      jump\t// out\n        /* \"#utility.yul\":11490:11670   */\n    tag_98:\n        /* \"#utility.yul\":11538:11615   */\n      0x4e487b7100000000000000000000000000000000000000000000000000000000\n        /* \"#utility.yul\":11535:11536   */\n      0x00\n        /* \"#utility.yul\":11528:11616   */\n      mstore\n        /* \"#utility.yul\":11635:11639   */\n      0x32\n        /* \"#utility.yul\":11632:11633   */\n      0x04\n        /* \"#utility.yul\":11625:11640   */\n      mstore\n        /* \"#utility.yul\":11659:11663   */\n      0x24\n        /* \"#utility.yul\":11656:11657   */\n      0x00\n        /* \"#utility.yul\":11649:11664   */\n      revert\n        /* \"#utility.yul\":11676:11856   */\n    tag_261:\n        /* \"#utility.yul\":11724:11801   */\n      0x4e487b7100000000000000000000000000000000000000000000000000000000\n        /* \"#utility.yul\":11721:11722   */\n      0x00\n        /* \"#utility.yul\":11714:11802   */\n      mstore\n        /* \"#utility.yul\":11821:11825   */\n      0x11\n        /* \"#utility.yul\":11818:11819   */\n      0x04\n        /* \"#utility.yul\":11811:11826   */\n      mstore\n        /* \"#utility.yul\":11845:11849   */\n      0x24\n        /* \"#utility.yul\":11842:11843   */\n      0x00\n        /* \"#utility.yul\":11835:11850   */\n      revert\n        /* \"#utility.yul\":11862:12095   */\n    tag_102:\n        /* \"#utility.yul\":11901:11904   */\n      0x00\n        /* \"#utility.yul\":11924:11948   */\n      tag_410\n        /* \"#utility.yul\":11942:11947   */\n      dup3\n        /* \"#utility.yul\":11924:11948   */\n      tag_243\n      jump\t// in\n    tag_410:\n        /* \"#utility.yul\":11915:11948   */\n      swap2\n      pop\n        /* \"#utility.yul\":11970:12036   */\n      0xffffffffffffffffffffffffffffffffffffffffffffffffffffffffffffffff\n        /* \"#utility.yul\":11963:11968   */\n      dup3\n        /* \"#utility.yul\":11960:12037   */\n      sub\n        /* \"#utility.yul\":11957:12060   */\n      tag_411\n      jumpi\n        /* \"#utility.yul\":12040:12058   */\n      tag_412\n      tag_261\n      jump\t// in\n    tag_412:\n        /* \"#utility.yul\":11957:12060   */\n    tag_411:\n        /* \"#utility.yul\":12087:12088   */\n      0x01\n        /* \"#utility.yul\":12080:12085   */\n      dup3\n        /* \"#utility.yul\":12076:12089   */\n      add\n        /* \"#utility.yul\":12069:12089   */\n      swap1\n      pop\n        /* \"#utility.yul\":11862:12095   */\n      swap2\n      swap1\n      pop\n      jump\t// out\n        /* \"#utility.yul\":12101:12219   */\n    tag_262:\n        /* \"#utility.yul\":12188:12212   */\n      tag_414\n        /* \"#utility.yul\":12206:12211   */\n      dup2\n        /* \"#utility.yul\":12188:12212   */\n      tag_228\n      jump\t// in\n    tag_414:\n        /* \"#utility.yul\":12183:12186   */\n      dup3\n        /* \"#utility.yul\":12176:12213   */\n      mstore\n        /* \"#utility.yul\":12101:12219   */\n      pop\n      pop\n      jump\t// out\n        /* \"#utility.yul\":12225:12447   */\n    tag_105:\n        /* \"#utility.yul\":12318:12322   */\n      0x00\n        /* \"#utility.yul\":12356:12358   */\n      0x20\n        /* \"#utility.yul\":12345:12354   */\n      dup3\n        /* \"#utility.yul\":12341:12359   */\n      add\n        /* \"#utility.yul\":12333:12359   */\n      swap1\n      pop\n        /* \"#utility.yul\":12369:12440   */\n      tag_416\n        /* \"#utility.yul\":12437:12438   */\n      0x00\n        /* \"#utility.yul\":12426:12435   */\n      dup4\n        /* \"#utility.yul\":12422:12439   */\n      add\n        /* \"#utility.yul\":12413:12419   */\n      dup5\n        /* \"#utility.yul\":12369:12440   */\n      tag_262\n      jump\t// in\n    tag_416:\n        /* \"#utility.yul\":12225:12447   */\n      swap3\n      swap2\n      pop\n      pop\n      jump\t// out\n        /* \"#utility.yul\":12453:12622   */\n    tag_263:\n        /* \"#utility.yul\":12537:12548   */\n      0x00\n        /* \"#utility.yul\":12571:12577   */\n      dup3\n        /* \"#utility.yul\":12566:12569   */\n      dup3\n        /* \"#utility.yul\":12559:12578   */\n      mstore\n        /* \"#utility.yul\":12611:12615   */\n      0x20\n        /* \"#utility.yul\":12606:12609   */\n      dup3\n        /* \"#utility.yul\":12602:12616   */\n      add\n        /* \"#utility.yul\":12587:12616   */\n      swap1\n      pop\n        /* \"#utility.yul\":12453:12622   */\n      swap3\n      swap2\n      pop\n      pop\n      jump\t// out\n        /* \"#utility.yul\":12628:12792   */\n    tag_264:\n        /* \"#utility.yul\":12768:12784   */\n      0x4e6f7420617574686f72697a6564000000000000000000000000000000000000\n        /* \"#utility.yul\":12764:12765   */\n      0x00\n        /* \"#utility.yul\":12756:12762   */\n      dup3\n        /* \"#utility.yul\":12752:12766   */\n      add\n        /* \"#utility.yul\":12745:12785   */\n      mstore\n        /* \"#utility.yul\":12628:12792   */\n      pop\n      jump\t// out\n        /* \"#utility.yul\":12798:13164   */\n    tag_265:\n        /* \"#utility.yul\":12940:12943   */\n      0x00\n        /* \"#utility.yul\":12961:13028   */\n      tag_420\n        /* \"#utility.yul\":13025:13027   */\n      0x0e\n        /* \"#utility.yul\":13020:13023   */\n      dup4\n        /* \"#utility.yul\":12961:13028   */\n      tag_263\n      jump\t// in\n    tag_420:\n        /* \"#utility.yul\":12954:13028   */\n      swap2\n      pop\n        /* \"#utility.yul\":13037:13130   */\n      tag_421\n        /* \"#utility.yul\":13126:13129   */\n      dup3\n        /* \"#utility.yul\":13037:13130   */\n      tag_264\n      jump\t// in\n    tag_421:\n        /* \"#utility.yul\":13155:13157   */\n      0x20\n        /* \"#utility.yul\":13150:13153   */\n      dup3\n        /* \"#utility.yul\":13146:13158   */\n      add\n        /* \"#utility.yul\":13139:13158   */\n      swap1\n      pop\n        /* \"#utility.yul\":12798:13164   */\n      swap2\n      swap1\n      pop\n      jump\t// out\n        /* \"#utility.yul\":13170:13589   */\n    tag_109:\n        /* \"#utility.yul\":13336:13340   */\n      0x00\n        /* \"#utility.yul\":13374:13376   */\n      0x20\n        /* \"#utility.yul\":13363:13372   */\n      dup3\n        /* \"#utility.yul\":13359:13377   */\n      add\n        /* \"#utility.yul\":13351:13377   */\n      swap1\n      pop\n        /* \"#utility.yul\":13423:13432   */\n      dup2\n        /* \"#utility.yul\":13417:13421   */\n      dup2\n        /* \"#utility.yul\":13413:13433   */\n      sub\n        /* \"#utility.yul\":13409:13410   */\n      0x00\n        /* \"#utility.yul\":13398:13407   */\n      dup4\n        /* \"#utility.yul\":13394:13411   */\n      add\n        /* \"#utility.yul\":13387:13434   */\n      mstore\n        /* \"#utility.yul\":13451:13582   */\n      tag_423\n        /* \"#utility.yul\":13577:13581   */\n      dup2\n        /* \"#utility.yul\":13451:13582   */\n      tag_265\n      jump\t// in\n    tag_423:\n        /* \"#utility.yul\":13443:13582   */\n      swap1\n      pop\n        /* \"#utility.yul\":13170:13589   */\n      swap2\n      swap1\n      pop\n      jump\t// out\n        /* \"#utility.yul\":13595:13786   */\n    tag_112:\n        /* \"#utility.yul\":13635:13638   */\n      0x00\n        /* \"#utility.yul\":13654:13674   */\n      tag_425\n        /* \"#utility.yul\":13672:13673   */\n      dup3\n        /* \"#utility.yul\":13654:13674   */\n      tag_243\n      jump\t// in\n    tag_425:\n        /* \"#utility.yul\":13649:13674   */\n      swap2\n      pop\n        /* \"#utility.yul\":13688:13708   */\n      tag_426\n        /* \"#utility.yul\":13706:13707   */\n      dup4\n        /* \"#utility.yul\":13688:13708   */\n      tag_243\n      jump\t// in\n    tag_426:\n        /* \"#utility.yul\":13683:13708   */\n      swap3\n      pop\n        /* \"#utility.yul\":13731:13732   */\n      dup3\n        /* \"#utility.yul\":13728:13729   */\n      dup3\n        /* \"#utility.yul\":13724:13733   */\n      add\n        /* \"#utility.yul\":13717:13733   */\n      swap1\n      pop\n        /* \"#utility.yul\":13752:13755   */\n      dup1\n        /* \"#utility.yul\":13749:13750   */\n      dup3\n        /* \"#utility.yul\":13746:13756   */\n      gt\n        /* \"#utility.yul\":13743:13779   */\n      iszero\n      tag_427\n      jumpi\n        /* \"#utility.yul\":13759:13777   */\n      tag_428\n      tag_261\n      jump\t// in\n    tag_428:\n        /* \"#utility.yul\":13743:13779   */\n    tag_427:\n        /* \"#utility.yul\":13595:13786   */\n      swap3\n      swap2\n      pop\n      pop\n      jump\t// out\n        /* \"#utility.yul\":13792:13949   */\n    tag_266:\n        /* \"#utility.yul\":13932:13941   */\n      0x6572726f72303400000000000000000000000000000000000000000000000000\n        /* \"#utility.yul\":13928:13929   */\n      0x00\n        /* \"#utility.yul\":13920:13926   */\n      dup3\n        /* \"#utility.yul\":13916:13930   */\n      add\n        /* \"#utility.yul\":13909:13942   */\n      mstore\n        /* \"#utility.yul\":13792:13949   */\n      pop\n      jump\t// out\n        /* \"#utility.yul\":13955:14320   */\n    tag_267:\n        /* \"#utility.yul\":14097:14100   */\n      0x00\n        /* \"#utility.yul\":14118:14184   */\n      tag_431\n        /* \"#utility.yul\":14182:14183   */\n      0x07\n        /* \"#utility.yul\":14177:14180   */\n      dup4\n        /* \"#utility.yul\":14118:14184   */\n      tag_263\n      jump\t// in\n    tag_431:\n        /* \"#utility.yul\":14111:14184   */\n      swap2\n      pop\n        /* \"#utility.yul\":14193:14286   */\n      tag_432\n        /* \"#utility.yul\":14282:14285   */\n      dup3\n        /* \"#utility.yul\":14193:14286   */\n      tag_266\n      jump\t// in\n    tag_432:\n        /* \"#utility.yul\":14311:14313   */\n      0x20\n        /* \"#utility.yul\":14306:14309   */\n      dup3\n        /* \"#utility.yul\":14302:14314   */\n      add\n        /* \"#utility.yul\":14295:14314   */\n      swap1\n      pop\n        /* \"#utility.yul\":13955:14320   */\n      swap2\n      swap1\n      pop\n      jump\t// out\n        /* \"#utility.yul\":14326:14745   */\n    tag_120:\n        /* \"#utility.yul\":14492:14496   */\n      0x00\n        /* \"#utility.yul\":14530:14532   */\n      0x20\n        /* \"#utility.yul\":14519:14528   */\n      dup3\n        /* \"#utility.yul\":14515:14533   */\n      add\n        /* \"#utility.yul\":14507:14533   */\n      swap1\n      pop\n        /* \"#utility.yul\":14579:14588   */\n      dup2\n        /* \"#utility.yul\":14573:14577   */\n      dup2\n        /* \"#utility.yul\":14569:14589   */\n      sub\n        /* \"#utility.yul\":14565:14566   */\n      0x00\n        /* \"#utility.yul\":14554:14563   */\n      dup4\n        /* \"#utility.yul\":14550:14567   */\n      add\n        /* \"#utility.yul\":14543:14590   */\n      mstore\n        /* \"#utility.yul\":14607:14738   */\n      tag_434\n        /* \"#utility.yul\":14733:14737   */\n      dup2\n        /* \"#utility.yul\":14607:14738   */\n      tag_267\n      jump\t// in\n    tag_434:\n        /* \"#utility.yul\":14599:14738   */\n      swap1\n      pop\n        /* \"#utility.yul\":14326:14745   */\n      swap2\n      swap1\n      pop\n      jump\t// out\n        /* \"#utility.yul\":14751:15083   */\n    tag_126:\n        /* \"#utility.yul\":14872:14876   */\n      0x00\n        /* \"#utility.yul\":14910:14912   */\n      0x40\n        /* \"#utility.yul\":14899:14908   */\n      dup3\n        /* \"#utility.yul\":14895:14913   */\n      add\n        /* \"#utility.yul\":14887:14913   */\n      swap1\n      pop\n        /* \"#utility.yul\":14923:14994   */\n      tag_436\n        /* \"#utility.yul\":14991:14992   */\n      0x00\n        /* \"#utility.yul\":14980:14989   */\n      dup4\n        /* \"#utility.yul\":14976:14993   */\n      add\n        /* \"#utility.yul\":14967:14973   */\n      dup6\n        /* \"#utility.yul\":14923:14994   */\n      tag_262\n      jump\t// in\n    tag_436:\n        /* \"#utility.yul\":15004:15076   */\n      tag_437\n        /* \"#utility.yul\":15072:15074   */\n      0x20\n        /* \"#utility.yul\":15061:15070   */\n      dup4\n        /* \"#utility.yul\":15057:15075   */\n      add\n        /* \"#utility.yul\":15048:15054   */\n      dup5\n        /* \"#utility.yul\":15004:15076   */\n      tag_244\n      jump\t// in\n    tag_437:\n        /* \"#utility.yul\":14751:15083   */\n      swap4\n      swap3\n      pop\n      pop\n      pop\n      jump\t// out\n        /* \"#utility.yul\":15089:15246   */\n    tag_268:\n        /* \"#utility.yul\":15229:15238   */\n      0x6572726f72303200000000000000000000000000000000000000000000000000\n        /* \"#utility.yul\":15225:15226   */\n      0x00\n        /* \"#utility.yul\":15217:15223   */\n      dup3\n        /* \"#utility.yul\":15213:15227   */\n      add\n        /* \"#utility.yul\":15206:15239   */\n      mstore\n        /* \"#utility.yul\":15089:15246   */\n      pop\n      jump\t// out\n        /* \"#utility.yul\":15252:15617   */\n    tag_269:\n        /* \"#utility.yul\":15394:15397   */\n      0x00\n        /* \"#utility.yul\":15415:15481   */\n      tag_440\n        /* \"#utility.yul\":15479:15480   */\n      0x07\n        /* \"#utility.yul\":15474:15477   */\n      dup4\n        /* \"#utility.yul\":15415:15481   */\n      tag_263\n      jump\t// in\n    tag_440:\n        /* \"#utility.yul\":15408:15481   */\n      swap2\n      pop\n        /* \"#utility.yul\":15490:15583   */\n      tag_441\n        /* \"#utility.yul\":15579:15582   */\n      dup3\n        /* \"#utility.yul\":15490:15583   */\n      tag_268\n      jump\t// in\n    tag_441:\n        /* \"#utility.yul\":15608:15610   */\n      0x20\n        /* \"#utility.yul\":15603:15606   */\n      dup3\n        /* \"#utility.yul\":15599:15611   */\n      add\n        /* \"#utility.yul\":15592:15611   */\n      swap1\n      pop\n        /* \"#utility.yul\":15252:15617   */\n      swap2\n      swap1\n      pop\n      jump\t// out\n        /* \"#utility.yul\":15623:16042   */\n    tag_156:\n        /* \"#utility.yul\":15789:15793   */\n      0x00\n        /* \"#utility.yul\":15827:15829   */\n      0x20\n        /* \"#utility.yul\":15816:15825   */\n      dup3\n        /* \"#utility.yul\":15812:15830   */\n      add\n        /* \"#utility.yul\":15804:15830   */\n      swap1\n      pop\n        /* \"#utility.yul\":15876:15885   */\n      dup2\n        /* \"#utility.yul\":15870:15874   */\n      dup2\n        /* \"#utility.yul\":15866:15886   */\n      sub\n        /* \"#utility.yul\":15862:15863   */\n      0x00\n        /* \"#utility.yul\":15851:15860   */\n      dup4\n        /* \"#utility.yul\":15847:15864   */\n      add\n        /* \"#utility.yul\":15840:15887   */\n      mstore\n        /* \"#utility.yul\":15904:16035   */\n      tag_443\n        /* \"#utility.yul\":16030:16034   */\n      dup2\n        /* \"#utility.yul\":15904:16035   */\n      tag_269\n      jump\t// in\n    tag_443:\n        /* \"#utility.yul\":15896:16035   */\n      swap1\n      pop\n        /* \"#utility.yul\":15623:16042   */\n      swap2\n      swap1\n      pop\n      jump\t// out\n        /* \"#utility.yul\":16048:16205   */\n    tag_270:\n        /* \"#utility.yul\":16188:16197   */\n      0x6572726f72303300000000000000000000000000000000000000000000000000\n        /* \"#utility.yul\":16184:16185   */\n      0x00\n        /* \"#utility.yul\":16176:16182   */\n      dup3\n        /* \"#utility.yul\":16172:16186   */\n      add\n        /* \"#utility.yul\":16165:16198   */\n      mstore\n        /* \"#utility.yul\":16048:16205   */\n      pop\n      jump\t// out\n        /* \"#utility.yul\":16211:16576   */\n    tag_271:\n        /* \"#utility.yul\":16353:16356   */\n      0x00\n        /* \"#utility.yul\":16374:16440   */\n      tag_446\n        /* \"#utility.yul\":16438:16439   */\n      0x07\n        /* \"#utility.yul\":16433:16436   */\n      dup4\n        /* \"#utility.yul\":16374:16440   */\n      tag_263\n      jump\t// in\n    tag_446:\n        /* \"#utility.yul\":16367:16440   */\n      swap2\n      pop\n        /* \"#utility.yul\":16449:16542   */\n      tag_447\n        /* \"#utility.yul\":16538:16541   */\n      dup3\n        /* \"#utility.yul\":16449:16542   */\n      tag_270\n      jump\t// in\n    tag_447:\n        /* \"#utility.yul\":16567:16569   */\n      0x20\n        /* \"#utility.yul\":16562:16565   */\n      dup3\n        /* \"#utility.yul\":16558:16570   */\n      add\n        /* \"#utility.yul\":16551:16570   */\n      swap1\n      pop\n        /* \"#utility.yul\":16211:16576   */\n      swap2\n      swap1\n      pop\n      jump\t// out\n        /* \"#utility.yul\":16582:17001   */\n    tag_159:\n        /* \"#utility.yul\":16748:16752   */\n      0x00\n        /* \"#utility.yul\":16786:16788   */\n      0x20\n        /* \"#utility.yul\":16775:16784   */\n      dup3\n        /* \"#utility.yul\":16771:16789   */\n      add\n        /* \"#utility.yul\":16763:16789   */\n      swap1\n      pop\n        /* \"#utility.yul\":16835:16844   */\n      dup2\n        /* \"#utility.yul\":16829:16833   */\n      dup2\n        /* \"#utility.yul\":16825:16845   */\n      sub\n        /* \"#utility.yul\":16821:16822   */\n      0x00\n        /* \"#utility.yul\":16810:16819   */\n      dup4\n        /* \"#utility.yul\":16806:16823   */\n      add\n        /* \"#utility.yul\":16799:16846   */\n      mstore\n        /* \"#utility.yul\":16863:16994   */\n      tag_449\n        /* \"#utility.yul\":16989:16993   */\n      dup2\n        /* \"#utility.yul\":16863:16994   */\n      tag_271\n      jump\t// in\n    tag_449:\n        /* \"#utility.yul\":16855:16994   */\n      swap1\n      pop\n        /* \"#utility.yul\":16582:17001   */\n      swap2\n      swap1\n      pop\n      jump\t// out\n        /* \"#utility.yul\":17007:17164   */\n    tag_272:\n        /* \"#utility.yul\":17147:17156   */\n      0x6572726f72303100000000000000000000000000000000000000000000000000\n        /* \"#utility.yul\":17143:17144   */\n      0x00\n        /* \"#utility.yul\":17135:17141   */\n      dup3\n        /* \"#utility.yul\":17131:17145   */\n      add\n        /* \"#utility.yul\":17124:17157   */\n      mstore\n        /* \"#utility.yul\":17007:17164   */\n      pop\n      jump\t// out\n        /* \"#utility.yul\":17170:17535   */\n    tag_273:\n        /* \"#utility.yul\":17312:17315   */\n      0x00\n        /* \"#utility.yul\":17333:17399   */\n      tag_452\n        /* \"#utility.yul\":17397:17398   */\n      0x07\n        /* \"#utility.yul\":17392:17395   */\n      dup4\n        /* \"#utility.yul\":17333:17399   */\n      tag_263\n      jump\t// in\n    tag_452:\n        /* \"#utility.yul\":17326:17399   */\n      swap2\n      pop\n        /* \"#utility.yul\":17408:17501   */\n      tag_453\n        /* \"#utility.yul\":17497:17500   */\n      dup3\n        /* \"#utility.yul\":17408:17501   */\n      tag_272\n      jump\t// in\n    tag_453:\n        /* \"#utility.yul\":17526:17528   */\n      0x20\n        /* \"#utility.yul\":17521:17524   */\n      dup3\n        /* \"#utility.yul\":17517:17529   */\n      add\n        /* \"#utility.yul\":17510:17529   */\n      swap1\n      pop\n        /* \"#utility.yul\":17170:17535   */\n      swap2\n      swap1\n      pop\n      jump\t// out\n        /* \"#utility.yul\":17541:17960   */\n    tag_165:\n        /* \"#utility.yul\":17707:17711   */\n      0x00\n        /* \"#utility.yul\":17745:17747   */\n      0x20\n        /* \"#utility.yul\":17734:17743   */\n      dup3\n        /* \"#utility.yul\":17730:17748   */\n      add\n        /* \"#utility.yul\":17722:17748   */\n      swap1\n      pop\n        /* \"#utility.yul\":17794:17803   */\n      dup2\n        /* \"#utility.yul\":17788:17792   */\n      dup2\n        /* \"#utility.yul\":17784:17804   */\n      sub\n        /* \"#utility.yul\":17780:17781   */\n      0x00\n        /* \"#utility.yul\":17769:17778   */\n      dup4\n        /* \"#utility.yul\":17765:17782   */\n      add\n        /* \"#utility.yul\":17758:17805   */\n      mstore\n        /* \"#utility.yul\":17822:17953   */\n      tag_455\n        /* \"#utility.yul\":17948:17952   */\n      dup2\n        /* \"#utility.yul\":17822:17953   */\n      tag_273\n      jump\t// in\n    tag_455:\n        /* \"#utility.yul\":17814:17953   */\n      swap1\n      pop\n        /* \"#utility.yul\":17541:17960   */\n      swap2\n      swap1\n      pop\n      jump\t// out\n        /* \"#utility.yul\":17966:18160   */\n    tag_187:\n        /* \"#utility.yul\":18006:18010   */\n      0x00\n        /* \"#utility.yul\":18026:18046   */\n      tag_457\n        /* \"#utility.yul\":18044:18045   */\n      dup3\n        /* \"#utility.yul\":18026:18046   */\n      tag_243\n      jump\t// in\n    tag_457:\n        /* \"#utility.yul\":18021:18046   */\n      swap2\n      pop\n        /* \"#utility.yul\":18060:18080   */\n      tag_458\n        /* \"#utility.yul\":18078:18079   */\n      dup4\n        /* \"#utility.yul\":18060:18080   */\n      tag_243\n      jump\t// in\n    tag_458:\n        /* \"#utility.yul\":18055:18080   */\n      swap3\n      pop\n        /* \"#utility.yul\":18104:18105   */\n      dup3\n        /* \"#utility.yul\":18101:18102   */\n      dup3\n        /* \"#utility.yul\":18097:18106   */\n      sub\n        /* \"#utility.yul\":18089:18106   */\n      swap1\n      pop\n        /* \"#utility.yul\":18128:18129   */\n      dup2\n        /* \"#utility.yul\":18122:18126   */\n      dup2\n        /* \"#utility.yul\":18119:18130   */\n      gt\n        /* \"#utility.yul\":18116:18153   */\n      iszero\n      tag_459\n      jumpi\n        /* \"#utility.yul\":18133:18151   */\n      tag_460\n      tag_261\n      jump\t// in\n    tag_460:\n        /* \"#utility.yul\":18116:18153   */\n    tag_459:\n        /* \"#utility.yul\":17966:18160   */\n      swap3\n      swap2\n      pop\n      pop\n      jump\t// out\n        /* \"#utility.yul\":18166:18323   */\n    tag_274:\n        /* \"#utility.yul\":18306:18315   */\n      0x6572726f72303700000000000000000000000000000000000000000000000000\n        /* \"#utility.yul\":18302:18303   */\n      0x00\n        /* \"#utility.yul\":18294:18300   */\n      dup3\n        /* \"#utility.yul\":18290:18304   */\n      add\n        /* \"#utility.yul\":18283:18316   */\n      mstore\n        /* \"#utility.yul\":18166:18323   */\n      pop\n      jump\t// out\n        /* \"#utility.yul\":18329:18694   */\n    tag_275:\n        /* \"#utility.yul\":18471:18474   */\n      0x00\n        /* \"#utility.yul\":18492:18558   */\n      tag_463\n        /* \"#utility.yul\":18556:18557   */\n      0x07\n        /* \"#utility.yul\":18551:18554   */\n      dup4\n        /* \"#utility.yul\":18492:18558   */\n      tag_263\n      jump\t// in\n    tag_463:\n        /* \"#utility.yul\":18485:18558   */\n      swap2\n      pop\n        /* \"#utility.yul\":18567:18660   */\n      tag_464\n        /* \"#utility.yul\":18656:18659   */\n      dup3\n        /* \"#utility.yul\":18567:18660   */\n      tag_274\n      jump\t// in\n    tag_464:\n        /* \"#utility.yul\":18685:18687   */\n      0x20\n        /* \"#utility.yul\":18680:18683   */\n      dup3\n        /* \"#utility.yul\":18676:18688   */\n      add\n        /* \"#utility.yul\":18669:18688   */\n      swap1\n      pop\n        /* \"#utility.yul\":18329:18694   */\n      swap2\n      swap1\n      pop\n      jump\t// out\n        /* \"#utility.yul\":18700:19119   */\n    tag_193:\n        /* \"#utility.yul\":18866:18870   */\n      0x00\n        /* \"#utility.yul\":18904:18906   */\n      0x20\n        /* \"#utility.yul\":18893:18902   */\n      dup3\n        /* \"#utility.yul\":18889:18907   */\n      add\n        /* \"#utility.yul\":18881:18907   */\n      swap1\n      pop\n        /* \"#utility.yul\":18953:18962   */\n      dup2\n        /* \"#utility.yul\":18947:18951   */\n      dup2\n        /* \"#utility.yul\":18943:18963   */\n      sub\n        /* \"#utility.yul\":18939:18940   */\n      0x00\n        /* \"#utility.yul\":18928:18937   */\n      dup4\n        /* \"#utility.yul\":18924:18941   */\n      add\n        /* \"#utility.yul\":18917:18964   */\n      mstore\n        /* \"#utility.yul\":18981:19112   */\n      tag_466\n        /* \"#utility.yul\":19107:19111   */\n      dup2\n        /* \"#utility.yul\":18981:19112   */\n      tag_275\n      jump\t// in\n    tag_466:\n        /* \"#utility.yul\":18973:19112   */\n      swap1\n      pop\n        /* \"#utility.yul\":18700:19119   */\n      swap2\n      swap1\n      pop\n      jump\t// out\n        /* \"#utility.yul\":19125:19272   */\n    tag_276:\n        /* \"#utility.yul\":19226:19237   */\n      0x00\n        /* \"#utility.yul\":19263:19266   */\n      dup2\n        /* \"#utility.yul\":19248:19266   */\n      swap1\n      pop\n        /* \"#utility.yul\":19125:19272   */\n      swap3\n      swap2\n      pop\n      pop\n      jump\t// out\n        /* \"#utility.yul\":19278:19664   */\n    tag_277:\n        /* \"#utility.yul\":19382:19385   */\n      0x00\n        /* \"#utility.yul\":19410:19448   */\n      tag_469\n        /* \"#utility.yul\":19442:19447   */\n      dup3\n        /* \"#utility.yul\":19410:19448   */\n      tag_238\n      jump\t// in\n    tag_469:\n        /* \"#utility.yul\":19464:19552   */\n      tag_470\n        /* \"#utility.yul\":19545:19551   */\n      dup2\n        /* \"#utility.yul\":19540:19543   */\n      dup6\n        /* \"#utility.yul\":19464:19552   */\n      tag_276\n      jump\t// in\n    tag_470:\n        /* \"#utility.yul\":19457:19552   */\n      swap4\n      pop\n        /* \"#utility.yul\":19561:19626   */\n      tag_471\n        /* \"#utility.yul\":19619:19625   */\n      dup2\n        /* \"#utility.yul\":19614:19617   */\n      dup6\n        /* \"#utility.yul\":19607:19611   */\n      0x20\n        /* \"#utility.yul\":19600:19605   */\n      dup7\n        /* \"#utility.yul\":19596:19612   */\n      add\n        /* \"#utility.yul\":19561:19626   */\n      tag_240\n      jump\t// in\n    tag_471:\n        /* \"#utility.yul\":19651:19657   */\n      dup1\n        /* \"#utility.yul\":19646:19649   */\n      dup5\n        /* \"#utility.yul\":19642:19658   */\n      add\n        /* \"#utility.yul\":19635:19658   */\n      swap2\n      pop\n        /* \"#utility.yul\":19386:19664   */\n      pop\n        /* \"#utility.yul\":19278:19664   */\n      swap3\n      swap2\n      pop\n      pop\n      jump\t// out\n        /* \"#utility.yul\":19670:19941   */\n    tag_200:\n        /* \"#utility.yul\":19800:19803   */\n      0x00\n        /* \"#utility.yul\":19822:19915   */\n      tag_473\n        /* \"#utility.yul\":19911:19914   */\n      dup3\n        /* \"#utility.yul\":19902:19908   */\n      dup5\n        /* \"#utility.yul\":19822:19915   */\n      tag_277\n      jump\t// in\n    tag_473:\n        /* \"#utility.yul\":19815:19915   */\n      swap2\n      pop\n        /* \"#utility.yul\":19932:19935   */\n      dup2\n        /* \"#utility.yul\":19925:19935   */\n      swap1\n      pop\n        /* \"#utility.yul\":19670:19941   */\n      swap3\n      swap2\n      pop\n      pop\n      jump\t// out\n        /* \"#utility.yul\":19947:20118   */\n    tag_222:\n        /* \"#utility.yul\":19986:19989   */\n      0x00\n        /* \"#utility.yul\":20009:20033   */\n      tag_475\n        /* \"#utility.yul\":20027:20032   */\n      dup3\n        /* \"#utility.yul\":20009:20033   */\n      tag_243\n      jump\t// in\n    tag_475:\n        /* \"#utility.yul\":20000:20033   */\n      swap2\n      pop\n        /* \"#utility.yul\":20055:20059   */\n      0x00\n        /* \"#utility.yul\":20048:20053   */\n      dup3\n        /* \"#utility.yul\":20045:20060   */\n      sub\n        /* \"#utility.yul\":20042:20083   */\n      tag_476\n      jumpi\n        /* \"#utility.yul\":20063:20081   */\n      tag_477\n      tag_261\n      jump\t// in\n    tag_477:\n        /* \"#utility.yul\":20042:20083   */\n    tag_476:\n        /* \"#utility.yul\":20110:20111   */\n      0x01\n        /* \"#utility.yul\":20103:20108   */\n      dup3\n        /* \"#utility.yul\":20099:20112   */\n      sub\n        /* \"#utility.yul\":20092:20112   */\n      swap1\n      pop\n        /* \"#utility.yul\":19947:20118   */\n      swap2\n      swap1\n      pop\n      jump\t// out\n\n    auxdata: 0xa2646970667358221220f78abf201b50f876152396bf999ad22cfcf36a1f91e45487dc3a1edccfa8505564736f6c63430008120033\n}\n",
				"bytecode": {
					"linkReferences": {},
					"object": "608060405234801561001057600080fd5b506120db806100206000396000f3fe6080604052600436106100dd5760003560e01c8063694e80c31161007f578063c0f0b3f111610059578063c0f0b3f1146102be578063d6d2b6ba146102e7578063ef11783c14610303578063ff87578c14610340576100dd565b8063694e80c31461024157806381244e5d1461026a578063a0e1ace814610295576100dd565b80630c546204116100bb5780630c54620414610175578063549102981461019e5780635ce7fa2d146101db5780636876a95e14610204576100dd565b8063029c81e3146100e25780630a3b0a4f1461010d5780630c3dfc1a1461014a575b600080fd5b3480156100ee57600080fd5b506100f761037d565b6040516101049190611736565b60405180910390f35b34801561011957600080fd5b50610134600480360381019061012f9190611798565b6104d0565b6040516101419190611855565b60405180910390f35b34801561015657600080fd5b5061015f610568565b60405161016c9190611890565b60405180910390f35b34801561018157600080fd5b5061019c600480360381019061019791906118d7565b61056e565b005b3480156101aa57600080fd5b506101c560048036038101906101c091906118d7565b610721565b6040516101d29190611855565b60405180910390f35b3480156101e757600080fd5b5061020260048036038101906101fd9190611798565b6107bc565b005b34801561021057600080fd5b5061022b60048036038101906102269190611917565b610a04565b6040516102389190611855565b60405180910390f35b34801561024d57600080fd5b5061026860048036038101906102639190611917565b610a9c565b005b34801561027657600080fd5b5061027f610bd6565b60405161028c9190611890565b60405180910390f35b3480156102a157600080fd5b506102bc60048036038101906102b79190611a8c565b610be0565b005b3480156102ca57600080fd5b506102e560048036038101906102e091906118d7565b610dcd565b005b61030160048036038101906102fc9190611b9d565b610f37565b005b34801561030f57600080fd5b5061032a60048036038101906103259190611798565b610fab565b6040516103379190611c14565b60405180910390f35b34801561034c57600080fd5b50610367600480360381019061036291906118d7565b611105565b6040516103749190611855565b60405180910390f35b60606000805467ffffffffffffffff81111561039c5761039b611949565b5b6040519080825280602002602001820160405280156103ca5781602001602082028036833780820191505090505b509050600060026000600173ffffffffffffffffffffffffffffffffffffffff1673ffffffffffffffffffffffffffffffffffffffff1681526020019081526020016000206000600115151515815260200190815260200160002060009054906101000a900473ffffffffffffffffffffffffffffffffffffffff16905060005b6000548110156104c7578183828151811061046957610468611c2f565b5b602002602001019073ffffffffffffffffffffffffffffffffffffffff16908173ffffffffffffffffffffffffffffffffffffffff16815250506104ae8260016111a0565b90508092505080806104bf90611c8d565b91505061044b565b82935050505090565b60607f5ce7fa2d7df4a3b8ac1f4edf3b55bd9def1ea63ad71b157bf5823b2597dd13b0826040516024016105049190611ce4565b604051602081830303815290604052907bffffffffffffffffffffffffffffffffffffffffffffffffffffffff19166020820180517bffffffffffffffffffffffffffffffffffffffffffffffffffffffff83818316178352505050509050919050565b60005481565b3073ffffffffffffffffffffffffffffffffffffffff163373ffffffffffffffffffffffffffffffffffffffff16146105dc576040517f08c379a00000000000000000000000000000000000000000000000000000000081526004016105d390611d5c565b60405180910390fd5b8060016000546105ec9190611d7c565b101580156105fb575060008110155b61060457600080fd5b600073ffffffffffffffffffffffffffffffffffffffff168273ffffffffffffffffffffffffffffffffffffffff161415801561066d57503073ffffffffffffffffffffffffffffffffffffffff168273ffffffffffffffffffffffffffffffffffffffff1614155b801561067f575061067d82610fab565b155b6106be576040517f08c379a00000000000000000000000000000000000000000000000000000000081526004016106b590611dfc565b60405180910390fd5b6106c7826107bc565b8173ffffffffffffffffffffffffffffffffffffffff167fac1e9ef41b54c676ccf449d83ae6f2624bcdce8f5b93a6b48ce95874c332693d60405160405180910390a2600154811461071d5761071c81610a9c565b5b5050565b60607f5cb963ae197a87311b65f828de4c1673c22d6ac1a28aa681cfeb35b1ff025d7a8383604051602401610757929190611e1c565b604051602081830303815290604052907bffffffffffffffffffffffffffffffffffffffffffffffffffffffff19166020820180517bffffffffffffffffffffffffffffffffffffffffffffffffffffffff8381831617835250505050905092915050565b600073ffffffffffffffffffffffffffffffffffffffff168173ffffffffffffffffffffffffffffffffffffffff161415801561082557503073ffffffffffffffffffffffffffffffffffffffff168173ffffffffffffffffffffffffffffffffffffffff1614155b8015610837575061083581610fab565b155b610876576040517f08c379a000000000000000000000000000000000000000000000000000000000815260040161086d90611dfc565b60405180910390fd5b60006001905060006108898260016111a0565b9050809150505b600073ffffffffffffffffffffffffffffffffffffffff168173ffffffffffffffffffffffffffffffffffffffff16146109a7578273ffffffffffffffffffffffffffffffffffffffff168173ffffffffffffffffffffffffffffffffffffffff1611801561092a57508273ffffffffffffffffffffffffffffffffffffffff168273ffffffffffffffffffffffffffffffffffffffff16105b156109405761093b8284600161123f565b6109a7565b8273ffffffffffffffffffffffffffffffffffffffff168173ffffffffffffffffffffffffffffffffffffffff16111561098d578190506109828260006111a0565b9050809250506109a2565b80915061099b8160016111a0565b9050809150505b610890565b600073ffffffffffffffffffffffffffffffffffffffff168173ffffffffffffffffffffffffffffffffffffffff16036109e8576109e78284600161123f565b5b6000808154809291906109fa90611c8d565b9190505550505050565b60607f694e80c37192d74d6099f3d3b41506932ab644a24442ee51857cfeb9eb01ac2f82604051602401610a389190611890565b604051602081830303815290604052907bffffffffffffffffffffffffffffffffffffffffffffffffffffffff19166020820180517bffffffffffffffffffffffffffffffffffffffffffffffffffffffff83818316178352505050509050919050565b3073ffffffffffffffffffffffffffffffffffffffff163373ffffffffffffffffffffffffffffffffffffffff1614610b0a576040517f08c379a0000000000000000000000000000000000000000000000000000000008152600401610b0190611d5c565b60405180910390fd5b600054811115610b4f576040517f08c379a0000000000000000000000000000000000000000000000000000000008152600401610b4690611e91565b60405180910390fd5b6001811015610b93576040517f08c379a0000000000000000000000000000000000000000000000000000000008152600401610b8a90611efd565b60405180910390fd5b806001819055507f9947ac58e204d2da07b9748298663b3b77da7fb0638201d778987ded7c90fbaa600154604051610bcb9190611890565b60405180910390a150565b6000600154905090565b600060015414610c25576040517f08c379a0000000000000000000000000000000000000000000000000000000008152600401610c1c90611f69565b60405180910390fd5b8151811115610c69576040517f08c379a0000000000000000000000000000000000000000000000000000000008152600401610c6090611e91565b60405180910390fd5b6001811015610cad576040517f08c379a0000000000000000000000000000000000000000000000000000000008152600401610ca490611efd565b60405180910390fd5b60006001905060005b8351811015610db8576000848281518110610cd457610cd3611c2f565b5b60200260200101519050600073ffffffffffffffffffffffffffffffffffffffff168173ffffffffffffffffffffffffffffffffffffffff1614158015610d4757503073ffffffffffffffffffffffffffffffffffffffff168173ffffffffffffffffffffffffffffffffffffffff1614155b8015610d595750610d5781610fab565b155b610d98576040517f08c379a0000000000000000000000000000000000000000000000000000000008152600401610d8f90611dfc565b60405180910390fd5b610da1816107bc565b809250508080610db090611c8d565b915050610cb6565b50816001819055508251600081905550505050565b3073ffffffffffffffffffffffffffffffffffffffff163373ffffffffffffffffffffffffffffffffffffffff1614610e3b576040517f08c379a0000000000000000000000000000000000000000000000000000000008152600401610e3290611d5c565b60405180910390fd5b806001600054610e4b9190611f89565b1015610e8c576040517f08c379a0000000000000000000000000000000000000000000000000000000008152600401610e8390611e91565b60405180910390fd5b610e9582610fab565b610ed4576040517f08c379a0000000000000000000000000000000000000000000000000000000008152600401610ecb90612009565b60405180910390fd5b610edd826112d4565b8173ffffffffffffffffffffffffffffffffffffffff167fac6e8398676cf37429d530b81144d7079e99f4fe9d28b0d88c4a749ceccbe8cd60405160405180910390a26001548114610f3357610f3281610a9c565b5b5050565b60008273ffffffffffffffffffffffffffffffffffffffff1682604051610f5e9190612065565b6000604051808303816000865af19150503d8060008114610f9b576040519150601f19603f3d011682016040523d82523d6000602084013e610fa0565b606091505b505080915050505050565b60008073ffffffffffffffffffffffffffffffffffffffff16600260008473ffffffffffffffffffffffffffffffffffffffff1673ffffffffffffffffffffffffffffffffffffffff16815260200190815260200160002060008015151515815260200190815260200160002060009054906101000a900473ffffffffffffffffffffffffffffffffffffffff1673ffffffffffffffffffffffffffffffffffffffff161415806110fe5750600073ffffffffffffffffffffffffffffffffffffffff16600260008473ffffffffffffffffffffffffffffffffffffffff1673ffffffffffffffffffffffffffffffffffffffff1681526020019081526020016000206000600115151515815260200190815260200160002060009054906101000a900473ffffffffffffffffffffffffffffffffffffffff1673ffffffffffffffffffffffffffffffffffffffff1614155b9050919050565b60607f0f6fd209ba0161acfd0f4d4fa947b5907845ed1e66071e030be54ba4c310c5a6838360405160240161113b929190611e1c565b604051602081830303815290604052907bffffffffffffffffffffffffffffffffffffffffffffffffffffffff19166020820180517bffffffffffffffffffffffffffffffffffffffffffffffffffffffff8381831617835250505050905092915050565b6000806111ac84610fab565b6111bc5760008091509150611238565b6001600260008673ffffffffffffffffffffffffffffffffffffffff1673ffffffffffffffffffffffffffffffffffffffff16815260200190815260200160002060008515151515815260200190815260200160002060009054906101000a900473ffffffffffffffffffffffffffffffffffffffff16915091505b9250929050565b6000600260008573ffffffffffffffffffffffffffffffffffffffff1673ffffffffffffffffffffffffffffffffffffffff16815260200190815260200160002060008315151515815260200190815260200160002060009054906101000a900473ffffffffffffffffffffffffffffffffffffffff1690506112c384848461151a565b6112ce83828461151a565b50505050565b6112dd81610fab565b61131c576040517f08c379a000000000000000000000000000000000000000000000000000000000815260040161131390612009565b60405180910390fd5b611411600260008373ffffffffffffffffffffffffffffffffffffffff1673ffffffffffffffffffffffffffffffffffffffff16815260200190815260200160002060008015151515815260200190815260200160002060009054906101000a900473ffffffffffffffffffffffffffffffffffffffff16600260008473ffffffffffffffffffffffffffffffffffffffff1673ffffffffffffffffffffffffffffffffffffffff1681526020019081526020016000206000600115151515815260200190815260200160002060009054906101000a900473ffffffffffffffffffffffffffffffffffffffff16600161151a565b600260008273ffffffffffffffffffffffffffffffffffffffff1673ffffffffffffffffffffffffffffffffffffffff16815260200190815260200160002060008015151515815260200190815260200160002060006101000a81549073ffffffffffffffffffffffffffffffffffffffff0219169055600260008273ffffffffffffffffffffffffffffffffffffffff1673ffffffffffffffffffffffffffffffffffffffff1681526020019081526020016000206000600115151515815260200190815260200160002060006101000a81549073ffffffffffffffffffffffffffffffffffffffff02191690556000808154809291906115129061207c565b919050555050565b82600260008473ffffffffffffffffffffffffffffffffffffffff1673ffffffffffffffffffffffffffffffffffffffff1681526020019081526020016000206000831515151515815260200190815260200160002060006101000a81548173ffffffffffffffffffffffffffffffffffffffff021916908373ffffffffffffffffffffffffffffffffffffffff16021790555081600260008573ffffffffffffffffffffffffffffffffffffffff1673ffffffffffffffffffffffffffffffffffffffff16815260200190815260200160002060008315151515815260200190815260200160002060006101000a81548173ffffffffffffffffffffffffffffffffffffffff021916908373ffffffffffffffffffffffffffffffffffffffff160217905550505050565b600081519050919050565b600082825260208201905092915050565b6000819050602082019050919050565b600073ffffffffffffffffffffffffffffffffffffffff82169050919050565b600061169d82611672565b9050919050565b6116ad81611692565b82525050565b60006116bf83836116a4565b60208301905092915050565b6000602082019050919050565b60006116e382611646565b6116ed8185611651565b93506116f883611662565b8060005b8381101561172957815161171088826116b3565b975061171b836116cb565b9250506001810190506116fc565b5085935050505092915050565b6000602082019050818103600083015261175081846116d8565b905092915050565b6000604051905090565b600080fd5b600080fd5b61177581611692565b811461178057600080fd5b50565b6000813590506117928161176c565b92915050565b6000602082840312156117ae576117ad611762565b5b60006117bc84828501611783565b91505092915050565b600081519050919050565b600082825260208201905092915050565b60005b838110156117ff5780820151818401526020810190506117e4565b60008484015250505050565b6000601f19601f8301169050919050565b6000611827826117c5565b61183181856117d0565b93506118418185602086016117e1565b61184a8161180b565b840191505092915050565b6000602082019050818103600083015261186f818461181c565b905092915050565b6000819050919050565b61188a81611877565b82525050565b60006020820190506118a56000830184611881565b92915050565b6118b481611877565b81146118bf57600080fd5b50565b6000813590506118d1816118ab565b92915050565b600080604083850312156118ee576118ed611762565b5b60006118fc85828601611783565b925050602061190d858286016118c2565b9150509250929050565b60006020828403121561192d5761192c611762565b5b600061193b848285016118c2565b91505092915050565b600080fd5b7f4e487b7100000000000000000000000000000000000000000000000000000000600052604160045260246000fd5b6119818261180b565b810181811067ffffffffffffffff821117156119a05761199f611949565b5b80604052505050565b60006119b3611758565b90506119bf8282611978565b919050565b600067ffffffffffffffff8211156119df576119de611949565b5b602082029050602081019050919050565b600080fd5b6000611a08611a03846119c4565b6119a9565b90508083825260208201905060208402830185811115611a2b57611a2a6119f0565b5b835b81811015611a545780611a408882611783565b845260208401935050602081019050611a2d565b5050509392505050565b600082601f830112611a7357611a72611944565b5b8135611a838482602086016119f5565b91505092915050565b60008060408385031215611aa357611aa2611762565b5b600083013567ffffffffffffffff811115611ac157611ac0611767565b5b611acd85828601611a5e565b9250506020611ade858286016118c2565b9150509250929050565b600080fd5b600067ffffffffffffffff821115611b0857611b07611949565b5b611b118261180b565b9050602081019050919050565b82818337600083830152505050565b6000611b40611b3b84611aed565b6119a9565b905082815260208101848484011115611b5c57611b5b611ae8565b5b611b67848285611b1e565b509392505050565b600082601f830112611b8457611b83611944565b5b8135611b94848260208601611b2d565b91505092915050565b60008060408385031215611bb457611bb3611762565b5b6000611bc285828601611783565b925050602083013567ffffffffffffffff811115611be357611be2611767565b5b611bef85828601611b6f565b9150509250929050565b60008115159050919050565b611c0e81611bf9565b82525050565b6000602082019050611c296000830184611c05565b92915050565b7f4e487b7100000000000000000000000000000000000000000000000000000000600052603260045260246000fd5b7f4e487b7100000000000000000000000000000000000000000000000000000000600052601160045260246000fd5b6000611c9882611877565b91507fffffffffffffffffffffffffffffffffffffffffffffffffffffffffffffffff8203611cca57611cc9611c5e565b5b600182019050919050565b611cde81611692565b82525050565b6000602082019050611cf96000830184611cd5565b92915050565b600082825260208201905092915050565b7f4e6f7420617574686f72697a6564000000000000000000000000000000000000600082015250565b6000611d46600e83611cff565b9150611d5182611d10565b602082019050919050565b60006020820190508181036000830152611d7581611d39565b9050919050565b6000611d8782611877565b9150611d9283611877565b9250828201905080821115611daa57611da9611c5e565b5b92915050565b7f6572726f72303400000000000000000000000000000000000000000000000000600082015250565b6000611de6600783611cff565b9150611df182611db0565b602082019050919050565b60006020820190508181036000830152611e1581611dd9565b9050919050565b6000604082019050611e316000830185611cd5565b611e3e6020830184611881565b9392505050565b7f6572726f72303200000000000000000000000000000000000000000000000000600082015250565b6000611e7b600783611cff565b9150611e8682611e45565b602082019050919050565b60006020820190508181036000830152611eaa81611e6e565b9050919050565b7f6572726f72303300000000000000000000000000000000000000000000000000600082015250565b6000611ee7600783611cff565b9150611ef282611eb1565b602082019050919050565b60006020820190508181036000830152611f1681611eda565b9050919050565b7f6572726f72303100000000000000000000000000000000000000000000000000600082015250565b6000611f53600783611cff565b9150611f5e82611f1d565b602082019050919050565b60006020820190508181036000830152611f8281611f46565b9050919050565b6000611f9482611877565b9150611f9f83611877565b9250828203905081811115611fb757611fb6611c5e565b5b92915050565b7f6572726f72303700000000000000000000000000000000000000000000000000600082015250565b6000611ff3600783611cff565b9150611ffe82611fbd565b602082019050919050565b6000602082019050818103600083015261202281611fe6565b9050919050565b600081905092915050565b600061203f826117c5565b6120498185612029565b93506120598185602086016117e1565b80840191505092915050565b60006120718284612034565b915081905092915050565b600061208782611877565b91506000820361209a57612099611c5e565b5b60018203905091905056fea2646970667358221220f78abf201b50f876152396bf999ad22cfcf36a1f91e45487dc3a1edccfa8505564736f6c63430008120033",
					"opcodes": "PUSH1 0x80 PUSH1 0x40 MSTORE CALLVALUE DUP1 ISZERO PUSH2 0x10 JUMPI PUSH1 0x0 DUP1 REVERT JUMPDEST POP PUSH2 0x20DB DUP1 PUSH2 0x20 PUSH1 0x0 CODECOPY PUSH1 0x0 RETURN INVALID PUSH1 0x80 PUSH1 0x40 MSTORE PUSH1 0x4 CALLDATASIZE LT PUSH2 0xDD JUMPI PUSH1 0x0 CALLDATALOAD PUSH1 0xE0 SHR DUP1 PUSH4 0x694E80C3 GT PUSH2 0x7F JUMPI DUP1 PUSH4 0xC0F0B3F1 GT PUSH2 0x59 JUMPI DUP1 PUSH4 0xC0F0B3F1 EQ PUSH2 0x2BE JUMPI DUP1 PUSH4 0xD6D2B6BA EQ PUSH2 0x2E7 JUMPI DUP1 PUSH4 0xEF11783C EQ PUSH2 0x303 JUMPI DUP1 PUSH4 0xFF87578C EQ PUSH2 0x340 JUMPI PUSH2 0xDD JUMP JUMPDEST DUP1 PUSH4 0x694E80C3 EQ PUSH2 0x241 JUMPI DUP1 PUSH4 0x81244E5D EQ PUSH2 0x26A JUMPI DUP1 PUSH4 0xA0E1ACE8 EQ PUSH2 0x295 JUMPI PUSH2 0xDD JUMP JUMPDEST DUP1 PUSH4 0xC546204 GT PUSH2 0xBB JUMPI DUP1 PUSH4 0xC546204 EQ PUSH2 0x175 JUMPI DUP1 PUSH4 0x54910298 EQ PUSH2 0x19E JUMPI DUP1 PUSH4 0x5CE7FA2D EQ PUSH2 0x1DB JUMPI DUP1 PUSH4 0x6876A95E EQ PUSH2 0x204 JUMPI PUSH2 0xDD JUMP JUMPDEST DUP1 PUSH4 0x29C81E3 EQ PUSH2 0xE2 JUMPI DUP1 PUSH4 0xA3B0A4F EQ PUSH2 0x10D JUMPI DUP1 PUSH4 0xC3DFC1A EQ PUSH2 0x14A JUMPI JUMPDEST PUSH1 0x0 DUP1 REVERT JUMPDEST CALLVALUE DUP1 ISZERO PUSH2 0xEE JUMPI PUSH1 0x0 DUP1 REVERT JUMPDEST POP PUSH2 0xF7 PUSH2 0x37D JUMP JUMPDEST PUSH1 0x40 MLOAD PUSH2 0x104 SWAP2 SWAP1 PUSH2 0x1736 JUMP JUMPDEST PUSH1 0x40 MLOAD DUP1 SWAP2 SUB SWAP1 RETURN JUMPDEST CALLVALUE DUP1 ISZERO PUSH2 0x119 JUMPI PUSH1 0x0 DUP1 REVERT JUMPDEST POP PUSH2 0x134 PUSH1 0x4 DUP1 CALLDATASIZE SUB DUP2 ADD SWAP1 PUSH2 0x12F SWAP2 SWAP1 PUSH2 0x1798 JUMP JUMPDEST PUSH2 0x4D0 JUMP JUMPDEST PUSH1 0x40 MLOAD PUSH2 0x141 SWAP2 SWAP1 PUSH2 0x1855 JUMP JUMPDEST PUSH1 0x40 MLOAD DUP1 SWAP2 SUB SWAP1 RETURN JUMPDEST CALLVALUE DUP1 ISZERO PUSH2 0x156 JUMPI PUSH1 0x0 DUP1 REVERT JUMPDEST POP PUSH2 0x15F PUSH2 0x568 JUMP JUMPDEST PUSH1 0x40 MLOAD PUSH2 0x16C SWAP2 SWAP1 PUSH2 0x1890 JUMP JUMPDEST PUSH1 0x40 MLOAD DUP1 SWAP2 SUB SWAP1 RETURN JUMPDEST CALLVALUE DUP1 ISZERO PUSH2 0x181 JUMPI PUSH1 0x0 DUP1 REVERT JUMPDEST POP PUSH2 0x19C PUSH1 0x4 DUP1 CALLDATASIZE SUB DUP2 ADD SWAP1 PUSH2 0x197 SWAP2 SWAP1 PUSH2 0x18D7 JUMP JUMPDEST PUSH2 0x56E JUMP JUMPDEST STOP JUMPDEST CALLVALUE DUP1 ISZERO PUSH2 0x1AA JUMPI PUSH1 0x0 DUP1 REVERT JUMPDEST POP PUSH2 0x1C5 PUSH1 0x4 DUP1 CALLDATASIZE SUB DUP2 ADD SWAP1 PUSH2 0x1C0 SWAP2 SWAP1 PUSH2 0x18D7 JUMP JUMPDEST PUSH2 0x721 JUMP JUMPDEST PUSH1 0x40 MLOAD PUSH2 0x1D2 SWAP2 SWAP1 PUSH2 0x1855 JUMP JUMPDEST PUSH1 0x40 MLOAD DUP1 SWAP2 SUB SWAP1 RETURN JUMPDEST CALLVALUE DUP1 ISZERO PUSH2 0x1E7 JUMPI PUSH1 0x0 DUP1 REVERT JUMPDEST POP PUSH2 0x202 PUSH1 0x4 DUP1 CALLDATASIZE SUB DUP2 ADD SWAP1 PUSH2 0x1FD SWAP2 SWAP1 PUSH2 0x1798 JUMP JUMPDEST PUSH2 0x7BC JUMP JUMPDEST STOP JUMPDEST CALLVALUE DUP1 ISZERO PUSH2 0x210 JUMPI PUSH1 0x0 DUP1 REVERT JUMPDEST POP PUSH2 0x22B PUSH1 0x4 DUP1 CALLDATASIZE SUB DUP2 ADD SWAP1 PUSH2 0x226 SWAP2 SWAP1 PUSH2 0x1917 JUMP JUMPDEST PUSH2 0xA04 JUMP JUMPDEST PUSH1 0x40 MLOAD PUSH2 0x238 SWAP2 SWAP1 PUSH2 0x1855 JUMP JUMPDEST PUSH1 0x40 MLOAD DUP1 SWAP2 SUB SWAP1 RETURN JUMPDEST CALLVALUE DUP1 ISZERO PUSH2 0x24D JUMPI PUSH1 0x0 DUP1 REVERT JUMPDEST POP PUSH2 0x268 PUSH1 0x4 DUP1 CALLDATASIZE SUB DUP2 ADD SWAP1 PUSH2 0x263 SWAP2 SWAP1 PUSH2 0x1917 JUMP JUMPDEST PUSH2 0xA9C JUMP JUMPDEST STOP JUMPDEST CALLVALUE DUP1 ISZERO PUSH2 0x276 JUMPI PUSH1 0x0 DUP1 REVERT JUMPDEST POP PUSH2 0x27F PUSH2 0xBD6 JUMP JUMPDEST PUSH1 0x40 MLOAD PUSH2 0x28C SWAP2 SWAP1 PUSH2 0x1890 JUMP JUMPDEST PUSH1 0x40 MLOAD DUP1 SWAP2 SUB SWAP1 RETURN JUMPDEST CALLVALUE DUP1 ISZERO PUSH2 0x2A1 JUMPI PUSH1 0x0 DUP1 REVERT JUMPDEST POP PUSH2 0x2BC PUSH1 0x4 DUP1 CALLDATASIZE SUB DUP2 ADD SWAP1 PUSH2 0x2B7 SWAP2 SWAP1 PUSH2 0x1A8C JUMP JUMPDEST PUSH2 0xBE0 JUMP JUMPDEST STOP JUMPDEST CALLVALUE DUP1 ISZERO PUSH2 0x2CA JUMPI PUSH1 0x0 DUP1 REVERT JUMPDEST POP PUSH2 0x2E5 PUSH1 0x4 DUP1 CALLDATASIZE SUB DUP2 ADD SWAP1 PUSH2 0x2E0 SWAP2 SWAP1 PUSH2 0x18D7 JUMP JUMPDEST PUSH2 0xDCD JUMP JUMPDEST STOP JUMPDEST PUSH2 0x301 PUSH1 0x4 DUP1 CALLDATASIZE SUB DUP2 ADD SWAP1 PUSH2 0x2FC SWAP2 SWAP1 PUSH2 0x1B9D JUMP JUMPDEST PUSH2 0xF37 JUMP JUMPDEST STOP JUMPDEST CALLVALUE DUP1 ISZERO PUSH2 0x30F JUMPI PUSH1 0x0 DUP1 REVERT JUMPDEST POP PUSH2 0x32A PUSH1 0x4 DUP1 CALLDATASIZE SUB DUP2 ADD SWAP1 PUSH2 0x325 SWAP2 SWAP1 PUSH2 0x1798 JUMP JUMPDEST PUSH2 0xFAB JUMP JUMPDEST PUSH1 0x40 MLOAD PUSH2 0x337 SWAP2 SWAP1 PUSH2 0x1C14 JUMP JUMPDEST PUSH1 0x40 MLOAD DUP1 SWAP2 SUB SWAP1 RETURN JUMPDEST CALLVALUE DUP1 ISZERO PUSH2 0x34C JUMPI PUSH1 0x0 DUP1 REVERT JUMPDEST POP PUSH2 0x367 PUSH1 0x4 DUP1 CALLDATASIZE SUB DUP2 ADD SWAP1 PUSH2 0x362 SWAP2 SWAP1 PUSH2 0x18D7 JUMP JUMPDEST PUSH2 0x1105 JUMP JUMPDEST PUSH1 0x40 MLOAD PUSH2 0x374 SWAP2 SWAP1 PUSH2 0x1855 JUMP JUMPDEST PUSH1 0x40 MLOAD DUP1 SWAP2 SUB SWAP1 RETURN JUMPDEST PUSH1 0x60 PUSH1 0x0 DUP1 SLOAD PUSH8 0xFFFFFFFFFFFFFFFF DUP2 GT ISZERO PUSH2 0x39C JUMPI PUSH2 0x39B PUSH2 0x1949 JUMP JUMPDEST JUMPDEST PUSH1 0x40 MLOAD SWAP1 DUP1 DUP3 MSTORE DUP1 PUSH1 0x20 MUL PUSH1 0x20 ADD DUP3 ADD PUSH1 0x40 MSTORE DUP1 ISZERO PUSH2 0x3CA JUMPI DUP2 PUSH1 0x20 ADD PUSH1 0x20 DUP3 MUL DUP1 CALLDATASIZE DUP4 CALLDATACOPY DUP1 DUP3 ADD SWAP2 POP POP SWAP1 POP JUMPDEST POP SWAP1 POP PUSH1 0x0 PUSH1 0x2 PUSH1 0x0 PUSH1 0x1 PUSH20 0xFFFFFFFFFFFFFFFFFFFFFFFFFFFFFFFFFFFFFFFF AND PUSH20 0xFFFFFFFFFFFFFFFFFFFFFFFFFFFFFFFFFFFFFFFF AND DUP2 MSTORE PUSH1 0x20 ADD SWAP1 DUP2 MSTORE PUSH1 0x20 ADD PUSH1 0x0 KECCAK256 PUSH1 0x0 PUSH1 0x1 ISZERO ISZERO ISZERO ISZERO DUP2 MSTORE PUSH1 0x20 ADD SWAP1 DUP2 MSTORE PUSH1 0x20 ADD PUSH1 0x0 KECCAK256 PUSH1 0x0 SWAP1 SLOAD SWAP1 PUSH2 0x100 EXP SWAP1 DIV PUSH20 0xFFFFFFFFFFFFFFFFFFFFFFFFFFFFFFFFFFFFFFFF AND SWAP1 POP PUSH1 0x0 JUMPDEST PUSH1 0x0 SLOAD DUP2 LT ISZERO PUSH2 0x4C7 JUMPI DUP2 DUP4 DUP3 DUP2 MLOAD DUP2 LT PUSH2 0x469 JUMPI PUSH2 0x468 PUSH2 0x1C2F JUMP JUMPDEST JUMPDEST PUSH1 0x20 MUL PUSH1 0x20 ADD ADD SWAP1 PUSH20 0xFFFFFFFFFFFFFFFFFFFFFFFFFFFFFFFFFFFFFFFF AND SWAP1 DUP2 PUSH20 0xFFFFFFFFFFFFFFFFFFFFFFFFFFFFFFFFFFFFFFFF AND DUP2 MSTORE POP POP PUSH2 0x4AE DUP3 PUSH1 0x1 PUSH2 0x11A0 JUMP JUMPDEST SWAP1 POP DUP1 SWAP3 POP POP DUP1 DUP1 PUSH2 0x4BF SWAP1 PUSH2 0x1C8D JUMP JUMPDEST SWAP2 POP POP PUSH2 0x44B JUMP JUMPDEST DUP3 SWAP4 POP POP POP POP SWAP1 JUMP JUMPDEST PUSH1 0x60 PUSH32 0x5CE7FA2D7DF4A3B8AC1F4EDF3B55BD9DEF1EA63AD71B157BF5823B2597DD13B0 DUP3 PUSH1 0x40 MLOAD PUSH1 0x24 ADD PUSH2 0x504 SWAP2 SWAP1 PUSH2 0x1CE4 JUMP JUMPDEST PUSH1 0x40 MLOAD PUSH1 0x20 DUP2 DUP4 SUB SUB DUP2 MSTORE SWAP1 PUSH1 0x40 MSTORE SWAP1 PUSH28 0xFFFFFFFFFFFFFFFFFFFFFFFFFFFFFFFFFFFFFFFFFFFFFFFFFFFFFFFF NOT AND PUSH1 0x20 DUP3 ADD DUP1 MLOAD PUSH28 0xFFFFFFFFFFFFFFFFFFFFFFFFFFFFFFFFFFFFFFFFFFFFFFFFFFFFFFFF DUP4 DUP2 DUP4 AND OR DUP4 MSTORE POP POP POP POP SWAP1 POP SWAP2 SWAP1 POP JUMP JUMPDEST PUSH1 0x0 SLOAD DUP2 JUMP JUMPDEST ADDRESS PUSH20 0xFFFFFFFFFFFFFFFFFFFFFFFFFFFFFFFFFFFFFFFF AND CALLER PUSH20 0xFFFFFFFFFFFFFFFFFFFFFFFFFFFFFFFFFFFFFFFF AND EQ PUSH2 0x5DC JUMPI PUSH1 0x40 MLOAD PUSH32 0x8C379A000000000000000000000000000000000000000000000000000000000 DUP2 MSTORE PUSH1 0x4 ADD PUSH2 0x5D3 SWAP1 PUSH2 0x1D5C JUMP JUMPDEST PUSH1 0x40 MLOAD DUP1 SWAP2 SUB SWAP1 REVERT JUMPDEST DUP1 PUSH1 0x1 PUSH1 0x0 SLOAD PUSH2 0x5EC SWAP2 SWAP1 PUSH2 0x1D7C JUMP JUMPDEST LT ISZERO DUP1 ISZERO PUSH2 0x5FB JUMPI POP PUSH1 0x0 DUP2 LT ISZERO JUMPDEST PUSH2 0x604 JUMPI PUSH1 0x0 DUP1 REVERT JUMPDEST PUSH1 0x0 PUSH20 0xFFFFFFFFFFFFFFFFFFFFFFFFFFFFFFFFFFFFFFFF AND DUP3 PUSH20 0xFFFFFFFFFFFFFFFFFFFFFFFFFFFFFFFFFFFFFFFF AND EQ ISZERO DUP1 ISZERO PUSH2 0x66D JUMPI POP ADDRESS PUSH20 0xFFFFFFFFFFFFFFFFFFFFFFFFFFFFFFFFFFFFFFFF AND DUP3 PUSH20 0xFFFFFFFFFFFFFFFFFFFFFFFFFFFFFFFFFFFFFFFF AND EQ ISZERO JUMPDEST DUP1 ISZERO PUSH2 0x67F JUMPI POP PUSH2 0x67D DUP3 PUSH2 0xFAB JUMP JUMPDEST ISZERO JUMPDEST PUSH2 0x6BE JUMPI PUSH1 0x40 MLOAD PUSH32 0x8C379A000000000000000000000000000000000000000000000000000000000 DUP2 MSTORE PUSH1 0x4 ADD PUSH2 0x6B5 SWAP1 PUSH2 0x1DFC JUMP JUMPDEST PUSH1 0x40 MLOAD DUP1 SWAP2 SUB SWAP1 REVERT JUMPDEST PUSH2 0x6C7 DUP3 PUSH2 0x7BC JUMP JUMPDEST DUP2 PUSH20 0xFFFFFFFFFFFFFFFFFFFFFFFFFFFFFFFFFFFFFFFF AND PUSH32 0xAC1E9EF41B54C676CCF449D83AE6F2624BCDCE8F5B93A6B48CE95874C332693D PUSH1 0x40 MLOAD PUSH1 0x40 MLOAD DUP1 SWAP2 SUB SWAP1 LOG2 PUSH1 0x1 SLOAD DUP2 EQ PUSH2 0x71D JUMPI PUSH2 0x71C DUP2 PUSH2 0xA9C JUMP JUMPDEST JUMPDEST POP POP JUMP JUMPDEST PUSH1 0x60 PUSH32 0x5CB963AE197A87311B65F828DE4C1673C22D6AC1A28AA681CFEB35B1FF025D7A DUP4 DUP4 PUSH1 0x40 MLOAD PUSH1 0x24 ADD PUSH2 0x757 SWAP3 SWAP2 SWAP1 PUSH2 0x1E1C JUMP JUMPDEST PUSH1 0x40 MLOAD PUSH1 0x20 DUP2 DUP4 SUB SUB DUP2 MSTORE SWAP1 PUSH1 0x40 MSTORE SWAP1 PUSH28 0xFFFFFFFFFFFFFFFFFFFFFFFFFFFFFFFFFFFFFFFFFFFFFFFFFFFFFFFF NOT AND PUSH1 0x20 DUP3 ADD DUP1 MLOAD PUSH28 0xFFFFFFFFFFFFFFFFFFFFFFFFFFFFFFFFFFFFFFFFFFFFFFFFFFFFFFFF DUP4 DUP2 DUP4 AND OR DUP4 MSTORE POP POP POP POP SWAP1 POP SWAP3 SWAP2 POP POP JUMP JUMPDEST PUSH1 0x0 PUSH20 0xFFFFFFFFFFFFFFFFFFFFFFFFFFFFFFFFFFFFFFFF AND DUP2 PUSH20 0xFFFFFFFFFFFFFFFFFFFFFFFFFFFFFFFFFFFFFFFF AND EQ ISZERO DUP1 ISZERO PUSH2 0x825 JUMPI POP ADDRESS PUSH20 0xFFFFFFFFFFFFFFFFFFFFFFFFFFFFFFFFFFFFFFFF AND DUP2 PUSH20 0xFFFFFFFFFFFFFFFFFFFFFFFFFFFFFFFFFFFFFFFF AND EQ ISZERO JUMPDEST DUP1 ISZERO PUSH2 0x837 JUMPI POP PUSH2 0x835 DUP2 PUSH2 0xFAB JUMP JUMPDEST ISZERO JUMPDEST PUSH2 0x876 JUMPI PUSH1 0x40 MLOAD PUSH32 0x8C379A000000000000000000000000000000000000000000000000000000000 DUP2 MSTORE PUSH1 0x4 ADD PUSH2 0x86D SWAP1 PUSH2 0x1DFC JUMP JUMPDEST PUSH1 0x40 MLOAD DUP1 SWAP2 SUB SWAP1 REVERT JUMPDEST PUSH1 0x0 PUSH1 0x1 SWAP1 POP PUSH1 0x0 PUSH2 0x889 DUP3 PUSH1 0x1 PUSH2 0x11A0 JUMP JUMPDEST SWAP1 POP DUP1 SWAP2 POP POP JUMPDEST PUSH1 0x0 PUSH20 0xFFFFFFFFFFFFFFFFFFFFFFFFFFFFFFFFFFFFFFFF AND DUP2 PUSH20 0xFFFFFFFFFFFFFFFFFFFFFFFFFFFFFFFFFFFFFFFF AND EQ PUSH2 0x9A7 JUMPI DUP3 PUSH20 0xFFFFFFFFFFFFFFFFFFFFFFFFFFFFFFFFFFFFFFFF AND DUP2 PUSH20 0xFFFFFFFFFFFFFFFFFFFFFFFFFFFFFFFFFFFFFFFF AND GT DUP1 ISZERO PUSH2 0x92A JUMPI POP DUP3 PUSH20 0xFFFFFFFFFFFFFFFFFFFFFFFFFFFFFFFFFFFFFFFF AND DUP3 PUSH20 0xFFFFFFFFFFFFFFFFFFFFFFFFFFFFFFFFFFFFFFFF AND LT JUMPDEST ISZERO PUSH2 0x940 JUMPI PUSH2 0x93B DUP3 DUP5 PUSH1 0x1 PUSH2 0x123F JUMP JUMPDEST PUSH2 0x9A7 JUMP JUMPDEST DUP3 PUSH20 0xFFFFFFFFFFFFFFFFFFFFFFFFFFFFFFFFFFFFFFFF AND DUP2 PUSH20 0xFFFFFFFFFFFFFFFFFFFFFFFFFFFFFFFFFFFFFFFF AND GT ISZERO PUSH2 0x98D JUMPI DUP2 SWAP1 POP PUSH2 0x982 DUP3 PUSH1 0x0 PUSH2 0x11A0 JUMP JUMPDEST SWAP1 POP DUP1 SWAP3 POP POP PUSH2 0x9A2 JUMP JUMPDEST DUP1 SWAP2 POP PUSH2 0x99B DUP2 PUSH1 0x1 PUSH2 0x11A0 JUMP JUMPDEST SWAP1 POP DUP1 SWAP2 POP POP JUMPDEST PUSH2 0x890 JUMP JUMPDEST PUSH1 0x0 PUSH20 0xFFFFFFFFFFFFFFFFFFFFFFFFFFFFFFFFFFFFFFFF AND DUP2 PUSH20 0xFFFFFFFFFFFFFFFFFFFFFFFFFFFFFFFFFFFFFFFF AND SUB PUSH2 0x9E8 JUMPI PUSH2 0x9E7 DUP3 DUP5 PUSH1 0x1 PUSH2 0x123F JUMP JUMPDEST JUMPDEST PUSH1 0x0 DUP1 DUP2 SLOAD DUP1 SWAP3 SWAP2 SWAP1 PUSH2 0x9FA SWAP1 PUSH2 0x1C8D JUMP JUMPDEST SWAP2 SWAP1 POP SSTORE POP POP POP POP JUMP JUMPDEST PUSH1 0x60 PUSH32 0x694E80C37192D74D6099F3D3B41506932AB644A24442EE51857CFEB9EB01AC2F DUP3 PUSH1 0x40 MLOAD PUSH1 0x24 ADD PUSH2 0xA38 SWAP2 SWAP1 PUSH2 0x1890 JUMP JUMPDEST PUSH1 0x40 MLOAD PUSH1 0x20 DUP2 DUP4 SUB SUB DUP2 MSTORE SWAP1 PUSH1 0x40 MSTORE SWAP1 PUSH28 0xFFFFFFFFFFFFFFFFFFFFFFFFFFFFFFFFFFFFFFFFFFFFFFFFFFFFFFFF NOT AND PUSH1 0x20 DUP3 ADD DUP1 MLOAD PUSH28 0xFFFFFFFFFFFFFFFFFFFFFFFFFFFFFFFFFFFFFFFFFFFFFFFFFFFFFFFF DUP4 DUP2 DUP4 AND OR DUP4 MSTORE POP POP POP POP SWAP1 POP SWAP2 SWAP1 POP JUMP JUMPDEST ADDRESS PUSH20 0xFFFFFFFFFFFFFFFFFFFFFFFFFFFFFFFFFFFFFFFF AND CALLER PUSH20 0xFFFFFFFFFFFFFFFFFFFFFFFFFFFFFFFFFFFFFFFF AND EQ PUSH2 0xB0A JUMPI PUSH1 0x40 MLOAD PUSH32 0x8C379A000000000000000000000000000000000000000000000000000000000 DUP2 MSTORE PUSH1 0x4 ADD PUSH2 0xB01 SWAP1 PUSH2 0x1D5C JUMP JUMPDEST PUSH1 0x40 MLOAD DUP1 SWAP2 SUB SWAP1 REVERT JUMPDEST PUSH1 0x0 SLOAD DUP2 GT ISZERO PUSH2 0xB4F JUMPI PUSH1 0x40 MLOAD PUSH32 0x8C379A000000000000000000000000000000000000000000000000000000000 DUP2 MSTORE PUSH1 0x4 ADD PUSH2 0xB46 SWAP1 PUSH2 0x1E91 JUMP JUMPDEST PUSH1 0x40 MLOAD DUP1 SWAP2 SUB SWAP1 REVERT JUMPDEST PUSH1 0x1 DUP2 LT ISZERO PUSH2 0xB93 JUMPI PUSH1 0x40 MLOAD PUSH32 0x8C379A000000000000000000000000000000000000000000000000000000000 DUP2 MSTORE PUSH1 0x4 ADD PUSH2 0xB8A SWAP1 PUSH2 0x1EFD JUMP JUMPDEST PUSH1 0x40 MLOAD DUP1 SWAP2 SUB SWAP1 REVERT JUMPDEST DUP1 PUSH1 0x1 DUP2 SWAP1 SSTORE POP PUSH32 0x9947AC58E204D2DA07B9748298663B3B77DA7FB0638201D778987DED7C90FBAA PUSH1 0x1 SLOAD PUSH1 0x40 MLOAD PUSH2 0xBCB SWAP2 SWAP1 PUSH2 0x1890 JUMP JUMPDEST PUSH1 0x40 MLOAD DUP1 SWAP2 SUB SWAP1 LOG1 POP JUMP JUMPDEST PUSH1 0x0 PUSH1 0x1 SLOAD SWAP1 POP SWAP1 JUMP JUMPDEST PUSH1 0x0 PUSH1 0x1 SLOAD EQ PUSH2 0xC25 JUMPI PUSH1 0x40 MLOAD PUSH32 0x8C379A000000000000000000000000000000000000000000000000000000000 DUP2 MSTORE PUSH1 0x4 ADD PUSH2 0xC1C SWAP1 PUSH2 0x1F69 JUMP JUMPDEST PUSH1 0x40 MLOAD DUP1 SWAP2 SUB SWAP1 REVERT JUMPDEST DUP2 MLOAD DUP2 GT ISZERO PUSH2 0xC69 JUMPI PUSH1 0x40 MLOAD PUSH32 0x8C379A000000000000000000000000000000000000000000000000000000000 DUP2 MSTORE PUSH1 0x4 ADD PUSH2 0xC60 SWAP1 PUSH2 0x1E91 JUMP JUMPDEST PUSH1 0x40 MLOAD DUP1 SWAP2 SUB SWAP1 REVERT JUMPDEST PUSH1 0x1 DUP2 LT ISZERO PUSH2 0xCAD JUMPI PUSH1 0x40 MLOAD PUSH32 0x8C379A000000000000000000000000000000000000000000000000000000000 DUP2 MSTORE PUSH1 0x4 ADD PUSH2 0xCA4 SWAP1 PUSH2 0x1EFD JUMP JUMPDEST PUSH1 0x40 MLOAD DUP1 SWAP2 SUB SWAP1 REVERT JUMPDEST PUSH1 0x0 PUSH1 0x1 SWAP1 POP PUSH1 0x0 JUMPDEST DUP4 MLOAD DUP2 LT ISZERO PUSH2 0xDB8 JUMPI PUSH1 0x0 DUP5 DUP3 DUP2 MLOAD DUP2 LT PUSH2 0xCD4 JUMPI PUSH2 0xCD3 PUSH2 0x1C2F JUMP JUMPDEST JUMPDEST PUSH1 0x20 MUL PUSH1 0x20 ADD ADD MLOAD SWAP1 POP PUSH1 0x0 PUSH20 0xFFFFFFFFFFFFFFFFFFFFFFFFFFFFFFFFFFFFFFFF AND DUP2 PUSH20 0xFFFFFFFFFFFFFFFFFFFFFFFFFFFFFFFFFFFFFFFF AND EQ ISZERO DUP1 ISZERO PUSH2 0xD47 JUMPI POP ADDRESS PUSH20 0xFFFFFFFFFFFFFFFFFFFFFFFFFFFFFFFFFFFFFFFF AND DUP2 PUSH20 0xFFFFFFFFFFFFFFFFFFFFFFFFFFFFFFFFFFFFFFFF AND EQ ISZERO JUMPDEST DUP1 ISZERO PUSH2 0xD59 JUMPI POP PUSH2 0xD57 DUP2 PUSH2 0xFAB JUMP JUMPDEST ISZERO JUMPDEST PUSH2 0xD98 JUMPI PUSH1 0x40 MLOAD PUSH32 0x8C379A000000000000000000000000000000000000000000000000000000000 DUP2 MSTORE PUSH1 0x4 ADD PUSH2 0xD8F SWAP1 PUSH2 0x1DFC JUMP JUMPDEST PUSH1 0x40 MLOAD DUP1 SWAP2 SUB SWAP1 REVERT JUMPDEST PUSH2 0xDA1 DUP2 PUSH2 0x7BC JUMP JUMPDEST DUP1 SWAP3 POP POP DUP1 DUP1 PUSH2 0xDB0 SWAP1 PUSH2 0x1C8D JUMP JUMPDEST SWAP2 POP POP PUSH2 0xCB6 JUMP JUMPDEST POP DUP2 PUSH1 0x1 DUP2 SWAP1 SSTORE POP DUP3 MLOAD PUSH1 0x0 DUP2 SWAP1 SSTORE POP POP POP POP JUMP JUMPDEST ADDRESS PUSH20 0xFFFFFFFFFFFFFFFFFFFFFFFFFFFFFFFFFFFFFFFF AND CALLER PUSH20 0xFFFFFFFFFFFFFFFFFFFFFFFFFFFFFFFFFFFFFFFF AND EQ PUSH2 0xE3B JUMPI PUSH1 0x40 MLOAD PUSH32 0x8C379A000000000000000000000000000000000000000000000000000000000 DUP2 MSTORE PUSH1 0x4 ADD PUSH2 0xE32 SWAP1 PUSH2 0x1D5C JUMP JUMPDEST PUSH1 0x40 MLOAD DUP1 SWAP2 SUB SWAP1 REVERT JUMPDEST DUP1 PUSH1 0x1 PUSH1 0x0 SLOAD PUSH2 0xE4B SWAP2 SWAP1 PUSH2 0x1F89 JUMP JUMPDEST LT ISZERO PUSH2 0xE8C JUMPI PUSH1 0x40 MLOAD PUSH32 0x8C379A000000000000000000000000000000000000000000000000000000000 DUP2 MSTORE PUSH1 0x4 ADD PUSH2 0xE83 SWAP1 PUSH2 0x1E91 JUMP JUMPDEST PUSH1 0x40 MLOAD DUP1 SWAP2 SUB SWAP1 REVERT JUMPDEST PUSH2 0xE95 DUP3 PUSH2 0xFAB JUMP JUMPDEST PUSH2 0xED4 JUMPI PUSH1 0x40 MLOAD PUSH32 0x8C379A000000000000000000000000000000000000000000000000000000000 DUP2 MSTORE PUSH1 0x4 ADD PUSH2 0xECB SWAP1 PUSH2 0x2009 JUMP JUMPDEST PUSH1 0x40 MLOAD DUP1 SWAP2 SUB SWAP1 REVERT JUMPDEST PUSH2 0xEDD DUP3 PUSH2 0x12D4 JUMP JUMPDEST DUP2 PUSH20 0xFFFFFFFFFFFFFFFFFFFFFFFFFFFFFFFFFFFFFFFF AND PUSH32 0xAC6E8398676CF37429D530B81144D7079E99F4FE9D28B0D88C4A749CECCBE8CD PUSH1 0x40 MLOAD PUSH1 0x40 MLOAD DUP1 SWAP2 SUB SWAP1 LOG2 PUSH1 0x1 SLOAD DUP2 EQ PUSH2 0xF33 JUMPI PUSH2 0xF32 DUP2 PUSH2 0xA9C JUMP JUMPDEST JUMPDEST POP POP JUMP JUMPDEST PUSH1 0x0 DUP3 PUSH20 0xFFFFFFFFFFFFFFFFFFFFFFFFFFFFFFFFFFFFFFFF AND DUP3 PUSH1 0x40 MLOAD PUSH2 0xF5E SWAP2 SWAP1 PUSH2 0x2065 JUMP JUMPDEST PUSH1 0x0 PUSH1 0x40 MLOAD DUP1 DUP4 SUB DUP2 PUSH1 0x0 DUP7 GAS CALL SWAP2 POP POP RETURNDATASIZE DUP1 PUSH1 0x0 DUP2 EQ PUSH2 0xF9B JUMPI PUSH1 0x40 MLOAD SWAP2 POP PUSH1 0x1F NOT PUSH1 0x3F RETURNDATASIZE ADD AND DUP3 ADD PUSH1 0x40 MSTORE RETURNDATASIZE DUP3 MSTORE RETURNDATASIZE PUSH1 0x0 PUSH1 0x20 DUP5 ADD RETURNDATACOPY PUSH2 0xFA0 JUMP JUMPDEST PUSH1 0x60 SWAP2 POP JUMPDEST POP POP DUP1 SWAP2 POP POP POP POP POP JUMP JUMPDEST PUSH1 0x0 DUP1 PUSH20 0xFFFFFFFFFFFFFFFFFFFFFFFFFFFFFFFFFFFFFFFF AND PUSH1 0x2 PUSH1 0x0 DUP5 PUSH20 0xFFFFFFFFFFFFFFFFFFFFFFFFFFFFFFFFFFFFFFFF AND PUSH20 0xFFFFFFFFFFFFFFFFFFFFFFFFFFFFFFFFFFFFFFFF AND DUP2 MSTORE PUSH1 0x20 ADD SWAP1 DUP2 MSTORE PUSH1 0x20 ADD PUSH1 0x0 KECCAK256 PUSH1 0x0 DUP1 ISZERO ISZERO ISZERO ISZERO DUP2 MSTORE PUSH1 0x20 ADD SWAP1 DUP2 MSTORE PUSH1 0x20 ADD PUSH1 0x0 KECCAK256 PUSH1 0x0 SWAP1 SLOAD SWAP1 PUSH2 0x100 EXP SWAP1 DIV PUSH20 0xFFFFFFFFFFFFFFFFFFFFFFFFFFFFFFFFFFFFFFFF AND PUSH20 0xFFFFFFFFFFFFFFFFFFFFFFFFFFFFFFFFFFFFFFFF AND EQ ISZERO DUP1 PUSH2 0x10FE JUMPI POP PUSH1 0x0 PUSH20 0xFFFFFFFFFFFFFFFFFFFFFFFFFFFFFFFFFFFFFFFF AND PUSH1 0x2 PUSH1 0x0 DUP5 PUSH20 0xFFFFFFFFFFFFFFFFFFFFFFFFFFFFFFFFFFFFFFFF AND PUSH20 0xFFFFFFFFFFFFFFFFFFFFFFFFFFFFFFFFFFFFFFFF AND DUP2 MSTORE PUSH1 0x20 ADD SWAP1 DUP2 MSTORE PUSH1 0x20 ADD PUSH1 0x0 KECCAK256 PUSH1 0x0 PUSH1 0x1 ISZERO ISZERO ISZERO ISZERO DUP2 MSTORE PUSH1 0x20 ADD SWAP1 DUP2 MSTORE PUSH1 0x20 ADD PUSH1 0x0 KECCAK256 PUSH1 0x0 SWAP1 SLOAD SWAP1 PUSH2 0x100 EXP SWAP1 DIV PUSH20 0xFFFFFFFFFFFFFFFFFFFFFFFFFFFFFFFFFFFFFFFF AND PUSH20 0xFFFFFFFFFFFFFFFFFFFFFFFFFFFFFFFFFFFFFFFF AND EQ ISZERO JUMPDEST SWAP1 POP SWAP2 SWAP1 POP JUMP JUMPDEST PUSH1 0x60 PUSH32 0xF6FD209BA0161ACFD0F4D4FA947B5907845ED1E66071E030BE54BA4C310C5A6 DUP4 DUP4 PUSH1 0x40 MLOAD PUSH1 0x24 ADD PUSH2 0x113B SWAP3 SWAP2 SWAP1 PUSH2 0x1E1C JUMP JUMPDEST PUSH1 0x40 MLOAD PUSH1 0x20 DUP2 DUP4 SUB SUB DUP2 MSTORE SWAP1 PUSH1 0x40 MSTORE SWAP1 PUSH28 0xFFFFFFFFFFFFFFFFFFFFFFFFFFFFFFFFFFFFFFFFFFFFFFFFFFFFFFFF NOT AND PUSH1 0x20 DUP3 ADD DUP1 MLOAD PUSH28 0xFFFFFFFFFFFFFFFFFFFFFFFFFFFFFFFFFFFFFFFFFFFFFFFFFFFFFFFF DUP4 DUP2 DUP4 AND OR DUP4 MSTORE POP POP POP POP SWAP1 POP SWAP3 SWAP2 POP POP JUMP JUMPDEST PUSH1 0x0 DUP1 PUSH2 0x11AC DUP5 PUSH2 0xFAB JUMP JUMPDEST PUSH2 0x11BC JUMPI PUSH1 0x0 DUP1 SWAP2 POP SWAP2 POP PUSH2 0x1238 JUMP JUMPDEST PUSH1 0x1 PUSH1 0x2 PUSH1 0x0 DUP7 PUSH20 0xFFFFFFFFFFFFFFFFFFFFFFFFFFFFFFFFFFFFFFFF AND PUSH20 0xFFFFFFFFFFFFFFFFFFFFFFFFFFFFFFFFFFFFFFFF AND DUP2 MSTORE PUSH1 0x20 ADD SWAP1 DUP2 MSTORE PUSH1 0x20 ADD PUSH1 0x0 KECCAK256 PUSH1 0x0 DUP6 ISZERO ISZERO ISZERO ISZERO DUP2 MSTORE PUSH1 0x20 ADD SWAP1 DUP2 MSTORE PUSH1 0x20 ADD PUSH1 0x0 KECCAK256 PUSH1 0x0 SWAP1 SLOAD SWAP1 PUSH2 0x100 EXP SWAP1 DIV PUSH20 0xFFFFFFFFFFFFFFFFFFFFFFFFFFFFFFFFFFFFFFFF AND SWAP2 POP SWAP2 POP JUMPDEST SWAP3 POP SWAP3 SWAP1 POP JUMP JUMPDEST PUSH1 0x0 PUSH1 0x2 PUSH1 0x0 DUP6 PUSH20 0xFFFFFFFFFFFFFFFFFFFFFFFFFFFFFFFFFFFFFFFF AND PUSH20 0xFFFFFFFFFFFFFFFFFFFFFFFFFFFFFFFFFFFFFFFF AND DUP2 MSTORE PUSH1 0x20 ADD SWAP1 DUP2 MSTORE PUSH1 0x20 ADD PUSH1 0x0 KECCAK256 PUSH1 0x0 DUP4 ISZERO ISZERO ISZERO ISZERO DUP2 MSTORE PUSH1 0x20 ADD SWAP1 DUP2 MSTORE PUSH1 0x20 ADD PUSH1 0x0 KECCAK256 PUSH1 0x0 SWAP1 SLOAD SWAP1 PUSH2 0x100 EXP SWAP1 DIV PUSH20 0xFFFFFFFFFFFFFFFFFFFFFFFFFFFFFFFFFFFFFFFF AND SWAP1 POP PUSH2 0x12C3 DUP5 DUP5 DUP5 PUSH2 0x151A JUMP JUMPDEST PUSH2 0x12CE DUP4 DUP3 DUP5 PUSH2 0x151A JUMP JUMPDEST POP POP POP POP JUMP JUMPDEST PUSH2 0x12DD DUP2 PUSH2 0xFAB JUMP JUMPDEST PUSH2 0x131C JUMPI PUSH1 0x40 MLOAD PUSH32 0x8C379A000000000000000000000000000000000000000000000000000000000 DUP2 MSTORE PUSH1 0x4 ADD PUSH2 0x1313 SWAP1 PUSH2 0x2009 JUMP JUMPDEST PUSH1 0x40 MLOAD DUP1 SWAP2 SUB SWAP1 REVERT JUMPDEST PUSH2 0x1411 PUSH1 0x2 PUSH1 0x0 DUP4 PUSH20 0xFFFFFFFFFFFFFFFFFFFFFFFFFFFFFFFFFFFFFFFF AND PUSH20 0xFFFFFFFFFFFFFFFFFFFFFFFFFFFFFFFFFFFFFFFF AND DUP2 MSTORE PUSH1 0x20 ADD SWAP1 DUP2 MSTORE PUSH1 0x20 ADD PUSH1 0x0 KECCAK256 PUSH1 0x0 DUP1 ISZERO ISZERO ISZERO ISZERO DUP2 MSTORE PUSH1 0x20 ADD SWAP1 DUP2 MSTORE PUSH1 0x20 ADD PUSH1 0x0 KECCAK256 PUSH1 0x0 SWAP1 SLOAD SWAP1 PUSH2 0x100 EXP SWAP1 DIV PUSH20 0xFFFFFFFFFFFFFFFFFFFFFFFFFFFFFFFFFFFFFFFF AND PUSH1 0x2 PUSH1 0x0 DUP5 PUSH20 0xFFFFFFFFFFFFFFFFFFFFFFFFFFFFFFFFFFFFFFFF AND PUSH20 0xFFFFFFFFFFFFFFFFFFFFFFFFFFFFFFFFFFFFFFFF AND DUP2 MSTORE PUSH1 0x20 ADD SWAP1 DUP2 MSTORE PUSH1 0x20 ADD PUSH1 0x0 KECCAK256 PUSH1 0x0 PUSH1 0x1 ISZERO ISZERO ISZERO ISZERO DUP2 MSTORE PUSH1 0x20 ADD SWAP1 DUP2 MSTORE PUSH1 0x20 ADD PUSH1 0x0 KECCAK256 PUSH1 0x0 SWAP1 SLOAD SWAP1 PUSH2 0x100 EXP SWAP1 DIV PUSH20 0xFFFFFFFFFFFFFFFFFFFFFFFFFFFFFFFFFFFFFFFF AND PUSH1 0x1 PUSH2 0x151A JUMP JUMPDEST PUSH1 0x2 PUSH1 0x0 DUP3 PUSH20 0xFFFFFFFFFFFFFFFFFFFFFFFFFFFFFFFFFFFFFFFF AND PUSH20 0xFFFFFFFFFFFFFFFFFFFFFFFFFFFFFFFFFFFFFFFF AND DUP2 MSTORE PUSH1 0x20 ADD SWAP1 DUP2 MSTORE PUSH1 0x20 ADD PUSH1 0x0 KECCAK256 PUSH1 0x0 DUP1 ISZERO ISZERO ISZERO ISZERO DUP2 MSTORE PUSH1 0x20 ADD SWAP1 DUP2 MSTORE PUSH1 0x20 ADD PUSH1 0x0 KECCAK256 PUSH1 0x0 PUSH2 0x100 EXP DUP2 SLOAD SWAP1 PUSH20 0xFFFFFFFFFFFFFFFFFFFFFFFFFFFFFFFFFFFFFFFF MUL NOT AND SWAP1 SSTORE PUSH1 0x2 PUSH1 0x0 DUP3 PUSH20 0xFFFFFFFFFFFFFFFFFFFFFFFFFFFFFFFFFFFFFFFF AND PUSH20 0xFFFFFFFFFFFFFFFFFFFFFFFFFFFFFFFFFFFFFFFF AND DUP2 MSTORE PUSH1 0x20 ADD SWAP1 DUP2 MSTORE PUSH1 0x20 ADD PUSH1 0x0 KECCAK256 PUSH1 0x0 PUSH1 0x1 ISZERO ISZERO ISZERO ISZERO DUP2 MSTORE PUSH1 0x20 ADD SWAP1 DUP2 MSTORE PUSH1 0x20 ADD PUSH1 0x0 KECCAK256 PUSH1 0x0 PUSH2 0x100 EXP DUP2 SLOAD SWAP1 PUSH20 0xFFFFFFFFFFFFFFFFFFFFFFFFFFFFFFFFFFFFFFFF MUL NOT AND SWAP1 SSTORE PUSH1 0x0 DUP1 DUP2 SLOAD DUP1 SWAP3 SWAP2 SWAP1 PUSH2 0x1512 SWAP1 PUSH2 0x207C JUMP JUMPDEST SWAP2 SWAP1 POP SSTORE POP POP JUMP JUMPDEST DUP3 PUSH1 0x2 PUSH1 0x0 DUP5 PUSH20 0xFFFFFFFFFFFFFFFFFFFFFFFFFFFFFFFFFFFFFFFF AND PUSH20 0xFFFFFFFFFFFFFFFFFFFFFFFFFFFFFFFFFFFFFFFF AND DUP2 MSTORE PUSH1 0x20 ADD SWAP1 DUP2 MSTORE PUSH1 0x20 ADD PUSH1 0x0 KECCAK256 PUSH1 0x0 DUP4 ISZERO ISZERO ISZERO ISZERO ISZERO DUP2 MSTORE PUSH1 0x20 ADD SWAP1 DUP2 MSTORE PUSH1 0x20 ADD PUSH1 0x0 KECCAK256 PUSH1 0x0 PUSH2 0x100 EXP DUP2 SLOAD DUP2 PUSH20 0xFFFFFFFFFFFFFFFFFFFFFFFFFFFFFFFFFFFFFFFF MUL NOT AND SWAP1 DUP4 PUSH20 0xFFFFFFFFFFFFFFFFFFFFFFFFFFFFFFFFFFFFFFFF AND MUL OR SWAP1 SSTORE POP DUP2 PUSH1 0x2 PUSH1 0x0 DUP6 PUSH20 0xFFFFFFFFFFFFFFFFFFFFFFFFFFFFFFFFFFFFFFFF AND PUSH20 0xFFFFFFFFFFFFFFFFFFFFFFFFFFFFFFFFFFFFFFFF AND DUP2 MSTORE PUSH1 0x20 ADD SWAP1 DUP2 MSTORE PUSH1 0x20 ADD PUSH1 0x0 KECCAK256 PUSH1 0x0 DUP4 ISZERO ISZERO ISZERO ISZERO DUP2 MSTORE PUSH1 0x20 ADD SWAP1 DUP2 MSTORE PUSH1 0x20 ADD PUSH1 0x0 KECCAK256 PUSH1 0x0 PUSH2 0x100 EXP DUP2 SLOAD DUP2 PUSH20 0xFFFFFFFFFFFFFFFFFFFFFFFFFFFFFFFFFFFFFFFF MUL NOT AND SWAP1 DUP4 PUSH20 0xFFFFFFFFFFFFFFFFFFFFFFFFFFFFFFFFFFFFFFFF AND MUL OR SWAP1 SSTORE POP POP POP POP JUMP JUMPDEST PUSH1 0x0 DUP2 MLOAD SWAP1 POP SWAP2 SWAP1 POP JUMP JUMPDEST PUSH1 0x0 DUP3 DUP3 MSTORE PUSH1 0x20 DUP3 ADD SWAP1 POP SWAP3 SWAP2 POP POP JUMP JUMPDEST PUSH1 0x0 DUP2 SWAP1 POP PUSH1 0x20 DUP3 ADD SWAP1 POP SWAP2 SWAP1 POP JUMP JUMPDEST PUSH1 0x0 PUSH20 0xFFFFFFFFFFFFFFFFFFFFFFFFFFFFFFFFFFFFFFFF DUP3 AND SWAP1 POP SWAP2 SWAP1 POP JUMP JUMPDEST PUSH1 0x0 PUSH2 0x169D DUP3 PUSH2 0x1672 JUMP JUMPDEST SWAP1 POP SWAP2 SWAP1 POP JUMP JUMPDEST PUSH2 0x16AD DUP2 PUSH2 0x1692 JUMP JUMPDEST DUP3 MSTORE POP POP JUMP JUMPDEST PUSH1 0x0 PUSH2 0x16BF DUP4 DUP4 PUSH2 0x16A4 JUMP JUMPDEST PUSH1 0x20 DUP4 ADD SWAP1 POP SWAP3 SWAP2 POP POP JUMP JUMPDEST PUSH1 0x0 PUSH1 0x20 DUP3 ADD SWAP1 POP SWAP2 SWAP1 POP JUMP JUMPDEST PUSH1 0x0 PUSH2 0x16E3 DUP3 PUSH2 0x1646 JUMP JUMPDEST PUSH2 0x16ED DUP2 DUP6 PUSH2 0x1651 JUMP JUMPDEST SWAP4 POP PUSH2 0x16F8 DUP4 PUSH2 0x1662 JUMP JUMPDEST DUP1 PUSH1 0x0 JUMPDEST DUP4 DUP2 LT ISZERO PUSH2 0x1729 JUMPI DUP2 MLOAD PUSH2 0x1710 DUP9 DUP3 PUSH2 0x16B3 JUMP JUMPDEST SWAP8 POP PUSH2 0x171B DUP4 PUSH2 0x16CB JUMP JUMPDEST SWAP3 POP POP PUSH1 0x1 DUP2 ADD SWAP1 POP PUSH2 0x16FC JUMP JUMPDEST POP DUP6 SWAP4 POP POP POP POP SWAP3 SWAP2 POP POP JUMP JUMPDEST PUSH1 0x0 PUSH1 0x20 DUP3 ADD SWAP1 POP DUP2 DUP2 SUB PUSH1 0x0 DUP4 ADD MSTORE PUSH2 0x1750 DUP2 DUP5 PUSH2 0x16D8 JUMP JUMPDEST SWAP1 POP SWAP3 SWAP2 POP POP JUMP JUMPDEST PUSH1 0x0 PUSH1 0x40 MLOAD SWAP1 POP SWAP1 JUMP JUMPDEST PUSH1 0x0 DUP1 REVERT JUMPDEST PUSH1 0x0 DUP1 REVERT JUMPDEST PUSH2 0x1775 DUP2 PUSH2 0x1692 JUMP JUMPDEST DUP2 EQ PUSH2 0x1780 JUMPI PUSH1 0x0 DUP1 REVERT JUMPDEST POP JUMP JUMPDEST PUSH1 0x0 DUP2 CALLDATALOAD SWAP1 POP PUSH2 0x1792 DUP2 PUSH2 0x176C JUMP JUMPDEST SWAP3 SWAP2 POP POP JUMP JUMPDEST PUSH1 0x0 PUSH1 0x20 DUP3 DUP5 SUB SLT ISZERO PUSH2 0x17AE JUMPI PUSH2 0x17AD PUSH2 0x1762 JUMP JUMPDEST JUMPDEST PUSH1 0x0 PUSH2 0x17BC DUP5 DUP3 DUP6 ADD PUSH2 0x1783 JUMP JUMPDEST SWAP2 POP POP SWAP3 SWAP2 POP POP JUMP JUMPDEST PUSH1 0x0 DUP2 MLOAD SWAP1 POP SWAP2 SWAP1 POP JUMP JUMPDEST PUSH1 0x0 DUP3 DUP3 MSTORE PUSH1 0x20 DUP3 ADD SWAP1 POP SWAP3 SWAP2 POP POP JUMP JUMPDEST PUSH1 0x0 JUMPDEST DUP4 DUP2 LT ISZERO PUSH2 0x17FF JUMPI DUP1 DUP3 ADD MLOAD DUP2 DUP5 ADD MSTORE PUSH1 0x20 DUP2 ADD SWAP1 POP PUSH2 0x17E4 JUMP JUMPDEST PUSH1 0x0 DUP5 DUP5 ADD MSTORE POP POP POP POP JUMP JUMPDEST PUSH1 0x0 PUSH1 0x1F NOT PUSH1 0x1F DUP4 ADD AND SWAP1 POP SWAP2 SWAP1 POP JUMP JUMPDEST PUSH1 0x0 PUSH2 0x1827 DUP3 PUSH2 0x17C5 JUMP JUMPDEST PUSH2 0x1831 DUP2 DUP6 PUSH2 0x17D0 JUMP JUMPDEST SWAP4 POP PUSH2 0x1841 DUP2 DUP6 PUSH1 0x20 DUP7 ADD PUSH2 0x17E1 JUMP JUMPDEST PUSH2 0x184A DUP2 PUSH2 0x180B JUMP JUMPDEST DUP5 ADD SWAP2 POP POP SWAP3 SWAP2 POP POP JUMP JUMPDEST PUSH1 0x0 PUSH1 0x20 DUP3 ADD SWAP1 POP DUP2 DUP2 SUB PUSH1 0x0 DUP4 ADD MSTORE PUSH2 0x186F DUP2 DUP5 PUSH2 0x181C JUMP JUMPDEST SWAP1 POP SWAP3 SWAP2 POP POP JUMP JUMPDEST PUSH1 0x0 DUP2 SWAP1 POP SWAP2 SWAP1 POP JUMP JUMPDEST PUSH2 0x188A DUP2 PUSH2 0x1877 JUMP JUMPDEST DUP3 MSTORE POP POP JUMP JUMPDEST PUSH1 0x0 PUSH1 0x20 DUP3 ADD SWAP1 POP PUSH2 0x18A5 PUSH1 0x0 DUP4 ADD DUP5 PUSH2 0x1881 JUMP JUMPDEST SWAP3 SWAP2 POP POP JUMP JUMPDEST PUSH2 0x18B4 DUP2 PUSH2 0x1877 JUMP JUMPDEST DUP2 EQ PUSH2 0x18BF JUMPI PUSH1 0x0 DUP1 REVERT JUMPDEST POP JUMP JUMPDEST PUSH1 0x0 DUP2 CALLDATALOAD SWAP1 POP PUSH2 0x18D1 DUP2 PUSH2 0x18AB JUMP JUMPDEST SWAP3 SWAP2 POP POP JUMP JUMPDEST PUSH1 0x0 DUP1 PUSH1 0x40 DUP4 DUP6 SUB SLT ISZERO PUSH2 0x18EE JUMPI PUSH2 0x18ED PUSH2 0x1762 JUMP JUMPDEST JUMPDEST PUSH1 0x0 PUSH2 0x18FC DUP6 DUP3 DUP7 ADD PUSH2 0x1783 JUMP JUMPDEST SWAP3 POP POP PUSH1 0x20 PUSH2 0x190D DUP6 DUP3 DUP7 ADD PUSH2 0x18C2 JUMP JUMPDEST SWAP2 POP POP SWAP3 POP SWAP3 SWAP1 POP JUMP JUMPDEST PUSH1 0x0 PUSH1 0x20 DUP3 DUP5 SUB SLT ISZERO PUSH2 0x192D JUMPI PUSH2 0x192C PUSH2 0x1762 JUMP JUMPDEST JUMPDEST PUSH1 0x0 PUSH2 0x193B DUP5 DUP3 DUP6 ADD PUSH2 0x18C2 JUMP JUMPDEST SWAP2 POP POP SWAP3 SWAP2 POP POP JUMP JUMPDEST PUSH1 0x0 DUP1 REVERT JUMPDEST PUSH32 0x4E487B7100000000000000000000000000000000000000000000000000000000 PUSH1 0x0 MSTORE PUSH1 0x41 PUSH1 0x4 MSTORE PUSH1 0x24 PUSH1 0x0 REVERT JUMPDEST PUSH2 0x1981 DUP3 PUSH2 0x180B JUMP JUMPDEST DUP2 ADD DUP2 DUP2 LT PUSH8 0xFFFFFFFFFFFFFFFF DUP3 GT OR ISZERO PUSH2 0x19A0 JUMPI PUSH2 0x199F PUSH2 0x1949 JUMP JUMPDEST JUMPDEST DUP1 PUSH1 0x40 MSTORE POP POP POP JUMP JUMPDEST PUSH1 0x0 PUSH2 0x19B3 PUSH2 0x1758 JUMP JUMPDEST SWAP1 POP PUSH2 0x19BF DUP3 DUP3 PUSH2 0x1978 JUMP JUMPDEST SWAP2 SWAP1 POP JUMP JUMPDEST PUSH1 0x0 PUSH8 0xFFFFFFFFFFFFFFFF DUP3 GT ISZERO PUSH2 0x19DF JUMPI PUSH2 0x19DE PUSH2 0x1949 JUMP JUMPDEST JUMPDEST PUSH1 0x20 DUP3 MUL SWAP1 POP PUSH1 0x20 DUP2 ADD SWAP1 POP SWAP2 SWAP1 POP JUMP JUMPDEST PUSH1 0x0 DUP1 REVERT JUMPDEST PUSH1 0x0 PUSH2 0x1A08 PUSH2 0x1A03 DUP5 PUSH2 0x19C4 JUMP JUMPDEST PUSH2 0x19A9 JUMP JUMPDEST SWAP1 POP DUP1 DUP4 DUP3 MSTORE PUSH1 0x20 DUP3 ADD SWAP1 POP PUSH1 0x20 DUP5 MUL DUP4 ADD DUP6 DUP2 GT ISZERO PUSH2 0x1A2B JUMPI PUSH2 0x1A2A PUSH2 0x19F0 JUMP JUMPDEST JUMPDEST DUP4 JUMPDEST DUP2 DUP2 LT ISZERO PUSH2 0x1A54 JUMPI DUP1 PUSH2 0x1A40 DUP9 DUP3 PUSH2 0x1783 JUMP JUMPDEST DUP5 MSTORE PUSH1 0x20 DUP5 ADD SWAP4 POP POP PUSH1 0x20 DUP2 ADD SWAP1 POP PUSH2 0x1A2D JUMP JUMPDEST POP POP POP SWAP4 SWAP3 POP POP POP JUMP JUMPDEST PUSH1 0x0 DUP3 PUSH1 0x1F DUP4 ADD SLT PUSH2 0x1A73 JUMPI PUSH2 0x1A72 PUSH2 0x1944 JUMP JUMPDEST JUMPDEST DUP2 CALLDATALOAD PUSH2 0x1A83 DUP5 DUP3 PUSH1 0x20 DUP7 ADD PUSH2 0x19F5 JUMP JUMPDEST SWAP2 POP POP SWAP3 SWAP2 POP POP JUMP JUMPDEST PUSH1 0x0 DUP1 PUSH1 0x40 DUP4 DUP6 SUB SLT ISZERO PUSH2 0x1AA3 JUMPI PUSH2 0x1AA2 PUSH2 0x1762 JUMP JUMPDEST JUMPDEST PUSH1 0x0 DUP4 ADD CALLDATALOAD PUSH8 0xFFFFFFFFFFFFFFFF DUP2 GT ISZERO PUSH2 0x1AC1 JUMPI PUSH2 0x1AC0 PUSH2 0x1767 JUMP JUMPDEST JUMPDEST PUSH2 0x1ACD DUP6 DUP3 DUP7 ADD PUSH2 0x1A5E JUMP JUMPDEST SWAP3 POP POP PUSH1 0x20 PUSH2 0x1ADE DUP6 DUP3 DUP7 ADD PUSH2 0x18C2 JUMP JUMPDEST SWAP2 POP POP SWAP3 POP SWAP3 SWAP1 POP JUMP JUMPDEST PUSH1 0x0 DUP1 REVERT JUMPDEST PUSH1 0x0 PUSH8 0xFFFFFFFFFFFFFFFF DUP3 GT ISZERO PUSH2 0x1B08 JUMPI PUSH2 0x1B07 PUSH2 0x1949 JUMP JUMPDEST JUMPDEST PUSH2 0x1B11 DUP3 PUSH2 0x180B JUMP JUMPDEST SWAP1 POP PUSH1 0x20 DUP2 ADD SWAP1 POP SWAP2 SWAP1 POP JUMP JUMPDEST DUP3 DUP2 DUP4 CALLDATACOPY PUSH1 0x0 DUP4 DUP4 ADD MSTORE POP POP POP JUMP JUMPDEST PUSH1 0x0 PUSH2 0x1B40 PUSH2 0x1B3B DUP5 PUSH2 0x1AED JUMP JUMPDEST PUSH2 0x19A9 JUMP JUMPDEST SWAP1 POP DUP3 DUP2 MSTORE PUSH1 0x20 DUP2 ADD DUP5 DUP5 DUP5 ADD GT ISZERO PUSH2 0x1B5C JUMPI PUSH2 0x1B5B PUSH2 0x1AE8 JUMP JUMPDEST JUMPDEST PUSH2 0x1B67 DUP5 DUP3 DUP6 PUSH2 0x1B1E JUMP JUMPDEST POP SWAP4 SWAP3 POP POP POP JUMP JUMPDEST PUSH1 0x0 DUP3 PUSH1 0x1F DUP4 ADD SLT PUSH2 0x1B84 JUMPI PUSH2 0x1B83 PUSH2 0x1944 JUMP JUMPDEST JUMPDEST DUP2 CALLDATALOAD PUSH2 0x1B94 DUP5 DUP3 PUSH1 0x20 DUP7 ADD PUSH2 0x1B2D JUMP JUMPDEST SWAP2 POP POP SWAP3 SWAP2 POP POP JUMP JUMPDEST PUSH1 0x0 DUP1 PUSH1 0x40 DUP4 DUP6 SUB SLT ISZERO PUSH2 0x1BB4 JUMPI PUSH2 0x1BB3 PUSH2 0x1762 JUMP JUMPDEST JUMPDEST PUSH1 0x0 PUSH2 0x1BC2 DUP6 DUP3 DUP7 ADD PUSH2 0x1783 JUMP JUMPDEST SWAP3 POP POP PUSH1 0x20 DUP4 ADD CALLDATALOAD PUSH8 0xFFFFFFFFFFFFFFFF DUP2 GT ISZERO PUSH2 0x1BE3 JUMPI PUSH2 0x1BE2 PUSH2 0x1767 JUMP JUMPDEST JUMPDEST PUSH2 0x1BEF DUP6 DUP3 DUP7 ADD PUSH2 0x1B6F JUMP JUMPDEST SWAP2 POP POP SWAP3 POP SWAP3 SWAP1 POP JUMP JUMPDEST PUSH1 0x0 DUP2 ISZERO ISZERO SWAP1 POP SWAP2 SWAP1 POP JUMP JUMPDEST PUSH2 0x1C0E DUP2 PUSH2 0x1BF9 JUMP JUMPDEST DUP3 MSTORE POP POP JUMP JUMPDEST PUSH1 0x0 PUSH1 0x20 DUP3 ADD SWAP1 POP PUSH2 0x1C29 PUSH1 0x0 DUP4 ADD DUP5 PUSH2 0x1C05 JUMP JUMPDEST SWAP3 SWAP2 POP POP JUMP JUMPDEST PUSH32 0x4E487B7100000000000000000000000000000000000000000000000000000000 PUSH1 0x0 MSTORE PUSH1 0x32 PUSH1 0x4 MSTORE PUSH1 0x24 PUSH1 0x0 REVERT JUMPDEST PUSH32 0x4E487B7100000000000000000000000000000000000000000000000000000000 PUSH1 0x0 MSTORE PUSH1 0x11 PUSH1 0x4 MSTORE PUSH1 0x24 PUSH1 0x0 REVERT JUMPDEST PUSH1 0x0 PUSH2 0x1C98 DUP3 PUSH2 0x1877 JUMP JUMPDEST SWAP2 POP PUSH32 0xFFFFFFFFFFFFFFFFFFFFFFFFFFFFFFFFFFFFFFFFFFFFFFFFFFFFFFFFFFFFFFFF DUP3 SUB PUSH2 0x1CCA JUMPI PUSH2 0x1CC9 PUSH2 0x1C5E JUMP JUMPDEST JUMPDEST PUSH1 0x1 DUP3 ADD SWAP1 POP SWAP2 SWAP1 POP JUMP JUMPDEST PUSH2 0x1CDE DUP2 PUSH2 0x1692 JUMP JUMPDEST DUP3 MSTORE POP POP JUMP JUMPDEST PUSH1 0x0 PUSH1 0x20 DUP3 ADD SWAP1 POP PUSH2 0x1CF9 PUSH1 0x0 DUP4 ADD DUP5 PUSH2 0x1CD5 JUMP JUMPDEST SWAP3 SWAP2 POP POP JUMP JUMPDEST PUSH1 0x0 DUP3 DUP3 MSTORE PUSH1 0x20 DUP3 ADD SWAP1 POP SWAP3 SWAP2 POP POP JUMP JUMPDEST PUSH32 0x4E6F7420617574686F72697A6564000000000000000000000000000000000000 PUSH1 0x0 DUP3 ADD MSTORE POP JUMP JUMPDEST PUSH1 0x0 PUSH2 0x1D46 PUSH1 0xE DUP4 PUSH2 0x1CFF JUMP JUMPDEST SWAP2 POP PUSH2 0x1D51 DUP3 PUSH2 0x1D10 JUMP JUMPDEST PUSH1 0x20 DUP3 ADD SWAP1 POP SWAP2 SWAP1 POP JUMP JUMPDEST PUSH1 0x0 PUSH1 0x20 DUP3 ADD SWAP1 POP DUP2 DUP2 SUB PUSH1 0x0 DUP4 ADD MSTORE PUSH2 0x1D75 DUP2 PUSH2 0x1D39 JUMP JUMPDEST SWAP1 POP SWAP2 SWAP1 POP JUMP JUMPDEST PUSH1 0x0 PUSH2 0x1D87 DUP3 PUSH2 0x1877 JUMP JUMPDEST SWAP2 POP PUSH2 0x1D92 DUP4 PUSH2 0x1877 JUMP JUMPDEST SWAP3 POP DUP3 DUP3 ADD SWAP1 POP DUP1 DUP3 GT ISZERO PUSH2 0x1DAA JUMPI PUSH2 0x1DA9 PUSH2 0x1C5E JUMP JUMPDEST JUMPDEST SWAP3 SWAP2 POP POP JUMP JUMPDEST PUSH32 0x6572726F72303400000000000000000000000000000000000000000000000000 PUSH1 0x0 DUP3 ADD MSTORE POP JUMP JUMPDEST PUSH1 0x0 PUSH2 0x1DE6 PUSH1 0x7 DUP4 PUSH2 0x1CFF JUMP JUMPDEST SWAP2 POP PUSH2 0x1DF1 DUP3 PUSH2 0x1DB0 JUMP JUMPDEST PUSH1 0x20 DUP3 ADD SWAP1 POP SWAP2 SWAP1 POP JUMP JUMPDEST PUSH1 0x0 PUSH1 0x20 DUP3 ADD SWAP1 POP DUP2 DUP2 SUB PUSH1 0x0 DUP4 ADD MSTORE PUSH2 0x1E15 DUP2 PUSH2 0x1DD9 JUMP JUMPDEST SWAP1 POP SWAP2 SWAP1 POP JUMP JUMPDEST PUSH1 0x0 PUSH1 0x40 DUP3 ADD SWAP1 POP PUSH2 0x1E31 PUSH1 0x0 DUP4 ADD DUP6 PUSH2 0x1CD5 JUMP JUMPDEST PUSH2 0x1E3E PUSH1 0x20 DUP4 ADD DUP5 PUSH2 0x1881 JUMP JUMPDEST SWAP4 SWAP3 POP POP POP JUMP JUMPDEST PUSH32 0x6572726F72303200000000000000000000000000000000000000000000000000 PUSH1 0x0 DUP3 ADD MSTORE POP JUMP JUMPDEST PUSH1 0x0 PUSH2 0x1E7B PUSH1 0x7 DUP4 PUSH2 0x1CFF JUMP JUMPDEST SWAP2 POP PUSH2 0x1E86 DUP3 PUSH2 0x1E45 JUMP JUMPDEST PUSH1 0x20 DUP3 ADD SWAP1 POP SWAP2 SWAP1 POP JUMP JUMPDEST PUSH1 0x0 PUSH1 0x20 DUP3 ADD SWAP1 POP DUP2 DUP2 SUB PUSH1 0x0 DUP4 ADD MSTORE PUSH2 0x1EAA DUP2 PUSH2 0x1E6E JUMP JUMPDEST SWAP1 POP SWAP2 SWAP1 POP JUMP JUMPDEST PUSH32 0x6572726F72303300000000000000000000000000000000000000000000000000 PUSH1 0x0 DUP3 ADD MSTORE POP JUMP JUMPDEST PUSH1 0x0 PUSH2 0x1EE7 PUSH1 0x7 DUP4 PUSH2 0x1CFF JUMP JUMPDEST SWAP2 POP PUSH2 0x1EF2 DUP3 PUSH2 0x1EB1 JUMP JUMPDEST PUSH1 0x20 DUP3 ADD SWAP1 POP SWAP2 SWAP1 POP JUMP JUMPDEST PUSH1 0x0 PUSH1 0x20 DUP3 ADD SWAP1 POP DUP2 DUP2 SUB PUSH1 0x0 DUP4 ADD MSTORE PUSH2 0x1F16 DUP2 PUSH2 0x1EDA JUMP JUMPDEST SWAP1 POP SWAP2 SWAP1 POP JUMP JUMPDEST PUSH32 0x6572726F72303100000000000000000000000000000000000000000000000000 PUSH1 0x0 DUP3 ADD MSTORE POP JUMP JUMPDEST PUSH1 0x0 PUSH2 0x1F53 PUSH1 0x7 DUP4 PUSH2 0x1CFF JUMP JUMPDEST SWAP2 POP PUSH2 0x1F5E DUP3 PUSH2 0x1F1D JUMP JUMPDEST PUSH1 0x20 DUP3 ADD SWAP1 POP SWAP2 SWAP1 POP JUMP JUMPDEST PUSH1 0x0 PUSH1 0x20 DUP3 ADD SWAP1 POP DUP2 DUP2 SUB PUSH1 0x0 DUP4 ADD MSTORE PUSH2 0x1F82 DUP2 PUSH2 0x1F46 JUMP JUMPDEST SWAP1 POP SWAP2 SWAP1 POP JUMP JUMPDEST PUSH1 0x0 PUSH2 0x1F94 DUP3 PUSH2 0x1877 JUMP JUMPDEST SWAP2 POP PUSH2 0x1F9F DUP4 PUSH2 0x1877 JUMP JUMPDEST SWAP3 POP DUP3 DUP3 SUB SWAP1 POP DUP2 DUP2 GT ISZERO PUSH2 0x1FB7 JUMPI PUSH2 0x1FB6 PUSH2 0x1C5E JUMP JUMPDEST JUMPDEST SWAP3 SWAP2 POP POP JUMP JUMPDEST PUSH32 0x6572726F72303700000000000000000000000000000000000000000000000000 PUSH1 0x0 DUP3 ADD MSTORE POP JUMP JUMPDEST PUSH1 0x0 PUSH2 0x1FF3 PUSH1 0x7 DUP4 PUSH2 0x1CFF JUMP JUMPDEST SWAP2 POP PUSH2 0x1FFE DUP3 PUSH2 0x1FBD JUMP JUMPDEST PUSH1 0x20 DUP3 ADD SWAP1 POP SWAP2 SWAP1 POP JUMP JUMPDEST PUSH1 0x0 PUSH1 0x20 DUP3 ADD SWAP1 POP DUP2 DUP2 SUB PUSH1 0x0 DUP4 ADD MSTORE PUSH2 0x2022 DUP2 PUSH2 0x1FE6 JUMP JUMPDEST SWAP1 POP SWAP2 SWAP1 POP JUMP JUMPDEST PUSH1 0x0 DUP2 SWAP1 POP SWAP3 SWAP2 POP POP JUMP JUMPDEST PUSH1 0x0 PUSH2 0x203F DUP3 PUSH2 0x17C5 JUMP JUMPDEST PUSH2 0x2049 DUP2 DUP6 PUSH2 0x2029 JUMP JUMPDEST SWAP4 POP PUSH2 0x2059 DUP2 DUP6 PUSH1 0x20 DUP7 ADD PUSH2 0x17E1 JUMP JUMPDEST DUP1 DUP5 ADD SWAP2 POP POP SWAP3 SWAP2 POP POP JUMP JUMPDEST PUSH1 0x0 PUSH2 0x2071 DUP3 DUP5 PUSH2 0x2034 JUMP JUMPDEST SWAP2 POP DUP2 SWAP1 POP SWAP3 SWAP2 POP POP JUMP JUMPDEST PUSH1 0x0 PUSH2 0x2087 DUP3 PUSH2 0x1877 JUMP JUMPDEST SWAP2 POP PUSH1 0x0 DUP3 SUB PUSH2 0x209A JUMPI PUSH2 0x2099 PUSH2 0x1C5E JUMP JUMPDEST JUMPDEST PUSH1 0x1 DUP3 SUB SWAP1 POP SWAP2 SWAP1 POP JUMP INVALID LOG2 PUSH5 0x6970667358 0x22 SLT KECCAK256 0xF7 DUP11 0xBF KECCAK256 SHL POP 0xF8 PUSH23 0x152396BF999AD22CFCF36A1F91E45487DC3A1EDCCFA850 SSTORE PUSH5 0x736F6C6343 STOP ADDMOD SLT STOP CALLER "
				},
				"gasEstimates": {
					"creation": {
						"codeDepositCost": "1682200",
						"executionCost": "1764",
						"totalCost": "1683964"
					},
					"external": {
						"_initialwallet(address[],uint256)": "infinite",
						"add(address)": "infinite",
						"addOwnersAndThreshold(address,uint256)": "infinite",
						"addOwnersencode(address,uint256)": "infinite",
						"addowner(address)": "infinite",
						"changeThreshold(uint256)": "infinite",
						"changeThresholdencode(uint256)": "infinite",
						"checkOwners()": "infinite",
						"checkThreshold()": "2482",
						"delegate(address,bytes)": "infinite",
						"ownerExist(address)": "5419",
						"owners_num()": "2497",
						"removeOwners(address,uint256)": "infinite",
						"removeOwnersencode(address,uint256)": "infinite"
					}
				},
				"methodIdentifiers": {
					"_initialwallet(address[],uint256)": "a0e1ace8",
					"add(address)": "0a3b0a4f",
					"addOwnersAndThreshold(address,uint256)": "0c546204",
					"addOwnersencode(address,uint256)": "ff87578c",
					"addowner(address)": "5ce7fa2d",
					"changeThreshold(uint256)": "694e80c3",
					"changeThresholdencode(uint256)": "6876a95e",
					"checkOwners()": "029c81e3",
					"checkThreshold()": "81244e5d",
					"delegate(address,bytes)": "d6d2b6ba",
					"ownerExist(address)": "ef11783c",
					"owners_num()": "0c3dfc1a",
					"removeOwners(address,uint256)": "c0f0b3f1",
					"removeOwnersencode(address,uint256)": "54910298"
				}
			},
			"storageLayout": {
				"storage": [
					{
						"astId": 15,
						"contract": "contracts/Try01/t02.sol:ttt",
						"label": "owners_num",
						"offset": 0,
						"slot": "0",
						"type": "t_uint256"
					},
					{
						"astId": 17,
						"contract": "contracts/Try01/t02.sol:ttt",
						"label": "threshold",
						"offset": 0,
						"slot": "1",
						"type": "t_uint256"
					},
					{
						"astId": 23,
						"contract": "contracts/Try01/t02.sol:ttt",
						"label": "owners",
						"offset": 0,
						"slot": "2",
						"type": "t_mapping(t_address,t_mapping(t_bool,t_address))"
					}
				],
				"types": {
					"t_address": {
						"encoding": "inplace",
						"label": "address",
						"numberOfBytes": "20"
					},
					"t_bool": {
						"encoding": "inplace",
						"label": "bool",
						"numberOfBytes": "1"
					},
					"t_mapping(t_address,t_mapping(t_bool,t_address))": {
						"encoding": "mapping",
						"key": "t_address",
						"label": "mapping(address => mapping(bool => address))",
						"numberOfBytes": "32",
						"value": "t_mapping(t_bool,t_address)"
					},
					"t_mapping(t_bool,t_address)": {
						"encoding": "mapping",
						"key": "t_bool",
						"label": "mapping(bool => address)",
						"numberOfBytes": "32",
						"value": "t_address"
					},
					"t_uint256": {
						"encoding": "inplace",
						"label": "uint256",
						"numberOfBytes": "32"
					}
				}
			},
			"userdoc": {
				"kind": "user",
				"methods": {},
				"version": 1
			}
		}
	}
}