{
	"contracts/Try01/Manage.sol": {
		"Manageowner": {
			"abi": [
				{
					"anonymous": false,
					"inputs": [
						{
							"indexed": true,
							"internalType": "address",
							"name": "owner",
							"type": "address"
						}
					],
					"name": "AddOwner",
					"type": "event"
				},
				{
					"anonymous": false,
					"inputs": [
						{
							"indexed": false,
							"internalType": "uint256",
							"name": "threshold",
							"type": "uint256"
						}
					],
					"name": "ChangeThreshold",
					"type": "event"
				},
				{
					"anonymous": false,
					"inputs": [
						{
							"indexed": true,
							"internalType": "address",
							"name": "preowner",
							"type": "address"
						}
					],
					"name": "RemoveOwner",
					"type": "event"
				},
				{
					"inputs": [
						{
							"internalType": "address[]",
							"name": "_owners",
							"type": "address[]"
						},
						{
							"internalType": "uint256",
							"name": "_threshold",
							"type": "uint256"
						}
					],
					"name": "_initialwallet",
					"outputs": [],
					"stateMutability": "nonpayable",
					"type": "function"
				},
				{
					"inputs": [
						{
							"internalType": "address",
							"name": "addr",
							"type": "address"
						}
					],
					"name": "add",
					"outputs": [
						{
							"internalType": "bytes",
							"name": "result",
							"type": "bytes"
						}
					],
					"stateMutability": "pure",
					"type": "function"
				},
				{
					"inputs": [
						{
							"internalType": "address",
							"name": "owner",
							"type": "address"
						},
						{
							"internalType": "uint256",
							"name": "new_threshold",
							"type": "uint256"
						}
					],
					"name": "addOwnersAndThreshold",
					"outputs": [],
					"stateMutability": "nonpayable",
					"type": "function"
				},
				{
					"inputs": [
						{
							"internalType": "address",
							"name": "x",
							"type": "address"
						},
						{
							"internalType": "uint256",
							"name": "y",
							"type": "uint256"
						}
					],
					"name": "addOwnersencode",
					"outputs": [
						{
							"internalType": "bytes",
							"name": "result",
							"type": "bytes"
						}
					],
					"stateMutability": "pure",
					"type": "function"
				},
				{
					"inputs": [
						{
							"internalType": "address",
							"name": "owner",
							"type": "address"
						}
					],
					"name": "addowner",
					"outputs": [],
					"stateMutability": "nonpayable",
					"type": "function"
				},
				{
					"inputs": [
						{
							"internalType": "uint256",
							"name": "new_threshold",
							"type": "uint256"
						}
					],
					"name": "changeThreshold",
					"outputs": [],
					"stateMutability": "nonpayable",
					"type": "function"
				},
				{
					"inputs": [
						{
							"internalType": "uint256",
							"name": "new_threshold",
							"type": "uint256"
						}
					],
					"name": "changeThresholdencode",
					"outputs": [
						{
							"internalType": "bytes",
							"name": "result",
							"type": "bytes"
						}
					],
					"stateMutability": "pure",
					"type": "function"
				},
				{
					"inputs": [],
					"name": "checkOwners",
					"outputs": [
						{
							"internalType": "address[]",
							"name": "",
							"type": "address[]"
						}
					],
					"stateMutability": "view",
					"type": "function"
				},
				{
					"inputs": [],
					"name": "checkThreshold",
					"outputs": [
						{
							"internalType": "uint256",
							"name": "",
							"type": "uint256"
						}
					],
					"stateMutability": "view",
					"type": "function"
				},
				{
					"inputs": [
						{
							"internalType": "address",
							"name": "_owner",
							"type": "address"
						}
					],
					"name": "ownerExist",
					"outputs": [
						{
							"internalType": "bool",
							"name": "",
							"type": "bool"
						}
					],
					"stateMutability": "view",
					"type": "function"
				},
				{
					"inputs": [],
					"name": "owners_num",
					"outputs": [
						{
							"internalType": "uint256",
							"name": "",
							"type": "uint256"
						}
					],
					"stateMutability": "view",
					"type": "function"
				},
				{
					"inputs": [
						{
							"internalType": "address",
							"name": "preowner",
							"type": "address"
						},
						{
							"internalType": "uint256",
							"name": "new_threshold",
							"type": "uint256"
						}
					],
					"name": "removeOwners",
					"outputs": [],
					"stateMutability": "nonpayable",
					"type": "function"
				},
				{
					"inputs": [
						{
							"internalType": "address",
							"name": "x",
							"type": "address"
						},
						{
							"internalType": "uint256",
							"name": "y",
							"type": "uint256"
						}
					],
					"name": "removeOwnersencode",
					"outputs": [
						{
							"internalType": "bytes",
							"name": "result",
							"type": "bytes"
						}
					],
					"stateMutability": "pure",
					"type": "function"
				}
			],
			"devdoc": {
				"kind": "dev",
				"methods": {},
				"version": 1
			},
			"evm": {
				"assembly": "    /* \"contracts/Try01/Manage.sol\":60:8053  contract Manageowner{... */\n  mstore(0x40, 0x80)\n  callvalue\n  dup1\n  iszero\n  tag_1\n  jumpi\n  0x00\n  dup1\n  revert\ntag_1:\n  pop\n  dataSize(sub_0)\n  dup1\n  dataOffset(sub_0)\n  0x00\n  codecopy\n  0x00\n  return\nstop\n\nsub_0: assembly {\n        /* \"contracts/Try01/Manage.sol\":60:8053  contract Manageowner{... */\n      mstore(0x40, 0x80)\n      callvalue\n      dup1\n      iszero\n      tag_1\n      jumpi\n      0x00\n      dup1\n      revert\n    tag_1:\n      pop\n      jumpi(tag_2, lt(calldatasize, 0x04))\n      shr(0xe0, calldataload(0x00))\n      dup1\n      0x6876a95e\n      gt\n      tag_16\n      jumpi\n      dup1\n      0xa0e1ace8\n      gt\n      tag_17\n      jumpi\n      dup1\n      0xa0e1ace8\n      eq\n      tag_12\n      jumpi\n      dup1\n      0xc0f0b3f1\n      eq\n      tag_13\n      jumpi\n      dup1\n      0xef11783c\n      eq\n      tag_14\n      jumpi\n      dup1\n      0xff87578c\n      eq\n      tag_15\n      jumpi\n      jump(tag_2)\n    tag_17:\n      dup1\n      0x6876a95e\n      eq\n      tag_9\n      jumpi\n      dup1\n      0x694e80c3\n      eq\n      tag_10\n      jumpi\n      dup1\n      0x81244e5d\n      eq\n      tag_11\n      jumpi\n      jump(tag_2)\n    tag_16:\n      dup1\n      0x029c81e3\n      eq\n      tag_3\n      jumpi\n      dup1\n      0x0a3b0a4f\n      eq\n      tag_4\n      jumpi\n      dup1\n      0x0c3dfc1a\n      eq\n      tag_5\n      jumpi\n      dup1\n      0x0c546204\n      eq\n      tag_6\n      jumpi\n      dup1\n      0x54910298\n      eq\n      tag_7\n      jumpi\n      dup1\n      0x5ce7fa2d\n      eq\n      tag_8\n      jumpi\n    tag_2:\n      0x00\n      dup1\n      revert\n        /* \"contracts/Try01/Manage.sol\":3401:3804  function checkOwners()public view returns(address[] memory){... */\n    tag_3:\n      tag_18\n      tag_19\n      jump\t// in\n    tag_18:\n      mload(0x40)\n      tag_20\n      swap2\n      swap1\n      tag_21\n      jump\t// in\n    tag_20:\n      mload(0x40)\n      dup1\n      swap2\n      sub\n      swap1\n      return\n        /* \"contracts/Try01/Manage.sol\":6944:7130  function add(address addr)public pure returns(bytes memory result){... */\n    tag_4:\n      tag_22\n      0x04\n      dup1\n      calldatasize\n      sub\n      dup2\n      add\n      swap1\n      tag_23\n      swap2\n      swap1\n      tag_24\n      jump\t// in\n    tag_23:\n      tag_25\n      jump\t// in\n    tag_22:\n      mload(0x40)\n      tag_26\n      swap2\n      swap1\n      tag_27\n      jump\t// in\n    tag_26:\n      mload(0x40)\n      dup1\n      swap2\n      sub\n      swap1\n      return\n        /* \"contracts/Try01/Manage.sol\":260:285  uint256 public owners_num */\n    tag_5:\n      tag_28\n      tag_29\n      jump\t// in\n    tag_28:\n      mload(0x40)\n      tag_30\n      swap2\n      swap1\n      tag_31\n      jump\t// in\n    tag_30:\n      mload(0x40)\n      dup1\n      swap2\n      sub\n      swap1\n      return\n        /* \"contracts/Try01/Manage.sol\":1714:2273  function addOwnersAndThreshold(address owner, uint256 new_threshold)public signed{... */\n    tag_6:\n      tag_32\n      0x04\n      dup1\n      calldatasize\n      sub\n      dup2\n      add\n      swap1\n      tag_33\n      swap2\n      swap1\n      tag_34\n      jump\t// in\n    tag_33:\n      tag_35\n      jump\t// in\n    tag_32:\n      stop\n        /* \"contracts/Try01/Manage.sol\":7803:8048  function removeOwnersencode(address x, uint256 y) public pure returns(bytes memory result) {... */\n    tag_7:\n      tag_36\n      0x04\n      dup1\n      calldatasize\n      sub\n      dup2\n      add\n      swap1\n      tag_37\n      swap2\n      swap1\n      tag_34\n      jump\t// in\n    tag_37:\n      tag_38\n      jump\t// in\n    tag_36:\n      mload(0x40)\n      tag_39\n      swap2\n      swap1\n      tag_27\n      jump\t// in\n    tag_39:\n      mload(0x40)\n      dup1\n      swap2\n      sub\n      swap1\n      return\n        /* \"contracts/Try01/Manage.sol\":3842:4836  function addowner(address owner)public  {... */\n    tag_8:\n      tag_40\n      0x04\n      dup1\n      calldatasize\n      sub\n      dup2\n      add\n      swap1\n      tag_41\n      swap2\n      swap1\n      tag_24\n      jump\t// in\n    tag_41:\n      tag_42\n      jump\t// in\n    tag_40:\n      stop\n        /* \"contracts/Try01/Manage.sol\":6431:6661  function changeThresholdencode(uint256 new_threshold) public pure returns(bytes memory result) {... */\n    tag_9:\n      tag_43\n      0x04\n      dup1\n      calldatasize\n      sub\n      dup2\n      add\n      swap1\n      tag_44\n      swap2\n      swap1\n      tag_45\n      jump\t// in\n    tag_44:\n      tag_46\n      jump\t// in\n    tag_43:\n      mload(0x40)\n      tag_47\n      swap2\n      swap1\n      tag_27\n      jump\t// in\n    tag_47:\n      mload(0x40)\n      dup1\n      swap2\n      sub\n      swap1\n      return\n        /* \"contracts/Try01/Manage.sol\":2899:3239  function changeThreshold(uint256 new_threshold)public signed{... */\n    tag_10:\n      tag_48\n      0x04\n      dup1\n      calldatasize\n      sub\n      dup2\n      add\n      swap1\n      tag_49\n      swap2\n      swap1\n      tag_45\n      jump\t// in\n    tag_49:\n      tag_50\n      jump\t// in\n    tag_48:\n      stop\n        /* \"contracts/Try01/Manage.sol\":3274:3362  function checkThreshold()public view returns(uint256){... */\n    tag_11:\n      tag_51\n      tag_52\n      jump\t// in\n    tag_51:\n      mload(0x40)\n      tag_53\n      swap2\n      swap1\n      tag_31\n      jump\t// in\n    tag_53:\n      mload(0x40)\n      dup1\n      swap2\n      sub\n      swap1\n      return\n        /* \"contracts/Try01/Manage.sol\":720:1622  function _initialwallet(address[] memory _owners,uint256 _threshold)public  {... */\n    tag_12:\n      tag_54\n      0x04\n      dup1\n      calldatasize\n      sub\n      dup2\n      add\n      swap1\n      tag_55\n      swap2\n      swap1\n      tag_56\n      jump\t// in\n    tag_55:\n      tag_57\n      jump\t// in\n    tag_54:\n      stop\n        /* \"contracts/Try01/Manage.sol\":2365:2810  function removeOwners(address preowner, uint256 new_threshold)public signed{... */\n    tag_13:\n      tag_58\n      0x04\n      dup1\n      calldatasize\n      sub\n      dup2\n      add\n      swap1\n      tag_59\n      swap2\n      swap1\n      tag_34\n      jump\t// in\n    tag_59:\n      tag_60\n      jump\t// in\n    tag_58:\n      stop\n        /* \"contracts/Try01/Manage.sol\":5499:5652  function ownerExist(address _owner)public view returns (bool){... */\n    tag_14:\n      tag_61\n      0x04\n      dup1\n      calldatasize\n      sub\n      dup2\n      add\n      swap1\n      tag_62\n      swap2\n      swap1\n      tag_24\n      jump\t// in\n    tag_62:\n      tag_63\n      jump\t// in\n    tag_61:\n      mload(0x40)\n      tag_64\n      swap2\n      swap1\n      tag_65\n      jump\t// in\n    tag_64:\n      mload(0x40)\n      dup1\n      swap2\n      sub\n      swap1\n      return\n        /* \"contracts/Try01/Manage.sol\":6709:6936  function addOwnersencode(address x, uint256 y) public pure returns(bytes memory result) {... */\n    tag_15:\n      tag_66\n      0x04\n      dup1\n      calldatasize\n      sub\n      dup2\n      add\n      swap1\n      tag_67\n      swap2\n      swap1\n      tag_34\n      jump\t// in\n    tag_67:\n      tag_68\n      jump\t// in\n    tag_66:\n      mload(0x40)\n      tag_69\n      swap2\n      swap1\n      tag_27\n      jump\t// in\n    tag_69:\n      mload(0x40)\n      dup1\n      swap2\n      sub\n      swap1\n      return\n        /* \"contracts/Try01/Manage.sol\":3401:3804  function checkOwners()public view returns(address[] memory){... */\n    tag_19:\n        /* \"contracts/Try01/Manage.sol\":3443:3459  address[] memory */\n      0x60\n        /* \"contracts/Try01/Manage.sol\":3471:3493  address[] memory array */\n      0x00\n        /* \"contracts/Try01/Manage.sol\":3510:3520  owners_num */\n      dup1\n      sload\n        /* \"contracts/Try01/Manage.sol\":3496:3521  new address[](owners_num) */\n      0xffffffffffffffff\n      dup2\n      gt\n      iszero\n      tag_71\n      jumpi\n      tag_72\n      tag_73\n      jump\t// in\n    tag_72:\n    tag_71:\n      mload(0x40)\n      swap1\n      dup1\n      dup3\n      mstore\n      dup1\n      0x20\n      mul\n      0x20\n      add\n      dup3\n      add\n      0x40\n      mstore\n      dup1\n      iszero\n      tag_74\n      jumpi\n      dup2\n      0x20\n      add\n      0x20\n      dup3\n      mul\n      dup1\n      calldatasize\n      dup4\n      calldatacopy\n      dup1\n      dup3\n      add\n      swap2\n      pop\n      pop\n      swap1\n      pop\n    tag_74:\n      pop\n        /* \"contracts/Try01/Manage.sol\":3471:3521  address[] memory array = new address[](owners_num) */\n      swap1\n      pop\n        /* \"contracts/Try01/Manage.sol\":3532:3552  address currentowner */\n      0x00\n        /* \"contracts/Try01/Manage.sol\":3555:3561  owners */\n      0x02\n        /* \"contracts/Try01/Manage.sol\":3555:3568  owners[_HEAD] */\n      0x00\n        /* \"contracts/Try01/Manage.sol\":707:710  0x1 */\n      0x01\n        /* \"contracts/Try01/Manage.sol\":3555:3568  owners[_HEAD] */\n      0xffffffffffffffffffffffffffffffffffffffff\n      and\n      0xffffffffffffffffffffffffffffffffffffffff\n      and\n      dup2\n      mstore\n      0x20\n      add\n      swap1\n      dup2\n      mstore\n      0x20\n      add\n      0x00\n      keccak256\n        /* \"contracts/Try01/Manage.sol\":3555:3575  owners[_HEAD][_NEXT] */\n      0x00\n        /* \"contracts/Try01/Manage.sol\":558:562  true */\n      0x01\n        /* \"contracts/Try01/Manage.sol\":3555:3575  owners[_HEAD][_NEXT] */\n      iszero\n      iszero\n      iszero\n      iszero\n      dup2\n      mstore\n      0x20\n      add\n      swap1\n      dup2\n      mstore\n      0x20\n      add\n      0x00\n      keccak256\n      0x00\n      swap1\n      sload\n      swap1\n      0x0100\n      exp\n      swap1\n      div\n      0xffffffffffffffffffffffffffffffffffffffff\n      and\n        /* \"contracts/Try01/Manage.sol\":3532:3575  address currentowner = owners[_HEAD][_NEXT] */\n      swap1\n      pop\n        /* \"contracts/Try01/Manage.sol\":3586:3599  uint256 index */\n      0x00\n        /* \"contracts/Try01/Manage.sol\":3614:3774  for (index=0; index < owners_num; index++){... */\n    tag_75:\n        /* \"contracts/Try01/Manage.sol\":3636:3646  owners_num */\n      sload(0x00)\n        /* \"contracts/Try01/Manage.sol\":3628:3633  index */\n      dup2\n        /* \"contracts/Try01/Manage.sol\":3628:3646  index < owners_num */\n      lt\n        /* \"contracts/Try01/Manage.sol\":3614:3774  for (index=0; index < owners_num; index++){... */\n      iszero\n      tag_76\n      jumpi\n        /* \"contracts/Try01/Manage.sol\":3686:3698  currentowner */\n      dup2\n        /* \"contracts/Try01/Manage.sol\":3671:3676  array */\n      dup4\n        /* \"contracts/Try01/Manage.sol\":3677:3682  index */\n      dup3\n        /* \"contracts/Try01/Manage.sol\":3671:3683  array[index] */\n      dup2\n      mload\n      dup2\n      lt\n      tag_78\n      jumpi\n      tag_79\n      tag_80\n      jump\t// in\n    tag_79:\n    tag_78:\n      0x20\n      mul\n      0x20\n      add\n      add\n        /* \"contracts/Try01/Manage.sol\":3671:3698  array[index] = currentowner */\n      swap1\n      0xffffffffffffffffffffffffffffffffffffffff\n      and\n      swap1\n      dup2\n      0xffffffffffffffffffffffffffffffffffffffff\n      and\n      dup2\n      mstore\n      pop\n      pop\n        /* \"contracts/Try01/Manage.sol\":3731:3762  getAdjacent(currentowner,_NEXT) */\n      tag_81\n        /* \"contracts/Try01/Manage.sol\":3743:3755  currentowner */\n      dup3\n        /* \"contracts/Try01/Manage.sol\":558:562  true */\n      0x01\n        /* \"contracts/Try01/Manage.sol\":3731:3742  getAdjacent */\n      tag_82\n        /* \"contracts/Try01/Manage.sol\":3731:3762  getAdjacent(currentowner,_NEXT) */\n      jump\t// in\n    tag_81:\n        /* \"contracts/Try01/Manage.sol\":3713:3762  (,currentowner) = getAdjacent(currentowner,_NEXT) */\n      swap1\n      pop\n      dup1\n      swap3\n      pop\n      pop\n        /* \"contracts/Try01/Manage.sol\":3648:3655  index++ */\n      dup1\n      dup1\n      tag_83\n      swap1\n      tag_84\n      jump\t// in\n    tag_83:\n      swap2\n      pop\n      pop\n        /* \"contracts/Try01/Manage.sol\":3614:3774  for (index=0; index < owners_num; index++){... */\n      jump(tag_75)\n    tag_76:\n        /* \"contracts/Try01/Manage.sol\":3791:3796  array */\n      dup3\n        /* \"contracts/Try01/Manage.sol\":3784:3796  return array */\n      swap4\n      pop\n      pop\n      pop\n      pop\n        /* \"contracts/Try01/Manage.sol\":3401:3804  function checkOwners()public view returns(address[] memory){... */\n      swap1\n      jump\t// out\n        /* \"contracts/Try01/Manage.sol\":6944:7130  function add(address addr)public pure returns(bytes memory result){... */\n    tag_25:\n        /* \"contracts/Try01/Manage.sol\":6990:7009  bytes memory result */\n      0x60\n        /* \"contracts/Try01/Manage.sol\":7060:7090  keccak256(\"addowner(address)\") */\n      0x5ce7fa2d7df4a3b8ac1f4edf3b55bd9def1ea63ad71b157bf5823b2597dd13b0\n        /* \"contracts/Try01/Manage.sol\":7093:7097  addr */\n      dup3\n        /* \"contracts/Try01/Manage.sol\":7030:7098  abi.encodeWithSelector(bytes4(keccak256(\"addowner(address)\")), addr) */\n      add(0x24, mload(0x40))\n      tag_86\n      swap2\n      swap1\n      tag_87\n      jump\t// in\n    tag_86:\n      mload(0x40)\n      0x20\n      dup2\n      dup4\n      sub\n      sub\n      dup2\n      mstore\n      swap1\n      0x40\n      mstore\n      swap1\n      not(0xffffffffffffffffffffffffffffffffffffffffffffffffffffffff)\n      and\n      0x20\n      dup3\n      add\n      dup1\n      mload\n      0xffffffffffffffffffffffffffffffffffffffffffffffffffffffff\n      dup4\n      dup2\n      dup4\n      and\n      or\n      dup4\n      mstore\n      pop\n      pop\n      pop\n      pop\n        /* \"contracts/Try01/Manage.sol\":7021:7098  result = abi.encodeWithSelector(bytes4(keccak256(\"addowner(address)\")), addr) */\n      swap1\n      pop\n        /* \"contracts/Try01/Manage.sol\":6944:7130  function add(address addr)public pure returns(bytes memory result){... */\n      swap2\n      swap1\n      pop\n      jump\t// out\n        /* \"contracts/Try01/Manage.sol\":260:285  uint256 public owners_num */\n    tag_29:\n      sload(0x00)\n      dup2\n      jump\t// out\n        /* \"contracts/Try01/Manage.sol\":1714:2273  function addOwnersAndThreshold(address owner, uint256 new_threshold)public signed{... */\n    tag_35:\n        /* \"contracts/Try01/Manage.sol\":6338:6342  this */\n      address\n        /* \"contracts/Try01/Manage.sol\":6318:6343  msg.sender==address(this) */\n      0xffffffffffffffffffffffffffffffffffffffff\n      and\n        /* \"contracts/Try01/Manage.sol\":6318:6328  msg.sender */\n      caller\n        /* \"contracts/Try01/Manage.sol\":6318:6343  msg.sender==address(this) */\n      0xffffffffffffffffffffffffffffffffffffffff\n      and\n      eq\n        /* \"contracts/Try01/Manage.sol\":6310:6361  require(msg.sender==address(this),\"Not authorized\") */\n      tag_89\n      jumpi\n      mload(0x40)\n      0x08c379a000000000000000000000000000000000000000000000000000000000\n      dup2\n      mstore\n      0x04\n      add\n      tag_90\n      swap1\n      tag_91\n      jump\t// in\n    tag_90:\n      mload(0x40)\n      dup1\n      swap2\n      sub\n      swap1\n      revert\n    tag_89:\n        /* \"contracts/Try01/Manage.sol\":1875:1888  new_threshold */\n      dup1\n        /* \"contracts/Try01/Manage.sol\":1870:1871  1 */\n      0x01\n        /* \"contracts/Try01/Manage.sol\":1857:1867  owners_num */\n      sload(0x00)\n        /* \"contracts/Try01/Manage.sol\":1857:1871  owners_num + 1 */\n      tag_93\n      swap2\n      swap1\n      tag_94\n      jump\t// in\n    tag_93:\n        /* \"contracts/Try01/Manage.sol\":1857:1888  owners_num + 1 >= new_threshold */\n      lt\n      iszero\n        /* \"contracts/Try01/Manage.sol\":1857:1910  owners_num + 1 >= new_threshold && new_threshold >= 0 */\n      dup1\n      iszero\n      tag_95\n      jumpi\n      pop\n        /* \"contracts/Try01/Manage.sol\":1909:1910  0 */\n      0x00\n        /* \"contracts/Try01/Manage.sol\":1892:1905  new_threshold */\n      dup2\n        /* \"contracts/Try01/Manage.sol\":1892:1910  new_threshold >= 0 */\n      lt\n      iszero\n        /* \"contracts/Try01/Manage.sol\":1857:1910  owners_num + 1 >= new_threshold && new_threshold >= 0 */\n    tag_95:\n        /* \"contracts/Try01/Manage.sol\":1849:1911  require(owners_num + 1 >= new_threshold && new_threshold >= 0) */\n      tag_96\n      jumpi\n      0x00\n      dup1\n      revert\n    tag_96:\n        /* \"contracts/Try01/Manage.sol\":2002:2003  0 */\n      0x00\n        /* \"contracts/Try01/Manage.sol\":1985:2004  owner != address(0) */\n      0xffffffffffffffffffffffffffffffffffffffff\n      and\n        /* \"contracts/Try01/Manage.sol\":1985:1990  owner */\n      dup3\n        /* \"contracts/Try01/Manage.sol\":1985:2004  owner != address(0) */\n      0xffffffffffffffffffffffffffffffffffffffff\n      and\n      eq\n      iszero\n        /* \"contracts/Try01/Manage.sol\":1985:2030  owner != address(0) && owner != address(this) */\n      dup1\n      iszero\n      tag_97\n      jumpi\n      pop\n        /* \"contracts/Try01/Manage.sol\":2025:2029  this */\n      address\n        /* \"contracts/Try01/Manage.sol\":2008:2030  owner != address(this) */\n      0xffffffffffffffffffffffffffffffffffffffff\n      and\n        /* \"contracts/Try01/Manage.sol\":2008:2013  owner */\n      dup3\n        /* \"contracts/Try01/Manage.sol\":2008:2030  owner != address(this) */\n      0xffffffffffffffffffffffffffffffffffffffff\n      and\n      eq\n      iszero\n        /* \"contracts/Try01/Manage.sol\":1985:2030  owner != address(0) && owner != address(this) */\n    tag_97:\n        /* \"contracts/Try01/Manage.sol\":1985:2052  owner != address(0) && owner != address(this) && !ownerExist(owner) */\n      dup1\n      iszero\n      tag_98\n      jumpi\n      pop\n        /* \"contracts/Try01/Manage.sol\":2035:2052  ownerExist(owner) */\n      tag_99\n        /* \"contracts/Try01/Manage.sol\":2046:2051  owner */\n      dup3\n        /* \"contracts/Try01/Manage.sol\":2035:2045  ownerExist */\n      tag_63\n        /* \"contracts/Try01/Manage.sol\":2035:2052  ownerExist(owner) */\n      jump\t// in\n    tag_99:\n        /* \"contracts/Try01/Manage.sol\":2034:2052  !ownerExist(owner) */\n      iszero\n        /* \"contracts/Try01/Manage.sol\":1985:2052  owner != address(0) && owner != address(this) && !ownerExist(owner) */\n    tag_98:\n        /* \"contracts/Try01/Manage.sol\":1977:2063  require(owner != address(0) && owner != address(this) && !ownerExist(owner),\"error04\") */\n      tag_100\n      jumpi\n      mload(0x40)\n      0x08c379a000000000000000000000000000000000000000000000000000000000\n      dup2\n      mstore\n      0x04\n      add\n      tag_101\n      swap1\n      tag_102\n      jump\t// in\n    tag_101:\n      mload(0x40)\n      dup1\n      swap2\n      sub\n      swap1\n      revert\n    tag_100:\n        /* \"contracts/Try01/Manage.sol\":2082:2097  addowner(owner) */\n      tag_103\n        /* \"contracts/Try01/Manage.sol\":2091:2096  owner */\n      dup3\n        /* \"contracts/Try01/Manage.sol\":2082:2090  addowner */\n      tag_42\n        /* \"contracts/Try01/Manage.sol\":2082:2097  addowner(owner) */\n      jump\t// in\n    tag_103:\n        /* \"contracts/Try01/Manage.sol\":2122:2127  owner */\n      dup2\n        /* \"contracts/Try01/Manage.sol\":2113:2128  AddOwner(owner) */\n      0xffffffffffffffffffffffffffffffffffffffff\n      and\n      0xac1e9ef41b54c676ccf449d83ae6f2624bcdce8f5b93a6b48ce95874c332693d\n      mload(0x40)\n      mload(0x40)\n      dup1\n      swap2\n      sub\n      swap1\n      log2\n        /* \"contracts/Try01/Manage.sol\":2224:2233  threshold */\n      sload(0x01)\n        /* \"contracts/Try01/Manage.sol\":2207:2220  new_threshold */\n      dup2\n        /* \"contracts/Try01/Manage.sol\":2207:2233  new_threshold != threshold */\n      eq\n        /* \"contracts/Try01/Manage.sol\":2203:2265  if (new_threshold != threshold) changeThreshold(new_threshold) */\n      tag_104\n      jumpi\n        /* \"contracts/Try01/Manage.sol\":2235:2265  changeThreshold(new_threshold) */\n      tag_105\n        /* \"contracts/Try01/Manage.sol\":2251:2264  new_threshold */\n      dup2\n        /* \"contracts/Try01/Manage.sol\":2235:2250  changeThreshold */\n      tag_50\n        /* \"contracts/Try01/Manage.sol\":2235:2265  changeThreshold(new_threshold) */\n      jump\t// in\n    tag_105:\n        /* \"contracts/Try01/Manage.sol\":2203:2265  if (new_threshold != threshold) changeThreshold(new_threshold) */\n    tag_104:\n        /* \"contracts/Try01/Manage.sol\":1714:2273  function addOwnersAndThreshold(address owner, uint256 new_threshold)public signed{... */\n      pop\n      pop\n      jump\t// out\n        /* \"contracts/Try01/Manage.sol\":7803:8048  function removeOwnersencode(address x, uint256 y) public pure returns(bytes memory result) {... */\n    tag_38:\n        /* \"contracts/Try01/Manage.sol\":7873:7892  bytes memory result */\n      0x60\n        /* \"contracts/Try01/Manage.sol\":7943:8009  keccak256(\"removeOwners(address preowner, uint256 new_threshold)\") */\n      0x5cb963ae197a87311b65f828de4c1673c22d6ac1a28aa681cfeb35b1ff025d7a\n        /* \"contracts/Try01/Manage.sol\":8012:8013  x */\n      dup4\n        /* \"contracts/Try01/Manage.sol\":8014:8015  y */\n      dup4\n        /* \"contracts/Try01/Manage.sol\":7913:8016  abi.encodeWithSelector(bytes4(keccak256(\"removeOwners(address preowner, uint256 new_threshold)\")), x,y) */\n      add(0x24, mload(0x40))\n      tag_107\n      swap3\n      swap2\n      swap1\n      tag_108\n      jump\t// in\n    tag_107:\n      mload(0x40)\n      0x20\n      dup2\n      dup4\n      sub\n      sub\n      dup2\n      mstore\n      swap1\n      0x40\n      mstore\n      swap1\n      not(0xffffffffffffffffffffffffffffffffffffffffffffffffffffffff)\n      and\n      0x20\n      dup3\n      add\n      dup1\n      mload\n      0xffffffffffffffffffffffffffffffffffffffffffffffffffffffff\n      dup4\n      dup2\n      dup4\n      and\n      or\n      dup4\n      mstore\n      pop\n      pop\n      pop\n      pop\n        /* \"contracts/Try01/Manage.sol\":7905:8016  result =abi.encodeWithSelector(bytes4(keccak256(\"removeOwners(address preowner, uint256 new_threshold)\")), x,y) */\n      swap1\n      pop\n        /* \"contracts/Try01/Manage.sol\":7803:8048  function removeOwnersencode(address x, uint256 y) public pure returns(bytes memory result) {... */\n      swap3\n      swap2\n      pop\n      pop\n      jump\t// out\n        /* \"contracts/Try01/Manage.sol\":3842:4836  function addowner(address owner)public  {... */\n    tag_42:\n        /* \"contracts/Try01/Manage.sol\":3918:3919  0 */\n      0x00\n        /* \"contracts/Try01/Manage.sol\":3901:3920  owner != address(0) */\n      0xffffffffffffffffffffffffffffffffffffffff\n      and\n        /* \"contracts/Try01/Manage.sol\":3901:3906  owner */\n      dup2\n        /* \"contracts/Try01/Manage.sol\":3901:3920  owner != address(0) */\n      0xffffffffffffffffffffffffffffffffffffffff\n      and\n      eq\n      iszero\n        /* \"contracts/Try01/Manage.sol\":3901:3946  owner != address(0) && owner != address(this) */\n      dup1\n      iszero\n      tag_110\n      jumpi\n      pop\n        /* \"contracts/Try01/Manage.sol\":3941:3945  this */\n      address\n        /* \"contracts/Try01/Manage.sol\":3924:3946  owner != address(this) */\n      0xffffffffffffffffffffffffffffffffffffffff\n      and\n        /* \"contracts/Try01/Manage.sol\":3924:3929  owner */\n      dup2\n        /* \"contracts/Try01/Manage.sol\":3924:3946  owner != address(this) */\n      0xffffffffffffffffffffffffffffffffffffffff\n      and\n      eq\n      iszero\n        /* \"contracts/Try01/Manage.sol\":3901:3946  owner != address(0) && owner != address(this) */\n    tag_110:\n        /* \"contracts/Try01/Manage.sol\":3901:3968  owner != address(0) && owner != address(this) && !ownerExist(owner) */\n      dup1\n      iszero\n      tag_111\n      jumpi\n      pop\n        /* \"contracts/Try01/Manage.sol\":3951:3968  ownerExist(owner) */\n      tag_112\n        /* \"contracts/Try01/Manage.sol\":3962:3967  owner */\n      dup2\n        /* \"contracts/Try01/Manage.sol\":3951:3961  ownerExist */\n      tag_63\n        /* \"contracts/Try01/Manage.sol\":3951:3968  ownerExist(owner) */\n      jump\t// in\n    tag_112:\n        /* \"contracts/Try01/Manage.sol\":3950:3968  !ownerExist(owner) */\n      iszero\n        /* \"contracts/Try01/Manage.sol\":3901:3968  owner != address(0) && owner != address(this) && !ownerExist(owner) */\n    tag_111:\n        /* \"contracts/Try01/Manage.sol\":3893:3979  require(owner != address(0) && owner != address(this) && !ownerExist(owner),\"error04\") */\n      tag_113\n      jumpi\n      mload(0x40)\n      0x08c379a000000000000000000000000000000000000000000000000000000000\n      dup2\n      mstore\n      0x04\n      add\n      tag_114\n      swap1\n      tag_102\n      jump\t// in\n    tag_114:\n      mload(0x40)\n      dup1\n      swap2\n      sub\n      swap1\n      revert\n    tag_113:\n        /* \"contracts/Try01/Manage.sol\":3990:4010  address currentowner */\n      0x00\n        /* \"contracts/Try01/Manage.sol\":707:710  0x1 */\n      0x01\n        /* \"contracts/Try01/Manage.sol\":3990:4018  address currentowner = _HEAD */\n      swap1\n      pop\n        /* \"contracts/Try01/Manage.sol\":4029:4046  address nextowner */\n      0x00\n        /* \"contracts/Try01/Manage.sol\":4072:4103  getAdjacent(currentowner,_NEXT) */\n      tag_115\n        /* \"contracts/Try01/Manage.sol\":4084:4096  currentowner */\n      dup3\n        /* \"contracts/Try01/Manage.sol\":558:562  true */\n      0x01\n        /* \"contracts/Try01/Manage.sol\":4072:4083  getAdjacent */\n      tag_82\n        /* \"contracts/Try01/Manage.sol\":4072:4103  getAdjacent(currentowner,_NEXT) */\n      jump\t// in\n    tag_115:\n        /* \"contracts/Try01/Manage.sol\":4057:4103  (,nextowner) = getAdjacent(currentowner,_NEXT) */\n      swap1\n      pop\n      dup1\n      swap2\n      pop\n      pop\n        /* \"contracts/Try01/Manage.sol\":4114:4736  while (nextowner != _NULL){... */\n    tag_116:\n        /* \"contracts/Try01/Manage.sol\":656:657  0 */\n      0x00\n        /* \"contracts/Try01/Manage.sol\":4121:4139  nextowner != _NULL */\n      0xffffffffffffffffffffffffffffffffffffffff\n      and\n        /* \"contracts/Try01/Manage.sol\":4121:4130  nextowner */\n      dup2\n        /* \"contracts/Try01/Manage.sol\":4121:4139  nextowner != _NULL */\n      0xffffffffffffffffffffffffffffffffffffffff\n      and\n      eq\n        /* \"contracts/Try01/Manage.sol\":4114:4736  while (nextowner != _NULL){... */\n      tag_117\n      jumpi\n        /* \"contracts/Try01/Manage.sol\":4175:4180  owner */\n      dup3\n        /* \"contracts/Try01/Manage.sol\":4163:4180  nextowner > owner */\n      0xffffffffffffffffffffffffffffffffffffffff\n      and\n        /* \"contracts/Try01/Manage.sol\":4163:4172  nextowner */\n      dup2\n        /* \"contracts/Try01/Manage.sol\":4163:4180  nextowner > owner */\n      0xffffffffffffffffffffffffffffffffffffffff\n      and\n      gt\n        /* \"contracts/Try01/Manage.sol\":4163:4204  nextowner > owner && currentowner < owner */\n      dup1\n      iszero\n      tag_118\n      jumpi\n      pop\n        /* \"contracts/Try01/Manage.sol\":4199:4204  owner */\n      dup3\n        /* \"contracts/Try01/Manage.sol\":4184:4204  currentowner < owner */\n      0xffffffffffffffffffffffffffffffffffffffff\n      and\n        /* \"contracts/Try01/Manage.sol\":4184:4196  currentowner */\n      dup3\n        /* \"contracts/Try01/Manage.sol\":4184:4204  currentowner < owner */\n      0xffffffffffffffffffffffffffffffffffffffff\n      and\n      lt\n        /* \"contracts/Try01/Manage.sol\":4163:4204  nextowner > owner && currentowner < owner */\n    tag_118:\n        /* \"contracts/Try01/Manage.sol\":4159:4721  if (nextowner > owner && currentowner < owner){... */\n      iszero\n      tag_119\n      jumpi\n        /* \"contracts/Try01/Manage.sol\":4228:4263  _insert(currentowner, owner, _NEXT) */\n      tag_120\n        /* \"contracts/Try01/Manage.sol\":4236:4248  currentowner */\n      dup3\n        /* \"contracts/Try01/Manage.sol\":4250:4255  owner */\n      dup5\n        /* \"contracts/Try01/Manage.sol\":558:562  true */\n      0x01\n        /* \"contracts/Try01/Manage.sol\":4228:4235  _insert */\n      tag_121\n        /* \"contracts/Try01/Manage.sol\":4228:4263  _insert(currentowner, owner, _NEXT) */\n      jump\t// in\n    tag_120:\n        /* \"contracts/Try01/Manage.sol\":4286:4291  break */\n      jump(tag_117)\n        /* \"contracts/Try01/Manage.sol\":4159:4721  if (nextowner > owner && currentowner < owner){... */\n    tag_119:\n        /* \"contracts/Try01/Manage.sol\":4373:4378  owner */\n      dup3\n        /* \"contracts/Try01/Manage.sol\":4361:4378  nextowner > owner */\n      0xffffffffffffffffffffffffffffffffffffffff\n      and\n        /* \"contracts/Try01/Manage.sol\":4361:4370  nextowner */\n      dup2\n        /* \"contracts/Try01/Manage.sol\":4361:4378  nextowner > owner */\n      0xffffffffffffffffffffffffffffffffffffffff\n      and\n      gt\n        /* \"contracts/Try01/Manage.sol\":4357:4702  if (nextowner > owner){... */\n      iszero\n      tag_123\n      jumpi\n        /* \"contracts/Try01/Manage.sol\":4418:4430  currentowner */\n      dup2\n        /* \"contracts/Try01/Manage.sol\":4406:4430  nextowner = currentowner */\n      swap1\n      pop\n        /* \"contracts/Try01/Manage.sol\":4475:4506  getAdjacent(currentowner, _PRE) */\n      tag_124\n        /* \"contracts/Try01/Manage.sol\":4487:4499  currentowner */\n      dup3\n        /* \"contracts/Try01/Manage.sol\":515:520  false */\n      0x00\n        /* \"contracts/Try01/Manage.sol\":4475:4486  getAdjacent */\n      tag_82\n        /* \"contracts/Try01/Manage.sol\":4475:4506  getAdjacent(currentowner, _PRE) */\n      jump\t// in\n    tag_124:\n        /* \"contracts/Try01/Manage.sol\":4457:4506  (,currentowner) = getAdjacent(currentowner, _PRE) */\n      swap1\n      pop\n      dup1\n      swap3\n      pop\n      pop\n        /* \"contracts/Try01/Manage.sol\":4357:4702  if (nextowner > owner){... */\n      jump(tag_125)\n    tag_123:\n        /* \"contracts/Try01/Manage.sol\":4598:4607  nextowner */\n      dup1\n        /* \"contracts/Try01/Manage.sol\":4583:4607  currentowner = nextowner */\n      swap2\n      pop\n        /* \"contracts/Try01/Manage.sol\":4649:4678  getAdjacent(nextowner, _NEXT) */\n      tag_126\n        /* \"contracts/Try01/Manage.sol\":4661:4670  nextowner */\n      dup2\n        /* \"contracts/Try01/Manage.sol\":558:562  true */\n      0x01\n        /* \"contracts/Try01/Manage.sol\":4649:4660  getAdjacent */\n      tag_82\n        /* \"contracts/Try01/Manage.sol\":4649:4678  getAdjacent(nextowner, _NEXT) */\n      jump\t// in\n    tag_126:\n        /* \"contracts/Try01/Manage.sol\":4634:4678  (,nextowner) = getAdjacent(nextowner, _NEXT) */\n      swap1\n      pop\n      dup1\n      swap2\n      pop\n      pop\n        /* \"contracts/Try01/Manage.sol\":4357:4702  if (nextowner > owner){... */\n    tag_125:\n        /* \"contracts/Try01/Manage.sol\":4114:4736  while (nextowner != _NULL){... */\n      jump(tag_116)\n    tag_117:\n        /* \"contracts/Try01/Manage.sol\":656:657  0 */\n      0x00\n        /* \"contracts/Try01/Manage.sol\":4750:4768  nextowner == _NULL */\n      0xffffffffffffffffffffffffffffffffffffffff\n      and\n        /* \"contracts/Try01/Manage.sol\":4750:4759  nextowner */\n      dup2\n        /* \"contracts/Try01/Manage.sol\":4750:4768  nextowner == _NULL */\n      0xffffffffffffffffffffffffffffffffffffffff\n      and\n      sub\n        /* \"contracts/Try01/Manage.sol\":4746:4805  if (nextowner == _NULL) _insert(currentowner, owner, _NEXT) */\n      tag_127\n      jumpi\n        /* \"contracts/Try01/Manage.sol\":4770:4805  _insert(currentowner, owner, _NEXT) */\n      tag_128\n        /* \"contracts/Try01/Manage.sol\":4778:4790  currentowner */\n      dup3\n        /* \"contracts/Try01/Manage.sol\":4792:4797  owner */\n      dup5\n        /* \"contracts/Try01/Manage.sol\":558:562  true */\n      0x01\n        /* \"contracts/Try01/Manage.sol\":4770:4777  _insert */\n      tag_121\n        /* \"contracts/Try01/Manage.sol\":4770:4805  _insert(currentowner, owner, _NEXT) */\n      jump\t// in\n    tag_128:\n        /* \"contracts/Try01/Manage.sol\":4746:4805  if (nextowner == _NULL) _insert(currentowner, owner, _NEXT) */\n    tag_127:\n        /* \"contracts/Try01/Manage.sol\":4816:4826  owners_num */\n      0x00\n      dup1\n        /* \"contracts/Try01/Manage.sol\":4816:4828  owners_num++ */\n      dup2\n      sload\n      dup1\n      swap3\n      swap2\n      swap1\n      tag_129\n      swap1\n      tag_84\n      jump\t// in\n    tag_129:\n      swap2\n      swap1\n      pop\n      sstore\n      pop\n        /* \"contracts/Try01/Manage.sol\":3882:4836  {... */\n      pop\n      pop\n        /* \"contracts/Try01/Manage.sol\":3842:4836  function addowner(address owner)public  {... */\n      pop\n      jump\t// out\n        /* \"contracts/Try01/Manage.sol\":6431:6661  function changeThresholdencode(uint256 new_threshold) public pure returns(bytes memory result) {... */\n    tag_46:\n        /* \"contracts/Try01/Manage.sol\":6505:6524  bytes memory result */\n      0x60\n        /* \"contracts/Try01/Manage.sol\":6575:6612  keccak256(\"changeThreshold(uint256)\") */\n      0x694e80c37192d74d6099f3d3b41506932ab644a24442ee51857cfeb9eb01ac2f\n        /* \"contracts/Try01/Manage.sol\":6615:6628  new_threshold */\n      dup3\n        /* \"contracts/Try01/Manage.sol\":6545:6629  abi.encodeWithSelector(bytes4(keccak256(\"changeThreshold(uint256)\")), new_threshold) */\n      add(0x24, mload(0x40))\n      tag_131\n      swap2\n      swap1\n      tag_31\n      jump\t// in\n    tag_131:\n      mload(0x40)\n      0x20\n      dup2\n      dup4\n      sub\n      sub\n      dup2\n      mstore\n      swap1\n      0x40\n      mstore\n      swap1\n      not(0xffffffffffffffffffffffffffffffffffffffffffffffffffffffff)\n      and\n      0x20\n      dup3\n      add\n      dup1\n      mload\n      0xffffffffffffffffffffffffffffffffffffffffffffffffffffffff\n      dup4\n      dup2\n      dup4\n      and\n      or\n      dup4\n      mstore\n      pop\n      pop\n      pop\n      pop\n        /* \"contracts/Try01/Manage.sol\":6537:6629  result =abi.encodeWithSelector(bytes4(keccak256(\"changeThreshold(uint256)\")), new_threshold) */\n      swap1\n      pop\n        /* \"contracts/Try01/Manage.sol\":6431:6661  function changeThresholdencode(uint256 new_threshold) public pure returns(bytes memory result) {... */\n      swap2\n      swap1\n      pop\n      jump\t// out\n        /* \"contracts/Try01/Manage.sol\":2899:3239  function changeThreshold(uint256 new_threshold)public signed{... */\n    tag_50:\n        /* \"contracts/Try01/Manage.sol\":6338:6342  this */\n      address\n        /* \"contracts/Try01/Manage.sol\":6318:6343  msg.sender==address(this) */\n      0xffffffffffffffffffffffffffffffffffffffff\n      and\n        /* \"contracts/Try01/Manage.sol\":6318:6328  msg.sender */\n      caller\n        /* \"contracts/Try01/Manage.sol\":6318:6343  msg.sender==address(this) */\n      0xffffffffffffffffffffffffffffffffffffffff\n      and\n      eq\n        /* \"contracts/Try01/Manage.sol\":6310:6361  require(msg.sender==address(this),\"Not authorized\") */\n      tag_133\n      jumpi\n      mload(0x40)\n      0x08c379a000000000000000000000000000000000000000000000000000000000\n      dup2\n      mstore\n      0x04\n      add\n      tag_134\n      swap1\n      tag_91\n      jump\t// in\n    tag_134:\n      mload(0x40)\n      dup1\n      swap2\n      sub\n      swap1\n      revert\n    tag_133:\n        /* \"contracts/Try01/Manage.sol\":3044:3054  owners_num */\n      sload(0x00)\n        /* \"contracts/Try01/Manage.sol\":3027:3040  new_threshold */\n      dup2\n        /* \"contracts/Try01/Manage.sol\":3027:3054  new_threshold <= owners_num */\n      gt\n      iszero\n        /* \"contracts/Try01/Manage.sol\":3019:3066  require(new_threshold <= owners_num, \"error02\") */\n      tag_136\n      jumpi\n      mload(0x40)\n      0x08c379a000000000000000000000000000000000000000000000000000000000\n      dup2\n      mstore\n      0x04\n      add\n      tag_137\n      swap1\n      tag_138\n      jump\t// in\n    tag_137:\n      mload(0x40)\n      dup1\n      swap2\n      sub\n      swap1\n      revert\n    tag_136:\n        /* \"contracts/Try01/Manage.sol\":3140:3141  1 */\n      0x01\n        /* \"contracts/Try01/Manage.sol\":3123:3136  new_threshold */\n      dup2\n        /* \"contracts/Try01/Manage.sol\":3123:3141  new_threshold >= 1 */\n      lt\n      iszero\n        /* \"contracts/Try01/Manage.sol\":3115:3153  require(new_threshold >= 1, \"error03\") */\n      tag_139\n      jumpi\n      mload(0x40)\n      0x08c379a000000000000000000000000000000000000000000000000000000000\n      dup2\n      mstore\n      0x04\n      add\n      tag_140\n      swap1\n      tag_141\n      jump\t// in\n    tag_140:\n      mload(0x40)\n      dup1\n      swap2\n      sub\n      swap1\n      revert\n    tag_139:\n        /* \"contracts/Try01/Manage.sol\":3176:3189  new_threshold */\n      dup1\n        /* \"contracts/Try01/Manage.sol\":3164:3173  threshold */\n      0x01\n        /* \"contracts/Try01/Manage.sol\":3164:3189  threshold = new_threshold */\n      dup2\n      swap1\n      sstore\n      pop\n        /* \"contracts/Try01/Manage.sol\":3205:3231  ChangeThreshold(threshold) */\n      0x9947ac58e204d2da07b9748298663b3b77da7fb0638201d778987ded7c90fbaa\n        /* \"contracts/Try01/Manage.sol\":3221:3230  threshold */\n      sload(0x01)\n        /* \"contracts/Try01/Manage.sol\":3205:3231  ChangeThreshold(threshold) */\n      mload(0x40)\n      tag_142\n      swap2\n      swap1\n      tag_31\n      jump\t// in\n    tag_142:\n      mload(0x40)\n      dup1\n      swap2\n      sub\n      swap1\n      log1\n        /* \"contracts/Try01/Manage.sol\":2899:3239  function changeThreshold(uint256 new_threshold)public signed{... */\n      pop\n      jump\t// out\n        /* \"contracts/Try01/Manage.sol\":3274:3362  function checkThreshold()public view returns(uint256){... */\n    tag_52:\n        /* \"contracts/Try01/Manage.sol\":3319:3326  uint256 */\n      0x00\n        /* \"contracts/Try01/Manage.sol\":3345:3354  threshold */\n      sload(0x01)\n        /* \"contracts/Try01/Manage.sol\":3338:3354  return threshold */\n      swap1\n      pop\n        /* \"contracts/Try01/Manage.sol\":3274:3362  function checkThreshold()public view returns(uint256){... */\n      swap1\n      jump\t// out\n        /* \"contracts/Try01/Manage.sol\":720:1622  function _initialwallet(address[] memory _owners,uint256 _threshold)public  {... */\n    tag_57:\n        /* \"contracts/Try01/Manage.sol\":874:875  0 */\n      0x00\n        /* \"contracts/Try01/Manage.sol\":861:870  threshold */\n      sload(0x01)\n        /* \"contracts/Try01/Manage.sol\":861:875  threshold == 0 */\n      eq\n        /* \"contracts/Try01/Manage.sol\":853:887  require(threshold == 0, \"error01\") */\n      tag_145\n      jumpi\n      mload(0x40)\n      0x08c379a000000000000000000000000000000000000000000000000000000000\n      dup2\n      mstore\n      0x04\n      add\n      tag_146\n      swap1\n      tag_147\n      jump\t// in\n    tag_146:\n      mload(0x40)\n      dup1\n      swap2\n      sub\n      swap1\n      revert\n    tag_145:\n        /* \"contracts/Try01/Manage.sol\":969:976  _owners */\n      dup2\n        /* \"contracts/Try01/Manage.sol\":969:983  _owners.length */\n      mload\n        /* \"contracts/Try01/Manage.sol\":955:965  _threshold */\n      dup2\n        /* \"contracts/Try01/Manage.sol\":955:983  _threshold <= _owners.length */\n      gt\n      iszero\n        /* \"contracts/Try01/Manage.sol\":947:995  require(_threshold <= _owners.length, \"error02\") */\n      tag_148\n      jumpi\n      mload(0x40)\n      0x08c379a000000000000000000000000000000000000000000000000000000000\n      dup2\n      mstore\n      0x04\n      add\n      tag_149\n      swap1\n      tag_138\n      jump\t// in\n    tag_149:\n      mload(0x40)\n      dup1\n      swap2\n      sub\n      swap1\n      revert\n    tag_148:\n        /* \"contracts/Try01/Manage.sol\":1066:1067  1 */\n      0x01\n        /* \"contracts/Try01/Manage.sol\":1052:1062  _threshold */\n      dup2\n        /* \"contracts/Try01/Manage.sol\":1052:1067  _threshold >= 1 */\n      lt\n      iszero\n        /* \"contracts/Try01/Manage.sol\":1044:1079  require(_threshold >= 1, \"error03\") */\n      tag_150\n      jumpi\n      mload(0x40)\n      0x08c379a000000000000000000000000000000000000000000000000000000000\n      dup2\n      mstore\n      0x04\n      add\n      tag_151\n      swap1\n      tag_141\n      jump\t// in\n    tag_151:\n      mload(0x40)\n      dup1\n      swap2\n      sub\n      swap1\n      revert\n    tag_150:\n        /* \"contracts/Try01/Manage.sol\":1124:1144  address currentowner */\n      0x00\n        /* \"contracts/Try01/Manage.sol\":707:710  0x1 */\n      0x01\n        /* \"contracts/Try01/Manage.sol\":1124:1152  address currentowner = _HEAD */\n      swap1\n      pop\n        /* \"contracts/Try01/Manage.sol\":1168:1174  uint i */\n      0x00\n        /* \"contracts/Try01/Manage.sol\":1163:1503  for (uint i=0; i<_owners.length;i++)... */\n    tag_152:\n        /* \"contracts/Try01/Manage.sol\":1180:1187  _owners */\n      dup4\n        /* \"contracts/Try01/Manage.sol\":1180:1194  _owners.length */\n      mload\n        /* \"contracts/Try01/Manage.sol\":1178:1179  i */\n      dup2\n        /* \"contracts/Try01/Manage.sol\":1178:1194  i<_owners.length */\n      lt\n        /* \"contracts/Try01/Manage.sol\":1163:1503  for (uint i=0; i<_owners.length;i++)... */\n      iszero\n      tag_153\n      jumpi\n        /* \"contracts/Try01/Manage.sol\":1224:1237  address owner */\n      0x00\n        /* \"contracts/Try01/Manage.sol\":1240:1247  _owners */\n      dup5\n        /* \"contracts/Try01/Manage.sol\":1248:1249  i */\n      dup3\n        /* \"contracts/Try01/Manage.sol\":1240:1250  _owners[i] */\n      dup2\n      mload\n      dup2\n      lt\n      tag_155\n      jumpi\n      tag_156\n      tag_80\n      jump\t// in\n    tag_156:\n    tag_155:\n      0x20\n      mul\n      0x20\n      add\n      add\n      mload\n        /* \"contracts/Try01/Manage.sol\":1224:1250  address owner = _owners[i] */\n      swap1\n      pop\n        /* \"contracts/Try01/Manage.sol\":1365:1366  0 */\n      0x00\n        /* \"contracts/Try01/Manage.sol\":1348:1367  owner != address(0) */\n      0xffffffffffffffffffffffffffffffffffffffff\n      and\n        /* \"contracts/Try01/Manage.sol\":1348:1353  owner */\n      dup2\n        /* \"contracts/Try01/Manage.sol\":1348:1367  owner != address(0) */\n      0xffffffffffffffffffffffffffffffffffffffff\n      and\n      eq\n      iszero\n        /* \"contracts/Try01/Manage.sol\":1348:1393  owner != address(0) && owner != address(this) */\n      dup1\n      iszero\n      tag_157\n      jumpi\n      pop\n        /* \"contracts/Try01/Manage.sol\":1388:1392  this */\n      address\n        /* \"contracts/Try01/Manage.sol\":1371:1393  owner != address(this) */\n      0xffffffffffffffffffffffffffffffffffffffff\n      and\n        /* \"contracts/Try01/Manage.sol\":1371:1376  owner */\n      dup2\n        /* \"contracts/Try01/Manage.sol\":1371:1393  owner != address(this) */\n      0xffffffffffffffffffffffffffffffffffffffff\n      and\n      eq\n      iszero\n        /* \"contracts/Try01/Manage.sol\":1348:1393  owner != address(0) && owner != address(this) */\n    tag_157:\n        /* \"contracts/Try01/Manage.sol\":1348:1415  owner != address(0) && owner != address(this) && !ownerExist(owner) */\n      dup1\n      iszero\n      tag_158\n      jumpi\n      pop\n        /* \"contracts/Try01/Manage.sol\":1398:1415  ownerExist(owner) */\n      tag_159\n        /* \"contracts/Try01/Manage.sol\":1409:1414  owner */\n      dup2\n        /* \"contracts/Try01/Manage.sol\":1398:1408  ownerExist */\n      tag_63\n        /* \"contracts/Try01/Manage.sol\":1398:1415  ownerExist(owner) */\n      jump\t// in\n    tag_159:\n        /* \"contracts/Try01/Manage.sol\":1397:1415  !ownerExist(owner) */\n      iszero\n        /* \"contracts/Try01/Manage.sol\":1348:1415  owner != address(0) && owner != address(this) && !ownerExist(owner) */\n    tag_158:\n        /* \"contracts/Try01/Manage.sol\":1340:1426  require(owner != address(0) && owner != address(this) && !ownerExist(owner),\"error04\") */\n      tag_160\n      jumpi\n      mload(0x40)\n      0x08c379a000000000000000000000000000000000000000000000000000000000\n      dup2\n      mstore\n      0x04\n      add\n      tag_161\n      swap1\n      tag_102\n      jump\t// in\n    tag_161:\n      mload(0x40)\n      dup1\n      swap2\n      sub\n      swap1\n      revert\n    tag_160:\n        /* \"contracts/Try01/Manage.sol\":1441:1456  addowner(owner) */\n      tag_162\n        /* \"contracts/Try01/Manage.sol\":1450:1455  owner */\n      dup2\n        /* \"contracts/Try01/Manage.sol\":1441:1449  addowner */\n      tag_42\n        /* \"contracts/Try01/Manage.sol\":1441:1456  addowner(owner) */\n      jump\t// in\n    tag_162:\n        /* \"contracts/Try01/Manage.sol\":1486:1491  owner */\n      dup1\n        /* \"contracts/Try01/Manage.sol\":1471:1491  currentowner = owner */\n      swap3\n      pop\n        /* \"contracts/Try01/Manage.sol\":1209:1503  {... */\n      pop\n        /* \"contracts/Try01/Manage.sol\":1195:1198  i++ */\n      dup1\n      dup1\n      tag_163\n      swap1\n      tag_84\n      jump\t// in\n    tag_163:\n      swap2\n      pop\n      pop\n        /* \"contracts/Try01/Manage.sol\":1163:1503  for (uint i=0; i<_owners.length;i++)... */\n      jump(tag_152)\n    tag_153:\n      pop\n        /* \"contracts/Try01/Manage.sol\":1556:1566  _threshold */\n      dup2\n        /* \"contracts/Try01/Manage.sol\":1544:1553  threshold */\n      0x01\n        /* \"contracts/Try01/Manage.sol\":1544:1566  threshold = _threshold */\n      dup2\n      swap1\n      sstore\n      pop\n        /* \"contracts/Try01/Manage.sol\":1590:1597  _owners */\n      dup3\n        /* \"contracts/Try01/Manage.sol\":1590:1604  _owners.length */\n      mload\n        /* \"contracts/Try01/Manage.sol\":1577:1587  owners_num */\n      0x00\n        /* \"contracts/Try01/Manage.sol\":1577:1604  owners_num = _owners.length */\n      dup2\n      swap1\n      sstore\n      pop\n        /* \"contracts/Try01/Manage.sol\":796:1622  {... */\n      pop\n        /* \"contracts/Try01/Manage.sol\":720:1622  function _initialwallet(address[] memory _owners,uint256 _threshold)public  {... */\n      pop\n      pop\n      jump\t// out\n        /* \"contracts/Try01/Manage.sol\":2365:2810  function removeOwners(address preowner, uint256 new_threshold)public signed{... */\n    tag_60:\n        /* \"contracts/Try01/Manage.sol\":6338:6342  this */\n      address\n        /* \"contracts/Try01/Manage.sol\":6318:6343  msg.sender==address(this) */\n      0xffffffffffffffffffffffffffffffffffffffff\n      and\n        /* \"contracts/Try01/Manage.sol\":6318:6328  msg.sender */\n      caller\n        /* \"contracts/Try01/Manage.sol\":6318:6343  msg.sender==address(this) */\n      0xffffffffffffffffffffffffffffffffffffffff\n      and\n      eq\n        /* \"contracts/Try01/Manage.sol\":6310:6361  require(msg.sender==address(this),\"Not authorized\") */\n      tag_165\n      jumpi\n      mload(0x40)\n      0x08c379a000000000000000000000000000000000000000000000000000000000\n      dup2\n      mstore\n      0x04\n      add\n      tag_166\n      swap1\n      tag_91\n      jump\t// in\n    tag_166:\n      mload(0x40)\n      dup1\n      swap2\n      sub\n      swap1\n      revert\n    tag_165:\n        /* \"contracts/Try01/Manage.sol\":2519:2532  new_threshold */\n      dup1\n        /* \"contracts/Try01/Manage.sol\":2515:2516  1 */\n      0x01\n        /* \"contracts/Try01/Manage.sol\":2502:2512  owners_num */\n      sload(0x00)\n        /* \"contracts/Try01/Manage.sol\":2502:2516  owners_num - 1 */\n      tag_168\n      swap2\n      swap1\n      tag_169\n      jump\t// in\n    tag_168:\n        /* \"contracts/Try01/Manage.sol\":2502:2532  owners_num - 1 >=new_threshold */\n      lt\n      iszero\n        /* \"contracts/Try01/Manage.sol\":2494:2543  require(owners_num - 1 >=new_threshold,\"error02\") */\n      tag_170\n      jumpi\n      mload(0x40)\n      0x08c379a000000000000000000000000000000000000000000000000000000000\n      dup2\n      mstore\n      0x04\n      add\n      tag_171\n      swap1\n      tag_138\n      jump\t// in\n    tag_171:\n      mload(0x40)\n      dup1\n      swap2\n      sub\n      swap1\n      revert\n    tag_170:\n        /* \"contracts/Try01/Manage.sol\":2602:2622  ownerExist(preowner) */\n      tag_172\n        /* \"contracts/Try01/Manage.sol\":2613:2621  preowner */\n      dup3\n        /* \"contracts/Try01/Manage.sol\":2602:2612  ownerExist */\n      tag_63\n        /* \"contracts/Try01/Manage.sol\":2602:2622  ownerExist(preowner) */\n      jump\t// in\n    tag_172:\n        /* \"contracts/Try01/Manage.sol\":2594:2633  require(ownerExist(preowner),\"error07\") */\n      tag_173\n      jumpi\n      mload(0x40)\n      0x08c379a000000000000000000000000000000000000000000000000000000000\n      dup2\n      mstore\n      0x04\n      add\n      tag_174\n      swap1\n      tag_175\n      jump\t// in\n    tag_174:\n      mload(0x40)\n      dup1\n      swap2\n      sub\n      swap1\n      revert\n    tag_173:\n        /* \"contracts/Try01/Manage.sol\":2672:2693  removeowner(preowner) */\n      tag_176\n        /* \"contracts/Try01/Manage.sol\":2684:2692  preowner */\n      dup3\n        /* \"contracts/Try01/Manage.sol\":2672:2683  removeowner */\n      tag_177\n        /* \"contracts/Try01/Manage.sol\":2672:2693  removeowner(preowner) */\n      jump\t// in\n    tag_176:\n        /* \"contracts/Try01/Manage.sol\":2721:2729  preowner */\n      dup2\n        /* \"contracts/Try01/Manage.sol\":2709:2730  RemoveOwner(preowner) */\n      0xffffffffffffffffffffffffffffffffffffffff\n      and\n      0xac6e8398676cf37429d530b81144d7079e99f4fe9d28b0d88c4a749ceccbe8cd\n      mload(0x40)\n      mload(0x40)\n      dup1\n      swap2\n      sub\n      swap1\n      log2\n        /* \"contracts/Try01/Manage.sol\":2761:2770  threshold */\n      sload(0x01)\n        /* \"contracts/Try01/Manage.sol\":2744:2757  new_threshold */\n      dup2\n        /* \"contracts/Try01/Manage.sol\":2744:2770  new_threshold != threshold */\n      eq\n        /* \"contracts/Try01/Manage.sol\":2741:2802  if(new_threshold != threshold) changeThreshold(new_threshold) */\n      tag_178\n      jumpi\n        /* \"contracts/Try01/Manage.sol\":2772:2802  changeThreshold(new_threshold) */\n      tag_179\n        /* \"contracts/Try01/Manage.sol\":2788:2801  new_threshold */\n      dup2\n        /* \"contracts/Try01/Manage.sol\":2772:2787  changeThreshold */\n      tag_50\n        /* \"contracts/Try01/Manage.sol\":2772:2802  changeThreshold(new_threshold) */\n      jump\t// in\n    tag_179:\n        /* \"contracts/Try01/Manage.sol\":2741:2802  if(new_threshold != threshold) changeThreshold(new_threshold) */\n    tag_178:\n        /* \"contracts/Try01/Manage.sol\":2365:2810  function removeOwners(address preowner, uint256 new_threshold)public signed{... */\n      pop\n      pop\n      jump\t// out\n        /* \"contracts/Try01/Manage.sol\":5499:5652  function ownerExist(address _owner)public view returns (bool){... */\n    tag_63:\n        /* \"contracts/Try01/Manage.sol\":5555:5559  bool */\n      0x00\n        /* \"contracts/Try01/Manage.sol\":656:657  0 */\n      dup1\n        /* \"contracts/Try01/Manage.sol\":5579:5608  owners[_owner][_PRE] != _NULL */\n      0xffffffffffffffffffffffffffffffffffffffff\n      and\n        /* \"contracts/Try01/Manage.sol\":5579:5585  owners */\n      0x02\n        /* \"contracts/Try01/Manage.sol\":5579:5593  owners[_owner] */\n      0x00\n        /* \"contracts/Try01/Manage.sol\":5586:5592  _owner */\n      dup5\n        /* \"contracts/Try01/Manage.sol\":5579:5593  owners[_owner] */\n      0xffffffffffffffffffffffffffffffffffffffff\n      and\n      0xffffffffffffffffffffffffffffffffffffffff\n      and\n      dup2\n      mstore\n      0x20\n      add\n      swap1\n      dup2\n      mstore\n      0x20\n      add\n      0x00\n      keccak256\n        /* \"contracts/Try01/Manage.sol\":5579:5599  owners[_owner][_PRE] */\n      0x00\n        /* \"contracts/Try01/Manage.sol\":515:520  false */\n      dup1\n        /* \"contracts/Try01/Manage.sol\":5579:5599  owners[_owner][_PRE] */\n      iszero\n      iszero\n      iszero\n      iszero\n      dup2\n      mstore\n      0x20\n      add\n      swap1\n      dup2\n      mstore\n      0x20\n      add\n      0x00\n      keccak256\n      0x00\n      swap1\n      sload\n      swap1\n      0x0100\n      exp\n      swap1\n      div\n      0xffffffffffffffffffffffffffffffffffffffff\n      and\n        /* \"contracts/Try01/Manage.sol\":5579:5608  owners[_owner][_PRE] != _NULL */\n      0xffffffffffffffffffffffffffffffffffffffff\n      and\n      eq\n      iszero\n        /* \"contracts/Try01/Manage.sol\":5579:5642  owners[_owner][_PRE] != _NULL || owners[_owner][_NEXT] != _NULL */\n      dup1\n      tag_181\n      jumpi\n      pop\n        /* \"contracts/Try01/Manage.sol\":656:657  0 */\n      0x00\n        /* \"contracts/Try01/Manage.sol\":5612:5642  owners[_owner][_NEXT] != _NULL */\n      0xffffffffffffffffffffffffffffffffffffffff\n      and\n        /* \"contracts/Try01/Manage.sol\":5612:5618  owners */\n      0x02\n        /* \"contracts/Try01/Manage.sol\":5612:5626  owners[_owner] */\n      0x00\n        /* \"contracts/Try01/Manage.sol\":5619:5625  _owner */\n      dup5\n        /* \"contracts/Try01/Manage.sol\":5612:5626  owners[_owner] */\n      0xffffffffffffffffffffffffffffffffffffffff\n      and\n      0xffffffffffffffffffffffffffffffffffffffff\n      and\n      dup2\n      mstore\n      0x20\n      add\n      swap1\n      dup2\n      mstore\n      0x20\n      add\n      0x00\n      keccak256\n        /* \"contracts/Try01/Manage.sol\":5612:5633  owners[_owner][_NEXT] */\n      0x00\n        /* \"contracts/Try01/Manage.sol\":558:562  true */\n      0x01\n        /* \"contracts/Try01/Manage.sol\":5612:5633  owners[_owner][_NEXT] */\n      iszero\n      iszero\n      iszero\n      iszero\n      dup2\n      mstore\n      0x20\n      add\n      swap1\n      dup2\n      mstore\n      0x20\n      add\n      0x00\n      keccak256\n      0x00\n      swap1\n      sload\n      swap1\n      0x0100\n      exp\n      swap1\n      div\n      0xffffffffffffffffffffffffffffffffffffffff\n      and\n        /* \"contracts/Try01/Manage.sol\":5612:5642  owners[_owner][_NEXT] != _NULL */\n      0xffffffffffffffffffffffffffffffffffffffff\n      and\n      eq\n      iszero\n        /* \"contracts/Try01/Manage.sol\":5579:5642  owners[_owner][_PRE] != _NULL || owners[_owner][_NEXT] != _NULL */\n    tag_181:\n        /* \"contracts/Try01/Manage.sol\":5571:5643  return (owners[_owner][_PRE] != _NULL || owners[_owner][_NEXT] != _NULL) */\n      swap1\n      pop\n        /* \"contracts/Try01/Manage.sol\":5499:5652  function ownerExist(address _owner)public view returns (bool){... */\n      swap2\n      swap1\n      pop\n      jump\t// out\n        /* \"contracts/Try01/Manage.sol\":6709:6936  function addOwnersencode(address x, uint256 y) public pure returns(bytes memory result) {... */\n    tag_68:\n        /* \"contracts/Try01/Manage.sol\":6776:6795  bytes memory result */\n      0x60\n        /* \"contracts/Try01/Manage.sol\":6846:6898  keccak256(\"addOwnersAndThreshold(address, uint256)\") */\n      0x0f6fd209ba0161acfd0f4d4fa947b5907845ed1e66071e030be54ba4c310c5a6\n        /* \"contracts/Try01/Manage.sol\":6900:6901  x */\n      dup4\n        /* \"contracts/Try01/Manage.sol\":6902:6903  y */\n      dup4\n        /* \"contracts/Try01/Manage.sol\":6816:6904  abi.encodeWithSelector(bytes4(keccak256(\"addOwnersAndThreshold(address, uint256)\")),x,y) */\n      add(0x24, mload(0x40))\n      tag_183\n      swap3\n      swap2\n      swap1\n      tag_108\n      jump\t// in\n    tag_183:\n      mload(0x40)\n      0x20\n      dup2\n      dup4\n      sub\n      sub\n      dup2\n      mstore\n      swap1\n      0x40\n      mstore\n      swap1\n      not(0xffffffffffffffffffffffffffffffffffffffffffffffffffffffff)\n      and\n      0x20\n      dup3\n      add\n      dup1\n      mload\n      0xffffffffffffffffffffffffffffffffffffffffffffffffffffffff\n      dup4\n      dup2\n      dup4\n      and\n      or\n      dup4\n      mstore\n      pop\n      pop\n      pop\n      pop\n        /* \"contracts/Try01/Manage.sol\":6808:6904  result =abi.encodeWithSelector(bytes4(keccak256(\"addOwnersAndThreshold(address, uint256)\")),x,y) */\n      swap1\n      pop\n        /* \"contracts/Try01/Manage.sol\":6709:6936  function addOwnersencode(address x, uint256 y) public pure returns(bytes memory result) {... */\n      swap3\n      swap2\n      pop\n      pop\n      jump\t// out\n        /* \"contracts/Try01/Manage.sol\":5918:6171  function getAdjacent(address owner, bool _direction)internal view returns (bool, address) {... */\n    tag_82:\n        /* \"contracts/Try01/Manage.sol\":5993:5997  bool */\n      0x00\n        /* \"contracts/Try01/Manage.sol\":5999:6006  address */\n      dup1\n        /* \"contracts/Try01/Manage.sol\":6024:6041  ownerExist(owner) */\n      tag_185\n        /* \"contracts/Try01/Manage.sol\":6035:6040  owner */\n      dup5\n        /* \"contracts/Try01/Manage.sol\":6024:6034  ownerExist */\n      tag_63\n        /* \"contracts/Try01/Manage.sol\":6024:6041  ownerExist(owner) */\n      jump\t// in\n    tag_185:\n        /* \"contracts/Try01/Manage.sol\":6019:6164  if (!ownerExist(owner)) {... */\n      tag_186\n      jumpi\n        /* \"contracts/Try01/Manage.sol\":6066:6071  false */\n      0x00\n        /* \"contracts/Try01/Manage.sol\":656:657  0 */\n      dup1\n        /* \"contracts/Try01/Manage.sol\":6058:6079  return (false, _NULL) */\n      swap2\n      pop\n      swap2\n      pop\n      jump(tag_184)\n        /* \"contracts/Try01/Manage.sol\":6019:6164  if (!ownerExist(owner)) {... */\n    tag_186:\n        /* \"contracts/Try01/Manage.sol\":6120:6124  true */\n      0x01\n        /* \"contracts/Try01/Manage.sol\":6126:6132  owners */\n      0x02\n        /* \"contracts/Try01/Manage.sol\":6126:6139  owners[owner] */\n      0x00\n        /* \"contracts/Try01/Manage.sol\":6133:6138  owner */\n      dup7\n        /* \"contracts/Try01/Manage.sol\":6126:6139  owners[owner] */\n      0xffffffffffffffffffffffffffffffffffffffff\n      and\n      0xffffffffffffffffffffffffffffffffffffffff\n      and\n      dup2\n      mstore\n      0x20\n      add\n      swap1\n      dup2\n      mstore\n      0x20\n      add\n      0x00\n      keccak256\n        /* \"contracts/Try01/Manage.sol\":6126:6151  owners[owner][_direction] */\n      0x00\n        /* \"contracts/Try01/Manage.sol\":6140:6150  _direction */\n      dup6\n        /* \"contracts/Try01/Manage.sol\":6126:6151  owners[owner][_direction] */\n      iszero\n      iszero\n      iszero\n      iszero\n      dup2\n      mstore\n      0x20\n      add\n      swap1\n      dup2\n      mstore\n      0x20\n      add\n      0x00\n      keccak256\n      0x00\n      swap1\n      sload\n      swap1\n      0x0100\n      exp\n      swap1\n      div\n      0xffffffffffffffffffffffffffffffffffffffff\n      and\n        /* \"contracts/Try01/Manage.sol\":6112:6152  return (true, owners[owner][_direction]) */\n      swap2\n      pop\n      swap2\n      pop\n        /* \"contracts/Try01/Manage.sol\":5918:6171  function getAdjacent(address owner, bool _direction)internal view returns (bool, address) {... */\n    tag_184:\n      swap3\n      pop\n      swap3\n      swap1\n      pop\n      jump\t// out\n        /* \"contracts/Try01/Manage.sol\":5200:5448  function _insert( address _owner, address _newowner, bool _direction)internal {... */\n    tag_121:\n        /* \"contracts/Try01/Manage.sol\":5299:5308  address c */\n      0x00\n        /* \"contracts/Try01/Manage.sol\":5311:5317  owners */\n      0x02\n        /* \"contracts/Try01/Manage.sol\":5311:5325  owners[_owner] */\n      0x00\n        /* \"contracts/Try01/Manage.sol\":5318:5324  _owner */\n      dup6\n        /* \"contracts/Try01/Manage.sol\":5311:5325  owners[_owner] */\n      0xffffffffffffffffffffffffffffffffffffffff\n      and\n      0xffffffffffffffffffffffffffffffffffffffff\n      and\n      dup2\n      mstore\n      0x20\n      add\n      swap1\n      dup2\n      mstore\n      0x20\n      add\n      0x00\n      keccak256\n        /* \"contracts/Try01/Manage.sol\":5311:5337  owners[_owner][_direction] */\n      0x00\n        /* \"contracts/Try01/Manage.sol\":5326:5336  _direction */\n      dup4\n        /* \"contracts/Try01/Manage.sol\":5311:5337  owners[_owner][_direction] */\n      iszero\n      iszero\n      iszero\n      iszero\n      dup2\n      mstore\n      0x20\n      add\n      swap1\n      dup2\n      mstore\n      0x20\n      add\n      0x00\n      keccak256\n      0x00\n      swap1\n      sload\n      swap1\n      0x0100\n      exp\n      swap1\n      div\n      0xffffffffffffffffffffffffffffffffffffffff\n      and\n        /* \"contracts/Try01/Manage.sol\":5299:5337  address c = owners[_owner][_direction] */\n      swap1\n      pop\n        /* \"contracts/Try01/Manage.sol\":5348:5390  _createLink(_owner, _newowner, _direction) */\n      tag_189\n        /* \"contracts/Try01/Manage.sol\":5360:5366  _owner */\n      dup5\n        /* \"contracts/Try01/Manage.sol\":5368:5377  _newowner */\n      dup5\n        /* \"contracts/Try01/Manage.sol\":5379:5389  _direction */\n      dup5\n        /* \"contracts/Try01/Manage.sol\":5348:5359  _createLink */\n      tag_190\n        /* \"contracts/Try01/Manage.sol\":5348:5390  _createLink(_owner, _newowner, _direction) */\n      jump\t// in\n    tag_189:\n        /* \"contracts/Try01/Manage.sol\":5401:5438  _createLink(_newowner, c, _direction) */\n      tag_191\n        /* \"contracts/Try01/Manage.sol\":5413:5422  _newowner */\n      dup4\n        /* \"contracts/Try01/Manage.sol\":5424:5425  c */\n      dup3\n        /* \"contracts/Try01/Manage.sol\":5427:5437  _direction */\n      dup5\n        /* \"contracts/Try01/Manage.sol\":5401:5412  _createLink */\n      tag_190\n        /* \"contracts/Try01/Manage.sol\":5401:5438  _createLink(_newowner, c, _direction) */\n      jump\t// in\n    tag_191:\n        /* \"contracts/Try01/Manage.sol\":5278:5448  {... */\n      pop\n        /* \"contracts/Try01/Manage.sol\":5200:5448  function _insert( address _owner, address _newowner, bool _direction)internal {... */\n      pop\n      pop\n      pop\n      jump\t// out\n        /* \"contracts/Try01/Manage.sol\":4874:5161  function removeowner(address preowner)internal {... */\n    tag_177:\n        /* \"contracts/Try01/Manage.sol\":4940:4960  ownerExist(preowner) */\n      tag_193\n        /* \"contracts/Try01/Manage.sol\":4951:4959  preowner */\n      dup2\n        /* \"contracts/Try01/Manage.sol\":4940:4950  ownerExist */\n      tag_63\n        /* \"contracts/Try01/Manage.sol\":4940:4960  ownerExist(preowner) */\n      jump\t// in\n    tag_193:\n        /* \"contracts/Try01/Manage.sol\":4932:4971  require(ownerExist(preowner),\"error07\") */\n      tag_194\n      jumpi\n      mload(0x40)\n      0x08c379a000000000000000000000000000000000000000000000000000000000\n      dup2\n      mstore\n      0x04\n      add\n      tag_195\n      swap1\n      tag_175\n      jump\t// in\n    tag_195:\n      mload(0x40)\n      dup1\n      swap2\n      sub\n      swap1\n      revert\n    tag_194:\n        /* \"contracts/Try01/Manage.sol\":4982:5049  _createLink(owners[preowner][_PRE], owners[preowner][_NEXT], _NEXT) */\n      tag_196\n        /* \"contracts/Try01/Manage.sol\":4994:5000  owners */\n      0x02\n        /* \"contracts/Try01/Manage.sol\":4994:5010  owners[preowner] */\n      0x00\n        /* \"contracts/Try01/Manage.sol\":5001:5009  preowner */\n      dup4\n        /* \"contracts/Try01/Manage.sol\":4994:5010  owners[preowner] */\n      0xffffffffffffffffffffffffffffffffffffffff\n      and\n      0xffffffffffffffffffffffffffffffffffffffff\n      and\n      dup2\n      mstore\n      0x20\n      add\n      swap1\n      dup2\n      mstore\n      0x20\n      add\n      0x00\n      keccak256\n        /* \"contracts/Try01/Manage.sol\":4994:5016  owners[preowner][_PRE] */\n      0x00\n        /* \"contracts/Try01/Manage.sol\":515:520  false */\n      dup1\n        /* \"contracts/Try01/Manage.sol\":4994:5016  owners[preowner][_PRE] */\n      iszero\n      iszero\n      iszero\n      iszero\n      dup2\n      mstore\n      0x20\n      add\n      swap1\n      dup2\n      mstore\n      0x20\n      add\n      0x00\n      keccak256\n      0x00\n      swap1\n      sload\n      swap1\n      0x0100\n      exp\n      swap1\n      div\n      0xffffffffffffffffffffffffffffffffffffffff\n      and\n        /* \"contracts/Try01/Manage.sol\":5018:5024  owners */\n      0x02\n        /* \"contracts/Try01/Manage.sol\":5018:5034  owners[preowner] */\n      0x00\n        /* \"contracts/Try01/Manage.sol\":5025:5033  preowner */\n      dup5\n        /* \"contracts/Try01/Manage.sol\":5018:5034  owners[preowner] */\n      0xffffffffffffffffffffffffffffffffffffffff\n      and\n      0xffffffffffffffffffffffffffffffffffffffff\n      and\n      dup2\n      mstore\n      0x20\n      add\n      swap1\n      dup2\n      mstore\n      0x20\n      add\n      0x00\n      keccak256\n        /* \"contracts/Try01/Manage.sol\":5018:5041  owners[preowner][_NEXT] */\n      0x00\n        /* \"contracts/Try01/Manage.sol\":558:562  true */\n      0x01\n        /* \"contracts/Try01/Manage.sol\":5018:5041  owners[preowner][_NEXT] */\n      iszero\n      iszero\n      iszero\n      iszero\n      dup2\n      mstore\n      0x20\n      add\n      swap1\n      dup2\n      mstore\n      0x20\n      add\n      0x00\n      keccak256\n      0x00\n      swap1\n      sload\n      swap1\n      0x0100\n      exp\n      swap1\n      div\n      0xffffffffffffffffffffffffffffffffffffffff\n      and\n        /* \"contracts/Try01/Manage.sol\":558:562  true */\n      0x01\n        /* \"contracts/Try01/Manage.sol\":4982:4993  _createLink */\n      tag_190\n        /* \"contracts/Try01/Manage.sol\":4982:5049  _createLink(owners[preowner][_PRE], owners[preowner][_NEXT], _NEXT) */\n      jump\t// in\n    tag_196:\n        /* \"contracts/Try01/Manage.sol\":5067:5073  owners */\n      0x02\n        /* \"contracts/Try01/Manage.sol\":5067:5083  owners[preowner] */\n      0x00\n        /* \"contracts/Try01/Manage.sol\":5074:5082  preowner */\n      dup3\n        /* \"contracts/Try01/Manage.sol\":5067:5083  owners[preowner] */\n      0xffffffffffffffffffffffffffffffffffffffff\n      and\n      0xffffffffffffffffffffffffffffffffffffffff\n      and\n      dup2\n      mstore\n      0x20\n      add\n      swap1\n      dup2\n      mstore\n      0x20\n      add\n      0x00\n      keccak256\n        /* \"contracts/Try01/Manage.sol\":5067:5089  owners[preowner][_PRE] */\n      0x00\n        /* \"contracts/Try01/Manage.sol\":515:520  false */\n      dup1\n        /* \"contracts/Try01/Manage.sol\":5067:5089  owners[preowner][_PRE] */\n      iszero\n      iszero\n      iszero\n      iszero\n      dup2\n      mstore\n      0x20\n      add\n      swap1\n      dup2\n      mstore\n      0x20\n      add\n      0x00\n      keccak256\n      0x00\n        /* \"contracts/Try01/Manage.sol\":5060:5089  delete owners[preowner][_PRE] */\n      0x0100\n      exp\n      dup2\n      sload\n      swap1\n      0xffffffffffffffffffffffffffffffffffffffff\n      mul\n      not\n      and\n      swap1\n      sstore\n        /* \"contracts/Try01/Manage.sol\":5107:5113  owners */\n      0x02\n        /* \"contracts/Try01/Manage.sol\":5107:5123  owners[preowner] */\n      0x00\n        /* \"contracts/Try01/Manage.sol\":5114:5122  preowner */\n      dup3\n        /* \"contracts/Try01/Manage.sol\":5107:5123  owners[preowner] */\n      0xffffffffffffffffffffffffffffffffffffffff\n      and\n      0xffffffffffffffffffffffffffffffffffffffff\n      and\n      dup2\n      mstore\n      0x20\n      add\n      swap1\n      dup2\n      mstore\n      0x20\n      add\n      0x00\n      keccak256\n        /* \"contracts/Try01/Manage.sol\":5107:5130  owners[preowner][_NEXT] */\n      0x00\n        /* \"contracts/Try01/Manage.sol\":558:562  true */\n      0x01\n        /* \"contracts/Try01/Manage.sol\":5107:5130  owners[preowner][_NEXT] */\n      iszero\n      iszero\n      iszero\n      iszero\n      dup2\n      mstore\n      0x20\n      add\n      swap1\n      dup2\n      mstore\n      0x20\n      add\n      0x00\n      keccak256\n      0x00\n        /* \"contracts/Try01/Manage.sol\":5100:5130  delete owners[preowner][_NEXT] */\n      0x0100\n      exp\n      dup2\n      sload\n      swap1\n      0xffffffffffffffffffffffffffffffffffffffff\n      mul\n      not\n      and\n      swap1\n      sstore\n        /* \"contracts/Try01/Manage.sol\":5141:5151  owners_num */\n      0x00\n      dup1\n        /* \"contracts/Try01/Manage.sol\":5141:5153  owners_num-- */\n      dup2\n      sload\n      dup1\n      swap3\n      swap2\n      swap1\n      tag_197\n      swap1\n      tag_198\n      jump\t// in\n    tag_197:\n      swap2\n      swap1\n      pop\n      sstore\n      pop\n        /* \"contracts/Try01/Manage.sol\":4874:5161  function removeowner(address preowner)internal {... */\n      pop\n      jump\t// out\n        /* \"contracts/Try01/Manage.sol\":5682:5882  function _createLink(address _preowner, address _nextowner, bool _direction)internal {... */\n    tag_190:\n        /* \"contracts/Try01/Manage.sol\":5812:5821  _preowner */\n      dup3\n        /* \"contracts/Try01/Manage.sol\":5778:5784  owners */\n      0x02\n        /* \"contracts/Try01/Manage.sol\":5778:5796  owners[_nextowner] */\n      0x00\n        /* \"contracts/Try01/Manage.sol\":5785:5795  _nextowner */\n      dup5\n        /* \"contracts/Try01/Manage.sol\":5778:5796  owners[_nextowner] */\n      0xffffffffffffffffffffffffffffffffffffffff\n      and\n      0xffffffffffffffffffffffffffffffffffffffff\n      and\n      dup2\n      mstore\n      0x20\n      add\n      swap1\n      dup2\n      mstore\n      0x20\n      add\n      0x00\n      keccak256\n        /* \"contracts/Try01/Manage.sol\":5778:5809  owners[_nextowner][!_direction] */\n      0x00\n        /* \"contracts/Try01/Manage.sol\":5798:5808  _direction */\n      dup4\n        /* \"contracts/Try01/Manage.sol\":5797:5808  !_direction */\n      iszero\n        /* \"contracts/Try01/Manage.sol\":5778:5809  owners[_nextowner][!_direction] */\n      iszero\n      iszero\n      iszero\n      iszero\n      dup2\n      mstore\n      0x20\n      add\n      swap1\n      dup2\n      mstore\n      0x20\n      add\n      0x00\n      keccak256\n      0x00\n        /* \"contracts/Try01/Manage.sol\":5778:5821  owners[_nextowner][!_direction] = _preowner */\n      0x0100\n      exp\n      dup2\n      sload\n      dup2\n      0xffffffffffffffffffffffffffffffffffffffff\n      mul\n      not\n      and\n      swap1\n      dup4\n      0xffffffffffffffffffffffffffffffffffffffff\n      and\n      mul\n      or\n      swap1\n      sstore\n      pop\n        /* \"contracts/Try01/Manage.sol\":5864:5874  _nextowner */\n      dup2\n        /* \"contracts/Try01/Manage.sol\":5832:5838  owners */\n      0x02\n        /* \"contracts/Try01/Manage.sol\":5832:5849  owners[_preowner] */\n      0x00\n        /* \"contracts/Try01/Manage.sol\":5839:5848  _preowner */\n      dup6\n        /* \"contracts/Try01/Manage.sol\":5832:5849  owners[_preowner] */\n      0xffffffffffffffffffffffffffffffffffffffff\n      and\n      0xffffffffffffffffffffffffffffffffffffffff\n      and\n      dup2\n      mstore\n      0x20\n      add\n      swap1\n      dup2\n      mstore\n      0x20\n      add\n      0x00\n      keccak256\n        /* \"contracts/Try01/Manage.sol\":5832:5861  owners[_preowner][_direction] */\n      0x00\n        /* \"contracts/Try01/Manage.sol\":5850:5860  _direction */\n      dup4\n        /* \"contracts/Try01/Manage.sol\":5832:5861  owners[_preowner][_direction] */\n      iszero\n      iszero\n      iszero\n      iszero\n      dup2\n      mstore\n      0x20\n      add\n      swap1\n      dup2\n      mstore\n      0x20\n      add\n      0x00\n      keccak256\n      0x00\n        /* \"contracts/Try01/Manage.sol\":5832:5874  owners[_preowner][_direction] = _nextowner */\n      0x0100\n      exp\n      dup2\n      sload\n      dup2\n      0xffffffffffffffffffffffffffffffffffffffff\n      mul\n      not\n      and\n      swap1\n      dup4\n      0xffffffffffffffffffffffffffffffffffffffff\n      and\n      mul\n      or\n      swap1\n      sstore\n      pop\n        /* \"contracts/Try01/Manage.sol\":5682:5882  function _createLink(address _preowner, address _nextowner, bool _direction)internal {... */\n      pop\n      pop\n      pop\n      jump\t// out\n        /* \"#utility.yul\":7:121   */\n    tag_200:\n        /* \"#utility.yul\":74:80   */\n      0x00\n        /* \"#utility.yul\":108:113   */\n      dup2\n        /* \"#utility.yul\":102:114   */\n      mload\n        /* \"#utility.yul\":92:114   */\n      swap1\n      pop\n        /* \"#utility.yul\":7:121   */\n      swap2\n      swap1\n      pop\n      jump\t// out\n        /* \"#utility.yul\":127:311   */\n    tag_201:\n        /* \"#utility.yul\":226:237   */\n      0x00\n        /* \"#utility.yul\":260:266   */\n      dup3\n        /* \"#utility.yul\":255:258   */\n      dup3\n        /* \"#utility.yul\":248:267   */\n      mstore\n        /* \"#utility.yul\":300:304   */\n      0x20\n        /* \"#utility.yul\":295:298   */\n      dup3\n        /* \"#utility.yul\":291:305   */\n      add\n        /* \"#utility.yul\":276:305   */\n      swap1\n      pop\n        /* \"#utility.yul\":127:311   */\n      swap3\n      swap2\n      pop\n      pop\n      jump\t// out\n        /* \"#utility.yul\":317:449   */\n    tag_202:\n        /* \"#utility.yul\":384:388   */\n      0x00\n        /* \"#utility.yul\":407:410   */\n      dup2\n        /* \"#utility.yul\":399:410   */\n      swap1\n      pop\n        /* \"#utility.yul\":437:441   */\n      0x20\n        /* \"#utility.yul\":432:435   */\n      dup3\n        /* \"#utility.yul\":428:442   */\n      add\n        /* \"#utility.yul\":420:442   */\n      swap1\n      pop\n        /* \"#utility.yul\":317:449   */\n      swap2\n      swap1\n      pop\n      jump\t// out\n        /* \"#utility.yul\":455:581   */\n    tag_203:\n        /* \"#utility.yul\":492:499   */\n      0x00\n        /* \"#utility.yul\":532:574   */\n      0xffffffffffffffffffffffffffffffffffffffff\n        /* \"#utility.yul\":525:530   */\n      dup3\n        /* \"#utility.yul\":521:575   */\n      and\n        /* \"#utility.yul\":510:575   */\n      swap1\n      pop\n        /* \"#utility.yul\":455:581   */\n      swap2\n      swap1\n      pop\n      jump\t// out\n        /* \"#utility.yul\":587:683   */\n    tag_204:\n        /* \"#utility.yul\":624:631   */\n      0x00\n        /* \"#utility.yul\":653:677   */\n      tag_253\n        /* \"#utility.yul\":671:676   */\n      dup3\n        /* \"#utility.yul\":653:677   */\n      tag_203\n      jump\t// in\n    tag_253:\n        /* \"#utility.yul\":642:677   */\n      swap1\n      pop\n        /* \"#utility.yul\":587:683   */\n      swap2\n      swap1\n      pop\n      jump\t// out\n        /* \"#utility.yul\":689:797   */\n    tag_205:\n        /* \"#utility.yul\":766:790   */\n      tag_255\n        /* \"#utility.yul\":784:789   */\n      dup2\n        /* \"#utility.yul\":766:790   */\n      tag_204\n      jump\t// in\n    tag_255:\n        /* \"#utility.yul\":761:764   */\n      dup3\n        /* \"#utility.yul\":754:791   */\n      mstore\n        /* \"#utility.yul\":689:797   */\n      pop\n      pop\n      jump\t// out\n        /* \"#utility.yul\":803:982   */\n    tag_206:\n        /* \"#utility.yul\":872:882   */\n      0x00\n        /* \"#utility.yul\":893:939   */\n      tag_257\n        /* \"#utility.yul\":935:938   */\n      dup4\n        /* \"#utility.yul\":927:933   */\n      dup4\n        /* \"#utility.yul\":893:939   */\n      tag_205\n      jump\t// in\n    tag_257:\n        /* \"#utility.yul\":971:975   */\n      0x20\n        /* \"#utility.yul\":966:969   */\n      dup4\n        /* \"#utility.yul\":962:976   */\n      add\n        /* \"#utility.yul\":948:976   */\n      swap1\n      pop\n        /* \"#utility.yul\":803:982   */\n      swap3\n      swap2\n      pop\n      pop\n      jump\t// out\n        /* \"#utility.yul\":988:1101   */\n    tag_207:\n        /* \"#utility.yul\":1058:1062   */\n      0x00\n        /* \"#utility.yul\":1090:1094   */\n      0x20\n        /* \"#utility.yul\":1085:1088   */\n      dup3\n        /* \"#utility.yul\":1081:1095   */\n      add\n        /* \"#utility.yul\":1073:1095   */\n      swap1\n      pop\n        /* \"#utility.yul\":988:1101   */\n      swap2\n      swap1\n      pop\n      jump\t// out\n        /* \"#utility.yul\":1137:1869   */\n    tag_208:\n        /* \"#utility.yul\":1256:1259   */\n      0x00\n        /* \"#utility.yul\":1285:1339   */\n      tag_260\n        /* \"#utility.yul\":1333:1338   */\n      dup3\n        /* \"#utility.yul\":1285:1339   */\n      tag_200\n      jump\t// in\n    tag_260:\n        /* \"#utility.yul\":1355:1441   */\n      tag_261\n        /* \"#utility.yul\":1434:1440   */\n      dup2\n        /* \"#utility.yul\":1429:1432   */\n      dup6\n        /* \"#utility.yul\":1355:1441   */\n      tag_201\n      jump\t// in\n    tag_261:\n        /* \"#utility.yul\":1348:1441   */\n      swap4\n      pop\n        /* \"#utility.yul\":1465:1521   */\n      tag_262\n        /* \"#utility.yul\":1515:1520   */\n      dup4\n        /* \"#utility.yul\":1465:1521   */\n      tag_202\n      jump\t// in\n    tag_262:\n        /* \"#utility.yul\":1544:1551   */\n      dup1\n        /* \"#utility.yul\":1575:1576   */\n      0x00\n        /* \"#utility.yul\":1560:1844   */\n    tag_263:\n        /* \"#utility.yul\":1585:1591   */\n      dup4\n        /* \"#utility.yul\":1582:1583   */\n      dup2\n        /* \"#utility.yul\":1579:1592   */\n      lt\n        /* \"#utility.yul\":1560:1844   */\n      iszero\n      tag_265\n      jumpi\n        /* \"#utility.yul\":1661:1667   */\n      dup2\n        /* \"#utility.yul\":1655:1668   */\n      mload\n        /* \"#utility.yul\":1688:1751   */\n      tag_266\n        /* \"#utility.yul\":1747:1750   */\n      dup9\n        /* \"#utility.yul\":1732:1745   */\n      dup3\n        /* \"#utility.yul\":1688:1751   */\n      tag_206\n      jump\t// in\n    tag_266:\n        /* \"#utility.yul\":1681:1751   */\n      swap8\n      pop\n        /* \"#utility.yul\":1774:1834   */\n      tag_267\n        /* \"#utility.yul\":1827:1833   */\n      dup4\n        /* \"#utility.yul\":1774:1834   */\n      tag_207\n      jump\t// in\n    tag_267:\n        /* \"#utility.yul\":1764:1834   */\n      swap3\n      pop\n        /* \"#utility.yul\":1620:1844   */\n      pop\n        /* \"#utility.yul\":1607:1608   */\n      0x01\n        /* \"#utility.yul\":1604:1605   */\n      dup2\n        /* \"#utility.yul\":1600:1609   */\n      add\n        /* \"#utility.yul\":1595:1609   */\n      swap1\n      pop\n        /* \"#utility.yul\":1560:1844   */\n      jump(tag_263)\n    tag_265:\n        /* \"#utility.yul\":1564:1578   */\n      pop\n        /* \"#utility.yul\":1860:1863   */\n      dup6\n        /* \"#utility.yul\":1853:1863   */\n      swap4\n      pop\n        /* \"#utility.yul\":1261:1869   */\n      pop\n      pop\n      pop\n        /* \"#utility.yul\":1137:1869   */\n      swap3\n      swap2\n      pop\n      pop\n      jump\t// out\n        /* \"#utility.yul\":1875:2248   */\n    tag_21:\n        /* \"#utility.yul\":2018:2022   */\n      0x00\n        /* \"#utility.yul\":2056:2058   */\n      0x20\n        /* \"#utility.yul\":2045:2054   */\n      dup3\n        /* \"#utility.yul\":2041:2059   */\n      add\n        /* \"#utility.yul\":2033:2059   */\n      swap1\n      pop\n        /* \"#utility.yul\":2105:2114   */\n      dup2\n        /* \"#utility.yul\":2099:2103   */\n      dup2\n        /* \"#utility.yul\":2095:2115   */\n      sub\n        /* \"#utility.yul\":2091:2092   */\n      0x00\n        /* \"#utility.yul\":2080:2089   */\n      dup4\n        /* \"#utility.yul\":2076:2093   */\n      add\n        /* \"#utility.yul\":2069:2116   */\n      mstore\n        /* \"#utility.yul\":2133:2241   */\n      tag_269\n        /* \"#utility.yul\":2236:2240   */\n      dup2\n        /* \"#utility.yul\":2227:2233   */\n      dup5\n        /* \"#utility.yul\":2133:2241   */\n      tag_208\n      jump\t// in\n    tag_269:\n        /* \"#utility.yul\":2125:2241   */\n      swap1\n      pop\n        /* \"#utility.yul\":1875:2248   */\n      swap3\n      swap2\n      pop\n      pop\n      jump\t// out\n        /* \"#utility.yul\":2254:2329   */\n    tag_209:\n        /* \"#utility.yul\":2287:2293   */\n      0x00\n        /* \"#utility.yul\":2320:2322   */\n      0x40\n        /* \"#utility.yul\":2314:2323   */\n      mload\n        /* \"#utility.yul\":2304:2323   */\n      swap1\n      pop\n        /* \"#utility.yul\":2254:2329   */\n      swap1\n      jump\t// out\n        /* \"#utility.yul\":2335:2452   */\n    tag_210:\n        /* \"#utility.yul\":2444:2445   */\n      0x00\n        /* \"#utility.yul\":2441:2442   */\n      dup1\n        /* \"#utility.yul\":2434:2446   */\n      revert\n        /* \"#utility.yul\":2458:2575   */\n    tag_211:\n        /* \"#utility.yul\":2567:2568   */\n      0x00\n        /* \"#utility.yul\":2564:2565   */\n      dup1\n        /* \"#utility.yul\":2557:2569   */\n      revert\n        /* \"#utility.yul\":2581:2703   */\n    tag_212:\n        /* \"#utility.yul\":2654:2678   */\n      tag_274\n        /* \"#utility.yul\":2672:2677   */\n      dup2\n        /* \"#utility.yul\":2654:2678   */\n      tag_204\n      jump\t// in\n    tag_274:\n        /* \"#utility.yul\":2647:2652   */\n      dup2\n        /* \"#utility.yul\":2644:2679   */\n      eq\n        /* \"#utility.yul\":2634:2697   */\n      tag_275\n      jumpi\n        /* \"#utility.yul\":2693:2694   */\n      0x00\n        /* \"#utility.yul\":2690:2691   */\n      dup1\n        /* \"#utility.yul\":2683:2695   */\n      revert\n        /* \"#utility.yul\":2634:2697   */\n    tag_275:\n        /* \"#utility.yul\":2581:2703   */\n      pop\n      jump\t// out\n        /* \"#utility.yul\":2709:2848   */\n    tag_213:\n        /* \"#utility.yul\":2755:2760   */\n      0x00\n        /* \"#utility.yul\":2793:2799   */\n      dup2\n        /* \"#utility.yul\":2780:2800   */\n      calldataload\n        /* \"#utility.yul\":2771:2800   */\n      swap1\n      pop\n        /* \"#utility.yul\":2809:2842   */\n      tag_277\n        /* \"#utility.yul\":2836:2841   */\n      dup2\n        /* \"#utility.yul\":2809:2842   */\n      tag_212\n      jump\t// in\n    tag_277:\n        /* \"#utility.yul\":2709:2848   */\n      swap3\n      swap2\n      pop\n      pop\n      jump\t// out\n        /* \"#utility.yul\":2854:3183   */\n    tag_24:\n        /* \"#utility.yul\":2913:2919   */\n      0x00\n        /* \"#utility.yul\":2962:2964   */\n      0x20\n        /* \"#utility.yul\":2950:2959   */\n      dup3\n        /* \"#utility.yul\":2941:2948   */\n      dup5\n        /* \"#utility.yul\":2937:2960   */\n      sub\n        /* \"#utility.yul\":2933:2965   */\n      slt\n        /* \"#utility.yul\":2930:3049   */\n      iszero\n      tag_279\n      jumpi\n        /* \"#utility.yul\":2968:3047   */\n      tag_280\n      tag_210\n      jump\t// in\n    tag_280:\n        /* \"#utility.yul\":2930:3049   */\n    tag_279:\n        /* \"#utility.yul\":3088:3089   */\n      0x00\n        /* \"#utility.yul\":3113:3166   */\n      tag_281\n        /* \"#utility.yul\":3158:3165   */\n      dup5\n        /* \"#utility.yul\":3149:3155   */\n      dup3\n        /* \"#utility.yul\":3138:3147   */\n      dup6\n        /* \"#utility.yul\":3134:3156   */\n      add\n        /* \"#utility.yul\":3113:3166   */\n      tag_213\n      jump\t// in\n    tag_281:\n        /* \"#utility.yul\":3103:3166   */\n      swap2\n      pop\n        /* \"#utility.yul\":3059:3176   */\n      pop\n        /* \"#utility.yul\":2854:3183   */\n      swap3\n      swap2\n      pop\n      pop\n      jump\t// out\n        /* \"#utility.yul\":3189:3287   */\n    tag_214:\n        /* \"#utility.yul\":3240:3246   */\n      0x00\n        /* \"#utility.yul\":3274:3279   */\n      dup2\n        /* \"#utility.yul\":3268:3280   */\n      mload\n        /* \"#utility.yul\":3258:3280   */\n      swap1\n      pop\n        /* \"#utility.yul\":3189:3287   */\n      swap2\n      swap1\n      pop\n      jump\t// out\n        /* \"#utility.yul\":3293:3461   */\n    tag_215:\n        /* \"#utility.yul\":3376:3387   */\n      0x00\n        /* \"#utility.yul\":3410:3416   */\n      dup3\n        /* \"#utility.yul\":3405:3408   */\n      dup3\n        /* \"#utility.yul\":3398:3417   */\n      mstore\n        /* \"#utility.yul\":3450:3454   */\n      0x20\n        /* \"#utility.yul\":3445:3448   */\n      dup3\n        /* \"#utility.yul\":3441:3455   */\n      add\n        /* \"#utility.yul\":3426:3455   */\n      swap1\n      pop\n        /* \"#utility.yul\":3293:3461   */\n      swap3\n      swap2\n      pop\n      pop\n      jump\t// out\n        /* \"#utility.yul\":3467:3713   */\n    tag_216:\n        /* \"#utility.yul\":3548:3549   */\n      0x00\n        /* \"#utility.yul\":3558:3671   */\n    tag_285:\n        /* \"#utility.yul\":3572:3578   */\n      dup4\n        /* \"#utility.yul\":3569:3570   */\n      dup2\n        /* \"#utility.yul\":3566:3579   */\n      lt\n        /* \"#utility.yul\":3558:3671   */\n      iszero\n      tag_287\n      jumpi\n        /* \"#utility.yul\":3657:3658   */\n      dup1\n        /* \"#utility.yul\":3652:3655   */\n      dup3\n        /* \"#utility.yul\":3648:3659   */\n      add\n        /* \"#utility.yul\":3642:3660   */\n      mload\n        /* \"#utility.yul\":3638:3639   */\n      dup2\n        /* \"#utility.yul\":3633:3636   */\n      dup5\n        /* \"#utility.yul\":3629:3640   */\n      add\n        /* \"#utility.yul\":3622:3661   */\n      mstore\n        /* \"#utility.yul\":3594:3596   */\n      0x20\n        /* \"#utility.yul\":3591:3592   */\n      dup2\n        /* \"#utility.yul\":3587:3597   */\n      add\n        /* \"#utility.yul\":3582:3597   */\n      swap1\n      pop\n        /* \"#utility.yul\":3558:3671   */\n      jump(tag_285)\n    tag_287:\n        /* \"#utility.yul\":3705:3706   */\n      0x00\n        /* \"#utility.yul\":3696:3702   */\n      dup5\n        /* \"#utility.yul\":3691:3694   */\n      dup5\n        /* \"#utility.yul\":3687:3703   */\n      add\n        /* \"#utility.yul\":3680:3707   */\n      mstore\n        /* \"#utility.yul\":3529:3713   */\n      pop\n        /* \"#utility.yul\":3467:3713   */\n      pop\n      pop\n      pop\n      jump\t// out\n        /* \"#utility.yul\":3719:3821   */\n    tag_217:\n        /* \"#utility.yul\":3760:3766   */\n      0x00\n        /* \"#utility.yul\":3811:3813   */\n      0x1f\n        /* \"#utility.yul\":3807:3814   */\n      not\n        /* \"#utility.yul\":3802:3804   */\n      0x1f\n        /* \"#utility.yul\":3795:3800   */\n      dup4\n        /* \"#utility.yul\":3791:3805   */\n      add\n        /* \"#utility.yul\":3787:3815   */\n      and\n        /* \"#utility.yul\":3777:3815   */\n      swap1\n      pop\n        /* \"#utility.yul\":3719:3821   */\n      swap2\n      swap1\n      pop\n      jump\t// out\n        /* \"#utility.yul\":3827:4200   */\n    tag_218:\n        /* \"#utility.yul\":3913:3916   */\n      0x00\n        /* \"#utility.yul\":3941:3979   */\n      tag_290\n        /* \"#utility.yul\":3973:3978   */\n      dup3\n        /* \"#utility.yul\":3941:3979   */\n      tag_214\n      jump\t// in\n    tag_290:\n        /* \"#utility.yul\":3995:4065   */\n      tag_291\n        /* \"#utility.yul\":4058:4064   */\n      dup2\n        /* \"#utility.yul\":4053:4056   */\n      dup6\n        /* \"#utility.yul\":3995:4065   */\n      tag_215\n      jump\t// in\n    tag_291:\n        /* \"#utility.yul\":3988:4065   */\n      swap4\n      pop\n        /* \"#utility.yul\":4074:4139   */\n      tag_292\n        /* \"#utility.yul\":4132:4138   */\n      dup2\n        /* \"#utility.yul\":4127:4130   */\n      dup6\n        /* \"#utility.yul\":4120:4124   */\n      0x20\n        /* \"#utility.yul\":4113:4118   */\n      dup7\n        /* \"#utility.yul\":4109:4125   */\n      add\n        /* \"#utility.yul\":4074:4139   */\n      tag_216\n      jump\t// in\n    tag_292:\n        /* \"#utility.yul\":4164:4193   */\n      tag_293\n        /* \"#utility.yul\":4186:4192   */\n      dup2\n        /* \"#utility.yul\":4164:4193   */\n      tag_217\n      jump\t// in\n    tag_293:\n        /* \"#utility.yul\":4159:4162   */\n      dup5\n        /* \"#utility.yul\":4155:4194   */\n      add\n        /* \"#utility.yul\":4148:4194   */\n      swap2\n      pop\n        /* \"#utility.yul\":3917:4200   */\n      pop\n        /* \"#utility.yul\":3827:4200   */\n      swap3\n      swap2\n      pop\n      pop\n      jump\t// out\n        /* \"#utility.yul\":4206:4515   */\n    tag_27:\n        /* \"#utility.yul\":4317:4321   */\n      0x00\n        /* \"#utility.yul\":4355:4357   */\n      0x20\n        /* \"#utility.yul\":4344:4353   */\n      dup3\n        /* \"#utility.yul\":4340:4358   */\n      add\n        /* \"#utility.yul\":4332:4358   */\n      swap1\n      pop\n        /* \"#utility.yul\":4404:4413   */\n      dup2\n        /* \"#utility.yul\":4398:4402   */\n      dup2\n        /* \"#utility.yul\":4394:4414   */\n      sub\n        /* \"#utility.yul\":4390:4391   */\n      0x00\n        /* \"#utility.yul\":4379:4388   */\n      dup4\n        /* \"#utility.yul\":4375:4392   */\n      add\n        /* \"#utility.yul\":4368:4415   */\n      mstore\n        /* \"#utility.yul\":4432:4508   */\n      tag_295\n        /* \"#utility.yul\":4503:4507   */\n      dup2\n        /* \"#utility.yul\":4494:4500   */\n      dup5\n        /* \"#utility.yul\":4432:4508   */\n      tag_218\n      jump\t// in\n    tag_295:\n        /* \"#utility.yul\":4424:4508   */\n      swap1\n      pop\n        /* \"#utility.yul\":4206:4515   */\n      swap3\n      swap2\n      pop\n      pop\n      jump\t// out\n        /* \"#utility.yul\":4521:4598   */\n    tag_219:\n        /* \"#utility.yul\":4558:4565   */\n      0x00\n        /* \"#utility.yul\":4587:4592   */\n      dup2\n        /* \"#utility.yul\":4576:4592   */\n      swap1\n      pop\n        /* \"#utility.yul\":4521:4598   */\n      swap2\n      swap1\n      pop\n      jump\t// out\n        /* \"#utility.yul\":4604:4722   */\n    tag_220:\n        /* \"#utility.yul\":4691:4715   */\n      tag_298\n        /* \"#utility.yul\":4709:4714   */\n      dup2\n        /* \"#utility.yul\":4691:4715   */\n      tag_219\n      jump\t// in\n    tag_298:\n        /* \"#utility.yul\":4686:4689   */\n      dup3\n        /* \"#utility.yul\":4679:4716   */\n      mstore\n        /* \"#utility.yul\":4604:4722   */\n      pop\n      pop\n      jump\t// out\n        /* \"#utility.yul\":4728:4950   */\n    tag_31:\n        /* \"#utility.yul\":4821:4825   */\n      0x00\n        /* \"#utility.yul\":4859:4861   */\n      0x20\n        /* \"#utility.yul\":4848:4857   */\n      dup3\n        /* \"#utility.yul\":4844:4862   */\n      add\n        /* \"#utility.yul\":4836:4862   */\n      swap1\n      pop\n        /* \"#utility.yul\":4872:4943   */\n      tag_300\n        /* \"#utility.yul\":4940:4941   */\n      0x00\n        /* \"#utility.yul\":4929:4938   */\n      dup4\n        /* \"#utility.yul\":4925:4942   */\n      add\n        /* \"#utility.yul\":4916:4922   */\n      dup5\n        /* \"#utility.yul\":4872:4943   */\n      tag_220\n      jump\t// in\n    tag_300:\n        /* \"#utility.yul\":4728:4950   */\n      swap3\n      swap2\n      pop\n      pop\n      jump\t// out\n        /* \"#utility.yul\":4956:5078   */\n    tag_221:\n        /* \"#utility.yul\":5029:5053   */\n      tag_302\n        /* \"#utility.yul\":5047:5052   */\n      dup2\n        /* \"#utility.yul\":5029:5053   */\n      tag_219\n      jump\t// in\n    tag_302:\n        /* \"#utility.yul\":5022:5027   */\n      dup2\n        /* \"#utility.yul\":5019:5054   */\n      eq\n        /* \"#utility.yul\":5009:5072   */\n      tag_303\n      jumpi\n        /* \"#utility.yul\":5068:5069   */\n      0x00\n        /* \"#utility.yul\":5065:5066   */\n      dup1\n        /* \"#utility.yul\":5058:5070   */\n      revert\n        /* \"#utility.yul\":5009:5072   */\n    tag_303:\n        /* \"#utility.yul\":4956:5078   */\n      pop\n      jump\t// out\n        /* \"#utility.yul\":5084:5223   */\n    tag_222:\n        /* \"#utility.yul\":5130:5135   */\n      0x00\n        /* \"#utility.yul\":5168:5174   */\n      dup2\n        /* \"#utility.yul\":5155:5175   */\n      calldataload\n        /* \"#utility.yul\":5146:5175   */\n      swap1\n      pop\n        /* \"#utility.yul\":5184:5217   */\n      tag_305\n        /* \"#utility.yul\":5211:5216   */\n      dup2\n        /* \"#utility.yul\":5184:5217   */\n      tag_221\n      jump\t// in\n    tag_305:\n        /* \"#utility.yul\":5084:5223   */\n      swap3\n      swap2\n      pop\n      pop\n      jump\t// out\n        /* \"#utility.yul\":5229:5703   */\n    tag_34:\n        /* \"#utility.yul\":5297:5303   */\n      0x00\n        /* \"#utility.yul\":5305:5311   */\n      dup1\n        /* \"#utility.yul\":5354:5356   */\n      0x40\n        /* \"#utility.yul\":5342:5351   */\n      dup4\n        /* \"#utility.yul\":5333:5340   */\n      dup6\n        /* \"#utility.yul\":5329:5352   */\n      sub\n        /* \"#utility.yul\":5325:5357   */\n      slt\n        /* \"#utility.yul\":5322:5441   */\n      iszero\n      tag_307\n      jumpi\n        /* \"#utility.yul\":5360:5439   */\n      tag_308\n      tag_210\n      jump\t// in\n    tag_308:\n        /* \"#utility.yul\":5322:5441   */\n    tag_307:\n        /* \"#utility.yul\":5480:5481   */\n      0x00\n        /* \"#utility.yul\":5505:5558   */\n      tag_309\n        /* \"#utility.yul\":5550:5557   */\n      dup6\n        /* \"#utility.yul\":5541:5547   */\n      dup3\n        /* \"#utility.yul\":5530:5539   */\n      dup7\n        /* \"#utility.yul\":5526:5548   */\n      add\n        /* \"#utility.yul\":5505:5558   */\n      tag_213\n      jump\t// in\n    tag_309:\n        /* \"#utility.yul\":5495:5558   */\n      swap3\n      pop\n        /* \"#utility.yul\":5451:5568   */\n      pop\n        /* \"#utility.yul\":5607:5609   */\n      0x20\n        /* \"#utility.yul\":5633:5686   */\n      tag_310\n        /* \"#utility.yul\":5678:5685   */\n      dup6\n        /* \"#utility.yul\":5669:5675   */\n      dup3\n        /* \"#utility.yul\":5658:5667   */\n      dup7\n        /* \"#utility.yul\":5654:5676   */\n      add\n        /* \"#utility.yul\":5633:5686   */\n      tag_222\n      jump\t// in\n    tag_310:\n        /* \"#utility.yul\":5623:5686   */\n      swap2\n      pop\n        /* \"#utility.yul\":5578:5696   */\n      pop\n        /* \"#utility.yul\":5229:5703   */\n      swap3\n      pop\n      swap3\n      swap1\n      pop\n      jump\t// out\n        /* \"#utility.yul\":5709:6038   */\n    tag_45:\n        /* \"#utility.yul\":5768:5774   */\n      0x00\n        /* \"#utility.yul\":5817:5819   */\n      0x20\n        /* \"#utility.yul\":5805:5814   */\n      dup3\n        /* \"#utility.yul\":5796:5803   */\n      dup5\n        /* \"#utility.yul\":5792:5815   */\n      sub\n        /* \"#utility.yul\":5788:5820   */\n      slt\n        /* \"#utility.yul\":5785:5904   */\n      iszero\n      tag_312\n      jumpi\n        /* \"#utility.yul\":5823:5902   */\n      tag_313\n      tag_210\n      jump\t// in\n    tag_313:\n        /* \"#utility.yul\":5785:5904   */\n    tag_312:\n        /* \"#utility.yul\":5943:5944   */\n      0x00\n        /* \"#utility.yul\":5968:6021   */\n      tag_314\n        /* \"#utility.yul\":6013:6020   */\n      dup5\n        /* \"#utility.yul\":6004:6010   */\n      dup3\n        /* \"#utility.yul\":5993:6002   */\n      dup6\n        /* \"#utility.yul\":5989:6011   */\n      add\n        /* \"#utility.yul\":5968:6021   */\n      tag_222\n      jump\t// in\n    tag_314:\n        /* \"#utility.yul\":5958:6021   */\n      swap2\n      pop\n        /* \"#utility.yul\":5914:6031   */\n      pop\n        /* \"#utility.yul\":5709:6038   */\n      swap3\n      swap2\n      pop\n      pop\n      jump\t// out\n        /* \"#utility.yul\":6044:6161   */\n    tag_223:\n        /* \"#utility.yul\":6153:6154   */\n      0x00\n        /* \"#utility.yul\":6150:6151   */\n      dup1\n        /* \"#utility.yul\":6143:6155   */\n      revert\n        /* \"#utility.yul\":6167:6347   */\n    tag_73:\n        /* \"#utility.yul\":6215:6292   */\n      0x4e487b7100000000000000000000000000000000000000000000000000000000\n        /* \"#utility.yul\":6212:6213   */\n      0x00\n        /* \"#utility.yul\":6205:6293   */\n      mstore\n        /* \"#utility.yul\":6312:6316   */\n      0x41\n        /* \"#utility.yul\":6309:6310   */\n      0x04\n        /* \"#utility.yul\":6302:6317   */\n      mstore\n        /* \"#utility.yul\":6336:6340   */\n      0x24\n        /* \"#utility.yul\":6333:6334   */\n      0x00\n        /* \"#utility.yul\":6326:6341   */\n      revert\n        /* \"#utility.yul\":6353:6634   */\n    tag_224:\n        /* \"#utility.yul\":6436:6463   */\n      tag_318\n        /* \"#utility.yul\":6458:6462   */\n      dup3\n        /* \"#utility.yul\":6436:6463   */\n      tag_217\n      jump\t// in\n    tag_318:\n        /* \"#utility.yul\":6428:6434   */\n      dup2\n        /* \"#utility.yul\":6424:6464   */\n      add\n        /* \"#utility.yul\":6566:6572   */\n      dup2\n        /* \"#utility.yul\":6554:6564   */\n      dup2\n        /* \"#utility.yul\":6551:6573   */\n      lt\n        /* \"#utility.yul\":6530:6548   */\n      0xffffffffffffffff\n        /* \"#utility.yul\":6518:6528   */\n      dup3\n        /* \"#utility.yul\":6515:6549   */\n      gt\n        /* \"#utility.yul\":6512:6574   */\n      or\n        /* \"#utility.yul\":6509:6597   */\n      iszero\n      tag_319\n      jumpi\n        /* \"#utility.yul\":6577:6595   */\n      tag_320\n      tag_73\n      jump\t// in\n    tag_320:\n        /* \"#utility.yul\":6509:6597   */\n    tag_319:\n        /* \"#utility.yul\":6617:6627   */\n      dup1\n        /* \"#utility.yul\":6613:6615   */\n      0x40\n        /* \"#utility.yul\":6606:6628   */\n      mstore\n        /* \"#utility.yul\":6396:6634   */\n      pop\n        /* \"#utility.yul\":6353:6634   */\n      pop\n      pop\n      jump\t// out\n        /* \"#utility.yul\":6640:6769   */\n    tag_225:\n        /* \"#utility.yul\":6674:6680   */\n      0x00\n        /* \"#utility.yul\":6701:6721   */\n      tag_322\n      tag_209\n      jump\t// in\n    tag_322:\n        /* \"#utility.yul\":6691:6721   */\n      swap1\n      pop\n        /* \"#utility.yul\":6730:6763   */\n      tag_323\n        /* \"#utility.yul\":6758:6762   */\n      dup3\n        /* \"#utility.yul\":6750:6756   */\n      dup3\n        /* \"#utility.yul\":6730:6763   */\n      tag_224\n      jump\t// in\n    tag_323:\n        /* \"#utility.yul\":6640:6769   */\n      swap2\n      swap1\n      pop\n      jump\t// out\n        /* \"#utility.yul\":6775:7086   */\n    tag_226:\n        /* \"#utility.yul\":6852:6856   */\n      0x00\n        /* \"#utility.yul\":6942:6960   */\n      0xffffffffffffffff\n        /* \"#utility.yul\":6934:6940   */\n      dup3\n        /* \"#utility.yul\":6931:6961   */\n      gt\n        /* \"#utility.yul\":6928:6984   */\n      iszero\n      tag_325\n      jumpi\n        /* \"#utility.yul\":6964:6982   */\n      tag_326\n      tag_73\n      jump\t// in\n    tag_326:\n        /* \"#utility.yul\":6928:6984   */\n    tag_325:\n        /* \"#utility.yul\":7014:7018   */\n      0x20\n        /* \"#utility.yul\":7006:7012   */\n      dup3\n        /* \"#utility.yul\":7002:7019   */\n      mul\n        /* \"#utility.yul\":6994:7019   */\n      swap1\n      pop\n        /* \"#utility.yul\":7074:7078   */\n      0x20\n        /* \"#utility.yul\":7068:7072   */\n      dup2\n        /* \"#utility.yul\":7064:7079   */\n      add\n        /* \"#utility.yul\":7056:7079   */\n      swap1\n      pop\n        /* \"#utility.yul\":6775:7086   */\n      swap2\n      swap1\n      pop\n      jump\t// out\n        /* \"#utility.yul\":7092:7209   */\n    tag_227:\n        /* \"#utility.yul\":7201:7202   */\n      0x00\n        /* \"#utility.yul\":7198:7199   */\n      dup1\n        /* \"#utility.yul\":7191:7203   */\n      revert\n        /* \"#utility.yul\":7232:7942   */\n    tag_228:\n        /* \"#utility.yul\":7328:7333   */\n      0x00\n        /* \"#utility.yul\":7353:7434   */\n      tag_329\n        /* \"#utility.yul\":7369:7433   */\n      tag_330\n        /* \"#utility.yul\":7426:7432   */\n      dup5\n        /* \"#utility.yul\":7369:7433   */\n      tag_226\n      jump\t// in\n    tag_330:\n        /* \"#utility.yul\":7353:7434   */\n      tag_225\n      jump\t// in\n    tag_329:\n        /* \"#utility.yul\":7344:7434   */\n      swap1\n      pop\n        /* \"#utility.yul\":7454:7459   */\n      dup1\n        /* \"#utility.yul\":7483:7489   */\n      dup4\n        /* \"#utility.yul\":7476:7481   */\n      dup3\n        /* \"#utility.yul\":7469:7490   */\n      mstore\n        /* \"#utility.yul\":7517:7521   */\n      0x20\n        /* \"#utility.yul\":7510:7515   */\n      dup3\n        /* \"#utility.yul\":7506:7522   */\n      add\n        /* \"#utility.yul\":7499:7522   */\n      swap1\n      pop\n        /* \"#utility.yul\":7570:7574   */\n      0x20\n        /* \"#utility.yul\":7562:7568   */\n      dup5\n        /* \"#utility.yul\":7558:7575   */\n      mul\n        /* \"#utility.yul\":7550:7556   */\n      dup4\n        /* \"#utility.yul\":7546:7576   */\n      add\n        /* \"#utility.yul\":7599:7602   */\n      dup6\n        /* \"#utility.yul\":7591:7597   */\n      dup2\n        /* \"#utility.yul\":7588:7603   */\n      gt\n        /* \"#utility.yul\":7585:7707   */\n      iszero\n      tag_331\n      jumpi\n        /* \"#utility.yul\":7618:7697   */\n      tag_332\n      tag_227\n      jump\t// in\n    tag_332:\n        /* \"#utility.yul\":7585:7707   */\n    tag_331:\n        /* \"#utility.yul\":7733:7739   */\n      dup4\n        /* \"#utility.yul\":7716:7936   */\n    tag_333:\n        /* \"#utility.yul\":7750:7756   */\n      dup2\n        /* \"#utility.yul\":7745:7748   */\n      dup2\n        /* \"#utility.yul\":7742:7757   */\n      lt\n        /* \"#utility.yul\":7716:7936   */\n      iszero\n      tag_335\n      jumpi\n        /* \"#utility.yul\":7825:7828   */\n      dup1\n        /* \"#utility.yul\":7854:7891   */\n      tag_336\n        /* \"#utility.yul\":7887:7890   */\n      dup9\n        /* \"#utility.yul\":7875:7885   */\n      dup3\n        /* \"#utility.yul\":7854:7891   */\n      tag_213\n      jump\t// in\n    tag_336:\n        /* \"#utility.yul\":7849:7852   */\n      dup5\n        /* \"#utility.yul\":7842:7892   */\n      mstore\n        /* \"#utility.yul\":7921:7925   */\n      0x20\n        /* \"#utility.yul\":7916:7919   */\n      dup5\n        /* \"#utility.yul\":7912:7926   */\n      add\n        /* \"#utility.yul\":7905:7926   */\n      swap4\n      pop\n        /* \"#utility.yul\":7792:7936   */\n      pop\n        /* \"#utility.yul\":7776:7780   */\n      0x20\n        /* \"#utility.yul\":7771:7774   */\n      dup2\n        /* \"#utility.yul\":7767:7781   */\n      add\n        /* \"#utility.yul\":7760:7781   */\n      swap1\n      pop\n        /* \"#utility.yul\":7716:7936   */\n      jump(tag_333)\n    tag_335:\n        /* \"#utility.yul\":7720:7741   */\n      pop\n        /* \"#utility.yul\":7334:7942   */\n      pop\n      pop\n        /* \"#utility.yul\":7232:7942   */\n      swap4\n      swap3\n      pop\n      pop\n      pop\n      jump\t// out\n        /* \"#utility.yul\":7965:8335   */\n    tag_229:\n        /* \"#utility.yul\":8036:8041   */\n      0x00\n        /* \"#utility.yul\":8085:8088   */\n      dup3\n        /* \"#utility.yul\":8078:8082   */\n      0x1f\n        /* \"#utility.yul\":8070:8076   */\n      dup4\n        /* \"#utility.yul\":8066:8083   */\n      add\n        /* \"#utility.yul\":8062:8089   */\n      slt\n        /* \"#utility.yul\":8052:8174   */\n      tag_338\n      jumpi\n        /* \"#utility.yul\":8093:8172   */\n      tag_339\n      tag_223\n      jump\t// in\n    tag_339:\n        /* \"#utility.yul\":8052:8174   */\n    tag_338:\n        /* \"#utility.yul\":8210:8216   */\n      dup2\n        /* \"#utility.yul\":8197:8217   */\n      calldataload\n        /* \"#utility.yul\":8235:8329   */\n      tag_340\n        /* \"#utility.yul\":8325:8328   */\n      dup5\n        /* \"#utility.yul\":8317:8323   */\n      dup3\n        /* \"#utility.yul\":8310:8314   */\n      0x20\n        /* \"#utility.yul\":8302:8308   */\n      dup7\n        /* \"#utility.yul\":8298:8315   */\n      add\n        /* \"#utility.yul\":8235:8329   */\n      tag_228\n      jump\t// in\n    tag_340:\n        /* \"#utility.yul\":8226:8329   */\n      swap2\n      pop\n        /* \"#utility.yul\":8042:8335   */\n      pop\n        /* \"#utility.yul\":7965:8335   */\n      swap3\n      swap2\n      pop\n      pop\n      jump\t// out\n        /* \"#utility.yul\":8341:9025   */\n    tag_56:\n        /* \"#utility.yul\":8434:8440   */\n      0x00\n        /* \"#utility.yul\":8442:8448   */\n      dup1\n        /* \"#utility.yul\":8491:8493   */\n      0x40\n        /* \"#utility.yul\":8479:8488   */\n      dup4\n        /* \"#utility.yul\":8470:8477   */\n      dup6\n        /* \"#utility.yul\":8466:8489   */\n      sub\n        /* \"#utility.yul\":8462:8494   */\n      slt\n        /* \"#utility.yul\":8459:8578   */\n      iszero\n      tag_342\n      jumpi\n        /* \"#utility.yul\":8497:8576   */\n      tag_343\n      tag_210\n      jump\t// in\n    tag_343:\n        /* \"#utility.yul\":8459:8578   */\n    tag_342:\n        /* \"#utility.yul\":8645:8646   */\n      0x00\n        /* \"#utility.yul\":8634:8643   */\n      dup4\n        /* \"#utility.yul\":8630:8647   */\n      add\n        /* \"#utility.yul\":8617:8648   */\n      calldataload\n        /* \"#utility.yul\":8675:8693   */\n      0xffffffffffffffff\n        /* \"#utility.yul\":8667:8673   */\n      dup2\n        /* \"#utility.yul\":8664:8694   */\n      gt\n        /* \"#utility.yul\":8661:8778   */\n      iszero\n      tag_344\n      jumpi\n        /* \"#utility.yul\":8697:8776   */\n      tag_345\n      tag_211\n      jump\t// in\n    tag_345:\n        /* \"#utility.yul\":8661:8778   */\n    tag_344:\n        /* \"#utility.yul\":8802:8880   */\n      tag_346\n        /* \"#utility.yul\":8872:8879   */\n      dup6\n        /* \"#utility.yul\":8863:8869   */\n      dup3\n        /* \"#utility.yul\":8852:8861   */\n      dup7\n        /* \"#utility.yul\":8848:8870   */\n      add\n        /* \"#utility.yul\":8802:8880   */\n      tag_229\n      jump\t// in\n    tag_346:\n        /* \"#utility.yul\":8792:8880   */\n      swap3\n      pop\n        /* \"#utility.yul\":8588:8890   */\n      pop\n        /* \"#utility.yul\":8929:8931   */\n      0x20\n        /* \"#utility.yul\":8955:9008   */\n      tag_347\n        /* \"#utility.yul\":9000:9007   */\n      dup6\n        /* \"#utility.yul\":8991:8997   */\n      dup3\n        /* \"#utility.yul\":8980:8989   */\n      dup7\n        /* \"#utility.yul\":8976:8998   */\n      add\n        /* \"#utility.yul\":8955:9008   */\n      tag_222\n      jump\t// in\n    tag_347:\n        /* \"#utility.yul\":8945:9008   */\n      swap2\n      pop\n        /* \"#utility.yul\":8900:9018   */\n      pop\n        /* \"#utility.yul\":8341:9025   */\n      swap3\n      pop\n      swap3\n      swap1\n      pop\n      jump\t// out\n        /* \"#utility.yul\":9031:9121   */\n    tag_230:\n        /* \"#utility.yul\":9065:9072   */\n      0x00\n        /* \"#utility.yul\":9108:9113   */\n      dup2\n        /* \"#utility.yul\":9101:9114   */\n      iszero\n        /* \"#utility.yul\":9094:9115   */\n      iszero\n        /* \"#utility.yul\":9083:9115   */\n      swap1\n      pop\n        /* \"#utility.yul\":9031:9121   */\n      swap2\n      swap1\n      pop\n      jump\t// out\n        /* \"#utility.yul\":9127:9236   */\n    tag_231:\n        /* \"#utility.yul\":9208:9229   */\n      tag_350\n        /* \"#utility.yul\":9223:9228   */\n      dup2\n        /* \"#utility.yul\":9208:9229   */\n      tag_230\n      jump\t// in\n    tag_350:\n        /* \"#utility.yul\":9203:9206   */\n      dup3\n        /* \"#utility.yul\":9196:9230   */\n      mstore\n        /* \"#utility.yul\":9127:9236   */\n      pop\n      pop\n      jump\t// out\n        /* \"#utility.yul\":9242:9452   */\n    tag_65:\n        /* \"#utility.yul\":9329:9333   */\n      0x00\n        /* \"#utility.yul\":9367:9369   */\n      0x20\n        /* \"#utility.yul\":9356:9365   */\n      dup3\n        /* \"#utility.yul\":9352:9370   */\n      add\n        /* \"#utility.yul\":9344:9370   */\n      swap1\n      pop\n        /* \"#utility.yul\":9380:9445   */\n      tag_352\n        /* \"#utility.yul\":9442:9443   */\n      0x00\n        /* \"#utility.yul\":9431:9440   */\n      dup4\n        /* \"#utility.yul\":9427:9444   */\n      add\n        /* \"#utility.yul\":9418:9424   */\n      dup5\n        /* \"#utility.yul\":9380:9445   */\n      tag_231\n      jump\t// in\n    tag_352:\n        /* \"#utility.yul\":9242:9452   */\n      swap3\n      swap2\n      pop\n      pop\n      jump\t// out\n        /* \"#utility.yul\":9458:9638   */\n    tag_80:\n        /* \"#utility.yul\":9506:9583   */\n      0x4e487b7100000000000000000000000000000000000000000000000000000000\n        /* \"#utility.yul\":9503:9504   */\n      0x00\n        /* \"#utility.yul\":9496:9584   */\n      mstore\n        /* \"#utility.yul\":9603:9607   */\n      0x32\n        /* \"#utility.yul\":9600:9601   */\n      0x04\n        /* \"#utility.yul\":9593:9608   */\n      mstore\n        /* \"#utility.yul\":9627:9631   */\n      0x24\n        /* \"#utility.yul\":9624:9625   */\n      0x00\n        /* \"#utility.yul\":9617:9632   */\n      revert\n        /* \"#utility.yul\":9644:9824   */\n    tag_232:\n        /* \"#utility.yul\":9692:9769   */\n      0x4e487b7100000000000000000000000000000000000000000000000000000000\n        /* \"#utility.yul\":9689:9690   */\n      0x00\n        /* \"#utility.yul\":9682:9770   */\n      mstore\n        /* \"#utility.yul\":9789:9793   */\n      0x11\n        /* \"#utility.yul\":9786:9787   */\n      0x04\n        /* \"#utility.yul\":9779:9794   */\n      mstore\n        /* \"#utility.yul\":9813:9817   */\n      0x24\n        /* \"#utility.yul\":9810:9811   */\n      0x00\n        /* \"#utility.yul\":9803:9818   */\n      revert\n        /* \"#utility.yul\":9830:10063   */\n    tag_84:\n        /* \"#utility.yul\":9869:9872   */\n      0x00\n        /* \"#utility.yul\":9892:9916   */\n      tag_356\n        /* \"#utility.yul\":9910:9915   */\n      dup3\n        /* \"#utility.yul\":9892:9916   */\n      tag_219\n      jump\t// in\n    tag_356:\n        /* \"#utility.yul\":9883:9916   */\n      swap2\n      pop\n        /* \"#utility.yul\":9938:10004   */\n      0xffffffffffffffffffffffffffffffffffffffffffffffffffffffffffffffff\n        /* \"#utility.yul\":9931:9936   */\n      dup3\n        /* \"#utility.yul\":9928:10005   */\n      sub\n        /* \"#utility.yul\":9925:10028   */\n      tag_357\n      jumpi\n        /* \"#utility.yul\":10008:10026   */\n      tag_358\n      tag_232\n      jump\t// in\n    tag_358:\n        /* \"#utility.yul\":9925:10028   */\n    tag_357:\n        /* \"#utility.yul\":10055:10056   */\n      0x01\n        /* \"#utility.yul\":10048:10053   */\n      dup3\n        /* \"#utility.yul\":10044:10057   */\n      add\n        /* \"#utility.yul\":10037:10057   */\n      swap1\n      pop\n        /* \"#utility.yul\":9830:10063   */\n      swap2\n      swap1\n      pop\n      jump\t// out\n        /* \"#utility.yul\":10069:10187   */\n    tag_233:\n        /* \"#utility.yul\":10156:10180   */\n      tag_360\n        /* \"#utility.yul\":10174:10179   */\n      dup2\n        /* \"#utility.yul\":10156:10180   */\n      tag_204\n      jump\t// in\n    tag_360:\n        /* \"#utility.yul\":10151:10154   */\n      dup3\n        /* \"#utility.yul\":10144:10181   */\n      mstore\n        /* \"#utility.yul\":10069:10187   */\n      pop\n      pop\n      jump\t// out\n        /* \"#utility.yul\":10193:10415   */\n    tag_87:\n        /* \"#utility.yul\":10286:10290   */\n      0x00\n        /* \"#utility.yul\":10324:10326   */\n      0x20\n        /* \"#utility.yul\":10313:10322   */\n      dup3\n        /* \"#utility.yul\":10309:10327   */\n      add\n        /* \"#utility.yul\":10301:10327   */\n      swap1\n      pop\n        /* \"#utility.yul\":10337:10408   */\n      tag_362\n        /* \"#utility.yul\":10405:10406   */\n      0x00\n        /* \"#utility.yul\":10394:10403   */\n      dup4\n        /* \"#utility.yul\":10390:10407   */\n      add\n        /* \"#utility.yul\":10381:10387   */\n      dup5\n        /* \"#utility.yul\":10337:10408   */\n      tag_233\n      jump\t// in\n    tag_362:\n        /* \"#utility.yul\":10193:10415   */\n      swap3\n      swap2\n      pop\n      pop\n      jump\t// out\n        /* \"#utility.yul\":10421:10590   */\n    tag_234:\n        /* \"#utility.yul\":10505:10516   */\n      0x00\n        /* \"#utility.yul\":10539:10545   */\n      dup3\n        /* \"#utility.yul\":10534:10537   */\n      dup3\n        /* \"#utility.yul\":10527:10546   */\n      mstore\n        /* \"#utility.yul\":10579:10583   */\n      0x20\n        /* \"#utility.yul\":10574:10577   */\n      dup3\n        /* \"#utility.yul\":10570:10584   */\n      add\n        /* \"#utility.yul\":10555:10584   */\n      swap1\n      pop\n        /* \"#utility.yul\":10421:10590   */\n      swap3\n      swap2\n      pop\n      pop\n      jump\t// out\n        /* \"#utility.yul\":10596:10760   */\n    tag_235:\n        /* \"#utility.yul\":10736:10752   */\n      0x4e6f7420617574686f72697a6564000000000000000000000000000000000000\n        /* \"#utility.yul\":10732:10733   */\n      0x00\n        /* \"#utility.yul\":10724:10730   */\n      dup3\n        /* \"#utility.yul\":10720:10734   */\n      add\n        /* \"#utility.yul\":10713:10753   */\n      mstore\n        /* \"#utility.yul\":10596:10760   */\n      pop\n      jump\t// out\n        /* \"#utility.yul\":10766:11132   */\n    tag_236:\n        /* \"#utility.yul\":10908:10911   */\n      0x00\n        /* \"#utility.yul\":10929:10996   */\n      tag_366\n        /* \"#utility.yul\":10993:10995   */\n      0x0e\n        /* \"#utility.yul\":10988:10991   */\n      dup4\n        /* \"#utility.yul\":10929:10996   */\n      tag_234\n      jump\t// in\n    tag_366:\n        /* \"#utility.yul\":10922:10996   */\n      swap2\n      pop\n        /* \"#utility.yul\":11005:11098   */\n      tag_367\n        /* \"#utility.yul\":11094:11097   */\n      dup3\n        /* \"#utility.yul\":11005:11098   */\n      tag_235\n      jump\t// in\n    tag_367:\n        /* \"#utility.yul\":11123:11125   */\n      0x20\n        /* \"#utility.yul\":11118:11121   */\n      dup3\n        /* \"#utility.yul\":11114:11126   */\n      add\n        /* \"#utility.yul\":11107:11126   */\n      swap1\n      pop\n        /* \"#utility.yul\":10766:11132   */\n      swap2\n      swap1\n      pop\n      jump\t// out\n        /* \"#utility.yul\":11138:11557   */\n    tag_91:\n        /* \"#utility.yul\":11304:11308   */\n      0x00\n        /* \"#utility.yul\":11342:11344   */\n      0x20\n        /* \"#utility.yul\":11331:11340   */\n      dup3\n        /* \"#utility.yul\":11327:11345   */\n      add\n        /* \"#utility.yul\":11319:11345   */\n      swap1\n      pop\n        /* \"#utility.yul\":11391:11400   */\n      dup2\n        /* \"#utility.yul\":11385:11389   */\n      dup2\n        /* \"#utility.yul\":11381:11401   */\n      sub\n        /* \"#utility.yul\":11377:11378   */\n      0x00\n        /* \"#utility.yul\":11366:11375   */\n      dup4\n        /* \"#utility.yul\":11362:11379   */\n      add\n        /* \"#utility.yul\":11355:11402   */\n      mstore\n        /* \"#utility.yul\":11419:11550   */\n      tag_369\n        /* \"#utility.yul\":11545:11549   */\n      dup2\n        /* \"#utility.yul\":11419:11550   */\n      tag_236\n      jump\t// in\n    tag_369:\n        /* \"#utility.yul\":11411:11550   */\n      swap1\n      pop\n        /* \"#utility.yul\":11138:11557   */\n      swap2\n      swap1\n      pop\n      jump\t// out\n        /* \"#utility.yul\":11563:11754   */\n    tag_94:\n        /* \"#utility.yul\":11603:11606   */\n      0x00\n        /* \"#utility.yul\":11622:11642   */\n      tag_371\n        /* \"#utility.yul\":11640:11641   */\n      dup3\n        /* \"#utility.yul\":11622:11642   */\n      tag_219\n      jump\t// in\n    tag_371:\n        /* \"#utility.yul\":11617:11642   */\n      swap2\n      pop\n        /* \"#utility.yul\":11656:11676   */\n      tag_372\n        /* \"#utility.yul\":11674:11675   */\n      dup4\n        /* \"#utility.yul\":11656:11676   */\n      tag_219\n      jump\t// in\n    tag_372:\n        /* \"#utility.yul\":11651:11676   */\n      swap3\n      pop\n        /* \"#utility.yul\":11699:11700   */\n      dup3\n        /* \"#utility.yul\":11696:11697   */\n      dup3\n        /* \"#utility.yul\":11692:11701   */\n      add\n        /* \"#utility.yul\":11685:11701   */\n      swap1\n      pop\n        /* \"#utility.yul\":11720:11723   */\n      dup1\n        /* \"#utility.yul\":11717:11718   */\n      dup3\n        /* \"#utility.yul\":11714:11724   */\n      gt\n        /* \"#utility.yul\":11711:11747   */\n      iszero\n      tag_373\n      jumpi\n        /* \"#utility.yul\":11727:11745   */\n      tag_374\n      tag_232\n      jump\t// in\n    tag_374:\n        /* \"#utility.yul\":11711:11747   */\n    tag_373:\n        /* \"#utility.yul\":11563:11754   */\n      swap3\n      swap2\n      pop\n      pop\n      jump\t// out\n        /* \"#utility.yul\":11760:11917   */\n    tag_237:\n        /* \"#utility.yul\":11900:11909   */\n      0x6572726f72303400000000000000000000000000000000000000000000000000\n        /* \"#utility.yul\":11896:11897   */\n      0x00\n        /* \"#utility.yul\":11888:11894   */\n      dup3\n        /* \"#utility.yul\":11884:11898   */\n      add\n        /* \"#utility.yul\":11877:11910   */\n      mstore\n        /* \"#utility.yul\":11760:11917   */\n      pop\n      jump\t// out\n        /* \"#utility.yul\":11923:12288   */\n    tag_238:\n        /* \"#utility.yul\":12065:12068   */\n      0x00\n        /* \"#utility.yul\":12086:12152   */\n      tag_377\n        /* \"#utility.yul\":12150:12151   */\n      0x07\n        /* \"#utility.yul\":12145:12148   */\n      dup4\n        /* \"#utility.yul\":12086:12152   */\n      tag_234\n      jump\t// in\n    tag_377:\n        /* \"#utility.yul\":12079:12152   */\n      swap2\n      pop\n        /* \"#utility.yul\":12161:12254   */\n      tag_378\n        /* \"#utility.yul\":12250:12253   */\n      dup3\n        /* \"#utility.yul\":12161:12254   */\n      tag_237\n      jump\t// in\n    tag_378:\n        /* \"#utility.yul\":12279:12281   */\n      0x20\n        /* \"#utility.yul\":12274:12277   */\n      dup3\n        /* \"#utility.yul\":12270:12282   */\n      add\n        /* \"#utility.yul\":12263:12282   */\n      swap1\n      pop\n        /* \"#utility.yul\":11923:12288   */\n      swap2\n      swap1\n      pop\n      jump\t// out\n        /* \"#utility.yul\":12294:12713   */\n    tag_102:\n        /* \"#utility.yul\":12460:12464   */\n      0x00\n        /* \"#utility.yul\":12498:12500   */\n      0x20\n        /* \"#utility.yul\":12487:12496   */\n      dup3\n        /* \"#utility.yul\":12483:12501   */\n      add\n        /* \"#utility.yul\":12475:12501   */\n      swap1\n      pop\n        /* \"#utility.yul\":12547:12556   */\n      dup2\n        /* \"#utility.yul\":12541:12545   */\n      dup2\n        /* \"#utility.yul\":12537:12557   */\n      sub\n        /* \"#utility.yul\":12533:12534   */\n      0x00\n        /* \"#utility.yul\":12522:12531   */\n      dup4\n        /* \"#utility.yul\":12518:12535   */\n      add\n        /* \"#utility.yul\":12511:12558   */\n      mstore\n        /* \"#utility.yul\":12575:12706   */\n      tag_380\n        /* \"#utility.yul\":12701:12705   */\n      dup2\n        /* \"#utility.yul\":12575:12706   */\n      tag_238\n      jump\t// in\n    tag_380:\n        /* \"#utility.yul\":12567:12706   */\n      swap1\n      pop\n        /* \"#utility.yul\":12294:12713   */\n      swap2\n      swap1\n      pop\n      jump\t// out\n        /* \"#utility.yul\":12719:13051   */\n    tag_108:\n        /* \"#utility.yul\":12840:12844   */\n      0x00\n        /* \"#utility.yul\":12878:12880   */\n      0x40\n        /* \"#utility.yul\":12867:12876   */\n      dup3\n        /* \"#utility.yul\":12863:12881   */\n      add\n        /* \"#utility.yul\":12855:12881   */\n      swap1\n      pop\n        /* \"#utility.yul\":12891:12962   */\n      tag_382\n        /* \"#utility.yul\":12959:12960   */\n      0x00\n        /* \"#utility.yul\":12948:12957   */\n      dup4\n        /* \"#utility.yul\":12944:12961   */\n      add\n        /* \"#utility.yul\":12935:12941   */\n      dup6\n        /* \"#utility.yul\":12891:12962   */\n      tag_233\n      jump\t// in\n    tag_382:\n        /* \"#utility.yul\":12972:13044   */\n      tag_383\n        /* \"#utility.yul\":13040:13042   */\n      0x20\n        /* \"#utility.yul\":13029:13038   */\n      dup4\n        /* \"#utility.yul\":13025:13043   */\n      add\n        /* \"#utility.yul\":13016:13022   */\n      dup5\n        /* \"#utility.yul\":12972:13044   */\n      tag_220\n      jump\t// in\n    tag_383:\n        /* \"#utility.yul\":12719:13051   */\n      swap4\n      swap3\n      pop\n      pop\n      pop\n      jump\t// out\n        /* \"#utility.yul\":13057:13214   */\n    tag_239:\n        /* \"#utility.yul\":13197:13206   */\n      0x6572726f72303200000000000000000000000000000000000000000000000000\n        /* \"#utility.yul\":13193:13194   */\n      0x00\n        /* \"#utility.yul\":13185:13191   */\n      dup3\n        /* \"#utility.yul\":13181:13195   */\n      add\n        /* \"#utility.yul\":13174:13207   */\n      mstore\n        /* \"#utility.yul\":13057:13214   */\n      pop\n      jump\t// out\n        /* \"#utility.yul\":13220:13585   */\n    tag_240:\n        /* \"#utility.yul\":13362:13365   */\n      0x00\n        /* \"#utility.yul\":13383:13449   */\n      tag_386\n        /* \"#utility.yul\":13447:13448   */\n      0x07\n        /* \"#utility.yul\":13442:13445   */\n      dup4\n        /* \"#utility.yul\":13383:13449   */\n      tag_234\n      jump\t// in\n    tag_386:\n        /* \"#utility.yul\":13376:13449   */\n      swap2\n      pop\n        /* \"#utility.yul\":13458:13551   */\n      tag_387\n        /* \"#utility.yul\":13547:13550   */\n      dup3\n        /* \"#utility.yul\":13458:13551   */\n      tag_239\n      jump\t// in\n    tag_387:\n        /* \"#utility.yul\":13576:13578   */\n      0x20\n        /* \"#utility.yul\":13571:13574   */\n      dup3\n        /* \"#utility.yul\":13567:13579   */\n      add\n        /* \"#utility.yul\":13560:13579   */\n      swap1\n      pop\n        /* \"#utility.yul\":13220:13585   */\n      swap2\n      swap1\n      pop\n      jump\t// out\n        /* \"#utility.yul\":13591:14010   */\n    tag_138:\n        /* \"#utility.yul\":13757:13761   */\n      0x00\n        /* \"#utility.yul\":13795:13797   */\n      0x20\n        /* \"#utility.yul\":13784:13793   */\n      dup3\n        /* \"#utility.yul\":13780:13798   */\n      add\n        /* \"#utility.yul\":13772:13798   */\n      swap1\n      pop\n        /* \"#utility.yul\":13844:13853   */\n      dup2\n        /* \"#utility.yul\":13838:13842   */\n      dup2\n        /* \"#utility.yul\":13834:13854   */\n      sub\n        /* \"#utility.yul\":13830:13831   */\n      0x00\n        /* \"#utility.yul\":13819:13828   */\n      dup4\n        /* \"#utility.yul\":13815:13832   */\n      add\n        /* \"#utility.yul\":13808:13855   */\n      mstore\n        /* \"#utility.yul\":13872:14003   */\n      tag_389\n        /* \"#utility.yul\":13998:14002   */\n      dup2\n        /* \"#utility.yul\":13872:14003   */\n      tag_240\n      jump\t// in\n    tag_389:\n        /* \"#utility.yul\":13864:14003   */\n      swap1\n      pop\n        /* \"#utility.yul\":13591:14010   */\n      swap2\n      swap1\n      pop\n      jump\t// out\n        /* \"#utility.yul\":14016:14173   */\n    tag_241:\n        /* \"#utility.yul\":14156:14165   */\n      0x6572726f72303300000000000000000000000000000000000000000000000000\n        /* \"#utility.yul\":14152:14153   */\n      0x00\n        /* \"#utility.yul\":14144:14150   */\n      dup3\n        /* \"#utility.yul\":14140:14154   */\n      add\n        /* \"#utility.yul\":14133:14166   */\n      mstore\n        /* \"#utility.yul\":14016:14173   */\n      pop\n      jump\t// out\n        /* \"#utility.yul\":14179:14544   */\n    tag_242:\n        /* \"#utility.yul\":14321:14324   */\n      0x00\n        /* \"#utility.yul\":14342:14408   */\n      tag_392\n        /* \"#utility.yul\":14406:14407   */\n      0x07\n        /* \"#utility.yul\":14401:14404   */\n      dup4\n        /* \"#utility.yul\":14342:14408   */\n      tag_234\n      jump\t// in\n    tag_392:\n        /* \"#utility.yul\":14335:14408   */\n      swap2\n      pop\n        /* \"#utility.yul\":14417:14510   */\n      tag_393\n        /* \"#utility.yul\":14506:14509   */\n      dup3\n        /* \"#utility.yul\":14417:14510   */\n      tag_241\n      jump\t// in\n    tag_393:\n        /* \"#utility.yul\":14535:14537   */\n      0x20\n        /* \"#utility.yul\":14530:14533   */\n      dup3\n        /* \"#utility.yul\":14526:14538   */\n      add\n        /* \"#utility.yul\":14519:14538   */\n      swap1\n      pop\n        /* \"#utility.yul\":14179:14544   */\n      swap2\n      swap1\n      pop\n      jump\t// out\n        /* \"#utility.yul\":14550:14969   */\n    tag_141:\n        /* \"#utility.yul\":14716:14720   */\n      0x00\n        /* \"#utility.yul\":14754:14756   */\n      0x20\n        /* \"#utility.yul\":14743:14752   */\n      dup3\n        /* \"#utility.yul\":14739:14757   */\n      add\n        /* \"#utility.yul\":14731:14757   */\n      swap1\n      pop\n        /* \"#utility.yul\":14803:14812   */\n      dup2\n        /* \"#utility.yul\":14797:14801   */\n      dup2\n        /* \"#utility.yul\":14793:14813   */\n      sub\n        /* \"#utility.yul\":14789:14790   */\n      0x00\n        /* \"#utility.yul\":14778:14787   */\n      dup4\n        /* \"#utility.yul\":14774:14791   */\n      add\n        /* \"#utility.yul\":14767:14814   */\n      mstore\n        /* \"#utility.yul\":14831:14962   */\n      tag_395\n        /* \"#utility.yul\":14957:14961   */\n      dup2\n        /* \"#utility.yul\":14831:14962   */\n      tag_242\n      jump\t// in\n    tag_395:\n        /* \"#utility.yul\":14823:14962   */\n      swap1\n      pop\n        /* \"#utility.yul\":14550:14969   */\n      swap2\n      swap1\n      pop\n      jump\t// out\n        /* \"#utility.yul\":14975:15132   */\n    tag_243:\n        /* \"#utility.yul\":15115:15124   */\n      0x6572726f72303100000000000000000000000000000000000000000000000000\n        /* \"#utility.yul\":15111:15112   */\n      0x00\n        /* \"#utility.yul\":15103:15109   */\n      dup3\n        /* \"#utility.yul\":15099:15113   */\n      add\n        /* \"#utility.yul\":15092:15125   */\n      mstore\n        /* \"#utility.yul\":14975:15132   */\n      pop\n      jump\t// out\n        /* \"#utility.yul\":15138:15503   */\n    tag_244:\n        /* \"#utility.yul\":15280:15283   */\n      0x00\n        /* \"#utility.yul\":15301:15367   */\n      tag_398\n        /* \"#utility.yul\":15365:15366   */\n      0x07\n        /* \"#utility.yul\":15360:15363   */\n      dup4\n        /* \"#utility.yul\":15301:15367   */\n      tag_234\n      jump\t// in\n    tag_398:\n        /* \"#utility.yul\":15294:15367   */\n      swap2\n      pop\n        /* \"#utility.yul\":15376:15469   */\n      tag_399\n        /* \"#utility.yul\":15465:15468   */\n      dup3\n        /* \"#utility.yul\":15376:15469   */\n      tag_243\n      jump\t// in\n    tag_399:\n        /* \"#utility.yul\":15494:15496   */\n      0x20\n        /* \"#utility.yul\":15489:15492   */\n      dup3\n        /* \"#utility.yul\":15485:15497   */\n      add\n        /* \"#utility.yul\":15478:15497   */\n      swap1\n      pop\n        /* \"#utility.yul\":15138:15503   */\n      swap2\n      swap1\n      pop\n      jump\t// out\n        /* \"#utility.yul\":15509:15928   */\n    tag_147:\n        /* \"#utility.yul\":15675:15679   */\n      0x00\n        /* \"#utility.yul\":15713:15715   */\n      0x20\n        /* \"#utility.yul\":15702:15711   */\n      dup3\n        /* \"#utility.yul\":15698:15716   */\n      add\n        /* \"#utility.yul\":15690:15716   */\n      swap1\n      pop\n        /* \"#utility.yul\":15762:15771   */\n      dup2\n        /* \"#utility.yul\":15756:15760   */\n      dup2\n        /* \"#utility.yul\":15752:15772   */\n      sub\n        /* \"#utility.yul\":15748:15749   */\n      0x00\n        /* \"#utility.yul\":15737:15746   */\n      dup4\n        /* \"#utility.yul\":15733:15750   */\n      add\n        /* \"#utility.yul\":15726:15773   */\n      mstore\n        /* \"#utility.yul\":15790:15921   */\n      tag_401\n        /* \"#utility.yul\":15916:15920   */\n      dup2\n        /* \"#utility.yul\":15790:15921   */\n      tag_244\n      jump\t// in\n    tag_401:\n        /* \"#utility.yul\":15782:15921   */\n      swap1\n      pop\n        /* \"#utility.yul\":15509:15928   */\n      swap2\n      swap1\n      pop\n      jump\t// out\n        /* \"#utility.yul\":15934:16128   */\n    tag_169:\n        /* \"#utility.yul\":15974:15978   */\n      0x00\n        /* \"#utility.yul\":15994:16014   */\n      tag_403\n        /* \"#utility.yul\":16012:16013   */\n      dup3\n        /* \"#utility.yul\":15994:16014   */\n      tag_219\n      jump\t// in\n    tag_403:\n        /* \"#utility.yul\":15989:16014   */\n      swap2\n      pop\n        /* \"#utility.yul\":16028:16048   */\n      tag_404\n        /* \"#utility.yul\":16046:16047   */\n      dup4\n        /* \"#utility.yul\":16028:16048   */\n      tag_219\n      jump\t// in\n    tag_404:\n        /* \"#utility.yul\":16023:16048   */\n      swap3\n      pop\n        /* \"#utility.yul\":16072:16073   */\n      dup3\n        /* \"#utility.yul\":16069:16070   */\n      dup3\n        /* \"#utility.yul\":16065:16074   */\n      sub\n        /* \"#utility.yul\":16057:16074   */\n      swap1\n      pop\n        /* \"#utility.yul\":16096:16097   */\n      dup2\n        /* \"#utility.yul\":16090:16094   */\n      dup2\n        /* \"#utility.yul\":16087:16098   */\n      gt\n        /* \"#utility.yul\":16084:16121   */\n      iszero\n      tag_405\n      jumpi\n        /* \"#utility.yul\":16101:16119   */\n      tag_406\n      tag_232\n      jump\t// in\n    tag_406:\n        /* \"#utility.yul\":16084:16121   */\n    tag_405:\n        /* \"#utility.yul\":15934:16128   */\n      swap3\n      swap2\n      pop\n      pop\n      jump\t// out\n        /* \"#utility.yul\":16134:16291   */\n    tag_245:\n        /* \"#utility.yul\":16274:16283   */\n      0x6572726f72303700000000000000000000000000000000000000000000000000\n        /* \"#utility.yul\":16270:16271   */\n      0x00\n        /* \"#utility.yul\":16262:16268   */\n      dup3\n        /* \"#utility.yul\":16258:16272   */\n      add\n        /* \"#utility.yul\":16251:16284   */\n      mstore\n        /* \"#utility.yul\":16134:16291   */\n      pop\n      jump\t// out\n        /* \"#utility.yul\":16297:16662   */\n    tag_246:\n        /* \"#utility.yul\":16439:16442   */\n      0x00\n        /* \"#utility.yul\":16460:16526   */\n      tag_409\n        /* \"#utility.yul\":16524:16525   */\n      0x07\n        /* \"#utility.yul\":16519:16522   */\n      dup4\n        /* \"#utility.yul\":16460:16526   */\n      tag_234\n      jump\t// in\n    tag_409:\n        /* \"#utility.yul\":16453:16526   */\n      swap2\n      pop\n        /* \"#utility.yul\":16535:16628   */\n      tag_410\n        /* \"#utility.yul\":16624:16627   */\n      dup3\n        /* \"#utility.yul\":16535:16628   */\n      tag_245\n      jump\t// in\n    tag_410:\n        /* \"#utility.yul\":16653:16655   */\n      0x20\n        /* \"#utility.yul\":16648:16651   */\n      dup3\n        /* \"#utility.yul\":16644:16656   */\n      add\n        /* \"#utility.yul\":16637:16656   */\n      swap1\n      pop\n        /* \"#utility.yul\":16297:16662   */\n      swap2\n      swap1\n      pop\n      jump\t// out\n        /* \"#utility.yul\":16668:17087   */\n    tag_175:\n        /* \"#utility.yul\":16834:16838   */\n      0x00\n        /* \"#utility.yul\":16872:16874   */\n      0x20\n        /* \"#utility.yul\":16861:16870   */\n      dup3\n        /* \"#utility.yul\":16857:16875   */\n      add\n        /* \"#utility.yul\":16849:16875   */\n      swap1\n      pop\n        /* \"#utility.yul\":16921:16930   */\n      dup2\n        /* \"#utility.yul\":16915:16919   */\n      dup2\n        /* \"#utility.yul\":16911:16931   */\n      sub\n        /* \"#utility.yul\":16907:16908   */\n      0x00\n        /* \"#utility.yul\":16896:16905   */\n      dup4\n        /* \"#utility.yul\":16892:16909   */\n      add\n        /* \"#utility.yul\":16885:16932   */\n      mstore\n        /* \"#utility.yul\":16949:17080   */\n      tag_412\n        /* \"#utility.yul\":17075:17079   */\n      dup2\n        /* \"#utility.yul\":16949:17080   */\n      tag_246\n      jump\t// in\n    tag_412:\n        /* \"#utility.yul\":16941:17080   */\n      swap1\n      pop\n        /* \"#utility.yul\":16668:17087   */\n      swap2\n      swap1\n      pop\n      jump\t// out\n        /* \"#utility.yul\":17093:17264   */\n    tag_198:\n        /* \"#utility.yul\":17132:17135   */\n      0x00\n        /* \"#utility.yul\":17155:17179   */\n      tag_414\n        /* \"#utility.yul\":17173:17178   */\n      dup3\n        /* \"#utility.yul\":17155:17179   */\n      tag_219\n      jump\t// in\n    tag_414:\n        /* \"#utility.yul\":17146:17179   */\n      swap2\n      pop\n        /* \"#utility.yul\":17201:17205   */\n      0x00\n        /* \"#utility.yul\":17194:17199   */\n      dup3\n        /* \"#utility.yul\":17191:17206   */\n      sub\n        /* \"#utility.yul\":17188:17229   */\n      tag_415\n      jumpi\n        /* \"#utility.yul\":17209:17227   */\n      tag_416\n      tag_232\n      jump\t// in\n    tag_416:\n        /* \"#utility.yul\":17188:17229   */\n    tag_415:\n        /* \"#utility.yul\":17256:17257   */\n      0x01\n        /* \"#utility.yul\":17249:17254   */\n      dup3\n        /* \"#utility.yul\":17245:17258   */\n      sub\n        /* \"#utility.yul\":17238:17258   */\n      swap1\n      pop\n        /* \"#utility.yul\":17093:17264   */\n      swap2\n      swap1\n      pop\n      jump\t// out\n\n    auxdata: 0xa2646970667358221220072905225423f0b0ab29fb90ba31b40ceeb53fdb43919152fab222fc7df3673764736f6c63430008120033\n}\n",
				"bytecode": {
					"linkReferences": {},
					"object": "608060405234801561001057600080fd5b50611e30806100206000396000f3fe608060405234801561001057600080fd5b50600436106100cf5760003560e01c80636876a95e1161008c578063a0e1ace811610066578063a0e1ace814610212578063c0f0b3f11461022e578063ef11783c1461024a578063ff87578c1461027a576100cf565b80636876a95e146101a8578063694e80c3146101d857806381244e5d146101f4576100cf565b8063029c81e3146100d45780630a3b0a4f146100f25780630c3dfc1a146101225780630c54620414610140578063549102981461015c5780635ce7fa2d1461018c575b600080fd5b6100dc6102aa565b6040516100e991906115ef565b60405180910390f35b61010c60048036038101906101079190611651565b6103fd565b604051610119919061170e565b60405180910390f35b61012a610495565b6040516101379190611749565b60405180910390f35b61015a60048036038101906101559190611790565b61049b565b005b61017660048036038101906101719190611790565b61064e565b604051610183919061170e565b60405180910390f35b6101a660048036038101906101a19190611651565b6106e9565b005b6101c260048036038101906101bd91906117d0565b610931565b6040516101cf919061170e565b60405180910390f35b6101f260048036038101906101ed91906117d0565b6109c9565b005b6101fc610b03565b6040516102099190611749565b60405180910390f35b61022c60048036038101906102279190611945565b610b0d565b005b61024860048036038101906102439190611790565b610cfa565b005b610264600480360381019061025f9190611651565b610e64565b60405161027191906119bc565b60405180910390f35b610294600480360381019061028f9190611790565b610fbe565b6040516102a1919061170e565b60405180910390f35b60606000805467ffffffffffffffff8111156102c9576102c8611802565b5b6040519080825280602002602001820160405280156102f75781602001602082028036833780820191505090505b509050600060026000600173ffffffffffffffffffffffffffffffffffffffff1673ffffffffffffffffffffffffffffffffffffffff1681526020019081526020016000206000600115151515815260200190815260200160002060009054906101000a900473ffffffffffffffffffffffffffffffffffffffff16905060005b6000548110156103f45781838281518110610396576103956119d7565b5b602002602001019073ffffffffffffffffffffffffffffffffffffffff16908173ffffffffffffffffffffffffffffffffffffffff16815250506103db826001611059565b90508092505080806103ec90611a35565b915050610378565b82935050505090565b60607f5ce7fa2d7df4a3b8ac1f4edf3b55bd9def1ea63ad71b157bf5823b2597dd13b0826040516024016104319190611a8c565b604051602081830303815290604052907bffffffffffffffffffffffffffffffffffffffffffffffffffffffff19166020820180517bffffffffffffffffffffffffffffffffffffffffffffffffffffffff83818316178352505050509050919050565b60005481565b3073ffffffffffffffffffffffffffffffffffffffff163373ffffffffffffffffffffffffffffffffffffffff1614610509576040517f08c379a000000000000000000000000000000000000000000000000000000000815260040161050090611b04565b60405180910390fd5b8060016000546105199190611b24565b10158015610528575060008110155b61053157600080fd5b600073ffffffffffffffffffffffffffffffffffffffff168273ffffffffffffffffffffffffffffffffffffffff161415801561059a57503073ffffffffffffffffffffffffffffffffffffffff168273ffffffffffffffffffffffffffffffffffffffff1614155b80156105ac57506105aa82610e64565b155b6105eb576040517f08c379a00000000000000000000000000000000000000000000000000000000081526004016105e290611ba4565b60405180910390fd5b6105f4826106e9565b8173ffffffffffffffffffffffffffffffffffffffff167fac1e9ef41b54c676ccf449d83ae6f2624bcdce8f5b93a6b48ce95874c332693d60405160405180910390a2600154811461064a57610649816109c9565b5b5050565b60607f5cb963ae197a87311b65f828de4c1673c22d6ac1a28aa681cfeb35b1ff025d7a8383604051602401610684929190611bc4565b604051602081830303815290604052907bffffffffffffffffffffffffffffffffffffffffffffffffffffffff19166020820180517bffffffffffffffffffffffffffffffffffffffffffffffffffffffff8381831617835250505050905092915050565b600073ffffffffffffffffffffffffffffffffffffffff168173ffffffffffffffffffffffffffffffffffffffff161415801561075257503073ffffffffffffffffffffffffffffffffffffffff168173ffffffffffffffffffffffffffffffffffffffff1614155b8015610764575061076281610e64565b155b6107a3576040517f08c379a000000000000000000000000000000000000000000000000000000000815260040161079a90611ba4565b60405180910390fd5b60006001905060006107b6826001611059565b9050809150505b600073ffffffffffffffffffffffffffffffffffffffff168173ffffffffffffffffffffffffffffffffffffffff16146108d4578273ffffffffffffffffffffffffffffffffffffffff168173ffffffffffffffffffffffffffffffffffffffff1611801561085757508273ffffffffffffffffffffffffffffffffffffffff168273ffffffffffffffffffffffffffffffffffffffff16105b1561086d57610868828460016110f8565b6108d4565b8273ffffffffffffffffffffffffffffffffffffffff168173ffffffffffffffffffffffffffffffffffffffff1611156108ba578190506108af826000611059565b9050809250506108cf565b8091506108c8816001611059565b9050809150505b6107bd565b600073ffffffffffffffffffffffffffffffffffffffff168173ffffffffffffffffffffffffffffffffffffffff160361091557610914828460016110f8565b5b60008081548092919061092790611a35565b9190505550505050565b60607f694e80c37192d74d6099f3d3b41506932ab644a24442ee51857cfeb9eb01ac2f826040516024016109659190611749565b604051602081830303815290604052907bffffffffffffffffffffffffffffffffffffffffffffffffffffffff19166020820180517bffffffffffffffffffffffffffffffffffffffffffffffffffffffff83818316178352505050509050919050565b3073ffffffffffffffffffffffffffffffffffffffff163373ffffffffffffffffffffffffffffffffffffffff1614610a37576040517f08c379a0000000000000000000000000000000000000000000000000000000008152600401610a2e90611b04565b60405180910390fd5b600054811115610a7c576040517f08c379a0000000000000000000000000000000000000000000000000000000008152600401610a7390611c39565b60405180910390fd5b6001811015610ac0576040517f08c379a0000000000000000000000000000000000000000000000000000000008152600401610ab790611ca5565b60405180910390fd5b806001819055507f9947ac58e204d2da07b9748298663b3b77da7fb0638201d778987ded7c90fbaa600154604051610af89190611749565b60405180910390a150565b6000600154905090565b600060015414610b52576040517f08c379a0000000000000000000000000000000000000000000000000000000008152600401610b4990611d11565b60405180910390fd5b8151811115610b96576040517f08c379a0000000000000000000000000000000000000000000000000000000008152600401610b8d90611c39565b60405180910390fd5b6001811015610bda576040517f08c379a0000000000000000000000000000000000000000000000000000000008152600401610bd190611ca5565b60405180910390fd5b60006001905060005b8351811015610ce5576000848281518110610c0157610c006119d7565b5b60200260200101519050600073ffffffffffffffffffffffffffffffffffffffff168173ffffffffffffffffffffffffffffffffffffffff1614158015610c7457503073ffffffffffffffffffffffffffffffffffffffff168173ffffffffffffffffffffffffffffffffffffffff1614155b8015610c865750610c8481610e64565b155b610cc5576040517f08c379a0000000000000000000000000000000000000000000000000000000008152600401610cbc90611ba4565b60405180910390fd5b610cce816106e9565b809250508080610cdd90611a35565b915050610be3565b50816001819055508251600081905550505050565b3073ffffffffffffffffffffffffffffffffffffffff163373ffffffffffffffffffffffffffffffffffffffff1614610d68576040517f08c379a0000000000000000000000000000000000000000000000000000000008152600401610d5f90611b04565b60405180910390fd5b806001600054610d789190611d31565b1015610db9576040517f08c379a0000000000000000000000000000000000000000000000000000000008152600401610db090611c39565b60405180910390fd5b610dc282610e64565b610e01576040517f08c379a0000000000000000000000000000000000000000000000000000000008152600401610df890611db1565b60405180910390fd5b610e0a8261118d565b8173ffffffffffffffffffffffffffffffffffffffff167fac6e8398676cf37429d530b81144d7079e99f4fe9d28b0d88c4a749ceccbe8cd60405160405180910390a26001548114610e6057610e5f816109c9565b5b5050565b60008073ffffffffffffffffffffffffffffffffffffffff16600260008473ffffffffffffffffffffffffffffffffffffffff1673ffffffffffffffffffffffffffffffffffffffff16815260200190815260200160002060008015151515815260200190815260200160002060009054906101000a900473ffffffffffffffffffffffffffffffffffffffff1673ffffffffffffffffffffffffffffffffffffffff16141580610fb75750600073ffffffffffffffffffffffffffffffffffffffff16600260008473ffffffffffffffffffffffffffffffffffffffff1673ffffffffffffffffffffffffffffffffffffffff1681526020019081526020016000206000600115151515815260200190815260200160002060009054906101000a900473ffffffffffffffffffffffffffffffffffffffff1673ffffffffffffffffffffffffffffffffffffffff1614155b9050919050565b60607f0f6fd209ba0161acfd0f4d4fa947b5907845ed1e66071e030be54ba4c310c5a68383604051602401610ff4929190611bc4565b604051602081830303815290604052907bffffffffffffffffffffffffffffffffffffffffffffffffffffffff19166020820180517bffffffffffffffffffffffffffffffffffffffffffffffffffffffff8381831617835250505050905092915050565b60008061106584610e64565b61107557600080915091506110f1565b6001600260008673ffffffffffffffffffffffffffffffffffffffff1673ffffffffffffffffffffffffffffffffffffffff16815260200190815260200160002060008515151515815260200190815260200160002060009054906101000a900473ffffffffffffffffffffffffffffffffffffffff16915091505b9250929050565b6000600260008573ffffffffffffffffffffffffffffffffffffffff1673ffffffffffffffffffffffffffffffffffffffff16815260200190815260200160002060008315151515815260200190815260200160002060009054906101000a900473ffffffffffffffffffffffffffffffffffffffff16905061117c8484846113d3565b6111878382846113d3565b50505050565b61119681610e64565b6111d5576040517f08c379a00000000000000000000000000000000000000000000000000000000081526004016111cc90611db1565b60405180910390fd5b6112ca600260008373ffffffffffffffffffffffffffffffffffffffff1673ffffffffffffffffffffffffffffffffffffffff16815260200190815260200160002060008015151515815260200190815260200160002060009054906101000a900473ffffffffffffffffffffffffffffffffffffffff16600260008473ffffffffffffffffffffffffffffffffffffffff1673ffffffffffffffffffffffffffffffffffffffff1681526020019081526020016000206000600115151515815260200190815260200160002060009054906101000a900473ffffffffffffffffffffffffffffffffffffffff1660016113d3565b600260008273ffffffffffffffffffffffffffffffffffffffff1673ffffffffffffffffffffffffffffffffffffffff16815260200190815260200160002060008015151515815260200190815260200160002060006101000a81549073ffffffffffffffffffffffffffffffffffffffff0219169055600260008273ffffffffffffffffffffffffffffffffffffffff1673ffffffffffffffffffffffffffffffffffffffff1681526020019081526020016000206000600115151515815260200190815260200160002060006101000a81549073ffffffffffffffffffffffffffffffffffffffff02191690556000808154809291906113cb90611dd1565b919050555050565b82600260008473ffffffffffffffffffffffffffffffffffffffff1673ffffffffffffffffffffffffffffffffffffffff1681526020019081526020016000206000831515151515815260200190815260200160002060006101000a81548173ffffffffffffffffffffffffffffffffffffffff021916908373ffffffffffffffffffffffffffffffffffffffff16021790555081600260008573ffffffffffffffffffffffffffffffffffffffff1673ffffffffffffffffffffffffffffffffffffffff16815260200190815260200160002060008315151515815260200190815260200160002060006101000a81548173ffffffffffffffffffffffffffffffffffffffff021916908373ffffffffffffffffffffffffffffffffffffffff160217905550505050565b600081519050919050565b600082825260208201905092915050565b6000819050602082019050919050565b600073ffffffffffffffffffffffffffffffffffffffff82169050919050565b60006115568261152b565b9050919050565b6115668161154b565b82525050565b6000611578838361155d565b60208301905092915050565b6000602082019050919050565b600061159c826114ff565b6115a6818561150a565b93506115b18361151b565b8060005b838110156115e25781516115c9888261156c565b97506115d483611584565b9250506001810190506115b5565b5085935050505092915050565b600060208201905081810360008301526116098184611591565b905092915050565b6000604051905090565b600080fd5b600080fd5b61162e8161154b565b811461163957600080fd5b50565b60008135905061164b81611625565b92915050565b6000602082840312156116675761166661161b565b5b60006116758482850161163c565b91505092915050565b600081519050919050565b600082825260208201905092915050565b60005b838110156116b857808201518184015260208101905061169d565b60008484015250505050565b6000601f19601f8301169050919050565b60006116e08261167e565b6116ea8185611689565b93506116fa81856020860161169a565b611703816116c4565b840191505092915050565b6000602082019050818103600083015261172881846116d5565b905092915050565b6000819050919050565b61174381611730565b82525050565b600060208201905061175e600083018461173a565b92915050565b61176d81611730565b811461177857600080fd5b50565b60008135905061178a81611764565b92915050565b600080604083850312156117a7576117a661161b565b5b60006117b58582860161163c565b92505060206117c68582860161177b565b9150509250929050565b6000602082840312156117e6576117e561161b565b5b60006117f48482850161177b565b91505092915050565b600080fd5b7f4e487b7100000000000000000000000000000000000000000000000000000000600052604160045260246000fd5b61183a826116c4565b810181811067ffffffffffffffff8211171561185957611858611802565b5b80604052505050565b600061186c611611565b90506118788282611831565b919050565b600067ffffffffffffffff82111561189857611897611802565b5b602082029050602081019050919050565b600080fd5b60006118c16118bc8461187d565b611862565b905080838252602082019050602084028301858111156118e4576118e36118a9565b5b835b8181101561190d57806118f9888261163c565b8452602084019350506020810190506118e6565b5050509392505050565b600082601f83011261192c5761192b6117fd565b5b813561193c8482602086016118ae565b91505092915050565b6000806040838503121561195c5761195b61161b565b5b600083013567ffffffffffffffff81111561197a57611979611620565b5b61198685828601611917565b92505060206119978582860161177b565b9150509250929050565b60008115159050919050565b6119b6816119a1565b82525050565b60006020820190506119d160008301846119ad565b92915050565b7f4e487b7100000000000000000000000000000000000000000000000000000000600052603260045260246000fd5b7f4e487b7100000000000000000000000000000000000000000000000000000000600052601160045260246000fd5b6000611a4082611730565b91507fffffffffffffffffffffffffffffffffffffffffffffffffffffffffffffffff8203611a7257611a71611a06565b5b600182019050919050565b611a868161154b565b82525050565b6000602082019050611aa16000830184611a7d565b92915050565b600082825260208201905092915050565b7f4e6f7420617574686f72697a6564000000000000000000000000000000000000600082015250565b6000611aee600e83611aa7565b9150611af982611ab8565b602082019050919050565b60006020820190508181036000830152611b1d81611ae1565b9050919050565b6000611b2f82611730565b9150611b3a83611730565b9250828201905080821115611b5257611b51611a06565b5b92915050565b7f6572726f72303400000000000000000000000000000000000000000000000000600082015250565b6000611b8e600783611aa7565b9150611b9982611b58565b602082019050919050565b60006020820190508181036000830152611bbd81611b81565b9050919050565b6000604082019050611bd96000830185611a7d565b611be6602083018461173a565b9392505050565b7f6572726f72303200000000000000000000000000000000000000000000000000600082015250565b6000611c23600783611aa7565b9150611c2e82611bed565b602082019050919050565b60006020820190508181036000830152611c5281611c16565b9050919050565b7f6572726f72303300000000000000000000000000000000000000000000000000600082015250565b6000611c8f600783611aa7565b9150611c9a82611c59565b602082019050919050565b60006020820190508181036000830152611cbe81611c82565b9050919050565b7f6572726f72303100000000000000000000000000000000000000000000000000600082015250565b6000611cfb600783611aa7565b9150611d0682611cc5565b602082019050919050565b60006020820190508181036000830152611d2a81611cee565b9050919050565b6000611d3c82611730565b9150611d4783611730565b9250828203905081811115611d5f57611d5e611a06565b5b92915050565b7f6572726f72303700000000000000000000000000000000000000000000000000600082015250565b6000611d9b600783611aa7565b9150611da682611d65565b602082019050919050565b60006020820190508181036000830152611dca81611d8e565b9050919050565b6000611ddc82611730565b915060008203611def57611dee611a06565b5b60018203905091905056fea2646970667358221220072905225423f0b0ab29fb90ba31b40ceeb53fdb43919152fab222fc7df3673764736f6c63430008120033",
					"opcodes": "PUSH1 0x80 PUSH1 0x40 MSTORE CALLVALUE DUP1 ISZERO PUSH2 0x10 JUMPI PUSH1 0x0 DUP1 REVERT JUMPDEST POP PUSH2 0x1E30 DUP1 PUSH2 0x20 PUSH1 0x0 CODECOPY PUSH1 0x0 RETURN INVALID PUSH1 0x80 PUSH1 0x40 MSTORE CALLVALUE DUP1 ISZERO PUSH2 0x10 JUMPI PUSH1 0x0 DUP1 REVERT JUMPDEST POP PUSH1 0x4 CALLDATASIZE LT PUSH2 0xCF JUMPI PUSH1 0x0 CALLDATALOAD PUSH1 0xE0 SHR DUP1 PUSH4 0x6876A95E GT PUSH2 0x8C JUMPI DUP1 PUSH4 0xA0E1ACE8 GT PUSH2 0x66 JUMPI DUP1 PUSH4 0xA0E1ACE8 EQ PUSH2 0x212 JUMPI DUP1 PUSH4 0xC0F0B3F1 EQ PUSH2 0x22E JUMPI DUP1 PUSH4 0xEF11783C EQ PUSH2 0x24A JUMPI DUP1 PUSH4 0xFF87578C EQ PUSH2 0x27A JUMPI PUSH2 0xCF JUMP JUMPDEST DUP1 PUSH4 0x6876A95E EQ PUSH2 0x1A8 JUMPI DUP1 PUSH4 0x694E80C3 EQ PUSH2 0x1D8 JUMPI DUP1 PUSH4 0x81244E5D EQ PUSH2 0x1F4 JUMPI PUSH2 0xCF JUMP JUMPDEST DUP1 PUSH4 0x29C81E3 EQ PUSH2 0xD4 JUMPI DUP1 PUSH4 0xA3B0A4F EQ PUSH2 0xF2 JUMPI DUP1 PUSH4 0xC3DFC1A EQ PUSH2 0x122 JUMPI DUP1 PUSH4 0xC546204 EQ PUSH2 0x140 JUMPI DUP1 PUSH4 0x54910298 EQ PUSH2 0x15C JUMPI DUP1 PUSH4 0x5CE7FA2D EQ PUSH2 0x18C JUMPI JUMPDEST PUSH1 0x0 DUP1 REVERT JUMPDEST PUSH2 0xDC PUSH2 0x2AA JUMP JUMPDEST PUSH1 0x40 MLOAD PUSH2 0xE9 SWAP2 SWAP1 PUSH2 0x15EF JUMP JUMPDEST PUSH1 0x40 MLOAD DUP1 SWAP2 SUB SWAP1 RETURN JUMPDEST PUSH2 0x10C PUSH1 0x4 DUP1 CALLDATASIZE SUB DUP2 ADD SWAP1 PUSH2 0x107 SWAP2 SWAP1 PUSH2 0x1651 JUMP JUMPDEST PUSH2 0x3FD JUMP JUMPDEST PUSH1 0x40 MLOAD PUSH2 0x119 SWAP2 SWAP1 PUSH2 0x170E JUMP JUMPDEST PUSH1 0x40 MLOAD DUP1 SWAP2 SUB SWAP1 RETURN JUMPDEST PUSH2 0x12A PUSH2 0x495 JUMP JUMPDEST PUSH1 0x40 MLOAD PUSH2 0x137 SWAP2 SWAP1 PUSH2 0x1749 JUMP JUMPDEST PUSH1 0x40 MLOAD DUP1 SWAP2 SUB SWAP1 RETURN JUMPDEST PUSH2 0x15A PUSH1 0x4 DUP1 CALLDATASIZE SUB DUP2 ADD SWAP1 PUSH2 0x155 SWAP2 SWAP1 PUSH2 0x1790 JUMP JUMPDEST PUSH2 0x49B JUMP JUMPDEST STOP JUMPDEST PUSH2 0x176 PUSH1 0x4 DUP1 CALLDATASIZE SUB DUP2 ADD SWAP1 PUSH2 0x171 SWAP2 SWAP1 PUSH2 0x1790 JUMP JUMPDEST PUSH2 0x64E JUMP JUMPDEST PUSH1 0x40 MLOAD PUSH2 0x183 SWAP2 SWAP1 PUSH2 0x170E JUMP JUMPDEST PUSH1 0x40 MLOAD DUP1 SWAP2 SUB SWAP1 RETURN JUMPDEST PUSH2 0x1A6 PUSH1 0x4 DUP1 CALLDATASIZE SUB DUP2 ADD SWAP1 PUSH2 0x1A1 SWAP2 SWAP1 PUSH2 0x1651 JUMP JUMPDEST PUSH2 0x6E9 JUMP JUMPDEST STOP JUMPDEST PUSH2 0x1C2 PUSH1 0x4 DUP1 CALLDATASIZE SUB DUP2 ADD SWAP1 PUSH2 0x1BD SWAP2 SWAP1 PUSH2 0x17D0 JUMP JUMPDEST PUSH2 0x931 JUMP JUMPDEST PUSH1 0x40 MLOAD PUSH2 0x1CF SWAP2 SWAP1 PUSH2 0x170E JUMP JUMPDEST PUSH1 0x40 MLOAD DUP1 SWAP2 SUB SWAP1 RETURN JUMPDEST PUSH2 0x1F2 PUSH1 0x4 DUP1 CALLDATASIZE SUB DUP2 ADD SWAP1 PUSH2 0x1ED SWAP2 SWAP1 PUSH2 0x17D0 JUMP JUMPDEST PUSH2 0x9C9 JUMP JUMPDEST STOP JUMPDEST PUSH2 0x1FC PUSH2 0xB03 JUMP JUMPDEST PUSH1 0x40 MLOAD PUSH2 0x209 SWAP2 SWAP1 PUSH2 0x1749 JUMP JUMPDEST PUSH1 0x40 MLOAD DUP1 SWAP2 SUB SWAP1 RETURN JUMPDEST PUSH2 0x22C PUSH1 0x4 DUP1 CALLDATASIZE SUB DUP2 ADD SWAP1 PUSH2 0x227 SWAP2 SWAP1 PUSH2 0x1945 JUMP JUMPDEST PUSH2 0xB0D JUMP JUMPDEST STOP JUMPDEST PUSH2 0x248 PUSH1 0x4 DUP1 CALLDATASIZE SUB DUP2 ADD SWAP1 PUSH2 0x243 SWAP2 SWAP1 PUSH2 0x1790 JUMP JUMPDEST PUSH2 0xCFA JUMP JUMPDEST STOP JUMPDEST PUSH2 0x264 PUSH1 0x4 DUP1 CALLDATASIZE SUB DUP2 ADD SWAP1 PUSH2 0x25F SWAP2 SWAP1 PUSH2 0x1651 JUMP JUMPDEST PUSH2 0xE64 JUMP JUMPDEST PUSH1 0x40 MLOAD PUSH2 0x271 SWAP2 SWAP1 PUSH2 0x19BC JUMP JUMPDEST PUSH1 0x40 MLOAD DUP1 SWAP2 SUB SWAP1 RETURN JUMPDEST PUSH2 0x294 PUSH1 0x4 DUP1 CALLDATASIZE SUB DUP2 ADD SWAP1 PUSH2 0x28F SWAP2 SWAP1 PUSH2 0x1790 JUMP JUMPDEST PUSH2 0xFBE JUMP JUMPDEST PUSH1 0x40 MLOAD PUSH2 0x2A1 SWAP2 SWAP1 PUSH2 0x170E JUMP JUMPDEST PUSH1 0x40 MLOAD DUP1 SWAP2 SUB SWAP1 RETURN JUMPDEST PUSH1 0x60 PUSH1 0x0 DUP1 SLOAD PUSH8 0xFFFFFFFFFFFFFFFF DUP2 GT ISZERO PUSH2 0x2C9 JUMPI PUSH2 0x2C8 PUSH2 0x1802 JUMP JUMPDEST JUMPDEST PUSH1 0x40 MLOAD SWAP1 DUP1 DUP3 MSTORE DUP1 PUSH1 0x20 MUL PUSH1 0x20 ADD DUP3 ADD PUSH1 0x40 MSTORE DUP1 ISZERO PUSH2 0x2F7 JUMPI DUP2 PUSH1 0x20 ADD PUSH1 0x20 DUP3 MUL DUP1 CALLDATASIZE DUP4 CALLDATACOPY DUP1 DUP3 ADD SWAP2 POP POP SWAP1 POP JUMPDEST POP SWAP1 POP PUSH1 0x0 PUSH1 0x2 PUSH1 0x0 PUSH1 0x1 PUSH20 0xFFFFFFFFFFFFFFFFFFFFFFFFFFFFFFFFFFFFFFFF AND PUSH20 0xFFFFFFFFFFFFFFFFFFFFFFFFFFFFFFFFFFFFFFFF AND DUP2 MSTORE PUSH1 0x20 ADD SWAP1 DUP2 MSTORE PUSH1 0x20 ADD PUSH1 0x0 KECCAK256 PUSH1 0x0 PUSH1 0x1 ISZERO ISZERO ISZERO ISZERO DUP2 MSTORE PUSH1 0x20 ADD SWAP1 DUP2 MSTORE PUSH1 0x20 ADD PUSH1 0x0 KECCAK256 PUSH1 0x0 SWAP1 SLOAD SWAP1 PUSH2 0x100 EXP SWAP1 DIV PUSH20 0xFFFFFFFFFFFFFFFFFFFFFFFFFFFFFFFFFFFFFFFF AND SWAP1 POP PUSH1 0x0 JUMPDEST PUSH1 0x0 SLOAD DUP2 LT ISZERO PUSH2 0x3F4 JUMPI DUP2 DUP4 DUP3 DUP2 MLOAD DUP2 LT PUSH2 0x396 JUMPI PUSH2 0x395 PUSH2 0x19D7 JUMP JUMPDEST JUMPDEST PUSH1 0x20 MUL PUSH1 0x20 ADD ADD SWAP1 PUSH20 0xFFFFFFFFFFFFFFFFFFFFFFFFFFFFFFFFFFFFFFFF AND SWAP1 DUP2 PUSH20 0xFFFFFFFFFFFFFFFFFFFFFFFFFFFFFFFFFFFFFFFF AND DUP2 MSTORE POP POP PUSH2 0x3DB DUP3 PUSH1 0x1 PUSH2 0x1059 JUMP JUMPDEST SWAP1 POP DUP1 SWAP3 POP POP DUP1 DUP1 PUSH2 0x3EC SWAP1 PUSH2 0x1A35 JUMP JUMPDEST SWAP2 POP POP PUSH2 0x378 JUMP JUMPDEST DUP3 SWAP4 POP POP POP POP SWAP1 JUMP JUMPDEST PUSH1 0x60 PUSH32 0x5CE7FA2D7DF4A3B8AC1F4EDF3B55BD9DEF1EA63AD71B157BF5823B2597DD13B0 DUP3 PUSH1 0x40 MLOAD PUSH1 0x24 ADD PUSH2 0x431 SWAP2 SWAP1 PUSH2 0x1A8C JUMP JUMPDEST PUSH1 0x40 MLOAD PUSH1 0x20 DUP2 DUP4 SUB SUB DUP2 MSTORE SWAP1 PUSH1 0x40 MSTORE SWAP1 PUSH28 0xFFFFFFFFFFFFFFFFFFFFFFFFFFFFFFFFFFFFFFFFFFFFFFFFFFFFFFFF NOT AND PUSH1 0x20 DUP3 ADD DUP1 MLOAD PUSH28 0xFFFFFFFFFFFFFFFFFFFFFFFFFFFFFFFFFFFFFFFFFFFFFFFFFFFFFFFF DUP4 DUP2 DUP4 AND OR DUP4 MSTORE POP POP POP POP SWAP1 POP SWAP2 SWAP1 POP JUMP JUMPDEST PUSH1 0x0 SLOAD DUP2 JUMP JUMPDEST ADDRESS PUSH20 0xFFFFFFFFFFFFFFFFFFFFFFFFFFFFFFFFFFFFFFFF AND CALLER PUSH20 0xFFFFFFFFFFFFFFFFFFFFFFFFFFFFFFFFFFFFFFFF AND EQ PUSH2 0x509 JUMPI PUSH1 0x40 MLOAD PUSH32 0x8C379A000000000000000000000000000000000000000000000000000000000 DUP2 MSTORE PUSH1 0x4 ADD PUSH2 0x500 SWAP1 PUSH2 0x1B04 JUMP JUMPDEST PUSH1 0x40 MLOAD DUP1 SWAP2 SUB SWAP1 REVERT JUMPDEST DUP1 PUSH1 0x1 PUSH1 0x0 SLOAD PUSH2 0x519 SWAP2 SWAP1 PUSH2 0x1B24 JUMP JUMPDEST LT ISZERO DUP1 ISZERO PUSH2 0x528 JUMPI POP PUSH1 0x0 DUP2 LT ISZERO JUMPDEST PUSH2 0x531 JUMPI PUSH1 0x0 DUP1 REVERT JUMPDEST PUSH1 0x0 PUSH20 0xFFFFFFFFFFFFFFFFFFFFFFFFFFFFFFFFFFFFFFFF AND DUP3 PUSH20 0xFFFFFFFFFFFFFFFFFFFFFFFFFFFFFFFFFFFFFFFF AND EQ ISZERO DUP1 ISZERO PUSH2 0x59A JUMPI POP ADDRESS PUSH20 0xFFFFFFFFFFFFFFFFFFFFFFFFFFFFFFFFFFFFFFFF AND DUP3 PUSH20 0xFFFFFFFFFFFFFFFFFFFFFFFFFFFFFFFFFFFFFFFF AND EQ ISZERO JUMPDEST DUP1 ISZERO PUSH2 0x5AC JUMPI POP PUSH2 0x5AA DUP3 PUSH2 0xE64 JUMP JUMPDEST ISZERO JUMPDEST PUSH2 0x5EB JUMPI PUSH1 0x40 MLOAD PUSH32 0x8C379A000000000000000000000000000000000000000000000000000000000 DUP2 MSTORE PUSH1 0x4 ADD PUSH2 0x5E2 SWAP1 PUSH2 0x1BA4 JUMP JUMPDEST PUSH1 0x40 MLOAD DUP1 SWAP2 SUB SWAP1 REVERT JUMPDEST PUSH2 0x5F4 DUP3 PUSH2 0x6E9 JUMP JUMPDEST DUP2 PUSH20 0xFFFFFFFFFFFFFFFFFFFFFFFFFFFFFFFFFFFFFFFF AND PUSH32 0xAC1E9EF41B54C676CCF449D83AE6F2624BCDCE8F5B93A6B48CE95874C332693D PUSH1 0x40 MLOAD PUSH1 0x40 MLOAD DUP1 SWAP2 SUB SWAP1 LOG2 PUSH1 0x1 SLOAD DUP2 EQ PUSH2 0x64A JUMPI PUSH2 0x649 DUP2 PUSH2 0x9C9 JUMP JUMPDEST JUMPDEST POP POP JUMP JUMPDEST PUSH1 0x60 PUSH32 0x5CB963AE197A87311B65F828DE4C1673C22D6AC1A28AA681CFEB35B1FF025D7A DUP4 DUP4 PUSH1 0x40 MLOAD PUSH1 0x24 ADD PUSH2 0x684 SWAP3 SWAP2 SWAP1 PUSH2 0x1BC4 JUMP JUMPDEST PUSH1 0x40 MLOAD PUSH1 0x20 DUP2 DUP4 SUB SUB DUP2 MSTORE SWAP1 PUSH1 0x40 MSTORE SWAP1 PUSH28 0xFFFFFFFFFFFFFFFFFFFFFFFFFFFFFFFFFFFFFFFFFFFFFFFFFFFFFFFF NOT AND PUSH1 0x20 DUP3 ADD DUP1 MLOAD PUSH28 0xFFFFFFFFFFFFFFFFFFFFFFFFFFFFFFFFFFFFFFFFFFFFFFFFFFFFFFFF DUP4 DUP2 DUP4 AND OR DUP4 MSTORE POP POP POP POP SWAP1 POP SWAP3 SWAP2 POP POP JUMP JUMPDEST PUSH1 0x0 PUSH20 0xFFFFFFFFFFFFFFFFFFFFFFFFFFFFFFFFFFFFFFFF AND DUP2 PUSH20 0xFFFFFFFFFFFFFFFFFFFFFFFFFFFFFFFFFFFFFFFF AND EQ ISZERO DUP1 ISZERO PUSH2 0x752 JUMPI POP ADDRESS PUSH20 0xFFFFFFFFFFFFFFFFFFFFFFFFFFFFFFFFFFFFFFFF AND DUP2 PUSH20 0xFFFFFFFFFFFFFFFFFFFFFFFFFFFFFFFFFFFFFFFF AND EQ ISZERO JUMPDEST DUP1 ISZERO PUSH2 0x764 JUMPI POP PUSH2 0x762 DUP2 PUSH2 0xE64 JUMP JUMPDEST ISZERO JUMPDEST PUSH2 0x7A3 JUMPI PUSH1 0x40 MLOAD PUSH32 0x8C379A000000000000000000000000000000000000000000000000000000000 DUP2 MSTORE PUSH1 0x4 ADD PUSH2 0x79A SWAP1 PUSH2 0x1BA4 JUMP JUMPDEST PUSH1 0x40 MLOAD DUP1 SWAP2 SUB SWAP1 REVERT JUMPDEST PUSH1 0x0 PUSH1 0x1 SWAP1 POP PUSH1 0x0 PUSH2 0x7B6 DUP3 PUSH1 0x1 PUSH2 0x1059 JUMP JUMPDEST SWAP1 POP DUP1 SWAP2 POP POP JUMPDEST PUSH1 0x0 PUSH20 0xFFFFFFFFFFFFFFFFFFFFFFFFFFFFFFFFFFFFFFFF AND DUP2 PUSH20 0xFFFFFFFFFFFFFFFFFFFFFFFFFFFFFFFFFFFFFFFF AND EQ PUSH2 0x8D4 JUMPI DUP3 PUSH20 0xFFFFFFFFFFFFFFFFFFFFFFFFFFFFFFFFFFFFFFFF AND DUP2 PUSH20 0xFFFFFFFFFFFFFFFFFFFFFFFFFFFFFFFFFFFFFFFF AND GT DUP1 ISZERO PUSH2 0x857 JUMPI POP DUP3 PUSH20 0xFFFFFFFFFFFFFFFFFFFFFFFFFFFFFFFFFFFFFFFF AND DUP3 PUSH20 0xFFFFFFFFFFFFFFFFFFFFFFFFFFFFFFFFFFFFFFFF AND LT JUMPDEST ISZERO PUSH2 0x86D JUMPI PUSH2 0x868 DUP3 DUP5 PUSH1 0x1 PUSH2 0x10F8 JUMP JUMPDEST PUSH2 0x8D4 JUMP JUMPDEST DUP3 PUSH20 0xFFFFFFFFFFFFFFFFFFFFFFFFFFFFFFFFFFFFFFFF AND DUP2 PUSH20 0xFFFFFFFFFFFFFFFFFFFFFFFFFFFFFFFFFFFFFFFF AND GT ISZERO PUSH2 0x8BA JUMPI DUP2 SWAP1 POP PUSH2 0x8AF DUP3 PUSH1 0x0 PUSH2 0x1059 JUMP JUMPDEST SWAP1 POP DUP1 SWAP3 POP POP PUSH2 0x8CF JUMP JUMPDEST DUP1 SWAP2 POP PUSH2 0x8C8 DUP2 PUSH1 0x1 PUSH2 0x1059 JUMP JUMPDEST SWAP1 POP DUP1 SWAP2 POP POP JUMPDEST PUSH2 0x7BD JUMP JUMPDEST PUSH1 0x0 PUSH20 0xFFFFFFFFFFFFFFFFFFFFFFFFFFFFFFFFFFFFFFFF AND DUP2 PUSH20 0xFFFFFFFFFFFFFFFFFFFFFFFFFFFFFFFFFFFFFFFF AND SUB PUSH2 0x915 JUMPI PUSH2 0x914 DUP3 DUP5 PUSH1 0x1 PUSH2 0x10F8 JUMP JUMPDEST JUMPDEST PUSH1 0x0 DUP1 DUP2 SLOAD DUP1 SWAP3 SWAP2 SWAP1 PUSH2 0x927 SWAP1 PUSH2 0x1A35 JUMP JUMPDEST SWAP2 SWAP1 POP SSTORE POP POP POP POP JUMP JUMPDEST PUSH1 0x60 PUSH32 0x694E80C37192D74D6099F3D3B41506932AB644A24442EE51857CFEB9EB01AC2F DUP3 PUSH1 0x40 MLOAD PUSH1 0x24 ADD PUSH2 0x965 SWAP2 SWAP1 PUSH2 0x1749 JUMP JUMPDEST PUSH1 0x40 MLOAD PUSH1 0x20 DUP2 DUP4 SUB SUB DUP2 MSTORE SWAP1 PUSH1 0x40 MSTORE SWAP1 PUSH28 0xFFFFFFFFFFFFFFFFFFFFFFFFFFFFFFFFFFFFFFFFFFFFFFFFFFFFFFFF NOT AND PUSH1 0x20 DUP3 ADD DUP1 MLOAD PUSH28 0xFFFFFFFFFFFFFFFFFFFFFFFFFFFFFFFFFFFFFFFFFFFFFFFFFFFFFFFF DUP4 DUP2 DUP4 AND OR DUP4 MSTORE POP POP POP POP SWAP1 POP SWAP2 SWAP1 POP JUMP JUMPDEST ADDRESS PUSH20 0xFFFFFFFFFFFFFFFFFFFFFFFFFFFFFFFFFFFFFFFF AND CALLER PUSH20 0xFFFFFFFFFFFFFFFFFFFFFFFFFFFFFFFFFFFFFFFF AND EQ PUSH2 0xA37 JUMPI PUSH1 0x40 MLOAD PUSH32 0x8C379A000000000000000000000000000000000000000000000000000000000 DUP2 MSTORE PUSH1 0x4 ADD PUSH2 0xA2E SWAP1 PUSH2 0x1B04 JUMP JUMPDEST PUSH1 0x40 MLOAD DUP1 SWAP2 SUB SWAP1 REVERT JUMPDEST PUSH1 0x0 SLOAD DUP2 GT ISZERO PUSH2 0xA7C JUMPI PUSH1 0x40 MLOAD PUSH32 0x8C379A000000000000000000000000000000000000000000000000000000000 DUP2 MSTORE PUSH1 0x4 ADD PUSH2 0xA73 SWAP1 PUSH2 0x1C39 JUMP JUMPDEST PUSH1 0x40 MLOAD DUP1 SWAP2 SUB SWAP1 REVERT JUMPDEST PUSH1 0x1 DUP2 LT ISZERO PUSH2 0xAC0 JUMPI PUSH1 0x40 MLOAD PUSH32 0x8C379A000000000000000000000000000000000000000000000000000000000 DUP2 MSTORE PUSH1 0x4 ADD PUSH2 0xAB7 SWAP1 PUSH2 0x1CA5 JUMP JUMPDEST PUSH1 0x40 MLOAD DUP1 SWAP2 SUB SWAP1 REVERT JUMPDEST DUP1 PUSH1 0x1 DUP2 SWAP1 SSTORE POP PUSH32 0x9947AC58E204D2DA07B9748298663B3B77DA7FB0638201D778987DED7C90FBAA PUSH1 0x1 SLOAD PUSH1 0x40 MLOAD PUSH2 0xAF8 SWAP2 SWAP1 PUSH2 0x1749 JUMP JUMPDEST PUSH1 0x40 MLOAD DUP1 SWAP2 SUB SWAP1 LOG1 POP JUMP JUMPDEST PUSH1 0x0 PUSH1 0x1 SLOAD SWAP1 POP SWAP1 JUMP JUMPDEST PUSH1 0x0 PUSH1 0x1 SLOAD EQ PUSH2 0xB52 JUMPI PUSH1 0x40 MLOAD PUSH32 0x8C379A000000000000000000000000000000000000000000000000000000000 DUP2 MSTORE PUSH1 0x4 ADD PUSH2 0xB49 SWAP1 PUSH2 0x1D11 JUMP JUMPDEST PUSH1 0x40 MLOAD DUP1 SWAP2 SUB SWAP1 REVERT JUMPDEST DUP2 MLOAD DUP2 GT ISZERO PUSH2 0xB96 JUMPI PUSH1 0x40 MLOAD PUSH32 0x8C379A000000000000000000000000000000000000000000000000000000000 DUP2 MSTORE PUSH1 0x4 ADD PUSH2 0xB8D SWAP1 PUSH2 0x1C39 JUMP JUMPDEST PUSH1 0x40 MLOAD DUP1 SWAP2 SUB SWAP1 REVERT JUMPDEST PUSH1 0x1 DUP2 LT ISZERO PUSH2 0xBDA JUMPI PUSH1 0x40 MLOAD PUSH32 0x8C379A000000000000000000000000000000000000000000000000000000000 DUP2 MSTORE PUSH1 0x4 ADD PUSH2 0xBD1 SWAP1 PUSH2 0x1CA5 JUMP JUMPDEST PUSH1 0x40 MLOAD DUP1 SWAP2 SUB SWAP1 REVERT JUMPDEST PUSH1 0x0 PUSH1 0x1 SWAP1 POP PUSH1 0x0 JUMPDEST DUP4 MLOAD DUP2 LT ISZERO PUSH2 0xCE5 JUMPI PUSH1 0x0 DUP5 DUP3 DUP2 MLOAD DUP2 LT PUSH2 0xC01 JUMPI PUSH2 0xC00 PUSH2 0x19D7 JUMP JUMPDEST JUMPDEST PUSH1 0x20 MUL PUSH1 0x20 ADD ADD MLOAD SWAP1 POP PUSH1 0x0 PUSH20 0xFFFFFFFFFFFFFFFFFFFFFFFFFFFFFFFFFFFFFFFF AND DUP2 PUSH20 0xFFFFFFFFFFFFFFFFFFFFFFFFFFFFFFFFFFFFFFFF AND EQ ISZERO DUP1 ISZERO PUSH2 0xC74 JUMPI POP ADDRESS PUSH20 0xFFFFFFFFFFFFFFFFFFFFFFFFFFFFFFFFFFFFFFFF AND DUP2 PUSH20 0xFFFFFFFFFFFFFFFFFFFFFFFFFFFFFFFFFFFFFFFF AND EQ ISZERO JUMPDEST DUP1 ISZERO PUSH2 0xC86 JUMPI POP PUSH2 0xC84 DUP2 PUSH2 0xE64 JUMP JUMPDEST ISZERO JUMPDEST PUSH2 0xCC5 JUMPI PUSH1 0x40 MLOAD PUSH32 0x8C379A000000000000000000000000000000000000000000000000000000000 DUP2 MSTORE PUSH1 0x4 ADD PUSH2 0xCBC SWAP1 PUSH2 0x1BA4 JUMP JUMPDEST PUSH1 0x40 MLOAD DUP1 SWAP2 SUB SWAP1 REVERT JUMPDEST PUSH2 0xCCE DUP2 PUSH2 0x6E9 JUMP JUMPDEST DUP1 SWAP3 POP POP DUP1 DUP1 PUSH2 0xCDD SWAP1 PUSH2 0x1A35 JUMP JUMPDEST SWAP2 POP POP PUSH2 0xBE3 JUMP JUMPDEST POP DUP2 PUSH1 0x1 DUP2 SWAP1 SSTORE POP DUP3 MLOAD PUSH1 0x0 DUP2 SWAP1 SSTORE POP POP POP POP JUMP JUMPDEST ADDRESS PUSH20 0xFFFFFFFFFFFFFFFFFFFFFFFFFFFFFFFFFFFFFFFF AND CALLER PUSH20 0xFFFFFFFFFFFFFFFFFFFFFFFFFFFFFFFFFFFFFFFF AND EQ PUSH2 0xD68 JUMPI PUSH1 0x40 MLOAD PUSH32 0x8C379A000000000000000000000000000000000000000000000000000000000 DUP2 MSTORE PUSH1 0x4 ADD PUSH2 0xD5F SWAP1 PUSH2 0x1B04 JUMP JUMPDEST PUSH1 0x40 MLOAD DUP1 SWAP2 SUB SWAP1 REVERT JUMPDEST DUP1 PUSH1 0x1 PUSH1 0x0 SLOAD PUSH2 0xD78 SWAP2 SWAP1 PUSH2 0x1D31 JUMP JUMPDEST LT ISZERO PUSH2 0xDB9 JUMPI PUSH1 0x40 MLOAD PUSH32 0x8C379A000000000000000000000000000000000000000000000000000000000 DUP2 MSTORE PUSH1 0x4 ADD PUSH2 0xDB0 SWAP1 PUSH2 0x1C39 JUMP JUMPDEST PUSH1 0x40 MLOAD DUP1 SWAP2 SUB SWAP1 REVERT JUMPDEST PUSH2 0xDC2 DUP3 PUSH2 0xE64 JUMP JUMPDEST PUSH2 0xE01 JUMPI PUSH1 0x40 MLOAD PUSH32 0x8C379A000000000000000000000000000000000000000000000000000000000 DUP2 MSTORE PUSH1 0x4 ADD PUSH2 0xDF8 SWAP1 PUSH2 0x1DB1 JUMP JUMPDEST PUSH1 0x40 MLOAD DUP1 SWAP2 SUB SWAP1 REVERT JUMPDEST PUSH2 0xE0A DUP3 PUSH2 0x118D JUMP JUMPDEST DUP2 PUSH20 0xFFFFFFFFFFFFFFFFFFFFFFFFFFFFFFFFFFFFFFFF AND PUSH32 0xAC6E8398676CF37429D530B81144D7079E99F4FE9D28B0D88C4A749CECCBE8CD PUSH1 0x40 MLOAD PUSH1 0x40 MLOAD DUP1 SWAP2 SUB SWAP1 LOG2 PUSH1 0x1 SLOAD DUP2 EQ PUSH2 0xE60 JUMPI PUSH2 0xE5F DUP2 PUSH2 0x9C9 JUMP JUMPDEST JUMPDEST POP POP JUMP JUMPDEST PUSH1 0x0 DUP1 PUSH20 0xFFFFFFFFFFFFFFFFFFFFFFFFFFFFFFFFFFFFFFFF AND PUSH1 0x2 PUSH1 0x0 DUP5 PUSH20 0xFFFFFFFFFFFFFFFFFFFFFFFFFFFFFFFFFFFFFFFF AND PUSH20 0xFFFFFFFFFFFFFFFFFFFFFFFFFFFFFFFFFFFFFFFF AND DUP2 MSTORE PUSH1 0x20 ADD SWAP1 DUP2 MSTORE PUSH1 0x20 ADD PUSH1 0x0 KECCAK256 PUSH1 0x0 DUP1 ISZERO ISZERO ISZERO ISZERO DUP2 MSTORE PUSH1 0x20 ADD SWAP1 DUP2 MSTORE PUSH1 0x20 ADD PUSH1 0x0 KECCAK256 PUSH1 0x0 SWAP1 SLOAD SWAP1 PUSH2 0x100 EXP SWAP1 DIV PUSH20 0xFFFFFFFFFFFFFFFFFFFFFFFFFFFFFFFFFFFFFFFF AND PUSH20 0xFFFFFFFFFFFFFFFFFFFFFFFFFFFFFFFFFFFFFFFF AND EQ ISZERO DUP1 PUSH2 0xFB7 JUMPI POP PUSH1 0x0 PUSH20 0xFFFFFFFFFFFFFFFFFFFFFFFFFFFFFFFFFFFFFFFF AND PUSH1 0x2 PUSH1 0x0 DUP5 PUSH20 0xFFFFFFFFFFFFFFFFFFFFFFFFFFFFFFFFFFFFFFFF AND PUSH20 0xFFFFFFFFFFFFFFFFFFFFFFFFFFFFFFFFFFFFFFFF AND DUP2 MSTORE PUSH1 0x20 ADD SWAP1 DUP2 MSTORE PUSH1 0x20 ADD PUSH1 0x0 KECCAK256 PUSH1 0x0 PUSH1 0x1 ISZERO ISZERO ISZERO ISZERO DUP2 MSTORE PUSH1 0x20 ADD SWAP1 DUP2 MSTORE PUSH1 0x20 ADD PUSH1 0x0 KECCAK256 PUSH1 0x0 SWAP1 SLOAD SWAP1 PUSH2 0x100 EXP SWAP1 DIV PUSH20 0xFFFFFFFFFFFFFFFFFFFFFFFFFFFFFFFFFFFFFFFF AND PUSH20 0xFFFFFFFFFFFFFFFFFFFFFFFFFFFFFFFFFFFFFFFF AND EQ ISZERO JUMPDEST SWAP1 POP SWAP2 SWAP1 POP JUMP JUMPDEST PUSH1 0x60 PUSH32 0xF6FD209BA0161ACFD0F4D4FA947B5907845ED1E66071E030BE54BA4C310C5A6 DUP4 DUP4 PUSH1 0x40 MLOAD PUSH1 0x24 ADD PUSH2 0xFF4 SWAP3 SWAP2 SWAP1 PUSH2 0x1BC4 JUMP JUMPDEST PUSH1 0x40 MLOAD PUSH1 0x20 DUP2 DUP4 SUB SUB DUP2 MSTORE SWAP1 PUSH1 0x40 MSTORE SWAP1 PUSH28 0xFFFFFFFFFFFFFFFFFFFFFFFFFFFFFFFFFFFFFFFFFFFFFFFFFFFFFFFF NOT AND PUSH1 0x20 DUP3 ADD DUP1 MLOAD PUSH28 0xFFFFFFFFFFFFFFFFFFFFFFFFFFFFFFFFFFFFFFFFFFFFFFFFFFFFFFFF DUP4 DUP2 DUP4 AND OR DUP4 MSTORE POP POP POP POP SWAP1 POP SWAP3 SWAP2 POP POP JUMP JUMPDEST PUSH1 0x0 DUP1 PUSH2 0x1065 DUP5 PUSH2 0xE64 JUMP JUMPDEST PUSH2 0x1075 JUMPI PUSH1 0x0 DUP1 SWAP2 POP SWAP2 POP PUSH2 0x10F1 JUMP JUMPDEST PUSH1 0x1 PUSH1 0x2 PUSH1 0x0 DUP7 PUSH20 0xFFFFFFFFFFFFFFFFFFFFFFFFFFFFFFFFFFFFFFFF AND PUSH20 0xFFFFFFFFFFFFFFFFFFFFFFFFFFFFFFFFFFFFFFFF AND DUP2 MSTORE PUSH1 0x20 ADD SWAP1 DUP2 MSTORE PUSH1 0x20 ADD PUSH1 0x0 KECCAK256 PUSH1 0x0 DUP6 ISZERO ISZERO ISZERO ISZERO DUP2 MSTORE PUSH1 0x20 ADD SWAP1 DUP2 MSTORE PUSH1 0x20 ADD PUSH1 0x0 KECCAK256 PUSH1 0x0 SWAP1 SLOAD SWAP1 PUSH2 0x100 EXP SWAP1 DIV PUSH20 0xFFFFFFFFFFFFFFFFFFFFFFFFFFFFFFFFFFFFFFFF AND SWAP2 POP SWAP2 POP JUMPDEST SWAP3 POP SWAP3 SWAP1 POP JUMP JUMPDEST PUSH1 0x0 PUSH1 0x2 PUSH1 0x0 DUP6 PUSH20 0xFFFFFFFFFFFFFFFFFFFFFFFFFFFFFFFFFFFFFFFF AND PUSH20 0xFFFFFFFFFFFFFFFFFFFFFFFFFFFFFFFFFFFFFFFF AND DUP2 MSTORE PUSH1 0x20 ADD SWAP1 DUP2 MSTORE PUSH1 0x20 ADD PUSH1 0x0 KECCAK256 PUSH1 0x0 DUP4 ISZERO ISZERO ISZERO ISZERO DUP2 MSTORE PUSH1 0x20 ADD SWAP1 DUP2 MSTORE PUSH1 0x20 ADD PUSH1 0x0 KECCAK256 PUSH1 0x0 SWAP1 SLOAD SWAP1 PUSH2 0x100 EXP SWAP1 DIV PUSH20 0xFFFFFFFFFFFFFFFFFFFFFFFFFFFFFFFFFFFFFFFF AND SWAP1 POP PUSH2 0x117C DUP5 DUP5 DUP5 PUSH2 0x13D3 JUMP JUMPDEST PUSH2 0x1187 DUP4 DUP3 DUP5 PUSH2 0x13D3 JUMP JUMPDEST POP POP POP POP JUMP JUMPDEST PUSH2 0x1196 DUP2 PUSH2 0xE64 JUMP JUMPDEST PUSH2 0x11D5 JUMPI PUSH1 0x40 MLOAD PUSH32 0x8C379A000000000000000000000000000000000000000000000000000000000 DUP2 MSTORE PUSH1 0x4 ADD PUSH2 0x11CC SWAP1 PUSH2 0x1DB1 JUMP JUMPDEST PUSH1 0x40 MLOAD DUP1 SWAP2 SUB SWAP1 REVERT JUMPDEST PUSH2 0x12CA PUSH1 0x2 PUSH1 0x0 DUP4 PUSH20 0xFFFFFFFFFFFFFFFFFFFFFFFFFFFFFFFFFFFFFFFF AND PUSH20 0xFFFFFFFFFFFFFFFFFFFFFFFFFFFFFFFFFFFFFFFF AND DUP2 MSTORE PUSH1 0x20 ADD SWAP1 DUP2 MSTORE PUSH1 0x20 ADD PUSH1 0x0 KECCAK256 PUSH1 0x0 DUP1 ISZERO ISZERO ISZERO ISZERO DUP2 MSTORE PUSH1 0x20 ADD SWAP1 DUP2 MSTORE PUSH1 0x20 ADD PUSH1 0x0 KECCAK256 PUSH1 0x0 SWAP1 SLOAD SWAP1 PUSH2 0x100 EXP SWAP1 DIV PUSH20 0xFFFFFFFFFFFFFFFFFFFFFFFFFFFFFFFFFFFFFFFF AND PUSH1 0x2 PUSH1 0x0 DUP5 PUSH20 0xFFFFFFFFFFFFFFFFFFFFFFFFFFFFFFFFFFFFFFFF AND PUSH20 0xFFFFFFFFFFFFFFFFFFFFFFFFFFFFFFFFFFFFFFFF AND DUP2 MSTORE PUSH1 0x20 ADD SWAP1 DUP2 MSTORE PUSH1 0x20 ADD PUSH1 0x0 KECCAK256 PUSH1 0x0 PUSH1 0x1 ISZERO ISZERO ISZERO ISZERO DUP2 MSTORE PUSH1 0x20 ADD SWAP1 DUP2 MSTORE PUSH1 0x20 ADD PUSH1 0x0 KECCAK256 PUSH1 0x0 SWAP1 SLOAD SWAP1 PUSH2 0x100 EXP SWAP1 DIV PUSH20 0xFFFFFFFFFFFFFFFFFFFFFFFFFFFFFFFFFFFFFFFF AND PUSH1 0x1 PUSH2 0x13D3 JUMP JUMPDEST PUSH1 0x2 PUSH1 0x0 DUP3 PUSH20 0xFFFFFFFFFFFFFFFFFFFFFFFFFFFFFFFFFFFFFFFF AND PUSH20 0xFFFFFFFFFFFFFFFFFFFFFFFFFFFFFFFFFFFFFFFF AND DUP2 MSTORE PUSH1 0x20 ADD SWAP1 DUP2 MSTORE PUSH1 0x20 ADD PUSH1 0x0 KECCAK256 PUSH1 0x0 DUP1 ISZERO ISZERO ISZERO ISZERO DUP2 MSTORE PUSH1 0x20 ADD SWAP1 DUP2 MSTORE PUSH1 0x20 ADD PUSH1 0x0 KECCAK256 PUSH1 0x0 PUSH2 0x100 EXP DUP2 SLOAD SWAP1 PUSH20 0xFFFFFFFFFFFFFFFFFFFFFFFFFFFFFFFFFFFFFFFF MUL NOT AND SWAP1 SSTORE PUSH1 0x2 PUSH1 0x0 DUP3 PUSH20 0xFFFFFFFFFFFFFFFFFFFFFFFFFFFFFFFFFFFFFFFF AND PUSH20 0xFFFFFFFFFFFFFFFFFFFFFFFFFFFFFFFFFFFFFFFF AND DUP2 MSTORE PUSH1 0x20 ADD SWAP1 DUP2 MSTORE PUSH1 0x20 ADD PUSH1 0x0 KECCAK256 PUSH1 0x0 PUSH1 0x1 ISZERO ISZERO ISZERO ISZERO DUP2 MSTORE PUSH1 0x20 ADD SWAP1 DUP2 MSTORE PUSH1 0x20 ADD PUSH1 0x0 KECCAK256 PUSH1 0x0 PUSH2 0x100 EXP DUP2 SLOAD SWAP1 PUSH20 0xFFFFFFFFFFFFFFFFFFFFFFFFFFFFFFFFFFFFFFFF MUL NOT AND SWAP1 SSTORE PUSH1 0x0 DUP1 DUP2 SLOAD DUP1 SWAP3 SWAP2 SWAP1 PUSH2 0x13CB SWAP1 PUSH2 0x1DD1 JUMP JUMPDEST SWAP2 SWAP1 POP SSTORE POP POP JUMP JUMPDEST DUP3 PUSH1 0x2 PUSH1 0x0 DUP5 PUSH20 0xFFFFFFFFFFFFFFFFFFFFFFFFFFFFFFFFFFFFFFFF AND PUSH20 0xFFFFFFFFFFFFFFFFFFFFFFFFFFFFFFFFFFFFFFFF AND DUP2 MSTORE PUSH1 0x20 ADD SWAP1 DUP2 MSTORE PUSH1 0x20 ADD PUSH1 0x0 KECCAK256 PUSH1 0x0 DUP4 ISZERO ISZERO ISZERO ISZERO ISZERO DUP2 MSTORE PUSH1 0x20 ADD SWAP1 DUP2 MSTORE PUSH1 0x20 ADD PUSH1 0x0 KECCAK256 PUSH1 0x0 PUSH2 0x100 EXP DUP2 SLOAD DUP2 PUSH20 0xFFFFFFFFFFFFFFFFFFFFFFFFFFFFFFFFFFFFFFFF MUL NOT AND SWAP1 DUP4 PUSH20 0xFFFFFFFFFFFFFFFFFFFFFFFFFFFFFFFFFFFFFFFF AND MUL OR SWAP1 SSTORE POP DUP2 PUSH1 0x2 PUSH1 0x0 DUP6 PUSH20 0xFFFFFFFFFFFFFFFFFFFFFFFFFFFFFFFFFFFFFFFF AND PUSH20 0xFFFFFFFFFFFFFFFFFFFFFFFFFFFFFFFFFFFFFFFF AND DUP2 MSTORE PUSH1 0x20 ADD SWAP1 DUP2 MSTORE PUSH1 0x20 ADD PUSH1 0x0 KECCAK256 PUSH1 0x0 DUP4 ISZERO ISZERO ISZERO ISZERO DUP2 MSTORE PUSH1 0x20 ADD SWAP1 DUP2 MSTORE PUSH1 0x20 ADD PUSH1 0x0 KECCAK256 PUSH1 0x0 PUSH2 0x100 EXP DUP2 SLOAD DUP2 PUSH20 0xFFFFFFFFFFFFFFFFFFFFFFFFFFFFFFFFFFFFFFFF MUL NOT AND SWAP1 DUP4 PUSH20 0xFFFFFFFFFFFFFFFFFFFFFFFFFFFFFFFFFFFFFFFF AND MUL OR SWAP1 SSTORE POP POP POP POP JUMP JUMPDEST PUSH1 0x0 DUP2 MLOAD SWAP1 POP SWAP2 SWAP1 POP JUMP JUMPDEST PUSH1 0x0 DUP3 DUP3 MSTORE PUSH1 0x20 DUP3 ADD SWAP1 POP SWAP3 SWAP2 POP POP JUMP JUMPDEST PUSH1 0x0 DUP2 SWAP1 POP PUSH1 0x20 DUP3 ADD SWAP1 POP SWAP2 SWAP1 POP JUMP JUMPDEST PUSH1 0x0 PUSH20 0xFFFFFFFFFFFFFFFFFFFFFFFFFFFFFFFFFFFFFFFF DUP3 AND SWAP1 POP SWAP2 SWAP1 POP JUMP JUMPDEST PUSH1 0x0 PUSH2 0x1556 DUP3 PUSH2 0x152B JUMP JUMPDEST SWAP1 POP SWAP2 SWAP1 POP JUMP JUMPDEST PUSH2 0x1566 DUP2 PUSH2 0x154B JUMP JUMPDEST DUP3 MSTORE POP POP JUMP JUMPDEST PUSH1 0x0 PUSH2 0x1578 DUP4 DUP4 PUSH2 0x155D JUMP JUMPDEST PUSH1 0x20 DUP4 ADD SWAP1 POP SWAP3 SWAP2 POP POP JUMP JUMPDEST PUSH1 0x0 PUSH1 0x20 DUP3 ADD SWAP1 POP SWAP2 SWAP1 POP JUMP JUMPDEST PUSH1 0x0 PUSH2 0x159C DUP3 PUSH2 0x14FF JUMP JUMPDEST PUSH2 0x15A6 DUP2 DUP6 PUSH2 0x150A JUMP JUMPDEST SWAP4 POP PUSH2 0x15B1 DUP4 PUSH2 0x151B JUMP JUMPDEST DUP1 PUSH1 0x0 JUMPDEST DUP4 DUP2 LT ISZERO PUSH2 0x15E2 JUMPI DUP2 MLOAD PUSH2 0x15C9 DUP9 DUP3 PUSH2 0x156C JUMP JUMPDEST SWAP8 POP PUSH2 0x15D4 DUP4 PUSH2 0x1584 JUMP JUMPDEST SWAP3 POP POP PUSH1 0x1 DUP2 ADD SWAP1 POP PUSH2 0x15B5 JUMP JUMPDEST POP DUP6 SWAP4 POP POP POP POP SWAP3 SWAP2 POP POP JUMP JUMPDEST PUSH1 0x0 PUSH1 0x20 DUP3 ADD SWAP1 POP DUP2 DUP2 SUB PUSH1 0x0 DUP4 ADD MSTORE PUSH2 0x1609 DUP2 DUP5 PUSH2 0x1591 JUMP JUMPDEST SWAP1 POP SWAP3 SWAP2 POP POP JUMP JUMPDEST PUSH1 0x0 PUSH1 0x40 MLOAD SWAP1 POP SWAP1 JUMP JUMPDEST PUSH1 0x0 DUP1 REVERT JUMPDEST PUSH1 0x0 DUP1 REVERT JUMPDEST PUSH2 0x162E DUP2 PUSH2 0x154B JUMP JUMPDEST DUP2 EQ PUSH2 0x1639 JUMPI PUSH1 0x0 DUP1 REVERT JUMPDEST POP JUMP JUMPDEST PUSH1 0x0 DUP2 CALLDATALOAD SWAP1 POP PUSH2 0x164B DUP2 PUSH2 0x1625 JUMP JUMPDEST SWAP3 SWAP2 POP POP JUMP JUMPDEST PUSH1 0x0 PUSH1 0x20 DUP3 DUP5 SUB SLT ISZERO PUSH2 0x1667 JUMPI PUSH2 0x1666 PUSH2 0x161B JUMP JUMPDEST JUMPDEST PUSH1 0x0 PUSH2 0x1675 DUP5 DUP3 DUP6 ADD PUSH2 0x163C JUMP JUMPDEST SWAP2 POP POP SWAP3 SWAP2 POP POP JUMP JUMPDEST PUSH1 0x0 DUP2 MLOAD SWAP1 POP SWAP2 SWAP1 POP JUMP JUMPDEST PUSH1 0x0 DUP3 DUP3 MSTORE PUSH1 0x20 DUP3 ADD SWAP1 POP SWAP3 SWAP2 POP POP JUMP JUMPDEST PUSH1 0x0 JUMPDEST DUP4 DUP2 LT ISZERO PUSH2 0x16B8 JUMPI DUP1 DUP3 ADD MLOAD DUP2 DUP5 ADD MSTORE PUSH1 0x20 DUP2 ADD SWAP1 POP PUSH2 0x169D JUMP JUMPDEST PUSH1 0x0 DUP5 DUP5 ADD MSTORE POP POP POP POP JUMP JUMPDEST PUSH1 0x0 PUSH1 0x1F NOT PUSH1 0x1F DUP4 ADD AND SWAP1 POP SWAP2 SWAP1 POP JUMP JUMPDEST PUSH1 0x0 PUSH2 0x16E0 DUP3 PUSH2 0x167E JUMP JUMPDEST PUSH2 0x16EA DUP2 DUP6 PUSH2 0x1689 JUMP JUMPDEST SWAP4 POP PUSH2 0x16FA DUP2 DUP6 PUSH1 0x20 DUP7 ADD PUSH2 0x169A JUMP JUMPDEST PUSH2 0x1703 DUP2 PUSH2 0x16C4 JUMP JUMPDEST DUP5 ADD SWAP2 POP POP SWAP3 SWAP2 POP POP JUMP JUMPDEST PUSH1 0x0 PUSH1 0x20 DUP3 ADD SWAP1 POP DUP2 DUP2 SUB PUSH1 0x0 DUP4 ADD MSTORE PUSH2 0x1728 DUP2 DUP5 PUSH2 0x16D5 JUMP JUMPDEST SWAP1 POP SWAP3 SWAP2 POP POP JUMP JUMPDEST PUSH1 0x0 DUP2 SWAP1 POP SWAP2 SWAP1 POP JUMP JUMPDEST PUSH2 0x1743 DUP2 PUSH2 0x1730 JUMP JUMPDEST DUP3 MSTORE POP POP JUMP JUMPDEST PUSH1 0x0 PUSH1 0x20 DUP3 ADD SWAP1 POP PUSH2 0x175E PUSH1 0x0 DUP4 ADD DUP5 PUSH2 0x173A JUMP JUMPDEST SWAP3 SWAP2 POP POP JUMP JUMPDEST PUSH2 0x176D DUP2 PUSH2 0x1730 JUMP JUMPDEST DUP2 EQ PUSH2 0x1778 JUMPI PUSH1 0x0 DUP1 REVERT JUMPDEST POP JUMP JUMPDEST PUSH1 0x0 DUP2 CALLDATALOAD SWAP1 POP PUSH2 0x178A DUP2 PUSH2 0x1764 JUMP JUMPDEST SWAP3 SWAP2 POP POP JUMP JUMPDEST PUSH1 0x0 DUP1 PUSH1 0x40 DUP4 DUP6 SUB SLT ISZERO PUSH2 0x17A7 JUMPI PUSH2 0x17A6 PUSH2 0x161B JUMP JUMPDEST JUMPDEST PUSH1 0x0 PUSH2 0x17B5 DUP6 DUP3 DUP7 ADD PUSH2 0x163C JUMP JUMPDEST SWAP3 POP POP PUSH1 0x20 PUSH2 0x17C6 DUP6 DUP3 DUP7 ADD PUSH2 0x177B JUMP JUMPDEST SWAP2 POP POP SWAP3 POP SWAP3 SWAP1 POP JUMP JUMPDEST PUSH1 0x0 PUSH1 0x20 DUP3 DUP5 SUB SLT ISZERO PUSH2 0x17E6 JUMPI PUSH2 0x17E5 PUSH2 0x161B JUMP JUMPDEST JUMPDEST PUSH1 0x0 PUSH2 0x17F4 DUP5 DUP3 DUP6 ADD PUSH2 0x177B JUMP JUMPDEST SWAP2 POP POP SWAP3 SWAP2 POP POP JUMP JUMPDEST PUSH1 0x0 DUP1 REVERT JUMPDEST PUSH32 0x4E487B7100000000000000000000000000000000000000000000000000000000 PUSH1 0x0 MSTORE PUSH1 0x41 PUSH1 0x4 MSTORE PUSH1 0x24 PUSH1 0x0 REVERT JUMPDEST PUSH2 0x183A DUP3 PUSH2 0x16C4 JUMP JUMPDEST DUP2 ADD DUP2 DUP2 LT PUSH8 0xFFFFFFFFFFFFFFFF DUP3 GT OR ISZERO PUSH2 0x1859 JUMPI PUSH2 0x1858 PUSH2 0x1802 JUMP JUMPDEST JUMPDEST DUP1 PUSH1 0x40 MSTORE POP POP POP JUMP JUMPDEST PUSH1 0x0 PUSH2 0x186C PUSH2 0x1611 JUMP JUMPDEST SWAP1 POP PUSH2 0x1878 DUP3 DUP3 PUSH2 0x1831 JUMP JUMPDEST SWAP2 SWAP1 POP JUMP JUMPDEST PUSH1 0x0 PUSH8 0xFFFFFFFFFFFFFFFF DUP3 GT ISZERO PUSH2 0x1898 JUMPI PUSH2 0x1897 PUSH2 0x1802 JUMP JUMPDEST JUMPDEST PUSH1 0x20 DUP3 MUL SWAP1 POP PUSH1 0x20 DUP2 ADD SWAP1 POP SWAP2 SWAP1 POP JUMP JUMPDEST PUSH1 0x0 DUP1 REVERT JUMPDEST PUSH1 0x0 PUSH2 0x18C1 PUSH2 0x18BC DUP5 PUSH2 0x187D JUMP JUMPDEST PUSH2 0x1862 JUMP JUMPDEST SWAP1 POP DUP1 DUP4 DUP3 MSTORE PUSH1 0x20 DUP3 ADD SWAP1 POP PUSH1 0x20 DUP5 MUL DUP4 ADD DUP6 DUP2 GT ISZERO PUSH2 0x18E4 JUMPI PUSH2 0x18E3 PUSH2 0x18A9 JUMP JUMPDEST JUMPDEST DUP4 JUMPDEST DUP2 DUP2 LT ISZERO PUSH2 0x190D JUMPI DUP1 PUSH2 0x18F9 DUP9 DUP3 PUSH2 0x163C JUMP JUMPDEST DUP5 MSTORE PUSH1 0x20 DUP5 ADD SWAP4 POP POP PUSH1 0x20 DUP2 ADD SWAP1 POP PUSH2 0x18E6 JUMP JUMPDEST POP POP POP SWAP4 SWAP3 POP POP POP JUMP JUMPDEST PUSH1 0x0 DUP3 PUSH1 0x1F DUP4 ADD SLT PUSH2 0x192C JUMPI PUSH2 0x192B PUSH2 0x17FD JUMP JUMPDEST JUMPDEST DUP2 CALLDATALOAD PUSH2 0x193C DUP5 DUP3 PUSH1 0x20 DUP7 ADD PUSH2 0x18AE JUMP JUMPDEST SWAP2 POP POP SWAP3 SWAP2 POP POP JUMP JUMPDEST PUSH1 0x0 DUP1 PUSH1 0x40 DUP4 DUP6 SUB SLT ISZERO PUSH2 0x195C JUMPI PUSH2 0x195B PUSH2 0x161B JUMP JUMPDEST JUMPDEST PUSH1 0x0 DUP4 ADD CALLDATALOAD PUSH8 0xFFFFFFFFFFFFFFFF DUP2 GT ISZERO PUSH2 0x197A JUMPI PUSH2 0x1979 PUSH2 0x1620 JUMP JUMPDEST JUMPDEST PUSH2 0x1986 DUP6 DUP3 DUP7 ADD PUSH2 0x1917 JUMP JUMPDEST SWAP3 POP POP PUSH1 0x20 PUSH2 0x1997 DUP6 DUP3 DUP7 ADD PUSH2 0x177B JUMP JUMPDEST SWAP2 POP POP SWAP3 POP SWAP3 SWAP1 POP JUMP JUMPDEST PUSH1 0x0 DUP2 ISZERO ISZERO SWAP1 POP SWAP2 SWAP1 POP JUMP JUMPDEST PUSH2 0x19B6 DUP2 PUSH2 0x19A1 JUMP JUMPDEST DUP3 MSTORE POP POP JUMP JUMPDEST PUSH1 0x0 PUSH1 0x20 DUP3 ADD SWAP1 POP PUSH2 0x19D1 PUSH1 0x0 DUP4 ADD DUP5 PUSH2 0x19AD JUMP JUMPDEST SWAP3 SWAP2 POP POP JUMP JUMPDEST PUSH32 0x4E487B7100000000000000000000000000000000000000000000000000000000 PUSH1 0x0 MSTORE PUSH1 0x32 PUSH1 0x4 MSTORE PUSH1 0x24 PUSH1 0x0 REVERT JUMPDEST PUSH32 0x4E487B7100000000000000000000000000000000000000000000000000000000 PUSH1 0x0 MSTORE PUSH1 0x11 PUSH1 0x4 MSTORE PUSH1 0x24 PUSH1 0x0 REVERT JUMPDEST PUSH1 0x0 PUSH2 0x1A40 DUP3 PUSH2 0x1730 JUMP JUMPDEST SWAP2 POP PUSH32 0xFFFFFFFFFFFFFFFFFFFFFFFFFFFFFFFFFFFFFFFFFFFFFFFFFFFFFFFFFFFFFFFF DUP3 SUB PUSH2 0x1A72 JUMPI PUSH2 0x1A71 PUSH2 0x1A06 JUMP JUMPDEST JUMPDEST PUSH1 0x1 DUP3 ADD SWAP1 POP SWAP2 SWAP1 POP JUMP JUMPDEST PUSH2 0x1A86 DUP2 PUSH2 0x154B JUMP JUMPDEST DUP3 MSTORE POP POP JUMP JUMPDEST PUSH1 0x0 PUSH1 0x20 DUP3 ADD SWAP1 POP PUSH2 0x1AA1 PUSH1 0x0 DUP4 ADD DUP5 PUSH2 0x1A7D JUMP JUMPDEST SWAP3 SWAP2 POP POP JUMP JUMPDEST PUSH1 0x0 DUP3 DUP3 MSTORE PUSH1 0x20 DUP3 ADD SWAP1 POP SWAP3 SWAP2 POP POP JUMP JUMPDEST PUSH32 0x4E6F7420617574686F72697A6564000000000000000000000000000000000000 PUSH1 0x0 DUP3 ADD MSTORE POP JUMP JUMPDEST PUSH1 0x0 PUSH2 0x1AEE PUSH1 0xE DUP4 PUSH2 0x1AA7 JUMP JUMPDEST SWAP2 POP PUSH2 0x1AF9 DUP3 PUSH2 0x1AB8 JUMP JUMPDEST PUSH1 0x20 DUP3 ADD SWAP1 POP SWAP2 SWAP1 POP JUMP JUMPDEST PUSH1 0x0 PUSH1 0x20 DUP3 ADD SWAP1 POP DUP2 DUP2 SUB PUSH1 0x0 DUP4 ADD MSTORE PUSH2 0x1B1D DUP2 PUSH2 0x1AE1 JUMP JUMPDEST SWAP1 POP SWAP2 SWAP1 POP JUMP JUMPDEST PUSH1 0x0 PUSH2 0x1B2F DUP3 PUSH2 0x1730 JUMP JUMPDEST SWAP2 POP PUSH2 0x1B3A DUP4 PUSH2 0x1730 JUMP JUMPDEST SWAP3 POP DUP3 DUP3 ADD SWAP1 POP DUP1 DUP3 GT ISZERO PUSH2 0x1B52 JUMPI PUSH2 0x1B51 PUSH2 0x1A06 JUMP JUMPDEST JUMPDEST SWAP3 SWAP2 POP POP JUMP JUMPDEST PUSH32 0x6572726F72303400000000000000000000000000000000000000000000000000 PUSH1 0x0 DUP3 ADD MSTORE POP JUMP JUMPDEST PUSH1 0x0 PUSH2 0x1B8E PUSH1 0x7 DUP4 PUSH2 0x1AA7 JUMP JUMPDEST SWAP2 POP PUSH2 0x1B99 DUP3 PUSH2 0x1B58 JUMP JUMPDEST PUSH1 0x20 DUP3 ADD SWAP1 POP SWAP2 SWAP1 POP JUMP JUMPDEST PUSH1 0x0 PUSH1 0x20 DUP3 ADD SWAP1 POP DUP2 DUP2 SUB PUSH1 0x0 DUP4 ADD MSTORE PUSH2 0x1BBD DUP2 PUSH2 0x1B81 JUMP JUMPDEST SWAP1 POP SWAP2 SWAP1 POP JUMP JUMPDEST PUSH1 0x0 PUSH1 0x40 DUP3 ADD SWAP1 POP PUSH2 0x1BD9 PUSH1 0x0 DUP4 ADD DUP6 PUSH2 0x1A7D JUMP JUMPDEST PUSH2 0x1BE6 PUSH1 0x20 DUP4 ADD DUP5 PUSH2 0x173A JUMP JUMPDEST SWAP4 SWAP3 POP POP POP JUMP JUMPDEST PUSH32 0x6572726F72303200000000000000000000000000000000000000000000000000 PUSH1 0x0 DUP3 ADD MSTORE POP JUMP JUMPDEST PUSH1 0x0 PUSH2 0x1C23 PUSH1 0x7 DUP4 PUSH2 0x1AA7 JUMP JUMPDEST SWAP2 POP PUSH2 0x1C2E DUP3 PUSH2 0x1BED JUMP JUMPDEST PUSH1 0x20 DUP3 ADD SWAP1 POP SWAP2 SWAP1 POP JUMP JUMPDEST PUSH1 0x0 PUSH1 0x20 DUP3 ADD SWAP1 POP DUP2 DUP2 SUB PUSH1 0x0 DUP4 ADD MSTORE PUSH2 0x1C52 DUP2 PUSH2 0x1C16 JUMP JUMPDEST SWAP1 POP SWAP2 SWAP1 POP JUMP JUMPDEST PUSH32 0x6572726F72303300000000000000000000000000000000000000000000000000 PUSH1 0x0 DUP3 ADD MSTORE POP JUMP JUMPDEST PUSH1 0x0 PUSH2 0x1C8F PUSH1 0x7 DUP4 PUSH2 0x1AA7 JUMP JUMPDEST SWAP2 POP PUSH2 0x1C9A DUP3 PUSH2 0x1C59 JUMP JUMPDEST PUSH1 0x20 DUP3 ADD SWAP1 POP SWAP2 SWAP1 POP JUMP JUMPDEST PUSH1 0x0 PUSH1 0x20 DUP3 ADD SWAP1 POP DUP2 DUP2 SUB PUSH1 0x0 DUP4 ADD MSTORE PUSH2 0x1CBE DUP2 PUSH2 0x1C82 JUMP JUMPDEST SWAP1 POP SWAP2 SWAP1 POP JUMP JUMPDEST PUSH32 0x6572726F72303100000000000000000000000000000000000000000000000000 PUSH1 0x0 DUP3 ADD MSTORE POP JUMP JUMPDEST PUSH1 0x0 PUSH2 0x1CFB PUSH1 0x7 DUP4 PUSH2 0x1AA7 JUMP JUMPDEST SWAP2 POP PUSH2 0x1D06 DUP3 PUSH2 0x1CC5 JUMP JUMPDEST PUSH1 0x20 DUP3 ADD SWAP1 POP SWAP2 SWAP1 POP JUMP JUMPDEST PUSH1 0x0 PUSH1 0x20 DUP3 ADD SWAP1 POP DUP2 DUP2 SUB PUSH1 0x0 DUP4 ADD MSTORE PUSH2 0x1D2A DUP2 PUSH2 0x1CEE JUMP JUMPDEST SWAP1 POP SWAP2 SWAP1 POP JUMP JUMPDEST PUSH1 0x0 PUSH2 0x1D3C DUP3 PUSH2 0x1730 JUMP JUMPDEST SWAP2 POP PUSH2 0x1D47 DUP4 PUSH2 0x1730 JUMP JUMPDEST SWAP3 POP DUP3 DUP3 SUB SWAP1 POP DUP2 DUP2 GT ISZERO PUSH2 0x1D5F JUMPI PUSH2 0x1D5E PUSH2 0x1A06 JUMP JUMPDEST JUMPDEST SWAP3 SWAP2 POP POP JUMP JUMPDEST PUSH32 0x6572726F72303700000000000000000000000000000000000000000000000000 PUSH1 0x0 DUP3 ADD MSTORE POP JUMP JUMPDEST PUSH1 0x0 PUSH2 0x1D9B PUSH1 0x7 DUP4 PUSH2 0x1AA7 JUMP JUMPDEST SWAP2 POP PUSH2 0x1DA6 DUP3 PUSH2 0x1D65 JUMP JUMPDEST PUSH1 0x20 DUP3 ADD SWAP1 POP SWAP2 SWAP1 POP JUMP JUMPDEST PUSH1 0x0 PUSH1 0x20 DUP3 ADD SWAP1 POP DUP2 DUP2 SUB PUSH1 0x0 DUP4 ADD MSTORE PUSH2 0x1DCA DUP2 PUSH2 0x1D8E JUMP JUMPDEST SWAP1 POP SWAP2 SWAP1 POP JUMP JUMPDEST PUSH1 0x0 PUSH2 0x1DDC DUP3 PUSH2 0x1730 JUMP JUMPDEST SWAP2 POP PUSH1 0x0 DUP3 SUB PUSH2 0x1DEF JUMPI PUSH2 0x1DEE PUSH2 0x1A06 JUMP JUMPDEST JUMPDEST PUSH1 0x1 DUP3 SUB SWAP1 POP SWAP2 SWAP1 POP JUMP INVALID LOG2 PUSH5 0x6970667358 0x22 SLT KECCAK256 SMOD 0x29 SDIV 0x22 SLOAD 0x23 CREATE 0xB0 0xAB 0x29 0xFB SWAP1 0xBA BALANCE 0xB4 0xC 0xEE 0xB5 EXTCODEHASH 0xDB NUMBER SWAP2 SWAP2 MSTORE STATICCALL 0xB2 0x22 0xFC PUSH30 0xF3673764736F6C6343000812003300000000000000000000000000000000 "
				},
				"gasEstimates": {
					"creation": {
						"codeDepositCost": "1545600",
						"executionCost": "1617",
						"totalCost": "1547217"
					},
					"external": {
						"_initialwallet(address[],uint256)": "infinite",
						"add(address)": "infinite",
						"addOwnersAndThreshold(address,uint256)": "infinite",
						"addOwnersencode(address,uint256)": "infinite",
						"addowner(address)": "infinite",
						"changeThreshold(uint256)": "infinite",
						"changeThresholdencode(uint256)": "infinite",
						"checkOwners()": "infinite",
						"checkThreshold()": "2504",
						"ownerExist(address)": "5419",
						"owners_num()": "2474",
						"removeOwners(address,uint256)": "infinite",
						"removeOwnersencode(address,uint256)": "infinite"
					},
					"internal": {
						"_createLink(address,address,bool)": "48918",
						"_insert(address,address,bool)": "infinite",
						"getAdjacent(address,bool)": "7123",
						"removeowner(address)": "infinite"
					}
				},
				"methodIdentifiers": {
					"_initialwallet(address[],uint256)": "a0e1ace8",
					"add(address)": "0a3b0a4f",
					"addOwnersAndThreshold(address,uint256)": "0c546204",
					"addOwnersencode(address,uint256)": "ff87578c",
					"addowner(address)": "5ce7fa2d",
					"changeThreshold(uint256)": "694e80c3",
					"changeThresholdencode(uint256)": "6876a95e",
					"checkOwners()": "029c81e3",
					"checkThreshold()": "81244e5d",
					"ownerExist(address)": "ef11783c",
					"owners_num()": "0c3dfc1a",
					"removeOwners(address,uint256)": "c0f0b3f1",
					"removeOwnersencode(address,uint256)": "54910298"
				}
			},
			"storageLayout": {
				"storage": [
					{
						"astId": 15,
						"contract": "contracts/Try01/Manage.sol:Manageowner",
						"label": "owners_num",
						"offset": 0,
						"slot": "0",
						"type": "t_uint256"
					},
					{
						"astId": 17,
						"contract": "contracts/Try01/Manage.sol:Manageowner",
						"label": "threshold",
						"offset": 0,
						"slot": "1",
						"type": "t_uint256"
					},
					{
						"astId": 23,
						"contract": "contracts/Try01/Manage.sol:Manageowner",
						"label": "owners",
						"offset": 0,
						"slot": "2",
						"type": "t_mapping(t_address,t_mapping(t_bool,t_address))"
					}
				],
				"types": {
					"t_address": {
						"encoding": "inplace",
						"label": "address",
						"numberOfBytes": "20"
					},
					"t_bool": {
						"encoding": "inplace",
						"label": "bool",
						"numberOfBytes": "1"
					},
					"t_mapping(t_address,t_mapping(t_bool,t_address))": {
						"encoding": "mapping",
						"key": "t_address",
						"label": "mapping(address => mapping(bool => address))",
						"numberOfBytes": "32",
						"value": "t_mapping(t_bool,t_address)"
					},
					"t_mapping(t_bool,t_address)": {
						"encoding": "mapping",
						"key": "t_bool",
						"label": "mapping(bool => address)",
						"numberOfBytes": "32",
						"value": "t_address"
					},
					"t_uint256": {
						"encoding": "inplace",
						"label": "uint256",
						"numberOfBytes": "32"
					}
				}
			},
			"userdoc": {
				"kind": "user",
				"methods": {},
				"version": 1
			}
		}
	}
}