{
	"data": {
		"bytecode": {
			"linkReferences": {},
			"object": "608060405234801561000f575f80fd5b506001600481905550615e4580620000265f395ff3fe6080604052600436106101db575f3560e01c8063affed0e011610101578063e19a9dd911610094578063f08a032311610063578063f08a0323146107b9578063f698da25146107e1578063f8dc5dd91461080b578063ffa1ad741461083357610230565b8063e19a9dd914610703578063e318b52b1461072b578063e75235b814610753578063e86637db1461077d57610230565b8063cc2f8452116100d0578063cc2f84521461063a578063d4d9bdcd14610677578063d8d11f781461069f578063e009cfde146106db57610230565b8063affed0e014610584578063b4faba09146105ae578063b63e800d146105d6578063c4ca3a9c146105fe57610230565b80635624b25b116101795780636a761202116101485780636a761202146104c65780637d832974146104f6578063934f3a1114610532578063a0e67e2b1461055a57610230565b80635624b25b146103fe5780635ae6bd371461043a578063610b592514610476578063694e80c31461049e57610230565b80632f54bf6e116101b55780632f54bf6e1461031f5780633408e4701461035b578063468721a7146103855780635229073f146103c157610230565b80630d582f131461029357806312fb68e0146102bb5780632d9ad53d146102e357610230565b36610230573373ffffffffffffffffffffffffffffffffffffffff167f3d0ce9bfc3ed7d6862dbb28b2dea94561fe714a1b4d019aa8af39730d1ad7c3d346040516102269190613d4b565b60405180910390a2005b34801561023b575f80fd5b505f7f6c9a6c4a39284e37ed1cf53d337577d14212a4870fb976a4366c693b939918d55f1b905080548061026d575f80f35b365f80373360601b36525f80601436015f80855af13d5f803e8061028f573d5ffd5b3d5ff35b34801561029e575f80fd5b506102b960048036038101906102b49190613df9565b61085d565b005b3480156102c6575f80fd5b506102e160048036038101906102dc9190613fa6565b610bc8565b005b3480156102ee575f80fd5b5061030960048036038101906103049190614042565b61119d565b6040516103169190614087565b60405180910390f35b34801561032a575f80fd5b5061034560048036038101906103409190614042565b61126a565b6040516103529190614087565b60405180910390f35b348015610366575f80fd5b5061036f611337565b60405161037c9190613d4b565b60405180910390f35b348015610390575f80fd5b506103ab60048036038101906103a691906140c3565b611343565b6040516103b89190614087565b60405180910390f35b3480156103cc575f80fd5b506103e760048036038101906103e291906140c3565b6114f1565b6040516103f59291906141bd565b60405180910390f35b348015610409575f80fd5b50610424600480360381019061041f91906141eb565b611525565b6040516104319190614229565b60405180910390f35b348015610445575f80fd5b50610460600480360381019061045b9190614249565b6115b5565b60405161046d9190613d4b565b60405180910390f35b348015610481575f80fd5b5061049c60048036038101906104979190614042565b6115ca565b005b3480156104a9575f80fd5b506104c460048036038101906104bf9190614274565b6118d2565b005b6104e060048036038101906104db9190614337565b6119a6565b6040516104ed9190614087565b60405180910390f35b348015610501575f80fd5b5061051c6004803603810190610517919061444c565b611d51565b6040516105299190613d4b565b60405180910390f35b34801561053d575f80fd5b506105586004803603810190610553919061448a565b611d71565b005b348015610565575f80fd5b5061056e611dcb565b60405161057b91906145c9565b60405180910390f35b34801561058f575f80fd5b50610598611f7b565b6040516105a59190613d4b565b60405180910390f35b3480156105b9575f80fd5b506105d460048036038101906105cf91906145e9565b611f81565b005b3480156105e1575f80fd5b506105fc60048036038101906105f79190614698565b611f9f565b005b348015610609575f80fd5b50610624600480360381019061061f9190614789565b6120ed565b6040516106319190613d4b565b60405180910390f35b348015610645575f80fd5b50610660600480360381019061065b9190613df9565b6121b5565b60405161066e92919061481c565b60405180910390f35b348015610682575f80fd5b5061069d60048036038101906106989190614249565b6123ad565b005b3480156106aa575f80fd5b506106c560048036038101906106c0919061484a565b612510565b6040516106d29190614952565b60405180910390f35b3480156106e6575f80fd5b5061070160048036038101906106fc919061496b565b61253c565b005b34801561070e575f80fd5b5061072960048036038101906107249190614042565b612843565b005b348015610736575f80fd5b50610751600480360381019061074c91906149a9565b6128af565b005b34801561075e575f80fd5b50610767612e13565b6040516107749190613d4b565b60405180910390f35b348015610788575f80fd5b506107a3600480360381019061079e919061484a565b612e1c565b6040516107b09190614229565b60405180910390f35b3480156107c4575f80fd5b506107df60048036038101906107da9190614042565b612edc565b005b3480156107ec575f80fd5b506107f5612f27565b6040516108029190614952565b60405180910390f35b348015610816575f80fd5b50610831600480360381019061082c91906149f9565b612f81565b005b34801561083e575f80fd5b50610847613304565b6040516108549190614a9b565b60405180910390f35b61086561333d565b5f73ffffffffffffffffffffffffffffffffffffffff168273ffffffffffffffffffffffffffffffffffffffff16141580156108ce5750600173ffffffffffffffffffffffffffffffffffffffff168273ffffffffffffffffffffffffffffffffffffffff1614155b801561090657503073ffffffffffffffffffffffffffffffffffffffff168273ffffffffffffffffffffffffffffffffffffffff1614155b610945576040517f08c379a000000000000000000000000000000000000000000000000000000000815260040161093c90614b05565b60405180910390fd5b5f73ffffffffffffffffffffffffffffffffffffffff1660025f8473ffffffffffffffffffffffffffffffffffffffff1673ffffffffffffffffffffffffffffffffffffffff1681526020019081526020015f205f9054906101000a900473ffffffffffffffffffffffffffffffffffffffff1673ffffffffffffffffffffffffffffffffffffffff1614610a0f576040517f08c379a0000000000000000000000000000000000000000000000000000000008152600401610a0690614b6d565b60405180910390fd5b60025f600173ffffffffffffffffffffffffffffffffffffffff1673ffffffffffffffffffffffffffffffffffffffff1681526020019081526020015f205f9054906101000a900473ffffffffffffffffffffffffffffffffffffffff1660025f8473ffffffffffffffffffffffffffffffffffffffff1673ffffffffffffffffffffffffffffffffffffffff1681526020019081526020015f205f6101000a81548173ffffffffffffffffffffffffffffffffffffffff021916908373ffffffffffffffffffffffffffffffffffffffff1602179055508160025f600173ffffffffffffffffffffffffffffffffffffffff1673ffffffffffffffffffffffffffffffffffffffff1681526020019081526020015f205f6101000a81548173ffffffffffffffffffffffffffffffffffffffff021916908373ffffffffffffffffffffffffffffffffffffffff16021790555060035f815480929190610b7590614bb8565b91905055507f9465fa0c962cc76958e6373a993326400c1c94f8be2fe3a952adfa7f60b2ea2682604051610ba99190614bff565b60405180910390a18060045414610bc457610bc3816118d2565b5b5050565b610bdc6041826133ad90919063ffffffff16565b82511015610c1f576040517f08c379a0000000000000000000000000000000000000000000000000000000008152600401610c1690614c62565b60405180910390fd5b5f80805f805f5b8681101561119157610c3888826133ed565b8094508195508296505050505f8460ff1603610e8a57825f1c9450610c676041886133ad90919063ffffffff16565b825f1c1015610cab576040517f08c379a0000000000000000000000000000000000000000000000000000000008152600401610ca290614cca565b60405180910390fd5b8751610cc36020845f1c61341a90919063ffffffff16565b1115610d04576040517f08c379a0000000000000000000000000000000000000000000000000000000008152600401610cfb90614d32565b60405180910390fd5b5f6020838a01015190508851610d3882610d2a6020875f1c61341a90919063ffffffff16565b61341a90919063ffffffff16565b1115610d79576040517f08c379a0000000000000000000000000000000000000000000000000000000008152600401610d7090614d9a565b60405180910390fd5b60606020848b010190506320c13b0b60e01b7bffffffffffffffffffffffffffffffffffffffffffffffffffffffff19168773ffffffffffffffffffffffffffffffffffffffff166320c13b0b8d846040518363ffffffff1660e01b8152600401610de5929190614db8565b602060405180830381865afa158015610e00573d5f803e3d5ffd5b505050506040513d601f19601f82011682018060405250810190610e249190614e42565b7bffffffffffffffffffffffffffffffffffffffffffffffffffffffff191614610e83576040517f08c379a0000000000000000000000000000000000000000000000000000000008152600401610e7a90614eb7565b60405180910390fd5b5050611046565b60018460ff1603610f6457825f1c94508473ffffffffffffffffffffffffffffffffffffffff163373ffffffffffffffffffffffffffffffffffffffff161480610f2057505f60085f8773ffffffffffffffffffffffffffffffffffffffff1673ffffffffffffffffffffffffffffffffffffffff1681526020019081526020015f205f8c81526020019081526020015f205414155b610f5f576040517f08c379a0000000000000000000000000000000000000000000000000000000008152600401610f5690614f1f565b60405180910390fd5b611045565b601e8460ff161115610ff55760018a604051602001610f839190614fb1565b60405160208183030381529060405280519060200120600486610fa69190614fe2565b85856040515f8152602001604052604051610fc49493929190615025565b6020604051602081039080840390855afa158015610fe4573d5f803e3d5ffd5b505050602060405103519450611044565b60018a8585856040515f81526020016040526040516110179493929190615025565b6020604051602081039080840390855afa158015611037573d5f803e3d5ffd5b5050506020604051035194505b5b5b8573ffffffffffffffffffffffffffffffffffffffff168573ffffffffffffffffffffffffffffffffffffffff1611801561110957505f73ffffffffffffffffffffffffffffffffffffffff1660025f8773ffffffffffffffffffffffffffffffffffffffff1673ffffffffffffffffffffffffffffffffffffffff1681526020019081526020015f205f9054906101000a900473ffffffffffffffffffffffffffffffffffffffff1673ffffffffffffffffffffffffffffffffffffffff1614155b80156111425750600173ffffffffffffffffffffffffffffffffffffffff168573ffffffffffffffffffffffffffffffffffffffff1614155b611181576040517f08c379a0000000000000000000000000000000000000000000000000000000008152600401611178906150b2565b60405180910390fd5b8495508080600101915050610c26565b50505050505050505050565b5f8173ffffffffffffffffffffffffffffffffffffffff16600173ffffffffffffffffffffffffffffffffffffffff161415801561126357505f73ffffffffffffffffffffffffffffffffffffffff1660015f8473ffffffffffffffffffffffffffffffffffffffff1673ffffffffffffffffffffffffffffffffffffffff1681526020019081526020015f205f9054906101000a900473ffffffffffffffffffffffffffffffffffffffff1673ffffffffffffffffffffffffffffffffffffffff1614155b9050919050565b5f600173ffffffffffffffffffffffffffffffffffffffff168273ffffffffffffffffffffffffffffffffffffffff161415801561133057505f73ffffffffffffffffffffffffffffffffffffffff1660025f8473ffffffffffffffffffffffffffffffffffffffff1673ffffffffffffffffffffffffffffffffffffffff1681526020019081526020015f205f9054906101000a900473ffffffffffffffffffffffffffffffffffffffff1673ffffffffffffffffffffffffffffffffffffffff1614155b9050919050565b5f804690508091505090565b5f600173ffffffffffffffffffffffffffffffffffffffff163373ffffffffffffffffffffffffffffffffffffffff161415801561140957505f73ffffffffffffffffffffffffffffffffffffffff1660015f3373ffffffffffffffffffffffffffffffffffffffff1673ffffffffffffffffffffffffffffffffffffffff1681526020019081526020015f205f9054906101000a900473ffffffffffffffffffffffffffffffffffffffff1673ffffffffffffffffffffffffffffffffffffffff1614155b611448576040517f08c379a000000000000000000000000000000000000000000000000000000000815260040161143f9061511a565b60405180910390fd5b611455858585855a613440565b905080156114a5573373ffffffffffffffffffffffffffffffffffffffff167f6895c13664aa4f67288b25d7a21d7aaa34916e355fb9b6fae0a139a9085becb860405160405180910390a26114e9565b3373ffffffffffffffffffffffffffffffffffffffff167facd2c8702804128fdb0db2bb49f6d127dd0181c13fd45dbfe16de0930e2bd37560405160405180910390a25b949350505050565b5f606061150086868686611343565b915060405160203d0181016040523d81523d5f602083013e8091505094509492505050565b60605f6020836115359190615138565b67ffffffffffffffff81111561154e5761154d613e82565b5b6040519080825280601f01601f1916602001820160405280156115805781602001600182028036833780820191505090505b5090505f5b838110156115aa57808501548060208302602085010152508080600101915050611585565b508091505092915050565b6007602052805f5260405f205f915090505481565b6115d261333d565b5f73ffffffffffffffffffffffffffffffffffffffff168173ffffffffffffffffffffffffffffffffffffffff161415801561163b5750600173ffffffffffffffffffffffffffffffffffffffff168173ffffffffffffffffffffffffffffffffffffffff1614155b61167a576040517f08c379a0000000000000000000000000000000000000000000000000000000008152600401611671906151c3565b60405180910390fd5b5f73ffffffffffffffffffffffffffffffffffffffff1660015f8373ffffffffffffffffffffffffffffffffffffffff1673ffffffffffffffffffffffffffffffffffffffff1681526020019081526020015f205f9054906101000a900473ffffffffffffffffffffffffffffffffffffffff1673ffffffffffffffffffffffffffffffffffffffff1614611744576040517f08c379a000000000000000000000000000000000000000000000000000000000815260040161173b9061522b565b60405180910390fd5b60015f600173ffffffffffffffffffffffffffffffffffffffff1673ffffffffffffffffffffffffffffffffffffffff1681526020019081526020015f205f9054906101000a900473ffffffffffffffffffffffffffffffffffffffff1660015f8373ffffffffffffffffffffffffffffffffffffffff1673ffffffffffffffffffffffffffffffffffffffff1681526020019081526020015f205f6101000a81548173ffffffffffffffffffffffffffffffffffffffff021916908373ffffffffffffffffffffffffffffffffffffffff1602179055508060015f600173ffffffffffffffffffffffffffffffffffffffff1673ffffffffffffffffffffffffffffffffffffffff1681526020019081526020015f205f6101000a81548173ffffffffffffffffffffffffffffffffffffffff021916908373ffffffffffffffffffffffffffffffffffffffff1602179055507fecdf3a3effea5783a3c4c2140e677577666428d44ed9d474a0b3a4c9943f8440816040516118c79190614bff565b60405180910390a150565b6118da61333d565b60035481111561191f576040517f08c379a000000000000000000000000000000000000000000000000000000000815260040161191690615293565b60405180910390fd5b6001811015611963576040517f08c379a000000000000000000000000000000000000000000000000000000000815260040161195a906152fb565b60405180910390fd5b806004819055507f610f7ff2b304ae8903c3de74c60c6ab1f7d6226b3f52c5161905bb5ad4039c9360045460405161199b9190613d4b565b60405180910390a150565b5f805f6119be8e8e8e8e8e8e8e8e8e8e600554612e1c565b905060055f8154809291906119d290614bb8565b9190505550808051906020012091506119ec828286611d71565b505f6119f6613496565b90505f73ffffffffffffffffffffffffffffffffffffffff168173ffffffffffffffffffffffffffffffffffffffff1614611aa8578073ffffffffffffffffffffffffffffffffffffffff166375f0bb528f8f8f8f8f8f8f8f8f8f8f336040518d63ffffffff1660e01b8152600401611a7a9c9b9a999897969594939291906153c7565b5f604051808303815f87803b158015611a91575f80fd5b505af1158015611aa3573d5f803e3d5ffd5b505050505b6101f4611ae36109c48b611abc9190615480565b603f60408d611acb9190615138565b611ad591906154e0565b6134c590919063ffffffff16565b611aed9190615480565b5a1015611b2f576040517f08c379a0000000000000000000000000000000000000000000000000000000008152600401611b269061555a565b60405180910390fd5b5f5a9050611b9e8f8f8f8f8080601f0160208091040260200160405190810160405280939291908181526020018383808284375f81840152601f19601f820116905080830192505050505050508e5f8d14611b8a578e611b99565b6109c45a611b989190615578565b5b613440565b9350611bb35a826134de90919063ffffffff16565b90508380611bc157505f8a14155b80611bcc57505f8814155b611c0b576040517f08c379a0000000000000000000000000000000000000000000000000000000008152600401611c02906155f5565b60405180910390fd5b5f80891115611c2457611c21828b8b8b8b613504565b90505b8415611c68577f442e715f626346e8c54381002da614f62bee8d27386535b2521ec8540898556e8482604051611c5b929190615613565b60405180910390a1611ca2565b7f23428b18acfb3ea64b08dc0c1d296ea9c09702c09083ca5272e64d115b687d238482604051611c99929190615613565b60405180910390a15b50505f73ffffffffffffffffffffffffffffffffffffffff168173ffffffffffffffffffffffffffffffffffffffff1614611d40578073ffffffffffffffffffffffffffffffffffffffff16639327136883856040518363ffffffff1660e01b8152600401611d1292919061563a565b5f604051808303815f87803b158015611d29575f80fd5b505af1158015611d3b573d5f803e3d5ffd5b505050505b50509b9a5050505050505050505050565b6008602052815f5260405f20602052805f5260405f205f91509150505481565b5f60045490505f8111611db9576040517f08c379a0000000000000000000000000000000000000000000000000000000008152600401611db0906156ab565b60405180910390fd5b611dc584848484610bc8565b50505050565b60605f60035467ffffffffffffffff811115611dea57611de9613e82565b5b604051908082528060200260200182016040528015611e185781602001602082028036833780820191505090505b5090505f8060025f600173ffffffffffffffffffffffffffffffffffffffff1673ffffffffffffffffffffffffffffffffffffffff1681526020019081526020015f205f9054906101000a900473ffffffffffffffffffffffffffffffffffffffff1690505b600173ffffffffffffffffffffffffffffffffffffffff168173ffffffffffffffffffffffffffffffffffffffff1614611f725780838381518110611ec657611ec56156c9565b5b602002602001019073ffffffffffffffffffffffffffffffffffffffff16908173ffffffffffffffffffffffffffffffffffffffff168152505060025f8273ffffffffffffffffffffffffffffffffffffffff1673ffffffffffffffffffffffffffffffffffffffff1681526020019081526020015f205f9054906101000a900473ffffffffffffffffffffffffffffffffffffffff1690508180611f6a90614bb8565b925050611e7e565b82935050505090565b60055481565b5f80825160208401855af4805f523d6020523d5f60403e60403d015ffd5b611fe98a8a808060200260200160405190810160405280939291908181526020018383602002808284375f81840152601f19601f820116905080830192505050505050508961369f565b5f73ffffffffffffffffffffffffffffffffffffffff168473ffffffffffffffffffffffffffffffffffffffff16146120265761202584613a98565b5b6120738787878080601f0160208091040260200160405190810160405280939291908181526020018383808284375f81840152601f19601f82011690508083019250505050505050613ac5565b5f82111561208b57612089825f60018685613504565b505b3373ffffffffffffffffffffffffffffffffffffffff167f141df868a6331af528e38c83b7aa03edc19be66e37ae67f9285bf4f8e3c6a1a88b8b8b8b896040516120d995949392919061577c565b60405180910390a250505050505050505050565b5f805a9050612142878787878080601f0160208091040260200160405190810160405280939291908181526020018383808284375f81840152601f19601f82011690508083019250505050505050865a613440565b61214a575f80fd5b5f5a826121579190615578565b90508060405160200161216a91906157e8565b6040516020818303038152906040526040517f08c379a00000000000000000000000000000000000000000000000000000000081526004016121ac9190614a9b565b60405180910390fd5b60605f8267ffffffffffffffff8111156121d2576121d1613e82565b5b6040519080825280602002602001820160405280156122005781602001602082028036833780820191505090505b5091505f8060015f8773ffffffffffffffffffffffffffffffffffffffff1673ffffffffffffffffffffffffffffffffffffffff1681526020019081526020015f205f9054906101000a900473ffffffffffffffffffffffffffffffffffffffff1690505b5f73ffffffffffffffffffffffffffffffffffffffff168173ffffffffffffffffffffffffffffffffffffffff16141580156122ce5750600173ffffffffffffffffffffffffffffffffffffffff168173ffffffffffffffffffffffffffffffffffffffff1614155b80156122d957508482105b1561239e57808483815181106122f2576122f16156c9565b5b602002602001019073ffffffffffffffffffffffffffffffffffffffff16908173ffffffffffffffffffffffffffffffffffffffff168152505060015f8273ffffffffffffffffffffffffffffffffffffffff1673ffffffffffffffffffffffffffffffffffffffff1681526020019081526020015f205f9054906101000a900473ffffffffffffffffffffffffffffffffffffffff169050818061239690614bb8565b925050612265565b80925081845250509250929050565b5f73ffffffffffffffffffffffffffffffffffffffff1660025f3373ffffffffffffffffffffffffffffffffffffffff1673ffffffffffffffffffffffffffffffffffffffff1681526020019081526020015f205f9054906101000a900473ffffffffffffffffffffffffffffffffffffffff1673ffffffffffffffffffffffffffffffffffffffff1603612477576040517f08c379a000000000000000000000000000000000000000000000000000000000815260040161246e9061584c565b60405180910390fd5b600160085f3373ffffffffffffffffffffffffffffffffffffffff1673ffffffffffffffffffffffffffffffffffffffff1681526020019081526020015f205f8381526020019081526020015f20819055503373ffffffffffffffffffffffffffffffffffffffff16817ff2a0eb156472d1440255b0d7c1e19cc07115d1051fe605b0dce69acfec884d9c60405160405180910390a350565b5f6125248c8c8c8c8c8c8c8c8c8c8c612e1c565b8051906020012090509b9a5050505050505050505050565b61254461333d565b5f73ffffffffffffffffffffffffffffffffffffffff168173ffffffffffffffffffffffffffffffffffffffff16141580156125ad5750600173ffffffffffffffffffffffffffffffffffffffff168173ffffffffffffffffffffffffffffffffffffffff1614155b6125ec576040517f08c379a00000000000000000000000000000000000000000000000000000000081526004016125e3906151c3565b60405180910390fd5b8073ffffffffffffffffffffffffffffffffffffffff1660015f8473ffffffffffffffffffffffffffffffffffffffff1673ffffffffffffffffffffffffffffffffffffffff1681526020019081526020015f205f9054906101000a900473ffffffffffffffffffffffffffffffffffffffff1673ffffffffffffffffffffffffffffffffffffffff16146126b6576040517f08c379a00000000000000000000000000000000000000000000000000000000081526004016126ad906158b4565b60405180910390fd5b60015f8273ffffffffffffffffffffffffffffffffffffffff1673ffffffffffffffffffffffffffffffffffffffff1681526020019081526020015f205f9054906101000a900473ffffffffffffffffffffffffffffffffffffffff1660015f8473ffffffffffffffffffffffffffffffffffffffff1673ffffffffffffffffffffffffffffffffffffffff1681526020019081526020015f205f6101000a81548173ffffffffffffffffffffffffffffffffffffffff021916908373ffffffffffffffffffffffffffffffffffffffff1602179055505f60015f8373ffffffffffffffffffffffffffffffffffffffff1673ffffffffffffffffffffffffffffffffffffffff1681526020019081526020015f205f6101000a81548173ffffffffffffffffffffffffffffffffffffffff021916908373ffffffffffffffffffffffffffffffffffffffff1602179055507faab4fa2b463f581b2b32cb3b7e3b704b9ce37cc209b5fb4d77e593ace4054276816040516128379190614bff565b60405180910390a15050565b61284b61333d565b5f7f4a204f620c8c5ccdca3fd54d003badd85ba500436a431f0cbda4f558c93c34c85f1b90508181557f1151116914515bc0891ff9047a6cb32cf902546f83066499bcf8ba33d2353fa2826040516128a39190614bff565b60405180910390a15050565b6128b761333d565b5f73ffffffffffffffffffffffffffffffffffffffff168173ffffffffffffffffffffffffffffffffffffffff16141580156129205750600173ffffffffffffffffffffffffffffffffffffffff168173ffffffffffffffffffffffffffffffffffffffff1614155b801561295857503073ffffffffffffffffffffffffffffffffffffffff168173ffffffffffffffffffffffffffffffffffffffff1614155b612997576040517f08c379a000000000000000000000000000000000000000000000000000000000815260040161298e90614b05565b60405180910390fd5b5f73ffffffffffffffffffffffffffffffffffffffff1660025f8373ffffffffffffffffffffffffffffffffffffffff1673ffffffffffffffffffffffffffffffffffffffff1681526020019081526020015f205f9054906101000a900473ffffffffffffffffffffffffffffffffffffffff1673ffffffffffffffffffffffffffffffffffffffff1614612a61576040517f08c379a0000000000000000000000000000000000000000000000000000000008152600401612a5890614b6d565b60405180910390fd5b5f73ffffffffffffffffffffffffffffffffffffffff168273ffffffffffffffffffffffffffffffffffffffff1614158015612aca5750600173ffffffffffffffffffffffffffffffffffffffff168273ffffffffffffffffffffffffffffffffffffffff1614155b612b09576040517f08c379a0000000000000000000000000000000000000000000000000000000008152600401612b0090614b05565b60405180910390fd5b8173ffffffffffffffffffffffffffffffffffffffff1660025f8573ffffffffffffffffffffffffffffffffffffffff1673ffffffffffffffffffffffffffffffffffffffff1681526020019081526020015f205f9054906101000a900473ffffffffffffffffffffffffffffffffffffffff1673ffffffffffffffffffffffffffffffffffffffff1614612bd3576040517f08c379a0000000000000000000000000000000000000000000000000000000008152600401612bca9061591c565b60405180910390fd5b60025f8373ffffffffffffffffffffffffffffffffffffffff1673ffffffffffffffffffffffffffffffffffffffff1681526020019081526020015f205f9054906101000a900473ffffffffffffffffffffffffffffffffffffffff1660025f8373ffffffffffffffffffffffffffffffffffffffff1673ffffffffffffffffffffffffffffffffffffffff1681526020019081526020015f205f6101000a81548173ffffffffffffffffffffffffffffffffffffffff021916908373ffffffffffffffffffffffffffffffffffffffff1602179055508060025f8573ffffffffffffffffffffffffffffffffffffffff1673ffffffffffffffffffffffffffffffffffffffff1681526020019081526020015f205f6101000a81548173ffffffffffffffffffffffffffffffffffffffff021916908373ffffffffffffffffffffffffffffffffffffffff1602179055505f60025f8473ffffffffffffffffffffffffffffffffffffffff1673ffffffffffffffffffffffffffffffffffffffff1681526020019081526020015f205f6101000a81548173ffffffffffffffffffffffffffffffffffffffff021916908373ffffffffffffffffffffffffffffffffffffffff1602179055507ff8d49fc529812e9a7c5c50e69c20f0dccc0db8fa95c98bc58cc9a4f1c1299eaf82604051612dcf9190614bff565b60405180910390a17f9465fa0c962cc76958e6373a993326400c1c94f8be2fe3a952adfa7f60b2ea2681604051612e069190614bff565b60405180910390a1505050565b5f600454905090565b60605f7fbb8310d486368db6bd6f849402fdd73ad53d316b5a4b2644ad6efe0f941286d85f1b8d8d8d8d604051612e54929190615968565b60405180910390208c8c8c8c8c8c8c604051602001612e7d9b9a99989796959493929190615980565b604051602081830303815290604052805190602001209050601960f81b600160f81b612ea7612f27565b83604051602001612ebb9493929190615a74565b6040516020818303038152906040529150509b9a5050505050505050505050565b612ee461333d565b612eed81613a98565b7f5ac6c46c93c8d0e53714ba3b53db3e7c046da994313d7ed0d192028bc7c228b081604051612f1c9190614bff565b60405180910390a150565b5f7f47e79534a245952e8b16893a336b85a3d9ea9fa8c573f3d803afb92a794692185f1b612f53611337565b30604051602001612f6693929190615b1c565b60405160208183030381529060405280519060200120905090565b612f8961333d565b806001600354612f999190615578565b1015612fda576040517f08c379a0000000000000000000000000000000000000000000000000000000008152600401612fd190615293565b60405180910390fd5b5f73ffffffffffffffffffffffffffffffffffffffff168273ffffffffffffffffffffffffffffffffffffffff16141580156130435750600173ffffffffffffffffffffffffffffffffffffffff168273ffffffffffffffffffffffffffffffffffffffff1614155b613082576040517f08c379a000000000000000000000000000000000000000000000000000000000815260040161307990614b05565b60405180910390fd5b8173ffffffffffffffffffffffffffffffffffffffff1660025f8573ffffffffffffffffffffffffffffffffffffffff1673ffffffffffffffffffffffffffffffffffffffff1681526020019081526020015f205f9054906101000a900473ffffffffffffffffffffffffffffffffffffffff1673ffffffffffffffffffffffffffffffffffffffff161461314c576040517f08c379a00000000000000000000000000000000000000000000000000000000081526004016131439061591c565b60405180910390fd5b60025f8373ffffffffffffffffffffffffffffffffffffffff1673ffffffffffffffffffffffffffffffffffffffff1681526020019081526020015f205f9054906101000a900473ffffffffffffffffffffffffffffffffffffffff1660025f8573ffffffffffffffffffffffffffffffffffffffff1673ffffffffffffffffffffffffffffffffffffffff1681526020019081526020015f205f6101000a81548173ffffffffffffffffffffffffffffffffffffffff021916908373ffffffffffffffffffffffffffffffffffffffff1602179055505f60025f8473ffffffffffffffffffffffffffffffffffffffff1673ffffffffffffffffffffffffffffffffffffffff1681526020019081526020015f205f6101000a81548173ffffffffffffffffffffffffffffffffffffffff021916908373ffffffffffffffffffffffffffffffffffffffff16021790555060035f8154809291906132b090615b51565b91905055507ff8d49fc529812e9a7c5c50e69c20f0dccc0db8fa95c98bc58cc9a4f1c1299eaf826040516132e49190614bff565b60405180910390a180600454146132ff576132fe816118d2565b5b505050565b6040518060400160405280600581526020017f312e332e3000000000000000000000000000000000000000000000000000000081525081565b3073ffffffffffffffffffffffffffffffffffffffff163373ffffffffffffffffffffffffffffffffffffffff16146133ab576040517f08c379a00000000000000000000000000000000000000000000000000000000081526004016133a290615bc2565b60405180910390fd5b565b5f8083036133bd575f90506133e7565b5f82846133ca9190615138565b90508284826133d991906154e0565b146133e2575f80fd5b809150505b92915050565b5f805f8360410260208101860151925060408101860151915060ff60418201870151169350509250925092565b5f8082846134289190615480565b905083811015613436575f80fd5b8091505092915050565b5f60018081111561345457613453615345565b5b83600181111561346757613466615345565b5b0361347e575f808551602087018986f4905061348d565b5f80855160208701888a87f190505b95945050505050565b5f807f4a204f620c8c5ccdca3fd54d003badd85ba500436a431f0cbda4f558c93c34c85f1b9050805491505090565b5f818310156134d457816134d6565b825b905092915050565b5f828211156134eb575f80fd5b5f82846134f89190615578565b90508091505092915050565b5f805f73ffffffffffffffffffffffffffffffffffffffff168373ffffffffffffffffffffffffffffffffffffffff161461353f5782613541565b325b90505f73ffffffffffffffffffffffffffffffffffffffff168473ffffffffffffffffffffffffffffffffffffffff1603613623576135a93a8610613586573a613588565b855b61359b888a61341a90919063ffffffff16565b6133ad90919063ffffffff16565b91508073ffffffffffffffffffffffffffffffffffffffff166108fc8390811502906040515f60405180830381858888f1935050505061361e576040517f08c379a000000000000000000000000000000000000000000000000000000000815260040161361590615c2a565b60405180910390fd5b613695565b6136488561363a888a61341a90919063ffffffff16565b6133ad90919063ffffffff16565b9150613655848284613c91565b613694576040517f08c379a000000000000000000000000000000000000000000000000000000000815260040161368b90615c92565b60405180910390fd5b5b5095945050505050565b5f600454146136e3576040517f08c379a00000000000000000000000000000000000000000000000000000000081526004016136da90615cfa565b60405180910390fd5b8151811115613727576040517f08c379a000000000000000000000000000000000000000000000000000000000815260040161371e90615293565b60405180910390fd5b600181101561376b576040517f08c379a0000000000000000000000000000000000000000000000000000000008152600401613762906152fb565b60405180910390fd5b5f600190505f5b8351811015613a07575f84828151811061378f5761378e6156c9565b5b602002602001015190505f73ffffffffffffffffffffffffffffffffffffffff168173ffffffffffffffffffffffffffffffffffffffff16141580156138025750600173ffffffffffffffffffffffffffffffffffffffff168173ffffffffffffffffffffffffffffffffffffffff1614155b801561383a57503073ffffffffffffffffffffffffffffffffffffffff168173ffffffffffffffffffffffffffffffffffffffff1614155b801561387257508073ffffffffffffffffffffffffffffffffffffffff168373ffffffffffffffffffffffffffffffffffffffff1614155b6138b1576040517f08c379a00000000000000000000000000000000000000000000000000000000081526004016138a890614b05565b60405180910390fd5b5f73ffffffffffffffffffffffffffffffffffffffff1660025f8373ffffffffffffffffffffffffffffffffffffffff1673ffffffffffffffffffffffffffffffffffffffff1681526020019081526020015f205f9054906101000a900473ffffffffffffffffffffffffffffffffffffffff1673ffffffffffffffffffffffffffffffffffffffff161461397b576040517f08c379a000000000000000000000000000000000000000000000000000000000815260040161397290614b6d565b60405180910390fd5b8060025f8573ffffffffffffffffffffffffffffffffffffffff1673ffffffffffffffffffffffffffffffffffffffff1681526020019081526020015f205f6101000a81548173ffffffffffffffffffffffffffffffffffffffff021916908373ffffffffffffffffffffffffffffffffffffffff160217905550809250508080600101915050613772565b50600160025f8373ffffffffffffffffffffffffffffffffffffffff1673ffffffffffffffffffffffffffffffffffffffff1681526020019081526020015f205f6101000a81548173ffffffffffffffffffffffffffffffffffffffff021916908373ffffffffffffffffffffffffffffffffffffffff160217905550825160038190555081600481905550505050565b5f7f6c9a6c4a39284e37ed1cf53d337577d14212a4870fb976a4366c693b939918d55f1b90508181555050565b5f73ffffffffffffffffffffffffffffffffffffffff1660015f600173ffffffffffffffffffffffffffffffffffffffff1673ffffffffffffffffffffffffffffffffffffffff1681526020019081526020015f205f9054906101000a900473ffffffffffffffffffffffffffffffffffffffff1673ffffffffffffffffffffffffffffffffffffffff1614613b90576040517f08c379a0000000000000000000000000000000000000000000000000000000008152600401613b8790615d62565b60405180910390fd5b6001805f600173ffffffffffffffffffffffffffffffffffffffff1673ffffffffffffffffffffffffffffffffffffffff1681526020019081526020015f205f6101000a81548173ffffffffffffffffffffffffffffffffffffffff021916908373ffffffffffffffffffffffffffffffffffffffff1602179055505f73ffffffffffffffffffffffffffffffffffffffff168273ffffffffffffffffffffffffffffffffffffffff1614613c8d57613c4d825f8360015a613440565b613c8c576040517f08c379a0000000000000000000000000000000000000000000000000000000008152600401613c8390615dca565b60405180910390fd5b5b5050565b5f8063a9059cbb8484604051602401613cab929190615de8565b6040516020818303038152906040529060e01b6020820180517bffffffffffffffffffffffffffffffffffffffffffffffffffffffff8381831617835250505050905060205f8251602084015f896127105a03f13d5f8114613d175760208114613d1f575f9350613d29565b819350613d29565b5f51158215171593505b5050509392505050565b5f819050919050565b613d4581613d33565b82525050565b5f602082019050613d5e5f830184613d3c565b92915050565b5f604051905090565b5f80fd5b5f80fd5b5f73ffffffffffffffffffffffffffffffffffffffff82169050919050565b5f613d9e82613d75565b9050919050565b613dae81613d94565b8114613db8575f80fd5b50565b5f81359050613dc981613da5565b92915050565b613dd881613d33565b8114613de2575f80fd5b50565b5f81359050613df381613dcf565b92915050565b5f8060408385031215613e0f57613e0e613d6d565b5b5f613e1c85828601613dbb565b9250506020613e2d85828601613de5565b9150509250929050565b5f819050919050565b613e4981613e37565b8114613e53575f80fd5b50565b5f81359050613e6481613e40565b92915050565b5f80fd5b5f80fd5b5f601f19601f8301169050919050565b7f4e487b71000000000000000000000000000000000000000000000000000000005f52604160045260245ffd5b613eb882613e72565b810181811067ffffffffffffffff82111715613ed757613ed6613e82565b5b80604052505050565b5f613ee9613d64565b9050613ef58282613eaf565b919050565b5f67ffffffffffffffff821115613f1457613f13613e82565b5b613f1d82613e72565b9050602081019050919050565b828183375f83830152505050565b5f613f4a613f4584613efa565b613ee0565b905082815260208101848484011115613f6657613f65613e6e565b5b613f71848285613f2a565b509392505050565b5f82601f830112613f8d57613f8c613e6a565b5b8135613f9d848260208601613f38565b91505092915050565b5f805f8060808587031215613fbe57613fbd613d6d565b5b5f613fcb87828801613e56565b945050602085013567ffffffffffffffff811115613fec57613feb613d71565b5b613ff887828801613f79565b935050604085013567ffffffffffffffff81111561401957614018613d71565b5b61402587828801613f79565b925050606061403687828801613de5565b91505092959194509250565b5f6020828403121561405757614056613d6d565b5b5f61406484828501613dbb565b91505092915050565b5f8115159050919050565b6140818161406d565b82525050565b5f60208201905061409a5f830184614078565b92915050565b600281106140ac575f80fd5b50565b5f813590506140bd816140a0565b92915050565b5f805f80608085870312156140db576140da613d6d565b5b5f6140e887828801613dbb565b94505060206140f987828801613de5565b935050604085013567ffffffffffffffff81111561411a57614119613d71565b5b61412687828801613f79565b9250506060614137878288016140af565b91505092959194509250565b5f81519050919050565b5f82825260208201905092915050565b5f5b8381101561417a57808201518184015260208101905061415f565b5f8484015250505050565b5f61418f82614143565b614199818561414d565b93506141a981856020860161415d565b6141b281613e72565b840191505092915050565b5f6040820190506141d05f830185614078565b81810360208301526141e28184614185565b90509392505050565b5f806040838503121561420157614200613d6d565b5b5f61420e85828601613de5565b925050602061421f85828601613de5565b9150509250929050565b5f6020820190508181035f8301526142418184614185565b905092915050565b5f6020828403121561425e5761425d613d6d565b5b5f61426b84828501613e56565b91505092915050565b5f6020828403121561428957614288613d6d565b5b5f61429684828501613de5565b91505092915050565b5f80fd5b5f80fd5b5f8083601f8401126142bc576142bb613e6a565b5b8235905067ffffffffffffffff8111156142d9576142d861429f565b5b6020830191508360018202830111156142f5576142f46142a3565b5b9250929050565b5f61430682613d75565b9050919050565b614316816142fc565b8114614320575f80fd5b50565b5f813590506143318161430d565b92915050565b5f805f805f805f805f805f6101408c8e03121561435757614356613d6d565b5b5f6143648e828f01613dbb565b9b505060206143758e828f01613de5565b9a505060408c013567ffffffffffffffff81111561439657614395613d71565b5b6143a28e828f016142a7565b995099505060606143b58e828f016140af565b97505060806143c68e828f01613de5565b96505060a06143d78e828f01613de5565b95505060c06143e88e828f01613de5565b94505060e06143f98e828f01613dbb565b93505061010061440b8e828f01614323565b9250506101208c013567ffffffffffffffff81111561442d5761442c613d71565b5b6144398e828f01613f79565b9150509295989b509295989b9093969950565b5f806040838503121561446257614461613d6d565b5b5f61446f85828601613dbb565b925050602061448085828601613e56565b9150509250929050565b5f805f606084860312156144a1576144a0613d6d565b5b5f6144ae86828701613e56565b935050602084013567ffffffffffffffff8111156144cf576144ce613d71565b5b6144db86828701613f79565b925050604084013567ffffffffffffffff8111156144fc576144fb613d71565b5b61450886828701613f79565b9150509250925092565b5f81519050919050565b5f82825260208201905092915050565b5f819050602082019050919050565b61454481613d94565b82525050565b5f614555838361453b565b60208301905092915050565b5f602082019050919050565b5f61457782614512565b614581818561451c565b935061458c8361452c565b805f5b838110156145bc5781516145a3888261454a565b97506145ae83614561565b92505060018101905061458f565b5085935050505092915050565b5f6020820190508181035f8301526145e1818461456d565b905092915050565b5f80604083850312156145ff576145fe613d6d565b5b5f61460c85828601613dbb565b925050602083013567ffffffffffffffff81111561462d5761462c613d71565b5b61463985828601613f79565b9150509250929050565b5f8083601f84011261465857614657613e6a565b5b8235905067ffffffffffffffff8111156146755761467461429f565b5b602083019150836020820283011115614691576146906142a3565b5b9250929050565b5f805f805f805f805f806101008b8d0312156146b7576146b6613d6d565b5b5f8b013567ffffffffffffffff8111156146d4576146d3613d71565b5b6146e08d828e01614643565b9a509a505060206146f38d828e01613de5565b98505060406147048d828e01613dbb565b97505060608b013567ffffffffffffffff81111561472557614724613d71565b5b6147318d828e016142a7565b965096505060806147448d828e01613dbb565b94505060a06147558d828e01613dbb565b93505060c06147668d828e01613de5565b92505060e06147778d828e01614323565b9150509295989b9194979a5092959850565b5f805f805f608086880312156147a2576147a1613d6d565b5b5f6147af88828901613dbb565b95505060206147c088828901613de5565b945050604086013567ffffffffffffffff8111156147e1576147e0613d71565b5b6147ed888289016142a7565b93509350506060614800888289016140af565b9150509295509295909350565b61481681613d94565b82525050565b5f6040820190508181035f830152614834818561456d565b9050614843602083018461480d565b9392505050565b5f805f805f805f805f805f6101408c8e03121561486a57614869613d6d565b5b5f6148778e828f01613dbb565b9b505060206148888e828f01613de5565b9a505060408c013567ffffffffffffffff8111156148a9576148a8613d71565b5b6148b58e828f016142a7565b995099505060606148c88e828f016140af565b97505060806148d98e828f01613de5565b96505060a06148ea8e828f01613de5565b95505060c06148fb8e828f01613de5565b94505060e061490c8e828f01613dbb565b93505061010061491e8e828f01613dbb565b9250506101206149308e828f01613de5565b9150509295989b509295989b9093969950565b61494c81613e37565b82525050565b5f6020820190506149655f830184614943565b92915050565b5f806040838503121561498157614980613d6d565b5b5f61498e85828601613dbb565b925050602061499f85828601613dbb565b9150509250929050565b5f805f606084860312156149c0576149bf613d6d565b5b5f6149cd86828701613dbb565b93505060206149de86828701613dbb565b92505060406149ef86828701613dbb565b9150509250925092565b5f805f60608486031215614a1057614a0f613d6d565b5b5f614a1d86828701613dbb565b9350506020614a2e86828701613dbb565b9250506040614a3f86828701613de5565b9150509250925092565b5f81519050919050565b5f82825260208201905092915050565b5f614a6d82614a49565b614a778185614a53565b9350614a8781856020860161415d565b614a9081613e72565b840191505092915050565b5f6020820190508181035f830152614ab38184614a63565b905092915050565b7f47533230330000000000000000000000000000000000000000000000000000005f82015250565b5f614aef600583614a53565b9150614afa82614abb565b602082019050919050565b5f6020820190508181035f830152614b1c81614ae3565b9050919050565b7f47533230340000000000000000000000000000000000000000000000000000005f82015250565b5f614b57600583614a53565b9150614b6282614b23565b602082019050919050565b5f6020820190508181035f830152614b8481614b4b565b9050919050565b7f4e487b71000000000000000000000000000000000000000000000000000000005f52601160045260245ffd5b5f614bc282613d33565b91507fffffffffffffffffffffffffffffffffffffffffffffffffffffffffffffffff8203614bf457614bf3614b8b565b5b600182019050919050565b5f602082019050614c125f83018461480d565b92915050565b7f47533032300000000000000000000000000000000000000000000000000000005f82015250565b5f614c4c600583614a53565b9150614c5782614c18565b602082019050919050565b5f6020820190508181035f830152614c7981614c40565b9050919050565b7f47533032310000000000000000000000000000000000000000000000000000005f82015250565b5f614cb4600583614a53565b9150614cbf82614c80565b602082019050919050565b5f6020820190508181035f830152614ce181614ca8565b9050919050565b7f47533032320000000000000000000000000000000000000000000000000000005f82015250565b5f614d1c600583614a53565b9150614d2782614ce8565b602082019050919050565b5f6020820190508181035f830152614d4981614d10565b9050919050565b7f47533032330000000000000000000000000000000000000000000000000000005f82015250565b5f614d84600583614a53565b9150614d8f82614d50565b602082019050919050565b5f6020820190508181035f830152614db181614d78565b9050919050565b5f6040820190508181035f830152614dd08185614185565b90508181036020830152614de48184614185565b90509392505050565b5f7fffffffff0000000000000000000000000000000000000000000000000000000082169050919050565b614e2181614ded565b8114614e2b575f80fd5b50565b5f81519050614e3c81614e18565b92915050565b5f60208284031215614e5757614e56613d6d565b5b5f614e6484828501614e2e565b91505092915050565b7f47533032340000000000000000000000000000000000000000000000000000005f82015250565b5f614ea1600583614a53565b9150614eac82614e6d565b602082019050919050565b5f6020820190508181035f830152614ece81614e95565b9050919050565b7f47533032350000000000000000000000000000000000000000000000000000005f82015250565b5f614f09600583614a53565b9150614f1482614ed5565b602082019050919050565b5f6020820190508181035f830152614f3681614efd565b9050919050565b5f81905092915050565b7f19457468657265756d205369676e6564204d6573736167653a0a3332000000005f82015250565b5f614f7b601c83614f3d565b9150614f8682614f47565b601c82019050919050565b5f819050919050565b614fab614fa682613e37565b614f91565b82525050565b5f614fbb82614f6f565b9150614fc78284614f9a565b60208201915081905092915050565b5f60ff82169050919050565b5f614fec82614fd6565b9150614ff783614fd6565b9250828203905060ff8111156150105761500f614b8b565b5b92915050565b61501f81614fd6565b82525050565b5f6080820190506150385f830187614943565b6150456020830186615016565b6150526040830185614943565b61505f6060830184614943565b95945050505050565b7f47533032360000000000000000000000000000000000000000000000000000005f82015250565b5f61509c600583614a53565b91506150a782615068565b602082019050919050565b5f6020820190508181035f8301526150c981615090565b9050919050565b7f47533130340000000000000000000000000000000000000000000000000000005f82015250565b5f615104600583614a53565b915061510f826150d0565b602082019050919050565b5f6020820190508181035f830152615131816150f8565b9050919050565b5f61514282613d33565b915061514d83613d33565b925082820261515b81613d33565b9150828204841483151761517257615171614b8b565b5b5092915050565b7f47533130310000000000000000000000000000000000000000000000000000005f82015250565b5f6151ad600583614a53565b91506151b882615179565b602082019050919050565b5f6020820190508181035f8301526151da816151a1565b9050919050565b7f47533130320000000000000000000000000000000000000000000000000000005f82015250565b5f615215600583614a53565b9150615220826151e1565b602082019050919050565b5f6020820190508181035f83015261524281615209565b9050919050565b7f47533230310000000000000000000000000000000000000000000000000000005f82015250565b5f61527d600583614a53565b915061528882615249565b602082019050919050565b5f6020820190508181035f8301526152aa81615271565b9050919050565b7f47533230320000000000000000000000000000000000000000000000000000005f82015250565b5f6152e5600583614a53565b91506152f0826152b1565b602082019050919050565b5f6020820190508181035f830152615312816152d9565b9050919050565b5f615324838561414d565b9350615331838584613f2a565b61533a83613e72565b840190509392505050565b7f4e487b71000000000000000000000000000000000000000000000000000000005f52602160045260245ffd5b6002811061538357615382615345565b5b50565b5f81905061539382615372565b919050565b5f6153a282615386565b9050919050565b6153b281615398565b82525050565b6153c1816142fc565b82525050565b5f610160820190506153db5f83018f61480d565b6153e8602083018e613d3c565b81810360408301526153fb818c8e615319565b905061540a606083018b6153a9565b615417608083018a613d3c565b61542460a0830189613d3c565b61543160c0830188613d3c565b61543e60e083018761480d565b61544c6101008301866153b8565b81810361012083015261545f8185614185565b905061546f61014083018461480d565b9d9c50505050505050505050505050565b5f61548a82613d33565b915061549583613d33565b92508282019050808211156154ad576154ac614b8b565b5b92915050565b7f4e487b71000000000000000000000000000000000000000000000000000000005f52601260045260245ffd5b5f6154ea82613d33565b91506154f583613d33565b925082615505576155046154b3565b5b828204905092915050565b7f47533031300000000000000000000000000000000000000000000000000000005f82015250565b5f615544600583614a53565b915061554f82615510565b602082019050919050565b5f6020820190508181035f83015261557181615538565b9050919050565b5f61558282613d33565b915061558d83613d33565b92508282039050818111156155a5576155a4614b8b565b5b92915050565b7f47533031330000000000000000000000000000000000000000000000000000005f82015250565b5f6155df600583614a53565b91506155ea826155ab565b602082019050919050565b5f6020820190508181035f83015261560c816155d3565b9050919050565b5f6040820190506156265f830185614943565b6156336020830184613d3c565b9392505050565b5f60408201905061564d5f830185614943565b61565a6020830184614078565b9392505050565b7f47533030310000000000000000000000000000000000000000000000000000005f82015250565b5f615695600583614a53565b91506156a082615661565b602082019050919050565b5f6020820190508181035f8301526156c281615689565b9050919050565b7f4e487b71000000000000000000000000000000000000000000000000000000005f52603260045260245ffd5b5f819050919050565b5f61570d6020840184613dbb565b905092915050565b5f602082019050919050565b5f61572c838561451c565b9350615737826156f6565b805f5b8581101561576f5761574c82846156ff565b615756888261454a565b975061576183615715565b92505060018101905061573a565b5085925050509392505050565b5f6080820190508181035f830152615795818789615721565b90506157a46020830186613d3c565b6157b1604083018561480d565b6157be606083018461480d565b9695505050505050565b5f819050919050565b6157e26157dd82613d33565b6157c8565b82525050565b5f6157f382846157d1565b60208201915081905092915050565b7f47533033300000000000000000000000000000000000000000000000000000005f82015250565b5f615836600583614a53565b915061584182615802565b602082019050919050565b5f6020820190508181035f8301526158638161582a565b9050919050565b7f47533130330000000000000000000000000000000000000000000000000000005f82015250565b5f61589e600583614a53565b91506158a98261586a565b602082019050919050565b5f6020820190508181035f8301526158cb81615892565b9050919050565b7f47533230350000000000000000000000000000000000000000000000000000005f82015250565b5f615906600583614a53565b9150615911826158d2565b602082019050919050565b5f6020820190508181035f830152615933816158fa565b9050919050565b5f81905092915050565b5f61594f838561593a565b935061595c838584613f2a565b82840190509392505050565b5f615974828486615944565b91508190509392505050565b5f610160820190506159945f83018e614943565b6159a1602083018d61480d565b6159ae604083018c613d3c565b6159bb606083018b614943565b6159c8608083018a6153a9565b6159d560a0830189613d3c565b6159e260c0830188613d3c565b6159ef60e0830187613d3c565b6159fd61010083018661480d565b615a0b61012083018561480d565b615a19610140830184613d3c565b9c9b505050505050505050505050565b5f7fff0000000000000000000000000000000000000000000000000000000000000082169050919050565b5f819050919050565b615a6e615a6982615a29565b615a54565b82525050565b5f615a7f8287615a5d565b600182019150615a8f8286615a5d565b600182019150615a9f8285614f9a565b602082019150615aaf8284614f9a565b60208201915081905095945050505050565b5f819050919050565b5f615ae4615adf615ada84613d75565b615ac1565b613d75565b9050919050565b5f615af582615aca565b9050919050565b5f615b0682615aeb565b9050919050565b615b1681615afc565b82525050565b5f606082019050615b2f5f830186614943565b615b3c6020830185613d3c565b615b496040830184615b0d565b949350505050565b5f615b5b82613d33565b91505f8203615b6d57615b6c614b8b565b5b600182039050919050565b7f47533033310000000000000000000000000000000000000000000000000000005f82015250565b5f615bac600583614a53565b9150615bb782615b78565b602082019050919050565b5f6020820190508181035f830152615bd981615ba0565b9050919050565b7f47533031310000000000000000000000000000000000000000000000000000005f82015250565b5f615c14600583614a53565b9150615c1f82615be0565b602082019050919050565b5f6020820190508181035f830152615c4181615c08565b9050919050565b7f47533031320000000000000000000000000000000000000000000000000000005f82015250565b5f615c7c600583614a53565b9150615c8782615c48565b602082019050919050565b5f6020820190508181035f830152615ca981615c70565b9050919050565b7f47533230300000000000000000000000000000000000000000000000000000005f82015250565b5f615ce4600583614a53565b9150615cef82615cb0565b602082019050919050565b5f6020820190508181035f830152615d1181615cd8565b9050919050565b7f47533130300000000000000000000000000000000000000000000000000000005f82015250565b5f615d4c600583614a53565b9150615d5782615d18565b602082019050919050565b5f6020820190508181035f830152615d7981615d40565b9050919050565b7f47533030300000000000000000000000000000000000000000000000000000005f82015250565b5f615db4600583614a53565b9150615dbf82615d80565b602082019050919050565b5f6020820190508181035f830152615de181615da8565b9050919050565b5f604082019050615dfb5f83018561480d565b615e086020830184613d3c565b939250505056fea26469706673582212209b3f231ca040bc5d84a375233731962efd51ae96e7a6744ae3c09b453db0a87a64736f6c63430008170033",
			"opcodes": "PUSH1 0x80 PUSH1 0x40 MSTORE CALLVALUE DUP1 ISZERO PUSH2 0xF JUMPI PUSH0 DUP1 REVERT JUMPDEST POP PUSH1 0x1 PUSH1 0x4 DUP2 SWAP1 SSTORE POP PUSH2 0x5E45 DUP1 PUSH3 0x26 PUSH0 CODECOPY PUSH0 RETURN INVALID PUSH1 0x80 PUSH1 0x40 MSTORE PUSH1 0x4 CALLDATASIZE LT PUSH2 0x1DB JUMPI PUSH0 CALLDATALOAD PUSH1 0xE0 SHR DUP1 PUSH4 0xAFFED0E0 GT PUSH2 0x101 JUMPI DUP1 PUSH4 0xE19A9DD9 GT PUSH2 0x94 JUMPI DUP1 PUSH4 0xF08A0323 GT PUSH2 0x63 JUMPI DUP1 PUSH4 0xF08A0323 EQ PUSH2 0x7B9 JUMPI DUP1 PUSH4 0xF698DA25 EQ PUSH2 0x7E1 JUMPI DUP1 PUSH4 0xF8DC5DD9 EQ PUSH2 0x80B JUMPI DUP1 PUSH4 0xFFA1AD74 EQ PUSH2 0x833 JUMPI PUSH2 0x230 JUMP JUMPDEST DUP1 PUSH4 0xE19A9DD9 EQ PUSH2 0x703 JUMPI DUP1 PUSH4 0xE318B52B EQ PUSH2 0x72B JUMPI DUP1 PUSH4 0xE75235B8 EQ PUSH2 0x753 JUMPI DUP1 PUSH4 0xE86637DB EQ PUSH2 0x77D JUMPI PUSH2 0x230 JUMP JUMPDEST DUP1 PUSH4 0xCC2F8452 GT PUSH2 0xD0 JUMPI DUP1 PUSH4 0xCC2F8452 EQ PUSH2 0x63A JUMPI DUP1 PUSH4 0xD4D9BDCD EQ PUSH2 0x677 JUMPI DUP1 PUSH4 0xD8D11F78 EQ PUSH2 0x69F JUMPI DUP1 PUSH4 0xE009CFDE EQ PUSH2 0x6DB JUMPI PUSH2 0x230 JUMP JUMPDEST DUP1 PUSH4 0xAFFED0E0 EQ PUSH2 0x584 JUMPI DUP1 PUSH4 0xB4FABA09 EQ PUSH2 0x5AE JUMPI DUP1 PUSH4 0xB63E800D EQ PUSH2 0x5D6 JUMPI DUP1 PUSH4 0xC4CA3A9C EQ PUSH2 0x5FE JUMPI PUSH2 0x230 JUMP JUMPDEST DUP1 PUSH4 0x5624B25B GT PUSH2 0x179 JUMPI DUP1 PUSH4 0x6A761202 GT PUSH2 0x148 JUMPI DUP1 PUSH4 0x6A761202 EQ PUSH2 0x4C6 JUMPI DUP1 PUSH4 0x7D832974 EQ PUSH2 0x4F6 JUMPI DUP1 PUSH4 0x934F3A11 EQ PUSH2 0x532 JUMPI DUP1 PUSH4 0xA0E67E2B EQ PUSH2 0x55A JUMPI PUSH2 0x230 JUMP JUMPDEST DUP1 PUSH4 0x5624B25B EQ PUSH2 0x3FE JUMPI DUP1 PUSH4 0x5AE6BD37 EQ PUSH2 0x43A JUMPI DUP1 PUSH4 0x610B5925 EQ PUSH2 0x476 JUMPI DUP1 PUSH4 0x694E80C3 EQ PUSH2 0x49E JUMPI PUSH2 0x230 JUMP JUMPDEST DUP1 PUSH4 0x2F54BF6E GT PUSH2 0x1B5 JUMPI DUP1 PUSH4 0x2F54BF6E EQ PUSH2 0x31F JUMPI DUP1 PUSH4 0x3408E470 EQ PUSH2 0x35B JUMPI DUP1 PUSH4 0x468721A7 EQ PUSH2 0x385 JUMPI DUP1 PUSH4 0x5229073F EQ PUSH2 0x3C1 JUMPI PUSH2 0x230 JUMP JUMPDEST DUP1 PUSH4 0xD582F13 EQ PUSH2 0x293 JUMPI DUP1 PUSH4 0x12FB68E0 EQ PUSH2 0x2BB JUMPI DUP1 PUSH4 0x2D9AD53D EQ PUSH2 0x2E3 JUMPI PUSH2 0x230 JUMP JUMPDEST CALLDATASIZE PUSH2 0x230 JUMPI CALLER PUSH20 0xFFFFFFFFFFFFFFFFFFFFFFFFFFFFFFFFFFFFFFFF AND PUSH32 0x3D0CE9BFC3ED7D6862DBB28B2DEA94561FE714A1B4D019AA8AF39730D1AD7C3D CALLVALUE PUSH1 0x40 MLOAD PUSH2 0x226 SWAP2 SWAP1 PUSH2 0x3D4B JUMP JUMPDEST PUSH1 0x40 MLOAD DUP1 SWAP2 SUB SWAP1 LOG2 STOP JUMPDEST CALLVALUE DUP1 ISZERO PUSH2 0x23B JUMPI PUSH0 DUP1 REVERT JUMPDEST POP PUSH0 PUSH32 0x6C9A6C4A39284E37ED1CF53D337577D14212A4870FB976A4366C693B939918D5 PUSH0 SHL SWAP1 POP DUP1 SLOAD DUP1 PUSH2 0x26D JUMPI PUSH0 DUP1 RETURN JUMPDEST CALLDATASIZE PUSH0 DUP1 CALLDATACOPY CALLER PUSH1 0x60 SHL CALLDATASIZE MSTORE PUSH0 DUP1 PUSH1 0x14 CALLDATASIZE ADD PUSH0 DUP1 DUP6 GAS CALL RETURNDATASIZE PUSH0 DUP1 RETURNDATACOPY DUP1 PUSH2 0x28F JUMPI RETURNDATASIZE PUSH0 REVERT JUMPDEST RETURNDATASIZE PUSH0 RETURN JUMPDEST CALLVALUE DUP1 ISZERO PUSH2 0x29E JUMPI PUSH0 DUP1 REVERT JUMPDEST POP PUSH2 0x2B9 PUSH1 0x4 DUP1 CALLDATASIZE SUB DUP2 ADD SWAP1 PUSH2 0x2B4 SWAP2 SWAP1 PUSH2 0x3DF9 JUMP JUMPDEST PUSH2 0x85D JUMP JUMPDEST STOP JUMPDEST CALLVALUE DUP1 ISZERO PUSH2 0x2C6 JUMPI PUSH0 DUP1 REVERT JUMPDEST POP PUSH2 0x2E1 PUSH1 0x4 DUP1 CALLDATASIZE SUB DUP2 ADD SWAP1 PUSH2 0x2DC SWAP2 SWAP1 PUSH2 0x3FA6 JUMP JUMPDEST PUSH2 0xBC8 JUMP JUMPDEST STOP JUMPDEST CALLVALUE DUP1 ISZERO PUSH2 0x2EE JUMPI PUSH0 DUP1 REVERT JUMPDEST POP PUSH2 0x309 PUSH1 0x4 DUP1 CALLDATASIZE SUB DUP2 ADD SWAP1 PUSH2 0x304 SWAP2 SWAP1 PUSH2 0x4042 JUMP JUMPDEST PUSH2 0x119D JUMP JUMPDEST PUSH1 0x40 MLOAD PUSH2 0x316 SWAP2 SWAP1 PUSH2 0x4087 JUMP JUMPDEST PUSH1 0x40 MLOAD DUP1 SWAP2 SUB SWAP1 RETURN JUMPDEST CALLVALUE DUP1 ISZERO PUSH2 0x32A JUMPI PUSH0 DUP1 REVERT JUMPDEST POP PUSH2 0x345 PUSH1 0x4 DUP1 CALLDATASIZE SUB DUP2 ADD SWAP1 PUSH2 0x340 SWAP2 SWAP1 PUSH2 0x4042 JUMP JUMPDEST PUSH2 0x126A JUMP JUMPDEST PUSH1 0x40 MLOAD PUSH2 0x352 SWAP2 SWAP1 PUSH2 0x4087 JUMP JUMPDEST PUSH1 0x40 MLOAD DUP1 SWAP2 SUB SWAP1 RETURN JUMPDEST CALLVALUE DUP1 ISZERO PUSH2 0x366 JUMPI PUSH0 DUP1 REVERT JUMPDEST POP PUSH2 0x36F PUSH2 0x1337 JUMP JUMPDEST PUSH1 0x40 MLOAD PUSH2 0x37C SWAP2 SWAP1 PUSH2 0x3D4B JUMP JUMPDEST PUSH1 0x40 MLOAD DUP1 SWAP2 SUB SWAP1 RETURN JUMPDEST CALLVALUE DUP1 ISZERO PUSH2 0x390 JUMPI PUSH0 DUP1 REVERT JUMPDEST POP PUSH2 0x3AB PUSH1 0x4 DUP1 CALLDATASIZE SUB DUP2 ADD SWAP1 PUSH2 0x3A6 SWAP2 SWAP1 PUSH2 0x40C3 JUMP JUMPDEST PUSH2 0x1343 JUMP JUMPDEST PUSH1 0x40 MLOAD PUSH2 0x3B8 SWAP2 SWAP1 PUSH2 0x4087 JUMP JUMPDEST PUSH1 0x40 MLOAD DUP1 SWAP2 SUB SWAP1 RETURN JUMPDEST CALLVALUE DUP1 ISZERO PUSH2 0x3CC JUMPI PUSH0 DUP1 REVERT JUMPDEST POP PUSH2 0x3E7 PUSH1 0x4 DUP1 CALLDATASIZE SUB DUP2 ADD SWAP1 PUSH2 0x3E2 SWAP2 SWAP1 PUSH2 0x40C3 JUMP JUMPDEST PUSH2 0x14F1 JUMP JUMPDEST PUSH1 0x40 MLOAD PUSH2 0x3F5 SWAP3 SWAP2 SWAP1 PUSH2 0x41BD JUMP JUMPDEST PUSH1 0x40 MLOAD DUP1 SWAP2 SUB SWAP1 RETURN JUMPDEST CALLVALUE DUP1 ISZERO PUSH2 0x409 JUMPI PUSH0 DUP1 REVERT JUMPDEST POP PUSH2 0x424 PUSH1 0x4 DUP1 CALLDATASIZE SUB DUP2 ADD SWAP1 PUSH2 0x41F SWAP2 SWAP1 PUSH2 0x41EB JUMP JUMPDEST PUSH2 0x1525 JUMP JUMPDEST PUSH1 0x40 MLOAD PUSH2 0x431 SWAP2 SWAP1 PUSH2 0x4229 JUMP JUMPDEST PUSH1 0x40 MLOAD DUP1 SWAP2 SUB SWAP1 RETURN JUMPDEST CALLVALUE DUP1 ISZERO PUSH2 0x445 JUMPI PUSH0 DUP1 REVERT JUMPDEST POP PUSH2 0x460 PUSH1 0x4 DUP1 CALLDATASIZE SUB DUP2 ADD SWAP1 PUSH2 0x45B SWAP2 SWAP1 PUSH2 0x4249 JUMP JUMPDEST PUSH2 0x15B5 JUMP JUMPDEST PUSH1 0x40 MLOAD PUSH2 0x46D SWAP2 SWAP1 PUSH2 0x3D4B JUMP JUMPDEST PUSH1 0x40 MLOAD DUP1 SWAP2 SUB SWAP1 RETURN JUMPDEST CALLVALUE DUP1 ISZERO PUSH2 0x481 JUMPI PUSH0 DUP1 REVERT JUMPDEST POP PUSH2 0x49C PUSH1 0x4 DUP1 CALLDATASIZE SUB DUP2 ADD SWAP1 PUSH2 0x497 SWAP2 SWAP1 PUSH2 0x4042 JUMP JUMPDEST PUSH2 0x15CA JUMP JUMPDEST STOP JUMPDEST CALLVALUE DUP1 ISZERO PUSH2 0x4A9 JUMPI PUSH0 DUP1 REVERT JUMPDEST POP PUSH2 0x4C4 PUSH1 0x4 DUP1 CALLDATASIZE SUB DUP2 ADD SWAP1 PUSH2 0x4BF SWAP2 SWAP1 PUSH2 0x4274 JUMP JUMPDEST PUSH2 0x18D2 JUMP JUMPDEST STOP JUMPDEST PUSH2 0x4E0 PUSH1 0x4 DUP1 CALLDATASIZE SUB DUP2 ADD SWAP1 PUSH2 0x4DB SWAP2 SWAP1 PUSH2 0x4337 JUMP JUMPDEST PUSH2 0x19A6 JUMP JUMPDEST PUSH1 0x40 MLOAD PUSH2 0x4ED SWAP2 SWAP1 PUSH2 0x4087 JUMP JUMPDEST PUSH1 0x40 MLOAD DUP1 SWAP2 SUB SWAP1 RETURN JUMPDEST CALLVALUE DUP1 ISZERO PUSH2 0x501 JUMPI PUSH0 DUP1 REVERT JUMPDEST POP PUSH2 0x51C PUSH1 0x4 DUP1 CALLDATASIZE SUB DUP2 ADD SWAP1 PUSH2 0x517 SWAP2 SWAP1 PUSH2 0x444C JUMP JUMPDEST PUSH2 0x1D51 JUMP JUMPDEST PUSH1 0x40 MLOAD PUSH2 0x529 SWAP2 SWAP1 PUSH2 0x3D4B JUMP JUMPDEST PUSH1 0x40 MLOAD DUP1 SWAP2 SUB SWAP1 RETURN JUMPDEST CALLVALUE DUP1 ISZERO PUSH2 0x53D JUMPI PUSH0 DUP1 REVERT JUMPDEST POP PUSH2 0x558 PUSH1 0x4 DUP1 CALLDATASIZE SUB DUP2 ADD SWAP1 PUSH2 0x553 SWAP2 SWAP1 PUSH2 0x448A JUMP JUMPDEST PUSH2 0x1D71 JUMP JUMPDEST STOP JUMPDEST CALLVALUE DUP1 ISZERO PUSH2 0x565 JUMPI PUSH0 DUP1 REVERT JUMPDEST POP PUSH2 0x56E PUSH2 0x1DCB JUMP JUMPDEST PUSH1 0x40 MLOAD PUSH2 0x57B SWAP2 SWAP1 PUSH2 0x45C9 JUMP JUMPDEST PUSH1 0x40 MLOAD DUP1 SWAP2 SUB SWAP1 RETURN JUMPDEST CALLVALUE DUP1 ISZERO PUSH2 0x58F JUMPI PUSH0 DUP1 REVERT JUMPDEST POP PUSH2 0x598 PUSH2 0x1F7B JUMP JUMPDEST PUSH1 0x40 MLOAD PUSH2 0x5A5 SWAP2 SWAP1 PUSH2 0x3D4B JUMP JUMPDEST PUSH1 0x40 MLOAD DUP1 SWAP2 SUB SWAP1 RETURN JUMPDEST CALLVALUE DUP1 ISZERO PUSH2 0x5B9 JUMPI PUSH0 DUP1 REVERT JUMPDEST POP PUSH2 0x5D4 PUSH1 0x4 DUP1 CALLDATASIZE SUB DUP2 ADD SWAP1 PUSH2 0x5CF SWAP2 SWAP1 PUSH2 0x45E9 JUMP JUMPDEST PUSH2 0x1F81 JUMP JUMPDEST STOP JUMPDEST CALLVALUE DUP1 ISZERO PUSH2 0x5E1 JUMPI PUSH0 DUP1 REVERT JUMPDEST POP PUSH2 0x5FC PUSH1 0x4 DUP1 CALLDATASIZE SUB DUP2 ADD SWAP1 PUSH2 0x5F7 SWAP2 SWAP1 PUSH2 0x4698 JUMP JUMPDEST PUSH2 0x1F9F JUMP JUMPDEST STOP JUMPDEST CALLVALUE DUP1 ISZERO PUSH2 0x609 JUMPI PUSH0 DUP1 REVERT JUMPDEST POP PUSH2 0x624 PUSH1 0x4 DUP1 CALLDATASIZE SUB DUP2 ADD SWAP1 PUSH2 0x61F SWAP2 SWAP1 PUSH2 0x4789 JUMP JUMPDEST PUSH2 0x20ED JUMP JUMPDEST PUSH1 0x40 MLOAD PUSH2 0x631 SWAP2 SWAP1 PUSH2 0x3D4B JUMP JUMPDEST PUSH1 0x40 MLOAD DUP1 SWAP2 SUB SWAP1 RETURN JUMPDEST CALLVALUE DUP1 ISZERO PUSH2 0x645 JUMPI PUSH0 DUP1 REVERT JUMPDEST POP PUSH2 0x660 PUSH1 0x4 DUP1 CALLDATASIZE SUB DUP2 ADD SWAP1 PUSH2 0x65B SWAP2 SWAP1 PUSH2 0x3DF9 JUMP JUMPDEST PUSH2 0x21B5 JUMP JUMPDEST PUSH1 0x40 MLOAD PUSH2 0x66E SWAP3 SWAP2 SWAP1 PUSH2 0x481C JUMP JUMPDEST PUSH1 0x40 MLOAD DUP1 SWAP2 SUB SWAP1 RETURN JUMPDEST CALLVALUE DUP1 ISZERO PUSH2 0x682 JUMPI PUSH0 DUP1 REVERT JUMPDEST POP PUSH2 0x69D PUSH1 0x4 DUP1 CALLDATASIZE SUB DUP2 ADD SWAP1 PUSH2 0x698 SWAP2 SWAP1 PUSH2 0x4249 JUMP JUMPDEST PUSH2 0x23AD JUMP JUMPDEST STOP JUMPDEST CALLVALUE DUP1 ISZERO PUSH2 0x6AA JUMPI PUSH0 DUP1 REVERT JUMPDEST POP PUSH2 0x6C5 PUSH1 0x4 DUP1 CALLDATASIZE SUB DUP2 ADD SWAP1 PUSH2 0x6C0 SWAP2 SWAP1 PUSH2 0x484A JUMP JUMPDEST PUSH2 0x2510 JUMP JUMPDEST PUSH1 0x40 MLOAD PUSH2 0x6D2 SWAP2 SWAP1 PUSH2 0x4952 JUMP JUMPDEST PUSH1 0x40 MLOAD DUP1 SWAP2 SUB SWAP1 RETURN JUMPDEST CALLVALUE DUP1 ISZERO PUSH2 0x6E6 JUMPI PUSH0 DUP1 REVERT JUMPDEST POP PUSH2 0x701 PUSH1 0x4 DUP1 CALLDATASIZE SUB DUP2 ADD SWAP1 PUSH2 0x6FC SWAP2 SWAP1 PUSH2 0x496B JUMP JUMPDEST PUSH2 0x253C JUMP JUMPDEST STOP JUMPDEST CALLVALUE DUP1 ISZERO PUSH2 0x70E JUMPI PUSH0 DUP1 REVERT JUMPDEST POP PUSH2 0x729 PUSH1 0x4 DUP1 CALLDATASIZE SUB DUP2 ADD SWAP1 PUSH2 0x724 SWAP2 SWAP1 PUSH2 0x4042 JUMP JUMPDEST PUSH2 0x2843 JUMP JUMPDEST STOP JUMPDEST CALLVALUE DUP1 ISZERO PUSH2 0x736 JUMPI PUSH0 DUP1 REVERT JUMPDEST POP PUSH2 0x751 PUSH1 0x4 DUP1 CALLDATASIZE SUB DUP2 ADD SWAP1 PUSH2 0x74C SWAP2 SWAP1 PUSH2 0x49A9 JUMP JUMPDEST PUSH2 0x28AF JUMP JUMPDEST STOP JUMPDEST CALLVALUE DUP1 ISZERO PUSH2 0x75E JUMPI PUSH0 DUP1 REVERT JUMPDEST POP PUSH2 0x767 PUSH2 0x2E13 JUMP JUMPDEST PUSH1 0x40 MLOAD PUSH2 0x774 SWAP2 SWAP1 PUSH2 0x3D4B JUMP JUMPDEST PUSH1 0x40 MLOAD DUP1 SWAP2 SUB SWAP1 RETURN JUMPDEST CALLVALUE DUP1 ISZERO PUSH2 0x788 JUMPI PUSH0 DUP1 REVERT JUMPDEST POP PUSH2 0x7A3 PUSH1 0x4 DUP1 CALLDATASIZE SUB DUP2 ADD SWAP1 PUSH2 0x79E SWAP2 SWAP1 PUSH2 0x484A JUMP JUMPDEST PUSH2 0x2E1C JUMP JUMPDEST PUSH1 0x40 MLOAD PUSH2 0x7B0 SWAP2 SWAP1 PUSH2 0x4229 JUMP JUMPDEST PUSH1 0x40 MLOAD DUP1 SWAP2 SUB SWAP1 RETURN JUMPDEST CALLVALUE DUP1 ISZERO PUSH2 0x7C4 JUMPI PUSH0 DUP1 REVERT JUMPDEST POP PUSH2 0x7DF PUSH1 0x4 DUP1 CALLDATASIZE SUB DUP2 ADD SWAP1 PUSH2 0x7DA SWAP2 SWAP1 PUSH2 0x4042 JUMP JUMPDEST PUSH2 0x2EDC JUMP JUMPDEST STOP JUMPDEST CALLVALUE DUP1 ISZERO PUSH2 0x7EC JUMPI PUSH0 DUP1 REVERT JUMPDEST POP PUSH2 0x7F5 PUSH2 0x2F27 JUMP JUMPDEST PUSH1 0x40 MLOAD PUSH2 0x802 SWAP2 SWAP1 PUSH2 0x4952 JUMP JUMPDEST PUSH1 0x40 MLOAD DUP1 SWAP2 SUB SWAP1 RETURN JUMPDEST CALLVALUE DUP1 ISZERO PUSH2 0x816 JUMPI PUSH0 DUP1 REVERT JUMPDEST POP PUSH2 0x831 PUSH1 0x4 DUP1 CALLDATASIZE SUB DUP2 ADD SWAP1 PUSH2 0x82C SWAP2 SWAP1 PUSH2 0x49F9 JUMP JUMPDEST PUSH2 0x2F81 JUMP JUMPDEST STOP JUMPDEST CALLVALUE DUP1 ISZERO PUSH2 0x83E JUMPI PUSH0 DUP1 REVERT JUMPDEST POP PUSH2 0x847 PUSH2 0x3304 JUMP JUMPDEST PUSH1 0x40 MLOAD PUSH2 0x854 SWAP2 SWAP1 PUSH2 0x4A9B JUMP JUMPDEST PUSH1 0x40 MLOAD DUP1 SWAP2 SUB SWAP1 RETURN JUMPDEST PUSH2 0x865 PUSH2 0x333D JUMP JUMPDEST PUSH0 PUSH20 0xFFFFFFFFFFFFFFFFFFFFFFFFFFFFFFFFFFFFFFFF AND DUP3 PUSH20 0xFFFFFFFFFFFFFFFFFFFFFFFFFFFFFFFFFFFFFFFF AND EQ ISZERO DUP1 ISZERO PUSH2 0x8CE JUMPI POP PUSH1 0x1 PUSH20 0xFFFFFFFFFFFFFFFFFFFFFFFFFFFFFFFFFFFFFFFF AND DUP3 PUSH20 0xFFFFFFFFFFFFFFFFFFFFFFFFFFFFFFFFFFFFFFFF AND EQ ISZERO JUMPDEST DUP1 ISZERO PUSH2 0x906 JUMPI POP ADDRESS PUSH20 0xFFFFFFFFFFFFFFFFFFFFFFFFFFFFFFFFFFFFFFFF AND DUP3 PUSH20 0xFFFFFFFFFFFFFFFFFFFFFFFFFFFFFFFFFFFFFFFF AND EQ ISZERO JUMPDEST PUSH2 0x945 JUMPI PUSH1 0x40 MLOAD PUSH32 0x8C379A000000000000000000000000000000000000000000000000000000000 DUP2 MSTORE PUSH1 0x4 ADD PUSH2 0x93C SWAP1 PUSH2 0x4B05 JUMP JUMPDEST PUSH1 0x40 MLOAD DUP1 SWAP2 SUB SWAP1 REVERT JUMPDEST PUSH0 PUSH20 0xFFFFFFFFFFFFFFFFFFFFFFFFFFFFFFFFFFFFFFFF AND PUSH1 0x2 PUSH0 DUP5 PUSH20 0xFFFFFFFFFFFFFFFFFFFFFFFFFFFFFFFFFFFFFFFF AND PUSH20 0xFFFFFFFFFFFFFFFFFFFFFFFFFFFFFFFFFFFFFFFF AND DUP2 MSTORE PUSH1 0x20 ADD SWAP1 DUP2 MSTORE PUSH1 0x20 ADD PUSH0 KECCAK256 PUSH0 SWAP1 SLOAD SWAP1 PUSH2 0x100 EXP SWAP1 DIV PUSH20 0xFFFFFFFFFFFFFFFFFFFFFFFFFFFFFFFFFFFFFFFF AND PUSH20 0xFFFFFFFFFFFFFFFFFFFFFFFFFFFFFFFFFFFFFFFF AND EQ PUSH2 0xA0F JUMPI PUSH1 0x40 MLOAD PUSH32 0x8C379A000000000000000000000000000000000000000000000000000000000 DUP2 MSTORE PUSH1 0x4 ADD PUSH2 0xA06 SWAP1 PUSH2 0x4B6D JUMP JUMPDEST PUSH1 0x40 MLOAD DUP1 SWAP2 SUB SWAP1 REVERT JUMPDEST PUSH1 0x2 PUSH0 PUSH1 0x1 PUSH20 0xFFFFFFFFFFFFFFFFFFFFFFFFFFFFFFFFFFFFFFFF AND PUSH20 0xFFFFFFFFFFFFFFFFFFFFFFFFFFFFFFFFFFFFFFFF AND DUP2 MSTORE PUSH1 0x20 ADD SWAP1 DUP2 MSTORE PUSH1 0x20 ADD PUSH0 KECCAK256 PUSH0 SWAP1 SLOAD SWAP1 PUSH2 0x100 EXP SWAP1 DIV PUSH20 0xFFFFFFFFFFFFFFFFFFFFFFFFFFFFFFFFFFFFFFFF AND PUSH1 0x2 PUSH0 DUP5 PUSH20 0xFFFFFFFFFFFFFFFFFFFFFFFFFFFFFFFFFFFFFFFF AND PUSH20 0xFFFFFFFFFFFFFFFFFFFFFFFFFFFFFFFFFFFFFFFF AND DUP2 MSTORE PUSH1 0x20 ADD SWAP1 DUP2 MSTORE PUSH1 0x20 ADD PUSH0 KECCAK256 PUSH0 PUSH2 0x100 EXP DUP2 SLOAD DUP2 PUSH20 0xFFFFFFFFFFFFFFFFFFFFFFFFFFFFFFFFFFFFFFFF MUL NOT AND SWAP1 DUP4 PUSH20 0xFFFFFFFFFFFFFFFFFFFFFFFFFFFFFFFFFFFFFFFF AND MUL OR SWAP1 SSTORE POP DUP2 PUSH1 0x2 PUSH0 PUSH1 0x1 PUSH20 0xFFFFFFFFFFFFFFFFFFFFFFFFFFFFFFFFFFFFFFFF AND PUSH20 0xFFFFFFFFFFFFFFFFFFFFFFFFFFFFFFFFFFFFFFFF AND DUP2 MSTORE PUSH1 0x20 ADD SWAP1 DUP2 MSTORE PUSH1 0x20 ADD PUSH0 KECCAK256 PUSH0 PUSH2 0x100 EXP DUP2 SLOAD DUP2 PUSH20 0xFFFFFFFFFFFFFFFFFFFFFFFFFFFFFFFFFFFFFFFF MUL NOT AND SWAP1 DUP4 PUSH20 0xFFFFFFFFFFFFFFFFFFFFFFFFFFFFFFFFFFFFFFFF AND MUL OR SWAP1 SSTORE POP PUSH1 0x3 PUSH0 DUP2 SLOAD DUP1 SWAP3 SWAP2 SWAP1 PUSH2 0xB75 SWAP1 PUSH2 0x4BB8 JUMP JUMPDEST SWAP2 SWAP1 POP SSTORE POP PUSH32 0x9465FA0C962CC76958E6373A993326400C1C94F8BE2FE3A952ADFA7F60B2EA26 DUP3 PUSH1 0x40 MLOAD PUSH2 0xBA9 SWAP2 SWAP1 PUSH2 0x4BFF JUMP JUMPDEST PUSH1 0x40 MLOAD DUP1 SWAP2 SUB SWAP1 LOG1 DUP1 PUSH1 0x4 SLOAD EQ PUSH2 0xBC4 JUMPI PUSH2 0xBC3 DUP2 PUSH2 0x18D2 JUMP JUMPDEST JUMPDEST POP POP JUMP JUMPDEST PUSH2 0xBDC PUSH1 0x41 DUP3 PUSH2 0x33AD SWAP1 SWAP2 SWAP1 PUSH4 0xFFFFFFFF AND JUMP JUMPDEST DUP3 MLOAD LT ISZERO PUSH2 0xC1F JUMPI PUSH1 0x40 MLOAD PUSH32 0x8C379A000000000000000000000000000000000000000000000000000000000 DUP2 MSTORE PUSH1 0x4 ADD PUSH2 0xC16 SWAP1 PUSH2 0x4C62 JUMP JUMPDEST PUSH1 0x40 MLOAD DUP1 SWAP2 SUB SWAP1 REVERT JUMPDEST PUSH0 DUP1 DUP1 PUSH0 DUP1 PUSH0 JUMPDEST DUP7 DUP2 LT ISZERO PUSH2 0x1191 JUMPI PUSH2 0xC38 DUP9 DUP3 PUSH2 0x33ED JUMP JUMPDEST DUP1 SWAP5 POP DUP2 SWAP6 POP DUP3 SWAP7 POP POP POP POP PUSH0 DUP5 PUSH1 0xFF AND SUB PUSH2 0xE8A JUMPI DUP3 PUSH0 SHR SWAP5 POP PUSH2 0xC67 PUSH1 0x41 DUP9 PUSH2 0x33AD SWAP1 SWAP2 SWAP1 PUSH4 0xFFFFFFFF AND JUMP JUMPDEST DUP3 PUSH0 SHR LT ISZERO PUSH2 0xCAB JUMPI PUSH1 0x40 MLOAD PUSH32 0x8C379A000000000000000000000000000000000000000000000000000000000 DUP2 MSTORE PUSH1 0x4 ADD PUSH2 0xCA2 SWAP1 PUSH2 0x4CCA JUMP JUMPDEST PUSH1 0x40 MLOAD DUP1 SWAP2 SUB SWAP1 REVERT JUMPDEST DUP8 MLOAD PUSH2 0xCC3 PUSH1 0x20 DUP5 PUSH0 SHR PUSH2 0x341A SWAP1 SWAP2 SWAP1 PUSH4 0xFFFFFFFF AND JUMP JUMPDEST GT ISZERO PUSH2 0xD04 JUMPI PUSH1 0x40 MLOAD PUSH32 0x8C379A000000000000000000000000000000000000000000000000000000000 DUP2 MSTORE PUSH1 0x4 ADD PUSH2 0xCFB SWAP1 PUSH2 0x4D32 JUMP JUMPDEST PUSH1 0x40 MLOAD DUP1 SWAP2 SUB SWAP1 REVERT JUMPDEST PUSH0 PUSH1 0x20 DUP4 DUP11 ADD ADD MLOAD SWAP1 POP DUP9 MLOAD PUSH2 0xD38 DUP3 PUSH2 0xD2A PUSH1 0x20 DUP8 PUSH0 SHR PUSH2 0x341A SWAP1 SWAP2 SWAP1 PUSH4 0xFFFFFFFF AND JUMP JUMPDEST PUSH2 0x341A SWAP1 SWAP2 SWAP1 PUSH4 0xFFFFFFFF AND JUMP JUMPDEST GT ISZERO PUSH2 0xD79 JUMPI PUSH1 0x40 MLOAD PUSH32 0x8C379A000000000000000000000000000000000000000000000000000000000 DUP2 MSTORE PUSH1 0x4 ADD PUSH2 0xD70 SWAP1 PUSH2 0x4D9A JUMP JUMPDEST PUSH1 0x40 MLOAD DUP1 SWAP2 SUB SWAP1 REVERT JUMPDEST PUSH1 0x60 PUSH1 0x20 DUP5 DUP12 ADD ADD SWAP1 POP PUSH4 0x20C13B0B PUSH1 0xE0 SHL PUSH28 0xFFFFFFFFFFFFFFFFFFFFFFFFFFFFFFFFFFFFFFFFFFFFFFFFFFFFFFFF NOT AND DUP8 PUSH20 0xFFFFFFFFFFFFFFFFFFFFFFFFFFFFFFFFFFFFFFFF AND PUSH4 0x20C13B0B DUP14 DUP5 PUSH1 0x40 MLOAD DUP4 PUSH4 0xFFFFFFFF AND PUSH1 0xE0 SHL DUP2 MSTORE PUSH1 0x4 ADD PUSH2 0xDE5 SWAP3 SWAP2 SWAP1 PUSH2 0x4DB8 JUMP JUMPDEST PUSH1 0x20 PUSH1 0x40 MLOAD DUP1 DUP4 SUB DUP2 DUP7 GAS STATICCALL ISZERO DUP1 ISZERO PUSH2 0xE00 JUMPI RETURNDATASIZE PUSH0 DUP1 RETURNDATACOPY RETURNDATASIZE PUSH0 REVERT JUMPDEST POP POP POP POP PUSH1 0x40 MLOAD RETURNDATASIZE PUSH1 0x1F NOT PUSH1 0x1F DUP3 ADD AND DUP3 ADD DUP1 PUSH1 0x40 MSTORE POP DUP2 ADD SWAP1 PUSH2 0xE24 SWAP2 SWAP1 PUSH2 0x4E42 JUMP JUMPDEST PUSH28 0xFFFFFFFFFFFFFFFFFFFFFFFFFFFFFFFFFFFFFFFFFFFFFFFFFFFFFFFF NOT AND EQ PUSH2 0xE83 JUMPI PUSH1 0x40 MLOAD PUSH32 0x8C379A000000000000000000000000000000000000000000000000000000000 DUP2 MSTORE PUSH1 0x4 ADD PUSH2 0xE7A SWAP1 PUSH2 0x4EB7 JUMP JUMPDEST PUSH1 0x40 MLOAD DUP1 SWAP2 SUB SWAP1 REVERT JUMPDEST POP POP PUSH2 0x1046 JUMP JUMPDEST PUSH1 0x1 DUP5 PUSH1 0xFF AND SUB PUSH2 0xF64 JUMPI DUP3 PUSH0 SHR SWAP5 POP DUP5 PUSH20 0xFFFFFFFFFFFFFFFFFFFFFFFFFFFFFFFFFFFFFFFF AND CALLER PUSH20 0xFFFFFFFFFFFFFFFFFFFFFFFFFFFFFFFFFFFFFFFF AND EQ DUP1 PUSH2 0xF20 JUMPI POP PUSH0 PUSH1 0x8 PUSH0 DUP8 PUSH20 0xFFFFFFFFFFFFFFFFFFFFFFFFFFFFFFFFFFFFFFFF AND PUSH20 0xFFFFFFFFFFFFFFFFFFFFFFFFFFFFFFFFFFFFFFFF AND DUP2 MSTORE PUSH1 0x20 ADD SWAP1 DUP2 MSTORE PUSH1 0x20 ADD PUSH0 KECCAK256 PUSH0 DUP13 DUP2 MSTORE PUSH1 0x20 ADD SWAP1 DUP2 MSTORE PUSH1 0x20 ADD PUSH0 KECCAK256 SLOAD EQ ISZERO JUMPDEST PUSH2 0xF5F JUMPI PUSH1 0x40 MLOAD PUSH32 0x8C379A000000000000000000000000000000000000000000000000000000000 DUP2 MSTORE PUSH1 0x4 ADD PUSH2 0xF56 SWAP1 PUSH2 0x4F1F JUMP JUMPDEST PUSH1 0x40 MLOAD DUP1 SWAP2 SUB SWAP1 REVERT JUMPDEST PUSH2 0x1045 JUMP JUMPDEST PUSH1 0x1E DUP5 PUSH1 0xFF AND GT ISZERO PUSH2 0xFF5 JUMPI PUSH1 0x1 DUP11 PUSH1 0x40 MLOAD PUSH1 0x20 ADD PUSH2 0xF83 SWAP2 SWAP1 PUSH2 0x4FB1 JUMP JUMPDEST PUSH1 0x40 MLOAD PUSH1 0x20 DUP2 DUP4 SUB SUB DUP2 MSTORE SWAP1 PUSH1 0x40 MSTORE DUP1 MLOAD SWAP1 PUSH1 0x20 ADD KECCAK256 PUSH1 0x4 DUP7 PUSH2 0xFA6 SWAP2 SWAP1 PUSH2 0x4FE2 JUMP JUMPDEST DUP6 DUP6 PUSH1 0x40 MLOAD PUSH0 DUP2 MSTORE PUSH1 0x20 ADD PUSH1 0x40 MSTORE PUSH1 0x40 MLOAD PUSH2 0xFC4 SWAP5 SWAP4 SWAP3 SWAP2 SWAP1 PUSH2 0x5025 JUMP JUMPDEST PUSH1 0x20 PUSH1 0x40 MLOAD PUSH1 0x20 DUP2 SUB SWAP1 DUP1 DUP5 SUB SWAP1 DUP6 GAS STATICCALL ISZERO DUP1 ISZERO PUSH2 0xFE4 JUMPI RETURNDATASIZE PUSH0 DUP1 RETURNDATACOPY RETURNDATASIZE PUSH0 REVERT JUMPDEST POP POP POP PUSH1 0x20 PUSH1 0x40 MLOAD SUB MLOAD SWAP5 POP PUSH2 0x1044 JUMP JUMPDEST PUSH1 0x1 DUP11 DUP6 DUP6 DUP6 PUSH1 0x40 MLOAD PUSH0 DUP2 MSTORE PUSH1 0x20 ADD PUSH1 0x40 MSTORE PUSH1 0x40 MLOAD PUSH2 0x1017 SWAP5 SWAP4 SWAP3 SWAP2 SWAP1 PUSH2 0x5025 JUMP JUMPDEST PUSH1 0x20 PUSH1 0x40 MLOAD PUSH1 0x20 DUP2 SUB SWAP1 DUP1 DUP5 SUB SWAP1 DUP6 GAS STATICCALL ISZERO DUP1 ISZERO PUSH2 0x1037 JUMPI RETURNDATASIZE PUSH0 DUP1 RETURNDATACOPY RETURNDATASIZE PUSH0 REVERT JUMPDEST POP POP POP PUSH1 0x20 PUSH1 0x40 MLOAD SUB MLOAD SWAP5 POP JUMPDEST JUMPDEST JUMPDEST DUP6 PUSH20 0xFFFFFFFFFFFFFFFFFFFFFFFFFFFFFFFFFFFFFFFF AND DUP6 PUSH20 0xFFFFFFFFFFFFFFFFFFFFFFFFFFFFFFFFFFFFFFFF AND GT DUP1 ISZERO PUSH2 0x1109 JUMPI POP PUSH0 PUSH20 0xFFFFFFFFFFFFFFFFFFFFFFFFFFFFFFFFFFFFFFFF AND PUSH1 0x2 PUSH0 DUP8 PUSH20 0xFFFFFFFFFFFFFFFFFFFFFFFFFFFFFFFFFFFFFFFF AND PUSH20 0xFFFFFFFFFFFFFFFFFFFFFFFFFFFFFFFFFFFFFFFF AND DUP2 MSTORE PUSH1 0x20 ADD SWAP1 DUP2 MSTORE PUSH1 0x20 ADD PUSH0 KECCAK256 PUSH0 SWAP1 SLOAD SWAP1 PUSH2 0x100 EXP SWAP1 DIV PUSH20 0xFFFFFFFFFFFFFFFFFFFFFFFFFFFFFFFFFFFFFFFF AND PUSH20 0xFFFFFFFFFFFFFFFFFFFFFFFFFFFFFFFFFFFFFFFF AND EQ ISZERO JUMPDEST DUP1 ISZERO PUSH2 0x1142 JUMPI POP PUSH1 0x1 PUSH20 0xFFFFFFFFFFFFFFFFFFFFFFFFFFFFFFFFFFFFFFFF AND DUP6 PUSH20 0xFFFFFFFFFFFFFFFFFFFFFFFFFFFFFFFFFFFFFFFF AND EQ ISZERO JUMPDEST PUSH2 0x1181 JUMPI PUSH1 0x40 MLOAD PUSH32 0x8C379A000000000000000000000000000000000000000000000000000000000 DUP2 MSTORE PUSH1 0x4 ADD PUSH2 0x1178 SWAP1 PUSH2 0x50B2 JUMP JUMPDEST PUSH1 0x40 MLOAD DUP1 SWAP2 SUB SWAP1 REVERT JUMPDEST DUP5 SWAP6 POP DUP1 DUP1 PUSH1 0x1 ADD SWAP2 POP POP PUSH2 0xC26 JUMP JUMPDEST POP POP POP POP POP POP POP POP POP POP JUMP JUMPDEST PUSH0 DUP2 PUSH20 0xFFFFFFFFFFFFFFFFFFFFFFFFFFFFFFFFFFFFFFFF AND PUSH1 0x1 PUSH20 0xFFFFFFFFFFFFFFFFFFFFFFFFFFFFFFFFFFFFFFFF AND EQ ISZERO DUP1 ISZERO PUSH2 0x1263 JUMPI POP PUSH0 PUSH20 0xFFFFFFFFFFFFFFFFFFFFFFFFFFFFFFFFFFFFFFFF AND PUSH1 0x1 PUSH0 DUP5 PUSH20 0xFFFFFFFFFFFFFFFFFFFFFFFFFFFFFFFFFFFFFFFF AND PUSH20 0xFFFFFFFFFFFFFFFFFFFFFFFFFFFFFFFFFFFFFFFF AND DUP2 MSTORE PUSH1 0x20 ADD SWAP1 DUP2 MSTORE PUSH1 0x20 ADD PUSH0 KECCAK256 PUSH0 SWAP1 SLOAD SWAP1 PUSH2 0x100 EXP SWAP1 DIV PUSH20 0xFFFFFFFFFFFFFFFFFFFFFFFFFFFFFFFFFFFFFFFF AND PUSH20 0xFFFFFFFFFFFFFFFFFFFFFFFFFFFFFFFFFFFFFFFF AND EQ ISZERO JUMPDEST SWAP1 POP SWAP2 SWAP1 POP JUMP JUMPDEST PUSH0 PUSH1 0x1 PUSH20 0xFFFFFFFFFFFFFFFFFFFFFFFFFFFFFFFFFFFFFFFF AND DUP3 PUSH20 0xFFFFFFFFFFFFFFFFFFFFFFFFFFFFFFFFFFFFFFFF AND EQ ISZERO DUP1 ISZERO PUSH2 0x1330 JUMPI POP PUSH0 PUSH20 0xFFFFFFFFFFFFFFFFFFFFFFFFFFFFFFFFFFFFFFFF AND PUSH1 0x2 PUSH0 DUP5 PUSH20 0xFFFFFFFFFFFFFFFFFFFFFFFFFFFFFFFFFFFFFFFF AND PUSH20 0xFFFFFFFFFFFFFFFFFFFFFFFFFFFFFFFFFFFFFFFF AND DUP2 MSTORE PUSH1 0x20 ADD SWAP1 DUP2 MSTORE PUSH1 0x20 ADD PUSH0 KECCAK256 PUSH0 SWAP1 SLOAD SWAP1 PUSH2 0x100 EXP SWAP1 DIV PUSH20 0xFFFFFFFFFFFFFFFFFFFFFFFFFFFFFFFFFFFFFFFF AND PUSH20 0xFFFFFFFFFFFFFFFFFFFFFFFFFFFFFFFFFFFFFFFF AND EQ ISZERO JUMPDEST SWAP1 POP SWAP2 SWAP1 POP JUMP JUMPDEST PUSH0 DUP1 CHAINID SWAP1 POP DUP1 SWAP2 POP POP SWAP1 JUMP JUMPDEST PUSH0 PUSH1 0x1 PUSH20 0xFFFFFFFFFFFFFFFFFFFFFFFFFFFFFFFFFFFFFFFF AND CALLER PUSH20 0xFFFFFFFFFFFFFFFFFFFFFFFFFFFFFFFFFFFFFFFF AND EQ ISZERO DUP1 ISZERO PUSH2 0x1409 JUMPI POP PUSH0 PUSH20 0xFFFFFFFFFFFFFFFFFFFFFFFFFFFFFFFFFFFFFFFF AND PUSH1 0x1 PUSH0 CALLER PUSH20 0xFFFFFFFFFFFFFFFFFFFFFFFFFFFFFFFFFFFFFFFF AND PUSH20 0xFFFFFFFFFFFFFFFFFFFFFFFFFFFFFFFFFFFFFFFF AND DUP2 MSTORE PUSH1 0x20 ADD SWAP1 DUP2 MSTORE PUSH1 0x20 ADD PUSH0 KECCAK256 PUSH0 SWAP1 SLOAD SWAP1 PUSH2 0x100 EXP SWAP1 DIV PUSH20 0xFFFFFFFFFFFFFFFFFFFFFFFFFFFFFFFFFFFFFFFF AND PUSH20 0xFFFFFFFFFFFFFFFFFFFFFFFFFFFFFFFFFFFFFFFF AND EQ ISZERO JUMPDEST PUSH2 0x1448 JUMPI PUSH1 0x40 MLOAD PUSH32 0x8C379A000000000000000000000000000000000000000000000000000000000 DUP2 MSTORE PUSH1 0x4 ADD PUSH2 0x143F SWAP1 PUSH2 0x511A JUMP JUMPDEST PUSH1 0x40 MLOAD DUP1 SWAP2 SUB SWAP1 REVERT JUMPDEST PUSH2 0x1455 DUP6 DUP6 DUP6 DUP6 GAS PUSH2 0x3440 JUMP JUMPDEST SWAP1 POP DUP1 ISZERO PUSH2 0x14A5 JUMPI CALLER PUSH20 0xFFFFFFFFFFFFFFFFFFFFFFFFFFFFFFFFFFFFFFFF AND PUSH32 0x6895C13664AA4F67288B25D7A21D7AAA34916E355FB9B6FAE0A139A9085BECB8 PUSH1 0x40 MLOAD PUSH1 0x40 MLOAD DUP1 SWAP2 SUB SWAP1 LOG2 PUSH2 0x14E9 JUMP JUMPDEST CALLER PUSH20 0xFFFFFFFFFFFFFFFFFFFFFFFFFFFFFFFFFFFFFFFF AND PUSH32 0xACD2C8702804128FDB0DB2BB49F6D127DD0181C13FD45DBFE16DE0930E2BD375 PUSH1 0x40 MLOAD PUSH1 0x40 MLOAD DUP1 SWAP2 SUB SWAP1 LOG2 JUMPDEST SWAP5 SWAP4 POP POP POP POP JUMP JUMPDEST PUSH0 PUSH1 0x60 PUSH2 0x1500 DUP7 DUP7 DUP7 DUP7 PUSH2 0x1343 JUMP JUMPDEST SWAP2 POP PUSH1 0x40 MLOAD PUSH1 0x20 RETURNDATASIZE ADD DUP2 ADD PUSH1 0x40 MSTORE RETURNDATASIZE DUP2 MSTORE RETURNDATASIZE PUSH0 PUSH1 0x20 DUP4 ADD RETURNDATACOPY DUP1 SWAP2 POP POP SWAP5 POP SWAP5 SWAP3 POP POP POP JUMP JUMPDEST PUSH1 0x60 PUSH0 PUSH1 0x20 DUP4 PUSH2 0x1535 SWAP2 SWAP1 PUSH2 0x5138 JUMP JUMPDEST PUSH8 0xFFFFFFFFFFFFFFFF DUP2 GT ISZERO PUSH2 0x154E JUMPI PUSH2 0x154D PUSH2 0x3E82 JUMP JUMPDEST JUMPDEST PUSH1 0x40 MLOAD SWAP1 DUP1 DUP3 MSTORE DUP1 PUSH1 0x1F ADD PUSH1 0x1F NOT AND PUSH1 0x20 ADD DUP3 ADD PUSH1 0x40 MSTORE DUP1 ISZERO PUSH2 0x1580 JUMPI DUP2 PUSH1 0x20 ADD PUSH1 0x1 DUP3 MUL DUP1 CALLDATASIZE DUP4 CALLDATACOPY DUP1 DUP3 ADD SWAP2 POP POP SWAP1 POP JUMPDEST POP SWAP1 POP PUSH0 JUMPDEST DUP4 DUP2 LT ISZERO PUSH2 0x15AA JUMPI DUP1 DUP6 ADD SLOAD DUP1 PUSH1 0x20 DUP4 MUL PUSH1 0x20 DUP6 ADD ADD MSTORE POP DUP1 DUP1 PUSH1 0x1 ADD SWAP2 POP POP PUSH2 0x1585 JUMP JUMPDEST POP DUP1 SWAP2 POP POP SWAP3 SWAP2 POP POP JUMP JUMPDEST PUSH1 0x7 PUSH1 0x20 MSTORE DUP1 PUSH0 MSTORE PUSH1 0x40 PUSH0 KECCAK256 PUSH0 SWAP2 POP SWAP1 POP SLOAD DUP2 JUMP JUMPDEST PUSH2 0x15D2 PUSH2 0x333D JUMP JUMPDEST PUSH0 PUSH20 0xFFFFFFFFFFFFFFFFFFFFFFFFFFFFFFFFFFFFFFFF AND DUP2 PUSH20 0xFFFFFFFFFFFFFFFFFFFFFFFFFFFFFFFFFFFFFFFF AND EQ ISZERO DUP1 ISZERO PUSH2 0x163B JUMPI POP PUSH1 0x1 PUSH20 0xFFFFFFFFFFFFFFFFFFFFFFFFFFFFFFFFFFFFFFFF AND DUP2 PUSH20 0xFFFFFFFFFFFFFFFFFFFFFFFFFFFFFFFFFFFFFFFF AND EQ ISZERO JUMPDEST PUSH2 0x167A JUMPI PUSH1 0x40 MLOAD PUSH32 0x8C379A000000000000000000000000000000000000000000000000000000000 DUP2 MSTORE PUSH1 0x4 ADD PUSH2 0x1671 SWAP1 PUSH2 0x51C3 JUMP JUMPDEST PUSH1 0x40 MLOAD DUP1 SWAP2 SUB SWAP1 REVERT JUMPDEST PUSH0 PUSH20 0xFFFFFFFFFFFFFFFFFFFFFFFFFFFFFFFFFFFFFFFF AND PUSH1 0x1 PUSH0 DUP4 PUSH20 0xFFFFFFFFFFFFFFFFFFFFFFFFFFFFFFFFFFFFFFFF AND PUSH20 0xFFFFFFFFFFFFFFFFFFFFFFFFFFFFFFFFFFFFFFFF AND DUP2 MSTORE PUSH1 0x20 ADD SWAP1 DUP2 MSTORE PUSH1 0x20 ADD PUSH0 KECCAK256 PUSH0 SWAP1 SLOAD SWAP1 PUSH2 0x100 EXP SWAP1 DIV PUSH20 0xFFFFFFFFFFFFFFFFFFFFFFFFFFFFFFFFFFFFFFFF AND PUSH20 0xFFFFFFFFFFFFFFFFFFFFFFFFFFFFFFFFFFFFFFFF AND EQ PUSH2 0x1744 JUMPI PUSH1 0x40 MLOAD PUSH32 0x8C379A000000000000000000000000000000000000000000000000000000000 DUP2 MSTORE PUSH1 0x4 ADD PUSH2 0x173B SWAP1 PUSH2 0x522B JUMP JUMPDEST PUSH1 0x40 MLOAD DUP1 SWAP2 SUB SWAP1 REVERT JUMPDEST PUSH1 0x1 PUSH0 PUSH1 0x1 PUSH20 0xFFFFFFFFFFFFFFFFFFFFFFFFFFFFFFFFFFFFFFFF AND PUSH20 0xFFFFFFFFFFFFFFFFFFFFFFFFFFFFFFFFFFFFFFFF AND DUP2 MSTORE PUSH1 0x20 ADD SWAP1 DUP2 MSTORE PUSH1 0x20 ADD PUSH0 KECCAK256 PUSH0 SWAP1 SLOAD SWAP1 PUSH2 0x100 EXP SWAP1 DIV PUSH20 0xFFFFFFFFFFFFFFFFFFFFFFFFFFFFFFFFFFFFFFFF AND PUSH1 0x1 PUSH0 DUP4 PUSH20 0xFFFFFFFFFFFFFFFFFFFFFFFFFFFFFFFFFFFFFFFF AND PUSH20 0xFFFFFFFFFFFFFFFFFFFFFFFFFFFFFFFFFFFFFFFF AND DUP2 MSTORE PUSH1 0x20 ADD SWAP1 DUP2 MSTORE PUSH1 0x20 ADD PUSH0 KECCAK256 PUSH0 PUSH2 0x100 EXP DUP2 SLOAD DUP2 PUSH20 0xFFFFFFFFFFFFFFFFFFFFFFFFFFFFFFFFFFFFFFFF MUL NOT AND SWAP1 DUP4 PUSH20 0xFFFFFFFFFFFFFFFFFFFFFFFFFFFFFFFFFFFFFFFF AND MUL OR SWAP1 SSTORE POP DUP1 PUSH1 0x1 PUSH0 PUSH1 0x1 PUSH20 0xFFFFFFFFFFFFFFFFFFFFFFFFFFFFFFFFFFFFFFFF AND PUSH20 0xFFFFFFFFFFFFFFFFFFFFFFFFFFFFFFFFFFFFFFFF AND DUP2 MSTORE PUSH1 0x20 ADD SWAP1 DUP2 MSTORE PUSH1 0x20 ADD PUSH0 KECCAK256 PUSH0 PUSH2 0x100 EXP DUP2 SLOAD DUP2 PUSH20 0xFFFFFFFFFFFFFFFFFFFFFFFFFFFFFFFFFFFFFFFF MUL NOT AND SWAP1 DUP4 PUSH20 0xFFFFFFFFFFFFFFFFFFFFFFFFFFFFFFFFFFFFFFFF AND MUL OR SWAP1 SSTORE POP PUSH32 0xECDF3A3EFFEA5783A3C4C2140E677577666428D44ED9D474A0B3A4C9943F8440 DUP2 PUSH1 0x40 MLOAD PUSH2 0x18C7 SWAP2 SWAP1 PUSH2 0x4BFF JUMP JUMPDEST PUSH1 0x40 MLOAD DUP1 SWAP2 SUB SWAP1 LOG1 POP JUMP JUMPDEST PUSH2 0x18DA PUSH2 0x333D JUMP JUMPDEST PUSH1 0x3 SLOAD DUP2 GT ISZERO PUSH2 0x191F JUMPI PUSH1 0x40 MLOAD PUSH32 0x8C379A000000000000000000000000000000000000000000000000000000000 DUP2 MSTORE PUSH1 0x4 ADD PUSH2 0x1916 SWAP1 PUSH2 0x5293 JUMP JUMPDEST PUSH1 0x40 MLOAD DUP1 SWAP2 SUB SWAP1 REVERT JUMPDEST PUSH1 0x1 DUP2 LT ISZERO PUSH2 0x1963 JUMPI PUSH1 0x40 MLOAD PUSH32 0x8C379A000000000000000000000000000000000000000000000000000000000 DUP2 MSTORE PUSH1 0x4 ADD PUSH2 0x195A SWAP1 PUSH2 0x52FB JUMP JUMPDEST PUSH1 0x40 MLOAD DUP1 SWAP2 SUB SWAP1 REVERT JUMPDEST DUP1 PUSH1 0x4 DUP2 SWAP1 SSTORE POP PUSH32 0x610F7FF2B304AE8903C3DE74C60C6AB1F7D6226B3F52C5161905BB5AD4039C93 PUSH1 0x4 SLOAD PUSH1 0x40 MLOAD PUSH2 0x199B SWAP2 SWAP1 PUSH2 0x3D4B JUMP JUMPDEST PUSH1 0x40 MLOAD DUP1 SWAP2 SUB SWAP1 LOG1 POP JUMP JUMPDEST PUSH0 DUP1 PUSH0 PUSH2 0x19BE DUP15 DUP15 DUP15 DUP15 DUP15 DUP15 DUP15 DUP15 DUP15 DUP15 PUSH1 0x5 SLOAD PUSH2 0x2E1C JUMP JUMPDEST SWAP1 POP PUSH1 0x5 PUSH0 DUP2 SLOAD DUP1 SWAP3 SWAP2 SWAP1 PUSH2 0x19D2 SWAP1 PUSH2 0x4BB8 JUMP JUMPDEST SWAP2 SWAP1 POP SSTORE POP DUP1 DUP1 MLOAD SWAP1 PUSH1 0x20 ADD KECCAK256 SWAP2 POP PUSH2 0x19EC DUP3 DUP3 DUP7 PUSH2 0x1D71 JUMP JUMPDEST POP PUSH0 PUSH2 0x19F6 PUSH2 0x3496 JUMP JUMPDEST SWAP1 POP PUSH0 PUSH20 0xFFFFFFFFFFFFFFFFFFFFFFFFFFFFFFFFFFFFFFFF AND DUP2 PUSH20 0xFFFFFFFFFFFFFFFFFFFFFFFFFFFFFFFFFFFFFFFF AND EQ PUSH2 0x1AA8 JUMPI DUP1 PUSH20 0xFFFFFFFFFFFFFFFFFFFFFFFFFFFFFFFFFFFFFFFF AND PUSH4 0x75F0BB52 DUP16 DUP16 DUP16 DUP16 DUP16 DUP16 DUP16 DUP16 DUP16 DUP16 DUP16 CALLER PUSH1 0x40 MLOAD DUP14 PUSH4 0xFFFFFFFF AND PUSH1 0xE0 SHL DUP2 MSTORE PUSH1 0x4 ADD PUSH2 0x1A7A SWAP13 SWAP12 SWAP11 SWAP10 SWAP9 SWAP8 SWAP7 SWAP6 SWAP5 SWAP4 SWAP3 SWAP2 SWAP1 PUSH2 0x53C7 JUMP JUMPDEST PUSH0 PUSH1 0x40 MLOAD DUP1 DUP4 SUB DUP2 PUSH0 DUP8 DUP1 EXTCODESIZE ISZERO DUP1 ISZERO PUSH2 0x1A91 JUMPI PUSH0 DUP1 REVERT JUMPDEST POP GAS CALL ISZERO DUP1 ISZERO PUSH2 0x1AA3 JUMPI RETURNDATASIZE PUSH0 DUP1 RETURNDATACOPY RETURNDATASIZE PUSH0 REVERT JUMPDEST POP POP POP POP JUMPDEST PUSH2 0x1F4 PUSH2 0x1AE3 PUSH2 0x9C4 DUP12 PUSH2 0x1ABC SWAP2 SWAP1 PUSH2 0x5480 JUMP JUMPDEST PUSH1 0x3F PUSH1 0x40 DUP14 PUSH2 0x1ACB SWAP2 SWAP1 PUSH2 0x5138 JUMP JUMPDEST PUSH2 0x1AD5 SWAP2 SWAP1 PUSH2 0x54E0 JUMP JUMPDEST PUSH2 0x34C5 SWAP1 SWAP2 SWAP1 PUSH4 0xFFFFFFFF AND JUMP JUMPDEST PUSH2 0x1AED SWAP2 SWAP1 PUSH2 0x5480 JUMP JUMPDEST GAS LT ISZERO PUSH2 0x1B2F JUMPI PUSH1 0x40 MLOAD PUSH32 0x8C379A000000000000000000000000000000000000000000000000000000000 DUP2 MSTORE PUSH1 0x4 ADD PUSH2 0x1B26 SWAP1 PUSH2 0x555A JUMP JUMPDEST PUSH1 0x40 MLOAD DUP1 SWAP2 SUB SWAP1 REVERT JUMPDEST PUSH0 GAS SWAP1 POP PUSH2 0x1B9E DUP16 DUP16 DUP16 DUP16 DUP1 DUP1 PUSH1 0x1F ADD PUSH1 0x20 DUP1 SWAP2 DIV MUL PUSH1 0x20 ADD PUSH1 0x40 MLOAD SWAP1 DUP2 ADD PUSH1 0x40 MSTORE DUP1 SWAP4 SWAP3 SWAP2 SWAP1 DUP2 DUP2 MSTORE PUSH1 0x20 ADD DUP4 DUP4 DUP1 DUP3 DUP5 CALLDATACOPY PUSH0 DUP2 DUP5 ADD MSTORE PUSH1 0x1F NOT PUSH1 0x1F DUP3 ADD AND SWAP1 POP DUP1 DUP4 ADD SWAP3 POP POP POP POP POP POP POP DUP15 PUSH0 DUP14 EQ PUSH2 0x1B8A JUMPI DUP15 PUSH2 0x1B99 JUMP JUMPDEST PUSH2 0x9C4 GAS PUSH2 0x1B98 SWAP2 SWAP1 PUSH2 0x5578 JUMP JUMPDEST JUMPDEST PUSH2 0x3440 JUMP JUMPDEST SWAP4 POP PUSH2 0x1BB3 GAS DUP3 PUSH2 0x34DE SWAP1 SWAP2 SWAP1 PUSH4 0xFFFFFFFF AND JUMP JUMPDEST SWAP1 POP DUP4 DUP1 PUSH2 0x1BC1 JUMPI POP PUSH0 DUP11 EQ ISZERO JUMPDEST DUP1 PUSH2 0x1BCC JUMPI POP PUSH0 DUP9 EQ ISZERO JUMPDEST PUSH2 0x1C0B JUMPI PUSH1 0x40 MLOAD PUSH32 0x8C379A000000000000000000000000000000000000000000000000000000000 DUP2 MSTORE PUSH1 0x4 ADD PUSH2 0x1C02 SWAP1 PUSH2 0x55F5 JUMP JUMPDEST PUSH1 0x40 MLOAD DUP1 SWAP2 SUB SWAP1 REVERT JUMPDEST PUSH0 DUP1 DUP10 GT ISZERO PUSH2 0x1C24 JUMPI PUSH2 0x1C21 DUP3 DUP12 DUP12 DUP12 DUP12 PUSH2 0x3504 JUMP JUMPDEST SWAP1 POP JUMPDEST DUP5 ISZERO PUSH2 0x1C68 JUMPI PUSH32 0x442E715F626346E8C54381002DA614F62BEE8D27386535B2521EC8540898556E DUP5 DUP3 PUSH1 0x40 MLOAD PUSH2 0x1C5B SWAP3 SWAP2 SWAP1 PUSH2 0x5613 JUMP JUMPDEST PUSH1 0x40 MLOAD DUP1 SWAP2 SUB SWAP1 LOG1 PUSH2 0x1CA2 JUMP JUMPDEST PUSH32 0x23428B18ACFB3EA64B08DC0C1D296EA9C09702C09083CA5272E64D115B687D23 DUP5 DUP3 PUSH1 0x40 MLOAD PUSH2 0x1C99 SWAP3 SWAP2 SWAP1 PUSH2 0x5613 JUMP JUMPDEST PUSH1 0x40 MLOAD DUP1 SWAP2 SUB SWAP1 LOG1 JUMPDEST POP POP PUSH0 PUSH20 0xFFFFFFFFFFFFFFFFFFFFFFFFFFFFFFFFFFFFFFFF AND DUP2 PUSH20 0xFFFFFFFFFFFFFFFFFFFFFFFFFFFFFFFFFFFFFFFF AND EQ PUSH2 0x1D40 JUMPI DUP1 PUSH20 0xFFFFFFFFFFFFFFFFFFFFFFFFFFFFFFFFFFFFFFFF AND PUSH4 0x93271368 DUP4 DUP6 PUSH1 0x40 MLOAD DUP4 PUSH4 0xFFFFFFFF AND PUSH1 0xE0 SHL DUP2 MSTORE PUSH1 0x4 ADD PUSH2 0x1D12 SWAP3 SWAP2 SWAP1 PUSH2 0x563A JUMP JUMPDEST PUSH0 PUSH1 0x40 MLOAD DUP1 DUP4 SUB DUP2 PUSH0 DUP8 DUP1 EXTCODESIZE ISZERO DUP1 ISZERO PUSH2 0x1D29 JUMPI PUSH0 DUP1 REVERT JUMPDEST POP GAS CALL ISZERO DUP1 ISZERO PUSH2 0x1D3B JUMPI RETURNDATASIZE PUSH0 DUP1 RETURNDATACOPY RETURNDATASIZE PUSH0 REVERT JUMPDEST POP POP POP POP JUMPDEST POP POP SWAP12 SWAP11 POP POP POP POP POP POP POP POP POP POP POP JUMP JUMPDEST PUSH1 0x8 PUSH1 0x20 MSTORE DUP2 PUSH0 MSTORE PUSH1 0x40 PUSH0 KECCAK256 PUSH1 0x20 MSTORE DUP1 PUSH0 MSTORE PUSH1 0x40 PUSH0 KECCAK256 PUSH0 SWAP2 POP SWAP2 POP POP SLOAD DUP2 JUMP JUMPDEST PUSH0 PUSH1 0x4 SLOAD SWAP1 POP PUSH0 DUP2 GT PUSH2 0x1DB9 JUMPI PUSH1 0x40 MLOAD PUSH32 0x8C379A000000000000000000000000000000000000000000000000000000000 DUP2 MSTORE PUSH1 0x4 ADD PUSH2 0x1DB0 SWAP1 PUSH2 0x56AB JUMP JUMPDEST PUSH1 0x40 MLOAD DUP1 SWAP2 SUB SWAP1 REVERT JUMPDEST PUSH2 0x1DC5 DUP5 DUP5 DUP5 DUP5 PUSH2 0xBC8 JUMP JUMPDEST POP POP POP POP JUMP JUMPDEST PUSH1 0x60 PUSH0 PUSH1 0x3 SLOAD PUSH8 0xFFFFFFFFFFFFFFFF DUP2 GT ISZERO PUSH2 0x1DEA JUMPI PUSH2 0x1DE9 PUSH2 0x3E82 JUMP JUMPDEST JUMPDEST PUSH1 0x40 MLOAD SWAP1 DUP1 DUP3 MSTORE DUP1 PUSH1 0x20 MUL PUSH1 0x20 ADD DUP3 ADD PUSH1 0x40 MSTORE DUP1 ISZERO PUSH2 0x1E18 JUMPI DUP2 PUSH1 0x20 ADD PUSH1 0x20 DUP3 MUL DUP1 CALLDATASIZE DUP4 CALLDATACOPY DUP1 DUP3 ADD SWAP2 POP POP SWAP1 POP JUMPDEST POP SWAP1 POP PUSH0 DUP1 PUSH1 0x2 PUSH0 PUSH1 0x1 PUSH20 0xFFFFFFFFFFFFFFFFFFFFFFFFFFFFFFFFFFFFFFFF AND PUSH20 0xFFFFFFFFFFFFFFFFFFFFFFFFFFFFFFFFFFFFFFFF AND DUP2 MSTORE PUSH1 0x20 ADD SWAP1 DUP2 MSTORE PUSH1 0x20 ADD PUSH0 KECCAK256 PUSH0 SWAP1 SLOAD SWAP1 PUSH2 0x100 EXP SWAP1 DIV PUSH20 0xFFFFFFFFFFFFFFFFFFFFFFFFFFFFFFFFFFFFFFFF AND SWAP1 POP JUMPDEST PUSH1 0x1 PUSH20 0xFFFFFFFFFFFFFFFFFFFFFFFFFFFFFFFFFFFFFFFF AND DUP2 PUSH20 0xFFFFFFFFFFFFFFFFFFFFFFFFFFFFFFFFFFFFFFFF AND EQ PUSH2 0x1F72 JUMPI DUP1 DUP4 DUP4 DUP2 MLOAD DUP2 LT PUSH2 0x1EC6 JUMPI PUSH2 0x1EC5 PUSH2 0x56C9 JUMP JUMPDEST JUMPDEST PUSH1 0x20 MUL PUSH1 0x20 ADD ADD SWAP1 PUSH20 0xFFFFFFFFFFFFFFFFFFFFFFFFFFFFFFFFFFFFFFFF AND SWAP1 DUP2 PUSH20 0xFFFFFFFFFFFFFFFFFFFFFFFFFFFFFFFFFFFFFFFF AND DUP2 MSTORE POP POP PUSH1 0x2 PUSH0 DUP3 PUSH20 0xFFFFFFFFFFFFFFFFFFFFFFFFFFFFFFFFFFFFFFFF AND PUSH20 0xFFFFFFFFFFFFFFFFFFFFFFFFFFFFFFFFFFFFFFFF AND DUP2 MSTORE PUSH1 0x20 ADD SWAP1 DUP2 MSTORE PUSH1 0x20 ADD PUSH0 KECCAK256 PUSH0 SWAP1 SLOAD SWAP1 PUSH2 0x100 EXP SWAP1 DIV PUSH20 0xFFFFFFFFFFFFFFFFFFFFFFFFFFFFFFFFFFFFFFFF AND SWAP1 POP DUP2 DUP1 PUSH2 0x1F6A SWAP1 PUSH2 0x4BB8 JUMP JUMPDEST SWAP3 POP POP PUSH2 0x1E7E JUMP JUMPDEST DUP3 SWAP4 POP POP POP POP SWAP1 JUMP JUMPDEST PUSH1 0x5 SLOAD DUP2 JUMP JUMPDEST PUSH0 DUP1 DUP3 MLOAD PUSH1 0x20 DUP5 ADD DUP6 GAS DELEGATECALL DUP1 PUSH0 MSTORE RETURNDATASIZE PUSH1 0x20 MSTORE RETURNDATASIZE PUSH0 PUSH1 0x40 RETURNDATACOPY PUSH1 0x40 RETURNDATASIZE ADD PUSH0 REVERT JUMPDEST PUSH2 0x1FE9 DUP11 DUP11 DUP1 DUP1 PUSH1 0x20 MUL PUSH1 0x20 ADD PUSH1 0x40 MLOAD SWAP1 DUP2 ADD PUSH1 0x40 MSTORE DUP1 SWAP4 SWAP3 SWAP2 SWAP1 DUP2 DUP2 MSTORE PUSH1 0x20 ADD DUP4 DUP4 PUSH1 0x20 MUL DUP1 DUP3 DUP5 CALLDATACOPY PUSH0 DUP2 DUP5 ADD MSTORE PUSH1 0x1F NOT PUSH1 0x1F DUP3 ADD AND SWAP1 POP DUP1 DUP4 ADD SWAP3 POP POP POP POP POP POP POP DUP10 PUSH2 0x369F JUMP JUMPDEST PUSH0 PUSH20 0xFFFFFFFFFFFFFFFFFFFFFFFFFFFFFFFFFFFFFFFF AND DUP5 PUSH20 0xFFFFFFFFFFFFFFFFFFFFFFFFFFFFFFFFFFFFFFFF AND EQ PUSH2 0x2026 JUMPI PUSH2 0x2025 DUP5 PUSH2 0x3A98 JUMP JUMPDEST JUMPDEST PUSH2 0x2073 DUP8 DUP8 DUP8 DUP1 DUP1 PUSH1 0x1F ADD PUSH1 0x20 DUP1 SWAP2 DIV MUL PUSH1 0x20 ADD PUSH1 0x40 MLOAD SWAP1 DUP2 ADD PUSH1 0x40 MSTORE DUP1 SWAP4 SWAP3 SWAP2 SWAP1 DUP2 DUP2 MSTORE PUSH1 0x20 ADD DUP4 DUP4 DUP1 DUP3 DUP5 CALLDATACOPY PUSH0 DUP2 DUP5 ADD MSTORE PUSH1 0x1F NOT PUSH1 0x1F DUP3 ADD AND SWAP1 POP DUP1 DUP4 ADD SWAP3 POP POP POP POP POP POP POP PUSH2 0x3AC5 JUMP JUMPDEST PUSH0 DUP3 GT ISZERO PUSH2 0x208B JUMPI PUSH2 0x2089 DUP3 PUSH0 PUSH1 0x1 DUP7 DUP6 PUSH2 0x3504 JUMP JUMPDEST POP JUMPDEST CALLER PUSH20 0xFFFFFFFFFFFFFFFFFFFFFFFFFFFFFFFFFFFFFFFF AND PUSH32 0x141DF868A6331AF528E38C83B7AA03EDC19BE66E37AE67F9285BF4F8E3C6A1A8 DUP12 DUP12 DUP12 DUP12 DUP10 PUSH1 0x40 MLOAD PUSH2 0x20D9 SWAP6 SWAP5 SWAP4 SWAP3 SWAP2 SWAP1 PUSH2 0x577C JUMP JUMPDEST PUSH1 0x40 MLOAD DUP1 SWAP2 SUB SWAP1 LOG2 POP POP POP POP POP POP POP POP POP POP JUMP JUMPDEST PUSH0 DUP1 GAS SWAP1 POP PUSH2 0x2142 DUP8 DUP8 DUP8 DUP8 DUP1 DUP1 PUSH1 0x1F ADD PUSH1 0x20 DUP1 SWAP2 DIV MUL PUSH1 0x20 ADD PUSH1 0x40 MLOAD SWAP1 DUP2 ADD PUSH1 0x40 MSTORE DUP1 SWAP4 SWAP3 SWAP2 SWAP1 DUP2 DUP2 MSTORE PUSH1 0x20 ADD DUP4 DUP4 DUP1 DUP3 DUP5 CALLDATACOPY PUSH0 DUP2 DUP5 ADD MSTORE PUSH1 0x1F NOT PUSH1 0x1F DUP3 ADD AND SWAP1 POP DUP1 DUP4 ADD SWAP3 POP POP POP POP POP POP POP DUP7 GAS PUSH2 0x3440 JUMP JUMPDEST PUSH2 0x214A JUMPI PUSH0 DUP1 REVERT JUMPDEST PUSH0 GAS DUP3 PUSH2 0x2157 SWAP2 SWAP1 PUSH2 0x5578 JUMP JUMPDEST SWAP1 POP DUP1 PUSH1 0x40 MLOAD PUSH1 0x20 ADD PUSH2 0x216A SWAP2 SWAP1 PUSH2 0x57E8 JUMP JUMPDEST PUSH1 0x40 MLOAD PUSH1 0x20 DUP2 DUP4 SUB SUB DUP2 MSTORE SWAP1 PUSH1 0x40 MSTORE PUSH1 0x40 MLOAD PUSH32 0x8C379A000000000000000000000000000000000000000000000000000000000 DUP2 MSTORE PUSH1 0x4 ADD PUSH2 0x21AC SWAP2 SWAP1 PUSH2 0x4A9B JUMP JUMPDEST PUSH1 0x40 MLOAD DUP1 SWAP2 SUB SWAP1 REVERT JUMPDEST PUSH1 0x60 PUSH0 DUP3 PUSH8 0xFFFFFFFFFFFFFFFF DUP2 GT ISZERO PUSH2 0x21D2 JUMPI PUSH2 0x21D1 PUSH2 0x3E82 JUMP JUMPDEST JUMPDEST PUSH1 0x40 MLOAD SWAP1 DUP1 DUP3 MSTORE DUP1 PUSH1 0x20 MUL PUSH1 0x20 ADD DUP3 ADD PUSH1 0x40 MSTORE DUP1 ISZERO PUSH2 0x2200 JUMPI DUP2 PUSH1 0x20 ADD PUSH1 0x20 DUP3 MUL DUP1 CALLDATASIZE DUP4 CALLDATACOPY DUP1 DUP3 ADD SWAP2 POP POP SWAP1 POP JUMPDEST POP SWAP2 POP PUSH0 DUP1 PUSH1 0x1 PUSH0 DUP8 PUSH20 0xFFFFFFFFFFFFFFFFFFFFFFFFFFFFFFFFFFFFFFFF AND PUSH20 0xFFFFFFFFFFFFFFFFFFFFFFFFFFFFFFFFFFFFFFFF AND DUP2 MSTORE PUSH1 0x20 ADD SWAP1 DUP2 MSTORE PUSH1 0x20 ADD PUSH0 KECCAK256 PUSH0 SWAP1 SLOAD SWAP1 PUSH2 0x100 EXP SWAP1 DIV PUSH20 0xFFFFFFFFFFFFFFFFFFFFFFFFFFFFFFFFFFFFFFFF AND SWAP1 POP JUMPDEST PUSH0 PUSH20 0xFFFFFFFFFFFFFFFFFFFFFFFFFFFFFFFFFFFFFFFF AND DUP2 PUSH20 0xFFFFFFFFFFFFFFFFFFFFFFFFFFFFFFFFFFFFFFFF AND EQ ISZERO DUP1 ISZERO PUSH2 0x22CE JUMPI POP PUSH1 0x1 PUSH20 0xFFFFFFFFFFFFFFFFFFFFFFFFFFFFFFFFFFFFFFFF AND DUP2 PUSH20 0xFFFFFFFFFFFFFFFFFFFFFFFFFFFFFFFFFFFFFFFF AND EQ ISZERO JUMPDEST DUP1 ISZERO PUSH2 0x22D9 JUMPI POP DUP5 DUP3 LT JUMPDEST ISZERO PUSH2 0x239E JUMPI DUP1 DUP5 DUP4 DUP2 MLOAD DUP2 LT PUSH2 0x22F2 JUMPI PUSH2 0x22F1 PUSH2 0x56C9 JUMP JUMPDEST JUMPDEST PUSH1 0x20 MUL PUSH1 0x20 ADD ADD SWAP1 PUSH20 0xFFFFFFFFFFFFFFFFFFFFFFFFFFFFFFFFFFFFFFFF AND SWAP1 DUP2 PUSH20 0xFFFFFFFFFFFFFFFFFFFFFFFFFFFFFFFFFFFFFFFF AND DUP2 MSTORE POP POP PUSH1 0x1 PUSH0 DUP3 PUSH20 0xFFFFFFFFFFFFFFFFFFFFFFFFFFFFFFFFFFFFFFFF AND PUSH20 0xFFFFFFFFFFFFFFFFFFFFFFFFFFFFFFFFFFFFFFFF AND DUP2 MSTORE PUSH1 0x20 ADD SWAP1 DUP2 MSTORE PUSH1 0x20 ADD PUSH0 KECCAK256 PUSH0 SWAP1 SLOAD SWAP1 PUSH2 0x100 EXP SWAP1 DIV PUSH20 0xFFFFFFFFFFFFFFFFFFFFFFFFFFFFFFFFFFFFFFFF AND SWAP1 POP DUP2 DUP1 PUSH2 0x2396 SWAP1 PUSH2 0x4BB8 JUMP JUMPDEST SWAP3 POP POP PUSH2 0x2265 JUMP JUMPDEST DUP1 SWAP3 POP DUP2 DUP5 MSTORE POP POP SWAP3 POP SWAP3 SWAP1 POP JUMP JUMPDEST PUSH0 PUSH20 0xFFFFFFFFFFFFFFFFFFFFFFFFFFFFFFFFFFFFFFFF AND PUSH1 0x2 PUSH0 CALLER PUSH20 0xFFFFFFFFFFFFFFFFFFFFFFFFFFFFFFFFFFFFFFFF AND PUSH20 0xFFFFFFFFFFFFFFFFFFFFFFFFFFFFFFFFFFFFFFFF AND DUP2 MSTORE PUSH1 0x20 ADD SWAP1 DUP2 MSTORE PUSH1 0x20 ADD PUSH0 KECCAK256 PUSH0 SWAP1 SLOAD SWAP1 PUSH2 0x100 EXP SWAP1 DIV PUSH20 0xFFFFFFFFFFFFFFFFFFFFFFFFFFFFFFFFFFFFFFFF AND PUSH20 0xFFFFFFFFFFFFFFFFFFFFFFFFFFFFFFFFFFFFFFFF AND SUB PUSH2 0x2477 JUMPI PUSH1 0x40 MLOAD PUSH32 0x8C379A000000000000000000000000000000000000000000000000000000000 DUP2 MSTORE PUSH1 0x4 ADD PUSH2 0x246E SWAP1 PUSH2 0x584C JUMP JUMPDEST PUSH1 0x40 MLOAD DUP1 SWAP2 SUB SWAP1 REVERT JUMPDEST PUSH1 0x1 PUSH1 0x8 PUSH0 CALLER PUSH20 0xFFFFFFFFFFFFFFFFFFFFFFFFFFFFFFFFFFFFFFFF AND PUSH20 0xFFFFFFFFFFFFFFFFFFFFFFFFFFFFFFFFFFFFFFFF AND DUP2 MSTORE PUSH1 0x20 ADD SWAP1 DUP2 MSTORE PUSH1 0x20 ADD PUSH0 KECCAK256 PUSH0 DUP4 DUP2 MSTORE PUSH1 0x20 ADD SWAP1 DUP2 MSTORE PUSH1 0x20 ADD PUSH0 KECCAK256 DUP2 SWAP1 SSTORE POP CALLER PUSH20 0xFFFFFFFFFFFFFFFFFFFFFFFFFFFFFFFFFFFFFFFF AND DUP2 PUSH32 0xF2A0EB156472D1440255B0D7C1E19CC07115D1051FE605B0DCE69ACFEC884D9C PUSH1 0x40 MLOAD PUSH1 0x40 MLOAD DUP1 SWAP2 SUB SWAP1 LOG3 POP JUMP JUMPDEST PUSH0 PUSH2 0x2524 DUP13 DUP13 DUP13 DUP13 DUP13 DUP13 DUP13 DUP13 DUP13 DUP13 DUP13 PUSH2 0x2E1C JUMP JUMPDEST DUP1 MLOAD SWAP1 PUSH1 0x20 ADD KECCAK256 SWAP1 POP SWAP12 SWAP11 POP POP POP POP POP POP POP POP POP POP POP JUMP JUMPDEST PUSH2 0x2544 PUSH2 0x333D JUMP JUMPDEST PUSH0 PUSH20 0xFFFFFFFFFFFFFFFFFFFFFFFFFFFFFFFFFFFFFFFF AND DUP2 PUSH20 0xFFFFFFFFFFFFFFFFFFFFFFFFFFFFFFFFFFFFFFFF AND EQ ISZERO DUP1 ISZERO PUSH2 0x25AD JUMPI POP PUSH1 0x1 PUSH20 0xFFFFFFFFFFFFFFFFFFFFFFFFFFFFFFFFFFFFFFFF AND DUP2 PUSH20 0xFFFFFFFFFFFFFFFFFFFFFFFFFFFFFFFFFFFFFFFF AND EQ ISZERO JUMPDEST PUSH2 0x25EC JUMPI PUSH1 0x40 MLOAD PUSH32 0x8C379A000000000000000000000000000000000000000000000000000000000 DUP2 MSTORE PUSH1 0x4 ADD PUSH2 0x25E3 SWAP1 PUSH2 0x51C3 JUMP JUMPDEST PUSH1 0x40 MLOAD DUP1 SWAP2 SUB SWAP1 REVERT JUMPDEST DUP1 PUSH20 0xFFFFFFFFFFFFFFFFFFFFFFFFFFFFFFFFFFFFFFFF AND PUSH1 0x1 PUSH0 DUP5 PUSH20 0xFFFFFFFFFFFFFFFFFFFFFFFFFFFFFFFFFFFFFFFF AND PUSH20 0xFFFFFFFFFFFFFFFFFFFFFFFFFFFFFFFFFFFFFFFF AND DUP2 MSTORE PUSH1 0x20 ADD SWAP1 DUP2 MSTORE PUSH1 0x20 ADD PUSH0 KECCAK256 PUSH0 SWAP1 SLOAD SWAP1 PUSH2 0x100 EXP SWAP1 DIV PUSH20 0xFFFFFFFFFFFFFFFFFFFFFFFFFFFFFFFFFFFFFFFF AND PUSH20 0xFFFFFFFFFFFFFFFFFFFFFFFFFFFFFFFFFFFFFFFF AND EQ PUSH2 0x26B6 JUMPI PUSH1 0x40 MLOAD PUSH32 0x8C379A000000000000000000000000000000000000000000000000000000000 DUP2 MSTORE PUSH1 0x4 ADD PUSH2 0x26AD SWAP1 PUSH2 0x58B4 JUMP JUMPDEST PUSH1 0x40 MLOAD DUP1 SWAP2 SUB SWAP1 REVERT JUMPDEST PUSH1 0x1 PUSH0 DUP3 PUSH20 0xFFFFFFFFFFFFFFFFFFFFFFFFFFFFFFFFFFFFFFFF AND PUSH20 0xFFFFFFFFFFFFFFFFFFFFFFFFFFFFFFFFFFFFFFFF AND DUP2 MSTORE PUSH1 0x20 ADD SWAP1 DUP2 MSTORE PUSH1 0x20 ADD PUSH0 KECCAK256 PUSH0 SWAP1 SLOAD SWAP1 PUSH2 0x100 EXP SWAP1 DIV PUSH20 0xFFFFFFFFFFFFFFFFFFFFFFFFFFFFFFFFFFFFFFFF AND PUSH1 0x1 PUSH0 DUP5 PUSH20 0xFFFFFFFFFFFFFFFFFFFFFFFFFFFFFFFFFFFFFFFF AND PUSH20 0xFFFFFFFFFFFFFFFFFFFFFFFFFFFFFFFFFFFFFFFF AND DUP2 MSTORE PUSH1 0x20 ADD SWAP1 DUP2 MSTORE PUSH1 0x20 ADD PUSH0 KECCAK256 PUSH0 PUSH2 0x100 EXP DUP2 SLOAD DUP2 PUSH20 0xFFFFFFFFFFFFFFFFFFFFFFFFFFFFFFFFFFFFFFFF MUL NOT AND SWAP1 DUP4 PUSH20 0xFFFFFFFFFFFFFFFFFFFFFFFFFFFFFFFFFFFFFFFF AND MUL OR SWAP1 SSTORE POP PUSH0 PUSH1 0x1 PUSH0 DUP4 PUSH20 0xFFFFFFFFFFFFFFFFFFFFFFFFFFFFFFFFFFFFFFFF AND PUSH20 0xFFFFFFFFFFFFFFFFFFFFFFFFFFFFFFFFFFFFFFFF AND DUP2 MSTORE PUSH1 0x20 ADD SWAP1 DUP2 MSTORE PUSH1 0x20 ADD PUSH0 KECCAK256 PUSH0 PUSH2 0x100 EXP DUP2 SLOAD DUP2 PUSH20 0xFFFFFFFFFFFFFFFFFFFFFFFFFFFFFFFFFFFFFFFF MUL NOT AND SWAP1 DUP4 PUSH20 0xFFFFFFFFFFFFFFFFFFFFFFFFFFFFFFFFFFFFFFFF AND MUL OR SWAP1 SSTORE POP PUSH32 0xAAB4FA2B463F581B2B32CB3B7E3B704B9CE37CC209B5FB4D77E593ACE4054276 DUP2 PUSH1 0x40 MLOAD PUSH2 0x2837 SWAP2 SWAP1 PUSH2 0x4BFF JUMP JUMPDEST PUSH1 0x40 MLOAD DUP1 SWAP2 SUB SWAP1 LOG1 POP POP JUMP JUMPDEST PUSH2 0x284B PUSH2 0x333D JUMP JUMPDEST PUSH0 PUSH32 0x4A204F620C8C5CCDCA3FD54D003BADD85BA500436A431F0CBDA4F558C93C34C8 PUSH0 SHL SWAP1 POP DUP2 DUP2 SSTORE PUSH32 0x1151116914515BC0891FF9047A6CB32CF902546F83066499BCF8BA33D2353FA2 DUP3 PUSH1 0x40 MLOAD PUSH2 0x28A3 SWAP2 SWAP1 PUSH2 0x4BFF JUMP JUMPDEST PUSH1 0x40 MLOAD DUP1 SWAP2 SUB SWAP1 LOG1 POP POP JUMP JUMPDEST PUSH2 0x28B7 PUSH2 0x333D JUMP JUMPDEST PUSH0 PUSH20 0xFFFFFFFFFFFFFFFFFFFFFFFFFFFFFFFFFFFFFFFF AND DUP2 PUSH20 0xFFFFFFFFFFFFFFFFFFFFFFFFFFFFFFFFFFFFFFFF AND EQ ISZERO DUP1 ISZERO PUSH2 0x2920 JUMPI POP PUSH1 0x1 PUSH20 0xFFFFFFFFFFFFFFFFFFFFFFFFFFFFFFFFFFFFFFFF AND DUP2 PUSH20 0xFFFFFFFFFFFFFFFFFFFFFFFFFFFFFFFFFFFFFFFF AND EQ ISZERO JUMPDEST DUP1 ISZERO PUSH2 0x2958 JUMPI POP ADDRESS PUSH20 0xFFFFFFFFFFFFFFFFFFFFFFFFFFFFFFFFFFFFFFFF AND DUP2 PUSH20 0xFFFFFFFFFFFFFFFFFFFFFFFFFFFFFFFFFFFFFFFF AND EQ ISZERO JUMPDEST PUSH2 0x2997 JUMPI PUSH1 0x40 MLOAD PUSH32 0x8C379A000000000000000000000000000000000000000000000000000000000 DUP2 MSTORE PUSH1 0x4 ADD PUSH2 0x298E SWAP1 PUSH2 0x4B05 JUMP JUMPDEST PUSH1 0x40 MLOAD DUP1 SWAP2 SUB SWAP1 REVERT JUMPDEST PUSH0 PUSH20 0xFFFFFFFFFFFFFFFFFFFFFFFFFFFFFFFFFFFFFFFF AND PUSH1 0x2 PUSH0 DUP4 PUSH20 0xFFFFFFFFFFFFFFFFFFFFFFFFFFFFFFFFFFFFFFFF AND PUSH20 0xFFFFFFFFFFFFFFFFFFFFFFFFFFFFFFFFFFFFFFFF AND DUP2 MSTORE PUSH1 0x20 ADD SWAP1 DUP2 MSTORE PUSH1 0x20 ADD PUSH0 KECCAK256 PUSH0 SWAP1 SLOAD SWAP1 PUSH2 0x100 EXP SWAP1 DIV PUSH20 0xFFFFFFFFFFFFFFFFFFFFFFFFFFFFFFFFFFFFFFFF AND PUSH20 0xFFFFFFFFFFFFFFFFFFFFFFFFFFFFFFFFFFFFFFFF AND EQ PUSH2 0x2A61 JUMPI PUSH1 0x40 MLOAD PUSH32 0x8C379A000000000000000000000000000000000000000000000000000000000 DUP2 MSTORE PUSH1 0x4 ADD PUSH2 0x2A58 SWAP1 PUSH2 0x4B6D JUMP JUMPDEST PUSH1 0x40 MLOAD DUP1 SWAP2 SUB SWAP1 REVERT JUMPDEST PUSH0 PUSH20 0xFFFFFFFFFFFFFFFFFFFFFFFFFFFFFFFFFFFFFFFF AND DUP3 PUSH20 0xFFFFFFFFFFFFFFFFFFFFFFFFFFFFFFFFFFFFFFFF AND EQ ISZERO DUP1 ISZERO PUSH2 0x2ACA JUMPI POP PUSH1 0x1 PUSH20 0xFFFFFFFFFFFFFFFFFFFFFFFFFFFFFFFFFFFFFFFF AND DUP3 PUSH20 0xFFFFFFFFFFFFFFFFFFFFFFFFFFFFFFFFFFFFFFFF AND EQ ISZERO JUMPDEST PUSH2 0x2B09 JUMPI PUSH1 0x40 MLOAD PUSH32 0x8C379A000000000000000000000000000000000000000000000000000000000 DUP2 MSTORE PUSH1 0x4 ADD PUSH2 0x2B00 SWAP1 PUSH2 0x4B05 JUMP JUMPDEST PUSH1 0x40 MLOAD DUP1 SWAP2 SUB SWAP1 REVERT JUMPDEST DUP2 PUSH20 0xFFFFFFFFFFFFFFFFFFFFFFFFFFFFFFFFFFFFFFFF AND PUSH1 0x2 PUSH0 DUP6 PUSH20 0xFFFFFFFFFFFFFFFFFFFFFFFFFFFFFFFFFFFFFFFF AND PUSH20 0xFFFFFFFFFFFFFFFFFFFFFFFFFFFFFFFFFFFFFFFF AND DUP2 MSTORE PUSH1 0x20 ADD SWAP1 DUP2 MSTORE PUSH1 0x20 ADD PUSH0 KECCAK256 PUSH0 SWAP1 SLOAD SWAP1 PUSH2 0x100 EXP SWAP1 DIV PUSH20 0xFFFFFFFFFFFFFFFFFFFFFFFFFFFFFFFFFFFFFFFF AND PUSH20 0xFFFFFFFFFFFFFFFFFFFFFFFFFFFFFFFFFFFFFFFF AND EQ PUSH2 0x2BD3 JUMPI PUSH1 0x40 MLOAD PUSH32 0x8C379A000000000000000000000000000000000000000000000000000000000 DUP2 MSTORE PUSH1 0x4 ADD PUSH2 0x2BCA SWAP1 PUSH2 0x591C JUMP JUMPDEST PUSH1 0x40 MLOAD DUP1 SWAP2 SUB SWAP1 REVERT JUMPDEST PUSH1 0x2 PUSH0 DUP4 PUSH20 0xFFFFFFFFFFFFFFFFFFFFFFFFFFFFFFFFFFFFFFFF AND PUSH20 0xFFFFFFFFFFFFFFFFFFFFFFFFFFFFFFFFFFFFFFFF AND DUP2 MSTORE PUSH1 0x20 ADD SWAP1 DUP2 MSTORE PUSH1 0x20 ADD PUSH0 KECCAK256 PUSH0 SWAP1 SLOAD SWAP1 PUSH2 0x100 EXP SWAP1 DIV PUSH20 0xFFFFFFFFFFFFFFFFFFFFFFFFFFFFFFFFFFFFFFFF AND PUSH1 0x2 PUSH0 DUP4 PUSH20 0xFFFFFFFFFFFFFFFFFFFFFFFFFFFFFFFFFFFFFFFF AND PUSH20 0xFFFFFFFFFFFFFFFFFFFFFFFFFFFFFFFFFFFFFFFF AND DUP2 MSTORE PUSH1 0x20 ADD SWAP1 DUP2 MSTORE PUSH1 0x20 ADD PUSH0 KECCAK256 PUSH0 PUSH2 0x100 EXP DUP2 SLOAD DUP2 PUSH20 0xFFFFFFFFFFFFFFFFFFFFFFFFFFFFFFFFFFFFFFFF MUL NOT AND SWAP1 DUP4 PUSH20 0xFFFFFFFFFFFFFFFFFFFFFFFFFFFFFFFFFFFFFFFF AND MUL OR SWAP1 SSTORE POP DUP1 PUSH1 0x2 PUSH0 DUP6 PUSH20 0xFFFFFFFFFFFFFFFFFFFFFFFFFFFFFFFFFFFFFFFF AND PUSH20 0xFFFFFFFFFFFFFFFFFFFFFFFFFFFFFFFFFFFFFFFF AND DUP2 MSTORE PUSH1 0x20 ADD SWAP1 DUP2 MSTORE PUSH1 0x20 ADD PUSH0 KECCAK256 PUSH0 PUSH2 0x100 EXP DUP2 SLOAD DUP2 PUSH20 0xFFFFFFFFFFFFFFFFFFFFFFFFFFFFFFFFFFFFFFFF MUL NOT AND SWAP1 DUP4 PUSH20 0xFFFFFFFFFFFFFFFFFFFFFFFFFFFFFFFFFFFFFFFF AND MUL OR SWAP1 SSTORE POP PUSH0 PUSH1 0x2 PUSH0 DUP5 PUSH20 0xFFFFFFFFFFFFFFFFFFFFFFFFFFFFFFFFFFFFFFFF AND PUSH20 0xFFFFFFFFFFFFFFFFFFFFFFFFFFFFFFFFFFFFFFFF AND DUP2 MSTORE PUSH1 0x20 ADD SWAP1 DUP2 MSTORE PUSH1 0x20 ADD PUSH0 KECCAK256 PUSH0 PUSH2 0x100 EXP DUP2 SLOAD DUP2 PUSH20 0xFFFFFFFFFFFFFFFFFFFFFFFFFFFFFFFFFFFFFFFF MUL NOT AND SWAP1 DUP4 PUSH20 0xFFFFFFFFFFFFFFFFFFFFFFFFFFFFFFFFFFFFFFFF AND MUL OR SWAP1 SSTORE POP PUSH32 0xF8D49FC529812E9A7C5C50E69C20F0DCCC0DB8FA95C98BC58CC9A4F1C1299EAF DUP3 PUSH1 0x40 MLOAD PUSH2 0x2DCF SWAP2 SWAP1 PUSH2 0x4BFF JUMP JUMPDEST PUSH1 0x40 MLOAD DUP1 SWAP2 SUB SWAP1 LOG1 PUSH32 0x9465FA0C962CC76958E6373A993326400C1C94F8BE2FE3A952ADFA7F60B2EA26 DUP2 PUSH1 0x40 MLOAD PUSH2 0x2E06 SWAP2 SWAP1 PUSH2 0x4BFF JUMP JUMPDEST PUSH1 0x40 MLOAD DUP1 SWAP2 SUB SWAP1 LOG1 POP POP POP JUMP JUMPDEST PUSH0 PUSH1 0x4 SLOAD SWAP1 POP SWAP1 JUMP JUMPDEST PUSH1 0x60 PUSH0 PUSH32 0xBB8310D486368DB6BD6F849402FDD73AD53D316B5A4B2644AD6EFE0F941286D8 PUSH0 SHL DUP14 DUP14 DUP14 DUP14 PUSH1 0x40 MLOAD PUSH2 0x2E54 SWAP3 SWAP2 SWAP1 PUSH2 0x5968 JUMP JUMPDEST PUSH1 0x40 MLOAD DUP1 SWAP2 SUB SWAP1 KECCAK256 DUP13 DUP13 DUP13 DUP13 DUP13 DUP13 DUP13 PUSH1 0x40 MLOAD PUSH1 0x20 ADD PUSH2 0x2E7D SWAP12 SWAP11 SWAP10 SWAP9 SWAP8 SWAP7 SWAP6 SWAP5 SWAP4 SWAP3 SWAP2 SWAP1 PUSH2 0x5980 JUMP JUMPDEST PUSH1 0x40 MLOAD PUSH1 0x20 DUP2 DUP4 SUB SUB DUP2 MSTORE SWAP1 PUSH1 0x40 MSTORE DUP1 MLOAD SWAP1 PUSH1 0x20 ADD KECCAK256 SWAP1 POP PUSH1 0x19 PUSH1 0xF8 SHL PUSH1 0x1 PUSH1 0xF8 SHL PUSH2 0x2EA7 PUSH2 0x2F27 JUMP JUMPDEST DUP4 PUSH1 0x40 MLOAD PUSH1 0x20 ADD PUSH2 0x2EBB SWAP5 SWAP4 SWAP3 SWAP2 SWAP1 PUSH2 0x5A74 JUMP JUMPDEST PUSH1 0x40 MLOAD PUSH1 0x20 DUP2 DUP4 SUB SUB DUP2 MSTORE SWAP1 PUSH1 0x40 MSTORE SWAP2 POP POP SWAP12 SWAP11 POP POP POP POP POP POP POP POP POP POP POP JUMP JUMPDEST PUSH2 0x2EE4 PUSH2 0x333D JUMP JUMPDEST PUSH2 0x2EED DUP2 PUSH2 0x3A98 JUMP JUMPDEST PUSH32 0x5AC6C46C93C8D0E53714BA3B53DB3E7C046DA994313D7ED0D192028BC7C228B0 DUP2 PUSH1 0x40 MLOAD PUSH2 0x2F1C SWAP2 SWAP1 PUSH2 0x4BFF JUMP JUMPDEST PUSH1 0x40 MLOAD DUP1 SWAP2 SUB SWAP1 LOG1 POP JUMP JUMPDEST PUSH0 PUSH32 0x47E79534A245952E8B16893A336B85A3D9EA9FA8C573F3D803AFB92A79469218 PUSH0 SHL PUSH2 0x2F53 PUSH2 0x1337 JUMP JUMPDEST ADDRESS PUSH1 0x40 MLOAD PUSH1 0x20 ADD PUSH2 0x2F66 SWAP4 SWAP3 SWAP2 SWAP1 PUSH2 0x5B1C JUMP JUMPDEST PUSH1 0x40 MLOAD PUSH1 0x20 DUP2 DUP4 SUB SUB DUP2 MSTORE SWAP1 PUSH1 0x40 MSTORE DUP1 MLOAD SWAP1 PUSH1 0x20 ADD KECCAK256 SWAP1 POP SWAP1 JUMP JUMPDEST PUSH2 0x2F89 PUSH2 0x333D JUMP JUMPDEST DUP1 PUSH1 0x1 PUSH1 0x3 SLOAD PUSH2 0x2F99 SWAP2 SWAP1 PUSH2 0x5578 JUMP JUMPDEST LT ISZERO PUSH2 0x2FDA JUMPI PUSH1 0x40 MLOAD PUSH32 0x8C379A000000000000000000000000000000000000000000000000000000000 DUP2 MSTORE PUSH1 0x4 ADD PUSH2 0x2FD1 SWAP1 PUSH2 0x5293 JUMP JUMPDEST PUSH1 0x40 MLOAD DUP1 SWAP2 SUB SWAP1 REVERT JUMPDEST PUSH0 PUSH20 0xFFFFFFFFFFFFFFFFFFFFFFFFFFFFFFFFFFFFFFFF AND DUP3 PUSH20 0xFFFFFFFFFFFFFFFFFFFFFFFFFFFFFFFFFFFFFFFF AND EQ ISZERO DUP1 ISZERO PUSH2 0x3043 JUMPI POP PUSH1 0x1 PUSH20 0xFFFFFFFFFFFFFFFFFFFFFFFFFFFFFFFFFFFFFFFF AND DUP3 PUSH20 0xFFFFFFFFFFFFFFFFFFFFFFFFFFFFFFFFFFFFFFFF AND EQ ISZERO JUMPDEST PUSH2 0x3082 JUMPI PUSH1 0x40 MLOAD PUSH32 0x8C379A000000000000000000000000000000000000000000000000000000000 DUP2 MSTORE PUSH1 0x4 ADD PUSH2 0x3079 SWAP1 PUSH2 0x4B05 JUMP JUMPDEST PUSH1 0x40 MLOAD DUP1 SWAP2 SUB SWAP1 REVERT JUMPDEST DUP2 PUSH20 0xFFFFFFFFFFFFFFFFFFFFFFFFFFFFFFFFFFFFFFFF AND PUSH1 0x2 PUSH0 DUP6 PUSH20 0xFFFFFFFFFFFFFFFFFFFFFFFFFFFFFFFFFFFFFFFF AND PUSH20 0xFFFFFFFFFFFFFFFFFFFFFFFFFFFFFFFFFFFFFFFF AND DUP2 MSTORE PUSH1 0x20 ADD SWAP1 DUP2 MSTORE PUSH1 0x20 ADD PUSH0 KECCAK256 PUSH0 SWAP1 SLOAD SWAP1 PUSH2 0x100 EXP SWAP1 DIV PUSH20 0xFFFFFFFFFFFFFFFFFFFFFFFFFFFFFFFFFFFFFFFF AND PUSH20 0xFFFFFFFFFFFFFFFFFFFFFFFFFFFFFFFFFFFFFFFF AND EQ PUSH2 0x314C JUMPI PUSH1 0x40 MLOAD PUSH32 0x8C379A000000000000000000000000000000000000000000000000000000000 DUP2 MSTORE PUSH1 0x4 ADD PUSH2 0x3143 SWAP1 PUSH2 0x591C JUMP JUMPDEST PUSH1 0x40 MLOAD DUP1 SWAP2 SUB SWAP1 REVERT JUMPDEST PUSH1 0x2 PUSH0 DUP4 PUSH20 0xFFFFFFFFFFFFFFFFFFFFFFFFFFFFFFFFFFFFFFFF AND PUSH20 0xFFFFFFFFFFFFFFFFFFFFFFFFFFFFFFFFFFFFFFFF AND DUP2 MSTORE PUSH1 0x20 ADD SWAP1 DUP2 MSTORE PUSH1 0x20 ADD PUSH0 KECCAK256 PUSH0 SWAP1 SLOAD SWAP1 PUSH2 0x100 EXP SWAP1 DIV PUSH20 0xFFFFFFFFFFFFFFFFFFFFFFFFFFFFFFFFFFFFFFFF AND PUSH1 0x2 PUSH0 DUP6 PUSH20 0xFFFFFFFFFFFFFFFFFFFFFFFFFFFFFFFFFFFFFFFF AND PUSH20 0xFFFFFFFFFFFFFFFFFFFFFFFFFFFFFFFFFFFFFFFF AND DUP2 MSTORE PUSH1 0x20 ADD SWAP1 DUP2 MSTORE PUSH1 0x20 ADD PUSH0 KECCAK256 PUSH0 PUSH2 0x100 EXP DUP2 SLOAD DUP2 PUSH20 0xFFFFFFFFFFFFFFFFFFFFFFFFFFFFFFFFFFFFFFFF MUL NOT AND SWAP1 DUP4 PUSH20 0xFFFFFFFFFFFFFFFFFFFFFFFFFFFFFFFFFFFFFFFF AND MUL OR SWAP1 SSTORE POP PUSH0 PUSH1 0x2 PUSH0 DUP5 PUSH20 0xFFFFFFFFFFFFFFFFFFFFFFFFFFFFFFFFFFFFFFFF AND PUSH20 0xFFFFFFFFFFFFFFFFFFFFFFFFFFFFFFFFFFFFFFFF AND DUP2 MSTORE PUSH1 0x20 ADD SWAP1 DUP2 MSTORE PUSH1 0x20 ADD PUSH0 KECCAK256 PUSH0 PUSH2 0x100 EXP DUP2 SLOAD DUP2 PUSH20 0xFFFFFFFFFFFFFFFFFFFFFFFFFFFFFFFFFFFFFFFF MUL NOT AND SWAP1 DUP4 PUSH20 0xFFFFFFFFFFFFFFFFFFFFFFFFFFFFFFFFFFFFFFFF AND MUL OR SWAP1 SSTORE POP PUSH1 0x3 PUSH0 DUP2 SLOAD DUP1 SWAP3 SWAP2 SWAP1 PUSH2 0x32B0 SWAP1 PUSH2 0x5B51 JUMP JUMPDEST SWAP2 SWAP1 POP SSTORE POP PUSH32 0xF8D49FC529812E9A7C5C50E69C20F0DCCC0DB8FA95C98BC58CC9A4F1C1299EAF DUP3 PUSH1 0x40 MLOAD PUSH2 0x32E4 SWAP2 SWAP1 PUSH2 0x4BFF JUMP JUMPDEST PUSH1 0x40 MLOAD DUP1 SWAP2 SUB SWAP1 LOG1 DUP1 PUSH1 0x4 SLOAD EQ PUSH2 0x32FF JUMPI PUSH2 0x32FE DUP2 PUSH2 0x18D2 JUMP JUMPDEST JUMPDEST POP POP POP JUMP JUMPDEST PUSH1 0x40 MLOAD DUP1 PUSH1 0x40 ADD PUSH1 0x40 MSTORE DUP1 PUSH1 0x5 DUP2 MSTORE PUSH1 0x20 ADD PUSH32 0x312E332E30000000000000000000000000000000000000000000000000000000 DUP2 MSTORE POP DUP2 JUMP JUMPDEST ADDRESS PUSH20 0xFFFFFFFFFFFFFFFFFFFFFFFFFFFFFFFFFFFFFFFF AND CALLER PUSH20 0xFFFFFFFFFFFFFFFFFFFFFFFFFFFFFFFFFFFFFFFF AND EQ PUSH2 0x33AB JUMPI PUSH1 0x40 MLOAD PUSH32 0x8C379A000000000000000000000000000000000000000000000000000000000 DUP2 MSTORE PUSH1 0x4 ADD PUSH2 0x33A2 SWAP1 PUSH2 0x5BC2 JUMP JUMPDEST PUSH1 0x40 MLOAD DUP1 SWAP2 SUB SWAP1 REVERT JUMPDEST JUMP JUMPDEST PUSH0 DUP1 DUP4 SUB PUSH2 0x33BD JUMPI PUSH0 SWAP1 POP PUSH2 0x33E7 JUMP JUMPDEST PUSH0 DUP3 DUP5 PUSH2 0x33CA SWAP2 SWAP1 PUSH2 0x5138 JUMP JUMPDEST SWAP1 POP DUP3 DUP5 DUP3 PUSH2 0x33D9 SWAP2 SWAP1 PUSH2 0x54E0 JUMP JUMPDEST EQ PUSH2 0x33E2 JUMPI PUSH0 DUP1 REVERT JUMPDEST DUP1 SWAP2 POP POP JUMPDEST SWAP3 SWAP2 POP POP JUMP JUMPDEST PUSH0 DUP1 PUSH0 DUP4 PUSH1 0x41 MUL PUSH1 0x20 DUP2 ADD DUP7 ADD MLOAD SWAP3 POP PUSH1 0x40 DUP2 ADD DUP7 ADD MLOAD SWAP2 POP PUSH1 0xFF PUSH1 0x41 DUP3 ADD DUP8 ADD MLOAD AND SWAP4 POP POP SWAP3 POP SWAP3 POP SWAP3 JUMP JUMPDEST PUSH0 DUP1 DUP3 DUP5 PUSH2 0x3428 SWAP2 SWAP1 PUSH2 0x5480 JUMP JUMPDEST SWAP1 POP DUP4 DUP2 LT ISZERO PUSH2 0x3436 JUMPI PUSH0 DUP1 REVERT JUMPDEST DUP1 SWAP2 POP POP SWAP3 SWAP2 POP POP JUMP JUMPDEST PUSH0 PUSH1 0x1 DUP1 DUP2 GT ISZERO PUSH2 0x3454 JUMPI PUSH2 0x3453 PUSH2 0x5345 JUMP JUMPDEST JUMPDEST DUP4 PUSH1 0x1 DUP2 GT ISZERO PUSH2 0x3467 JUMPI PUSH2 0x3466 PUSH2 0x5345 JUMP JUMPDEST JUMPDEST SUB PUSH2 0x347E JUMPI PUSH0 DUP1 DUP6 MLOAD PUSH1 0x20 DUP8 ADD DUP10 DUP7 DELEGATECALL SWAP1 POP PUSH2 0x348D JUMP JUMPDEST PUSH0 DUP1 DUP6 MLOAD PUSH1 0x20 DUP8 ADD DUP9 DUP11 DUP8 CALL SWAP1 POP JUMPDEST SWAP6 SWAP5 POP POP POP POP POP JUMP JUMPDEST PUSH0 DUP1 PUSH32 0x4A204F620C8C5CCDCA3FD54D003BADD85BA500436A431F0CBDA4F558C93C34C8 PUSH0 SHL SWAP1 POP DUP1 SLOAD SWAP2 POP POP SWAP1 JUMP JUMPDEST PUSH0 DUP2 DUP4 LT ISZERO PUSH2 0x34D4 JUMPI DUP2 PUSH2 0x34D6 JUMP JUMPDEST DUP3 JUMPDEST SWAP1 POP SWAP3 SWAP2 POP POP JUMP JUMPDEST PUSH0 DUP3 DUP3 GT ISZERO PUSH2 0x34EB JUMPI PUSH0 DUP1 REVERT JUMPDEST PUSH0 DUP3 DUP5 PUSH2 0x34F8 SWAP2 SWAP1 PUSH2 0x5578 JUMP JUMPDEST SWAP1 POP DUP1 SWAP2 POP POP SWAP3 SWAP2 POP POP JUMP JUMPDEST PUSH0 DUP1 PUSH0 PUSH20 0xFFFFFFFFFFFFFFFFFFFFFFFFFFFFFFFFFFFFFFFF AND DUP4 PUSH20 0xFFFFFFFFFFFFFFFFFFFFFFFFFFFFFFFFFFFFFFFF AND EQ PUSH2 0x353F JUMPI DUP3 PUSH2 0x3541 JUMP JUMPDEST ORIGIN JUMPDEST SWAP1 POP PUSH0 PUSH20 0xFFFFFFFFFFFFFFFFFFFFFFFFFFFFFFFFFFFFFFFF AND DUP5 PUSH20 0xFFFFFFFFFFFFFFFFFFFFFFFFFFFFFFFFFFFFFFFF AND SUB PUSH2 0x3623 JUMPI PUSH2 0x35A9 GASPRICE DUP7 LT PUSH2 0x3586 JUMPI GASPRICE PUSH2 0x3588 JUMP JUMPDEST DUP6 JUMPDEST PUSH2 0x359B DUP9 DUP11 PUSH2 0x341A SWAP1 SWAP2 SWAP1 PUSH4 0xFFFFFFFF AND JUMP JUMPDEST PUSH2 0x33AD SWAP1 SWAP2 SWAP1 PUSH4 0xFFFFFFFF AND JUMP JUMPDEST SWAP2 POP DUP1 PUSH20 0xFFFFFFFFFFFFFFFFFFFFFFFFFFFFFFFFFFFFFFFF AND PUSH2 0x8FC DUP4 SWAP1 DUP2 ISZERO MUL SWAP1 PUSH1 0x40 MLOAD PUSH0 PUSH1 0x40 MLOAD DUP1 DUP4 SUB DUP2 DUP6 DUP9 DUP9 CALL SWAP4 POP POP POP POP PUSH2 0x361E JUMPI PUSH1 0x40 MLOAD PUSH32 0x8C379A000000000000000000000000000000000000000000000000000000000 DUP2 MSTORE PUSH1 0x4 ADD PUSH2 0x3615 SWAP1 PUSH2 0x5C2A JUMP JUMPDEST PUSH1 0x40 MLOAD DUP1 SWAP2 SUB SWAP1 REVERT JUMPDEST PUSH2 0x3695 JUMP JUMPDEST PUSH2 0x3648 DUP6 PUSH2 0x363A DUP9 DUP11 PUSH2 0x341A SWAP1 SWAP2 SWAP1 PUSH4 0xFFFFFFFF AND JUMP JUMPDEST PUSH2 0x33AD SWAP1 SWAP2 SWAP1 PUSH4 0xFFFFFFFF AND JUMP JUMPDEST SWAP2 POP PUSH2 0x3655 DUP5 DUP3 DUP5 PUSH2 0x3C91 JUMP JUMPDEST PUSH2 0x3694 JUMPI PUSH1 0x40 MLOAD PUSH32 0x8C379A000000000000000000000000000000000000000000000000000000000 DUP2 MSTORE PUSH1 0x4 ADD PUSH2 0x368B SWAP1 PUSH2 0x5C92 JUMP JUMPDEST PUSH1 0x40 MLOAD DUP1 SWAP2 SUB SWAP1 REVERT JUMPDEST JUMPDEST POP SWAP6 SWAP5 POP POP POP POP POP JUMP JUMPDEST PUSH0 PUSH1 0x4 SLOAD EQ PUSH2 0x36E3 JUMPI PUSH1 0x40 MLOAD PUSH32 0x8C379A000000000000000000000000000000000000000000000000000000000 DUP2 MSTORE PUSH1 0x4 ADD PUSH2 0x36DA SWAP1 PUSH2 0x5CFA JUMP JUMPDEST PUSH1 0x40 MLOAD DUP1 SWAP2 SUB SWAP1 REVERT JUMPDEST DUP2 MLOAD DUP2 GT ISZERO PUSH2 0x3727 JUMPI PUSH1 0x40 MLOAD PUSH32 0x8C379A000000000000000000000000000000000000000000000000000000000 DUP2 MSTORE PUSH1 0x4 ADD PUSH2 0x371E SWAP1 PUSH2 0x5293 JUMP JUMPDEST PUSH1 0x40 MLOAD DUP1 SWAP2 SUB SWAP1 REVERT JUMPDEST PUSH1 0x1 DUP2 LT ISZERO PUSH2 0x376B JUMPI PUSH1 0x40 MLOAD PUSH32 0x8C379A000000000000000000000000000000000000000000000000000000000 DUP2 MSTORE PUSH1 0x4 ADD PUSH2 0x3762 SWAP1 PUSH2 0x52FB JUMP JUMPDEST PUSH1 0x40 MLOAD DUP1 SWAP2 SUB SWAP1 REVERT JUMPDEST PUSH0 PUSH1 0x1 SWAP1 POP PUSH0 JUMPDEST DUP4 MLOAD DUP2 LT ISZERO PUSH2 0x3A07 JUMPI PUSH0 DUP5 DUP3 DUP2 MLOAD DUP2 LT PUSH2 0x378F JUMPI PUSH2 0x378E PUSH2 0x56C9 JUMP JUMPDEST JUMPDEST PUSH1 0x20 MUL PUSH1 0x20 ADD ADD MLOAD SWAP1 POP PUSH0 PUSH20 0xFFFFFFFFFFFFFFFFFFFFFFFFFFFFFFFFFFFFFFFF AND DUP2 PUSH20 0xFFFFFFFFFFFFFFFFFFFFFFFFFFFFFFFFFFFFFFFF AND EQ ISZERO DUP1 ISZERO PUSH2 0x3802 JUMPI POP PUSH1 0x1 PUSH20 0xFFFFFFFFFFFFFFFFFFFFFFFFFFFFFFFFFFFFFFFF AND DUP2 PUSH20 0xFFFFFFFFFFFFFFFFFFFFFFFFFFFFFFFFFFFFFFFF AND EQ ISZERO JUMPDEST DUP1 ISZERO PUSH2 0x383A JUMPI POP ADDRESS PUSH20 0xFFFFFFFFFFFFFFFFFFFFFFFFFFFFFFFFFFFFFFFF AND DUP2 PUSH20 0xFFFFFFFFFFFFFFFFFFFFFFFFFFFFFFFFFFFFFFFF AND EQ ISZERO JUMPDEST DUP1 ISZERO PUSH2 0x3872 JUMPI POP DUP1 PUSH20 0xFFFFFFFFFFFFFFFFFFFFFFFFFFFFFFFFFFFFFFFF AND DUP4 PUSH20 0xFFFFFFFFFFFFFFFFFFFFFFFFFFFFFFFFFFFFFFFF AND EQ ISZERO JUMPDEST PUSH2 0x38B1 JUMPI PUSH1 0x40 MLOAD PUSH32 0x8C379A000000000000000000000000000000000000000000000000000000000 DUP2 MSTORE PUSH1 0x4 ADD PUSH2 0x38A8 SWAP1 PUSH2 0x4B05 JUMP JUMPDEST PUSH1 0x40 MLOAD DUP1 SWAP2 SUB SWAP1 REVERT JUMPDEST PUSH0 PUSH20 0xFFFFFFFFFFFFFFFFFFFFFFFFFFFFFFFFFFFFFFFF AND PUSH1 0x2 PUSH0 DUP4 PUSH20 0xFFFFFFFFFFFFFFFFFFFFFFFFFFFFFFFFFFFFFFFF AND PUSH20 0xFFFFFFFFFFFFFFFFFFFFFFFFFFFFFFFFFFFFFFFF AND DUP2 MSTORE PUSH1 0x20 ADD SWAP1 DUP2 MSTORE PUSH1 0x20 ADD PUSH0 KECCAK256 PUSH0 SWAP1 SLOAD SWAP1 PUSH2 0x100 EXP SWAP1 DIV PUSH20 0xFFFFFFFFFFFFFFFFFFFFFFFFFFFFFFFFFFFFFFFF AND PUSH20 0xFFFFFFFFFFFFFFFFFFFFFFFFFFFFFFFFFFFFFFFF AND EQ PUSH2 0x397B JUMPI PUSH1 0x40 MLOAD PUSH32 0x8C379A000000000000000000000000000000000000000000000000000000000 DUP2 MSTORE PUSH1 0x4 ADD PUSH2 0x3972 SWAP1 PUSH2 0x4B6D JUMP JUMPDEST PUSH1 0x40 MLOAD DUP1 SWAP2 SUB SWAP1 REVERT JUMPDEST DUP1 PUSH1 0x2 PUSH0 DUP6 PUSH20 0xFFFFFFFFFFFFFFFFFFFFFFFFFFFFFFFFFFFFFFFF AND PUSH20 0xFFFFFFFFFFFFFFFFFFFFFFFFFFFFFFFFFFFFFFFF AND DUP2 MSTORE PUSH1 0x20 ADD SWAP1 DUP2 MSTORE PUSH1 0x20 ADD PUSH0 KECCAK256 PUSH0 PUSH2 0x100 EXP DUP2 SLOAD DUP2 PUSH20 0xFFFFFFFFFFFFFFFFFFFFFFFFFFFFFFFFFFFFFFFF MUL NOT AND SWAP1 DUP4 PUSH20 0xFFFFFFFFFFFFFFFFFFFFFFFFFFFFFFFFFFFFFFFF AND MUL OR SWAP1 SSTORE POP DUP1 SWAP3 POP POP DUP1 DUP1 PUSH1 0x1 ADD SWAP2 POP POP PUSH2 0x3772 JUMP JUMPDEST POP PUSH1 0x1 PUSH1 0x2 PUSH0 DUP4 PUSH20 0xFFFFFFFFFFFFFFFFFFFFFFFFFFFFFFFFFFFFFFFF AND PUSH20 0xFFFFFFFFFFFFFFFFFFFFFFFFFFFFFFFFFFFFFFFF AND DUP2 MSTORE PUSH1 0x20 ADD SWAP1 DUP2 MSTORE PUSH1 0x20 ADD PUSH0 KECCAK256 PUSH0 PUSH2 0x100 EXP DUP2 SLOAD DUP2 PUSH20 0xFFFFFFFFFFFFFFFFFFFFFFFFFFFFFFFFFFFFFFFF MUL NOT AND SWAP1 DUP4 PUSH20 0xFFFFFFFFFFFFFFFFFFFFFFFFFFFFFFFFFFFFFFFF AND MUL OR SWAP1 SSTORE POP DUP3 MLOAD PUSH1 0x3 DUP2 SWAP1 SSTORE POP DUP2 PUSH1 0x4 DUP2 SWAP1 SSTORE POP POP POP POP JUMP JUMPDEST PUSH0 PUSH32 0x6C9A6C4A39284E37ED1CF53D337577D14212A4870FB976A4366C693B939918D5 PUSH0 SHL SWAP1 POP DUP2 DUP2 SSTORE POP POP JUMP JUMPDEST PUSH0 PUSH20 0xFFFFFFFFFFFFFFFFFFFFFFFFFFFFFFFFFFFFFFFF AND PUSH1 0x1 PUSH0 PUSH1 0x1 PUSH20 0xFFFFFFFFFFFFFFFFFFFFFFFFFFFFFFFFFFFFFFFF AND PUSH20 0xFFFFFFFFFFFFFFFFFFFFFFFFFFFFFFFFFFFFFFFF AND DUP2 MSTORE PUSH1 0x20 ADD SWAP1 DUP2 MSTORE PUSH1 0x20 ADD PUSH0 KECCAK256 PUSH0 SWAP1 SLOAD SWAP1 PUSH2 0x100 EXP SWAP1 DIV PUSH20 0xFFFFFFFFFFFFFFFFFFFFFFFFFFFFFFFFFFFFFFFF AND PUSH20 0xFFFFFFFFFFFFFFFFFFFFFFFFFFFFFFFFFFFFFFFF AND EQ PUSH2 0x3B90 JUMPI PUSH1 0x40 MLOAD PUSH32 0x8C379A000000000000000000000000000000000000000000000000000000000 DUP2 MSTORE PUSH1 0x4 ADD PUSH2 0x3B87 SWAP1 PUSH2 0x5D62 JUMP JUMPDEST PUSH1 0x40 MLOAD DUP1 SWAP2 SUB SWAP1 REVERT JUMPDEST PUSH1 0x1 DUP1 PUSH0 PUSH1 0x1 PUSH20 0xFFFFFFFFFFFFFFFFFFFFFFFFFFFFFFFFFFFFFFFF AND PUSH20 0xFFFFFFFFFFFFFFFFFFFFFFFFFFFFFFFFFFFFFFFF AND DUP2 MSTORE PUSH1 0x20 ADD SWAP1 DUP2 MSTORE PUSH1 0x20 ADD PUSH0 KECCAK256 PUSH0 PUSH2 0x100 EXP DUP2 SLOAD DUP2 PUSH20 0xFFFFFFFFFFFFFFFFFFFFFFFFFFFFFFFFFFFFFFFF MUL NOT AND SWAP1 DUP4 PUSH20 0xFFFFFFFFFFFFFFFFFFFFFFFFFFFFFFFFFFFFFFFF AND MUL OR SWAP1 SSTORE POP PUSH0 PUSH20 0xFFFFFFFFFFFFFFFFFFFFFFFFFFFFFFFFFFFFFFFF AND DUP3 PUSH20 0xFFFFFFFFFFFFFFFFFFFFFFFFFFFFFFFFFFFFFFFF AND EQ PUSH2 0x3C8D JUMPI PUSH2 0x3C4D DUP3 PUSH0 DUP4 PUSH1 0x1 GAS PUSH2 0x3440 JUMP JUMPDEST PUSH2 0x3C8C JUMPI PUSH1 0x40 MLOAD PUSH32 0x8C379A000000000000000000000000000000000000000000000000000000000 DUP2 MSTORE PUSH1 0x4 ADD PUSH2 0x3C83 SWAP1 PUSH2 0x5DCA JUMP JUMPDEST PUSH1 0x40 MLOAD DUP1 SWAP2 SUB SWAP1 REVERT JUMPDEST JUMPDEST POP POP JUMP JUMPDEST PUSH0 DUP1 PUSH4 0xA9059CBB DUP5 DUP5 PUSH1 0x40 MLOAD PUSH1 0x24 ADD PUSH2 0x3CAB SWAP3 SWAP2 SWAP1 PUSH2 0x5DE8 JUMP JUMPDEST PUSH1 0x40 MLOAD PUSH1 0x20 DUP2 DUP4 SUB SUB DUP2 MSTORE SWAP1 PUSH1 0x40 MSTORE SWAP1 PUSH1 0xE0 SHL PUSH1 0x20 DUP3 ADD DUP1 MLOAD PUSH28 0xFFFFFFFFFFFFFFFFFFFFFFFFFFFFFFFFFFFFFFFFFFFFFFFFFFFFFFFF DUP4 DUP2 DUP4 AND OR DUP4 MSTORE POP POP POP POP SWAP1 POP PUSH1 0x20 PUSH0 DUP3 MLOAD PUSH1 0x20 DUP5 ADD PUSH0 DUP10 PUSH2 0x2710 GAS SUB CALL RETURNDATASIZE PUSH0 DUP2 EQ PUSH2 0x3D17 JUMPI PUSH1 0x20 DUP2 EQ PUSH2 0x3D1F JUMPI PUSH0 SWAP4 POP PUSH2 0x3D29 JUMP JUMPDEST DUP2 SWAP4 POP PUSH2 0x3D29 JUMP JUMPDEST PUSH0 MLOAD ISZERO DUP3 ISZERO OR ISZERO SWAP4 POP JUMPDEST POP POP POP SWAP4 SWAP3 POP POP POP JUMP JUMPDEST PUSH0 DUP2 SWAP1 POP SWAP2 SWAP1 POP JUMP JUMPDEST PUSH2 0x3D45 DUP2 PUSH2 0x3D33 JUMP JUMPDEST DUP3 MSTORE POP POP JUMP JUMPDEST PUSH0 PUSH1 0x20 DUP3 ADD SWAP1 POP PUSH2 0x3D5E PUSH0 DUP4 ADD DUP5 PUSH2 0x3D3C JUMP JUMPDEST SWAP3 SWAP2 POP POP JUMP JUMPDEST PUSH0 PUSH1 0x40 MLOAD SWAP1 POP SWAP1 JUMP JUMPDEST PUSH0 DUP1 REVERT JUMPDEST PUSH0 DUP1 REVERT JUMPDEST PUSH0 PUSH20 0xFFFFFFFFFFFFFFFFFFFFFFFFFFFFFFFFFFFFFFFF DUP3 AND SWAP1 POP SWAP2 SWAP1 POP JUMP JUMPDEST PUSH0 PUSH2 0x3D9E DUP3 PUSH2 0x3D75 JUMP JUMPDEST SWAP1 POP SWAP2 SWAP1 POP JUMP JUMPDEST PUSH2 0x3DAE DUP2 PUSH2 0x3D94 JUMP JUMPDEST DUP2 EQ PUSH2 0x3DB8 JUMPI PUSH0 DUP1 REVERT JUMPDEST POP JUMP JUMPDEST PUSH0 DUP2 CALLDATALOAD SWAP1 POP PUSH2 0x3DC9 DUP2 PUSH2 0x3DA5 JUMP JUMPDEST SWAP3 SWAP2 POP POP JUMP JUMPDEST PUSH2 0x3DD8 DUP2 PUSH2 0x3D33 JUMP JUMPDEST DUP2 EQ PUSH2 0x3DE2 JUMPI PUSH0 DUP1 REVERT JUMPDEST POP JUMP JUMPDEST PUSH0 DUP2 CALLDATALOAD SWAP1 POP PUSH2 0x3DF3 DUP2 PUSH2 0x3DCF JUMP JUMPDEST SWAP3 SWAP2 POP POP JUMP JUMPDEST PUSH0 DUP1 PUSH1 0x40 DUP4 DUP6 SUB SLT ISZERO PUSH2 0x3E0F JUMPI PUSH2 0x3E0E PUSH2 0x3D6D JUMP JUMPDEST JUMPDEST PUSH0 PUSH2 0x3E1C DUP6 DUP3 DUP7 ADD PUSH2 0x3DBB JUMP JUMPDEST SWAP3 POP POP PUSH1 0x20 PUSH2 0x3E2D DUP6 DUP3 DUP7 ADD PUSH2 0x3DE5 JUMP JUMPDEST SWAP2 POP POP SWAP3 POP SWAP3 SWAP1 POP JUMP JUMPDEST PUSH0 DUP2 SWAP1 POP SWAP2 SWAP1 POP JUMP JUMPDEST PUSH2 0x3E49 DUP2 PUSH2 0x3E37 JUMP JUMPDEST DUP2 EQ PUSH2 0x3E53 JUMPI PUSH0 DUP1 REVERT JUMPDEST POP JUMP JUMPDEST PUSH0 DUP2 CALLDATALOAD SWAP1 POP PUSH2 0x3E64 DUP2 PUSH2 0x3E40 JUMP JUMPDEST SWAP3 SWAP2 POP POP JUMP JUMPDEST PUSH0 DUP1 REVERT JUMPDEST PUSH0 DUP1 REVERT JUMPDEST PUSH0 PUSH1 0x1F NOT PUSH1 0x1F DUP4 ADD AND SWAP1 POP SWAP2 SWAP1 POP JUMP JUMPDEST PUSH32 0x4E487B7100000000000000000000000000000000000000000000000000000000 PUSH0 MSTORE PUSH1 0x41 PUSH1 0x4 MSTORE PUSH1 0x24 PUSH0 REVERT JUMPDEST PUSH2 0x3EB8 DUP3 PUSH2 0x3E72 JUMP JUMPDEST DUP2 ADD DUP2 DUP2 LT PUSH8 0xFFFFFFFFFFFFFFFF DUP3 GT OR ISZERO PUSH2 0x3ED7 JUMPI PUSH2 0x3ED6 PUSH2 0x3E82 JUMP JUMPDEST JUMPDEST DUP1 PUSH1 0x40 MSTORE POP POP POP JUMP JUMPDEST PUSH0 PUSH2 0x3EE9 PUSH2 0x3D64 JUMP JUMPDEST SWAP1 POP PUSH2 0x3EF5 DUP3 DUP3 PUSH2 0x3EAF JUMP JUMPDEST SWAP2 SWAP1 POP JUMP JUMPDEST PUSH0 PUSH8 0xFFFFFFFFFFFFFFFF DUP3 GT ISZERO PUSH2 0x3F14 JUMPI PUSH2 0x3F13 PUSH2 0x3E82 JUMP JUMPDEST JUMPDEST PUSH2 0x3F1D DUP3 PUSH2 0x3E72 JUMP JUMPDEST SWAP1 POP PUSH1 0x20 DUP2 ADD SWAP1 POP SWAP2 SWAP1 POP JUMP JUMPDEST DUP3 DUP2 DUP4 CALLDATACOPY PUSH0 DUP4 DUP4 ADD MSTORE POP POP POP JUMP JUMPDEST PUSH0 PUSH2 0x3F4A PUSH2 0x3F45 DUP5 PUSH2 0x3EFA JUMP JUMPDEST PUSH2 0x3EE0 JUMP JUMPDEST SWAP1 POP DUP3 DUP2 MSTORE PUSH1 0x20 DUP2 ADD DUP5 DUP5 DUP5 ADD GT ISZERO PUSH2 0x3F66 JUMPI PUSH2 0x3F65 PUSH2 0x3E6E JUMP JUMPDEST JUMPDEST PUSH2 0x3F71 DUP5 DUP3 DUP6 PUSH2 0x3F2A JUMP JUMPDEST POP SWAP4 SWAP3 POP POP POP JUMP JUMPDEST PUSH0 DUP3 PUSH1 0x1F DUP4 ADD SLT PUSH2 0x3F8D JUMPI PUSH2 0x3F8C PUSH2 0x3E6A JUMP JUMPDEST JUMPDEST DUP2 CALLDATALOAD PUSH2 0x3F9D DUP5 DUP3 PUSH1 0x20 DUP7 ADD PUSH2 0x3F38 JUMP JUMPDEST SWAP2 POP POP SWAP3 SWAP2 POP POP JUMP JUMPDEST PUSH0 DUP1 PUSH0 DUP1 PUSH1 0x80 DUP6 DUP8 SUB SLT ISZERO PUSH2 0x3FBE JUMPI PUSH2 0x3FBD PUSH2 0x3D6D JUMP JUMPDEST JUMPDEST PUSH0 PUSH2 0x3FCB DUP8 DUP3 DUP9 ADD PUSH2 0x3E56 JUMP JUMPDEST SWAP5 POP POP PUSH1 0x20 DUP6 ADD CALLDATALOAD PUSH8 0xFFFFFFFFFFFFFFFF DUP2 GT ISZERO PUSH2 0x3FEC JUMPI PUSH2 0x3FEB PUSH2 0x3D71 JUMP JUMPDEST JUMPDEST PUSH2 0x3FF8 DUP8 DUP3 DUP9 ADD PUSH2 0x3F79 JUMP JUMPDEST SWAP4 POP POP PUSH1 0x40 DUP6 ADD CALLDATALOAD PUSH8 0xFFFFFFFFFFFFFFFF DUP2 GT ISZERO PUSH2 0x4019 JUMPI PUSH2 0x4018 PUSH2 0x3D71 JUMP JUMPDEST JUMPDEST PUSH2 0x4025 DUP8 DUP3 DUP9 ADD PUSH2 0x3F79 JUMP JUMPDEST SWAP3 POP POP PUSH1 0x60 PUSH2 0x4036 DUP8 DUP3 DUP9 ADD PUSH2 0x3DE5 JUMP JUMPDEST SWAP2 POP POP SWAP3 SWAP6 SWAP2 SWAP5 POP SWAP3 POP JUMP JUMPDEST PUSH0 PUSH1 0x20 DUP3 DUP5 SUB SLT ISZERO PUSH2 0x4057 JUMPI PUSH2 0x4056 PUSH2 0x3D6D JUMP JUMPDEST JUMPDEST PUSH0 PUSH2 0x4064 DUP5 DUP3 DUP6 ADD PUSH2 0x3DBB JUMP JUMPDEST SWAP2 POP POP SWAP3 SWAP2 POP POP JUMP JUMPDEST PUSH0 DUP2 ISZERO ISZERO SWAP1 POP SWAP2 SWAP1 POP JUMP JUMPDEST PUSH2 0x4081 DUP2 PUSH2 0x406D JUMP JUMPDEST DUP3 MSTORE POP POP JUMP JUMPDEST PUSH0 PUSH1 0x20 DUP3 ADD SWAP1 POP PUSH2 0x409A PUSH0 DUP4 ADD DUP5 PUSH2 0x4078 JUMP JUMPDEST SWAP3 SWAP2 POP POP JUMP JUMPDEST PUSH1 0x2 DUP2 LT PUSH2 0x40AC JUMPI PUSH0 DUP1 REVERT JUMPDEST POP JUMP JUMPDEST PUSH0 DUP2 CALLDATALOAD SWAP1 POP PUSH2 0x40BD DUP2 PUSH2 0x40A0 JUMP JUMPDEST SWAP3 SWAP2 POP POP JUMP JUMPDEST PUSH0 DUP1 PUSH0 DUP1 PUSH1 0x80 DUP6 DUP8 SUB SLT ISZERO PUSH2 0x40DB JUMPI PUSH2 0x40DA PUSH2 0x3D6D JUMP JUMPDEST JUMPDEST PUSH0 PUSH2 0x40E8 DUP8 DUP3 DUP9 ADD PUSH2 0x3DBB JUMP JUMPDEST SWAP5 POP POP PUSH1 0x20 PUSH2 0x40F9 DUP8 DUP3 DUP9 ADD PUSH2 0x3DE5 JUMP JUMPDEST SWAP4 POP POP PUSH1 0x40 DUP6 ADD CALLDATALOAD PUSH8 0xFFFFFFFFFFFFFFFF DUP2 GT ISZERO PUSH2 0x411A JUMPI PUSH2 0x4119 PUSH2 0x3D71 JUMP JUMPDEST JUMPDEST PUSH2 0x4126 DUP8 DUP3 DUP9 ADD PUSH2 0x3F79 JUMP JUMPDEST SWAP3 POP POP PUSH1 0x60 PUSH2 0x4137 DUP8 DUP3 DUP9 ADD PUSH2 0x40AF JUMP JUMPDEST SWAP2 POP POP SWAP3 SWAP6 SWAP2 SWAP5 POP SWAP3 POP JUMP JUMPDEST PUSH0 DUP2 MLOAD SWAP1 POP SWAP2 SWAP1 POP JUMP JUMPDEST PUSH0 DUP3 DUP3 MSTORE PUSH1 0x20 DUP3 ADD SWAP1 POP SWAP3 SWAP2 POP POP JUMP JUMPDEST PUSH0 JUMPDEST DUP4 DUP2 LT ISZERO PUSH2 0x417A JUMPI DUP1 DUP3 ADD MLOAD DUP2 DUP5 ADD MSTORE PUSH1 0x20 DUP2 ADD SWAP1 POP PUSH2 0x415F JUMP JUMPDEST PUSH0 DUP5 DUP5 ADD MSTORE POP POP POP POP JUMP JUMPDEST PUSH0 PUSH2 0x418F DUP3 PUSH2 0x4143 JUMP JUMPDEST PUSH2 0x4199 DUP2 DUP6 PUSH2 0x414D JUMP JUMPDEST SWAP4 POP PUSH2 0x41A9 DUP2 DUP6 PUSH1 0x20 DUP7 ADD PUSH2 0x415D JUMP JUMPDEST PUSH2 0x41B2 DUP2 PUSH2 0x3E72 JUMP JUMPDEST DUP5 ADD SWAP2 POP POP SWAP3 SWAP2 POP POP JUMP JUMPDEST PUSH0 PUSH1 0x40 DUP3 ADD SWAP1 POP PUSH2 0x41D0 PUSH0 DUP4 ADD DUP6 PUSH2 0x4078 JUMP JUMPDEST DUP2 DUP2 SUB PUSH1 0x20 DUP4 ADD MSTORE PUSH2 0x41E2 DUP2 DUP5 PUSH2 0x4185 JUMP JUMPDEST SWAP1 POP SWAP4 SWAP3 POP POP POP JUMP JUMPDEST PUSH0 DUP1 PUSH1 0x40 DUP4 DUP6 SUB SLT ISZERO PUSH2 0x4201 JUMPI PUSH2 0x4200 PUSH2 0x3D6D JUMP JUMPDEST JUMPDEST PUSH0 PUSH2 0x420E DUP6 DUP3 DUP7 ADD PUSH2 0x3DE5 JUMP JUMPDEST SWAP3 POP POP PUSH1 0x20 PUSH2 0x421F DUP6 DUP3 DUP7 ADD PUSH2 0x3DE5 JUMP JUMPDEST SWAP2 POP POP SWAP3 POP SWAP3 SWAP1 POP JUMP JUMPDEST PUSH0 PUSH1 0x20 DUP3 ADD SWAP1 POP DUP2 DUP2 SUB PUSH0 DUP4 ADD MSTORE PUSH2 0x4241 DUP2 DUP5 PUSH2 0x4185 JUMP JUMPDEST SWAP1 POP SWAP3 SWAP2 POP POP JUMP JUMPDEST PUSH0 PUSH1 0x20 DUP3 DUP5 SUB SLT ISZERO PUSH2 0x425E JUMPI PUSH2 0x425D PUSH2 0x3D6D JUMP JUMPDEST JUMPDEST PUSH0 PUSH2 0x426B DUP5 DUP3 DUP6 ADD PUSH2 0x3E56 JUMP JUMPDEST SWAP2 POP POP SWAP3 SWAP2 POP POP JUMP JUMPDEST PUSH0 PUSH1 0x20 DUP3 DUP5 SUB SLT ISZERO PUSH2 0x4289 JUMPI PUSH2 0x4288 PUSH2 0x3D6D JUMP JUMPDEST JUMPDEST PUSH0 PUSH2 0x4296 DUP5 DUP3 DUP6 ADD PUSH2 0x3DE5 JUMP JUMPDEST SWAP2 POP POP SWAP3 SWAP2 POP POP JUMP JUMPDEST PUSH0 DUP1 REVERT JUMPDEST PUSH0 DUP1 REVERT JUMPDEST PUSH0 DUP1 DUP4 PUSH1 0x1F DUP5 ADD SLT PUSH2 0x42BC JUMPI PUSH2 0x42BB PUSH2 0x3E6A JUMP JUMPDEST JUMPDEST DUP3 CALLDATALOAD SWAP1 POP PUSH8 0xFFFFFFFFFFFFFFFF DUP2 GT ISZERO PUSH2 0x42D9 JUMPI PUSH2 0x42D8 PUSH2 0x429F JUMP JUMPDEST JUMPDEST PUSH1 0x20 DUP4 ADD SWAP2 POP DUP4 PUSH1 0x1 DUP3 MUL DUP4 ADD GT ISZERO PUSH2 0x42F5 JUMPI PUSH2 0x42F4 PUSH2 0x42A3 JUMP JUMPDEST JUMPDEST SWAP3 POP SWAP3 SWAP1 POP JUMP JUMPDEST PUSH0 PUSH2 0x4306 DUP3 PUSH2 0x3D75 JUMP JUMPDEST SWAP1 POP SWAP2 SWAP1 POP JUMP JUMPDEST PUSH2 0x4316 DUP2 PUSH2 0x42FC JUMP JUMPDEST DUP2 EQ PUSH2 0x4320 JUMPI PUSH0 DUP1 REVERT JUMPDEST POP JUMP JUMPDEST PUSH0 DUP2 CALLDATALOAD SWAP1 POP PUSH2 0x4331 DUP2 PUSH2 0x430D JUMP JUMPDEST SWAP3 SWAP2 POP POP JUMP JUMPDEST PUSH0 DUP1 PUSH0 DUP1 PUSH0 DUP1 PUSH0 DUP1 PUSH0 DUP1 PUSH0 PUSH2 0x140 DUP13 DUP15 SUB SLT ISZERO PUSH2 0x4357 JUMPI PUSH2 0x4356 PUSH2 0x3D6D JUMP JUMPDEST JUMPDEST PUSH0 PUSH2 0x4364 DUP15 DUP3 DUP16 ADD PUSH2 0x3DBB JUMP JUMPDEST SWAP12 POP POP PUSH1 0x20 PUSH2 0x4375 DUP15 DUP3 DUP16 ADD PUSH2 0x3DE5 JUMP JUMPDEST SWAP11 POP POP PUSH1 0x40 DUP13 ADD CALLDATALOAD PUSH8 0xFFFFFFFFFFFFFFFF DUP2 GT ISZERO PUSH2 0x4396 JUMPI PUSH2 0x4395 PUSH2 0x3D71 JUMP JUMPDEST JUMPDEST PUSH2 0x43A2 DUP15 DUP3 DUP16 ADD PUSH2 0x42A7 JUMP JUMPDEST SWAP10 POP SWAP10 POP POP PUSH1 0x60 PUSH2 0x43B5 DUP15 DUP3 DUP16 ADD PUSH2 0x40AF JUMP JUMPDEST SWAP8 POP POP PUSH1 0x80 PUSH2 0x43C6 DUP15 DUP3 DUP16 ADD PUSH2 0x3DE5 JUMP JUMPDEST SWAP7 POP POP PUSH1 0xA0 PUSH2 0x43D7 DUP15 DUP3 DUP16 ADD PUSH2 0x3DE5 JUMP JUMPDEST SWAP6 POP POP PUSH1 0xC0 PUSH2 0x43E8 DUP15 DUP3 DUP16 ADD PUSH2 0x3DE5 JUMP JUMPDEST SWAP5 POP POP PUSH1 0xE0 PUSH2 0x43F9 DUP15 DUP3 DUP16 ADD PUSH2 0x3DBB JUMP JUMPDEST SWAP4 POP POP PUSH2 0x100 PUSH2 0x440B DUP15 DUP3 DUP16 ADD PUSH2 0x4323 JUMP JUMPDEST SWAP3 POP POP PUSH2 0x120 DUP13 ADD CALLDATALOAD PUSH8 0xFFFFFFFFFFFFFFFF DUP2 GT ISZERO PUSH2 0x442D JUMPI PUSH2 0x442C PUSH2 0x3D71 JUMP JUMPDEST JUMPDEST PUSH2 0x4439 DUP15 DUP3 DUP16 ADD PUSH2 0x3F79 JUMP JUMPDEST SWAP2 POP POP SWAP3 SWAP6 SWAP9 SWAP12 POP SWAP3 SWAP6 SWAP9 SWAP12 SWAP1 SWAP4 SWAP7 SWAP10 POP JUMP JUMPDEST PUSH0 DUP1 PUSH1 0x40 DUP4 DUP6 SUB SLT ISZERO PUSH2 0x4462 JUMPI PUSH2 0x4461 PUSH2 0x3D6D JUMP JUMPDEST JUMPDEST PUSH0 PUSH2 0x446F DUP6 DUP3 DUP7 ADD PUSH2 0x3DBB JUMP JUMPDEST SWAP3 POP POP PUSH1 0x20 PUSH2 0x4480 DUP6 DUP3 DUP7 ADD PUSH2 0x3E56 JUMP JUMPDEST SWAP2 POP POP SWAP3 POP SWAP3 SWAP1 POP JUMP JUMPDEST PUSH0 DUP1 PUSH0 PUSH1 0x60 DUP5 DUP7 SUB SLT ISZERO PUSH2 0x44A1 JUMPI PUSH2 0x44A0 PUSH2 0x3D6D JUMP JUMPDEST JUMPDEST PUSH0 PUSH2 0x44AE DUP7 DUP3 DUP8 ADD PUSH2 0x3E56 JUMP JUMPDEST SWAP4 POP POP PUSH1 0x20 DUP5 ADD CALLDATALOAD PUSH8 0xFFFFFFFFFFFFFFFF DUP2 GT ISZERO PUSH2 0x44CF JUMPI PUSH2 0x44CE PUSH2 0x3D71 JUMP JUMPDEST JUMPDEST PUSH2 0x44DB DUP7 DUP3 DUP8 ADD PUSH2 0x3F79 JUMP JUMPDEST SWAP3 POP POP PUSH1 0x40 DUP5 ADD CALLDATALOAD PUSH8 0xFFFFFFFFFFFFFFFF DUP2 GT ISZERO PUSH2 0x44FC JUMPI PUSH2 0x44FB PUSH2 0x3D71 JUMP JUMPDEST JUMPDEST PUSH2 0x4508 DUP7 DUP3 DUP8 ADD PUSH2 0x3F79 JUMP JUMPDEST SWAP2 POP POP SWAP3 POP SWAP3 POP SWAP3 JUMP JUMPDEST PUSH0 DUP2 MLOAD SWAP1 POP SWAP2 SWAP1 POP JUMP JUMPDEST PUSH0 DUP3 DUP3 MSTORE PUSH1 0x20 DUP3 ADD SWAP1 POP SWAP3 SWAP2 POP POP JUMP JUMPDEST PUSH0 DUP2 SWAP1 POP PUSH1 0x20 DUP3 ADD SWAP1 POP SWAP2 SWAP1 POP JUMP JUMPDEST PUSH2 0x4544 DUP2 PUSH2 0x3D94 JUMP JUMPDEST DUP3 MSTORE POP POP JUMP JUMPDEST PUSH0 PUSH2 0x4555 DUP4 DUP4 PUSH2 0x453B JUMP JUMPDEST PUSH1 0x20 DUP4 ADD SWAP1 POP SWAP3 SWAP2 POP POP JUMP JUMPDEST PUSH0 PUSH1 0x20 DUP3 ADD SWAP1 POP SWAP2 SWAP1 POP JUMP JUMPDEST PUSH0 PUSH2 0x4577 DUP3 PUSH2 0x4512 JUMP JUMPDEST PUSH2 0x4581 DUP2 DUP6 PUSH2 0x451C JUMP JUMPDEST SWAP4 POP PUSH2 0x458C DUP4 PUSH2 0x452C JUMP JUMPDEST DUP1 PUSH0 JUMPDEST DUP4 DUP2 LT ISZERO PUSH2 0x45BC JUMPI DUP2 MLOAD PUSH2 0x45A3 DUP9 DUP3 PUSH2 0x454A JUMP JUMPDEST SWAP8 POP PUSH2 0x45AE DUP4 PUSH2 0x4561 JUMP JUMPDEST SWAP3 POP POP PUSH1 0x1 DUP2 ADD SWAP1 POP PUSH2 0x458F JUMP JUMPDEST POP DUP6 SWAP4 POP POP POP POP SWAP3 SWAP2 POP POP JUMP JUMPDEST PUSH0 PUSH1 0x20 DUP3 ADD SWAP1 POP DUP2 DUP2 SUB PUSH0 DUP4 ADD MSTORE PUSH2 0x45E1 DUP2 DUP5 PUSH2 0x456D JUMP JUMPDEST SWAP1 POP SWAP3 SWAP2 POP POP JUMP JUMPDEST PUSH0 DUP1 PUSH1 0x40 DUP4 DUP6 SUB SLT ISZERO PUSH2 0x45FF JUMPI PUSH2 0x45FE PUSH2 0x3D6D JUMP JUMPDEST JUMPDEST PUSH0 PUSH2 0x460C DUP6 DUP3 DUP7 ADD PUSH2 0x3DBB JUMP JUMPDEST SWAP3 POP POP PUSH1 0x20 DUP4 ADD CALLDATALOAD PUSH8 0xFFFFFFFFFFFFFFFF DUP2 GT ISZERO PUSH2 0x462D JUMPI PUSH2 0x462C PUSH2 0x3D71 JUMP JUMPDEST JUMPDEST PUSH2 0x4639 DUP6 DUP3 DUP7 ADD PUSH2 0x3F79 JUMP JUMPDEST SWAP2 POP POP SWAP3 POP SWAP3 SWAP1 POP JUMP JUMPDEST PUSH0 DUP1 DUP4 PUSH1 0x1F DUP5 ADD SLT PUSH2 0x4658 JUMPI PUSH2 0x4657 PUSH2 0x3E6A JUMP JUMPDEST JUMPDEST DUP3 CALLDATALOAD SWAP1 POP PUSH8 0xFFFFFFFFFFFFFFFF DUP2 GT ISZERO PUSH2 0x4675 JUMPI PUSH2 0x4674 PUSH2 0x429F JUMP JUMPDEST JUMPDEST PUSH1 0x20 DUP4 ADD SWAP2 POP DUP4 PUSH1 0x20 DUP3 MUL DUP4 ADD GT ISZERO PUSH2 0x4691 JUMPI PUSH2 0x4690 PUSH2 0x42A3 JUMP JUMPDEST JUMPDEST SWAP3 POP SWAP3 SWAP1 POP JUMP JUMPDEST PUSH0 DUP1 PUSH0 DUP1 PUSH0 DUP1 PUSH0 DUP1 PUSH0 DUP1 PUSH2 0x100 DUP12 DUP14 SUB SLT ISZERO PUSH2 0x46B7 JUMPI PUSH2 0x46B6 PUSH2 0x3D6D JUMP JUMPDEST JUMPDEST PUSH0 DUP12 ADD CALLDATALOAD PUSH8 0xFFFFFFFFFFFFFFFF DUP2 GT ISZERO PUSH2 0x46D4 JUMPI PUSH2 0x46D3 PUSH2 0x3D71 JUMP JUMPDEST JUMPDEST PUSH2 0x46E0 DUP14 DUP3 DUP15 ADD PUSH2 0x4643 JUMP JUMPDEST SWAP11 POP SWAP11 POP POP PUSH1 0x20 PUSH2 0x46F3 DUP14 DUP3 DUP15 ADD PUSH2 0x3DE5 JUMP JUMPDEST SWAP9 POP POP PUSH1 0x40 PUSH2 0x4704 DUP14 DUP3 DUP15 ADD PUSH2 0x3DBB JUMP JUMPDEST SWAP8 POP POP PUSH1 0x60 DUP12 ADD CALLDATALOAD PUSH8 0xFFFFFFFFFFFFFFFF DUP2 GT ISZERO PUSH2 0x4725 JUMPI PUSH2 0x4724 PUSH2 0x3D71 JUMP JUMPDEST JUMPDEST PUSH2 0x4731 DUP14 DUP3 DUP15 ADD PUSH2 0x42A7 JUMP JUMPDEST SWAP7 POP SWAP7 POP POP PUSH1 0x80 PUSH2 0x4744 DUP14 DUP3 DUP15 ADD PUSH2 0x3DBB JUMP JUMPDEST SWAP5 POP POP PUSH1 0xA0 PUSH2 0x4755 DUP14 DUP3 DUP15 ADD PUSH2 0x3DBB JUMP JUMPDEST SWAP4 POP POP PUSH1 0xC0 PUSH2 0x4766 DUP14 DUP3 DUP15 ADD PUSH2 0x3DE5 JUMP JUMPDEST SWAP3 POP POP PUSH1 0xE0 PUSH2 0x4777 DUP14 DUP3 DUP15 ADD PUSH2 0x4323 JUMP JUMPDEST SWAP2 POP POP SWAP3 SWAP6 SWAP9 SWAP12 SWAP2 SWAP5 SWAP8 SWAP11 POP SWAP3 SWAP6 SWAP9 POP JUMP JUMPDEST PUSH0 DUP1 PUSH0 DUP1 PUSH0 PUSH1 0x80 DUP7 DUP9 SUB SLT ISZERO PUSH2 0x47A2 JUMPI PUSH2 0x47A1 PUSH2 0x3D6D JUMP JUMPDEST JUMPDEST PUSH0 PUSH2 0x47AF DUP9 DUP3 DUP10 ADD PUSH2 0x3DBB JUMP JUMPDEST SWAP6 POP POP PUSH1 0x20 PUSH2 0x47C0 DUP9 DUP3 DUP10 ADD PUSH2 0x3DE5 JUMP JUMPDEST SWAP5 POP POP PUSH1 0x40 DUP7 ADD CALLDATALOAD PUSH8 0xFFFFFFFFFFFFFFFF DUP2 GT ISZERO PUSH2 0x47E1 JUMPI PUSH2 0x47E0 PUSH2 0x3D71 JUMP JUMPDEST JUMPDEST PUSH2 0x47ED DUP9 DUP3 DUP10 ADD PUSH2 0x42A7 JUMP JUMPDEST SWAP4 POP SWAP4 POP POP PUSH1 0x60 PUSH2 0x4800 DUP9 DUP3 DUP10 ADD PUSH2 0x40AF JUMP JUMPDEST SWAP2 POP POP SWAP3 SWAP6 POP SWAP3 SWAP6 SWAP1 SWAP4 POP JUMP JUMPDEST PUSH2 0x4816 DUP2 PUSH2 0x3D94 JUMP JUMPDEST DUP3 MSTORE POP POP JUMP JUMPDEST PUSH0 PUSH1 0x40 DUP3 ADD SWAP1 POP DUP2 DUP2 SUB PUSH0 DUP4 ADD MSTORE PUSH2 0x4834 DUP2 DUP6 PUSH2 0x456D JUMP JUMPDEST SWAP1 POP PUSH2 0x4843 PUSH1 0x20 DUP4 ADD DUP5 PUSH2 0x480D JUMP JUMPDEST SWAP4 SWAP3 POP POP POP JUMP JUMPDEST PUSH0 DUP1 PUSH0 DUP1 PUSH0 DUP1 PUSH0 DUP1 PUSH0 DUP1 PUSH0 PUSH2 0x140 DUP13 DUP15 SUB SLT ISZERO PUSH2 0x486A JUMPI PUSH2 0x4869 PUSH2 0x3D6D JUMP JUMPDEST JUMPDEST PUSH0 PUSH2 0x4877 DUP15 DUP3 DUP16 ADD PUSH2 0x3DBB JUMP JUMPDEST SWAP12 POP POP PUSH1 0x20 PUSH2 0x4888 DUP15 DUP3 DUP16 ADD PUSH2 0x3DE5 JUMP JUMPDEST SWAP11 POP POP PUSH1 0x40 DUP13 ADD CALLDATALOAD PUSH8 0xFFFFFFFFFFFFFFFF DUP2 GT ISZERO PUSH2 0x48A9 JUMPI PUSH2 0x48A8 PUSH2 0x3D71 JUMP JUMPDEST JUMPDEST PUSH2 0x48B5 DUP15 DUP3 DUP16 ADD PUSH2 0x42A7 JUMP JUMPDEST SWAP10 POP SWAP10 POP POP PUSH1 0x60 PUSH2 0x48C8 DUP15 DUP3 DUP16 ADD PUSH2 0x40AF JUMP JUMPDEST SWAP8 POP POP PUSH1 0x80 PUSH2 0x48D9 DUP15 DUP3 DUP16 ADD PUSH2 0x3DE5 JUMP JUMPDEST SWAP7 POP POP PUSH1 0xA0 PUSH2 0x48EA DUP15 DUP3 DUP16 ADD PUSH2 0x3DE5 JUMP JUMPDEST SWAP6 POP POP PUSH1 0xC0 PUSH2 0x48FB DUP15 DUP3 DUP16 ADD PUSH2 0x3DE5 JUMP JUMPDEST SWAP5 POP POP PUSH1 0xE0 PUSH2 0x490C DUP15 DUP3 DUP16 ADD PUSH2 0x3DBB JUMP JUMPDEST SWAP4 POP POP PUSH2 0x100 PUSH2 0x491E DUP15 DUP3 DUP16 ADD PUSH2 0x3DBB JUMP JUMPDEST SWAP3 POP POP PUSH2 0x120 PUSH2 0x4930 DUP15 DUP3 DUP16 ADD PUSH2 0x3DE5 JUMP JUMPDEST SWAP2 POP POP SWAP3 SWAP6 SWAP9 SWAP12 POP SWAP3 SWAP6 SWAP9 SWAP12 SWAP1 SWAP4 SWAP7 SWAP10 POP JUMP JUMPDEST PUSH2 0x494C DUP2 PUSH2 0x3E37 JUMP JUMPDEST DUP3 MSTORE POP POP JUMP JUMPDEST PUSH0 PUSH1 0x20 DUP3 ADD SWAP1 POP PUSH2 0x4965 PUSH0 DUP4 ADD DUP5 PUSH2 0x4943 JUMP JUMPDEST SWAP3 SWAP2 POP POP JUMP JUMPDEST PUSH0 DUP1 PUSH1 0x40 DUP4 DUP6 SUB SLT ISZERO PUSH2 0x4981 JUMPI PUSH2 0x4980 PUSH2 0x3D6D JUMP JUMPDEST JUMPDEST PUSH0 PUSH2 0x498E DUP6 DUP3 DUP7 ADD PUSH2 0x3DBB JUMP JUMPDEST SWAP3 POP POP PUSH1 0x20 PUSH2 0x499F DUP6 DUP3 DUP7 ADD PUSH2 0x3DBB JUMP JUMPDEST SWAP2 POP POP SWAP3 POP SWAP3 SWAP1 POP JUMP JUMPDEST PUSH0 DUP1 PUSH0 PUSH1 0x60 DUP5 DUP7 SUB SLT ISZERO PUSH2 0x49C0 JUMPI PUSH2 0x49BF PUSH2 0x3D6D JUMP JUMPDEST JUMPDEST PUSH0 PUSH2 0x49CD DUP7 DUP3 DUP8 ADD PUSH2 0x3DBB JUMP JUMPDEST SWAP4 POP POP PUSH1 0x20 PUSH2 0x49DE DUP7 DUP3 DUP8 ADD PUSH2 0x3DBB JUMP JUMPDEST SWAP3 POP POP PUSH1 0x40 PUSH2 0x49EF DUP7 DUP3 DUP8 ADD PUSH2 0x3DBB JUMP JUMPDEST SWAP2 POP POP SWAP3 POP SWAP3 POP SWAP3 JUMP JUMPDEST PUSH0 DUP1 PUSH0 PUSH1 0x60 DUP5 DUP7 SUB SLT ISZERO PUSH2 0x4A10 JUMPI PUSH2 0x4A0F PUSH2 0x3D6D JUMP JUMPDEST JUMPDEST PUSH0 PUSH2 0x4A1D DUP7 DUP3 DUP8 ADD PUSH2 0x3DBB JUMP JUMPDEST SWAP4 POP POP PUSH1 0x20 PUSH2 0x4A2E DUP7 DUP3 DUP8 ADD PUSH2 0x3DBB JUMP JUMPDEST SWAP3 POP POP PUSH1 0x40 PUSH2 0x4A3F DUP7 DUP3 DUP8 ADD PUSH2 0x3DE5 JUMP JUMPDEST SWAP2 POP POP SWAP3 POP SWAP3 POP SWAP3 JUMP JUMPDEST PUSH0 DUP2 MLOAD SWAP1 POP SWAP2 SWAP1 POP JUMP JUMPDEST PUSH0 DUP3 DUP3 MSTORE PUSH1 0x20 DUP3 ADD SWAP1 POP SWAP3 SWAP2 POP POP JUMP JUMPDEST PUSH0 PUSH2 0x4A6D DUP3 PUSH2 0x4A49 JUMP JUMPDEST PUSH2 0x4A77 DUP2 DUP6 PUSH2 0x4A53 JUMP JUMPDEST SWAP4 POP PUSH2 0x4A87 DUP2 DUP6 PUSH1 0x20 DUP7 ADD PUSH2 0x415D JUMP JUMPDEST PUSH2 0x4A90 DUP2 PUSH2 0x3E72 JUMP JUMPDEST DUP5 ADD SWAP2 POP POP SWAP3 SWAP2 POP POP JUMP JUMPDEST PUSH0 PUSH1 0x20 DUP3 ADD SWAP1 POP DUP2 DUP2 SUB PUSH0 DUP4 ADD MSTORE PUSH2 0x4AB3 DUP2 DUP5 PUSH2 0x4A63 JUMP JUMPDEST SWAP1 POP SWAP3 SWAP2 POP POP JUMP JUMPDEST PUSH32 0x4753323033000000000000000000000000000000000000000000000000000000 PUSH0 DUP3 ADD MSTORE POP JUMP JUMPDEST PUSH0 PUSH2 0x4AEF PUSH1 0x5 DUP4 PUSH2 0x4A53 JUMP JUMPDEST SWAP2 POP PUSH2 0x4AFA DUP3 PUSH2 0x4ABB JUMP JUMPDEST PUSH1 0x20 DUP3 ADD SWAP1 POP SWAP2 SWAP1 POP JUMP JUMPDEST PUSH0 PUSH1 0x20 DUP3 ADD SWAP1 POP DUP2 DUP2 SUB PUSH0 DUP4 ADD MSTORE PUSH2 0x4B1C DUP2 PUSH2 0x4AE3 JUMP JUMPDEST SWAP1 POP SWAP2 SWAP1 POP JUMP JUMPDEST PUSH32 0x4753323034000000000000000000000000000000000000000000000000000000 PUSH0 DUP3 ADD MSTORE POP JUMP JUMPDEST PUSH0 PUSH2 0x4B57 PUSH1 0x5 DUP4 PUSH2 0x4A53 JUMP JUMPDEST SWAP2 POP PUSH2 0x4B62 DUP3 PUSH2 0x4B23 JUMP JUMPDEST PUSH1 0x20 DUP3 ADD SWAP1 POP SWAP2 SWAP1 POP JUMP JUMPDEST PUSH0 PUSH1 0x20 DUP3 ADD SWAP1 POP DUP2 DUP2 SUB PUSH0 DUP4 ADD MSTORE PUSH2 0x4B84 DUP2 PUSH2 0x4B4B JUMP JUMPDEST SWAP1 POP SWAP2 SWAP1 POP JUMP JUMPDEST PUSH32 0x4E487B7100000000000000000000000000000000000000000000000000000000 PUSH0 MSTORE PUSH1 0x11 PUSH1 0x4 MSTORE PUSH1 0x24 PUSH0 REVERT JUMPDEST PUSH0 PUSH2 0x4BC2 DUP3 PUSH2 0x3D33 JUMP JUMPDEST SWAP2 POP PUSH32 0xFFFFFFFFFFFFFFFFFFFFFFFFFFFFFFFFFFFFFFFFFFFFFFFFFFFFFFFFFFFFFFFF DUP3 SUB PUSH2 0x4BF4 JUMPI PUSH2 0x4BF3 PUSH2 0x4B8B JUMP JUMPDEST JUMPDEST PUSH1 0x1 DUP3 ADD SWAP1 POP SWAP2 SWAP1 POP JUMP JUMPDEST PUSH0 PUSH1 0x20 DUP3 ADD SWAP1 POP PUSH2 0x4C12 PUSH0 DUP4 ADD DUP5 PUSH2 0x480D JUMP JUMPDEST SWAP3 SWAP2 POP POP JUMP JUMPDEST PUSH32 0x4753303230000000000000000000000000000000000000000000000000000000 PUSH0 DUP3 ADD MSTORE POP JUMP JUMPDEST PUSH0 PUSH2 0x4C4C PUSH1 0x5 DUP4 PUSH2 0x4A53 JUMP JUMPDEST SWAP2 POP PUSH2 0x4C57 DUP3 PUSH2 0x4C18 JUMP JUMPDEST PUSH1 0x20 DUP3 ADD SWAP1 POP SWAP2 SWAP1 POP JUMP JUMPDEST PUSH0 PUSH1 0x20 DUP3 ADD SWAP1 POP DUP2 DUP2 SUB PUSH0 DUP4 ADD MSTORE PUSH2 0x4C79 DUP2 PUSH2 0x4C40 JUMP JUMPDEST SWAP1 POP SWAP2 SWAP1 POP JUMP JUMPDEST PUSH32 0x4753303231000000000000000000000000000000000000000000000000000000 PUSH0 DUP3 ADD MSTORE POP JUMP JUMPDEST PUSH0 PUSH2 0x4CB4 PUSH1 0x5 DUP4 PUSH2 0x4A53 JUMP JUMPDEST SWAP2 POP PUSH2 0x4CBF DUP3 PUSH2 0x4C80 JUMP JUMPDEST PUSH1 0x20 DUP3 ADD SWAP1 POP SWAP2 SWAP1 POP JUMP JUMPDEST PUSH0 PUSH1 0x20 DUP3 ADD SWAP1 POP DUP2 DUP2 SUB PUSH0 DUP4 ADD MSTORE PUSH2 0x4CE1 DUP2 PUSH2 0x4CA8 JUMP JUMPDEST SWAP1 POP SWAP2 SWAP1 POP JUMP JUMPDEST PUSH32 0x4753303232000000000000000000000000000000000000000000000000000000 PUSH0 DUP3 ADD MSTORE POP JUMP JUMPDEST PUSH0 PUSH2 0x4D1C PUSH1 0x5 DUP4 PUSH2 0x4A53 JUMP JUMPDEST SWAP2 POP PUSH2 0x4D27 DUP3 PUSH2 0x4CE8 JUMP JUMPDEST PUSH1 0x20 DUP3 ADD SWAP1 POP SWAP2 SWAP1 POP JUMP JUMPDEST PUSH0 PUSH1 0x20 DUP3 ADD SWAP1 POP DUP2 DUP2 SUB PUSH0 DUP4 ADD MSTORE PUSH2 0x4D49 DUP2 PUSH2 0x4D10 JUMP JUMPDEST SWAP1 POP SWAP2 SWAP1 POP JUMP JUMPDEST PUSH32 0x4753303233000000000000000000000000000000000000000000000000000000 PUSH0 DUP3 ADD MSTORE POP JUMP JUMPDEST PUSH0 PUSH2 0x4D84 PUSH1 0x5 DUP4 PUSH2 0x4A53 JUMP JUMPDEST SWAP2 POP PUSH2 0x4D8F DUP3 PUSH2 0x4D50 JUMP JUMPDEST PUSH1 0x20 DUP3 ADD SWAP1 POP SWAP2 SWAP1 POP JUMP JUMPDEST PUSH0 PUSH1 0x20 DUP3 ADD SWAP1 POP DUP2 DUP2 SUB PUSH0 DUP4 ADD MSTORE PUSH2 0x4DB1 DUP2 PUSH2 0x4D78 JUMP JUMPDEST SWAP1 POP SWAP2 SWAP1 POP JUMP JUMPDEST PUSH0 PUSH1 0x40 DUP3 ADD SWAP1 POP DUP2 DUP2 SUB PUSH0 DUP4 ADD MSTORE PUSH2 0x4DD0 DUP2 DUP6 PUSH2 0x4185 JUMP JUMPDEST SWAP1 POP DUP2 DUP2 SUB PUSH1 0x20 DUP4 ADD MSTORE PUSH2 0x4DE4 DUP2 DUP5 PUSH2 0x4185 JUMP JUMPDEST SWAP1 POP SWAP4 SWAP3 POP POP POP JUMP JUMPDEST PUSH0 PUSH32 0xFFFFFFFF00000000000000000000000000000000000000000000000000000000 DUP3 AND SWAP1 POP SWAP2 SWAP1 POP JUMP JUMPDEST PUSH2 0x4E21 DUP2 PUSH2 0x4DED JUMP JUMPDEST DUP2 EQ PUSH2 0x4E2B JUMPI PUSH0 DUP1 REVERT JUMPDEST POP JUMP JUMPDEST PUSH0 DUP2 MLOAD SWAP1 POP PUSH2 0x4E3C DUP2 PUSH2 0x4E18 JUMP JUMPDEST SWAP3 SWAP2 POP POP JUMP JUMPDEST PUSH0 PUSH1 0x20 DUP3 DUP5 SUB SLT ISZERO PUSH2 0x4E57 JUMPI PUSH2 0x4E56 PUSH2 0x3D6D JUMP JUMPDEST JUMPDEST PUSH0 PUSH2 0x4E64 DUP5 DUP3 DUP6 ADD PUSH2 0x4E2E JUMP JUMPDEST SWAP2 POP POP SWAP3 SWAP2 POP POP JUMP JUMPDEST PUSH32 0x4753303234000000000000000000000000000000000000000000000000000000 PUSH0 DUP3 ADD MSTORE POP JUMP JUMPDEST PUSH0 PUSH2 0x4EA1 PUSH1 0x5 DUP4 PUSH2 0x4A53 JUMP JUMPDEST SWAP2 POP PUSH2 0x4EAC DUP3 PUSH2 0x4E6D JUMP JUMPDEST PUSH1 0x20 DUP3 ADD SWAP1 POP SWAP2 SWAP1 POP JUMP JUMPDEST PUSH0 PUSH1 0x20 DUP3 ADD SWAP1 POP DUP2 DUP2 SUB PUSH0 DUP4 ADD MSTORE PUSH2 0x4ECE DUP2 PUSH2 0x4E95 JUMP JUMPDEST SWAP1 POP SWAP2 SWAP1 POP JUMP JUMPDEST PUSH32 0x4753303235000000000000000000000000000000000000000000000000000000 PUSH0 DUP3 ADD MSTORE POP JUMP JUMPDEST PUSH0 PUSH2 0x4F09 PUSH1 0x5 DUP4 PUSH2 0x4A53 JUMP JUMPDEST SWAP2 POP PUSH2 0x4F14 DUP3 PUSH2 0x4ED5 JUMP JUMPDEST PUSH1 0x20 DUP3 ADD SWAP1 POP SWAP2 SWAP1 POP JUMP JUMPDEST PUSH0 PUSH1 0x20 DUP3 ADD SWAP1 POP DUP2 DUP2 SUB PUSH0 DUP4 ADD MSTORE PUSH2 0x4F36 DUP2 PUSH2 0x4EFD JUMP JUMPDEST SWAP1 POP SWAP2 SWAP1 POP JUMP JUMPDEST PUSH0 DUP2 SWAP1 POP SWAP3 SWAP2 POP POP JUMP JUMPDEST PUSH32 0x19457468657265756D205369676E6564204D6573736167653A0A333200000000 PUSH0 DUP3 ADD MSTORE POP JUMP JUMPDEST PUSH0 PUSH2 0x4F7B PUSH1 0x1C DUP4 PUSH2 0x4F3D JUMP JUMPDEST SWAP2 POP PUSH2 0x4F86 DUP3 PUSH2 0x4F47 JUMP JUMPDEST PUSH1 0x1C DUP3 ADD SWAP1 POP SWAP2 SWAP1 POP JUMP JUMPDEST PUSH0 DUP2 SWAP1 POP SWAP2 SWAP1 POP JUMP JUMPDEST PUSH2 0x4FAB PUSH2 0x4FA6 DUP3 PUSH2 0x3E37 JUMP JUMPDEST PUSH2 0x4F91 JUMP JUMPDEST DUP3 MSTORE POP POP JUMP JUMPDEST PUSH0 PUSH2 0x4FBB DUP3 PUSH2 0x4F6F JUMP JUMPDEST SWAP2 POP PUSH2 0x4FC7 DUP3 DUP5 PUSH2 0x4F9A JUMP JUMPDEST PUSH1 0x20 DUP3 ADD SWAP2 POP DUP2 SWAP1 POP SWAP3 SWAP2 POP POP JUMP JUMPDEST PUSH0 PUSH1 0xFF DUP3 AND SWAP1 POP SWAP2 SWAP1 POP JUMP JUMPDEST PUSH0 PUSH2 0x4FEC DUP3 PUSH2 0x4FD6 JUMP JUMPDEST SWAP2 POP PUSH2 0x4FF7 DUP4 PUSH2 0x4FD6 JUMP JUMPDEST SWAP3 POP DUP3 DUP3 SUB SWAP1 POP PUSH1 0xFF DUP2 GT ISZERO PUSH2 0x5010 JUMPI PUSH2 0x500F PUSH2 0x4B8B JUMP JUMPDEST JUMPDEST SWAP3 SWAP2 POP POP JUMP JUMPDEST PUSH2 0x501F DUP2 PUSH2 0x4FD6 JUMP JUMPDEST DUP3 MSTORE POP POP JUMP JUMPDEST PUSH0 PUSH1 0x80 DUP3 ADD SWAP1 POP PUSH2 0x5038 PUSH0 DUP4 ADD DUP8 PUSH2 0x4943 JUMP JUMPDEST PUSH2 0x5045 PUSH1 0x20 DUP4 ADD DUP7 PUSH2 0x5016 JUMP JUMPDEST PUSH2 0x5052 PUSH1 0x40 DUP4 ADD DUP6 PUSH2 0x4943 JUMP JUMPDEST PUSH2 0x505F PUSH1 0x60 DUP4 ADD DUP5 PUSH2 0x4943 JUMP JUMPDEST SWAP6 SWAP5 POP POP POP POP POP JUMP JUMPDEST PUSH32 0x4753303236000000000000000000000000000000000000000000000000000000 PUSH0 DUP3 ADD MSTORE POP JUMP JUMPDEST PUSH0 PUSH2 0x509C PUSH1 0x5 DUP4 PUSH2 0x4A53 JUMP JUMPDEST SWAP2 POP PUSH2 0x50A7 DUP3 PUSH2 0x5068 JUMP JUMPDEST PUSH1 0x20 DUP3 ADD SWAP1 POP SWAP2 SWAP1 POP JUMP JUMPDEST PUSH0 PUSH1 0x20 DUP3 ADD SWAP1 POP DUP2 DUP2 SUB PUSH0 DUP4 ADD MSTORE PUSH2 0x50C9 DUP2 PUSH2 0x5090 JUMP JUMPDEST SWAP1 POP SWAP2 SWAP1 POP JUMP JUMPDEST PUSH32 0x4753313034000000000000000000000000000000000000000000000000000000 PUSH0 DUP3 ADD MSTORE POP JUMP JUMPDEST PUSH0 PUSH2 0x5104 PUSH1 0x5 DUP4 PUSH2 0x4A53 JUMP JUMPDEST SWAP2 POP PUSH2 0x510F DUP3 PUSH2 0x50D0 JUMP JUMPDEST PUSH1 0x20 DUP3 ADD SWAP1 POP SWAP2 SWAP1 POP JUMP JUMPDEST PUSH0 PUSH1 0x20 DUP3 ADD SWAP1 POP DUP2 DUP2 SUB PUSH0 DUP4 ADD MSTORE PUSH2 0x5131 DUP2 PUSH2 0x50F8 JUMP JUMPDEST SWAP1 POP SWAP2 SWAP1 POP JUMP JUMPDEST PUSH0 PUSH2 0x5142 DUP3 PUSH2 0x3D33 JUMP JUMPDEST SWAP2 POP PUSH2 0x514D DUP4 PUSH2 0x3D33 JUMP JUMPDEST SWAP3 POP DUP3 DUP3 MUL PUSH2 0x515B DUP2 PUSH2 0x3D33 JUMP JUMPDEST SWAP2 POP DUP3 DUP3 DIV DUP5 EQ DUP4 ISZERO OR PUSH2 0x5172 JUMPI PUSH2 0x5171 PUSH2 0x4B8B JUMP JUMPDEST JUMPDEST POP SWAP3 SWAP2 POP POP JUMP JUMPDEST PUSH32 0x4753313031000000000000000000000000000000000000000000000000000000 PUSH0 DUP3 ADD MSTORE POP JUMP JUMPDEST PUSH0 PUSH2 0x51AD PUSH1 0x5 DUP4 PUSH2 0x4A53 JUMP JUMPDEST SWAP2 POP PUSH2 0x51B8 DUP3 PUSH2 0x5179 JUMP JUMPDEST PUSH1 0x20 DUP3 ADD SWAP1 POP SWAP2 SWAP1 POP JUMP JUMPDEST PUSH0 PUSH1 0x20 DUP3 ADD SWAP1 POP DUP2 DUP2 SUB PUSH0 DUP4 ADD MSTORE PUSH2 0x51DA DUP2 PUSH2 0x51A1 JUMP JUMPDEST SWAP1 POP SWAP2 SWAP1 POP JUMP JUMPDEST PUSH32 0x4753313032000000000000000000000000000000000000000000000000000000 PUSH0 DUP3 ADD MSTORE POP JUMP JUMPDEST PUSH0 PUSH2 0x5215 PUSH1 0x5 DUP4 PUSH2 0x4A53 JUMP JUMPDEST SWAP2 POP PUSH2 0x5220 DUP3 PUSH2 0x51E1 JUMP JUMPDEST PUSH1 0x20 DUP3 ADD SWAP1 POP SWAP2 SWAP1 POP JUMP JUMPDEST PUSH0 PUSH1 0x20 DUP3 ADD SWAP1 POP DUP2 DUP2 SUB PUSH0 DUP4 ADD MSTORE PUSH2 0x5242 DUP2 PUSH2 0x5209 JUMP JUMPDEST SWAP1 POP SWAP2 SWAP1 POP JUMP JUMPDEST PUSH32 0x4753323031000000000000000000000000000000000000000000000000000000 PUSH0 DUP3 ADD MSTORE POP JUMP JUMPDEST PUSH0 PUSH2 0x527D PUSH1 0x5 DUP4 PUSH2 0x4A53 JUMP JUMPDEST SWAP2 POP PUSH2 0x5288 DUP3 PUSH2 0x5249 JUMP JUMPDEST PUSH1 0x20 DUP3 ADD SWAP1 POP SWAP2 SWAP1 POP JUMP JUMPDEST PUSH0 PUSH1 0x20 DUP3 ADD SWAP1 POP DUP2 DUP2 SUB PUSH0 DUP4 ADD MSTORE PUSH2 0x52AA DUP2 PUSH2 0x5271 JUMP JUMPDEST SWAP1 POP SWAP2 SWAP1 POP JUMP JUMPDEST PUSH32 0x4753323032000000000000000000000000000000000000000000000000000000 PUSH0 DUP3 ADD MSTORE POP JUMP JUMPDEST PUSH0 PUSH2 0x52E5 PUSH1 0x5 DUP4 PUSH2 0x4A53 JUMP JUMPDEST SWAP2 POP PUSH2 0x52F0 DUP3 PUSH2 0x52B1 JUMP JUMPDEST PUSH1 0x20 DUP3 ADD SWAP1 POP SWAP2 SWAP1 POP JUMP JUMPDEST PUSH0 PUSH1 0x20 DUP3 ADD SWAP1 POP DUP2 DUP2 SUB PUSH0 DUP4 ADD MSTORE PUSH2 0x5312 DUP2 PUSH2 0x52D9 JUMP JUMPDEST SWAP1 POP SWAP2 SWAP1 POP JUMP JUMPDEST PUSH0 PUSH2 0x5324 DUP4 DUP6 PUSH2 0x414D JUMP JUMPDEST SWAP4 POP PUSH2 0x5331 DUP4 DUP6 DUP5 PUSH2 0x3F2A JUMP JUMPDEST PUSH2 0x533A DUP4 PUSH2 0x3E72 JUMP JUMPDEST DUP5 ADD SWAP1 POP SWAP4 SWAP3 POP POP POP JUMP JUMPDEST PUSH32 0x4E487B7100000000000000000000000000000000000000000000000000000000 PUSH0 MSTORE PUSH1 0x21 PUSH1 0x4 MSTORE PUSH1 0x24 PUSH0 REVERT JUMPDEST PUSH1 0x2 DUP2 LT PUSH2 0x5383 JUMPI PUSH2 0x5382 PUSH2 0x5345 JUMP JUMPDEST JUMPDEST POP JUMP JUMPDEST PUSH0 DUP2 SWAP1 POP PUSH2 0x5393 DUP3 PUSH2 0x5372 JUMP JUMPDEST SWAP2 SWAP1 POP JUMP JUMPDEST PUSH0 PUSH2 0x53A2 DUP3 PUSH2 0x5386 JUMP JUMPDEST SWAP1 POP SWAP2 SWAP1 POP JUMP JUMPDEST PUSH2 0x53B2 DUP2 PUSH2 0x5398 JUMP JUMPDEST DUP3 MSTORE POP POP JUMP JUMPDEST PUSH2 0x53C1 DUP2 PUSH2 0x42FC JUMP JUMPDEST DUP3 MSTORE POP POP JUMP JUMPDEST PUSH0 PUSH2 0x160 DUP3 ADD SWAP1 POP PUSH2 0x53DB PUSH0 DUP4 ADD DUP16 PUSH2 0x480D JUMP JUMPDEST PUSH2 0x53E8 PUSH1 0x20 DUP4 ADD DUP15 PUSH2 0x3D3C JUMP JUMPDEST DUP2 DUP2 SUB PUSH1 0x40 DUP4 ADD MSTORE PUSH2 0x53FB DUP2 DUP13 DUP15 PUSH2 0x5319 JUMP JUMPDEST SWAP1 POP PUSH2 0x540A PUSH1 0x60 DUP4 ADD DUP12 PUSH2 0x53A9 JUMP JUMPDEST PUSH2 0x5417 PUSH1 0x80 DUP4 ADD DUP11 PUSH2 0x3D3C JUMP JUMPDEST PUSH2 0x5424 PUSH1 0xA0 DUP4 ADD DUP10 PUSH2 0x3D3C JUMP JUMPDEST PUSH2 0x5431 PUSH1 0xC0 DUP4 ADD DUP9 PUSH2 0x3D3C JUMP JUMPDEST PUSH2 0x543E PUSH1 0xE0 DUP4 ADD DUP8 PUSH2 0x480D JUMP JUMPDEST PUSH2 0x544C PUSH2 0x100 DUP4 ADD DUP7 PUSH2 0x53B8 JUMP JUMPDEST DUP2 DUP2 SUB PUSH2 0x120 DUP4 ADD MSTORE PUSH2 0x545F DUP2 DUP6 PUSH2 0x4185 JUMP JUMPDEST SWAP1 POP PUSH2 0x546F PUSH2 0x140 DUP4 ADD DUP5 PUSH2 0x480D JUMP JUMPDEST SWAP14 SWAP13 POP POP POP POP POP POP POP POP POP POP POP POP POP JUMP JUMPDEST PUSH0 PUSH2 0x548A DUP3 PUSH2 0x3D33 JUMP JUMPDEST SWAP2 POP PUSH2 0x5495 DUP4 PUSH2 0x3D33 JUMP JUMPDEST SWAP3 POP DUP3 DUP3 ADD SWAP1 POP DUP1 DUP3 GT ISZERO PUSH2 0x54AD JUMPI PUSH2 0x54AC PUSH2 0x4B8B JUMP JUMPDEST JUMPDEST SWAP3 SWAP2 POP POP JUMP JUMPDEST PUSH32 0x4E487B7100000000000000000000000000000000000000000000000000000000 PUSH0 MSTORE PUSH1 0x12 PUSH1 0x4 MSTORE PUSH1 0x24 PUSH0 REVERT JUMPDEST PUSH0 PUSH2 0x54EA DUP3 PUSH2 0x3D33 JUMP JUMPDEST SWAP2 POP PUSH2 0x54F5 DUP4 PUSH2 0x3D33 JUMP JUMPDEST SWAP3 POP DUP3 PUSH2 0x5505 JUMPI PUSH2 0x5504 PUSH2 0x54B3 JUMP JUMPDEST JUMPDEST DUP3 DUP3 DIV SWAP1 POP SWAP3 SWAP2 POP POP JUMP JUMPDEST PUSH32 0x4753303130000000000000000000000000000000000000000000000000000000 PUSH0 DUP3 ADD MSTORE POP JUMP JUMPDEST PUSH0 PUSH2 0x5544 PUSH1 0x5 DUP4 PUSH2 0x4A53 JUMP JUMPDEST SWAP2 POP PUSH2 0x554F DUP3 PUSH2 0x5510 JUMP JUMPDEST PUSH1 0x20 DUP3 ADD SWAP1 POP SWAP2 SWAP1 POP JUMP JUMPDEST PUSH0 PUSH1 0x20 DUP3 ADD SWAP1 POP DUP2 DUP2 SUB PUSH0 DUP4 ADD MSTORE PUSH2 0x5571 DUP2 PUSH2 0x5538 JUMP JUMPDEST SWAP1 POP SWAP2 SWAP1 POP JUMP JUMPDEST PUSH0 PUSH2 0x5582 DUP3 PUSH2 0x3D33 JUMP JUMPDEST SWAP2 POP PUSH2 0x558D DUP4 PUSH2 0x3D33 JUMP JUMPDEST SWAP3 POP DUP3 DUP3 SUB SWAP1 POP DUP2 DUP2 GT ISZERO PUSH2 0x55A5 JUMPI PUSH2 0x55A4 PUSH2 0x4B8B JUMP JUMPDEST JUMPDEST SWAP3 SWAP2 POP POP JUMP JUMPDEST PUSH32 0x4753303133000000000000000000000000000000000000000000000000000000 PUSH0 DUP3 ADD MSTORE POP JUMP JUMPDEST PUSH0 PUSH2 0x55DF PUSH1 0x5 DUP4 PUSH2 0x4A53 JUMP JUMPDEST SWAP2 POP PUSH2 0x55EA DUP3 PUSH2 0x55AB JUMP JUMPDEST PUSH1 0x20 DUP3 ADD SWAP1 POP SWAP2 SWAP1 POP JUMP JUMPDEST PUSH0 PUSH1 0x20 DUP3 ADD SWAP1 POP DUP2 DUP2 SUB PUSH0 DUP4 ADD MSTORE PUSH2 0x560C DUP2 PUSH2 0x55D3 JUMP JUMPDEST SWAP1 POP SWAP2 SWAP1 POP JUMP JUMPDEST PUSH0 PUSH1 0x40 DUP3 ADD SWAP1 POP PUSH2 0x5626 PUSH0 DUP4 ADD DUP6 PUSH2 0x4943 JUMP JUMPDEST PUSH2 0x5633 PUSH1 0x20 DUP4 ADD DUP5 PUSH2 0x3D3C JUMP JUMPDEST SWAP4 SWAP3 POP POP POP JUMP JUMPDEST PUSH0 PUSH1 0x40 DUP3 ADD SWAP1 POP PUSH2 0x564D PUSH0 DUP4 ADD DUP6 PUSH2 0x4943 JUMP JUMPDEST PUSH2 0x565A PUSH1 0x20 DUP4 ADD DUP5 PUSH2 0x4078 JUMP JUMPDEST SWAP4 SWAP3 POP POP POP JUMP JUMPDEST PUSH32 0x4753303031000000000000000000000000000000000000000000000000000000 PUSH0 DUP3 ADD MSTORE POP JUMP JUMPDEST PUSH0 PUSH2 0x5695 PUSH1 0x5 DUP4 PUSH2 0x4A53 JUMP JUMPDEST SWAP2 POP PUSH2 0x56A0 DUP3 PUSH2 0x5661 JUMP JUMPDEST PUSH1 0x20 DUP3 ADD SWAP1 POP SWAP2 SWAP1 POP JUMP JUMPDEST PUSH0 PUSH1 0x20 DUP3 ADD SWAP1 POP DUP2 DUP2 SUB PUSH0 DUP4 ADD MSTORE PUSH2 0x56C2 DUP2 PUSH2 0x5689 JUMP JUMPDEST SWAP1 POP SWAP2 SWAP1 POP JUMP JUMPDEST PUSH32 0x4E487B7100000000000000000000000000000000000000000000000000000000 PUSH0 MSTORE PUSH1 0x32 PUSH1 0x4 MSTORE PUSH1 0x24 PUSH0 REVERT JUMPDEST PUSH0 DUP2 SWAP1 POP SWAP2 SWAP1 POP JUMP JUMPDEST PUSH0 PUSH2 0x570D PUSH1 0x20 DUP5 ADD DUP5 PUSH2 0x3DBB JUMP JUMPDEST SWAP1 POP SWAP3 SWAP2 POP POP JUMP JUMPDEST PUSH0 PUSH1 0x20 DUP3 ADD SWAP1 POP SWAP2 SWAP1 POP JUMP JUMPDEST PUSH0 PUSH2 0x572C DUP4 DUP6 PUSH2 0x451C JUMP JUMPDEST SWAP4 POP PUSH2 0x5737 DUP3 PUSH2 0x56F6 JUMP JUMPDEST DUP1 PUSH0 JUMPDEST DUP6 DUP2 LT ISZERO PUSH2 0x576F JUMPI PUSH2 0x574C DUP3 DUP5 PUSH2 0x56FF JUMP JUMPDEST PUSH2 0x5756 DUP9 DUP3 PUSH2 0x454A JUMP JUMPDEST SWAP8 POP PUSH2 0x5761 DUP4 PUSH2 0x5715 JUMP JUMPDEST SWAP3 POP POP PUSH1 0x1 DUP2 ADD SWAP1 POP PUSH2 0x573A JUMP JUMPDEST POP DUP6 SWAP3 POP POP POP SWAP4 SWAP3 POP POP POP JUMP JUMPDEST PUSH0 PUSH1 0x80 DUP3 ADD SWAP1 POP DUP2 DUP2 SUB PUSH0 DUP4 ADD MSTORE PUSH2 0x5795 DUP2 DUP8 DUP10 PUSH2 0x5721 JUMP JUMPDEST SWAP1 POP PUSH2 0x57A4 PUSH1 0x20 DUP4 ADD DUP7 PUSH2 0x3D3C JUMP JUMPDEST PUSH2 0x57B1 PUSH1 0x40 DUP4 ADD DUP6 PUSH2 0x480D JUMP JUMPDEST PUSH2 0x57BE PUSH1 0x60 DUP4 ADD DUP5 PUSH2 0x480D JUMP JUMPDEST SWAP7 SWAP6 POP POP POP POP POP POP JUMP JUMPDEST PUSH0 DUP2 SWAP1 POP SWAP2 SWAP1 POP JUMP JUMPDEST PUSH2 0x57E2 PUSH2 0x57DD DUP3 PUSH2 0x3D33 JUMP JUMPDEST PUSH2 0x57C8 JUMP JUMPDEST DUP3 MSTORE POP POP JUMP JUMPDEST PUSH0 PUSH2 0x57F3 DUP3 DUP5 PUSH2 0x57D1 JUMP JUMPDEST PUSH1 0x20 DUP3 ADD SWAP2 POP DUP2 SWAP1 POP SWAP3 SWAP2 POP POP JUMP JUMPDEST PUSH32 0x4753303330000000000000000000000000000000000000000000000000000000 PUSH0 DUP3 ADD MSTORE POP JUMP JUMPDEST PUSH0 PUSH2 0x5836 PUSH1 0x5 DUP4 PUSH2 0x4A53 JUMP JUMPDEST SWAP2 POP PUSH2 0x5841 DUP3 PUSH2 0x5802 JUMP JUMPDEST PUSH1 0x20 DUP3 ADD SWAP1 POP SWAP2 SWAP1 POP JUMP JUMPDEST PUSH0 PUSH1 0x20 DUP3 ADD SWAP1 POP DUP2 DUP2 SUB PUSH0 DUP4 ADD MSTORE PUSH2 0x5863 DUP2 PUSH2 0x582A JUMP JUMPDEST SWAP1 POP SWAP2 SWAP1 POP JUMP JUMPDEST PUSH32 0x4753313033000000000000000000000000000000000000000000000000000000 PUSH0 DUP3 ADD MSTORE POP JUMP JUMPDEST PUSH0 PUSH2 0x589E PUSH1 0x5 DUP4 PUSH2 0x4A53 JUMP JUMPDEST SWAP2 POP PUSH2 0x58A9 DUP3 PUSH2 0x586A JUMP JUMPDEST PUSH1 0x20 DUP3 ADD SWAP1 POP SWAP2 SWAP1 POP JUMP JUMPDEST PUSH0 PUSH1 0x20 DUP3 ADD SWAP1 POP DUP2 DUP2 SUB PUSH0 DUP4 ADD MSTORE PUSH2 0x58CB DUP2 PUSH2 0x5892 JUMP JUMPDEST SWAP1 POP SWAP2 SWAP1 POP JUMP JUMPDEST PUSH32 0x4753323035000000000000000000000000000000000000000000000000000000 PUSH0 DUP3 ADD MSTORE POP JUMP JUMPDEST PUSH0 PUSH2 0x5906 PUSH1 0x5 DUP4 PUSH2 0x4A53 JUMP JUMPDEST SWAP2 POP PUSH2 0x5911 DUP3 PUSH2 0x58D2 JUMP JUMPDEST PUSH1 0x20 DUP3 ADD SWAP1 POP SWAP2 SWAP1 POP JUMP JUMPDEST PUSH0 PUSH1 0x20 DUP3 ADD SWAP1 POP DUP2 DUP2 SUB PUSH0 DUP4 ADD MSTORE PUSH2 0x5933 DUP2 PUSH2 0x58FA JUMP JUMPDEST SWAP1 POP SWAP2 SWAP1 POP JUMP JUMPDEST PUSH0 DUP2 SWAP1 POP SWAP3 SWAP2 POP POP JUMP JUMPDEST PUSH0 PUSH2 0x594F DUP4 DUP6 PUSH2 0x593A JUMP JUMPDEST SWAP4 POP PUSH2 0x595C DUP4 DUP6 DUP5 PUSH2 0x3F2A JUMP JUMPDEST DUP3 DUP5 ADD SWAP1 POP SWAP4 SWAP3 POP POP POP JUMP JUMPDEST PUSH0 PUSH2 0x5974 DUP3 DUP5 DUP7 PUSH2 0x5944 JUMP JUMPDEST SWAP2 POP DUP2 SWAP1 POP SWAP4 SWAP3 POP POP POP JUMP JUMPDEST PUSH0 PUSH2 0x160 DUP3 ADD SWAP1 POP PUSH2 0x5994 PUSH0 DUP4 ADD DUP15 PUSH2 0x4943 JUMP JUMPDEST PUSH2 0x59A1 PUSH1 0x20 DUP4 ADD DUP14 PUSH2 0x480D JUMP JUMPDEST PUSH2 0x59AE PUSH1 0x40 DUP4 ADD DUP13 PUSH2 0x3D3C JUMP JUMPDEST PUSH2 0x59BB PUSH1 0x60 DUP4 ADD DUP12 PUSH2 0x4943 JUMP JUMPDEST PUSH2 0x59C8 PUSH1 0x80 DUP4 ADD DUP11 PUSH2 0x53A9 JUMP JUMPDEST PUSH2 0x59D5 PUSH1 0xA0 DUP4 ADD DUP10 PUSH2 0x3D3C JUMP JUMPDEST PUSH2 0x59E2 PUSH1 0xC0 DUP4 ADD DUP9 PUSH2 0x3D3C JUMP JUMPDEST PUSH2 0x59EF PUSH1 0xE0 DUP4 ADD DUP8 PUSH2 0x3D3C JUMP JUMPDEST PUSH2 0x59FD PUSH2 0x100 DUP4 ADD DUP7 PUSH2 0x480D JUMP JUMPDEST PUSH2 0x5A0B PUSH2 0x120 DUP4 ADD DUP6 PUSH2 0x480D JUMP JUMPDEST PUSH2 0x5A19 PUSH2 0x140 DUP4 ADD DUP5 PUSH2 0x3D3C JUMP JUMPDEST SWAP13 SWAP12 POP POP POP POP POP POP POP POP POP POP POP POP JUMP JUMPDEST PUSH0 PUSH32 0xFF00000000000000000000000000000000000000000000000000000000000000 DUP3 AND SWAP1 POP SWAP2 SWAP1 POP JUMP JUMPDEST PUSH0 DUP2 SWAP1 POP SWAP2 SWAP1 POP JUMP JUMPDEST PUSH2 0x5A6E PUSH2 0x5A69 DUP3 PUSH2 0x5A29 JUMP JUMPDEST PUSH2 0x5A54 JUMP JUMPDEST DUP3 MSTORE POP POP JUMP JUMPDEST PUSH0 PUSH2 0x5A7F DUP3 DUP8 PUSH2 0x5A5D JUMP JUMPDEST PUSH1 0x1 DUP3 ADD SWAP2 POP PUSH2 0x5A8F DUP3 DUP7 PUSH2 0x5A5D JUMP JUMPDEST PUSH1 0x1 DUP3 ADD SWAP2 POP PUSH2 0x5A9F DUP3 DUP6 PUSH2 0x4F9A JUMP JUMPDEST PUSH1 0x20 DUP3 ADD SWAP2 POP PUSH2 0x5AAF DUP3 DUP5 PUSH2 0x4F9A JUMP JUMPDEST PUSH1 0x20 DUP3 ADD SWAP2 POP DUP2 SWAP1 POP SWAP6 SWAP5 POP POP POP POP POP JUMP JUMPDEST PUSH0 DUP2 SWAP1 POP SWAP2 SWAP1 POP JUMP JUMPDEST PUSH0 PUSH2 0x5AE4 PUSH2 0x5ADF PUSH2 0x5ADA DUP5 PUSH2 0x3D75 JUMP JUMPDEST PUSH2 0x5AC1 JUMP JUMPDEST PUSH2 0x3D75 JUMP JUMPDEST SWAP1 POP SWAP2 SWAP1 POP JUMP JUMPDEST PUSH0 PUSH2 0x5AF5 DUP3 PUSH2 0x5ACA JUMP JUMPDEST SWAP1 POP SWAP2 SWAP1 POP JUMP JUMPDEST PUSH0 PUSH2 0x5B06 DUP3 PUSH2 0x5AEB JUMP JUMPDEST SWAP1 POP SWAP2 SWAP1 POP JUMP JUMPDEST PUSH2 0x5B16 DUP2 PUSH2 0x5AFC JUMP JUMPDEST DUP3 MSTORE POP POP JUMP JUMPDEST PUSH0 PUSH1 0x60 DUP3 ADD SWAP1 POP PUSH2 0x5B2F PUSH0 DUP4 ADD DUP7 PUSH2 0x4943 JUMP JUMPDEST PUSH2 0x5B3C PUSH1 0x20 DUP4 ADD DUP6 PUSH2 0x3D3C JUMP JUMPDEST PUSH2 0x5B49 PUSH1 0x40 DUP4 ADD DUP5 PUSH2 0x5B0D JUMP JUMPDEST SWAP5 SWAP4 POP POP POP POP JUMP JUMPDEST PUSH0 PUSH2 0x5B5B DUP3 PUSH2 0x3D33 JUMP JUMPDEST SWAP2 POP PUSH0 DUP3 SUB PUSH2 0x5B6D JUMPI PUSH2 0x5B6C PUSH2 0x4B8B JUMP JUMPDEST JUMPDEST PUSH1 0x1 DUP3 SUB SWAP1 POP SWAP2 SWAP1 POP JUMP JUMPDEST PUSH32 0x4753303331000000000000000000000000000000000000000000000000000000 PUSH0 DUP3 ADD MSTORE POP JUMP JUMPDEST PUSH0 PUSH2 0x5BAC PUSH1 0x5 DUP4 PUSH2 0x4A53 JUMP JUMPDEST SWAP2 POP PUSH2 0x5BB7 DUP3 PUSH2 0x5B78 JUMP JUMPDEST PUSH1 0x20 DUP3 ADD SWAP1 POP SWAP2 SWAP1 POP JUMP JUMPDEST PUSH0 PUSH1 0x20 DUP3 ADD SWAP1 POP DUP2 DUP2 SUB PUSH0 DUP4 ADD MSTORE PUSH2 0x5BD9 DUP2 PUSH2 0x5BA0 JUMP JUMPDEST SWAP1 POP SWAP2 SWAP1 POP JUMP JUMPDEST PUSH32 0x4753303131000000000000000000000000000000000000000000000000000000 PUSH0 DUP3 ADD MSTORE POP JUMP JUMPDEST PUSH0 PUSH2 0x5C14 PUSH1 0x5 DUP4 PUSH2 0x4A53 JUMP JUMPDEST SWAP2 POP PUSH2 0x5C1F DUP3 PUSH2 0x5BE0 JUMP JUMPDEST PUSH1 0x20 DUP3 ADD SWAP1 POP SWAP2 SWAP1 POP JUMP JUMPDEST PUSH0 PUSH1 0x20 DUP3 ADD SWAP1 POP DUP2 DUP2 SUB PUSH0 DUP4 ADD MSTORE PUSH2 0x5C41 DUP2 PUSH2 0x5C08 JUMP JUMPDEST SWAP1 POP SWAP2 SWAP1 POP JUMP JUMPDEST PUSH32 0x4753303132000000000000000000000000000000000000000000000000000000 PUSH0 DUP3 ADD MSTORE POP JUMP JUMPDEST PUSH0 PUSH2 0x5C7C PUSH1 0x5 DUP4 PUSH2 0x4A53 JUMP JUMPDEST SWAP2 POP PUSH2 0x5C87 DUP3 PUSH2 0x5C48 JUMP JUMPDEST PUSH1 0x20 DUP3 ADD SWAP1 POP SWAP2 SWAP1 POP JUMP JUMPDEST PUSH0 PUSH1 0x20 DUP3 ADD SWAP1 POP DUP2 DUP2 SUB PUSH0 DUP4 ADD MSTORE PUSH2 0x5CA9 DUP2 PUSH2 0x5C70 JUMP JUMPDEST SWAP1 POP SWAP2 SWAP1 POP JUMP JUMPDEST PUSH32 0x4753323030000000000000000000000000000000000000000000000000000000 PUSH0 DUP3 ADD MSTORE POP JUMP JUMPDEST PUSH0 PUSH2 0x5CE4 PUSH1 0x5 DUP4 PUSH2 0x4A53 JUMP JUMPDEST SWAP2 POP PUSH2 0x5CEF DUP3 PUSH2 0x5CB0 JUMP JUMPDEST PUSH1 0x20 DUP3 ADD SWAP1 POP SWAP2 SWAP1 POP JUMP JUMPDEST PUSH0 PUSH1 0x20 DUP3 ADD SWAP1 POP DUP2 DUP2 SUB PUSH0 DUP4 ADD MSTORE PUSH2 0x5D11 DUP2 PUSH2 0x5CD8 JUMP JUMPDEST SWAP1 POP SWAP2 SWAP1 POP JUMP JUMPDEST PUSH32 0x4753313030000000000000000000000000000000000000000000000000000000 PUSH0 DUP3 ADD MSTORE POP JUMP JUMPDEST PUSH0 PUSH2 0x5D4C PUSH1 0x5 DUP4 PUSH2 0x4A53 JUMP JUMPDEST SWAP2 POP PUSH2 0x5D57 DUP3 PUSH2 0x5D18 JUMP JUMPDEST PUSH1 0x20 DUP3 ADD SWAP1 POP SWAP2 SWAP1 POP JUMP JUMPDEST PUSH0 PUSH1 0x20 DUP3 ADD SWAP1 POP DUP2 DUP2 SUB PUSH0 DUP4 ADD MSTORE PUSH2 0x5D79 DUP2 PUSH2 0x5D40 JUMP JUMPDEST SWAP1 POP SWAP2 SWAP1 POP JUMP JUMPDEST PUSH32 0x4753303030000000000000000000000000000000000000000000000000000000 PUSH0 DUP3 ADD MSTORE POP JUMP JUMPDEST PUSH0 PUSH2 0x5DB4 PUSH1 0x5 DUP4 PUSH2 0x4A53 JUMP JUMPDEST SWAP2 POP PUSH2 0x5DBF DUP3 PUSH2 0x5D80 JUMP JUMPDEST PUSH1 0x20 DUP3 ADD SWAP1 POP SWAP2 SWAP1 POP JUMP JUMPDEST PUSH0 PUSH1 0x20 DUP3 ADD SWAP1 POP DUP2 DUP2 SUB PUSH0 DUP4 ADD MSTORE PUSH2 0x5DE1 DUP2 PUSH2 0x5DA8 JUMP JUMPDEST SWAP1 POP SWAP2 SWAP1 POP JUMP JUMPDEST PUSH0 PUSH1 0x40 DUP3 ADD SWAP1 POP PUSH2 0x5DFB PUSH0 DUP4 ADD DUP6 PUSH2 0x480D JUMP JUMPDEST PUSH2 0x5E08 PUSH1 0x20 DUP4 ADD DUP5 PUSH2 0x3D3C JUMP JUMPDEST SWAP4 SWAP3 POP POP POP JUMP INVALID LOG2 PUSH5 0x6970667358 0x22 SLT KECCAK256 SWAP12 EXTCODEHASH 0x23 SHR LOG0 BLOCKHASH 0xBC 0x5D DUP5 LOG3 PUSH22 0x233731962EFD51AE96E7A6744AE3C09B453DB0A87A64 PUSH20 0x6F6C634300081700330000000000000000000000 "
		},
		"gasEstimates": {
			"creation": {
				"codeDepositCost": "4826600",
				"executionCost": "27806",
				"totalCost": "4854406"
			},
			"external": {
				"": "infinite",
				"VERSION()": "infinite",
				"addOwnerWithThreshold(address,uint256)": "infinite",
				"approveHash(bytes32)": "26539",
				"approvedHashes(address,bytes32)": "3101",
				"changeThreshold(uint256)": "infinite",
				"checkNSignatures(bytes32,bytes,bytes,uint256)": "infinite",
				"checkSignatures(bytes32,bytes,bytes)": "infinite",
				"disableModule(address,address)": "infinite",
				"domainSeparator()": "infinite",
				"enableModule(address)": "infinite",
				"encodeTransactionData(address,uint256,bytes,uint8,uint256,uint256,uint256,address,address,uint256)": "infinite",
				"execTransaction(address,uint256,bytes,uint8,uint256,uint256,uint256,address,address,bytes)": "infinite",
				"execTransactionFromModule(address,uint256,bytes,uint8)": "infinite",
				"execTransactionFromModuleReturnData(address,uint256,bytes,uint8)": "infinite",
				"getChainId()": "412",
				"getModulesPaginated(address,uint256)": "infinite",
				"getOwners()": "infinite",
				"getStorageAt(uint256,uint256)": "infinite",
				"getThreshold()": "2521",
				"getTransactionHash(address,uint256,bytes,uint8,uint256,uint256,uint256,address,address,uint256)": "infinite",
				"isModuleEnabled(address)": "3027",
				"isOwner(address)": "2982",
				"nonce()": "2471",
				"removeOwner(address,address,uint256)": "infinite",
				"requiredTxGas(address,uint256,bytes,uint8)": "infinite",
				"setFallbackHandler(address)": "infinite",
				"setGuard(address)": "infinite",
				"setup(address[],uint256,address,bytes,address,address,uint256,address)": "infinite",
				"signedMessages(bytes32)": "2822",
				"simulateAndRevert(address,bytes)": "infinite",
				"swapOwner(address,address,address)": "infinite"
			}
		},
		"methodIdentifiers": {
			"VERSION()": "ffa1ad74",
			"addOwnerWithThreshold(address,uint256)": "0d582f13",
			"approveHash(bytes32)": "d4d9bdcd",
			"approvedHashes(address,bytes32)": "7d832974",
			"changeThreshold(uint256)": "694e80c3",
			"checkNSignatures(bytes32,bytes,bytes,uint256)": "12fb68e0",
			"checkSignatures(bytes32,bytes,bytes)": "934f3a11",
			"disableModule(address,address)": "e009cfde",
			"domainSeparator()": "f698da25",
			"enableModule(address)": "610b5925",
			"encodeTransactionData(address,uint256,bytes,uint8,uint256,uint256,uint256,address,address,uint256)": "e86637db",
			"execTransaction(address,uint256,bytes,uint8,uint256,uint256,uint256,address,address,bytes)": "6a761202",
			"execTransactionFromModule(address,uint256,bytes,uint8)": "468721a7",
			"execTransactionFromModuleReturnData(address,uint256,bytes,uint8)": "5229073f",
			"getChainId()": "3408e470",
			"getModulesPaginated(address,uint256)": "cc2f8452",
			"getOwners()": "a0e67e2b",
			"getStorageAt(uint256,uint256)": "5624b25b",
			"getThreshold()": "e75235b8",
			"getTransactionHash(address,uint256,bytes,uint8,uint256,uint256,uint256,address,address,uint256)": "d8d11f78",
			"isModuleEnabled(address)": "2d9ad53d",
			"isOwner(address)": "2f54bf6e",
			"nonce()": "affed0e0",
			"removeOwner(address,address,uint256)": "f8dc5dd9",
			"requiredTxGas(address,uint256,bytes,uint8)": "c4ca3a9c",
			"setFallbackHandler(address)": "f08a0323",
			"setGuard(address)": "e19a9dd9",
			"setup(address[],uint256,address,bytes,address,address,uint256,address)": "b63e800d",
			"signedMessages(bytes32)": "5ae6bd37",
			"simulateAndRevert(address,bytes)": "b4faba09",
			"swapOwner(address,address,address)": "e318b52b"
		}
	},
	"abi": [
		{
			"anonymous": false,
			"inputs": [
				{
					"indexed": false,
					"internalType": "address",
					"name": "owner",
					"type": "address"
				}
			],
			"name": "AddedOwner",
			"type": "event"
		},
		{
			"anonymous": false,
			"inputs": [
				{
					"indexed": true,
					"internalType": "bytes32",
					"name": "approvedHash",
					"type": "bytes32"
				},
				{
					"indexed": true,
					"internalType": "address",
					"name": "owner",
					"type": "address"
				}
			],
			"name": "ApproveHash",
			"type": "event"
		},
		{
			"anonymous": false,
			"inputs": [
				{
					"indexed": false,
					"internalType": "address",
					"name": "handler",
					"type": "address"
				}
			],
			"name": "ChangedFallbackHandler",
			"type": "event"
		},
		{
			"anonymous": false,
			"inputs": [
				{
					"indexed": false,
					"internalType": "address",
					"name": "guard",
					"type": "address"
				}
			],
			"name": "ChangedGuard",
			"type": "event"
		},
		{
			"anonymous": false,
			"inputs": [
				{
					"indexed": false,
					"internalType": "uint256",
					"name": "threshold",
					"type": "uint256"
				}
			],
			"name": "ChangedThreshold",
			"type": "event"
		},
		{
			"anonymous": false,
			"inputs": [
				{
					"indexed": false,
					"internalType": "address",
					"name": "module",
					"type": "address"
				}
			],
			"name": "DisabledModule",
			"type": "event"
		},
		{
			"anonymous": false,
			"inputs": [
				{
					"indexed": false,
					"internalType": "address",
					"name": "module",
					"type": "address"
				}
			],
			"name": "EnabledModule",
			"type": "event"
		},
		{
			"anonymous": false,
			"inputs": [
				{
					"indexed": false,
					"internalType": "bytes32",
					"name": "txHash",
					"type": "bytes32"
				},
				{
					"indexed": false,
					"internalType": "uint256",
					"name": "payment",
					"type": "uint256"
				}
			],
			"name": "ExecutionFailure",
			"type": "event"
		},
		{
			"anonymous": false,
			"inputs": [
				{
					"indexed": true,
					"internalType": "address",
					"name": "module",
					"type": "address"
				}
			],
			"name": "ExecutionFromModuleFailure",
			"type": "event"
		},
		{
			"anonymous": false,
			"inputs": [
				{
					"indexed": true,
					"internalType": "address",
					"name": "module",
					"type": "address"
				}
			],
			"name": "ExecutionFromModuleSuccess",
			"type": "event"
		},
		{
			"anonymous": false,
			"inputs": [
				{
					"indexed": false,
					"internalType": "bytes32",
					"name": "txHash",
					"type": "bytes32"
				},
				{
					"indexed": false,
					"internalType": "uint256",
					"name": "payment",
					"type": "uint256"
				}
			],
			"name": "ExecutionSuccess",
			"type": "event"
		},
		{
			"anonymous": false,
			"inputs": [
				{
					"indexed": false,
					"internalType": "address",
					"name": "owner",
					"type": "address"
				}
			],
			"name": "RemovedOwner",
			"type": "event"
		},
		{
			"anonymous": false,
			"inputs": [
				{
					"indexed": true,
					"internalType": "address",
					"name": "sender",
					"type": "address"
				},
				{
					"indexed": false,
					"internalType": "uint256",
					"name": "value",
					"type": "uint256"
				}
			],
			"name": "SafeReceived",
			"type": "event"
		},
		{
			"anonymous": false,
			"inputs": [
				{
					"indexed": true,
					"internalType": "address",
					"name": "initiator",
					"type": "address"
				},
				{
					"indexed": false,
					"internalType": "address[]",
					"name": "owners",
					"type": "address[]"
				},
				{
					"indexed": false,
					"internalType": "uint256",
					"name": "threshold",
					"type": "uint256"
				},
				{
					"indexed": false,
					"internalType": "address",
					"name": "initializer",
					"type": "address"
				},
				{
					"indexed": false,
					"internalType": "address",
					"name": "fallbackHandler",
					"type": "address"
				}
			],
			"name": "SafeSetup",
			"type": "event"
		},
		{
			"anonymous": false,
			"inputs": [
				{
					"indexed": true,
					"internalType": "bytes32",
					"name": "msgHash",
					"type": "bytes32"
				}
			],
			"name": "SignMsg",
			"type": "event"
		},
		{
			"stateMutability": "nonpayable",
			"type": "fallback"
		},
		{
			"inputs": [],
			"name": "VERSION",
			"outputs": [
				{
					"internalType": "string",
					"name": "",
					"type": "string"
				}
			],
			"stateMutability": "view",
			"type": "function"
		},
		{
			"inputs": [
				{
					"internalType": "address",
					"name": "owner",
					"type": "address"
				},
				{
					"internalType": "uint256",
					"name": "_threshold",
					"type": "uint256"
				}
			],
			"name": "addOwnerWithThreshold",
			"outputs": [],
			"stateMutability": "nonpayable",
			"type": "function"
		},
		{
			"inputs": [
				{
					"internalType": "bytes32",
					"name": "hashToApprove",
					"type": "bytes32"
				}
			],
			"name": "approveHash",
			"outputs": [],
			"stateMutability": "nonpayable",
			"type": "function"
		},
		{
			"inputs": [
				{
					"internalType": "address",
					"name": "",
					"type": "address"
				},
				{
					"internalType": "bytes32",
					"name": "",
					"type": "bytes32"
				}
			],
			"name": "approvedHashes",
			"outputs": [
				{
					"internalType": "uint256",
					"name": "",
					"type": "uint256"
				}
			],
			"stateMutability": "view",
			"type": "function"
		},
		{
			"inputs": [
				{
					"internalType": "uint256",
					"name": "_threshold",
					"type": "uint256"
				}
			],
			"name": "changeThreshold",
			"outputs": [],
			"stateMutability": "nonpayable",
			"type": "function"
		},
		{
			"inputs": [
				{
					"internalType": "bytes32",
					"name": "dataHash",
					"type": "bytes32"
				},
				{
					"internalType": "bytes",
					"name": "data",
					"type": "bytes"
				},
				{
					"internalType": "bytes",
					"name": "signatures",
					"type": "bytes"
				},
				{
					"internalType": "uint256",
					"name": "requiredSignatures",
					"type": "uint256"
				}
			],
			"name": "checkNSignatures",
			"outputs": [],
			"stateMutability": "view",
			"type": "function"
		},
		{
			"inputs": [
				{
					"internalType": "bytes32",
					"name": "dataHash",
					"type": "bytes32"
				},
				{
					"internalType": "bytes",
					"name": "data",
					"type": "bytes"
				},
				{
					"internalType": "bytes",
					"name": "signatures",
					"type": "bytes"
				}
			],
			"name": "checkSignatures",
			"outputs": [],
			"stateMutability": "view",
			"type": "function"
		},
		{
			"inputs": [
				{
					"internalType": "address",
					"name": "prevModule",
					"type": "address"
				},
				{
					"internalType": "address",
					"name": "module",
					"type": "address"
				}
			],
			"name": "disableModule",
			"outputs": [],
			"stateMutability": "nonpayable",
			"type": "function"
		},
		{
			"inputs": [],
			"name": "domainSeparator",
			"outputs": [
				{
					"internalType": "bytes32",
					"name": "",
					"type": "bytes32"
				}
			],
			"stateMutability": "view",
			"type": "function"
		},
		{
			"inputs": [
				{
					"internalType": "address",
					"name": "module",
					"type": "address"
				}
			],
			"name": "enableModule",
			"outputs": [],
			"stateMutability": "nonpayable",
			"type": "function"
		},
		{
			"inputs": [
				{
					"internalType": "address",
					"name": "to",
					"type": "address"
				},
				{
					"internalType": "uint256",
					"name": "value",
					"type": "uint256"
				},
				{
					"internalType": "bytes",
					"name": "data",
					"type": "bytes"
				},
				{
					"internalType": "enum Enum.Operation",
					"name": "operation",
					"type": "uint8"
				},
				{
					"internalType": "uint256",
					"name": "safeTxGas",
					"type": "uint256"
				},
				{
					"internalType": "uint256",
					"name": "baseGas",
					"type": "uint256"
				},
				{
					"internalType": "uint256",
					"name": "gasPrice",
					"type": "uint256"
				},
				{
					"internalType": "address",
					"name": "gasToken",
					"type": "address"
				},
				{
					"internalType": "address",
					"name": "refundReceiver",
					"type": "address"
				},
				{
					"internalType": "uint256",
					"name": "_nonce",
					"type": "uint256"
				}
			],
			"name": "encodeTransactionData",
			"outputs": [
				{
					"internalType": "bytes",
					"name": "",
					"type": "bytes"
				}
			],
			"stateMutability": "view",
			"type": "function"
		},
		{
			"inputs": [
				{
					"internalType": "address",
					"name": "to",
					"type": "address"
				},
				{
					"internalType": "uint256",
					"name": "value",
					"type": "uint256"
				},
				{
					"internalType": "bytes",
					"name": "data",
					"type": "bytes"
				},
				{
					"internalType": "enum Enum.Operation",
					"name": "operation",
					"type": "uint8"
				},
				{
					"internalType": "uint256",
					"name": "safeTxGas",
					"type": "uint256"
				},
				{
					"internalType": "uint256",
					"name": "baseGas",
					"type": "uint256"
				},
				{
					"internalType": "uint256",
					"name": "gasPrice",
					"type": "uint256"
				},
				{
					"internalType": "address",
					"name": "gasToken",
					"type": "address"
				},
				{
					"internalType": "address payable",
					"name": "refundReceiver",
					"type": "address"
				},
				{
					"internalType": "bytes",
					"name": "signatures",
					"type": "bytes"
				}
			],
			"name": "execTransaction",
			"outputs": [
				{
					"internalType": "bool",
					"name": "success",
					"type": "bool"
				}
			],
			"stateMutability": "payable",
			"type": "function"
		},
		{
			"inputs": [
				{
					"internalType": "address",
					"name": "to",
					"type": "address"
				},
				{
					"internalType": "uint256",
					"name": "value",
					"type": "uint256"
				},
				{
					"internalType": "bytes",
					"name": "data",
					"type": "bytes"
				},
				{
					"internalType": "enum Enum.Operation",
					"name": "operation",
					"type": "uint8"
				}
			],
			"name": "execTransactionFromModule",
			"outputs": [
				{
					"internalType": "bool",
					"name": "success",
					"type": "bool"
				}
			],
			"stateMutability": "nonpayable",
			"type": "function"
		},
		{
			"inputs": [
				{
					"internalType": "address",
					"name": "to",
					"type": "address"
				},
				{
					"internalType": "uint256",
					"name": "value",
					"type": "uint256"
				},
				{
					"internalType": "bytes",
					"name": "data",
					"type": "bytes"
				},
				{
					"internalType": "enum Enum.Operation",
					"name": "operation",
					"type": "uint8"
				}
			],
			"name": "execTransactionFromModuleReturnData",
			"outputs": [
				{
					"internalType": "bool",
					"name": "success",
					"type": "bool"
				},
				{
					"internalType": "bytes",
					"name": "returnData",
					"type": "bytes"
				}
			],
			"stateMutability": "nonpayable",
			"type": "function"
		},
		{
			"inputs": [],
			"name": "getChainId",
			"outputs": [
				{
					"internalType": "uint256",
					"name": "",
					"type": "uint256"
				}
			],
			"stateMutability": "view",
			"type": "function"
		},
		{
			"inputs": [
				{
					"internalType": "address",
					"name": "start",
					"type": "address"
				},
				{
					"internalType": "uint256",
					"name": "pageSize",
					"type": "uint256"
				}
			],
			"name": "getModulesPaginated",
			"outputs": [
				{
					"internalType": "address[]",
					"name": "array",
					"type": "address[]"
				},
				{
					"internalType": "address",
					"name": "next",
					"type": "address"
				}
			],
			"stateMutability": "view",
			"type": "function"
		},
		{
			"inputs": [],
			"name": "getOwners",
			"outputs": [
				{
					"internalType": "address[]",
					"name": "",
					"type": "address[]"
				}
			],
			"stateMutability": "view",
			"type": "function"
		},
		{
			"inputs": [
				{
					"internalType": "uint256",
					"name": "offset",
					"type": "uint256"
				},
				{
					"internalType": "uint256",
					"name": "length",
					"type": "uint256"
				}
			],
			"name": "getStorageAt",
			"outputs": [
				{
					"internalType": "bytes",
					"name": "",
					"type": "bytes"
				}
			],
			"stateMutability": "view",
			"type": "function"
		},
		{
			"inputs": [],
			"name": "getThreshold",
			"outputs": [
				{
					"internalType": "uint256",
					"name": "",
					"type": "uint256"
				}
			],
			"stateMutability": "view",
			"type": "function"
		},
		{
			"inputs": [
				{
					"internalType": "address",
					"name": "to",
					"type": "address"
				},
				{
					"internalType": "uint256",
					"name": "value",
					"type": "uint256"
				},
				{
					"internalType": "bytes",
					"name": "data",
					"type": "bytes"
				},
				{
					"internalType": "enum Enum.Operation",
					"name": "operation",
					"type": "uint8"
				},
				{
					"internalType": "uint256",
					"name": "safeTxGas",
					"type": "uint256"
				},
				{
					"internalType": "uint256",
					"name": "baseGas",
					"type": "uint256"
				},
				{
					"internalType": "uint256",
					"name": "gasPrice",
					"type": "uint256"
				},
				{
					"internalType": "address",
					"name": "gasToken",
					"type": "address"
				},
				{
					"internalType": "address",
					"name": "refundReceiver",
					"type": "address"
				},
				{
					"internalType": "uint256",
					"name": "_nonce",
					"type": "uint256"
				}
			],
			"name": "getTransactionHash",
			"outputs": [
				{
					"internalType": "bytes32",
					"name": "",
					"type": "bytes32"
				}
			],
			"stateMutability": "view",
			"type": "function"
		},
		{
			"inputs": [
				{
					"internalType": "address",
					"name": "module",
					"type": "address"
				}
			],
			"name": "isModuleEnabled",
			"outputs": [
				{
					"internalType": "bool",
					"name": "",
					"type": "bool"
				}
			],
			"stateMutability": "view",
			"type": "function"
		},
		{
			"inputs": [
				{
					"internalType": "address",
					"name": "owner",
					"type": "address"
				}
			],
			"name": "isOwner",
			"outputs": [
				{
					"internalType": "bool",
					"name": "",
					"type": "bool"
				}
			],
			"stateMutability": "view",
			"type": "function"
		},
		{
			"inputs": [],
			"name": "nonce",
			"outputs": [
				{
					"internalType": "uint256",
					"name": "",
					"type": "uint256"
				}
			],
			"stateMutability": "view",
			"type": "function"
		},
		{
			"inputs": [
				{
					"internalType": "address",
					"name": "prevOwner",
					"type": "address"
				},
				{
					"internalType": "address",
					"name": "owner",
					"type": "address"
				},
				{
					"internalType": "uint256",
					"name": "_threshold",
					"type": "uint256"
				}
			],
			"name": "removeOwner",
			"outputs": [],
			"stateMutability": "nonpayable",
			"type": "function"
		},
		{
			"inputs": [
				{
					"internalType": "address",
					"name": "to",
					"type": "address"
				},
				{
					"internalType": "uint256",
					"name": "value",
					"type": "uint256"
				},
				{
					"internalType": "bytes",
					"name": "data",
					"type": "bytes"
				},
				{
					"internalType": "enum Enum.Operation",
					"name": "operation",
					"type": "uint8"
				}
			],
			"name": "requiredTxGas",
			"outputs": [
				{
					"internalType": "uint256",
					"name": "",
					"type": "uint256"
				}
			],
			"stateMutability": "nonpayable",
			"type": "function"
		},
		{
			"inputs": [
				{
					"internalType": "address",
					"name": "handler",
					"type": "address"
				}
			],
			"name": "setFallbackHandler",
			"outputs": [],
			"stateMutability": "nonpayable",
			"type": "function"
		},
		{
			"inputs": [
				{
					"internalType": "address",
					"name": "guard",
					"type": "address"
				}
			],
			"name": "setGuard",
			"outputs": [],
			"stateMutability": "nonpayable",
			"type": "function"
		},
		{
			"inputs": [
				{
					"internalType": "address[]",
					"name": "_owners",
					"type": "address[]"
				},
				{
					"internalType": "uint256",
					"name": "_threshold",
					"type": "uint256"
				},
				{
					"internalType": "address",
					"name": "to",
					"type": "address"
				},
				{
					"internalType": "bytes",
					"name": "data",
					"type": "bytes"
				},
				{
					"internalType": "address",
					"name": "fallbackHandler",
					"type": "address"
				},
				{
					"internalType": "address",
					"name": "paymentToken",
					"type": "address"
				},
				{
					"internalType": "uint256",
					"name": "payment",
					"type": "uint256"
				},
				{
					"internalType": "address payable",
					"name": "paymentReceiver",
					"type": "address"
				}
			],
			"name": "setup",
			"outputs": [],
			"stateMutability": "nonpayable",
			"type": "function"
		},
		{
			"inputs": [
				{
					"internalType": "bytes32",
					"name": "",
					"type": "bytes32"
				}
			],
			"name": "signedMessages",
			"outputs": [
				{
					"internalType": "uint256",
					"name": "",
					"type": "uint256"
				}
			],
			"stateMutability": "view",
			"type": "function"
		},
		{
			"inputs": [
				{
					"internalType": "address",
					"name": "targetContract",
					"type": "address"
				},
				{
					"internalType": "bytes",
					"name": "calldataPayload",
					"type": "bytes"
				}
			],
			"name": "simulateAndRevert",
			"outputs": [],
			"stateMutability": "nonpayable",
			"type": "function"
		},
		{
			"inputs": [
				{
					"internalType": "address",
					"name": "prevOwner",
					"type": "address"
				},
				{
					"internalType": "address",
					"name": "oldOwner",
					"type": "address"
				},
				{
					"internalType": "address",
					"name": "newOwner",
					"type": "address"
				}
			],
			"name": "swapOwner",
			"outputs": [],
			"stateMutability": "nonpayable",
			"type": "function"
		},
		{
			"stateMutability": "payable",
			"type": "receive"
		}
	]
}